{
  "transactions": [
    {
      "hash": null,
      "transactionType": "CALL",
      "contractName": null,
      "contractAddress": "0x962aba0a590981cf9c5b336ac34922c82f203165",
      "function": "buyPrimary(uint256,uint256)",
      "arguments": [
        "15",
        "15"
      ],
      "transaction": {
        "from": "0x81d48d2c5d0744e8ef7a5c35cdceb0a27a1c707b",
        "to": "0x962aba0a590981cf9c5b336ac34922c82f203165",
        "gas": "0x1b1fd",
        "value": "0xd02ab486cedc0000",
        "input": "0xe37178f1000000000000000000000000000000000000000000000000000000000000000f000000000000000000000000000000000000000000000000000000000000000f",
        "nonce": "0x201",
        "chainId": "0x4cef52"
      },
      "additionalContracts": [],
      "isFixedGasLimit": false
    },
    {
      "hash": null,
      "transactionType": "CALL",
      "contractName": null,
      "contractAddress": "0x962aba0a590981cf9c5b336ac34922c82f203165",
      "function": "buyPrimary(uint256,uint256)",
      "arguments": [
        "16",
        "126"
      ],
      "transaction": {
        "from": "0x81d48d2c5d0744e8ef7a5c35cdceb0a27a1c707b",
        "to": "0x962aba0a590981cf9c5b336ac34922c82f203165",
        "gas": "0x1b1fd",
        "value": "0x1a02ac71de46a0000",
        "input": "0xe37178f10000000000000000000000000000000000000000000000000000000000000010000000000000000000000000000000000000000000000000000000000000007e",
        "nonce": "0x202",
        "chainId": "0x4cef52"
      },
      "additionalContracts": [],
      "isFixedGasLimit": false
    },
    {
      "hash": null,
      "transactionType": "CALL",
      "contractName": null,
      "contractAddress": "0x962aba0a590981cf9c5b336ac34922c82f203165",
      "function": "buyPrimary(uint256,uint256)",
      "arguments": [
        "16",
        "33"
      ],
      "transaction": {
        "from": "0x81d48d2c5d0744e8ef7a5c35cdceb0a27a1c707b",
        "to": "0x962aba0a590981cf9c5b336ac34922c82f203165",
        "gas": "0x1b1fd",
        "value": "0x6cff036341eb0000",
        "input": "0xe37178f100000000000000000000000000000000000000000000000000000000000000100000000000000000000000000000000000000000000000000000000000000021",
        "nonce": "0x203",
        "chainId": "0x4cef52"
      },
      "additionalContracts": [],
      "isFixedGasLimit": false
    },
    {
      "hash": null,
      "transactionType": "CALL",
      "contractName": null,
      "contractAddress": "0x962aba0a590981cf9c5b336ac34922c82f203165",
      "function": "buyPrimary(uint256,uint256)",
      "arguments": [
        "17",
        "14"
      ],
      "transaction": {
        "from": "0x81d48d2c5d0744e8ef7a5c35cdceb0a27a1c707b",
        "to": "0x962aba0a590981cf9c5b336ac34922c82f203165",
        "gas": "0x1b1fd",
        "value": "0x6bd495d530c90000",
        "input": "0xe37178f10000000000000000000000000000000000000000000000000000000000000011000000000000000000000000000000000000000000000000000000000000000e",
        "nonce": "0x204",
        "chainId": "0x4cef52"
      },
      "additionalContracts": [],
      "isFixedGasLimit": false
    },
    {
      "hash": null,
      "transactionType": "CALL",
      "contractName": null,
      "contractAddress": "0x962aba0a590981cf9c5b336ac34922c82f203165",
      "function": "buyPrimary(uint256,uint256)",
      "arguments": [
        "18",
        "648"
      ],
      "transaction": {
        "from": "0x81d48d2c5d0744e8ef7a5c35cdceb0a27a1c707b",
        "to": "0x962aba0a590981cf9c5b336ac34922c82f203165",
        "gas": "0x1b20e",
        "value": "0xa65dee7c1f620000",
        "input": "0xe37178f100000000000000000000000000000000000000000000000000000000000000120000000000000000000000000000000000000000000000000000000000000288",
        "nonce": "0x205",
        "chainId": "0x4cef52"
      },
      "additionalContracts": [],
      "isFixedGasLimit": false
    },
    {
      "hash": null,
      "transactionType": "CALL",
      "contractName": null,
      "contractAddress": "0x962aba0a590981cf9c5b336ac34922c82f203165",
      "function": "buyPrimary(uint256,uint256)",
      "arguments": [
        "18",
        "810"
      ],
      "transaction": {
        "from": "0x81d48d2c5d0744e8ef7a5c35cdceb0a27a1c707b",
        "to": "0x962aba0a590981cf9c5b336ac34922c82f203165",
        "gas": "0x1b20e",
        "value": "0xcff56a1b273a8000",
        "input": "0xe37178f10000000000000000000000000000000000000000000000000000000000000012000000000000000000000000000000000000000000000000000000000000032a",
        "nonce": "0x206",
        "chainId": "0x4cef52"
      },
      "additionalContracts": [],
      "isFixedGasLimit": false
    },
    {
      "hash": null,
      "transactionType": "CALL",
      "contractName": null,
      "contractAddress": "0x962aba0a590981cf9c5b336ac34922c82f203165",
      "function": "buyPrimary(uint256,uint256)",
      "arguments": [
        "19",
        "15"
      ],
      "transaction": {
        "from": "0x81d48d2c5d0744e8ef7a5c35cdceb0a27a1c707b",
        "to": "0x962aba0a590981cf9c5b336ac34922c82f203165",
        "gas": "0x1b1fd",
        "value": "0xccd60dcc54c40000",
        "input": "0xe37178f10000000000000000000000000000000000000000000000000000000000000013000000000000000000000000000000000000000000000000000000000000000f",
        "nonce": "0x207",
        "chainId": "0x4cef52"
      },
      "additionalContracts": [],
      "isFixedGasLimit": false
    },
    {
      "hash": null,
      "transactionType": "CALL",
      "contractName": null,
      "contractAddress": "0x962aba0a590981cf9c5b336ac34922c82f203165",
      "function": "buyPrimary(uint256,uint256)",
      "arguments": [
        "20",
        "60"
      ],
      "transaction": {
        "from": "0x81d48d2c5d0744e8ef7a5c35cdceb0a27a1c707b",
        "to": "0x962aba0a590981cf9c5b336ac34922c82f203165",
        "gas": "0x1b1fd",
        "value": "0x1a055690d9db80000",
        "input": "0xe37178f10000000000000000000000000000000000000000000000000000000000000014000000000000000000000000000000000000000000000000000000000000003c",
        "nonce": "0x208",
        "chainId": "0x4cef52"
      },
      "additionalContracts": [],
      "isFixedGasLimit": false
    },
    {
      "hash": null,
      "transactionType": "CALL",
      "contractName": null,
      "contractAddress": "0x962aba0a590981cf9c5b336ac34922c82f203165",
      "function": "buyPrimary(uint256,uint256)",
      "arguments": [
        "20",
        "16"
      ],
      "transaction": {
        "from": "0x81d48d2c5d0744e8ef7a5c35cdceb0a27a1c707b",
        "to": "0x962aba0a590981cf9c5b336ac34922c82f203165",
        "gas": "0x1b1fd",
        "value": "0x6f05b59d3b200000",
        "input": "0xe37178f100000000000000000000000000000000000000000000000000000000000000140000000000000000000000000000000000000000000000000000000000000010",
        "nonce": "0x209",
        "chainId": "0x4cef52"
      },
      "additionalContracts": [],
      "isFixedGasLimit": false
    },
    {
      "hash": null,
      "transactionType": "CALL",
      "contractName": null,
      "contractAddress": "0x962aba0a590981cf9c5b336ac34922c82f203165",
      "function": "buyPrimary(uint256,uint256)",
      "arguments": [
        "21",
        "32"
      ],
      "transaction": {
        "from": "0x81d48d2c5d0744e8ef7a5c35cdceb0a27a1c707b",
        "to": "0x962aba0a590981cf9c5b336ac34922c82f203165",
        "gas": "0x1b1fd",
        "value": "0x6f05b59d3b200000",
        "input": "0xe37178f100000000000000000000000000000000000000000000000000000000000000150000000000000000000000000000000000000000000000000000000000000020",
        "nonce": "0x20a",
        "chainId": "0x4cef52"
      },
      "additionalContracts": [],
      "isFixedGasLimit": false
    },
    {
      "hash": null,
      "transactionType": "CALL",
      "contractName": null,
      "contractAddress": "0x962aba0a590981cf9c5b336ac34922c82f203165",
      "function": "buyPrimary(uint256,uint256)",
      "arguments": [
        "22",
        "28"
      ],
      "transaction": {
        "from": "0x81d48d2c5d0744e8ef7a5c35cdceb0a27a1c707b",
        "to": "0x962aba0a590981cf9c5b336ac34922c82f203165",
        "gas": "0x1b1fd",
        "value": "0xa61dfb94896d0000",
        "input": "0xe37178f10000000000000000000000000000000000000000000000000000000000000016000000000000000000000000000000000000000000000000000000000000001c",
        "nonce": "0x20b",
        "chainId": "0x4cef52"
      },
      "additionalContracts": [],
      "isFixedGasLimit": false
    },
    {
      "hash": null,
      "transactionType": "CALL",
      "contractName": null,
      "contractAddress": "0x962aba0a590981cf9c5b336ac34922c82f203165",
      "function": "buyPrimary(uint256,uint256)",
      "arguments": [
        "22",
        "35"
      ],
      "transaction": {
        "from": "0x81d48d2c5d0744e8ef7a5c35cdceb0a27a1c707b",
        "to": "0x962aba0a590981cf9c5b336ac34922c82f203165",
        "gas": "0x1b1fd",
        "value": "0xcfa57a79abc84000",
        "input": "0xe37178f100000000000000000000000000000000000000000000000000000000000000160000000000000000000000000000000000000000000000000000000000000023",
        "nonce": "0x20c",
        "chainId": "0x4cef52"
      },
      "additionalContracts": [],
      "isFixedGasLimit": false
    },
    {
      "hash": null,
      "transactionType": "CALL",
      "contractName": null,
      "contractAddress": "0x962aba0a590981cf9c5b336ac34922c82f203165",
      "function": "buyPrimary(uint256,uint256)",
      "arguments": [
        "23",
        "51"
      ],
      "transaction": {
        "from": "0x81d48d2c5d0744e8ef7a5c35cdceb0a27a1c707b",
        "to": "0x962aba0a590981cf9c5b336ac34922c82f203165",
        "gas": "0x1b1fd",
        "value": "0xd015638ef2350000",
        "input": "0xe37178f100000000000000000000000000000000000000000000000000000000000000170000000000000000000000000000000000000000000000000000000000000033",
        "nonce": "0x20d",
        "chainId": "0x4cef52"
      },
      "additionalContracts": [],
      "isFixedGasLimit": false
    },
    {
      "hash": null,
      "transactionType": "CALL",
      "contractName": null,
      "contractAddress": "0x962aba0a590981cf9c5b336ac34922c82f203165",
      "function": "buyPrimary(uint256,uint256)",
      "arguments": [
        "24",
        "1250"
      ],
      "transaction": {
        "from": "0x81d48d2c5d0744e8ef7a5c35cdceb0a27a1c707b",
        "to": "0x962aba0a590981cf9c5b336ac34922c82f203165",
        "gas": "0x1b20e",
        "value": "0x1a055690d9db80000",
        "input": "0xe37178f1000000000000000000000000000000000000000000000000000000000000001800000000000000000000000000000000000000000000000000000000000004e2",
        "nonce": "0x20e",
        "chainId": "0x4cef52"
      },
      "additionalContracts": [],
      "isFixedGasLimit": false
    },
    {
      "hash": null,
      "transactionType": "CALL",
      "contractName": null,
      "contractAddress": "0x962aba0a590981cf9c5b336ac34922c82f203165",
      "function": "buyPrimary(uint256,uint256)",
      "arguments": [
        "24",
        "333"
      ],
      "transaction": {
        "from": "0x81d48d2c5d0744e8ef7a5c35cdceb0a27a1c707b",
        "to": "0x962aba0a590981cf9c5b336ac34922c82f203165",
        "gas": "0x1b20e",
        "value": "0x6ee949a814ec0000",
        "input": "0xe37178f10000000000000000000000000000000000000000000000000000000000000018000000000000000000000000000000000000000000000000000000000000014d",
        "nonce": "0x20f",
        "chainId": "0x4cef52"
      },
      "additionalContracts": [],
      "isFixedGasLimit": false
    },
    {
      "hash": null,
      "transactionType": "CALL",
      "contractName": null,
      "contractAddress": "0x962aba0a590981cf9c5b336ac34922c82f203165",
      "function": "buyPrimary(uint256,uint256)",
      "arguments": [
        "25",
        "10"
      ],
      "transaction": {
        "from": "0x81d48d2c5d0744e8ef7a5c35cdceb0a27a1c707b",
        "to": "0x962aba0a590981cf9c5b336ac34922c82f203165",
        "gas": "0x1b1fd",
        "value": "0x6c8638915f8e0000",
        "input": "0xe37178f10000000000000000000000000000000000000000000000000000000000000019000000000000000000000000000000000000000000000000000000000000000a",
        "nonce": "0x210",
        "chainId": "0x4cef52"
      },
      "additionalContracts": [],
      "isFixedGasLimit": false
    },
    {
      "hash": null,
      "transactionType": "CALL",
      "contractName": null,
      "contractAddress": "0x962aba0a590981cf9c5b336ac34922c82f203165",
      "function": "buyPrimary(uint256,uint256)",
      "arguments": [
        "26",
        "18"
      ],
      "transaction": {
        "from": "0x81d48d2c5d0744e8ef7a5c35cdceb0a27a1c707b",
        "to": "0x962aba0a590981cf9c5b336ac34922c82f203165",
        "gas": "0x1b1fd",
        "value": "0x9fdf42f6e4800000",
        "input": "0xe37178f1000000000000000000000000000000000000000000000000000000000000001a0000000000000000000000000000000000000000000000000000000000000012",
        "nonce": "0x211",
        "chainId": "0x4cef52"
      },
      "additionalContracts": [],
      "isFixedGasLimit": false
    },
    {
      "hash": null,
      "transactionType": "CALL",
      "contractName": null,
      "contractAddress": "0x962aba0a590981cf9c5b336ac34922c82f203165",
      "function": "buyPrimary(uint256,uint256)",
      "arguments": [
        "26",
        "23"
      ],
      "transaction": {
        "from": "0x81d48d2c5d0744e8ef7a5c35cdceb0a27a1c707b",
        "to": "0x962aba0a590981cf9c5b336ac34922c82f203165",
        "gas": "0x1b1fd",
        "value": "0xcc47f20295c00000",
        "input": "0xe37178f1000000000000000000000000000000000000000000000000000000000000001a0000000000000000000000000000000000000000000000000000000000000017",
        "nonce": "0x212",
        "chainId": "0x4cef52"
      },
      "additionalContracts": [],
      "isFixedGasLimit": false
    },
    {
      "hash": null,
      "transactionType": "CALL",
      "contractName": null,
      "contractAddress": "0x962aba0a590981cf9c5b336ac34922c82f203165",
      "function": "buyPrimary(uint256,uint256)",
      "arguments": [
        "27",
        "12"
      ],
      "transaction": {
        "from": "0x81d48d2c5d0744e8ef7a5c35cdceb0a27a1c707b",
        "to": "0x962aba0a590981cf9c5b336ac34922c82f203165",
        "gas": "0x1b1fd",
        "value": "0xc7d713b49da00000",
        "input": "0xe37178f1000000000000000000000000000000000000000000000000000000000000001b000000000000000000000000000000000000000000000000000000000000000c",
        "nonce": "0x213",
        "chainId": "0x4cef52"
      },
      "additionalContracts": [],
      "isFixedGasLimit": false
    },
    {
      "hash": null,
      "transactionType": "CALL",
      "contractName": null,
      "contractAddress": "0x962aba0a590981cf9c5b336ac34922c82f203165",
      "function": "buyPrimary(uint256,uint256)",
      "arguments": [
        "28",
        "300"
      ],
      "transaction": {
        "from": "0x81d48d2c5d0744e8ef7a5c35cdceb0a27a1c707b",
        "to": "0x962aba0a590981cf9c5b336ac34922c82f203165",
        "gas": "0x1b20e",
        "value": "0x1a055690d9db80000",
        "input": "0xe37178f1000000000000000000000000000000000000000000000000000000000000001c000000000000000000000000000000000000000000000000000000000000012c",
        "nonce": "0x214",
        "chainId": "0x4cef52"
      },
      "additionalContracts": [],
      "isFixedGasLimit": false
    },
    {
      "hash": null,
      "transactionType": "CALL",
      "contractName": null,
      "contractAddress": "0x962aba0a590981cf9c5b336ac34922c82f203165",
      "function": "buyPrimary(uint256,uint256)",
      "arguments": [
        "28",
        "80"
      ],
      "transaction": {
        "from": "0x81d48d2c5d0744e8ef7a5c35cdceb0a27a1c707b",
        "to": "0x962aba0a590981cf9c5b336ac34922c82f203165",
        "gas": "0x1b1fd",
        "value": "0x6f05b59d3b200000",
        "input": "0xe37178f1000000000000000000000000000000000000000000000000000000000000001c0000000000000000000000000000000000000000000000000000000000000050",
        "nonce": "0x215",
        "chainId": "0x4cef52"
      },
      "additionalContracts": [],
      "isFixedGasLimit": false
    }
  ],
  "receipts": [],
  "libraries": [],
  "pending": [],
  "returns": {},
  "timestamp": 1783051247829,
  "chain": 5042002,
  "commit": "d2030d4"
}