{
  "transactions": [
    {
      "hash": "0x0d4e1f7f50e194494c7ead2b00f81e6d8fc7f5490a186d51e43431987b1ed2b4",
      "transactionType": "CALL",
      "contractName": null,
      "contractAddress": "0x4d82b6e528d3c2e1a3592e14863ec95eaef4ff85",
      "function": "createAsset(string,string,uint256,string)",
      "arguments": [
        "US T-BILL 2026-Q3",
        "treasuries",
        "1000000",
        "hadron://assets/t-bill-2026-q3"
      ],
      "transaction": {
        "from": "0x81d48d2c5d0744e8ef7a5c35cdceb0a27a1c707b",
        "to": "0x4d82b6e528d3c2e1a3592e14863ec95eaef4ff85",
        "gas": "0x32f21",
        "value": "0x0",
        "input": "0x596abcf6000000000000000000000000000000000000000000000000000000000000008000000000000000000000000000000000000000000000000000000000000000c000000000000000000000000000000000000000000000000000000000000f424000000000000000000000000000000000000000000000000000000000000001000000000000000000000000000000000000000000000000000000000000000011555320542d42494c4c20323032362d5133000000000000000000000000000000000000000000000000000000000000000000000000000000000000000000000a7472656173757269657300000000000000000000000000000000000000000000000000000000000000000000000000000000000000000000000000000000001e686164726f6e3a2f2f6173736574732f742d62696c6c2d323032362d71330000",
        "nonce": "0x1cf",
        "chainId": "0x4cef52"
      },
      "additionalContracts": [],
      "isFixedGasLimit": false
    },
    {
      "hash": "0xbab091c3d905c6f611f2ad123bab7be9a5aa466a59d2deaccd5dfddb2fbf325e",
      "transactionType": "CALL",
      "contractName": null,
      "contractAddress": "0x962aba0a590981cf9c5b336ac34922c82f203165",
      "function": "createPrimaryOffering(uint256,uint256,uint256)",
      "arguments": [
        "15",
        "1000000000000000000",
        "600000"
      ],
      "transaction": {
        "from": "0x81d48d2c5d0744e8ef7a5c35cdceb0a27a1c707b",
        "to": "0x962aba0a590981cf9c5b336ac34922c82f203165",
        "gas": "0x38fb2",
        "value": "0x0",
        "input": "0x9f4ab023000000000000000000000000000000000000000000000000000000000000000f0000000000000000000000000000000000000000000000000de0b6b3a764000000000000000000000000000000000000000000000000000000000000000927c0",
        "nonce": "0x1d0",
        "chainId": "0x4cef52"
      },
      "additionalContracts": [],
      "isFixedGasLimit": false
    },
    {
      "hash": "0xd5e13ef60d78678249a80ccf20dbecd4e7cd987fafecb710ba702d499f38f365",
      "transactionType": "CALL",
      "contractName": null,
      "contractAddress": "0x4d82b6e528d3c2e1a3592e14863ec95eaef4ff85",
      "function": "createAsset(string,string,uint256,string)",
      "arguments": [
        "GOLD OUNCE VAULT #4",
        "gold",
        "50000",
        "hadron://assets/gold-ounce-4"
      ],
      "transaction": {
        "from": "0x81d48d2c5d0744e8ef7a5c35cdceb0a27a1c707b",
        "to": "0x4d82b6e528d3c2e1a3592e14863ec95eaef4ff85",
        "gas": "0x32ead",
        "value": "0x0",
        "input": "0x596abcf6000000000000000000000000000000000000000000000000000000000000008000000000000000000000000000000000000000000000000000000000000000c0000000000000000000000000000000000000000000000000000000000000c35000000000000000000000000000000000000000000000000000000000000001000000000000000000000000000000000000000000000000000000000000000013474f4c44204f554e4345205641554c54202334000000000000000000000000000000000000000000000000000000000000000000000000000000000000000004676f6c6400000000000000000000000000000000000000000000000000000000000000000000000000000000000000000000000000000000000000000000001c686164726f6e3a2f2f6173736574732f676f6c642d6f756e63652d3400000000",
        "nonce": "0x1d1",
        "chainId": "0x4cef52"
      },
      "additionalContracts": [],
      "isFixedGasLimit": false
    },
    {
      "hash": "0xf9e92b7a41dfb4493b73bc3fcfc3109fcdcfb72255b81c2bad71264ca5e97606",
      "transactionType": "CALL",
      "contractName": null,
      "contractAddress": "0x962aba0a590981cf9c5b336ac34922c82f203165",
      "function": "createPrimaryOffering(uint256,uint256,uint256)",
      "arguments": [
        "16",
        "238000000000000000",
        "30000"
      ],
      "transaction": {
        "from": "0x81d48d2c5d0744e8ef7a5c35cdceb0a27a1c707b",
        "to": "0x962aba0a590981cf9c5b336ac34922c82f203165",
        "gas": "0x35cfb",
        "value": "0x0",
        "input": "0x9f4ab0230000000000000000000000000000000000000000000000000000000000000010000000000000000000000000000000000000000000000000034d8bbd308b00000000000000000000000000000000000000000000000000000000000000007530",
        "nonce": "0x1d2",
        "chainId": "0x4cef52"
      },
      "additionalContracts": [],
      "isFixedGasLimit": false
    },
    {
      "hash": "0xd5b42b30e6dcafdf7645a9ed19c141ac853680b0f87bd2c304318a6f114d5eea",
      "transactionType": "CALL",
      "contractName": null,
      "contractAddress": "0x4d82b6e528d3c2e1a3592e14863ec95eaef4ff85",
      "function": "createAsset(string,string,uint256,string)",
      "arguments": [
        "MARINA TOWER UNIT 12F",
        "real-estate",
        "200000",
        "hadron://assets/marina-tower-12f"
      ],
      "transaction": {
        "from": "0x81d48d2c5d0744e8ef7a5c35cdceb0a27a1c707b",
        "to": "0x4d82b6e528d3c2e1a3592e14863ec95eaef4ff85",
        "gas": "0x3de95",
        "value": "0x0",
        "input": "0x596abcf6000000000000000000000000000000000000000000000000000000000000008000000000000000000000000000000000000000000000000000000000000000c00000000000000000000000000000000000000000000000000000000000030d40000000000000000000000000000000000000000000000000000000000000010000000000000000000000000000000000000000000000000000000000000000154d4152494e4120544f57455220554e4954203132460000000000000000000000000000000000000000000000000000000000000000000000000000000000000b7265616c2d6573746174650000000000000000000000000000000000000000000000000000000000000000000000000000000000000000000000000000000020686164726f6e3a2f2f6173736574732f6d6172696e612d746f7765722d313266",
        "nonce": "0x1d3",
        "chainId": "0x4cef52"
      },
      "additionalContracts": [],
      "isFixedGasLimit": false
    },
    {
      "hash": "0x83b57f1f932c8d4cdc8be236a2e5cc7695d9a671dd23d92b366acb08ad916e50",
      "transactionType": "CALL",
      "contractName": null,
      "contractAddress": "0x962aba0a590981cf9c5b336ac34922c82f203165",
      "function": "createPrimaryOffering(uint256,uint256,uint256)",
      "arguments": [
        "17",
        "555000000000000000",
        "120000"
      ],
      "transaction": {
        "from": "0x81d48d2c5d0744e8ef7a5c35cdceb0a27a1c707b",
        "to": "0x962aba0a590981cf9c5b336ac34922c82f203165",
        "gas": "0x35d1b",
        "value": "0x0",
        "input": "0x9f4ab023000000000000000000000000000000000000000000000000000000000000001100000000000000000000000000000000000000000000000007b3c18f3a578000000000000000000000000000000000000000000000000000000000000001d4c0",
        "nonce": "0x1d4",
        "chainId": "0x4cef52"
      },
      "additionalContracts": [],
      "isFixedGasLimit": false
    },
    {
      "hash": "0xfa491821c1df72338602cb65404de4f2b7a036a4c35249c447ecc4b03779ef60",
      "transactionType": "CALL",
      "contractName": null,
      "contractAddress": "0x4d82b6e528d3c2e1a3592e14863ec95eaef4ff85",
      "function": "createAsset(string,string,uint256,string)",
      "arguments": [
        "VERRA CARBON LOT-9",
        "carbon",
        "800000",
        "hadron://assets/verra-carbon-9"
      ],
      "transaction": {
        "from": "0x81d48d2c5d0744e8ef7a5c35cdceb0a27a1c707b",
        "to": "0x4d82b6e528d3c2e1a3592e14863ec95eaef4ff85",
        "gas": "0x32edf",
        "value": "0x0",
        "input": "0x596abcf6000000000000000000000000000000000000000000000000000000000000008000000000000000000000000000000000000000000000000000000000000000c000000000000000000000000000000000000000000000000000000000000c350000000000000000000000000000000000000000000000000000000000000001000000000000000000000000000000000000000000000000000000000000000012564552524120434152424f4e204c4f542d3900000000000000000000000000000000000000000000000000000000000000000000000000000000000000000006636172626f6e0000000000000000000000000000000000000000000000000000000000000000000000000000000000000000000000000000000000000000001e686164726f6e3a2f2f6173736574732f76657272612d636172626f6e2d390000",
        "nonce": "0x1d5",
        "chainId": "0x4cef52"
      },
      "additionalContracts": [],
      "isFixedGasLimit": false
    },
    {
      "hash": "0xae5d49af0440ece71c900715071866c6b449c1aa4ff38fb94ee71ab06aba5633",
      "transactionType": "CALL",
      "contractName": null,
      "contractAddress": "0x962aba0a590981cf9c5b336ac34922c82f203165",
      "function": "createPrimaryOffering(uint256,uint256,uint256)",
      "arguments": [
        "18",
        "18500000000000000",
        "480000"
      ],
      "transaction": {
        "from": "0x81d48d2c5d0744e8ef7a5c35cdceb0a27a1c707b",
        "to": "0x962aba0a590981cf9c5b336ac34922c82f203165",
        "gas": "0x35cfb",
        "value": "0x0",
        "input": "0x9f4ab02300000000000000000000000000000000000000000000000000000000000000120000000000000000000000000000000000000000000000000041b9a6e85840000000000000000000000000000000000000000000000000000000000000075300",
        "nonce": "0x1d6",
        "chainId": "0x4cef52"
      },
      "additionalContracts": [],
      "isFixedGasLimit": false
    },
    {
      "hash": "0xdb52cb181c989d8c54a7eb06b9c245b5bdc01cd8a157110369259c175b696b8f",
      "transactionType": "CALL",
      "contractName": null,
      "contractAddress": "0x4d82b6e528d3c2e1a3592e14863ec95eaef4ff85",
      "function": "createAsset(string,string,uint256,string)",
      "arguments": [
        "US T-Note 2028",
        "treasuries",
        "1000000",
        "hadron://assets/us-t-note-2028"
      ],
      "transaction": {
        "from": "0x81d48d2c5d0744e8ef7a5c35cdceb0a27a1c707b",
        "to": "0x4d82b6e528d3c2e1a3592e14863ec95eaef4ff85",
        "gas": "0x32ef0",
        "value": "0x0",
        "input": "0x596abcf6000000000000000000000000000000000000000000000000000000000000008000000000000000000000000000000000000000000000000000000000000000c000000000000000000000000000000000000000000000000000000000000f42400000000000000000000000000000000000000000000000000000000000000100000000000000000000000000000000000000000000000000000000000000000e555320542d4e6f74652032303238000000000000000000000000000000000000000000000000000000000000000000000000000000000000000000000000000a7472656173757269657300000000000000000000000000000000000000000000000000000000000000000000000000000000000000000000000000000000001e686164726f6e3a2f2f6173736574732f75732d742d6e6f74652d323032380000",
        "nonce": "0x1d7",
        "chainId": "0x4cef52"
      },
      "additionalContracts": [],
      "isFixedGasLimit": false
    },
    {
      "hash": "0x2d75f5e15ddb011b2ae8715e693887e46602c5e638f95e7f6d6147f5f1ca251f",
      "transactionType": "CALL",
      "contractName": null,
      "contractAddress": "0x962aba0a590981cf9c5b336ac34922c82f203165",
      "function": "createPrimaryOffering(uint256,uint256,uint256)",
      "arguments": [
        "19",
        "984000000000000000",
        "600000"
      ],
      "transaction": {
        "from": "0x81d48d2c5d0744e8ef7a5c35cdceb0a27a1c707b",
        "to": "0x962aba0a590981cf9c5b336ac34922c82f203165",
        "gas": "0x38fb2",
        "value": "0x0",
        "input": "0x9f4ab02300000000000000000000000000000000000000000000000000000000000000130000000000000000000000000000000000000000000000000da7dec95afc000000000000000000000000000000000000000000000000000000000000000927c0",
        "nonce": "0x1d8",
        "chainId": "0x4cef52"
      },
      "additionalContracts": [],
      "isFixedGasLimit": false
    },
    {
      "hash": "0xecb909c00aa5cbc96965ae8a77f5aacc6852179c1ab286176a1070fb5846ba3c",
      "transactionType": "CALL",
      "contractName": null,
      "contractAddress": "0x4d82b6e528d3c2e1a3592e14863ec95eaef4ff85",
      "function": "createAsset(string,string,uint256,string)",
      "arguments": [
        "Meridian SME Credit Pool A",
        "private-credit",
        "500000",
        "hadron://assets/meridian-sme-credit-a"
      ],
      "transaction": {
        "from": "0x81d48d2c5d0744e8ef7a5c35cdceb0a27a1c707b",
        "to": "0x4d82b6e528d3c2e1a3592e14863ec95eaef4ff85",
        "gas": "0x4209c",
        "value": "0x0",
        "input": "0x596abcf6000000000000000000000000000000000000000000000000000000000000008000000000000000000000000000000000000000000000000000000000000000c0000000000000000000000000000000000000000000000000000000000007a1200000000000000000000000000000000000000000000000000000000000000100000000000000000000000000000000000000000000000000000000000000001a4d6572696469616e20534d452043726564697420506f6f6c2041000000000000000000000000000000000000000000000000000000000000000000000000000e707269766174652d6372656469740000000000000000000000000000000000000000000000000000000000000000000000000000000000000000000000000025686164726f6e3a2f2f6173736574732f6d6572696469616e2d736d652d6372656469742d61000000000000000000000000000000000000000000000000000000",
        "nonce": "0x1d9",
        "chainId": "0x4cef52"
      },
      "additionalContracts": [],
      "isFixedGasLimit": false
    },
    {
      "hash": "0xe59b666f9b38a5be4e369cb99d42686769e6d647dca92b3f9f4516ae0d6f41fc",
      "transactionType": "CALL",
      "contractName": null,
      "contractAddress": "0x962aba0a590981cf9c5b336ac34922c82f203165",
      "function": "createPrimaryOffering(uint256,uint256,uint256)",
      "arguments": [
        "20",
        "500000000000000000",
        "300000"
      ],
      "transaction": {
        "from": "0x81d48d2c5d0744e8ef7a5c35cdceb0a27a1c707b",
        "to": "0x962aba0a590981cf9c5b336ac34922c82f203165",
        "gas": "0x38fb2",
        "value": "0x0",
        "input": "0x9f4ab023000000000000000000000000000000000000000000000000000000000000001400000000000000000000000000000000000000000000000006f05b59d3b2000000000000000000000000000000000000000000000000000000000000000493e0",
        "nonce": "0x1da",
        "chainId": "0x4cef52"
      },
      "additionalContracts": [],
      "isFixedGasLimit": false
    },
    {
      "hash": "0x0b987ca8eee7ef2464250412629ab199e9632d1f9b55c2039e393d9e319cf528",
      "transactionType": "CALL",
      "contractName": null,
      "contractAddress": "0x4d82b6e528d3c2e1a3592e14863ec95eaef4ff85",
      "function": "createAsset(string,string,uint256,string)",
      "arguments": [
        "Atlas Trade Receivables B",
        "private-credit",
        "600000",
        "hadron://assets/atlas-trade-receivables-b"
      ],
      "transaction": {
        "from": "0x81d48d2c5d0744e8ef7a5c35cdceb0a27a1c707b",
        "to": "0x4d82b6e528d3c2e1a3592e14863ec95eaef4ff85",
        "gas": "0x420cd",
        "value": "0x0",
        "input": "0x596abcf6000000000000000000000000000000000000000000000000000000000000008000000000000000000000000000000000000000000000000000000000000000c000000000000000000000000000000000000000000000000000000000000927c00000000000000000000000000000000000000000000000000000000000000100000000000000000000000000000000000000000000000000000000000000001941746c61732054726164652052656365697661626c6573204200000000000000000000000000000000000000000000000000000000000000000000000000000e707269766174652d6372656469740000000000000000000000000000000000000000000000000000000000000000000000000000000000000000000000000029686164726f6e3a2f2f6173736574732f61746c61732d74726164652d72656365697661626c65732d620000000000000000000000000000000000000000000000",
        "nonce": "0x1db",
        "chainId": "0x4cef52"
      },
      "additionalContracts": [],
      "isFixedGasLimit": false
    },
    {
      "hash": "0x8de6fcb87f81a37f7f6a6a0be7bb275fa70d1f3f8d8e4d58c081dd4b3acff858",
      "transactionType": "CALL",
      "contractName": null,
      "contractAddress": "0x962aba0a590981cf9c5b336ac34922c82f203165",
      "function": "createPrimaryOffering(uint256,uint256,uint256)",
      "arguments": [
        "21",
        "250000000000000000",
        "360000"
      ],
      "transaction": {
        "from": "0x81d48d2c5d0744e8ef7a5c35cdceb0a27a1c707b",
        "to": "0x962aba0a590981cf9c5b336ac34922c82f203165",
        "gas": "0x38fb2",
        "value": "0x0",
        "input": "0x9f4ab023000000000000000000000000000000000000000000000000000000000000001500000000000000000000000000000000000000000000000003782dace9d900000000000000000000000000000000000000000000000000000000000000057e40",
        "nonce": "0x1dc",
        "chainId": "0x4cef52"
      },
      "additionalContracts": [],
      "isFixedGasLimit": false
    },
    {
      "hash": "0xc2cf91a2fdcdfb2ac4cc3c5c6d426c3a2c37e257d92d7994cf58d3854f764345",
      "transactionType": "CALL",
      "contractName": null,
      "contractAddress": "0x4d82b6e528d3c2e1a3592e14863ec95eaef4ff85",
      "function": "createAsset(string,string,uint256,string)",
      "arguments": [
        "Dockside Logistics Park",
        "real-estate",
        "300000",
        "hadron://assets/dockside-logistics-park"
      ],
      "transaction": {
        "from": "0x81d48d2c5d0744e8ef7a5c35cdceb0a27a1c707b",
        "to": "0x4d82b6e528d3c2e1a3592e14863ec95eaef4ff85",
        "gas": "0x4205a",
        "value": "0x0",
        "input": "0x596abcf6000000000000000000000000000000000000000000000000000000000000008000000000000000000000000000000000000000000000000000000000000000c000000000000000000000000000000000000000000000000000000000000493e000000000000000000000000000000000000000000000000000000000000001000000000000000000000000000000000000000000000000000000000000000017446f636b73696465204c6f67697374696373205061726b000000000000000000000000000000000000000000000000000000000000000000000000000000000b7265616c2d6573746174650000000000000000000000000000000000000000000000000000000000000000000000000000000000000000000000000000000027686164726f6e3a2f2f6173736574732f646f636b736964652d6c6f676973746963732d7061726b00000000000000000000000000000000000000000000000000",
        "nonce": "0x1dd",
        "chainId": "0x4cef52"
      },
      "additionalContracts": [],
      "isFixedGasLimit": false
    },
    {
      "hash": "0x45f6a9e15a3a79d3bafa242d6621bcb374038c0992079d7c8b471267eb96afde",
      "transactionType": "CALL",
      "contractName": null,
      "contractAddress": "0x962aba0a590981cf9c5b336ac34922c82f203165",
      "function": "createPrimaryOffering(uint256,uint256,uint256)",
      "arguments": [
        "22",
        "427500000000000000",
        "180000"
      ],
      "transaction": {
        "from": "0x81d48d2c5d0744e8ef7a5c35cdceb0a27a1c707b",
        "to": "0x962aba0a590981cf9c5b336ac34922c82f203165",
        "gas": "0x35d1b",
        "value": "0x0",
        "input": "0x9f4ab023000000000000000000000000000000000000000000000000000000000000001600000000000000000000000000000000000000000000000005eec8fc297ac000000000000000000000000000000000000000000000000000000000000002bf20",
        "nonce": "0x1de",
        "chainId": "0x4cef52"
      },
      "additionalContracts": [],
      "isFixedGasLimit": false
    },
    {
      "hash": "0x52abad07721bdb16877732ba12f043fab983c24f660157ee380a3e61dbff8503",
      "transactionType": "CALL",
      "contractName": null,
      "contractAddress": "0x4d82b6e528d3c2e1a3592e14863ec95eaef4ff85",
      "function": "createAsset(string,string,uint256,string)",
      "arguments": [
        "Silver Bullion Vault #2",
        "commodities",
        "200000",
        "hadron://assets/silver-bullion-vault-2"
      ],
      "transaction": {
        "from": "0x81d48d2c5d0744e8ef7a5c35cdceb0a27a1c707b",
        "to": "0x4d82b6e528d3c2e1a3592e14863ec95eaef4ff85",
        "gas": "0x42049",
        "value": "0x0",
        "input": "0x596abcf6000000000000000000000000000000000000000000000000000000000000008000000000000000000000000000000000000000000000000000000000000000c00000000000000000000000000000000000000000000000000000000000030d400000000000000000000000000000000000000000000000000000000000000100000000000000000000000000000000000000000000000000000000000000001753696c7665722042756c6c696f6e205661756c74202332000000000000000000000000000000000000000000000000000000000000000000000000000000000b636f6d6d6f6469746965730000000000000000000000000000000000000000000000000000000000000000000000000000000000000000000000000000000026686164726f6e3a2f2f6173736574732f73696c7665722d62756c6c696f6e2d7661756c742d320000000000000000000000000000000000000000000000000000",
        "nonce": "0x1df",
        "chainId": "0x4cef52"
      },
      "additionalContracts": [],
      "isFixedGasLimit": false
    },
    {
      "hash": "0x9da37237c436dbf1d50d21f61a60b15d47cd5f2844ea79cbfcc6648508c57b94",
      "transactionType": "CALL",
      "contractName": null,
      "contractAddress": "0x962aba0a590981cf9c5b336ac34922c82f203165",
      "function": "createPrimaryOffering(uint256,uint256,uint256)",
      "arguments": [
        "23",
        "294000000000000000",
        "120000"
      ],
      "transaction": {
        "from": "0x81d48d2c5d0744e8ef7a5c35cdceb0a27a1c707b",
        "to": "0x962aba0a590981cf9c5b336ac34922c82f203165",
        "gas": "0x38fb2",
        "value": "0x0",
        "input": "0x9f4ab023000000000000000000000000000000000000000000000000000000000000001700000000000000000000000000000000000000000000000004147f713bf70000000000000000000000000000000000000000000000000000000000000001d4c0",
        "nonce": "0x1e0",
        "chainId": "0x4cef52"
      },
      "additionalContracts": [],
      "isFixedGasLimit": false
    },
    {
      "hash": "0xe716fb4c8e848b7b1af023d0b3f9df9ae5baa742d7fd2c0a8c69555cfcef2fa4",
      "transactionType": "CALL",
      "contractName": null,
      "contractAddress": "0x4d82b6e528d3c2e1a3592e14863ec95eaef4ff85",
      "function": "createAsset(string,string,uint256,string)",
      "arguments": [
        "Gold Standard Offset Bundle",
        "carbon",
        "600000",
        "hadron://assets/gold-standard-offset-bundle"
      ],
      "transaction": {
        "from": "0x81d48d2c5d0744e8ef7a5c35cdceb0a27a1c707b",
        "to": "0x4d82b6e528d3c2e1a3592e14863ec95eaef4ff85",
        "gas": "0x4208b",
        "value": "0x0",
        "input": "0x596abcf6000000000000000000000000000000000000000000000000000000000000008000000000000000000000000000000000000000000000000000000000000000c000000000000000000000000000000000000000000000000000000000000927c00000000000000000000000000000000000000000000000000000000000000100000000000000000000000000000000000000000000000000000000000000001b476f6c64205374616e64617264204f66667365742042756e646c6500000000000000000000000000000000000000000000000000000000000000000000000006636172626f6e0000000000000000000000000000000000000000000000000000000000000000000000000000000000000000000000000000000000000000002b686164726f6e3a2f2f6173736574732f676f6c642d7374616e646172642d6f66667365742d62756e646c65000000000000000000000000000000000000000000",
        "nonce": "0x1e1",
        "chainId": "0x4cef52"
      },
      "additionalContracts": [],
      "isFixedGasLimit": false
    },
    {
      "hash": "0xf7b0371d0ddd8374278fb832930bba7fff691bd5cdeaee0e304d5c02ed2bba90",
      "transactionType": "CALL",
      "contractName": null,
      "contractAddress": "0x962aba0a590981cf9c5b336ac34922c82f203165",
      "function": "createPrimaryOffering(uint256,uint256,uint256)",
      "arguments": [
        "24",
        "24000000000000000",
        "360000"
      ],
      "transaction": {
        "from": "0x81d48d2c5d0744e8ef7a5c35cdceb0a27a1c707b",
        "to": "0x962aba0a590981cf9c5b336ac34922c82f203165",
        "gas": "0x35cfb",
        "value": "0x0",
        "input": "0x9f4ab0230000000000000000000000000000000000000000000000000000000000000018000000000000000000000000000000000000000000000000005543df729c00000000000000000000000000000000000000000000000000000000000000057e40",
        "nonce": "0x1e2",
        "chainId": "0x4cef52"
      },
      "additionalContracts": [],
      "isFixedGasLimit": false
    },
    {
      "hash": "0x07f5db6c85b2221d7023bb9f872b11e3caa319764938c75b35293e0e0b83df12",
      "transactionType": "CALL",
      "contractName": null,
      "contractAddress": "0x4d82b6e528d3c2e1a3592e14863ec95eaef4ff85",
      "function": "createAsset(string,string,uint256,string)",
      "arguments": [
        "Solar Farm Basin-2 Notes",
        "infrastructure",
        "500000",
        "hadron://assets/solar-farm-basin-2"
      ],
      "transaction": {
        "from": "0x81d48d2c5d0744e8ef7a5c35cdceb0a27a1c707b",
        "to": "0x4d82b6e528d3c2e1a3592e14863ec95eaef4ff85",
        "gas": "0x42049",
        "value": "0x0",
        "input": "0x596abcf6000000000000000000000000000000000000000000000000000000000000008000000000000000000000000000000000000000000000000000000000000000c0000000000000000000000000000000000000000000000000000000000007a12000000000000000000000000000000000000000000000000000000000000001000000000000000000000000000000000000000000000000000000000000000018536f6c6172204661726d20426173696e2d32204e6f7465730000000000000000000000000000000000000000000000000000000000000000000000000000000e696e6672617374727563747572650000000000000000000000000000000000000000000000000000000000000000000000000000000000000000000000000022686164726f6e3a2f2f6173736574732f736f6c61722d6661726d2d626173696e2d32000000000000000000000000000000000000000000000000000000000000",
        "nonce": "0x1e3",
        "chainId": "0x4cef52"
      },
      "additionalContracts": [],
      "isFixedGasLimit": false
    },
    {
      "hash": "0xd5e31d03f311ebf6325baa6c64c6072f27ea0db0ed859bc7b4947eccad1e0706",
      "transactionType": "CALL",
      "contractName": null,
      "contractAddress": "0x962aba0a590981cf9c5b336ac34922c82f203165",
      "function": "createPrimaryOffering(uint256,uint256,uint256)",
      "arguments": [
        "25",
        "782000000000000000",
        "300000"
      ],
      "transaction": {
        "from": "0x81d48d2c5d0744e8ef7a5c35cdceb0a27a1c707b",
        "to": "0x962aba0a590981cf9c5b336ac34922c82f203165",
        "gas": "0x38fb2",
        "value": "0x0",
        "input": "0x9f4ab02300000000000000000000000000000000000000000000000000000000000000190000000000000000000000000000000000000000000000000ada38db565b000000000000000000000000000000000000000000000000000000000000000493e0",
        "nonce": "0x1e4",
        "chainId": "0x4cef52"
      },
      "additionalContracts": [],
      "isFixedGasLimit": false
    },
    {
      "hash": "0x78dc3555e2d458b14a4f1447467152d11c28181ba765a4125d14b2b3fc00c1c8",
      "transactionType": "CALL",
      "contractName": null,
      "contractAddress": "0x4d82b6e528d3c2e1a3592e14863ec95eaef4ff85",
      "function": "createAsset(string,string,uint256,string)",
      "arguments": [
        "Fiber Grid Metro Loop",
        "infrastructure",
        "250000",
        "hadron://assets/fiber-grid-metro-loop"
      ],
      "transaction": {
        "from": "0x81d48d2c5d0744e8ef7a5c35cdceb0a27a1c707b",
        "to": "0x4d82b6e528d3c2e1a3592e14863ec95eaef4ff85",
        "gas": "0x42049",
        "value": "0x0",
        "input": "0x596abcf6000000000000000000000000000000000000000000000000000000000000008000000000000000000000000000000000000000000000000000000000000000c0000000000000000000000000000000000000000000000000000000000003d0900000000000000000000000000000000000000000000000000000000000000100000000000000000000000000000000000000000000000000000000000000001546696265722047726964204d6574726f204c6f6f700000000000000000000000000000000000000000000000000000000000000000000000000000000000000e696e6672617374727563747572650000000000000000000000000000000000000000000000000000000000000000000000000000000000000000000000000025686164726f6e3a2f2f6173736574732f66696265722d677269642d6d6574726f2d6c6f6f70000000000000000000000000000000000000000000000000000000",
        "nonce": "0x1e5",
        "chainId": "0x4cef52"
      },
      "additionalContracts": [],
      "isFixedGasLimit": false
    },
    {
      "hash": "0x00e912b8d093f1cca095234043952ee5cddf695f75b1d57e111d6f6a0f657bd9",
      "transactionType": "CALL",
      "contractName": null,
      "contractAddress": "0x962aba0a590981cf9c5b336ac34922c82f203165",
      "function": "createPrimaryOffering(uint256,uint256,uint256)",
      "arguments": [
        "26",
        "640000000000000000",
        "150000"
      ],
      "transaction": {
        "from": "0x81d48d2c5d0744e8ef7a5c35cdceb0a27a1c707b",
        "to": "0x962aba0a590981cf9c5b336ac34922c82f203165",
        "gas": "0x38fb2",
        "value": "0x0",
        "input": "0x9f4ab023000000000000000000000000000000000000000000000000000000000000001a00000000000000000000000000000000000000000000000008e1bc9bf040000000000000000000000000000000000000000000000000000000000000000249f0",
        "nonce": "0x1e6",
        "chainId": "0x4cef52"
      },
      "additionalContracts": [],
      "isFixedGasLimit": false
    },
    {
      "hash": "0x320bbf32f95bb394b545f34d051844b2ace4bbdcb2d1b9a3e9db89154d7e287c",
      "transactionType": "CALL",
      "contractName": null,
      "contractAddress": "0x4d82b6e528d3c2e1a3592e14863ec95eaef4ff85",
      "function": "createAsset(string,string,uint256,string)",
      "arguments": [
        "Blue-Chip Art Fraction #7",
        "art-collectibles",
        "80000",
        "hadron://assets/blue-chip-art-fraction-7"
      ],
      "transaction": {
        "from": "0x81d48d2c5d0744e8ef7a5c35cdceb0a27a1c707b",
        "to": "0x4d82b6e528d3c2e1a3592e14863ec95eaef4ff85",
        "gas": "0x420de",
        "value": "0x0",
        "input": "0x596abcf6000000000000000000000000000000000000000000000000000000000000008000000000000000000000000000000000000000000000000000000000000000c0000000000000000000000000000000000000000000000000000000000001388000000000000000000000000000000000000000000000000000000000000001000000000000000000000000000000000000000000000000000000000000000019426c75652d4368697020417274204672616374696f6e2023370000000000000000000000000000000000000000000000000000000000000000000000000000106172742d636f6c6c65637469626c6573000000000000000000000000000000000000000000000000000000000000000000000000000000000000000000000028686164726f6e3a2f2f6173736574732f626c75652d636869702d6172742d6672616374696f6e2d37000000000000000000000000000000000000000000000000",
        "nonce": "0x1e7",
        "chainId": "0x4cef52"
      },
      "additionalContracts": [],
      "isFixedGasLimit": false
    },
    {
      "hash": "0xaa8ee2ad525440767c83ba428ad47059006223857e1b894c51210ff686e171d6",
      "transactionType": "CALL",
      "contractName": null,
      "contractAddress": "0x962aba0a590981cf9c5b336ac34922c82f203165",
      "function": "createPrimaryOffering(uint256,uint256,uint256)",
      "arguments": [
        "27",
        "1200000000000000000",
        "48000"
      ],
      "transaction": {
        "from": "0x81d48d2c5d0744e8ef7a5c35cdceb0a27a1c707b",
        "to": "0x962aba0a590981cf9c5b336ac34922c82f203165",
        "gas": "0x35cfb",
        "value": "0x0",
        "input": "0x9f4ab023000000000000000000000000000000000000000000000000000000000000001b00000000000000000000000000000000000000000000000010a741a462780000000000000000000000000000000000000000000000000000000000000000bb80",
        "nonce": "0x1e8",
        "chainId": "0x4cef52"
      },
      "additionalContracts": [],
      "isFixedGasLimit": false
    },
    {
      "hash": "0x4dec9b550017f442cca1ee30911e2a9614bc8523fbb870cf8cfde3a22020d4ec",
      "transactionType": "CALL",
      "contractName": null,
      "contractAddress": "0x4d82b6e528d3c2e1a3592e14863ec95eaef4ff85",
      "function": "createAsset(string,string,uint256,string)",
      "arguments": [
        "Nexus Invoice Pool 2026-07",
        "invoice-financing",
        "1200000",
        "hadron://assets/nexus-invoice-pool-2026-07"
      ],
      "transaction": {
        "from": "0x81d48d2c5d0744e8ef7a5c35cdceb0a27a1c707b",
        "to": "0x4d82b6e528d3c2e1a3592e14863ec95eaef4ff85",
        "gas": "0x42120",
        "value": "0x0",
        "input": "0x596abcf6000000000000000000000000000000000000000000000000000000000000008000000000000000000000000000000000000000000000000000000000000000c00000000000000000000000000000000000000000000000000000000000124f800000000000000000000000000000000000000000000000000000000000000100000000000000000000000000000000000000000000000000000000000000001a4e6578757320496e766f69636520506f6f6c20323032362d30370000000000000000000000000000000000000000000000000000000000000000000000000011696e766f6963652d66696e616e63696e67000000000000000000000000000000000000000000000000000000000000000000000000000000000000000000002a686164726f6e3a2f2f6173736574732f6e657875732d696e766f6963652d706f6f6c2d323032362d303700000000000000000000000000000000000000000000",
        "nonce": "0x1e9",
        "chainId": "0x4cef52"
      },
      "additionalContracts": [],
      "isFixedGasLimit": false
    },
    {
      "hash": "0x67fdf34f9a25976db98686c86395565f4ae4a90a7d5e677044065905154dbdc5",
      "transactionType": "CALL",
      "contractName": null,
      "contractAddress": "0x962aba0a590981cf9c5b336ac34922c82f203165",
      "function": "createPrimaryOffering(uint256,uint256,uint256)",
      "arguments": [
        "28",
        "100000000000000000",
        "720000"
      ],
      "transaction": {
        "from": "0x81d48d2c5d0744e8ef7a5c35cdceb0a27a1c707b",
        "to": "0x962aba0a590981cf9c5b336ac34922c82f203165",
        "gas": "0x38fb2",
        "value": "0x0",
        "input": "0x9f4ab023000000000000000000000000000000000000000000000000000000000000001c000000000000000000000000000000000000000000000000016345785d8a000000000000000000000000000000000000000000000000000000000000000afc80",
        "nonce": "0x1ea",
        "chainId": "0x4cef52"
      },
      "additionalContracts": [],
      "isFixedGasLimit": false
    }
  ],
  "receipts": [
    {
      "status": "0x1",
      "cumulativeGasUsed": "0x105dce",
      "logs": [
        {
          "address": "0x4d82b6e528d3c2e1a3592e14863ec95eaef4ff85",
          "topics": [
            "0xc3d58168c5ae7397731d063d5bbf3d657854427343f4c083240f7aacaa2d0f62",
            "0x00000000000000000000000081d48d2c5d0744e8ef7a5c35cdceb0a27a1c707b",
            "0x0000000000000000000000000000000000000000000000000000000000000000",
            "0x00000000000000000000000081d48d2c5d0744e8ef7a5c35cdceb0a27a1c707b"
          ],
          "data": "0x000000000000000000000000000000000000000000000000000000000000000f00000000000000000000000000000000000000000000000000000000000f4240",
          "blockHash": "0x34b57dde9ccb74beebe7ab0baa38278b8f496770ffd427abffeef40d490dfc9f",
          "blockNumber": "0x2f98169",
          "blockTimestamp": "0x6a471e87",
          "transactionHash": "0x0d4e1f7f50e194494c7ead2b00f81e6d8fc7f5490a186d51e43431987b1ed2b4",
          "transactionIndex": "0x8",
          "logIndex": "0x1b",
          "removed": false
        },
        {
          "address": "0x4d82b6e528d3c2e1a3592e14863ec95eaef4ff85",
          "topics": [
            "0x5d55a7ca4b923b36b70eb909992eb2bf005bf58b77d4cfb245faa8cb6b36d884",
            "0x000000000000000000000000000000000000000000000000000000000000000f"
          ],
          "data": "0x000000000000000000000000000000000000000000000000000000000000006000000000000000000000000000000000000000000000000000000000000000a000000000000000000000000000000000000000000000000000000000000f42400000000000000000000000000000000000000000000000000000000000000011555320542d42494c4c20323032362d5133000000000000000000000000000000000000000000000000000000000000000000000000000000000000000000000a7472656173757269657300000000000000000000000000000000000000000000",
          "blockHash": "0x34b57dde9ccb74beebe7ab0baa38278b8f496770ffd427abffeef40d490dfc9f",
          "blockNumber": "0x2f98169",
          "blockTimestamp": "0x6a471e87",
          "transactionHash": "0x0d4e1f7f50e194494c7ead2b00f81e6d8fc7f5490a186d51e43431987b1ed2b4",
          "transactionIndex": "0x8",
          "logIndex": "0x1c",
          "removed": false
        }
      ],
      "logsBloom": "0x00020000000000000000000000000000000000000000000000000000000000000000000000000000000000000000000000000000000000000002000000002000000000000000000000000000000000000000000000000000001000000002000000000000020200000000000000200800000000000000000000000000000000000000000000000800000000000000000000000000000000000000000000000000000000000000000000000008000000000000000000000000000000000000000000000000000000000000000000000000000000000009000000000000000020000200000200000000000000000000000000000000000000000200080000000000",
      "type": "0x2",
      "transactionHash": "0x0d4e1f7f50e194494c7ead2b00f81e6d8fc7f5490a186d51e43431987b1ed2b4",
      "transactionIndex": "0x8",
      "blockHash": "0x34b57dde9ccb74beebe7ab0baa38278b8f496770ffd427abffeef40d490dfc9f",
      "blockNumber": "0x2f98169",
      "gasUsed": "0x24e24",
      "effectiveGasPrice": "0x5d21dba00",
      "from": "0x81d48d2c5d0744e8ef7a5c35cdceb0a27a1c707b",
      "to": "0x4d82b6e528d3c2e1a3592e14863ec95eaef4ff85",
      "contractAddress": null
    },
    {
      "status": "0x1",
      "cumulativeGasUsed": "0x12cd30",
      "logs": [
        {
          "address": "0x4d82b6e528d3c2e1a3592e14863ec95eaef4ff85",
          "topics": [
            "0xc3d58168c5ae7397731d063d5bbf3d657854427343f4c083240f7aacaa2d0f62",
            "0x000000000000000000000000962aba0a590981cf9c5b336ac34922c82f203165",
            "0x00000000000000000000000081d48d2c5d0744e8ef7a5c35cdceb0a27a1c707b",
            "0x000000000000000000000000962aba0a590981cf9c5b336ac34922c82f203165"
          ],
          "data": "0x000000000000000000000000000000000000000000000000000000000000000f00000000000000000000000000000000000000000000000000000000000927c0",
          "blockHash": "0x34b57dde9ccb74beebe7ab0baa38278b8f496770ffd427abffeef40d490dfc9f",
          "blockNumber": "0x2f98169",
          "blockTimestamp": "0x6a471e87",
          "transactionHash": "0xd5e13ef60d78678249a80ccf20dbecd4e7cd987fafecb710ba702d499f38f365",
          "transactionIndex": "0x9",
          "logIndex": "0x1d",
          "removed": false
        },
        {
          "address": "0x962aba0a590981cf9c5b336ac34922c82f203165",
          "topics": [
            "0x32951ff170f53e2a0d7160f9c1da9bafcf35b5003abc23b8b87fee8f1c5d8b25",
            "0x000000000000000000000000000000000000000000000000000000000000000f",
            "0x000000000000000000000000000000000000000000000000000000000000000f"
          ],
          "data": "0x0000000000000000000000000000000000000000000000000de0b6b3a764000000000000000000000000000000000000000000000000000000000000000927c0",
          "blockHash": "0x34b57dde9ccb74beebe7ab0baa38278b8f496770ffd427abffeef40d490dfc9f",
          "blockNumber": "0x2f98169",
          "blockTimestamp": "0x6a471e87",
          "transactionHash": "0xd5e13ef60d78678249a80ccf20dbecd4e7cd987fafecb710ba702d499f38f365",
          "transactionIndex": "0x9",
          "logIndex": "0x1e",
          "removed": false
        }
      ],
      "logsBloom": "0x00000000400000000000000000000000000000000000000000000000000000000000000000000000000000000000000000000000000000000002000000003000000000000000000000000000000000000000000000000000001000000006000000000000000000010000000000200000000000000000000000000000000000000000000000000800000000000000000000000000000000000000000000000000000000000000000000000000000000000001000000000000000000000000000000000000000000000000000000000000000000000009000000000800400000000680000200000000000000000000000000000000000000000200080000000000",
      "type": "0x2",
      "transactionHash": "0xd5e13ef60d78678249a80ccf20dbecd4e7cd987fafecb710ba702d499f38f365",
      "transactionIndex": "0x9",
      "blockHash": "0x34b57dde9ccb74beebe7ab0baa38278b8f496770ffd427abffeef40d490dfc9f",
      "blockNumber": "0x2f98169",
      "gasUsed": "0x26f62",
      "effectiveGasPrice": "0x5d21dba00",
      "from": "0x81d48d2c5d0744e8ef7a5c35cdceb0a27a1c707b",
      "to": "0x962aba0a590981cf9c5b336ac34922c82f203165",
      "contractAddress": null
    },
    {
      "status": "0x1",
      "cumulativeGasUsed": "0x151b00",
      "logs": [
        {
          "address": "0x4d82b6e528d3c2e1a3592e14863ec95eaef4ff85",
          "topics": [
            "0xc3d58168c5ae7397731d063d5bbf3d657854427343f4c083240f7aacaa2d0f62",
            "0x00000000000000000000000081d48d2c5d0744e8ef7a5c35cdceb0a27a1c707b",
            "0x0000000000000000000000000000000000000000000000000000000000000000",
            "0x00000000000000000000000081d48d2c5d0744e8ef7a5c35cdceb0a27a1c707b"
          ],
          "data": "0x0000000000000000000000000000000000000000000000000000000000000010000000000000000000000000000000000000000000000000000000000000c350",
          "blockHash": "0x34b57dde9ccb74beebe7ab0baa38278b8f496770ffd427abffeef40d490dfc9f",
          "blockNumber": "0x2f98169",
          "blockTimestamp": "0x6a471e87",
          "transactionHash": "0xf9e92b7a41dfb4493b73bc3fcfc3109fcdcfb72255b81c2bad71264ca5e97606",
          "transactionIndex": "0xa",
          "logIndex": "0x1f",
          "removed": false
        },
        {
          "address": "0x4d82b6e528d3c2e1a3592e14863ec95eaef4ff85",
          "topics": [
            "0x5d55a7ca4b923b36b70eb909992eb2bf005bf58b77d4cfb245faa8cb6b36d884",
            "0x0000000000000000000000000000000000000000000000000000000000000010"
          ],
          "data": "0x000000000000000000000000000000000000000000000000000000000000006000000000000000000000000000000000000000000000000000000000000000a0000000000000000000000000000000000000000000000000000000000000c3500000000000000000000000000000000000000000000000000000000000000013474f4c44204f554e4345205641554c54202334000000000000000000000000000000000000000000000000000000000000000000000000000000000000000004676f6c6400000000000000000000000000000000000000000000000000000000",
          "blockHash": "0x34b57dde9ccb74beebe7ab0baa38278b8f496770ffd427abffeef40d490dfc9f",
          "blockNumber": "0x2f98169",
          "blockTimestamp": "0x6a471e87",
          "transactionHash": "0xf9e92b7a41dfb4493b73bc3fcfc3109fcdcfb72255b81c2bad71264ca5e97606",
          "transactionIndex": "0xa",
          "logIndex": "0x20",
          "removed": false
        }
      ],
      "logsBloom": "0x00020000100000000000000000000000000000000000000000000000000000000000000000000000000000000000000000000000000000000002000000002000000000000000000000000000000000000000000000000000001000000000000000000000020200000000000000200800000000000000000000000000040000000000000000000000000000000000000000000100000000000000000000000000000000000000000000000008000000000000000000000000000000000000000000000000000000000000000000000000000000000009000000000000000020000200000000000000000000000000000000000000000000000200080000000000",
      "type": "0x2",
      "transactionHash": "0xf9e92b7a41dfb4493b73bc3fcfc3109fcdcfb72255b81c2bad71264ca5e97606",
      "transactionIndex": "0xa",
      "blockHash": "0x34b57dde9ccb74beebe7ab0baa38278b8f496770ffd427abffeef40d490dfc9f",
      "blockNumber": "0x2f98169",
      "gasUsed": "0x24dd0",
      "effectiveGasPrice": "0x5d21dba00",
      "from": "0x81d48d2c5d0744e8ef7a5c35cdceb0a27a1c707b",
      "to": "0x4d82b6e528d3c2e1a3592e14863ec95eaef4ff85",
      "contractAddress": null
    },
    {
      "status": "0x1",
      "cumulativeGasUsed": "0x178a56",
      "logs": [
        {
          "address": "0x4d82b6e528d3c2e1a3592e14863ec95eaef4ff85",
          "topics": [
            "0xc3d58168c5ae7397731d063d5bbf3d657854427343f4c083240f7aacaa2d0f62",
            "0x000000000000000000000000962aba0a590981cf9c5b336ac34922c82f203165",
            "0x00000000000000000000000081d48d2c5d0744e8ef7a5c35cdceb0a27a1c707b",
            "0x000000000000000000000000962aba0a590981cf9c5b336ac34922c82f203165"
          ],
          "data": "0x00000000000000000000000000000000000000000000000000000000000000100000000000000000000000000000000000000000000000000000000000007530",
          "blockHash": "0x34b57dde9ccb74beebe7ab0baa38278b8f496770ffd427abffeef40d490dfc9f",
          "blockNumber": "0x2f98169",
          "blockTimestamp": "0x6a471e87",
          "transactionHash": "0xbab091c3d905c6f611f2ad123bab7be9a5aa466a59d2deaccd5dfddb2fbf325e",
          "transactionIndex": "0xb",
          "logIndex": "0x21",
          "removed": false
        },
        {
          "address": "0x962aba0a590981cf9c5b336ac34922c82f203165",
          "topics": [
            "0x32951ff170f53e2a0d7160f9c1da9bafcf35b5003abc23b8b87fee8f1c5d8b25",
            "0x0000000000000000000000000000000000000000000000000000000000000010",
            "0x0000000000000000000000000000000000000000000000000000000000000010"
          ],
          "data": "0x000000000000000000000000000000000000000000000000034d8bbd308b00000000000000000000000000000000000000000000000000000000000000007530",
          "blockHash": "0x34b57dde9ccb74beebe7ab0baa38278b8f496770ffd427abffeef40d490dfc9f",
          "blockNumber": "0x2f98169",
          "blockTimestamp": "0x6a471e87",
          "transactionHash": "0xbab091c3d905c6f611f2ad123bab7be9a5aa466a59d2deaccd5dfddb2fbf325e",
          "transactionIndex": "0xb",
          "logIndex": "0x22",
          "removed": false
        }
      ],
      "logsBloom": "0x00000000500000000000000000000000000000000000000000000000000000000000000000000000000000000000000000000000000000000002000000003000000000000000000000000000000000000000000000000000001000000004000000000000000000010000000000200000000000000000000000000000040000000000000000000000000000000000000000000100000000000000000000000000000000000000000000000000000000000001000000000000000000000000000000000000000000000000000000000000000000000009000000000800400000000680000000000000000000000000000000000000000000000200080000000000",
      "type": "0x2",
      "transactionHash": "0xbab091c3d905c6f611f2ad123bab7be9a5aa466a59d2deaccd5dfddb2fbf325e",
      "transactionIndex": "0xb",
      "blockHash": "0x34b57dde9ccb74beebe7ab0baa38278b8f496770ffd427abffeef40d490dfc9f",
      "blockNumber": "0x2f98169",
      "gasUsed": "0x26f56",
      "effectiveGasPrice": "0x5d21dba00",
      "from": "0x81d48d2c5d0744e8ef7a5c35cdceb0a27a1c707b",
      "to": "0x962aba0a590981cf9c5b336ac34922c82f203165",
      "contractAddress": null
    },
    {
      "status": "0x1",
      "cumulativeGasUsed": "0x1f8b1d",
      "logs": [
        {
          "address": "0x4d82b6e528d3c2e1a3592e14863ec95eaef4ff85",
          "topics": [
            "0xc3d58168c5ae7397731d063d5bbf3d657854427343f4c083240f7aacaa2d0f62",
            "0x00000000000000000000000081d48d2c5d0744e8ef7a5c35cdceb0a27a1c707b",
            "0x0000000000000000000000000000000000000000000000000000000000000000",
            "0x00000000000000000000000081d48d2c5d0744e8ef7a5c35cdceb0a27a1c707b"
          ],
          "data": "0x00000000000000000000000000000000000000000000000000000000000000110000000000000000000000000000000000000000000000000000000000030d40",
          "blockHash": "0x34b57dde9ccb74beebe7ab0baa38278b8f496770ffd427abffeef40d490dfc9f",
          "blockNumber": "0x2f98169",
          "blockTimestamp": "0x6a471e87",
          "transactionHash": "0x83b57f1f932c8d4cdc8be236a2e5cc7695d9a671dd23d92b366acb08ad916e50",
          "transactionIndex": "0xd",
          "logIndex": "0x2b",
          "removed": false
        },
        {
          "address": "0x4d82b6e528d3c2e1a3592e14863ec95eaef4ff85",
          "topics": [
            "0x5d55a7ca4b923b36b70eb909992eb2bf005bf58b77d4cfb245faa8cb6b36d884",
            "0x0000000000000000000000000000000000000000000000000000000000000011"
          ],
          "data": "0x000000000000000000000000000000000000000000000000000000000000006000000000000000000000000000000000000000000000000000000000000000a00000000000000000000000000000000000000000000000000000000000030d4000000000000000000000000000000000000000000000000000000000000000154d4152494e4120544f57455220554e4954203132460000000000000000000000000000000000000000000000000000000000000000000000000000000000000b7265616c2d657374617465000000000000000000000000000000000000000000",
          "blockHash": "0x34b57dde9ccb74beebe7ab0baa38278b8f496770ffd427abffeef40d490dfc9f",
          "blockNumber": "0x2f98169",
          "blockTimestamp": "0x6a471e87",
          "transactionHash": "0x83b57f1f932c8d4cdc8be236a2e5cc7695d9a671dd23d92b366acb08ad916e50",
          "transactionIndex": "0xd",
          "logIndex": "0x2c",
          "removed": false
        }
      ],
      "logsBloom": "0x00020000000000000000000000000000000000000000000000000000000000000000000000000000000000000000000000000000000000000002000000002000000000000000000000000000000000000000000000000000001000000000000000000000020200000000000000200800000000004000000000000000000000000000000000000000000000000000000000000000000000000000000000000000000000000000000000000008000000000000000000000000000000000400000000001000000000000000000000000000000000000009000000000000000020000200000000000000000000000000000000000000000000000200080000000000",
      "type": "0x2",
      "transactionHash": "0x83b57f1f932c8d4cdc8be236a2e5cc7695d9a671dd23d92b366acb08ad916e50",
      "transactionIndex": "0xd",
      "blockHash": "0x34b57dde9ccb74beebe7ab0baa38278b8f496770ffd427abffeef40d490dfc9f",
      "blockNumber": "0x2f98169",
      "gasUsed": "0x2a553",
      "effectiveGasPrice": "0x5d21dba00",
      "from": "0x81d48d2c5d0744e8ef7a5c35cdceb0a27a1c707b",
      "to": "0x4d82b6e528d3c2e1a3592e14863ec95eaef4ff85",
      "contractAddress": null
    },
    {
      "status": "0x1",
      "cumulativeGasUsed": "0x21fa8b",
      "logs": [
        {
          "address": "0x4d82b6e528d3c2e1a3592e14863ec95eaef4ff85",
          "topics": [
            "0xc3d58168c5ae7397731d063d5bbf3d657854427343f4c083240f7aacaa2d0f62",
            "0x000000000000000000000000962aba0a590981cf9c5b336ac34922c82f203165",
            "0x00000000000000000000000081d48d2c5d0744e8ef7a5c35cdceb0a27a1c707b",
            "0x000000000000000000000000962aba0a590981cf9c5b336ac34922c82f203165"
          ],
          "data": "0x0000000000000000000000000000000000000000000000000000000000000011000000000000000000000000000000000000000000000000000000000001d4c0",
          "blockHash": "0x34b57dde9ccb74beebe7ab0baa38278b8f496770ffd427abffeef40d490dfc9f",
          "blockNumber": "0x2f98169",
          "blockTimestamp": "0x6a471e87",
          "transactionHash": "0xd5b42b30e6dcafdf7645a9ed19c141ac853680b0f87bd2c304318a6f114d5eea",
          "transactionIndex": "0xe",
          "logIndex": "0x2d",
          "removed": false
        },
        {
          "address": "0x962aba0a590981cf9c5b336ac34922c82f203165",
          "topics": [
            "0x32951ff170f53e2a0d7160f9c1da9bafcf35b5003abc23b8b87fee8f1c5d8b25",
            "0x0000000000000000000000000000000000000000000000000000000000000011",
            "0x0000000000000000000000000000000000000000000000000000000000000011"
          ],
          "data": "0x00000000000000000000000000000000000000000000000007b3c18f3a578000000000000000000000000000000000000000000000000000000000000001d4c0",
          "blockHash": "0x34b57dde9ccb74beebe7ab0baa38278b8f496770ffd427abffeef40d490dfc9f",
          "blockNumber": "0x2f98169",
          "blockTimestamp": "0x6a471e87",
          "transactionHash": "0xd5b42b30e6dcafdf7645a9ed19c141ac853680b0f87bd2c304318a6f114d5eea",
          "transactionIndex": "0xe",
          "logIndex": "0x2e",
          "removed": false
        }
      ],
      "logsBloom": "0x00000000400000000000000000000000000000000000000000000000000000000000000000000000000000000000000000000000000000000002000000003000000000000000000000000000000000000000000000000000001000000004000000000000000000010000000000200000000000004000000000000000000000000000000000000000000000000000000000000000000000000000000000000000000000000000000000000000000000000001000000000000000000000400000000001000000000000000000000000000000000000009000000000800400000000680000000000000000000000000000000000000000000000200080000000000",
      "type": "0x2",
      "transactionHash": "0xd5b42b30e6dcafdf7645a9ed19c141ac853680b0f87bd2c304318a6f114d5eea",
      "transactionIndex": "0xe",
      "blockHash": "0x34b57dde9ccb74beebe7ab0baa38278b8f496770ffd427abffeef40d490dfc9f",
      "blockNumber": "0x2f98169",
      "gasUsed": "0x26f6e",
      "effectiveGasPrice": "0x5d21dba00",
      "from": "0x81d48d2c5d0744e8ef7a5c35cdceb0a27a1c707b",
      "to": "0x962aba0a590981cf9c5b336ac34922c82f203165",
      "contractAddress": null
    },
    {
      "status": "0x1",
      "cumulativeGasUsed": "0x24487f",
      "logs": [
        {
          "address": "0x4d82b6e528d3c2e1a3592e14863ec95eaef4ff85",
          "topics": [
            "0xc3d58168c5ae7397731d063d5bbf3d657854427343f4c083240f7aacaa2d0f62",
            "0x00000000000000000000000081d48d2c5d0744e8ef7a5c35cdceb0a27a1c707b",
            "0x0000000000000000000000000000000000000000000000000000000000000000",
            "0x00000000000000000000000081d48d2c5d0744e8ef7a5c35cdceb0a27a1c707b"
          ],
          "data": "0x000000000000000000000000000000000000000000000000000000000000001200000000000000000000000000000000000000000000000000000000000c3500",
          "blockHash": "0x34b57dde9ccb74beebe7ab0baa38278b8f496770ffd427abffeef40d490dfc9f",
          "blockNumber": "0x2f98169",
          "blockTimestamp": "0x6a471e87",
          "transactionHash": "0xfa491821c1df72338602cb65404de4f2b7a036a4c35249c447ecc4b03779ef60",
          "transactionIndex": "0xf",
          "logIndex": "0x2f",
          "removed": false
        },
        {
          "address": "0x4d82b6e528d3c2e1a3592e14863ec95eaef4ff85",
          "topics": [
            "0x5d55a7ca4b923b36b70eb909992eb2bf005bf58b77d4cfb245faa8cb6b36d884",
            "0x0000000000000000000000000000000000000000000000000000000000000012"
          ],
          "data": "0x000000000000000000000000000000000000000000000000000000000000006000000000000000000000000000000000000000000000000000000000000000a000000000000000000000000000000000000000000000000000000000000c35000000000000000000000000000000000000000000000000000000000000000012564552524120434152424f4e204c4f542d3900000000000000000000000000000000000000000000000000000000000000000000000000000000000000000006636172626f6e0000000000000000000000000000000000000000000000000000",
          "blockHash": "0x34b57dde9ccb74beebe7ab0baa38278b8f496770ffd427abffeef40d490dfc9f",
          "blockNumber": "0x2f98169",
          "blockTimestamp": "0x6a471e87",
          "transactionHash": "0xfa491821c1df72338602cb65404de4f2b7a036a4c35249c447ecc4b03779ef60",
          "transactionIndex": "0xf",
          "logIndex": "0x30",
          "removed": false
        }
      ],
      "logsBloom": "0x00020000000000000000000000000000000000000000000000000000000000000000000000000000000000000000000000000000000000000002000000002000000000000000000000000000000000000000000000000000001000000000000000000000020200000000000000200800000000000000000000000000000000000000000000000000000000000000040000000000000000000000000000000000000000000000000000000008000000000000000000000040000000000000000000000000000000000400000000000000000000000009000000000000000020000200000000000000000000000000000000000000000000000200080000000000",
      "type": "0x2",
      "transactionHash": "0xfa491821c1df72338602cb65404de4f2b7a036a4c35249c447ecc4b03779ef60",
      "transactionIndex": "0xf",
      "blockHash": "0x34b57dde9ccb74beebe7ab0baa38278b8f496770ffd427abffeef40d490dfc9f",
      "blockNumber": "0x2f98169",
      "gasUsed": "0x24df4",
      "effectiveGasPrice": "0x5d21dba00",
      "from": "0x81d48d2c5d0744e8ef7a5c35cdceb0a27a1c707b",
      "to": "0x4d82b6e528d3c2e1a3592e14863ec95eaef4ff85",
      "contractAddress": null
    },
    {
      "status": "0x1",
      "cumulativeGasUsed": "0x26b7d5",
      "logs": [
        {
          "address": "0x4d82b6e528d3c2e1a3592e14863ec95eaef4ff85",
          "topics": [
            "0xc3d58168c5ae7397731d063d5bbf3d657854427343f4c083240f7aacaa2d0f62",
            "0x000000000000000000000000962aba0a590981cf9c5b336ac34922c82f203165",
            "0x00000000000000000000000081d48d2c5d0744e8ef7a5c35cdceb0a27a1c707b",
            "0x000000000000000000000000962aba0a590981cf9c5b336ac34922c82f203165"
          ],
          "data": "0x00000000000000000000000000000000000000000000000000000000000000120000000000000000000000000000000000000000000000000000000000075300",
          "blockHash": "0x34b57dde9ccb74beebe7ab0baa38278b8f496770ffd427abffeef40d490dfc9f",
          "blockNumber": "0x2f98169",
          "blockTimestamp": "0x6a471e87",
          "transactionHash": "0xdb52cb181c989d8c54a7eb06b9c245b5bdc01cd8a157110369259c175b696b8f",
          "transactionIndex": "0x10",
          "logIndex": "0x31",
          "removed": false
        },
        {
          "address": "0x962aba0a590981cf9c5b336ac34922c82f203165",
          "topics": [
            "0x32951ff170f53e2a0d7160f9c1da9bafcf35b5003abc23b8b87fee8f1c5d8b25",
            "0x0000000000000000000000000000000000000000000000000000000000000012",
            "0x0000000000000000000000000000000000000000000000000000000000000012"
          ],
          "data": "0x0000000000000000000000000000000000000000000000000041b9a6e85840000000000000000000000000000000000000000000000000000000000000075300",
          "blockHash": "0x34b57dde9ccb74beebe7ab0baa38278b8f496770ffd427abffeef40d490dfc9f",
          "blockNumber": "0x2f98169",
          "blockTimestamp": "0x6a471e87",
          "transactionHash": "0xdb52cb181c989d8c54a7eb06b9c245b5bdc01cd8a157110369259c175b696b8f",
          "transactionIndex": "0x10",
          "logIndex": "0x32",
          "removed": false
        }
      ],
      "logsBloom": "0x00000000400000000000000000000000000000000000000000000000000000000000000000000000000000000000000000000000000000000002000000003000000000000000000000000000000000000000000000000000001000000004000000000000000000010000000000200000000000000000000000000000000000000000000000000000000000000000040000000000000000000000000000000000000000000000000000000000000000000001000000000040000000000000000000000000000000000400000000000000000000000009000000000800400000000680000000000000000000000000000000000000000000000200080000000000",
      "type": "0x2",
      "transactionHash": "0xdb52cb181c989d8c54a7eb06b9c245b5bdc01cd8a157110369259c175b696b8f",
      "transactionIndex": "0x10",
      "blockHash": "0x34b57dde9ccb74beebe7ab0baa38278b8f496770ffd427abffeef40d490dfc9f",
      "blockNumber": "0x2f98169",
      "gasUsed": "0x26f56",
      "effectiveGasPrice": "0x5d21dba00",
      "from": "0x81d48d2c5d0744e8ef7a5c35cdceb0a27a1c707b",
      "to": "0x962aba0a590981cf9c5b336ac34922c82f203165",
      "contractAddress": null
    },
    {
      "status": "0x1",
      "cumulativeGasUsed": "0x2905d5",
      "logs": [
        {
          "address": "0x4d82b6e528d3c2e1a3592e14863ec95eaef4ff85",
          "topics": [
            "0xc3d58168c5ae7397731d063d5bbf3d657854427343f4c083240f7aacaa2d0f62",
            "0x00000000000000000000000081d48d2c5d0744e8ef7a5c35cdceb0a27a1c707b",
            "0x0000000000000000000000000000000000000000000000000000000000000000",
            "0x00000000000000000000000081d48d2c5d0744e8ef7a5c35cdceb0a27a1c707b"
          ],
          "data": "0x000000000000000000000000000000000000000000000000000000000000001300000000000000000000000000000000000000000000000000000000000f4240",
          "blockHash": "0x34b57dde9ccb74beebe7ab0baa38278b8f496770ffd427abffeef40d490dfc9f",
          "blockNumber": "0x2f98169",
          "blockTimestamp": "0x6a471e87",
          "transactionHash": "0xae5d49af0440ece71c900715071866c6b449c1aa4ff38fb94ee71ab06aba5633",
          "transactionIndex": "0x11",
          "logIndex": "0x33",
          "removed": false
        },
        {
          "address": "0x4d82b6e528d3c2e1a3592e14863ec95eaef4ff85",
          "topics": [
            "0x5d55a7ca4b923b36b70eb909992eb2bf005bf58b77d4cfb245faa8cb6b36d884",
            "0x0000000000000000000000000000000000000000000000000000000000000013"
          ],
          "data": "0x000000000000000000000000000000000000000000000000000000000000006000000000000000000000000000000000000000000000000000000000000000a000000000000000000000000000000000000000000000000000000000000f4240000000000000000000000000000000000000000000000000000000000000000e555320542d4e6f74652032303238000000000000000000000000000000000000000000000000000000000000000000000000000000000000000000000000000a7472656173757269657300000000000000000000000000000000000000000000",
          "blockHash": "0x34b57dde9ccb74beebe7ab0baa38278b8f496770ffd427abffeef40d490dfc9f",
          "blockNumber": "0x2f98169",
          "blockTimestamp": "0x6a471e87",
          "transactionHash": "0xae5d49af0440ece71c900715071866c6b449c1aa4ff38fb94ee71ab06aba5633",
          "transactionIndex": "0x11",
          "logIndex": "0x34",
          "removed": false
        }
      ],
      "logsBloom": "0x20020000000000000000000000800000000000000000000000000000000000000000000040000000000000000000000000000000000000000002000000002000000000000000000000000000000000000000000000000000001000000000000000000000020200000000000000200800000000000000000000000000000000000000000000000000000000000000000000000000000000000000000000000000000000000000000000000008000000000000000000000000000000000000000000000000000000000000000000000000000000000009000000000000000020000200000000000000000000000000000000000000000000000200080000000000",
      "type": "0x2",
      "transactionHash": "0xae5d49af0440ece71c900715071866c6b449c1aa4ff38fb94ee71ab06aba5633",
      "transactionIndex": "0x11",
      "blockHash": "0x34b57dde9ccb74beebe7ab0baa38278b8f496770ffd427abffeef40d490dfc9f",
      "blockNumber": "0x2f98169",
      "gasUsed": "0x24e00",
      "effectiveGasPrice": "0x5d21dba00",
      "from": "0x81d48d2c5d0744e8ef7a5c35cdceb0a27a1c707b",
      "to": "0x4d82b6e528d3c2e1a3592e14863ec95eaef4ff85",
      "contractAddress": null
    },
    {
      "status": "0x1",
      "cumulativeGasUsed": "0x2b7537",
      "logs": [
        {
          "address": "0x4d82b6e528d3c2e1a3592e14863ec95eaef4ff85",
          "topics": [
            "0xc3d58168c5ae7397731d063d5bbf3d657854427343f4c083240f7aacaa2d0f62",
            "0x000000000000000000000000962aba0a590981cf9c5b336ac34922c82f203165",
            "0x00000000000000000000000081d48d2c5d0744e8ef7a5c35cdceb0a27a1c707b",
            "0x000000000000000000000000962aba0a590981cf9c5b336ac34922c82f203165"
          ],
          "data": "0x000000000000000000000000000000000000000000000000000000000000001300000000000000000000000000000000000000000000000000000000000927c0",
          "blockHash": "0x34b57dde9ccb74beebe7ab0baa38278b8f496770ffd427abffeef40d490dfc9f",
          "blockNumber": "0x2f98169",
          "blockTimestamp": "0x6a471e87",
          "transactionHash": "0x2d75f5e15ddb011b2ae8715e693887e46602c5e638f95e7f6d6147f5f1ca251f",
          "transactionIndex": "0x12",
          "logIndex": "0x35",
          "removed": false
        },
        {
          "address": "0x962aba0a590981cf9c5b336ac34922c82f203165",
          "topics": [
            "0x32951ff170f53e2a0d7160f9c1da9bafcf35b5003abc23b8b87fee8f1c5d8b25",
            "0x0000000000000000000000000000000000000000000000000000000000000013",
            "0x0000000000000000000000000000000000000000000000000000000000000013"
          ],
          "data": "0x0000000000000000000000000000000000000000000000000da7dec95afc000000000000000000000000000000000000000000000000000000000000000927c0",
          "blockHash": "0x34b57dde9ccb74beebe7ab0baa38278b8f496770ffd427abffeef40d490dfc9f",
          "blockNumber": "0x2f98169",
          "blockTimestamp": "0x6a471e87",
          "transactionHash": "0x2d75f5e15ddb011b2ae8715e693887e46602c5e638f95e7f6d6147f5f1ca251f",
          "transactionIndex": "0x12",
          "logIndex": "0x36",
          "removed": false
        }
      ],
      "logsBloom": "0x20000000400000000000000000800000000000000000000000000000000000000000000040000000000000000000000000000000000000000002000000003000000000000000000000000000000000000000000000000000001000000004000000000000000000010000000000200000000000000000000000000000000000000000000000000000000000000000000000000000000000000000000000000000000000000000000000000000000000000001000000000000000000000000000000000000000000000000000000000000000000000009000000000800400000000680000000000000000000000000000000000000000000000200080000000000",
      "type": "0x2",
      "transactionHash": "0x2d75f5e15ddb011b2ae8715e693887e46602c5e638f95e7f6d6147f5f1ca251f",
      "transactionIndex": "0x12",
      "blockHash": "0x34b57dde9ccb74beebe7ab0baa38278b8f496770ffd427abffeef40d490dfc9f",
      "blockNumber": "0x2f98169",
      "gasUsed": "0x26f62",
      "effectiveGasPrice": "0x5d21dba00",
      "from": "0x81d48d2c5d0744e8ef7a5c35cdceb0a27a1c707b",
      "to": "0x962aba0a590981cf9c5b336ac34922c82f203165",
      "contractAddress": null
    },
    {
      "status": "0x1",
      "cumulativeGasUsed": "0x2e722f",
      "logs": [
        {
          "address": "0x4d82b6e528d3c2e1a3592e14863ec95eaef4ff85",
          "topics": [
            "0xc3d58168c5ae7397731d063d5bbf3d657854427343f4c083240f7aacaa2d0f62",
            "0x00000000000000000000000081d48d2c5d0744e8ef7a5c35cdceb0a27a1c707b",
            "0x0000000000000000000000000000000000000000000000000000000000000000",
            "0x00000000000000000000000081d48d2c5d0744e8ef7a5c35cdceb0a27a1c707b"
          ],
          "data": "0x0000000000000000000000000000000000000000000000000000000000000014000000000000000000000000000000000000000000000000000000000007a120",
          "blockHash": "0x34b57dde9ccb74beebe7ab0baa38278b8f496770ffd427abffeef40d490dfc9f",
          "blockNumber": "0x2f98169",
          "blockTimestamp": "0x6a471e87",
          "transactionHash": "0x8de6fcb87f81a37f7f6a6a0be7bb275fa70d1f3f8d8e4d58c081dd4b3acff858",
          "transactionIndex": "0x13",
          "logIndex": "0x37",
          "removed": false
        },
        {
          "address": "0x4d82b6e528d3c2e1a3592e14863ec95eaef4ff85",
          "topics": [
            "0x5d55a7ca4b923b36b70eb909992eb2bf005bf58b77d4cfb245faa8cb6b36d884",
            "0x0000000000000000000000000000000000000000000000000000000000000014"
          ],
          "data": "0x000000000000000000000000000000000000000000000000000000000000006000000000000000000000000000000000000000000000000000000000000000a0000000000000000000000000000000000000000000000000000000000007a120000000000000000000000000000000000000000000000000000000000000001a4d6572696469616e20534d452043726564697420506f6f6c2041000000000000000000000000000000000000000000000000000000000000000000000000000e707269766174652d637265646974000000000000000000000000000000000000",
          "blockHash": "0x34b57dde9ccb74beebe7ab0baa38278b8f496770ffd427abffeef40d490dfc9f",
          "blockNumber": "0x2f98169",
          "blockTimestamp": "0x6a471e87",
          "transactionHash": "0x8de6fcb87f81a37f7f6a6a0be7bb275fa70d1f3f8d8e4d58c081dd4b3acff858",
          "transactionIndex": "0x13",
          "logIndex": "0x38",
          "removed": false
        }
      ],
      "logsBloom": "0x00020000000000000000000000000000000000000000000000000000000000000000000000000000000000000000000000002000000000000002000000002000000000000000000000000000000000000000000000000000001000000000000000000000020200000000000000200800000000000000000000000000000000000000000000000000000000000000000000000000000400000000000000000000000000000000000020000008000000000000000000000000000000000000000000000000000000000000000000000000000000000009000000000000000020000200000000000000000000000000000000000000000000000200080000000000",
      "type": "0x2",
      "transactionHash": "0x8de6fcb87f81a37f7f6a6a0be7bb275fa70d1f3f8d8e4d58c081dd4b3acff858",
      "transactionIndex": "0x13",
      "blockHash": "0x34b57dde9ccb74beebe7ab0baa38278b8f496770ffd427abffeef40d490dfc9f",
      "blockNumber": "0x2f98169",
      "gasUsed": "0x2fcf8",
      "effectiveGasPrice": "0x5d21dba00",
      "from": "0x81d48d2c5d0744e8ef7a5c35cdceb0a27a1c707b",
      "to": "0x4d82b6e528d3c2e1a3592e14863ec95eaef4ff85",
      "contractAddress": null
    },
    {
      "status": "0x1",
      "cumulativeGasUsed": "0x30e191",
      "logs": [
        {
          "address": "0x4d82b6e528d3c2e1a3592e14863ec95eaef4ff85",
          "topics": [
            "0xc3d58168c5ae7397731d063d5bbf3d657854427343f4c083240f7aacaa2d0f62",
            "0x000000000000000000000000962aba0a590981cf9c5b336ac34922c82f203165",
            "0x00000000000000000000000081d48d2c5d0744e8ef7a5c35cdceb0a27a1c707b",
            "0x000000000000000000000000962aba0a590981cf9c5b336ac34922c82f203165"
          ],
          "data": "0x000000000000000000000000000000000000000000000000000000000000001400000000000000000000000000000000000000000000000000000000000493e0",
          "blockHash": "0x34b57dde9ccb74beebe7ab0baa38278b8f496770ffd427abffeef40d490dfc9f",
          "blockNumber": "0x2f98169",
          "blockTimestamp": "0x6a471e87",
          "transactionHash": "0xe59b666f9b38a5be4e369cb99d42686769e6d647dca92b3f9f4516ae0d6f41fc",
          "transactionIndex": "0x14",
          "logIndex": "0x39",
          "removed": false
        },
        {
          "address": "0x962aba0a590981cf9c5b336ac34922c82f203165",
          "topics": [
            "0x32951ff170f53e2a0d7160f9c1da9bafcf35b5003abc23b8b87fee8f1c5d8b25",
            "0x0000000000000000000000000000000000000000000000000000000000000014",
            "0x0000000000000000000000000000000000000000000000000000000000000014"
          ],
          "data": "0x00000000000000000000000000000000000000000000000006f05b59d3b2000000000000000000000000000000000000000000000000000000000000000493e0",
          "blockHash": "0x34b57dde9ccb74beebe7ab0baa38278b8f496770ffd427abffeef40d490dfc9f",
          "blockNumber": "0x2f98169",
          "blockTimestamp": "0x6a471e87",
          "transactionHash": "0xe59b666f9b38a5be4e369cb99d42686769e6d647dca92b3f9f4516ae0d6f41fc",
          "transactionIndex": "0x14",
          "logIndex": "0x3a",
          "removed": false
        }
      ],
      "logsBloom": "0x00000000400000000000000000000000000000000000000000000000000000000000000000000000000000000000000000002000000000000002000000003000000000000000000000000000000000000000000000000000001000000004000000000000000000010000000000200000000000000000000000000000000000000000000000000000000000000000000000000000000400000000000000000000000000000000000020000000000000000001000000000000000000000000000000000000000000000000000000000000000000000009000000000800400000000680000000000000000000000000000000000000000000000200080000000000",
      "type": "0x2",
      "transactionHash": "0xe59b666f9b38a5be4e369cb99d42686769e6d647dca92b3f9f4516ae0d6f41fc",
      "transactionIndex": "0x14",
      "blockHash": "0x34b57dde9ccb74beebe7ab0baa38278b8f496770ffd427abffeef40d490dfc9f",
      "blockNumber": "0x2f98169",
      "gasUsed": "0x26f62",
      "effectiveGasPrice": "0x5d21dba00",
      "from": "0x81d48d2c5d0744e8ef7a5c35cdceb0a27a1c707b",
      "to": "0x962aba0a590981cf9c5b336ac34922c82f203165",
      "contractAddress": null
    },
    {
      "status": "0x1",
      "cumulativeGasUsed": "0x33dead",
      "logs": [
        {
          "address": "0x4d82b6e528d3c2e1a3592e14863ec95eaef4ff85",
          "topics": [
            "0xc3d58168c5ae7397731d063d5bbf3d657854427343f4c083240f7aacaa2d0f62",
            "0x00000000000000000000000081d48d2c5d0744e8ef7a5c35cdceb0a27a1c707b",
            "0x0000000000000000000000000000000000000000000000000000000000000000",
            "0x00000000000000000000000081d48d2c5d0744e8ef7a5c35cdceb0a27a1c707b"
          ],
          "data": "0x000000000000000000000000000000000000000000000000000000000000001500000000000000000000000000000000000000000000000000000000000927c0",
          "blockHash": "0x34b57dde9ccb74beebe7ab0baa38278b8f496770ffd427abffeef40d490dfc9f",
          "blockNumber": "0x2f98169",
          "blockTimestamp": "0x6a471e87",
          "transactionHash": "0x0b987ca8eee7ef2464250412629ab199e9632d1f9b55c2039e393d9e319cf528",
          "transactionIndex": "0x15",
          "logIndex": "0x3b",
          "removed": false
        },
        {
          "address": "0x4d82b6e528d3c2e1a3592e14863ec95eaef4ff85",
          "topics": [
            "0x5d55a7ca4b923b36b70eb909992eb2bf005bf58b77d4cfb245faa8cb6b36d884",
            "0x0000000000000000000000000000000000000000000000000000000000000015"
          ],
          "data": "0x000000000000000000000000000000000000000000000000000000000000006000000000000000000000000000000000000000000000000000000000000000a000000000000000000000000000000000000000000000000000000000000927c0000000000000000000000000000000000000000000000000000000000000001941746c61732054726164652052656365697661626c6573204200000000000000000000000000000000000000000000000000000000000000000000000000000e707269766174652d637265646974000000000000000000000000000000000000",
          "blockHash": "0x34b57dde9ccb74beebe7ab0baa38278b8f496770ffd427abffeef40d490dfc9f",
          "blockNumber": "0x2f98169",
          "blockTimestamp": "0x6a471e87",
          "transactionHash": "0x0b987ca8eee7ef2464250412629ab199e9632d1f9b55c2039e393d9e319cf528",
          "transactionIndex": "0x15",
          "logIndex": "0x3c",
          "removed": false
        }
      ],
      "logsBloom": "0x00020000000000000000000000000000000000000000000000000000000000000000000000000000000000000000000000000000000000000002000000002000001000000000000000000000000000000000000000000000001000000000000000000000020200000000000000200800000000000000000000000000000000000000000000000000000000000000000000000000000000000000000000000000000000000000000000000008010000000000000000000000000000000000000000000000000000000000000000000000000000000009000000000000000020002200000000000000000000000000000000000000000000000200080000000000",
      "type": "0x2",
      "transactionHash": "0x0b987ca8eee7ef2464250412629ab199e9632d1f9b55c2039e393d9e319cf528",
      "transactionIndex": "0x15",
      "blockHash": "0x34b57dde9ccb74beebe7ab0baa38278b8f496770ffd427abffeef40d490dfc9f",
      "blockNumber": "0x2f98169",
      "gasUsed": "0x2fd1c",
      "effectiveGasPrice": "0x5d21dba00",
      "from": "0x81d48d2c5d0744e8ef7a5c35cdceb0a27a1c707b",
      "to": "0x4d82b6e528d3c2e1a3592e14863ec95eaef4ff85",
      "contractAddress": null
    },
    {
      "status": "0x1",
      "cumulativeGasUsed": "0x364e0f",
      "logs": [
        {
          "address": "0x4d82b6e528d3c2e1a3592e14863ec95eaef4ff85",
          "topics": [
            "0xc3d58168c5ae7397731d063d5bbf3d657854427343f4c083240f7aacaa2d0f62",
            "0x000000000000000000000000962aba0a590981cf9c5b336ac34922c82f203165",
            "0x00000000000000000000000081d48d2c5d0744e8ef7a5c35cdceb0a27a1c707b",
            "0x000000000000000000000000962aba0a590981cf9c5b336ac34922c82f203165"
          ],
          "data": "0x00000000000000000000000000000000000000000000000000000000000000150000000000000000000000000000000000000000000000000000000000057e40",
          "blockHash": "0x34b57dde9ccb74beebe7ab0baa38278b8f496770ffd427abffeef40d490dfc9f",
          "blockNumber": "0x2f98169",
          "blockTimestamp": "0x6a471e87",
          "transactionHash": "0xecb909c00aa5cbc96965ae8a77f5aacc6852179c1ab286176a1070fb5846ba3c",
          "transactionIndex": "0x16",
          "logIndex": "0x3d",
          "removed": false
        },
        {
          "address": "0x962aba0a590981cf9c5b336ac34922c82f203165",
          "topics": [
            "0x32951ff170f53e2a0d7160f9c1da9bafcf35b5003abc23b8b87fee8f1c5d8b25",
            "0x0000000000000000000000000000000000000000000000000000000000000015",
            "0x0000000000000000000000000000000000000000000000000000000000000015"
          ],
          "data": "0x00000000000000000000000000000000000000000000000003782dace9d900000000000000000000000000000000000000000000000000000000000000057e40",
          "blockHash": "0x34b57dde9ccb74beebe7ab0baa38278b8f496770ffd427abffeef40d490dfc9f",
          "blockNumber": "0x2f98169",
          "blockTimestamp": "0x6a471e87",
          "transactionHash": "0xecb909c00aa5cbc96965ae8a77f5aacc6852179c1ab286176a1070fb5846ba3c",
          "transactionIndex": "0x16",
          "logIndex": "0x3e",
          "removed": false
        }
      ],
      "logsBloom": "0x00000000400000000000000000000000000000000000000000000000000000000000000000000000000000000000000000000000000000000002000000003000001000000000000000000000000000000000000000000000001000000004000000000000000000010000000000200000000000000000000000000000000000000000000000000000000000000000000000000000000000000000000000000000000000000000000000000000010000000001000000000000000000000000000000000000000000000000000000000000000000000009000000000800400000002680000000000000000000000000000000000000000000000200080000000000",
      "type": "0x2",
      "transactionHash": "0xecb909c00aa5cbc96965ae8a77f5aacc6852179c1ab286176a1070fb5846ba3c",
      "transactionIndex": "0x16",
      "blockHash": "0x34b57dde9ccb74beebe7ab0baa38278b8f496770ffd427abffeef40d490dfc9f",
      "blockNumber": "0x2f98169",
      "gasUsed": "0x26f62",
      "effectiveGasPrice": "0x5d21dba00",
      "from": "0x81d48d2c5d0744e8ef7a5c35cdceb0a27a1c707b",
      "to": "0x962aba0a590981cf9c5b336ac34922c82f203165",
      "contractAddress": null
    },
    {
      "status": "0x1",
      "cumulativeGasUsed": "0x394ad7",
      "logs": [
        {
          "address": "0x4d82b6e528d3c2e1a3592e14863ec95eaef4ff85",
          "topics": [
            "0xc3d58168c5ae7397731d063d5bbf3d657854427343f4c083240f7aacaa2d0f62",
            "0x00000000000000000000000081d48d2c5d0744e8ef7a5c35cdceb0a27a1c707b",
            "0x0000000000000000000000000000000000000000000000000000000000000000",
            "0x00000000000000000000000081d48d2c5d0744e8ef7a5c35cdceb0a27a1c707b"
          ],
          "data": "0x000000000000000000000000000000000000000000000000000000000000001600000000000000000000000000000000000000000000000000000000000493e0",
          "blockHash": "0x34b57dde9ccb74beebe7ab0baa38278b8f496770ffd427abffeef40d490dfc9f",
          "blockNumber": "0x2f98169",
          "blockTimestamp": "0x6a471e87",
          "transactionHash": "0xc2cf91a2fdcdfb2ac4cc3c5c6d426c3a2c37e257d92d7994cf58d3854f764345",
          "transactionIndex": "0x17",
          "logIndex": "0x3f",
          "removed": false
        },
        {
          "address": "0x4d82b6e528d3c2e1a3592e14863ec95eaef4ff85",
          "topics": [
            "0x5d55a7ca4b923b36b70eb909992eb2bf005bf58b77d4cfb245faa8cb6b36d884",
            "0x0000000000000000000000000000000000000000000000000000000000000016"
          ],
          "data": "0x000000000000000000000000000000000000000000000000000000000000006000000000000000000000000000000000000000000000000000000000000000a000000000000000000000000000000000000000000000000000000000000493e00000000000000000000000000000000000000000000000000000000000000017446f636b73696465204c6f67697374696373205061726b000000000000000000000000000000000000000000000000000000000000000000000000000000000b7265616c2d657374617465000000000000000000000000000000000000000000",
          "blockHash": "0x34b57dde9ccb74beebe7ab0baa38278b8f496770ffd427abffeef40d490dfc9f",
          "blockNumber": "0x2f98169",
          "blockTimestamp": "0x6a471e87",
          "transactionHash": "0xc2cf91a2fdcdfb2ac4cc3c5c6d426c3a2c37e257d92d7994cf58d3854f764345",
          "transactionIndex": "0x17",
          "logIndex": "0x40",
          "removed": false
        }
      ],
      "logsBloom": "0x00020000000000000000000000000000000000000000000000000000000000000000000000000000000000000000000000000000000000000002000000002000000000000000000800000000000000000000000000000000001000000000000000000000020200000000000000200800200000000000000000000000000000000000000000000000000000000000000000000000000000000000000000000000000000000000000000000008000000000000000000000000000000000000000000000000000000000000000000000000000000000009000000000000000020000200000000000000000000000000000000000000000000000208080000000000",
      "type": "0x2",
      "transactionHash": "0xc2cf91a2fdcdfb2ac4cc3c5c6d426c3a2c37e257d92d7994cf58d3854f764345",
      "transactionIndex": "0x17",
      "blockHash": "0x34b57dde9ccb74beebe7ab0baa38278b8f496770ffd427abffeef40d490dfc9f",
      "blockNumber": "0x2f98169",
      "gasUsed": "0x2fcc8",
      "effectiveGasPrice": "0x5d21dba00",
      "from": "0x81d48d2c5d0744e8ef7a5c35cdceb0a27a1c707b",
      "to": "0x4d82b6e528d3c2e1a3592e14863ec95eaef4ff85",
      "contractAddress": null
    },
    {
      "status": "0x1",
      "cumulativeGasUsed": "0x3bba45",
      "logs": [
        {
          "address": "0x4d82b6e528d3c2e1a3592e14863ec95eaef4ff85",
          "topics": [
            "0xc3d58168c5ae7397731d063d5bbf3d657854427343f4c083240f7aacaa2d0f62",
            "0x000000000000000000000000962aba0a590981cf9c5b336ac34922c82f203165",
            "0x00000000000000000000000081d48d2c5d0744e8ef7a5c35cdceb0a27a1c707b",
            "0x000000000000000000000000962aba0a590981cf9c5b336ac34922c82f203165"
          ],
          "data": "0x0000000000000000000000000000000000000000000000000000000000000016000000000000000000000000000000000000000000000000000000000002bf20",
          "blockHash": "0x34b57dde9ccb74beebe7ab0baa38278b8f496770ffd427abffeef40d490dfc9f",
          "blockNumber": "0x2f98169",
          "blockTimestamp": "0x6a471e87",
          "transactionHash": "0x45f6a9e15a3a79d3bafa242d6621bcb374038c0992079d7c8b471267eb96afde",
          "transactionIndex": "0x18",
          "logIndex": "0x41",
          "removed": false
        },
        {
          "address": "0x962aba0a590981cf9c5b336ac34922c82f203165",
          "topics": [
            "0x32951ff170f53e2a0d7160f9c1da9bafcf35b5003abc23b8b87fee8f1c5d8b25",
            "0x0000000000000000000000000000000000000000000000000000000000000016",
            "0x0000000000000000000000000000000000000000000000000000000000000016"
          ],
          "data": "0x00000000000000000000000000000000000000000000000005eec8fc297ac000000000000000000000000000000000000000000000000000000000000002bf20",
          "blockHash": "0x34b57dde9ccb74beebe7ab0baa38278b8f496770ffd427abffeef40d490dfc9f",
          "blockNumber": "0x2f98169",
          "blockTimestamp": "0x6a471e87",
          "transactionHash": "0x45f6a9e15a3a79d3bafa242d6621bcb374038c0992079d7c8b471267eb96afde",
          "transactionIndex": "0x18",
          "logIndex": "0x42",
          "removed": false
        }
      ],
      "logsBloom": "0x00000000400000000000000000000000000000000000000000000000000000000000000000000000000000000000000000000000000000000002000000003000000000000000000800000000000000000000000000000000001000000004000000000000000000010000000000200000200000000000000000000000000000000000000000000000000000000000000000000000000000000000000000000000000000000000000000000000000000000001000000000000000000000000000000000000000000000000000000000000000000000009000000000800400000000680000000000000000000000000000000000000000000000208080000000000",
      "type": "0x2",
      "transactionHash": "0x45f6a9e15a3a79d3bafa242d6621bcb374038c0992079d7c8b471267eb96afde",
      "transactionIndex": "0x18",
      "blockHash": "0x34b57dde9ccb74beebe7ab0baa38278b8f496770ffd427abffeef40d490dfc9f",
      "blockNumber": "0x2f98169",
      "gasUsed": "0x26f6e",
      "effectiveGasPrice": "0x5d21dba00",
      "from": "0x81d48d2c5d0744e8ef7a5c35cdceb0a27a1c707b",
      "to": "0x962aba0a590981cf9c5b336ac34922c82f203165",
      "contractAddress": null
    },
    {
      "status": "0x1",
      "cumulativeGasUsed": "0x10df50",
      "logs": [
        {
          "address": "0x4d82b6e528d3c2e1a3592e14863ec95eaef4ff85",
          "topics": [
            "0xc3d58168c5ae7397731d063d5bbf3d657854427343f4c083240f7aacaa2d0f62",
            "0x00000000000000000000000081d48d2c5d0744e8ef7a5c35cdceb0a27a1c707b",
            "0x0000000000000000000000000000000000000000000000000000000000000000",
            "0x00000000000000000000000081d48d2c5d0744e8ef7a5c35cdceb0a27a1c707b"
          ],
          "data": "0x00000000000000000000000000000000000000000000000000000000000000170000000000000000000000000000000000000000000000000000000000030d40",
          "blockHash": "0x8cba173ea48bef7c8af7091049284c410c87c037461434efbf513fadd866daa5",
          "blockNumber": "0x2f9816c",
          "blockTimestamp": "0x6a471e88",
          "transactionHash": "0x52abad07721bdb16877732ba12f043fab983c24f660157ee380a3e61dbff8503",
          "transactionIndex": "0x22",
          "logIndex": "0x3",
          "removed": false
        },
        {
          "address": "0x4d82b6e528d3c2e1a3592e14863ec95eaef4ff85",
          "topics": [
            "0x5d55a7ca4b923b36b70eb909992eb2bf005bf58b77d4cfb245faa8cb6b36d884",
            "0x0000000000000000000000000000000000000000000000000000000000000017"
          ],
          "data": "0x000000000000000000000000000000000000000000000000000000000000006000000000000000000000000000000000000000000000000000000000000000a00000000000000000000000000000000000000000000000000000000000030d40000000000000000000000000000000000000000000000000000000000000001753696c7665722042756c6c696f6e205661756c74202332000000000000000000000000000000000000000000000000000000000000000000000000000000000b636f6d6d6f646974696573000000000000000000000000000000000000000000",
          "blockHash": "0x8cba173ea48bef7c8af7091049284c410c87c037461434efbf513fadd866daa5",
          "blockNumber": "0x2f9816c",
          "blockTimestamp": "0x6a471e88",
          "transactionHash": "0x52abad07721bdb16877732ba12f043fab983c24f660157ee380a3e61dbff8503",
          "transactionIndex": "0x22",
          "logIndex": "0x4",
          "removed": false
        }
      ],
      "logsBloom": "0x00020000000000000000000000000000000000000000000000000000000000000000000000000000000000000000000000001000000000000002001000002000000000000000000000000000000000000000000000000000001000000000000000000000020200000000000000200800000000000000000000000000000000000000000000000000000000000000000000000000000000000000000000000000000000000000000000000008000000000000000000000000000000000000000000000000000000000000000000000000000000000009000000000000000020000200000000000000000000000000000000000000000000000200080000080000",
      "type": "0x2",
      "transactionHash": "0x52abad07721bdb16877732ba12f043fab983c24f660157ee380a3e61dbff8503",
      "transactionIndex": "0x22",
      "blockHash": "0x8cba173ea48bef7c8af7091049284c410c87c037461434efbf513fadd866daa5",
      "blockNumber": "0x2f9816c",
      "gasUsed": "0x2fcbc",
      "effectiveGasPrice": "0x5d21dba00",
      "from": "0x81d48d2c5d0744e8ef7a5c35cdceb0a27a1c707b",
      "to": "0x4d82b6e528d3c2e1a3592e14863ec95eaef4ff85",
      "contractAddress": null
    },
    {
      "status": "0x1",
      "cumulativeGasUsed": "0x26cfe9",
      "logs": [
        {
          "address": "0x4d82b6e528d3c2e1a3592e14863ec95eaef4ff85",
          "topics": [
            "0xc3d58168c5ae7397731d063d5bbf3d657854427343f4c083240f7aacaa2d0f62",
            "0x000000000000000000000000962aba0a590981cf9c5b336ac34922c82f203165",
            "0x00000000000000000000000081d48d2c5d0744e8ef7a5c35cdceb0a27a1c707b",
            "0x000000000000000000000000962aba0a590981cf9c5b336ac34922c82f203165"
          ],
          "data": "0x0000000000000000000000000000000000000000000000000000000000000017000000000000000000000000000000000000000000000000000000000001d4c0",
          "blockHash": "0x8cba173ea48bef7c8af7091049284c410c87c037461434efbf513fadd866daa5",
          "blockNumber": "0x2f9816c",
          "blockTimestamp": "0x6a471e88",
          "transactionHash": "0xd5e31d03f311ebf6325baa6c64c6072f27ea0db0ed859bc7b4947eccad1e0706",
          "transactionIndex": "0x27",
          "logIndex": "0x29",
          "removed": false
        },
        {
          "address": "0x962aba0a590981cf9c5b336ac34922c82f203165",
          "topics": [
            "0x32951ff170f53e2a0d7160f9c1da9bafcf35b5003abc23b8b87fee8f1c5d8b25",
            "0x0000000000000000000000000000000000000000000000000000000000000017",
            "0x0000000000000000000000000000000000000000000000000000000000000017"
          ],
          "data": "0x00000000000000000000000000000000000000000000000004147f713bf70000000000000000000000000000000000000000000000000000000000000001d4c0",
          "blockHash": "0x8cba173ea48bef7c8af7091049284c410c87c037461434efbf513fadd866daa5",
          "blockNumber": "0x2f9816c",
          "blockTimestamp": "0x6a471e88",
          "transactionHash": "0xd5e31d03f311ebf6325baa6c64c6072f27ea0db0ed859bc7b4947eccad1e0706",
          "transactionIndex": "0x27",
          "logIndex": "0x2a",
          "removed": false
        }
      ],
      "logsBloom": "0x00000000400000000000000000000000000000000000000000000000000000000000000000000000000000000000000000001000000000000002001000003000000000000000000000000000000000000000000000000000001000000004000000000000000000010000000000200000000000000000000000000000000000000000000000000000000000000000000000000000000000000000000000000000000000000000000000000000000000000001000000000000000000000000000000000000000000000000000000000000000000000009000000000800400000000680000000000000000000000000000000000000000000000200080000080000",
      "type": "0x2",
      "transactionHash": "0xd5e31d03f311ebf6325baa6c64c6072f27ea0db0ed859bc7b4947eccad1e0706",
      "transactionIndex": "0x27",
      "blockHash": "0x8cba173ea48bef7c8af7091049284c410c87c037461434efbf513fadd866daa5",
      "blockNumber": "0x2f9816c",
      "gasUsed": "0x26f62",
      "effectiveGasPrice": "0x5d21dba00",
      "from": "0x81d48d2c5d0744e8ef7a5c35cdceb0a27a1c707b",
      "to": "0x962aba0a590981cf9c5b336ac34922c82f203165",
      "contractAddress": null
    },
    {
      "status": "0x1",
      "cumulativeGasUsed": "0x29ccd5",
      "logs": [
        {
          "address": "0x4d82b6e528d3c2e1a3592e14863ec95eaef4ff85",
          "topics": [
            "0xc3d58168c5ae7397731d063d5bbf3d657854427343f4c083240f7aacaa2d0f62",
            "0x00000000000000000000000081d48d2c5d0744e8ef7a5c35cdceb0a27a1c707b",
            "0x0000000000000000000000000000000000000000000000000000000000000000",
            "0x00000000000000000000000081d48d2c5d0744e8ef7a5c35cdceb0a27a1c707b"
          ],
          "data": "0x000000000000000000000000000000000000000000000000000000000000001800000000000000000000000000000000000000000000000000000000000927c0",
          "blockHash": "0x8cba173ea48bef7c8af7091049284c410c87c037461434efbf513fadd866daa5",
          "blockNumber": "0x2f9816c",
          "blockTimestamp": "0x6a471e88",
          "transactionHash": "0x9da37237c436dbf1d50d21f61a60b15d47cd5f2844ea79cbfcc6648508c57b94",
          "transactionIndex": "0x28",
          "logIndex": "0x2b",
          "removed": false
        },
        {
          "address": "0x4d82b6e528d3c2e1a3592e14863ec95eaef4ff85",
          "topics": [
            "0x5d55a7ca4b923b36b70eb909992eb2bf005bf58b77d4cfb245faa8cb6b36d884",
            "0x0000000000000000000000000000000000000000000000000000000000000018"
          ],
          "data": "0x000000000000000000000000000000000000000000000000000000000000006000000000000000000000000000000000000000000000000000000000000000a000000000000000000000000000000000000000000000000000000000000927c0000000000000000000000000000000000000000000000000000000000000001b476f6c64205374616e64617264204f66667365742042756e646c6500000000000000000000000000000000000000000000000000000000000000000000000006636172626f6e0000000000000000000000000000000000000000000000000000",
          "blockHash": "0x8cba173ea48bef7c8af7091049284c410c87c037461434efbf513fadd866daa5",
          "blockNumber": "0x2f9816c",
          "blockTimestamp": "0x6a471e88",
          "transactionHash": "0x9da37237c436dbf1d50d21f61a60b15d47cd5f2844ea79cbfcc6648508c57b94",
          "transactionIndex": "0x28",
          "logIndex": "0x2c",
          "removed": false
        }
      ],
      "logsBloom": "0x00020000000000000000000000000000000000000000000000000000000000000000000000000000000000000000000000000000000000000002000000002000000000000000000000000000000000000040000000000000001000000000000000000000020200000000000000200800000000000000000000000000000000000000000000000000000000000000000000000000000000000000000000000000000000000000000000000008000000000000000000000000000000000000000000100000000000000000000000000000000000000009000020000000000020000200000000000000000000000000000000000000000000000200080000000000",
      "type": "0x2",
      "transactionHash": "0x9da37237c436dbf1d50d21f61a60b15d47cd5f2844ea79cbfcc6648508c57b94",
      "transactionIndex": "0x28",
      "blockHash": "0x8cba173ea48bef7c8af7091049284c410c87c037461434efbf513fadd866daa5",
      "blockNumber": "0x2f9816c",
      "gasUsed": "0x2fcec",
      "effectiveGasPrice": "0x5d21dba00",
      "from": "0x81d48d2c5d0744e8ef7a5c35cdceb0a27a1c707b",
      "to": "0x4d82b6e528d3c2e1a3592e14863ec95eaef4ff85",
      "contractAddress": null
    },
    {
      "status": "0x1",
      "cumulativeGasUsed": "0x2c3c2b",
      "logs": [
        {
          "address": "0x4d82b6e528d3c2e1a3592e14863ec95eaef4ff85",
          "topics": [
            "0xc3d58168c5ae7397731d063d5bbf3d657854427343f4c083240f7aacaa2d0f62",
            "0x000000000000000000000000962aba0a590981cf9c5b336ac34922c82f203165",
            "0x00000000000000000000000081d48d2c5d0744e8ef7a5c35cdceb0a27a1c707b",
            "0x000000000000000000000000962aba0a590981cf9c5b336ac34922c82f203165"
          ],
          "data": "0x00000000000000000000000000000000000000000000000000000000000000180000000000000000000000000000000000000000000000000000000000057e40",
          "blockHash": "0x8cba173ea48bef7c8af7091049284c410c87c037461434efbf513fadd866daa5",
          "blockNumber": "0x2f9816c",
          "blockTimestamp": "0x6a471e88",
          "transactionHash": "0x07f5db6c85b2221d7023bb9f872b11e3caa319764938c75b35293e0e0b83df12",
          "transactionIndex": "0x29",
          "logIndex": "0x2d",
          "removed": false
        },
        {
          "address": "0x962aba0a590981cf9c5b336ac34922c82f203165",
          "topics": [
            "0x32951ff170f53e2a0d7160f9c1da9bafcf35b5003abc23b8b87fee8f1c5d8b25",
            "0x0000000000000000000000000000000000000000000000000000000000000018",
            "0x0000000000000000000000000000000000000000000000000000000000000018"
          ],
          "data": "0x000000000000000000000000000000000000000000000000005543df729c00000000000000000000000000000000000000000000000000000000000000057e40",
          "blockHash": "0x8cba173ea48bef7c8af7091049284c410c87c037461434efbf513fadd866daa5",
          "blockNumber": "0x2f9816c",
          "blockTimestamp": "0x6a471e88",
          "transactionHash": "0x07f5db6c85b2221d7023bb9f872b11e3caa319764938c75b35293e0e0b83df12",
          "transactionIndex": "0x29",
          "logIndex": "0x2e",
          "removed": false
        }
      ],
      "logsBloom": "0x00000000400000000000000000000000000000000000000000000000000000000000000000000000000000000000000000000000000000000002000000003000000000000000000000000000000000000040000000000000001000000004000000000000000000010000000000200000000000000000000000000000000000000000000000000000000000000000000000000000000000000000000000000000000000000000000000000000000000000001000000000000000000000000000000100000000000000000000000000000000000000009000020000800400000000680000000000000000000000000000000000000000000000200080000000000",
      "type": "0x2",
      "transactionHash": "0x07f5db6c85b2221d7023bb9f872b11e3caa319764938c75b35293e0e0b83df12",
      "transactionIndex": "0x29",
      "blockHash": "0x8cba173ea48bef7c8af7091049284c410c87c037461434efbf513fadd866daa5",
      "blockNumber": "0x2f9816c",
      "gasUsed": "0x26f56",
      "effectiveGasPrice": "0x5d21dba00",
      "from": "0x81d48d2c5d0744e8ef7a5c35cdceb0a27a1c707b",
      "to": "0x962aba0a590981cf9c5b336ac34922c82f203165",
      "contractAddress": null
    },
    {
      "status": "0x1",
      "cumulativeGasUsed": "0x2f38e7",
      "logs": [
        {
          "address": "0x4d82b6e528d3c2e1a3592e14863ec95eaef4ff85",
          "topics": [
            "0xc3d58168c5ae7397731d063d5bbf3d657854427343f4c083240f7aacaa2d0f62",
            "0x00000000000000000000000081d48d2c5d0744e8ef7a5c35cdceb0a27a1c707b",
            "0x0000000000000000000000000000000000000000000000000000000000000000",
            "0x00000000000000000000000081d48d2c5d0744e8ef7a5c35cdceb0a27a1c707b"
          ],
          "data": "0x0000000000000000000000000000000000000000000000000000000000000019000000000000000000000000000000000000000000000000000000000007a120",
          "blockHash": "0x8cba173ea48bef7c8af7091049284c410c87c037461434efbf513fadd866daa5",
          "blockNumber": "0x2f9816c",
          "blockTimestamp": "0x6a471e88",
          "transactionHash": "0xe716fb4c8e848b7b1af023d0b3f9df9ae5baa742d7fd2c0a8c69555cfcef2fa4",
          "transactionIndex": "0x2a",
          "logIndex": "0x2f",
          "removed": false
        },
        {
          "address": "0x4d82b6e528d3c2e1a3592e14863ec95eaef4ff85",
          "topics": [
            "0x5d55a7ca4b923b36b70eb909992eb2bf005bf58b77d4cfb245faa8cb6b36d884",
            "0x0000000000000000000000000000000000000000000000000000000000000019"
          ],
          "data": "0x000000000000000000000000000000000000000000000000000000000000006000000000000000000000000000000000000000000000000000000000000000a0000000000000000000000000000000000000000000000000000000000007a1200000000000000000000000000000000000000000000000000000000000000018536f6c6172204661726d20426173696e2d32204e6f7465730000000000000000000000000000000000000000000000000000000000000000000000000000000e696e667261737472756374757265000000000000000000000000000000000000",
          "blockHash": "0x8cba173ea48bef7c8af7091049284c410c87c037461434efbf513fadd866daa5",
          "blockNumber": "0x2f9816c",
          "blockTimestamp": "0x6a471e88",
          "transactionHash": "0xe716fb4c8e848b7b1af023d0b3f9df9ae5baa742d7fd2c0a8c69555cfcef2fa4",
          "transactionIndex": "0x2a",
          "logIndex": "0x30",
          "removed": false
        }
      ],
      "logsBloom": "0x00020000000000000000000000000000000000000000000000000000000000000000000000000000000000000000000000000000000000800002000000002000000000000000000000000000000000000000000000000000001000000000000000000000020200000000000000200800000000000000020000000000000000000000000000000000000000000000000000000000000000000000000000000000000000000000000000000008000000000000000000000000000000000000000000000000000000000000000000000000000000000009000000000000000020000200000000000000000000000000000000000000000000000200088000000000",
      "type": "0x2",
      "transactionHash": "0xe716fb4c8e848b7b1af023d0b3f9df9ae5baa742d7fd2c0a8c69555cfcef2fa4",
      "transactionIndex": "0x2a",
      "blockHash": "0x8cba173ea48bef7c8af7091049284c410c87c037461434efbf513fadd866daa5",
      "blockNumber": "0x2f9816c",
      "gasUsed": "0x2fcbc",
      "effectiveGasPrice": "0x5d21dba00",
      "from": "0x81d48d2c5d0744e8ef7a5c35cdceb0a27a1c707b",
      "to": "0x4d82b6e528d3c2e1a3592e14863ec95eaef4ff85",
      "contractAddress": null
    },
    {
      "status": "0x1",
      "cumulativeGasUsed": "0x31a849",
      "logs": [
        {
          "address": "0x4d82b6e528d3c2e1a3592e14863ec95eaef4ff85",
          "topics": [
            "0xc3d58168c5ae7397731d063d5bbf3d657854427343f4c083240f7aacaa2d0f62",
            "0x000000000000000000000000962aba0a590981cf9c5b336ac34922c82f203165",
            "0x00000000000000000000000081d48d2c5d0744e8ef7a5c35cdceb0a27a1c707b",
            "0x000000000000000000000000962aba0a590981cf9c5b336ac34922c82f203165"
          ],
          "data": "0x000000000000000000000000000000000000000000000000000000000000001900000000000000000000000000000000000000000000000000000000000493e0",
          "blockHash": "0x8cba173ea48bef7c8af7091049284c410c87c037461434efbf513fadd866daa5",
          "blockNumber": "0x2f9816c",
          "blockTimestamp": "0x6a471e88",
          "transactionHash": "0x78dc3555e2d458b14a4f1447467152d11c28181ba765a4125d14b2b3fc00c1c8",
          "transactionIndex": "0x2b",
          "logIndex": "0x31",
          "removed": false
        },
        {
          "address": "0x962aba0a590981cf9c5b336ac34922c82f203165",
          "topics": [
            "0x32951ff170f53e2a0d7160f9c1da9bafcf35b5003abc23b8b87fee8f1c5d8b25",
            "0x0000000000000000000000000000000000000000000000000000000000000019",
            "0x0000000000000000000000000000000000000000000000000000000000000019"
          ],
          "data": "0x0000000000000000000000000000000000000000000000000ada38db565b000000000000000000000000000000000000000000000000000000000000000493e0",
          "blockHash": "0x8cba173ea48bef7c8af7091049284c410c87c037461434efbf513fadd866daa5",
          "blockNumber": "0x2f9816c",
          "blockTimestamp": "0x6a471e88",
          "transactionHash": "0x78dc3555e2d458b14a4f1447467152d11c28181ba765a4125d14b2b3fc00c1c8",
          "transactionIndex": "0x2b",
          "logIndex": "0x32",
          "removed": false
        }
      ],
      "logsBloom": "0x00000000400000000000000000000000000000000000000000000000000000000000000000000000000000000000000000000000000000800002000000003000000000000000000000000000000000000000000000000000001000000004000000000000000000010000000000200000000000000000020000000000000000000000000000000000000000000000000000000000000000000000000000000000000000000000000000000000000000000001000000000000000000000000000000000000000000000000000000000000000000000009000000000800400000000680000000000000000000000000000000000000000000000200088000000000",
      "type": "0x2",
      "transactionHash": "0x78dc3555e2d458b14a4f1447467152d11c28181ba765a4125d14b2b3fc00c1c8",
      "transactionIndex": "0x2b",
      "blockHash": "0x8cba173ea48bef7c8af7091049284c410c87c037461434efbf513fadd866daa5",
      "blockNumber": "0x2f9816c",
      "gasUsed": "0x26f62",
      "effectiveGasPrice": "0x5d21dba00",
      "from": "0x81d48d2c5d0744e8ef7a5c35cdceb0a27a1c707b",
      "to": "0x962aba0a590981cf9c5b336ac34922c82f203165",
      "contractAddress": null
    },
    {
      "status": "0x1",
      "cumulativeGasUsed": "0x34a505",
      "logs": [
        {
          "address": "0x4d82b6e528d3c2e1a3592e14863ec95eaef4ff85",
          "topics": [
            "0xc3d58168c5ae7397731d063d5bbf3d657854427343f4c083240f7aacaa2d0f62",
            "0x00000000000000000000000081d48d2c5d0744e8ef7a5c35cdceb0a27a1c707b",
            "0x0000000000000000000000000000000000000000000000000000000000000000",
            "0x00000000000000000000000081d48d2c5d0744e8ef7a5c35cdceb0a27a1c707b"
          ],
          "data": "0x000000000000000000000000000000000000000000000000000000000000001a000000000000000000000000000000000000000000000000000000000003d090",
          "blockHash": "0x8cba173ea48bef7c8af7091049284c410c87c037461434efbf513fadd866daa5",
          "blockNumber": "0x2f9816c",
          "blockTimestamp": "0x6a471e88",
          "transactionHash": "0x00e912b8d093f1cca095234043952ee5cddf695f75b1d57e111d6f6a0f657bd9",
          "transactionIndex": "0x2c",
          "logIndex": "0x33",
          "removed": false
        },
        {
          "address": "0x4d82b6e528d3c2e1a3592e14863ec95eaef4ff85",
          "topics": [
            "0x5d55a7ca4b923b36b70eb909992eb2bf005bf58b77d4cfb245faa8cb6b36d884",
            "0x000000000000000000000000000000000000000000000000000000000000001a"
          ],
          "data": "0x000000000000000000000000000000000000000000000000000000000000006000000000000000000000000000000000000000000000000000000000000000a0000000000000000000000000000000000000000000000000000000000003d090000000000000000000000000000000000000000000000000000000000000001546696265722047726964204d6574726f204c6f6f700000000000000000000000000000000000000000000000000000000000000000000000000000000000000e696e667261737472756374757265000000000000000000000000000000000000",
          "blockHash": "0x8cba173ea48bef7c8af7091049284c410c87c037461434efbf513fadd866daa5",
          "blockNumber": "0x2f9816c",
          "blockTimestamp": "0x6a471e88",
          "transactionHash": "0x00e912b8d093f1cca095234043952ee5cddf695f75b1d57e111d6f6a0f657bd9",
          "transactionIndex": "0x2c",
          "logIndex": "0x34",
          "removed": false
        }
      ],
      "logsBloom": "0x00020000000000000000000000000000000000000000000000000000000000000000000000000000000000000000000000000000000000000002000000002000000000000000000000000000000000001000000000000000001000001000000000000000020200000000000000200800000000000000000000000000000000000000000000000000000000000000000000000000000000000000000000000000000000000000000000000008000000000000000000000000000000000000000000000000000000000000000000000000000000000009000000000000000020000200000000000000000000000000000000000000000004000200080000000000",
      "type": "0x2",
      "transactionHash": "0x00e912b8d093f1cca095234043952ee5cddf695f75b1d57e111d6f6a0f657bd9",
      "transactionIndex": "0x2c",
      "blockHash": "0x8cba173ea48bef7c8af7091049284c410c87c037461434efbf513fadd866daa5",
      "blockNumber": "0x2f9816c",
      "gasUsed": "0x2fcbc",
      "effectiveGasPrice": "0x5d21dba00",
      "from": "0x81d48d2c5d0744e8ef7a5c35cdceb0a27a1c707b",
      "to": "0x4d82b6e528d3c2e1a3592e14863ec95eaef4ff85",
      "contractAddress": null
    },
    {
      "status": "0x1",
      "cumulativeGasUsed": "0x371467",
      "logs": [
        {
          "address": "0x4d82b6e528d3c2e1a3592e14863ec95eaef4ff85",
          "topics": [
            "0xc3d58168c5ae7397731d063d5bbf3d657854427343f4c083240f7aacaa2d0f62",
            "0x000000000000000000000000962aba0a590981cf9c5b336ac34922c82f203165",
            "0x00000000000000000000000081d48d2c5d0744e8ef7a5c35cdceb0a27a1c707b",
            "0x000000000000000000000000962aba0a590981cf9c5b336ac34922c82f203165"
          ],
          "data": "0x000000000000000000000000000000000000000000000000000000000000001a00000000000000000000000000000000000000000000000000000000000249f0",
          "blockHash": "0x8cba173ea48bef7c8af7091049284c410c87c037461434efbf513fadd866daa5",
          "blockNumber": "0x2f9816c",
          "blockTimestamp": "0x6a471e88",
          "transactionHash": "0xf7b0371d0ddd8374278fb832930bba7fff691bd5cdeaee0e304d5c02ed2bba90",
          "transactionIndex": "0x2d",
          "logIndex": "0x35",
          "removed": false
        },
        {
          "address": "0x962aba0a590981cf9c5b336ac34922c82f203165",
          "topics": [
            "0x32951ff170f53e2a0d7160f9c1da9bafcf35b5003abc23b8b87fee8f1c5d8b25",
            "0x000000000000000000000000000000000000000000000000000000000000001a",
            "0x000000000000000000000000000000000000000000000000000000000000001a"
          ],
          "data": "0x00000000000000000000000000000000000000000000000008e1bc9bf040000000000000000000000000000000000000000000000000000000000000000249f0",
          "blockHash": "0x8cba173ea48bef7c8af7091049284c410c87c037461434efbf513fadd866daa5",
          "blockNumber": "0x2f9816c",
          "blockTimestamp": "0x6a471e88",
          "transactionHash": "0xf7b0371d0ddd8374278fb832930bba7fff691bd5cdeaee0e304d5c02ed2bba90",
          "transactionIndex": "0x2d",
          "logIndex": "0x36",
          "removed": false
        }
      ],
      "logsBloom": "0x00000000400000000000000000000000000000000000000000000000000000000000000000000000000000000000000000000000000000000002000000003000000000000000000000000000000000001000000000000000001000001004000000000000000000010000000000200000000000000000000000000000000000000000000000000000000000000000000000000000000000000000000000000000000000000000000000000000000000000001000000000000000000000000000000000000000000000000000000000000000000000009000000000800400000000680000000000000000000000000000000000000000004000200080000000000",
      "type": "0x2",
      "transactionHash": "0xf7b0371d0ddd8374278fb832930bba7fff691bd5cdeaee0e304d5c02ed2bba90",
      "transactionIndex": "0x2d",
      "blockHash": "0x8cba173ea48bef7c8af7091049284c410c87c037461434efbf513fadd866daa5",
      "blockNumber": "0x2f9816c",
      "gasUsed": "0x26f62",
      "effectiveGasPrice": "0x5d21dba00",
      "from": "0x81d48d2c5d0744e8ef7a5c35cdceb0a27a1c707b",
      "to": "0x962aba0a590981cf9c5b336ac34922c82f203165",
      "contractAddress": null
    },
    {
      "status": "0x1",
      "cumulativeGasUsed": "0x3a118f",
      "logs": [
        {
          "address": "0x4d82b6e528d3c2e1a3592e14863ec95eaef4ff85",
          "topics": [
            "0xc3d58168c5ae7397731d063d5bbf3d657854427343f4c083240f7aacaa2d0f62",
            "0x00000000000000000000000081d48d2c5d0744e8ef7a5c35cdceb0a27a1c707b",
            "0x0000000000000000000000000000000000000000000000000000000000000000",
            "0x00000000000000000000000081d48d2c5d0744e8ef7a5c35cdceb0a27a1c707b"
          ],
          "data": "0x000000000000000000000000000000000000000000000000000000000000001b0000000000000000000000000000000000000000000000000000000000013880",
          "blockHash": "0x8cba173ea48bef7c8af7091049284c410c87c037461434efbf513fadd866daa5",
          "blockNumber": "0x2f9816c",
          "blockTimestamp": "0x6a471e88",
          "transactionHash": "0x320bbf32f95bb394b545f34d051844b2ace4bbdcb2d1b9a3e9db89154d7e287c",
          "transactionIndex": "0x2e",
          "logIndex": "0x37",
          "removed": false
        },
        {
          "address": "0x4d82b6e528d3c2e1a3592e14863ec95eaef4ff85",
          "topics": [
            "0x5d55a7ca4b923b36b70eb909992eb2bf005bf58b77d4cfb245faa8cb6b36d884",
            "0x000000000000000000000000000000000000000000000000000000000000001b"
          ],
          "data": "0x000000000000000000000000000000000000000000000000000000000000006000000000000000000000000000000000000000000000000000000000000000a000000000000000000000000000000000000000000000000000000000000138800000000000000000000000000000000000000000000000000000000000000019426c75652d4368697020417274204672616374696f6e2023370000000000000000000000000000000000000000000000000000000000000000000000000000106172742d636f6c6c65637469626c657300000000000000000000000000000000",
          "blockHash": "0x8cba173ea48bef7c8af7091049284c410c87c037461434efbf513fadd866daa5",
          "blockNumber": "0x2f9816c",
          "blockTimestamp": "0x6a471e88",
          "transactionHash": "0x320bbf32f95bb394b545f34d051844b2ace4bbdcb2d1b9a3e9db89154d7e287c",
          "transactionIndex": "0x2e",
          "logIndex": "0x38",
          "removed": false
        }
      ],
      "logsBloom": "0x00020000000000000000000000000000000000000010000000000000000000000000000000000000000000000000000000000000000000000002000000002000000000000000000000000000000000000000000000000000001000000000000000000000020200000000000000200800000000000000000000000000000000000000000000000000000000000000000000000000000000000000000000000000000000000100000000000008000000000000000000008000000000000000000000000000000000000000000000000000000000000009000000000000000020000200000000000000000000000000000000000000000000000200080000000000",
      "type": "0x2",
      "transactionHash": "0x320bbf32f95bb394b545f34d051844b2ace4bbdcb2d1b9a3e9db89154d7e287c",
      "transactionIndex": "0x2e",
      "blockHash": "0x8cba173ea48bef7c8af7091049284c410c87c037461434efbf513fadd866daa5",
      "blockNumber": "0x2f9816c",
      "gasUsed": "0x2fd28",
      "effectiveGasPrice": "0x5d21dba00",
      "from": "0x81d48d2c5d0744e8ef7a5c35cdceb0a27a1c707b",
      "to": "0x4d82b6e528d3c2e1a3592e14863ec95eaef4ff85",
      "contractAddress": null
    },
    {
      "status": "0x1",
      "cumulativeGasUsed": "0x3c80e5",
      "logs": [
        {
          "address": "0x4d82b6e528d3c2e1a3592e14863ec95eaef4ff85",
          "topics": [
            "0xc3d58168c5ae7397731d063d5bbf3d657854427343f4c083240f7aacaa2d0f62",
            "0x000000000000000000000000962aba0a590981cf9c5b336ac34922c82f203165",
            "0x00000000000000000000000081d48d2c5d0744e8ef7a5c35cdceb0a27a1c707b",
            "0x000000000000000000000000962aba0a590981cf9c5b336ac34922c82f203165"
          ],
          "data": "0x000000000000000000000000000000000000000000000000000000000000001b000000000000000000000000000000000000000000000000000000000000bb80",
          "blockHash": "0x8cba173ea48bef7c8af7091049284c410c87c037461434efbf513fadd866daa5",
          "blockNumber": "0x2f9816c",
          "blockTimestamp": "0x6a471e88",
          "transactionHash": "0xaa8ee2ad525440767c83ba428ad47059006223857e1b894c51210ff686e171d6",
          "transactionIndex": "0x2f",
          "logIndex": "0x39",
          "removed": false
        },
        {
          "address": "0x962aba0a590981cf9c5b336ac34922c82f203165",
          "topics": [
            "0x32951ff170f53e2a0d7160f9c1da9bafcf35b5003abc23b8b87fee8f1c5d8b25",
            "0x000000000000000000000000000000000000000000000000000000000000001b",
            "0x000000000000000000000000000000000000000000000000000000000000001b"
          ],
          "data": "0x00000000000000000000000000000000000000000000000010a741a462780000000000000000000000000000000000000000000000000000000000000000bb80",
          "blockHash": "0x8cba173ea48bef7c8af7091049284c410c87c037461434efbf513fadd866daa5",
          "blockNumber": "0x2f9816c",
          "blockTimestamp": "0x6a471e88",
          "transactionHash": "0xaa8ee2ad525440767c83ba428ad47059006223857e1b894c51210ff686e171d6",
          "transactionIndex": "0x2f",
          "logIndex": "0x3a",
          "removed": false
        }
      ],
      "logsBloom": "0x00000000400000000000000000000000000000000010000000000000000000000000000000000000000000000000000000000000000000000002000000003000000000000000000000000000000000000000000000000000001000000004000000000000000000010000000000200000000000000000000000000000000000000000000000000000000000000000000000000000000000000000000000000000000000000100000000000000000000000001000000008000000000000000000000000000000000000000000000000000000000000009000000000800400000000680000000000000000000000000000000000000000000000200080000000000",
      "type": "0x2",
      "transactionHash": "0xaa8ee2ad525440767c83ba428ad47059006223857e1b894c51210ff686e171d6",
      "transactionIndex": "0x2f",
      "blockHash": "0x8cba173ea48bef7c8af7091049284c410c87c037461434efbf513fadd866daa5",
      "blockNumber": "0x2f9816c",
      "gasUsed": "0x26f56",
      "effectiveGasPrice": "0x5d21dba00",
      "from": "0x81d48d2c5d0744e8ef7a5c35cdceb0a27a1c707b",
      "to": "0x962aba0a590981cf9c5b336ac34922c82f203165",
      "contractAddress": null
    },
    {
      "status": "0x1",
      "cumulativeGasUsed": "0x48442f",
      "logs": [
        {
          "address": "0x4d82b6e528d3c2e1a3592e14863ec95eaef4ff85",
          "topics": [
            "0xc3d58168c5ae7397731d063d5bbf3d657854427343f4c083240f7aacaa2d0f62",
            "0x00000000000000000000000081d48d2c5d0744e8ef7a5c35cdceb0a27a1c707b",
            "0x0000000000000000000000000000000000000000000000000000000000000000",
            "0x00000000000000000000000081d48d2c5d0744e8ef7a5c35cdceb0a27a1c707b"
          ],
          "data": "0x000000000000000000000000000000000000000000000000000000000000001c0000000000000000000000000000000000000000000000000000000000124f80",
          "blockHash": "0x8cba173ea48bef7c8af7091049284c410c87c037461434efbf513fadd866daa5",
          "blockNumber": "0x2f9816c",
          "blockTimestamp": "0x6a471e88",
          "transactionHash": "0x67fdf34f9a25976db98686c86395565f4ae4a90a7d5e677044065905154dbdc5",
          "transactionIndex": "0x36",
          "logIndex": "0x44",
          "removed": false
        },
        {
          "address": "0x4d82b6e528d3c2e1a3592e14863ec95eaef4ff85",
          "topics": [
            "0x5d55a7ca4b923b36b70eb909992eb2bf005bf58b77d4cfb245faa8cb6b36d884",
            "0x000000000000000000000000000000000000000000000000000000000000001c"
          ],
          "data": "0x000000000000000000000000000000000000000000000000000000000000006000000000000000000000000000000000000000000000000000000000000000a00000000000000000000000000000000000000000000000000000000000124f80000000000000000000000000000000000000000000000000000000000000001a4e6578757320496e766f69636520506f6f6c20323032362d30370000000000000000000000000000000000000000000000000000000000000000000000000011696e766f6963652d66696e616e63696e67000000000000000000000000000000",
          "blockHash": "0x8cba173ea48bef7c8af7091049284c410c87c037461434efbf513fadd866daa5",
          "blockNumber": "0x2f9816c",
          "blockTimestamp": "0x6a471e88",
          "transactionHash": "0x67fdf34f9a25976db98686c86395565f4ae4a90a7d5e677044065905154dbdc5",
          "transactionIndex": "0x36",
          "logIndex": "0x45",
          "removed": false
        }
      ],
      "logsBloom": "0x0002000000000000000000000000000000000000000000000000000000000000000000000000000000000000000000000000000000000020000200000000200000000000000000000000000000000000000000000000000000100000000000000000000002020000000000000020080000000000000000000000000000000000000000000000000000000000000000020000000000000000000000000000000000000000000000000000000a000000000000000000000000000000000000000000000000000000000000000000000000000000000009000000000000000020000200000000000000000000000000000000000000000000000200080000000000",
      "type": "0x2",
      "transactionHash": "0x67fdf34f9a25976db98686c86395565f4ae4a90a7d5e677044065905154dbdc5",
      "transactionIndex": "0x36",
      "blockHash": "0x8cba173ea48bef7c8af7091049284c410c87c037461434efbf513fadd866daa5",
      "blockNumber": "0x2f9816c",
      "gasUsed": "0x2fd58",
      "effectiveGasPrice": "0x5d21dba00",
      "from": "0x81d48d2c5d0744e8ef7a5c35cdceb0a27a1c707b",
      "to": "0x4d82b6e528d3c2e1a3592e14863ec95eaef4ff85",
      "contractAddress": null
    },
    {
      "status": "0x1",
      "cumulativeGasUsed": "0x4ab391",
      "logs": [
        {
          "address": "0x4d82b6e528d3c2e1a3592e14863ec95eaef4ff85",
          "topics": [
            "0xc3d58168c5ae7397731d063d5bbf3d657854427343f4c083240f7aacaa2d0f62",
            "0x000000000000000000000000962aba0a590981cf9c5b336ac34922c82f203165",
            "0x00000000000000000000000081d48d2c5d0744e8ef7a5c35cdceb0a27a1c707b",
            "0x000000000000000000000000962aba0a590981cf9c5b336ac34922c82f203165"
          ],
          "data": "0x000000000000000000000000000000000000000000000000000000000000001c00000000000000000000000000000000000000000000000000000000000afc80",
          "blockHash": "0x8cba173ea48bef7c8af7091049284c410c87c037461434efbf513fadd866daa5",
          "blockNumber": "0x2f9816c",
          "blockTimestamp": "0x6a471e88",
          "transactionHash": "0x4dec9b550017f442cca1ee30911e2a9614bc8523fbb870cf8cfde3a22020d4ec",
          "transactionIndex": "0x37",
          "logIndex": "0x46",
          "removed": false
        },
        {
          "address": "0x962aba0a590981cf9c5b336ac34922c82f203165",
          "topics": [
            "0x32951ff170f53e2a0d7160f9c1da9bafcf35b5003abc23b8b87fee8f1c5d8b25",
            "0x000000000000000000000000000000000000000000000000000000000000001c",
            "0x000000000000000000000000000000000000000000000000000000000000001c"
          ],
          "data": "0x000000000000000000000000000000000000000000000000016345785d8a000000000000000000000000000000000000000000000000000000000000000afc80",
          "blockHash": "0x8cba173ea48bef7c8af7091049284c410c87c037461434efbf513fadd866daa5",
          "blockNumber": "0x2f9816c",
          "blockTimestamp": "0x6a471e88",
          "transactionHash": "0x4dec9b550017f442cca1ee30911e2a9614bc8523fbb870cf8cfde3a22020d4ec",
          "transactionIndex": "0x37",
          "logIndex": "0x47",
          "removed": false
        }
      ],
      "logsBloom": "0x00000000400000000000000000000000000000000000000000000000000000000000000000000000000000000000000000000000000000200002000000003000000000000000000000000000000000000000000000000000001000000004000000000000000000010000000000200000000000000000000000000000000000000000000000000000000000000000000200000000000000000000000000000000000000000000000000000002000000000001000000000000000000000000000000000000000000000000000000000000000000000009000000000800400000000680000000000000000000000000000000000000000000000200080000000000",
      "type": "0x2",
      "transactionHash": "0x4dec9b550017f442cca1ee30911e2a9614bc8523fbb870cf8cfde3a22020d4ec",
      "transactionIndex": "0x37",
      "blockHash": "0x8cba173ea48bef7c8af7091049284c410c87c037461434efbf513fadd866daa5",
      "blockNumber": "0x2f9816c",
      "gasUsed": "0x26f62",
      "effectiveGasPrice": "0x5d21dba00",
      "from": "0x81d48d2c5d0744e8ef7a5c35cdceb0a27a1c707b",
      "to": "0x962aba0a590981cf9c5b336ac34922c82f203165",
      "contractAddress": null
    }
  ],
  "libraries": [],
  "pending": [],
  "returns": {},
  "timestamp": 1783045770854,
  "chain": 5042002,
  "commit": "25e4518"
}