{
  "transactions": [
    {
      "hash": "0xa1bb3e41d99309da4f889cfd02352f25e3fb2bae383b1e3eb130ea86b5109783",
      "transactionType": "CALL",
      "contractName": null,
      "contractAddress": "0x4d82b6e528d3c2e1a3592e14863ec95eaef4ff85",
      "function": "createAsset(string,string,uint256,string)",
      "arguments": [
        "US T-Note 2028",
        "treasuries",
        "10000",
        "hadron://assets/us-t-note-2028"
      ],
      "transaction": {
        "from": "0x81d48d2c5d0744e8ef7a5c35cdceb0a27a1c707b",
        "to": "0x4d82b6e528d3c2e1a3592e14863ec95eaef4ff85",
        "gas": "0x32edf",
        "value": "0x0",
        "input": "0x596abcf6000000000000000000000000000000000000000000000000000000000000008000000000000000000000000000000000000000000000000000000000000000c000000000000000000000000000000000000000000000000000000000000027100000000000000000000000000000000000000000000000000000000000000100000000000000000000000000000000000000000000000000000000000000000e555320542d4e6f74652032303238000000000000000000000000000000000000000000000000000000000000000000000000000000000000000000000000000a7472656173757269657300000000000000000000000000000000000000000000000000000000000000000000000000000000000000000000000000000000001e686164726f6e3a2f2f6173736574732f75732d742d6e6f74652d323032380000",
        "nonce": "0x198",
        "chainId": "0x4cef52"
      },
      "additionalContracts": [],
      "isFixedGasLimit": false
    },
    {
      "hash": "0x0f31bffddf5d38b31d42d6a995fe6ece3a1820701bdaeca58c8d40a7f112d771",
      "transactionType": "CALL",
      "contractName": null,
      "contractAddress": "0x962aba0a590981cf9c5b336ac34922c82f203165",
      "function": "createPrimaryOffering(uint256,uint256,uint256)",
      "arguments": [
        "5",
        "98400000000000000000",
        "6000"
      ],
      "transaction": {
        "from": "0x81d48d2c5d0744e8ef7a5c35cdceb0a27a1c707b",
        "to": "0x962aba0a590981cf9c5b336ac34922c82f203165",
        "gas": "0x38fb2",
        "value": "0x0",
        "input": "0x9f4ab0230000000000000000000000000000000000000000000000000000000000000005000000000000000000000000000000000000000000000005559306a78a7000000000000000000000000000000000000000000000000000000000000000001770",
        "nonce": "0x199",
        "chainId": "0x4cef52"
      },
      "additionalContracts": [],
      "isFixedGasLimit": false
    },
    {
      "hash": "0xafad01ec1958047340245cc4dbaf60d16a32eaf541b402adbbe451d77128cd64",
      "transactionType": "CALL",
      "contractName": null,
      "contractAddress": "0x4d82b6e528d3c2e1a3592e14863ec95eaef4ff85",
      "function": "createAsset(string,string,uint256,string)",
      "arguments": [
        "Meridian SME Credit Pool A",
        "private-credit",
        "5000",
        "hadron://assets/meridian-sme-credit-a"
      ],
      "transaction": {
        "from": "0x81d48d2c5d0744e8ef7a5c35cdceb0a27a1c707b",
        "to": "0x4d82b6e528d3c2e1a3592e14863ec95eaef4ff85",
        "gas": "0x4208b",
        "value": "0x0",
        "input": "0x596abcf6000000000000000000000000000000000000000000000000000000000000008000000000000000000000000000000000000000000000000000000000000000c000000000000000000000000000000000000000000000000000000000000013880000000000000000000000000000000000000000000000000000000000000100000000000000000000000000000000000000000000000000000000000000001a4d6572696469616e20534d452043726564697420506f6f6c2041000000000000000000000000000000000000000000000000000000000000000000000000000e707269766174652d6372656469740000000000000000000000000000000000000000000000000000000000000000000000000000000000000000000000000025686164726f6e3a2f2f6173736574732f6d6572696469616e2d736d652d6372656469742d61000000000000000000000000000000000000000000000000000000",
        "nonce": "0x19a",
        "chainId": "0x4cef52"
      },
      "additionalContracts": [],
      "isFixedGasLimit": false
    },
    {
      "hash": "0xe1bcc637e86ab06db69927f55939d7e669d799abbd540d8e785e5d491ebdcbd6",
      "transactionType": "CALL",
      "contractName": null,
      "contractAddress": "0x962aba0a590981cf9c5b336ac34922c82f203165",
      "function": "createPrimaryOffering(uint256,uint256,uint256)",
      "arguments": [
        "6",
        "50000000000000000000",
        "3000"
      ],
      "transaction": {
        "from": "0x81d48d2c5d0744e8ef7a5c35cdceb0a27a1c707b",
        "to": "0x962aba0a590981cf9c5b336ac34922c82f203165",
        "gas": "0x38fb2",
        "value": "0x0",
        "input": "0x9f4ab0230000000000000000000000000000000000000000000000000000000000000006000000000000000000000000000000000000000000000002b5e3af16b18800000000000000000000000000000000000000000000000000000000000000000bb8",
        "nonce": "0x19b",
        "chainId": "0x4cef52"
      },
      "additionalContracts": [],
      "isFixedGasLimit": false
    },
    {
      "hash": "0x17b43fe558982f90ed7cfd80c3cb16f9f4446419bd0deee1c86c089ca8271fc5",
      "transactionType": "CALL",
      "contractName": null,
      "contractAddress": "0x4d82b6e528d3c2e1a3592e14863ec95eaef4ff85",
      "function": "createAsset(string,string,uint256,string)",
      "arguments": [
        "Atlas Trade Receivables B",
        "private-credit",
        "6000",
        "hadron://assets/atlas-trade-receivables-b"
      ],
      "transaction": {
        "from": "0x81d48d2c5d0744e8ef7a5c35cdceb0a27a1c707b",
        "to": "0x4d82b6e528d3c2e1a3592e14863ec95eaef4ff85",
        "gas": "0x420be",
        "value": "0x0",
        "input": "0x596abcf6000000000000000000000000000000000000000000000000000000000000008000000000000000000000000000000000000000000000000000000000000000c000000000000000000000000000000000000000000000000000000000000017700000000000000000000000000000000000000000000000000000000000000100000000000000000000000000000000000000000000000000000000000000001941746c61732054726164652052656365697661626c6573204200000000000000000000000000000000000000000000000000000000000000000000000000000e707269766174652d6372656469740000000000000000000000000000000000000000000000000000000000000000000000000000000000000000000000000029686164726f6e3a2f2f6173736574732f61746c61732d74726164652d72656365697661626c65732d620000000000000000000000000000000000000000000000",
        "nonce": "0x19c",
        "chainId": "0x4cef52"
      },
      "additionalContracts": [],
      "isFixedGasLimit": false
    },
    {
      "hash": "0x5a141999ad2e5d57c726d55a319ea10665cbb1a7681199a2b9925632622a6f96",
      "transactionType": "CALL",
      "contractName": null,
      "contractAddress": "0x962aba0a590981cf9c5b336ac34922c82f203165",
      "function": "createPrimaryOffering(uint256,uint256,uint256)",
      "arguments": [
        "7",
        "25000000000000000000",
        "3600"
      ],
      "transaction": {
        "from": "0x81d48d2c5d0744e8ef7a5c35cdceb0a27a1c707b",
        "to": "0x962aba0a590981cf9c5b336ac34922c82f203165",
        "gas": "0x38fb2",
        "value": "0x0",
        "input": "0x9f4ab02300000000000000000000000000000000000000000000000000000000000000070000000000000000000000000000000000000000000000015af1d78b58c400000000000000000000000000000000000000000000000000000000000000000e10",
        "nonce": "0x19d",
        "chainId": "0x4cef52"
      },
      "additionalContracts": [],
      "isFixedGasLimit": false
    },
    {
      "hash": "0x315c2fa88a18730a49ad2db15ccb6499ec2da6dcaba3877d6214f5f00b16c2e3",
      "transactionType": "CALL",
      "contractName": null,
      "contractAddress": "0x4d82b6e528d3c2e1a3592e14863ec95eaef4ff85",
      "function": "createAsset(string,string,uint256,string)",
      "arguments": [
        "Dockside Logistics Park",
        "real-estate",
        "3000",
        "hadron://assets/dockside-logistics-park"
      ],
      "transaction": {
        "from": "0x81d48d2c5d0744e8ef7a5c35cdceb0a27a1c707b",
        "to": "0x4d82b6e528d3c2e1a3592e14863ec95eaef4ff85",
        "gas": "0x42049",
        "value": "0x0",
        "input": "0x596abcf6000000000000000000000000000000000000000000000000000000000000008000000000000000000000000000000000000000000000000000000000000000c00000000000000000000000000000000000000000000000000000000000000bb800000000000000000000000000000000000000000000000000000000000001000000000000000000000000000000000000000000000000000000000000000017446f636b73696465204c6f67697374696373205061726b000000000000000000000000000000000000000000000000000000000000000000000000000000000b7265616c2d6573746174650000000000000000000000000000000000000000000000000000000000000000000000000000000000000000000000000000000027686164726f6e3a2f2f6173736574732f646f636b736964652d6c6f676973746963732d7061726b00000000000000000000000000000000000000000000000000",
        "nonce": "0x19e",
        "chainId": "0x4cef52"
      },
      "additionalContracts": [],
      "isFixedGasLimit": false
    },
    {
      "hash": "0xba200dd4324099ff88e2f3ca4e68e969d7929f71b25b9bfb6e15890a100dc6bc",
      "transactionType": "CALL",
      "contractName": null,
      "contractAddress": "0x962aba0a590981cf9c5b336ac34922c82f203165",
      "function": "createPrimaryOffering(uint256,uint256,uint256)",
      "arguments": [
        "8",
        "42750000000000000000",
        "1800"
      ],
      "transaction": {
        "from": "0x81d48d2c5d0744e8ef7a5c35cdceb0a27a1c707b",
        "to": "0x962aba0a590981cf9c5b336ac34922c82f203165",
        "gas": "0x38fb2",
        "value": "0x0",
        "input": "0x9f4ab02300000000000000000000000000000000000000000000000000000000000000080000000000000000000000000000000000000000000000025146828033f300000000000000000000000000000000000000000000000000000000000000000708",
        "nonce": "0x19f",
        "chainId": "0x4cef52"
      },
      "additionalContracts": [],
      "isFixedGasLimit": false
    },
    {
      "hash": "0x7f509a11d15eca8b55062d23cd2c549bd38684fd35132039606e8ea3732666d3",
      "transactionType": "CALL",
      "contractName": null,
      "contractAddress": "0x4d82b6e528d3c2e1a3592e14863ec95eaef4ff85",
      "function": "createAsset(string,string,uint256,string)",
      "arguments": [
        "Silver Bullion Vault #2",
        "commodities",
        "2000",
        "hadron://assets/silver-bullion-vault-2"
      ],
      "transaction": {
        "from": "0x81d48d2c5d0744e8ef7a5c35cdceb0a27a1c707b",
        "to": "0x4d82b6e528d3c2e1a3592e14863ec95eaef4ff85",
        "gas": "0x42039",
        "value": "0x0",
        "input": "0x596abcf6000000000000000000000000000000000000000000000000000000000000008000000000000000000000000000000000000000000000000000000000000000c000000000000000000000000000000000000000000000000000000000000007d00000000000000000000000000000000000000000000000000000000000000100000000000000000000000000000000000000000000000000000000000000001753696c7665722042756c6c696f6e205661756c74202332000000000000000000000000000000000000000000000000000000000000000000000000000000000b636f6d6d6f6469746965730000000000000000000000000000000000000000000000000000000000000000000000000000000000000000000000000000000026686164726f6e3a2f2f6173736574732f73696c7665722d62756c6c696f6e2d7661756c742d320000000000000000000000000000000000000000000000000000",
        "nonce": "0x1a0",
        "chainId": "0x4cef52"
      },
      "additionalContracts": [],
      "isFixedGasLimit": false
    },
    {
      "hash": "0xb2698ae66a4043639b8704edb2d03eeb5fa6a120a7aa02dd1e8e0537e3ce9652",
      "transactionType": "CALL",
      "contractName": null,
      "contractAddress": "0x962aba0a590981cf9c5b336ac34922c82f203165",
      "function": "createPrimaryOffering(uint256,uint256,uint256)",
      "arguments": [
        "9",
        "29400000000000000000",
        "1200"
      ],
      "transaction": {
        "from": "0x81d48d2c5d0744e8ef7a5c35cdceb0a27a1c707b",
        "to": "0x962aba0a590981cf9c5b336ac34922c82f203165",
        "gas": "0x38fb2",
        "value": "0x0",
        "input": "0x9f4ab02300000000000000000000000000000000000000000000000000000000000000090000000000000000000000000000000000000000000000019801c83b6c7c000000000000000000000000000000000000000000000000000000000000000004b0",
        "nonce": "0x1a1",
        "chainId": "0x4cef52"
      },
      "additionalContracts": [],
      "isFixedGasLimit": false
    },
    {
      "hash": "0xb7ae8808928479c74a131e45f2945521f862295862fa23cc081b9f0d49856bea",
      "transactionType": "CALL",
      "contractName": null,
      "contractAddress": "0x4d82b6e528d3c2e1a3592e14863ec95eaef4ff85",
      "function": "createAsset(string,string,uint256,string)",
      "arguments": [
        "Gold Standard Offset Bundle",
        "carbon",
        "6000",
        "hadron://assets/gold-standard-offset-bundle"
      ],
      "transaction": {
        "from": "0x81d48d2c5d0744e8ef7a5c35cdceb0a27a1c707b",
        "to": "0x4d82b6e528d3c2e1a3592e14863ec95eaef4ff85",
        "gas": "0x4207b",
        "value": "0x0",
        "input": "0x596abcf6000000000000000000000000000000000000000000000000000000000000008000000000000000000000000000000000000000000000000000000000000000c000000000000000000000000000000000000000000000000000000000000017700000000000000000000000000000000000000000000000000000000000000100000000000000000000000000000000000000000000000000000000000000001b476f6c64205374616e64617264204f66667365742042756e646c6500000000000000000000000000000000000000000000000000000000000000000000000006636172626f6e0000000000000000000000000000000000000000000000000000000000000000000000000000000000000000000000000000000000000000002b686164726f6e3a2f2f6173736574732f676f6c642d7374616e646172642d6f66667365742d62756e646c65000000000000000000000000000000000000000000",
        "nonce": "0x1a2",
        "chainId": "0x4cef52"
      },
      "additionalContracts": [],
      "isFixedGasLimit": false
    },
    {
      "hash": "0x714ebf94ffcdcc0f129f849a1b5f1c4827ab1d3bc0557e59a2b3c18305f6b660",
      "transactionType": "CALL",
      "contractName": null,
      "contractAddress": "0x962aba0a590981cf9c5b336ac34922c82f203165",
      "function": "createPrimaryOffering(uint256,uint256,uint256)",
      "arguments": [
        "10",
        "2400000000000000000",
        "3600"
      ],
      "transaction": {
        "from": "0x81d48d2c5d0744e8ef7a5c35cdceb0a27a1c707b",
        "to": "0x962aba0a590981cf9c5b336ac34922c82f203165",
        "gas": "0x35cfb",
        "value": "0x0",
        "input": "0x9f4ab023000000000000000000000000000000000000000000000000000000000000000a000000000000000000000000000000000000000000000000214e8348c4f000000000000000000000000000000000000000000000000000000000000000000e10",
        "nonce": "0x1a3",
        "chainId": "0x4cef52"
      },
      "additionalContracts": [],
      "isFixedGasLimit": false
    },
    {
      "hash": "0x5ae1af282e1204f7edf56d5679430736ce3910241a0de5f386c1c9cfd11f8956",
      "transactionType": "CALL",
      "contractName": null,
      "contractAddress": "0x4d82b6e528d3c2e1a3592e14863ec95eaef4ff85",
      "function": "createAsset(string,string,uint256,string)",
      "arguments": [
        "Solar Farm Basin-2 Notes",
        "infrastructure",
        "5000",
        "hadron://assets/solar-farm-basin-2"
      ],
      "transaction": {
        "from": "0x81d48d2c5d0744e8ef7a5c35cdceb0a27a1c707b",
        "to": "0x4d82b6e528d3c2e1a3592e14863ec95eaef4ff85",
        "gas": "0x42039",
        "value": "0x0",
        "input": "0x596abcf6000000000000000000000000000000000000000000000000000000000000008000000000000000000000000000000000000000000000000000000000000000c0000000000000000000000000000000000000000000000000000000000000138800000000000000000000000000000000000000000000000000000000000001000000000000000000000000000000000000000000000000000000000000000018536f6c6172204661726d20426173696e2d32204e6f7465730000000000000000000000000000000000000000000000000000000000000000000000000000000e696e6672617374727563747572650000000000000000000000000000000000000000000000000000000000000000000000000000000000000000000000000022686164726f6e3a2f2f6173736574732f736f6c61722d6661726d2d626173696e2d32000000000000000000000000000000000000000000000000000000000000",
        "nonce": "0x1a4",
        "chainId": "0x4cef52"
      },
      "additionalContracts": [],
      "isFixedGasLimit": false
    },
    {
      "hash": "0x6fb071d9aa76df3c2fa0281fea1f4e95a37839dc196ed1fe1c579e0f5ec03602",
      "transactionType": "CALL",
      "contractName": null,
      "contractAddress": "0x962aba0a590981cf9c5b336ac34922c82f203165",
      "function": "createPrimaryOffering(uint256,uint256,uint256)",
      "arguments": [
        "11",
        "78200000000000000000",
        "3000"
      ],
      "transaction": {
        "from": "0x81d48d2c5d0744e8ef7a5c35cdceb0a27a1c707b",
        "to": "0x962aba0a590981cf9c5b336ac34922c82f203165",
        "gas": "0x38fb2",
        "value": "0x0",
        "input": "0x9f4ab023000000000000000000000000000000000000000000000000000000000000000b0000000000000000000000000000000000000000000000043d3e35adbb8c00000000000000000000000000000000000000000000000000000000000000000bb8",
        "nonce": "0x1a5",
        "chainId": "0x4cef52"
      },
      "additionalContracts": [],
      "isFixedGasLimit": false
    },
    {
      "hash": "0xea636fcf4ec38a0bc3cb007fd2dae97bde73a78daed96f03f3d5b41eb5baa047",
      "transactionType": "CALL",
      "contractName": null,
      "contractAddress": "0x4d82b6e528d3c2e1a3592e14863ec95eaef4ff85",
      "function": "createAsset(string,string,uint256,string)",
      "arguments": [
        "Fiber Grid Metro Loop",
        "infrastructure",
        "2500",
        "hadron://assets/fiber-grid-metro-loop"
      ],
      "transaction": {
        "from": "0x81d48d2c5d0744e8ef7a5c35cdceb0a27a1c707b",
        "to": "0x4d82b6e528d3c2e1a3592e14863ec95eaef4ff85",
        "gas": "0x42039",
        "value": "0x0",
        "input": "0x596abcf6000000000000000000000000000000000000000000000000000000000000008000000000000000000000000000000000000000000000000000000000000000c000000000000000000000000000000000000000000000000000000000000009c40000000000000000000000000000000000000000000000000000000000000100000000000000000000000000000000000000000000000000000000000000001546696265722047726964204d6574726f204c6f6f700000000000000000000000000000000000000000000000000000000000000000000000000000000000000e696e6672617374727563747572650000000000000000000000000000000000000000000000000000000000000000000000000000000000000000000000000025686164726f6e3a2f2f6173736574732f66696265722d677269642d6d6574726f2d6c6f6f70000000000000000000000000000000000000000000000000000000",
        "nonce": "0x1a6",
        "chainId": "0x4cef52"
      },
      "additionalContracts": [],
      "isFixedGasLimit": false
    },
    {
      "hash": "0x694b879c6f6aff80d06803d733570f1986b6f426d44480d67166119990ff1bfa",
      "transactionType": "CALL",
      "contractName": null,
      "contractAddress": "0x962aba0a590981cf9c5b336ac34922c82f203165",
      "function": "createPrimaryOffering(uint256,uint256,uint256)",
      "arguments": [
        "12",
        "64000000000000000000",
        "1500"
      ],
      "transaction": {
        "from": "0x81d48d2c5d0744e8ef7a5c35cdceb0a27a1c707b",
        "to": "0x962aba0a590981cf9c5b336ac34922c82f203165",
        "gas": "0x35cfb",
        "value": "0x0",
        "input": "0x9f4ab023000000000000000000000000000000000000000000000000000000000000000c000000000000000000000000000000000000000000000003782dace9d900000000000000000000000000000000000000000000000000000000000000000005dc",
        "nonce": "0x1a7",
        "chainId": "0x4cef52"
      },
      "additionalContracts": [],
      "isFixedGasLimit": false
    },
    {
      "hash": "0x9b0e6bd66db4a719e96ef0e14bfbd6a090a848636af70d1219c69e734fc27b1f",
      "transactionType": "CALL",
      "contractName": null,
      "contractAddress": "0x4d82b6e528d3c2e1a3592e14863ec95eaef4ff85",
      "function": "createAsset(string,string,uint256,string)",
      "arguments": [
        "Blue-Chip Art Fraction #7",
        "art-collectibles",
        "800",
        "hadron://assets/blue-chip-art-fraction-7"
      ],
      "transaction": {
        "from": "0x81d48d2c5d0744e8ef7a5c35cdceb0a27a1c707b",
        "to": "0x4d82b6e528d3c2e1a3592e14863ec95eaef4ff85",
        "gas": "0x420cd",
        "value": "0x0",
        "input": "0x596abcf6000000000000000000000000000000000000000000000000000000000000008000000000000000000000000000000000000000000000000000000000000000c0000000000000000000000000000000000000000000000000000000000000032000000000000000000000000000000000000000000000000000000000000001000000000000000000000000000000000000000000000000000000000000000019426c75652d4368697020417274204672616374696f6e2023370000000000000000000000000000000000000000000000000000000000000000000000000000106172742d636f6c6c65637469626c6573000000000000000000000000000000000000000000000000000000000000000000000000000000000000000000000028686164726f6e3a2f2f6173736574732f626c75652d636869702d6172742d6672616374696f6e2d37000000000000000000000000000000000000000000000000",
        "nonce": "0x1a8",
        "chainId": "0x4cef52"
      },
      "additionalContracts": [],
      "isFixedGasLimit": false
    },
    {
      "hash": "0xeb0649b5205ba7739420d3252b2794064c79116c524c5e95bcb0c9b6364e8410",
      "transactionType": "CALL",
      "contractName": null,
      "contractAddress": "0x962aba0a590981cf9c5b336ac34922c82f203165",
      "function": "createPrimaryOffering(uint256,uint256,uint256)",
      "arguments": [
        "13",
        "120000000000000000000",
        "480"
      ],
      "transaction": {
        "from": "0x81d48d2c5d0744e8ef7a5c35cdceb0a27a1c707b",
        "to": "0x962aba0a590981cf9c5b336ac34922c82f203165",
        "gas": "0x38fb2",
        "value": "0x0",
        "input": "0x9f4ab023000000000000000000000000000000000000000000000000000000000000000d0000000000000000000000000000000000000000000000068155a43676e0000000000000000000000000000000000000000000000000000000000000000001e0",
        "nonce": "0x1a9",
        "chainId": "0x4cef52"
      },
      "additionalContracts": [],
      "isFixedGasLimit": false
    },
    {
      "hash": "0x710b0d94b8219261ae5c2177024c2ebfdb668ce82ef951938ef1a5dd45645241",
      "transactionType": "CALL",
      "contractName": null,
      "contractAddress": "0x4d82b6e528d3c2e1a3592e14863ec95eaef4ff85",
      "function": "createAsset(string,string,uint256,string)",
      "arguments": [
        "Nexus Invoice Pool 2026-07",
        "invoice-financing",
        "12000",
        "hadron://assets/nexus-invoice-pool-2026-07"
      ],
      "transaction": {
        "from": "0x81d48d2c5d0744e8ef7a5c35cdceb0a27a1c707b",
        "to": "0x4d82b6e528d3c2e1a3592e14863ec95eaef4ff85",
        "gas": "0x42110",
        "value": "0x0",
        "input": "0x596abcf6000000000000000000000000000000000000000000000000000000000000008000000000000000000000000000000000000000000000000000000000000000c00000000000000000000000000000000000000000000000000000000000002ee00000000000000000000000000000000000000000000000000000000000000100000000000000000000000000000000000000000000000000000000000000001a4e6578757320496e766f69636520506f6f6c20323032362d30370000000000000000000000000000000000000000000000000000000000000000000000000011696e766f6963652d66696e616e63696e67000000000000000000000000000000000000000000000000000000000000000000000000000000000000000000002a686164726f6e3a2f2f6173736574732f6e657875732d696e766f6963652d706f6f6c2d323032362d303700000000000000000000000000000000000000000000",
        "nonce": "0x1aa",
        "chainId": "0x4cef52"
      },
      "additionalContracts": [],
      "isFixedGasLimit": false
    },
    {
      "hash": "0x6cf2bb0a7906265f0be20ecaa1dc02d831529e00494ae79e8a31293546c0fc07",
      "transactionType": "CALL",
      "contractName": null,
      "contractAddress": "0x962aba0a590981cf9c5b336ac34922c82f203165",
      "function": "createPrimaryOffering(uint256,uint256,uint256)",
      "arguments": [
        "14",
        "10000000000000000000",
        "7200"
      ],
      "transaction": {
        "from": "0x81d48d2c5d0744e8ef7a5c35cdceb0a27a1c707b",
        "to": "0x962aba0a590981cf9c5b336ac34922c82f203165",
        "gas": "0x35cfb",
        "value": "0x0",
        "input": "0x9f4ab023000000000000000000000000000000000000000000000000000000000000000e0000000000000000000000000000000000000000000000008ac7230489e800000000000000000000000000000000000000000000000000000000000000001c20",
        "nonce": "0x1ab",
        "chainId": "0x4cef52"
      },
      "additionalContracts": [],
      "isFixedGasLimit": false
    }
  ],
  "receipts": [
    {
      "status": "0x1",
      "cumulativeGasUsed": "0x270437",
      "logs": [
        {
          "address": "0x4d82b6e528d3c2e1a3592e14863ec95eaef4ff85",
          "topics": [
            "0xc3d58168c5ae7397731d063d5bbf3d657854427343f4c083240f7aacaa2d0f62",
            "0x00000000000000000000000081d48d2c5d0744e8ef7a5c35cdceb0a27a1c707b",
            "0x0000000000000000000000000000000000000000000000000000000000000000",
            "0x00000000000000000000000081d48d2c5d0744e8ef7a5c35cdceb0a27a1c707b"
          ],
          "data": "0x00000000000000000000000000000000000000000000000000000000000000050000000000000000000000000000000000000000000000000000000000002710",
          "blockHash": "0x75a82a0ccd4f8c5e73a4047524b069879d453fbcb27a1e9a6c617e3a03ae696a",
          "blockNumber": "0x2f84e66",
          "blockTimestamp": "0x6a468246",
          "transactionHash": "0xa1bb3e41d99309da4f889cfd02352f25e3fb2bae383b1e3eb130ea86b5109783",
          "transactionIndex": "0xc",
          "logIndex": "0x1b",
          "removed": false
        },
        {
          "address": "0x4d82b6e528d3c2e1a3592e14863ec95eaef4ff85",
          "topics": [
            "0x5d55a7ca4b923b36b70eb909992eb2bf005bf58b77d4cfb245faa8cb6b36d884",
            "0x0000000000000000000000000000000000000000000000000000000000000005"
          ],
          "data": "0x000000000000000000000000000000000000000000000000000000000000006000000000000000000000000000000000000000000000000000000000000000a00000000000000000000000000000000000000000000000000000000000002710000000000000000000000000000000000000000000000000000000000000000e555320542d4e6f74652032303238000000000000000000000000000000000000000000000000000000000000000000000000000000000000000000000000000a7472656173757269657300000000000000000000000000000000000000000000",
          "blockHash": "0x75a82a0ccd4f8c5e73a4047524b069879d453fbcb27a1e9a6c617e3a03ae696a",
          "blockNumber": "0x2f84e66",
          "blockTimestamp": "0x6a468246",
          "transactionHash": "0xa1bb3e41d99309da4f889cfd02352f25e3fb2bae383b1e3eb130ea86b5109783",
          "transactionIndex": "0xc",
          "logIndex": "0x1c",
          "removed": false
        }
      ],
      "logsBloom": "0x00020000000000000000000000000000000000000000000000000000000000000000000000000000000000000000000000000000000000000002000000002000000010000000000000000000000000000000000000000000001000000000000000000000020200000000000000200800000000000000000000000000000000000000000000000000000000000000001000000800000000000000000000000000000000000000000000000008000000000000000000000000000000000000000000000000000000000000000000000000000000000009000000000000000020000200000000000000000000000000000000000000000000000200080000000000",
      "type": "0x2",
      "transactionHash": "0xa1bb3e41d99309da4f889cfd02352f25e3fb2bae383b1e3eb130ea86b5109783",
      "transactionIndex": "0xc",
      "blockHash": "0x75a82a0ccd4f8c5e73a4047524b069879d453fbcb27a1e9a6c617e3a03ae696a",
      "blockNumber": "0x2f84e66",
      "gasUsed": "0x24df4",
      "effectiveGasPrice": "0x4c07d0a3b",
      "from": "0x81d48d2c5d0744e8ef7a5c35cdceb0a27a1c707b",
      "to": "0x4d82b6e528d3c2e1a3592e14863ec95eaef4ff85",
      "contractAddress": null
    },
    {
      "status": "0x1",
      "cumulativeGasUsed": "0x297399",
      "logs": [
        {
          "address": "0x4d82b6e528d3c2e1a3592e14863ec95eaef4ff85",
          "topics": [
            "0xc3d58168c5ae7397731d063d5bbf3d657854427343f4c083240f7aacaa2d0f62",
            "0x000000000000000000000000962aba0a590981cf9c5b336ac34922c82f203165",
            "0x00000000000000000000000081d48d2c5d0744e8ef7a5c35cdceb0a27a1c707b",
            "0x000000000000000000000000962aba0a590981cf9c5b336ac34922c82f203165"
          ],
          "data": "0x00000000000000000000000000000000000000000000000000000000000000050000000000000000000000000000000000000000000000000000000000001770",
          "blockHash": "0x75a82a0ccd4f8c5e73a4047524b069879d453fbcb27a1e9a6c617e3a03ae696a",
          "blockNumber": "0x2f84e66",
          "blockTimestamp": "0x6a468246",
          "transactionHash": "0xafad01ec1958047340245cc4dbaf60d16a32eaf541b402adbbe451d77128cd64",
          "transactionIndex": "0xd",
          "logIndex": "0x1d",
          "removed": false
        },
        {
          "address": "0x962aba0a590981cf9c5b336ac34922c82f203165",
          "topics": [
            "0x32951ff170f53e2a0d7160f9c1da9bafcf35b5003abc23b8b87fee8f1c5d8b25",
            "0x0000000000000000000000000000000000000000000000000000000000000005",
            "0x0000000000000000000000000000000000000000000000000000000000000005"
          ],
          "data": "0x000000000000000000000000000000000000000000000005559306a78a7000000000000000000000000000000000000000000000000000000000000000001770",
          "blockHash": "0x75a82a0ccd4f8c5e73a4047524b069879d453fbcb27a1e9a6c617e3a03ae696a",
          "blockNumber": "0x2f84e66",
          "blockTimestamp": "0x6a468246",
          "transactionHash": "0xafad01ec1958047340245cc4dbaf60d16a32eaf541b402adbbe451d77128cd64",
          "transactionIndex": "0xd",
          "logIndex": "0x1e",
          "removed": false
        }
      ],
      "logsBloom": "0x00000000400000000000000000000000000000000000000000000000000000000000000000000000000000000000000000000000000000000002000000003000000010000000000000000000000000000000000000000000001000000004000000000000000000010000000000200000000000000000000000000000000000000000000000000000000000000000001000000800000000000000000000000000000000000000000000000000000000000001000000000000000000000000000000000000000000000000000000000000000000000009000000000800400000000680000000000000000000000000000000000000000000000200080000000000",
      "type": "0x2",
      "transactionHash": "0xafad01ec1958047340245cc4dbaf60d16a32eaf541b402adbbe451d77128cd64",
      "transactionIndex": "0xd",
      "blockHash": "0x75a82a0ccd4f8c5e73a4047524b069879d453fbcb27a1e9a6c617e3a03ae696a",
      "blockNumber": "0x2f84e66",
      "gasUsed": "0x26f62",
      "effectiveGasPrice": "0x4c07d0a3b",
      "from": "0x81d48d2c5d0744e8ef7a5c35cdceb0a27a1c707b",
      "to": "0x962aba0a590981cf9c5b336ac34922c82f203165",
      "contractAddress": null
    },
    {
      "status": "0x1",
      "cumulativeGasUsed": "0x2c7085",
      "logs": [
        {
          "address": "0x4d82b6e528d3c2e1a3592e14863ec95eaef4ff85",
          "topics": [
            "0xc3d58168c5ae7397731d063d5bbf3d657854427343f4c083240f7aacaa2d0f62",
            "0x00000000000000000000000081d48d2c5d0744e8ef7a5c35cdceb0a27a1c707b",
            "0x0000000000000000000000000000000000000000000000000000000000000000",
            "0x00000000000000000000000081d48d2c5d0744e8ef7a5c35cdceb0a27a1c707b"
          ],
          "data": "0x00000000000000000000000000000000000000000000000000000000000000060000000000000000000000000000000000000000000000000000000000001388",
          "blockHash": "0x75a82a0ccd4f8c5e73a4047524b069879d453fbcb27a1e9a6c617e3a03ae696a",
          "blockNumber": "0x2f84e66",
          "blockTimestamp": "0x6a468246",
          "transactionHash": "0x0f31bffddf5d38b31d42d6a995fe6ece3a1820701bdaeca58c8d40a7f112d771",
          "transactionIndex": "0xe",
          "logIndex": "0x1f",
          "removed": false
        },
        {
          "address": "0x4d82b6e528d3c2e1a3592e14863ec95eaef4ff85",
          "topics": [
            "0x5d55a7ca4b923b36b70eb909992eb2bf005bf58b77d4cfb245faa8cb6b36d884",
            "0x0000000000000000000000000000000000000000000000000000000000000006"
          ],
          "data": "0x000000000000000000000000000000000000000000000000000000000000006000000000000000000000000000000000000000000000000000000000000000a00000000000000000000000000000000000000000000000000000000000001388000000000000000000000000000000000000000000000000000000000000001a4d6572696469616e20534d452043726564697420506f6f6c2041000000000000000000000000000000000000000000000000000000000000000000000000000e707269766174652d637265646974000000000000000000000000000000000000",
          "blockHash": "0x75a82a0ccd4f8c5e73a4047524b069879d453fbcb27a1e9a6c617e3a03ae696a",
          "blockNumber": "0x2f84e66",
          "blockTimestamp": "0x6a468246",
          "transactionHash": "0x0f31bffddf5d38b31d42d6a995fe6ece3a1820701bdaeca58c8d40a7f112d771",
          "transactionIndex": "0xe",
          "logIndex": "0x20",
          "removed": false
        }
      ],
      "logsBloom": "0x00020000000000000000000000000000000000000000000000000000000000000000000000000000000000000000000000000000000400000002000000002000000000000000000000000000000000000000000000000000001000000000000000000000020200000000000000200800000000000000000000000000000000000000000400000000000000000000000000000000000000000000000000000000000000000000000000000008000000000000000000000000000000080000000000000000000000000000000000000000000000000009000000000000000020000200000000000000000000000000000000000000000000000200080000000000",
      "type": "0x2",
      "transactionHash": "0x0f31bffddf5d38b31d42d6a995fe6ece3a1820701bdaeca58c8d40a7f112d771",
      "transactionIndex": "0xe",
      "blockHash": "0x75a82a0ccd4f8c5e73a4047524b069879d453fbcb27a1e9a6c617e3a03ae696a",
      "blockNumber": "0x2f84e66",
      "gasUsed": "0x2fcec",
      "effectiveGasPrice": "0x4c07d0a3b",
      "from": "0x81d48d2c5d0744e8ef7a5c35cdceb0a27a1c707b",
      "to": "0x4d82b6e528d3c2e1a3592e14863ec95eaef4ff85",
      "contractAddress": null
    },
    {
      "status": "0x1",
      "cumulativeGasUsed": "0x2edfe7",
      "logs": [
        {
          "address": "0x4d82b6e528d3c2e1a3592e14863ec95eaef4ff85",
          "topics": [
            "0xc3d58168c5ae7397731d063d5bbf3d657854427343f4c083240f7aacaa2d0f62",
            "0x000000000000000000000000962aba0a590981cf9c5b336ac34922c82f203165",
            "0x00000000000000000000000081d48d2c5d0744e8ef7a5c35cdceb0a27a1c707b",
            "0x000000000000000000000000962aba0a590981cf9c5b336ac34922c82f203165"
          ],
          "data": "0x00000000000000000000000000000000000000000000000000000000000000060000000000000000000000000000000000000000000000000000000000000bb8",
          "blockHash": "0x75a82a0ccd4f8c5e73a4047524b069879d453fbcb27a1e9a6c617e3a03ae696a",
          "blockNumber": "0x2f84e66",
          "blockTimestamp": "0x6a468246",
          "transactionHash": "0x5a141999ad2e5d57c726d55a319ea10665cbb1a7681199a2b9925632622a6f96",
          "transactionIndex": "0xf",
          "logIndex": "0x21",
          "removed": false
        },
        {
          "address": "0x962aba0a590981cf9c5b336ac34922c82f203165",
          "topics": [
            "0x32951ff170f53e2a0d7160f9c1da9bafcf35b5003abc23b8b87fee8f1c5d8b25",
            "0x0000000000000000000000000000000000000000000000000000000000000006",
            "0x0000000000000000000000000000000000000000000000000000000000000006"
          ],
          "data": "0x000000000000000000000000000000000000000000000002b5e3af16b18800000000000000000000000000000000000000000000000000000000000000000bb8",
          "blockHash": "0x75a82a0ccd4f8c5e73a4047524b069879d453fbcb27a1e9a6c617e3a03ae696a",
          "blockNumber": "0x2f84e66",
          "blockTimestamp": "0x6a468246",
          "transactionHash": "0x5a141999ad2e5d57c726d55a319ea10665cbb1a7681199a2b9925632622a6f96",
          "transactionIndex": "0xf",
          "logIndex": "0x22",
          "removed": false
        }
      ],
      "logsBloom": "0x00000000400000000000000000000000000000000000000000000000000000000000000000000000000000000000000000000000000400000002000000003000000000000000000000000000000000000000000000000000001000000004000000000000000000010000000000200000000000000000000000000000000000000000000400000000000000000000000000000000000000000000000000000000000000000000000000000000000000000001000000000000000000080000000000000000000000000000000000000000000000000009000000000800400000000680000000000000000000000000000000000000000000000200080000000000",
      "type": "0x2",
      "transactionHash": "0x5a141999ad2e5d57c726d55a319ea10665cbb1a7681199a2b9925632622a6f96",
      "transactionIndex": "0xf",
      "blockHash": "0x75a82a0ccd4f8c5e73a4047524b069879d453fbcb27a1e9a6c617e3a03ae696a",
      "blockNumber": "0x2f84e66",
      "gasUsed": "0x26f62",
      "effectiveGasPrice": "0x4c07d0a3b",
      "from": "0x81d48d2c5d0744e8ef7a5c35cdceb0a27a1c707b",
      "to": "0x962aba0a590981cf9c5b336ac34922c82f203165",
      "contractAddress": null
    },
    {
      "status": "0x1",
      "cumulativeGasUsed": "0x31dcf7",
      "logs": [
        {
          "address": "0x4d82b6e528d3c2e1a3592e14863ec95eaef4ff85",
          "topics": [
            "0xc3d58168c5ae7397731d063d5bbf3d657854427343f4c083240f7aacaa2d0f62",
            "0x00000000000000000000000081d48d2c5d0744e8ef7a5c35cdceb0a27a1c707b",
            "0x0000000000000000000000000000000000000000000000000000000000000000",
            "0x00000000000000000000000081d48d2c5d0744e8ef7a5c35cdceb0a27a1c707b"
          ],
          "data": "0x00000000000000000000000000000000000000000000000000000000000000070000000000000000000000000000000000000000000000000000000000001770",
          "blockHash": "0x75a82a0ccd4f8c5e73a4047524b069879d453fbcb27a1e9a6c617e3a03ae696a",
          "blockNumber": "0x2f84e66",
          "blockTimestamp": "0x6a468246",
          "transactionHash": "0x17b43fe558982f90ed7cfd80c3cb16f9f4446419bd0deee1c86c089ca8271fc5",
          "transactionIndex": "0x10",
          "logIndex": "0x23",
          "removed": false
        },
        {
          "address": "0x4d82b6e528d3c2e1a3592e14863ec95eaef4ff85",
          "topics": [
            "0x5d55a7ca4b923b36b70eb909992eb2bf005bf58b77d4cfb245faa8cb6b36d884",
            "0x0000000000000000000000000000000000000000000000000000000000000007"
          ],
          "data": "0x000000000000000000000000000000000000000000000000000000000000006000000000000000000000000000000000000000000000000000000000000000a00000000000000000000000000000000000000000000000000000000000001770000000000000000000000000000000000000000000000000000000000000001941746c61732054726164652052656365697661626c6573204200000000000000000000000000000000000000000000000000000000000000000000000000000e707269766174652d637265646974000000000000000000000000000000000000",
          "blockHash": "0x75a82a0ccd4f8c5e73a4047524b069879d453fbcb27a1e9a6c617e3a03ae696a",
          "blockNumber": "0x2f84e66",
          "blockTimestamp": "0x6a468246",
          "transactionHash": "0x17b43fe558982f90ed7cfd80c3cb16f9f4446419bd0deee1c86c089ca8271fc5",
          "transactionIndex": "0x10",
          "logIndex": "0x24",
          "removed": false
        }
      ],
      "logsBloom": "0x00020000000000000000000000000000000000000000000000000000000000000000000000000000000000000000000000001000000000000002000000002000000020000000000000000000000000000000000000000000001000000000000000000000020200000000000000200800000000000000000000000000000000000000000000000000000000000000000000000000000000000000000000000000000000000000000000000008000000000000000000000000000000000000000000000000000000000000000000000000000000000009000000000100000020000200000000000000000000000000000000000000000000000200080000000000",
      "type": "0x2",
      "transactionHash": "0x17b43fe558982f90ed7cfd80c3cb16f9f4446419bd0deee1c86c089ca8271fc5",
      "transactionIndex": "0x10",
      "blockHash": "0x75a82a0ccd4f8c5e73a4047524b069879d453fbcb27a1e9a6c617e3a03ae696a",
      "blockNumber": "0x2f84e66",
      "gasUsed": "0x2fd10",
      "effectiveGasPrice": "0x4c07d0a3b",
      "from": "0x81d48d2c5d0744e8ef7a5c35cdceb0a27a1c707b",
      "to": "0x4d82b6e528d3c2e1a3592e14863ec95eaef4ff85",
      "contractAddress": null
    },
    {
      "status": "0x1",
      "cumulativeGasUsed": "0x344c59",
      "logs": [
        {
          "address": "0x4d82b6e528d3c2e1a3592e14863ec95eaef4ff85",
          "topics": [
            "0xc3d58168c5ae7397731d063d5bbf3d657854427343f4c083240f7aacaa2d0f62",
            "0x000000000000000000000000962aba0a590981cf9c5b336ac34922c82f203165",
            "0x00000000000000000000000081d48d2c5d0744e8ef7a5c35cdceb0a27a1c707b",
            "0x000000000000000000000000962aba0a590981cf9c5b336ac34922c82f203165"
          ],
          "data": "0x00000000000000000000000000000000000000000000000000000000000000070000000000000000000000000000000000000000000000000000000000000e10",
          "blockHash": "0x75a82a0ccd4f8c5e73a4047524b069879d453fbcb27a1e9a6c617e3a03ae696a",
          "blockNumber": "0x2f84e66",
          "blockTimestamp": "0x6a468246",
          "transactionHash": "0xe1bcc637e86ab06db69927f55939d7e669d799abbd540d8e785e5d491ebdcbd6",
          "transactionIndex": "0x11",
          "logIndex": "0x25",
          "removed": false
        },
        {
          "address": "0x962aba0a590981cf9c5b336ac34922c82f203165",
          "topics": [
            "0x32951ff170f53e2a0d7160f9c1da9bafcf35b5003abc23b8b87fee8f1c5d8b25",
            "0x0000000000000000000000000000000000000000000000000000000000000007",
            "0x0000000000000000000000000000000000000000000000000000000000000007"
          ],
          "data": "0x0000000000000000000000000000000000000000000000015af1d78b58c400000000000000000000000000000000000000000000000000000000000000000e10",
          "blockHash": "0x75a82a0ccd4f8c5e73a4047524b069879d453fbcb27a1e9a6c617e3a03ae696a",
          "blockNumber": "0x2f84e66",
          "blockTimestamp": "0x6a468246",
          "transactionHash": "0xe1bcc637e86ab06db69927f55939d7e669d799abbd540d8e785e5d491ebdcbd6",
          "transactionIndex": "0x11",
          "logIndex": "0x26",
          "removed": false
        }
      ],
      "logsBloom": "0x00000000400000000000000000000000000000000000000000000000000000000000000000000000000000000000000000001000000000000002000000003000000020000000000000000000000000000000000000000000001000000004000000000000000000010000000000200000000000000000000000000000000000000000000000000000000000000000000000000000000000000000000000000000000000000000000000000000000000000001000000000000000000000000000000000000000000000000000000000000000000000009000000000900400000000680000000000000000000000000000000000000000000000200080000000000",
      "type": "0x2",
      "transactionHash": "0xe1bcc637e86ab06db69927f55939d7e669d799abbd540d8e785e5d491ebdcbd6",
      "transactionIndex": "0x11",
      "blockHash": "0x75a82a0ccd4f8c5e73a4047524b069879d453fbcb27a1e9a6c617e3a03ae696a",
      "blockNumber": "0x2f84e66",
      "gasUsed": "0x26f62",
      "effectiveGasPrice": "0x4c07d0a3b",
      "from": "0x81d48d2c5d0744e8ef7a5c35cdceb0a27a1c707b",
      "to": "0x962aba0a590981cf9c5b336ac34922c82f203165",
      "contractAddress": null
    },
    {
      "status": "0x1",
      "cumulativeGasUsed": "0x374915",
      "logs": [
        {
          "address": "0x4d82b6e528d3c2e1a3592e14863ec95eaef4ff85",
          "topics": [
            "0xc3d58168c5ae7397731d063d5bbf3d657854427343f4c083240f7aacaa2d0f62",
            "0x00000000000000000000000081d48d2c5d0744e8ef7a5c35cdceb0a27a1c707b",
            "0x0000000000000000000000000000000000000000000000000000000000000000",
            "0x00000000000000000000000081d48d2c5d0744e8ef7a5c35cdceb0a27a1c707b"
          ],
          "data": "0x00000000000000000000000000000000000000000000000000000000000000080000000000000000000000000000000000000000000000000000000000000bb8",
          "blockHash": "0x75a82a0ccd4f8c5e73a4047524b069879d453fbcb27a1e9a6c617e3a03ae696a",
          "blockNumber": "0x2f84e66",
          "blockTimestamp": "0x6a468246",
          "transactionHash": "0x7f509a11d15eca8b55062d23cd2c549bd38684fd35132039606e8ea3732666d3",
          "transactionIndex": "0x12",
          "logIndex": "0x27",
          "removed": false
        },
        {
          "address": "0x4d82b6e528d3c2e1a3592e14863ec95eaef4ff85",
          "topics": [
            "0x5d55a7ca4b923b36b70eb909992eb2bf005bf58b77d4cfb245faa8cb6b36d884",
            "0x0000000000000000000000000000000000000000000000000000000000000008"
          ],
          "data": "0x000000000000000000000000000000000000000000000000000000000000006000000000000000000000000000000000000000000000000000000000000000a00000000000000000000000000000000000000000000000000000000000000bb80000000000000000000000000000000000000000000000000000000000000017446f636b73696465204c6f67697374696373205061726b000000000000000000000000000000000000000000000000000000000000000000000000000000000b7265616c2d657374617465000000000000000000000000000000000000000000",
          "blockHash": "0x75a82a0ccd4f8c5e73a4047524b069879d453fbcb27a1e9a6c617e3a03ae696a",
          "blockNumber": "0x2f84e66",
          "blockTimestamp": "0x6a468246",
          "transactionHash": "0x7f509a11d15eca8b55062d23cd2c549bd38684fd35132039606e8ea3732666d3",
          "transactionIndex": "0x12",
          "logIndex": "0x28",
          "removed": false
        }
      ],
      "logsBloom": "0x00020000000000000000000000000000000000000000000000000000000000000000000000000000000000000000000000000000000080000002000000002000000000000000000000000000000000000000000000000000001000000000000000000000020200000000000000200800000000000000000000000000000000000080000000000000000000000000000000000000000000000000000000000000000000000000000000000008000000000000000000000000000000000000000040000000000000000000000000000000000000000009000000000000000020000200000000000000000000000000000000000000000000000200080000000000",
      "type": "0x2",
      "transactionHash": "0x7f509a11d15eca8b55062d23cd2c549bd38684fd35132039606e8ea3732666d3",
      "transactionIndex": "0x12",
      "blockHash": "0x75a82a0ccd4f8c5e73a4047524b069879d453fbcb27a1e9a6c617e3a03ae696a",
      "blockNumber": "0x2f84e66",
      "gasUsed": "0x2fcbc",
      "effectiveGasPrice": "0x4c07d0a3b",
      "from": "0x81d48d2c5d0744e8ef7a5c35cdceb0a27a1c707b",
      "to": "0x4d82b6e528d3c2e1a3592e14863ec95eaef4ff85",
      "contractAddress": null
    },
    {
      "status": "0x1",
      "cumulativeGasUsed": "0x39b877",
      "logs": [
        {
          "address": "0x4d82b6e528d3c2e1a3592e14863ec95eaef4ff85",
          "topics": [
            "0xc3d58168c5ae7397731d063d5bbf3d657854427343f4c083240f7aacaa2d0f62",
            "0x000000000000000000000000962aba0a590981cf9c5b336ac34922c82f203165",
            "0x00000000000000000000000081d48d2c5d0744e8ef7a5c35cdceb0a27a1c707b",
            "0x000000000000000000000000962aba0a590981cf9c5b336ac34922c82f203165"
          ],
          "data": "0x00000000000000000000000000000000000000000000000000000000000000080000000000000000000000000000000000000000000000000000000000000708",
          "blockHash": "0x75a82a0ccd4f8c5e73a4047524b069879d453fbcb27a1e9a6c617e3a03ae696a",
          "blockNumber": "0x2f84e66",
          "blockTimestamp": "0x6a468246",
          "transactionHash": "0xb2698ae66a4043639b8704edb2d03eeb5fa6a120a7aa02dd1e8e0537e3ce9652",
          "transactionIndex": "0x13",
          "logIndex": "0x29",
          "removed": false
        },
        {
          "address": "0x962aba0a590981cf9c5b336ac34922c82f203165",
          "topics": [
            "0x32951ff170f53e2a0d7160f9c1da9bafcf35b5003abc23b8b87fee8f1c5d8b25",
            "0x0000000000000000000000000000000000000000000000000000000000000008",
            "0x0000000000000000000000000000000000000000000000000000000000000008"
          ],
          "data": "0x0000000000000000000000000000000000000000000000025146828033f300000000000000000000000000000000000000000000000000000000000000000708",
          "blockHash": "0x75a82a0ccd4f8c5e73a4047524b069879d453fbcb27a1e9a6c617e3a03ae696a",
          "blockNumber": "0x2f84e66",
          "blockTimestamp": "0x6a468246",
          "transactionHash": "0xb2698ae66a4043639b8704edb2d03eeb5fa6a120a7aa02dd1e8e0537e3ce9652",
          "transactionIndex": "0x13",
          "logIndex": "0x2a",
          "removed": false
        }
      ],
      "logsBloom": "0x00000000400000000000000000000000000000000000000000000000000000000000000000000000000000000000000000000000000080000002000000003000000000000000000000000000000000000000000000000000001000000004000000000000000000010000000000200000000000000000000000000000000000000080000000000000000000000000000000000000000000000000000000000000000000000000000000000000000000000001000000000000000000000000000040000000000000000000000000000000000000000009000000000800400000000680000000000000000000000000000000000000000000000200080000000000",
      "type": "0x2",
      "transactionHash": "0xb2698ae66a4043639b8704edb2d03eeb5fa6a120a7aa02dd1e8e0537e3ce9652",
      "transactionIndex": "0x13",
      "blockHash": "0x75a82a0ccd4f8c5e73a4047524b069879d453fbcb27a1e9a6c617e3a03ae696a",
      "blockNumber": "0x2f84e66",
      "gasUsed": "0x26f62",
      "effectiveGasPrice": "0x4c07d0a3b",
      "from": "0x81d48d2c5d0744e8ef7a5c35cdceb0a27a1c707b",
      "to": "0x962aba0a590981cf9c5b336ac34922c82f203165",
      "contractAddress": null
    },
    {
      "status": "0x1",
      "cumulativeGasUsed": "0x3cb527",
      "logs": [
        {
          "address": "0x4d82b6e528d3c2e1a3592e14863ec95eaef4ff85",
          "topics": [
            "0xc3d58168c5ae7397731d063d5bbf3d657854427343f4c083240f7aacaa2d0f62",
            "0x00000000000000000000000081d48d2c5d0744e8ef7a5c35cdceb0a27a1c707b",
            "0x0000000000000000000000000000000000000000000000000000000000000000",
            "0x00000000000000000000000081d48d2c5d0744e8ef7a5c35cdceb0a27a1c707b"
          ],
          "data": "0x000000000000000000000000000000000000000000000000000000000000000900000000000000000000000000000000000000000000000000000000000007d0",
          "blockHash": "0x75a82a0ccd4f8c5e73a4047524b069879d453fbcb27a1e9a6c617e3a03ae696a",
          "blockNumber": "0x2f84e66",
          "blockTimestamp": "0x6a468246",
          "transactionHash": "0x315c2fa88a18730a49ad2db15ccb6499ec2da6dcaba3877d6214f5f00b16c2e3",
          "transactionIndex": "0x14",
          "logIndex": "0x2b",
          "removed": false
        },
        {
          "address": "0x4d82b6e528d3c2e1a3592e14863ec95eaef4ff85",
          "topics": [
            "0x5d55a7ca4b923b36b70eb909992eb2bf005bf58b77d4cfb245faa8cb6b36d884",
            "0x0000000000000000000000000000000000000000000000000000000000000009"
          ],
          "data": "0x000000000000000000000000000000000000000000000000000000000000006000000000000000000000000000000000000000000000000000000000000000a000000000000000000000000000000000000000000000000000000000000007d0000000000000000000000000000000000000000000000000000000000000001753696c7665722042756c6c696f6e205661756c74202332000000000000000000000000000000000000000000000000000000000000000000000000000000000b636f6d6d6f646974696573000000000000000000000000000000000000000000",
          "blockHash": "0x75a82a0ccd4f8c5e73a4047524b069879d453fbcb27a1e9a6c617e3a03ae696a",
          "blockNumber": "0x2f84e66",
          "blockTimestamp": "0x6a468246",
          "transactionHash": "0x315c2fa88a18730a49ad2db15ccb6499ec2da6dcaba3877d6214f5f00b16c2e3",
          "transactionIndex": "0x14",
          "logIndex": "0x2c",
          "removed": false
        }
      ],
      "logsBloom": "0x00020000000000000000000000000000000000000000000000000000000000000000000000000000000000000000000000000000000000000002000000202000000000000000000000000000000000000000000000000000001000000000000000000000020200000000000000200800000000000000000000000000000000000000000000000000000000000000000000001000000000000000000000000000000000000000000000000008000000000000000000000000000000000000000000000000000000000000000000000000000000000009000000000000000020000200000000000000000000000000000000000000000000000200080000800000",
      "type": "0x2",
      "transactionHash": "0x315c2fa88a18730a49ad2db15ccb6499ec2da6dcaba3877d6214f5f00b16c2e3",
      "transactionIndex": "0x14",
      "blockHash": "0x75a82a0ccd4f8c5e73a4047524b069879d453fbcb27a1e9a6c617e3a03ae696a",
      "blockNumber": "0x2f84e66",
      "gasUsed": "0x2fcb0",
      "effectiveGasPrice": "0x4c07d0a3b",
      "from": "0x81d48d2c5d0744e8ef7a5c35cdceb0a27a1c707b",
      "to": "0x4d82b6e528d3c2e1a3592e14863ec95eaef4ff85",
      "contractAddress": null
    },
    {
      "status": "0x1",
      "cumulativeGasUsed": "0x3f2489",
      "logs": [
        {
          "address": "0x4d82b6e528d3c2e1a3592e14863ec95eaef4ff85",
          "topics": [
            "0xc3d58168c5ae7397731d063d5bbf3d657854427343f4c083240f7aacaa2d0f62",
            "0x000000000000000000000000962aba0a590981cf9c5b336ac34922c82f203165",
            "0x00000000000000000000000081d48d2c5d0744e8ef7a5c35cdceb0a27a1c707b",
            "0x000000000000000000000000962aba0a590981cf9c5b336ac34922c82f203165"
          ],
          "data": "0x000000000000000000000000000000000000000000000000000000000000000900000000000000000000000000000000000000000000000000000000000004b0",
          "blockHash": "0x75a82a0ccd4f8c5e73a4047524b069879d453fbcb27a1e9a6c617e3a03ae696a",
          "blockNumber": "0x2f84e66",
          "blockTimestamp": "0x6a468246",
          "transactionHash": "0xba200dd4324099ff88e2f3ca4e68e969d7929f71b25b9bfb6e15890a100dc6bc",
          "transactionIndex": "0x15",
          "logIndex": "0x2d",
          "removed": false
        },
        {
          "address": "0x962aba0a590981cf9c5b336ac34922c82f203165",
          "topics": [
            "0x32951ff170f53e2a0d7160f9c1da9bafcf35b5003abc23b8b87fee8f1c5d8b25",
            "0x0000000000000000000000000000000000000000000000000000000000000009",
            "0x0000000000000000000000000000000000000000000000000000000000000009"
          ],
          "data": "0x0000000000000000000000000000000000000000000000019801c83b6c7c000000000000000000000000000000000000000000000000000000000000000004b0",
          "blockHash": "0x75a82a0ccd4f8c5e73a4047524b069879d453fbcb27a1e9a6c617e3a03ae696a",
          "blockNumber": "0x2f84e66",
          "blockTimestamp": "0x6a468246",
          "transactionHash": "0xba200dd4324099ff88e2f3ca4e68e969d7929f71b25b9bfb6e15890a100dc6bc",
          "transactionIndex": "0x15",
          "logIndex": "0x2e",
          "removed": false
        }
      ],
      "logsBloom": "0x00000000400000000000000000000000000000000000000000000000000000000000000000000000000000000000000000000000000000000002000000203000000000000000000000000000000000000000000000000000001000000004000000000000000000010000000000200000000000000000000000000000000000000000000000000000000000000000000000001000000000000000000000000000000000000000000000000000000000000001000000000000000000000000000000000000000000000000000000000000000000000009000000000800400000000680000000000000000000000000000000000000000000000200080000800000",
      "type": "0x2",
      "transactionHash": "0xba200dd4324099ff88e2f3ca4e68e969d7929f71b25b9bfb6e15890a100dc6bc",
      "transactionIndex": "0x15",
      "blockHash": "0x75a82a0ccd4f8c5e73a4047524b069879d453fbcb27a1e9a6c617e3a03ae696a",
      "blockNumber": "0x2f84e66",
      "gasUsed": "0x26f62",
      "effectiveGasPrice": "0x4c07d0a3b",
      "from": "0x81d48d2c5d0744e8ef7a5c35cdceb0a27a1c707b",
      "to": "0x962aba0a590981cf9c5b336ac34922c82f203165",
      "contractAddress": null
    },
    {
      "status": "0x1",
      "cumulativeGasUsed": "0x442d8d",
      "logs": [
        {
          "address": "0x4d82b6e528d3c2e1a3592e14863ec95eaef4ff85",
          "topics": [
            "0xc3d58168c5ae7397731d063d5bbf3d657854427343f4c083240f7aacaa2d0f62",
            "0x00000000000000000000000081d48d2c5d0744e8ef7a5c35cdceb0a27a1c707b",
            "0x0000000000000000000000000000000000000000000000000000000000000000",
            "0x00000000000000000000000081d48d2c5d0744e8ef7a5c35cdceb0a27a1c707b"
          ],
          "data": "0x000000000000000000000000000000000000000000000000000000000000000a0000000000000000000000000000000000000000000000000000000000001770",
          "blockHash": "0x75a82a0ccd4f8c5e73a4047524b069879d453fbcb27a1e9a6c617e3a03ae696a",
          "blockNumber": "0x2f84e66",
          "blockTimestamp": "0x6a468246",
          "transactionHash": "0x714ebf94ffcdcc0f129f849a1b5f1c4827ab1d3bc0557e59a2b3c18305f6b660",
          "transactionIndex": "0x17",
          "logIndex": "0x30",
          "removed": false
        },
        {
          "address": "0x4d82b6e528d3c2e1a3592e14863ec95eaef4ff85",
          "topics": [
            "0x5d55a7ca4b923b36b70eb909992eb2bf005bf58b77d4cfb245faa8cb6b36d884",
            "0x000000000000000000000000000000000000000000000000000000000000000a"
          ],
          "data": "0x000000000000000000000000000000000000000000000000000000000000006000000000000000000000000000000000000000000000000000000000000000a00000000000000000000000000000000000000000000000000000000000001770000000000000000000000000000000000000000000000000000000000000001b476f6c64205374616e64617264204f66667365742042756e646c6500000000000000000000000000000000000000000000000000000000000000000000000006636172626f6e0000000000000000000000000000000000000000000000000000",
          "blockHash": "0x75a82a0ccd4f8c5e73a4047524b069879d453fbcb27a1e9a6c617e3a03ae696a",
          "blockNumber": "0x2f84e66",
          "blockTimestamp": "0x6a468246",
          "transactionHash": "0x714ebf94ffcdcc0f129f849a1b5f1c4827ab1d3bc0557e59a2b3c18305f6b660",
          "transactionIndex": "0x17",
          "logIndex": "0x31",
          "removed": false
        }
      ],
      "logsBloom": "0x00020000000000000000000000000000000000000000000000000000000000000000000000000000000000000000000000000000040000000022000000002000000000000000000000000000000000000000000000000000001000000000000000000000020200000000000000200800000000000000000000000000000000000000000000000000010000000000000000000000000000000000000000000000000000000000000000000008000000000000000000000000000000000000000000000000000000000000000000000000000000000009000000000000000020000200000000000000000000000000000000000000000000000200080000000000",
      "type": "0x2",
      "transactionHash": "0x714ebf94ffcdcc0f129f849a1b5f1c4827ab1d3bc0557e59a2b3c18305f6b660",
      "transactionIndex": "0x17",
      "blockHash": "0x75a82a0ccd4f8c5e73a4047524b069879d453fbcb27a1e9a6c617e3a03ae696a",
      "blockNumber": "0x2f84e66",
      "gasUsed": "0x2fce0",
      "effectiveGasPrice": "0x4c07d0a3b",
      "from": "0x81d48d2c5d0744e8ef7a5c35cdceb0a27a1c707b",
      "to": "0x4d82b6e528d3c2e1a3592e14863ec95eaef4ff85",
      "contractAddress": null
    },
    {
      "status": "0x1",
      "cumulativeGasUsed": "0x469ce3",
      "logs": [
        {
          "address": "0x4d82b6e528d3c2e1a3592e14863ec95eaef4ff85",
          "topics": [
            "0xc3d58168c5ae7397731d063d5bbf3d657854427343f4c083240f7aacaa2d0f62",
            "0x000000000000000000000000962aba0a590981cf9c5b336ac34922c82f203165",
            "0x00000000000000000000000081d48d2c5d0744e8ef7a5c35cdceb0a27a1c707b",
            "0x000000000000000000000000962aba0a590981cf9c5b336ac34922c82f203165"
          ],
          "data": "0x000000000000000000000000000000000000000000000000000000000000000a0000000000000000000000000000000000000000000000000000000000000e10",
          "blockHash": "0x75a82a0ccd4f8c5e73a4047524b069879d453fbcb27a1e9a6c617e3a03ae696a",
          "blockNumber": "0x2f84e66",
          "blockTimestamp": "0x6a468246",
          "transactionHash": "0x6fb071d9aa76df3c2fa0281fea1f4e95a37839dc196ed1fe1c579e0f5ec03602",
          "transactionIndex": "0x18",
          "logIndex": "0x32",
          "removed": false
        },
        {
          "address": "0x962aba0a590981cf9c5b336ac34922c82f203165",
          "topics": [
            "0x32951ff170f53e2a0d7160f9c1da9bafcf35b5003abc23b8b87fee8f1c5d8b25",
            "0x000000000000000000000000000000000000000000000000000000000000000a",
            "0x000000000000000000000000000000000000000000000000000000000000000a"
          ],
          "data": "0x000000000000000000000000000000000000000000000000214e8348c4f000000000000000000000000000000000000000000000000000000000000000000e10",
          "blockHash": "0x75a82a0ccd4f8c5e73a4047524b069879d453fbcb27a1e9a6c617e3a03ae696a",
          "blockNumber": "0x2f84e66",
          "blockTimestamp": "0x6a468246",
          "transactionHash": "0x6fb071d9aa76df3c2fa0281fea1f4e95a37839dc196ed1fe1c579e0f5ec03602",
          "transactionIndex": "0x18",
          "logIndex": "0x33",
          "removed": false
        }
      ],
      "logsBloom": "0x00000000400000000000000000000000000000000000000000000000000000000000000000000000000000000000000000000000040000000022000000003000000000000000000000000000000000000000000000000000001000000004000000000000000000010000000000200000000000000000000000000000000000000000000000000000010000000000000000000000000000000000000000000000000000000000000000000000000000000001000000000000000000000000000000000000000000000000000000000000000000000009000000000800400000000680000000000000000000000000000000000000000000000200080000000000",
      "type": "0x2",
      "transactionHash": "0x6fb071d9aa76df3c2fa0281fea1f4e95a37839dc196ed1fe1c579e0f5ec03602",
      "transactionIndex": "0x18",
      "blockHash": "0x75a82a0ccd4f8c5e73a4047524b069879d453fbcb27a1e9a6c617e3a03ae696a",
      "blockNumber": "0x2f84e66",
      "gasUsed": "0x26f56",
      "effectiveGasPrice": "0x4c07d0a3b",
      "from": "0x81d48d2c5d0744e8ef7a5c35cdceb0a27a1c707b",
      "to": "0x962aba0a590981cf9c5b336ac34922c82f203165",
      "contractAddress": null
    },
    {
      "status": "0x1",
      "cumulativeGasUsed": "0x499993",
      "logs": [
        {
          "address": "0x4d82b6e528d3c2e1a3592e14863ec95eaef4ff85",
          "topics": [
            "0xc3d58168c5ae7397731d063d5bbf3d657854427343f4c083240f7aacaa2d0f62",
            "0x00000000000000000000000081d48d2c5d0744e8ef7a5c35cdceb0a27a1c707b",
            "0x0000000000000000000000000000000000000000000000000000000000000000",
            "0x00000000000000000000000081d48d2c5d0744e8ef7a5c35cdceb0a27a1c707b"
          ],
          "data": "0x000000000000000000000000000000000000000000000000000000000000000b0000000000000000000000000000000000000000000000000000000000001388",
          "blockHash": "0x75a82a0ccd4f8c5e73a4047524b069879d453fbcb27a1e9a6c617e3a03ae696a",
          "blockNumber": "0x2f84e66",
          "blockTimestamp": "0x6a468246",
          "transactionHash": "0xb7ae8808928479c74a131e45f2945521f862295862fa23cc081b9f0d49856bea",
          "transactionIndex": "0x19",
          "logIndex": "0x34",
          "removed": false
        },
        {
          "address": "0x4d82b6e528d3c2e1a3592e14863ec95eaef4ff85",
          "topics": [
            "0x5d55a7ca4b923b36b70eb909992eb2bf005bf58b77d4cfb245faa8cb6b36d884",
            "0x000000000000000000000000000000000000000000000000000000000000000b"
          ],
          "data": "0x000000000000000000000000000000000000000000000000000000000000006000000000000000000000000000000000000000000000000000000000000000a000000000000000000000000000000000000000000000000000000000000013880000000000000000000000000000000000000000000000000000000000000018536f6c6172204661726d20426173696e2d32204e6f7465730000000000000000000000000000000000000000000000000000000000000000000000000000000e696e667261737472756374757265000000000000000000000000000000000000",
          "blockHash": "0x75a82a0ccd4f8c5e73a4047524b069879d453fbcb27a1e9a6c617e3a03ae696a",
          "blockNumber": "0x2f84e66",
          "blockTimestamp": "0x6a468246",
          "transactionHash": "0xb7ae8808928479c74a131e45f2945521f862295862fa23cc081b9f0d49856bea",
          "transactionIndex": "0x19",
          "logIndex": "0x35",
          "removed": false
        }
      ],
      "logsBloom": "0x00020000000000000000004000000000000000000000000000000000000000000000000000000000000000000000000000000000000000000002000000002000000000000000000000000000000000000000000000000000001000000000000000000000020200000000000000200800000000000000000000000000000000000000000000000000000000000000000000000000000000000000000000000000000000000000000000000008000000000000000000000000000000000000000000000000000000000000000000000000002000000009000000000000000020000200000000000000000000000000000000000000000000040200080000000000",
      "type": "0x2",
      "transactionHash": "0xb7ae8808928479c74a131e45f2945521f862295862fa23cc081b9f0d49856bea",
      "transactionIndex": "0x19",
      "blockHash": "0x75a82a0ccd4f8c5e73a4047524b069879d453fbcb27a1e9a6c617e3a03ae696a",
      "blockNumber": "0x2f84e66",
      "gasUsed": "0x2fcb0",
      "effectiveGasPrice": "0x4c07d0a3b",
      "from": "0x81d48d2c5d0744e8ef7a5c35cdceb0a27a1c707b",
      "to": "0x4d82b6e528d3c2e1a3592e14863ec95eaef4ff85",
      "contractAddress": null
    },
    {
      "status": "0x1",
      "cumulativeGasUsed": "0x4c08f5",
      "logs": [
        {
          "address": "0x4d82b6e528d3c2e1a3592e14863ec95eaef4ff85",
          "topics": [
            "0xc3d58168c5ae7397731d063d5bbf3d657854427343f4c083240f7aacaa2d0f62",
            "0x000000000000000000000000962aba0a590981cf9c5b336ac34922c82f203165",
            "0x00000000000000000000000081d48d2c5d0744e8ef7a5c35cdceb0a27a1c707b",
            "0x000000000000000000000000962aba0a590981cf9c5b336ac34922c82f203165"
          ],
          "data": "0x000000000000000000000000000000000000000000000000000000000000000b0000000000000000000000000000000000000000000000000000000000000bb8",
          "blockHash": "0x75a82a0ccd4f8c5e73a4047524b069879d453fbcb27a1e9a6c617e3a03ae696a",
          "blockNumber": "0x2f84e66",
          "blockTimestamp": "0x6a468246",
          "transactionHash": "0xea636fcf4ec38a0bc3cb007fd2dae97bde73a78daed96f03f3d5b41eb5baa047",
          "transactionIndex": "0x1a",
          "logIndex": "0x36",
          "removed": false
        },
        {
          "address": "0x962aba0a590981cf9c5b336ac34922c82f203165",
          "topics": [
            "0x32951ff170f53e2a0d7160f9c1da9bafcf35b5003abc23b8b87fee8f1c5d8b25",
            "0x000000000000000000000000000000000000000000000000000000000000000b",
            "0x000000000000000000000000000000000000000000000000000000000000000b"
          ],
          "data": "0x0000000000000000000000000000000000000000000000043d3e35adbb8c00000000000000000000000000000000000000000000000000000000000000000bb8",
          "blockHash": "0x75a82a0ccd4f8c5e73a4047524b069879d453fbcb27a1e9a6c617e3a03ae696a",
          "blockNumber": "0x2f84e66",
          "blockTimestamp": "0x6a468246",
          "transactionHash": "0xea636fcf4ec38a0bc3cb007fd2dae97bde73a78daed96f03f3d5b41eb5baa047",
          "transactionIndex": "0x1a",
          "logIndex": "0x37",
          "removed": false
        }
      ],
      "logsBloom": "0x00000000400000000000004000000000000000000000000000000000000000000000000000000000000000000000000000000000000000000002000000003000000000000000000000000000000000000000000000000000001000000004000000000000000000010000000000200000000000000000000000000000000000000000000000000000000000000000000000000000000000000000000000000000000000000000000000000000000000000001000000000000000000000000000000000000000000000000000000000000002000000009000000000800400000000680000000000000000000000000000000000000000000040200080000000000",
      "type": "0x2",
      "transactionHash": "0xea636fcf4ec38a0bc3cb007fd2dae97bde73a78daed96f03f3d5b41eb5baa047",
      "transactionIndex": "0x1a",
      "blockHash": "0x75a82a0ccd4f8c5e73a4047524b069879d453fbcb27a1e9a6c617e3a03ae696a",
      "blockNumber": "0x2f84e66",
      "gasUsed": "0x26f62",
      "effectiveGasPrice": "0x4c07d0a3b",
      "from": "0x81d48d2c5d0744e8ef7a5c35cdceb0a27a1c707b",
      "to": "0x962aba0a590981cf9c5b336ac34922c82f203165",
      "contractAddress": null
    },
    {
      "status": "0x1",
      "cumulativeGasUsed": "0x4f05a5",
      "logs": [
        {
          "address": "0x4d82b6e528d3c2e1a3592e14863ec95eaef4ff85",
          "topics": [
            "0xc3d58168c5ae7397731d063d5bbf3d657854427343f4c083240f7aacaa2d0f62",
            "0x00000000000000000000000081d48d2c5d0744e8ef7a5c35cdceb0a27a1c707b",
            "0x0000000000000000000000000000000000000000000000000000000000000000",
            "0x00000000000000000000000081d48d2c5d0744e8ef7a5c35cdceb0a27a1c707b"
          ],
          "data": "0x000000000000000000000000000000000000000000000000000000000000000c00000000000000000000000000000000000000000000000000000000000009c4",
          "blockHash": "0x75a82a0ccd4f8c5e73a4047524b069879d453fbcb27a1e9a6c617e3a03ae696a",
          "blockNumber": "0x2f84e66",
          "blockTimestamp": "0x6a468246",
          "transactionHash": "0x694b879c6f6aff80d06803d733570f1986b6f426d44480d67166119990ff1bfa",
          "transactionIndex": "0x1b",
          "logIndex": "0x38",
          "removed": false
        },
        {
          "address": "0x4d82b6e528d3c2e1a3592e14863ec95eaef4ff85",
          "topics": [
            "0x5d55a7ca4b923b36b70eb909992eb2bf005bf58b77d4cfb245faa8cb6b36d884",
            "0x000000000000000000000000000000000000000000000000000000000000000c"
          ],
          "data": "0x000000000000000000000000000000000000000000000000000000000000006000000000000000000000000000000000000000000000000000000000000000a000000000000000000000000000000000000000000000000000000000000009c4000000000000000000000000000000000000000000000000000000000000001546696265722047726964204d6574726f204c6f6f700000000000000000000000000000000000000000000000000000000000000000000000000000000000000e696e667261737472756374757265000000000000000000000000000000000000",
          "blockHash": "0x75a82a0ccd4f8c5e73a4047524b069879d453fbcb27a1e9a6c617e3a03ae696a",
          "blockNumber": "0x2f84e66",
          "blockTimestamp": "0x6a468246",
          "transactionHash": "0x694b879c6f6aff80d06803d733570f1986b6f426d44480d67166119990ff1bfa",
          "transactionIndex": "0x1b",
          "logIndex": "0x39",
          "removed": false
        }
      ],
      "logsBloom": "0x00020000000000000000000000000000000002000000000000000000000000000000000000000200000000000000000000000000000000000002000000002000000000000000000000000000000000000000000000000000001000000000000000000000020200000000000000200800000000000000000000000000000000000000000000000000000000000000000000000000000000000000000000000000000000000000000000000008000000000000000000000000000000000000000000000000000000000000000000000000000000000009000000000000000020200200000000000000000000000000000000000000000000000200080000000000",
      "type": "0x2",
      "transactionHash": "0x694b879c6f6aff80d06803d733570f1986b6f426d44480d67166119990ff1bfa",
      "transactionIndex": "0x1b",
      "blockHash": "0x75a82a0ccd4f8c5e73a4047524b069879d453fbcb27a1e9a6c617e3a03ae696a",
      "blockNumber": "0x2f84e66",
      "gasUsed": "0x2fcb0",
      "effectiveGasPrice": "0x4c07d0a3b",
      "from": "0x81d48d2c5d0744e8ef7a5c35cdceb0a27a1c707b",
      "to": "0x4d82b6e528d3c2e1a3592e14863ec95eaef4ff85",
      "contractAddress": null
    },
    {
      "status": "0x1",
      "cumulativeGasUsed": "0x5174fb",
      "logs": [
        {
          "address": "0x4d82b6e528d3c2e1a3592e14863ec95eaef4ff85",
          "topics": [
            "0xc3d58168c5ae7397731d063d5bbf3d657854427343f4c083240f7aacaa2d0f62",
            "0x000000000000000000000000962aba0a590981cf9c5b336ac34922c82f203165",
            "0x00000000000000000000000081d48d2c5d0744e8ef7a5c35cdceb0a27a1c707b",
            "0x000000000000000000000000962aba0a590981cf9c5b336ac34922c82f203165"
          ],
          "data": "0x000000000000000000000000000000000000000000000000000000000000000c00000000000000000000000000000000000000000000000000000000000005dc",
          "blockHash": "0x75a82a0ccd4f8c5e73a4047524b069879d453fbcb27a1e9a6c617e3a03ae696a",
          "blockNumber": "0x2f84e66",
          "blockTimestamp": "0x6a468246",
          "transactionHash": "0x5ae1af282e1204f7edf56d5679430736ce3910241a0de5f386c1c9cfd11f8956",
          "transactionIndex": "0x1c",
          "logIndex": "0x3a",
          "removed": false
        },
        {
          "address": "0x962aba0a590981cf9c5b336ac34922c82f203165",
          "topics": [
            "0x32951ff170f53e2a0d7160f9c1da9bafcf35b5003abc23b8b87fee8f1c5d8b25",
            "0x000000000000000000000000000000000000000000000000000000000000000c",
            "0x000000000000000000000000000000000000000000000000000000000000000c"
          ],
          "data": "0x000000000000000000000000000000000000000000000003782dace9d900000000000000000000000000000000000000000000000000000000000000000005dc",
          "blockHash": "0x75a82a0ccd4f8c5e73a4047524b069879d453fbcb27a1e9a6c617e3a03ae696a",
          "blockNumber": "0x2f84e66",
          "blockTimestamp": "0x6a468246",
          "transactionHash": "0x5ae1af282e1204f7edf56d5679430736ce3910241a0de5f386c1c9cfd11f8956",
          "transactionIndex": "0x1c",
          "logIndex": "0x3b",
          "removed": false
        }
      ],
      "logsBloom": "0x00000000400000000000000000000000000002000000000000000000000000000000000000000200000000000000000000000000000000000002000000003000000000000000000000000000000000000000000000000000001000000004000000000000000000010000000000200000000000000000000000000000000000000000000000000000000000000000000000000000000000000000000000000000000000000000000000000000000000000001000000000000000000000000000000000000000000000000000000000000000000000009000000000800400000200680000000000000000000000000000000000000000000000200080000000000",
      "type": "0x2",
      "transactionHash": "0x5ae1af282e1204f7edf56d5679430736ce3910241a0de5f386c1c9cfd11f8956",
      "transactionIndex": "0x1c",
      "blockHash": "0x75a82a0ccd4f8c5e73a4047524b069879d453fbcb27a1e9a6c617e3a03ae696a",
      "blockNumber": "0x2f84e66",
      "gasUsed": "0x26f56",
      "effectiveGasPrice": "0x4c07d0a3b",
      "from": "0x81d48d2c5d0744e8ef7a5c35cdceb0a27a1c707b",
      "to": "0x962aba0a590981cf9c5b336ac34922c82f203165",
      "contractAddress": null
    },
    {
      "status": "0x1",
      "cumulativeGasUsed": "0xbcee1",
      "logs": [
        {
          "address": "0x4d82b6e528d3c2e1a3592e14863ec95eaef4ff85",
          "topics": [
            "0xc3d58168c5ae7397731d063d5bbf3d657854427343f4c083240f7aacaa2d0f62",
            "0x00000000000000000000000081d48d2c5d0744e8ef7a5c35cdceb0a27a1c707b",
            "0x0000000000000000000000000000000000000000000000000000000000000000",
            "0x00000000000000000000000081d48d2c5d0744e8ef7a5c35cdceb0a27a1c707b"
          ],
          "data": "0x000000000000000000000000000000000000000000000000000000000000000d0000000000000000000000000000000000000000000000000000000000000320",
          "blockHash": "0x4a86c2ed21246575a7c48b821be0102f857f903ee2150e205db6ea983e03cf33",
          "blockNumber": "0x2f84e69",
          "blockTimestamp": "0x6a468248",
          "transactionHash": "0xeb0649b5205ba7739420d3252b2794064c79116c524c5e95bcb0c9b6364e8410",
          "transactionIndex": "0x5",
          "logIndex": "0x15",
          "removed": false
        },
        {
          "address": "0x4d82b6e528d3c2e1a3592e14863ec95eaef4ff85",
          "topics": [
            "0x5d55a7ca4b923b36b70eb909992eb2bf005bf58b77d4cfb245faa8cb6b36d884",
            "0x000000000000000000000000000000000000000000000000000000000000000d"
          ],
          "data": "0x000000000000000000000000000000000000000000000000000000000000006000000000000000000000000000000000000000000000000000000000000000a000000000000000000000000000000000000000000000000000000000000003200000000000000000000000000000000000000000000000000000000000000019426c75652d4368697020417274204672616374696f6e2023370000000000000000000000000000000000000000000000000000000000000000000000000000106172742d636f6c6c65637469626c657300000000000000000000000000000000",
          "blockHash": "0x4a86c2ed21246575a7c48b821be0102f857f903ee2150e205db6ea983e03cf33",
          "blockNumber": "0x2f84e69",
          "blockTimestamp": "0x6a468248",
          "transactionHash": "0xeb0649b5205ba7739420d3252b2794064c79116c524c5e95bcb0c9b6364e8410",
          "transactionIndex": "0x5",
          "logIndex": "0x16",
          "removed": false
        }
      ],
      "logsBloom": "0x00020000000000000040000000000000000000000000000000000000000000000000000000000000000000000000000000000000000000000002000000002000000000000000000000000000000000000002000000000000001000000000000000000000020200000000000000200800000000000000000000000000000000000000000000000000000000000000000000000000000000000000000000000000000000000000000000000008000000000000000000000000000000000000000000000000000000000000000000000000000000000009000000000000000020020200000000000000000000000000000000000000000000000200080000000000",
      "type": "0x2",
      "transactionHash": "0xeb0649b5205ba7739420d3252b2794064c79116c524c5e95bcb0c9b6364e8410",
      "transactionIndex": "0x5",
      "blockHash": "0x4a86c2ed21246575a7c48b821be0102f857f903ee2150e205db6ea983e03cf33",
      "blockNumber": "0x2f84e69",
      "gasUsed": "0x2fd1c",
      "effectiveGasPrice": "0x4c07d0a3b",
      "from": "0x81d48d2c5d0744e8ef7a5c35cdceb0a27a1c707b",
      "to": "0x4d82b6e528d3c2e1a3592e14863ec95eaef4ff85",
      "contractAddress": null
    },
    {
      "status": "0x1",
      "cumulativeGasUsed": "0x104a73",
      "logs": [
        {
          "address": "0x4d82b6e528d3c2e1a3592e14863ec95eaef4ff85",
          "topics": [
            "0xc3d58168c5ae7397731d063d5bbf3d657854427343f4c083240f7aacaa2d0f62",
            "0x000000000000000000000000962aba0a590981cf9c5b336ac34922c82f203165",
            "0x00000000000000000000000081d48d2c5d0744e8ef7a5c35cdceb0a27a1c707b",
            "0x000000000000000000000000962aba0a590981cf9c5b336ac34922c82f203165"
          ],
          "data": "0x000000000000000000000000000000000000000000000000000000000000000d00000000000000000000000000000000000000000000000000000000000001e0",
          "blockHash": "0x4a86c2ed21246575a7c48b821be0102f857f903ee2150e205db6ea983e03cf33",
          "blockNumber": "0x2f84e69",
          "blockTimestamp": "0x6a468248",
          "transactionHash": "0x9b0e6bd66db4a719e96ef0e14bfbd6a090a848636af70d1219c69e734fc27b1f",
          "transactionIndex": "0x7",
          "logIndex": "0x18",
          "removed": false
        },
        {
          "address": "0x962aba0a590981cf9c5b336ac34922c82f203165",
          "topics": [
            "0x32951ff170f53e2a0d7160f9c1da9bafcf35b5003abc23b8b87fee8f1c5d8b25",
            "0x000000000000000000000000000000000000000000000000000000000000000d",
            "0x000000000000000000000000000000000000000000000000000000000000000d"
          ],
          "data": "0x0000000000000000000000000000000000000000000000068155a43676e0000000000000000000000000000000000000000000000000000000000000000001e0",
          "blockHash": "0x4a86c2ed21246575a7c48b821be0102f857f903ee2150e205db6ea983e03cf33",
          "blockNumber": "0x2f84e69",
          "blockTimestamp": "0x6a468248",
          "transactionHash": "0x9b0e6bd66db4a719e96ef0e14bfbd6a090a848636af70d1219c69e734fc27b1f",
          "transactionIndex": "0x7",
          "logIndex": "0x19",
          "removed": false
        }
      ],
      "logsBloom": "0x00000000400000000040000000000000000000000000000000000000000000000000000000000000000000000000000000000000000000000002000000003000000000000000000000000000000000000002000000000000001000000004000000000000000000010000000000200000000000000000000000000000000000000000000000000000000000000000000000000000000000000000000000000000000000000000000000000000000000000001000000000000000000000000000000000000000000000000000000000000000000000009000000000800400000020680000000000000000000000000000000000000000000000200080000000000",
      "type": "0x2",
      "transactionHash": "0x9b0e6bd66db4a719e96ef0e14bfbd6a090a848636af70d1219c69e734fc27b1f",
      "transactionIndex": "0x7",
      "blockHash": "0x4a86c2ed21246575a7c48b821be0102f857f903ee2150e205db6ea983e03cf33",
      "blockNumber": "0x2f84e69",
      "gasUsed": "0x26f62",
      "effectiveGasPrice": "0x4c07d0a3b",
      "from": "0x81d48d2c5d0744e8ef7a5c35cdceb0a27a1c707b",
      "to": "0x962aba0a590981cf9c5b336ac34922c82f203165",
      "contractAddress": null
    },
    {
      "status": "0x1",
      "cumulativeGasUsed": "0x155e80",
      "logs": [
        {
          "address": "0x4d82b6e528d3c2e1a3592e14863ec95eaef4ff85",
          "topics": [
            "0xc3d58168c5ae7397731d063d5bbf3d657854427343f4c083240f7aacaa2d0f62",
            "0x00000000000000000000000081d48d2c5d0744e8ef7a5c35cdceb0a27a1c707b",
            "0x0000000000000000000000000000000000000000000000000000000000000000",
            "0x00000000000000000000000081d48d2c5d0744e8ef7a5c35cdceb0a27a1c707b"
          ],
          "data": "0x000000000000000000000000000000000000000000000000000000000000000e0000000000000000000000000000000000000000000000000000000000002ee0",
          "blockHash": "0x4a86c2ed21246575a7c48b821be0102f857f903ee2150e205db6ea983e03cf33",
          "blockNumber": "0x2f84e69",
          "blockTimestamp": "0x6a468248",
          "transactionHash": "0x710b0d94b8219261ae5c2177024c2ebfdb668ce82ef951938ef1a5dd45645241",
          "transactionIndex": "0x9",
          "logIndex": "0x1d",
          "removed": false
        },
        {
          "address": "0x4d82b6e528d3c2e1a3592e14863ec95eaef4ff85",
          "topics": [
            "0x5d55a7ca4b923b36b70eb909992eb2bf005bf58b77d4cfb245faa8cb6b36d884",
            "0x000000000000000000000000000000000000000000000000000000000000000e"
          ],
          "data": "0x000000000000000000000000000000000000000000000000000000000000006000000000000000000000000000000000000000000000000000000000000000a00000000000000000000000000000000000000000000000000000000000002ee0000000000000000000000000000000000000000000000000000000000000001a4e6578757320496e766f69636520506f6f6c20323032362d30370000000000000000000000000000000000000000000000000000000000000000000000000011696e766f6963652d66696e616e63696e67000000000000000000000000000000",
          "blockHash": "0x4a86c2ed21246575a7c48b821be0102f857f903ee2150e205db6ea983e03cf33",
          "blockNumber": "0x2f84e69",
          "blockTimestamp": "0x6a468248",
          "transactionHash": "0x710b0d94b8219261ae5c2177024c2ebfdb668ce82ef951938ef1a5dd45645241",
          "transactionIndex": "0x9",
          "logIndex": "0x1e",
          "removed": false
        }
      ],
      "logsBloom": "0x00020000000000000000000000000000000000000000000000000000000000000000000000000000000000000000000000000000000000000002000000002000000000000000000800000000000000000000000000000000001000000000000000000000020200000000000000200800000000000000000000000000000000000000000000000000000000000000000008000000000000000000000000000000000000000000000000000008000000000000000000000020000000000000000000000000000000000000000000000000000000000009000000000000000020000200000000000000000000000000000000000000000000000200080000000000",
      "type": "0x2",
      "transactionHash": "0x710b0d94b8219261ae5c2177024c2ebfdb668ce82ef951938ef1a5dd45645241",
      "transactionIndex": "0x9",
      "blockHash": "0x4a86c2ed21246575a7c48b821be0102f857f903ee2150e205db6ea983e03cf33",
      "blockNumber": "0x2f84e69",
      "gasUsed": "0x2fd4c",
      "effectiveGasPrice": "0x4c07d0a3b",
      "from": "0x81d48d2c5d0744e8ef7a5c35cdceb0a27a1c707b",
      "to": "0x4d82b6e528d3c2e1a3592e14863ec95eaef4ff85",
      "contractAddress": null
    },
    {
      "status": "0x1",
      "cumulativeGasUsed": "0x1de04e",
      "logs": [
        {
          "address": "0x4d82b6e528d3c2e1a3592e14863ec95eaef4ff85",
          "topics": [
            "0xc3d58168c5ae7397731d063d5bbf3d657854427343f4c083240f7aacaa2d0f62",
            "0x000000000000000000000000962aba0a590981cf9c5b336ac34922c82f203165",
            "0x00000000000000000000000081d48d2c5d0744e8ef7a5c35cdceb0a27a1c707b",
            "0x000000000000000000000000962aba0a590981cf9c5b336ac34922c82f203165"
          ],
          "data": "0x000000000000000000000000000000000000000000000000000000000000000e0000000000000000000000000000000000000000000000000000000000001c20",
          "blockHash": "0x4a86c2ed21246575a7c48b821be0102f857f903ee2150e205db6ea983e03cf33",
          "blockNumber": "0x2f84e69",
          "blockTimestamp": "0x6a468248",
          "transactionHash": "0x6cf2bb0a7906265f0be20ecaa1dc02d831529e00494ae79e8a31293546c0fc07",
          "transactionIndex": "0xc",
          "logIndex": "0x21",
          "removed": false
        },
        {
          "address": "0x962aba0a590981cf9c5b336ac34922c82f203165",
          "topics": [
            "0x32951ff170f53e2a0d7160f9c1da9bafcf35b5003abc23b8b87fee8f1c5d8b25",
            "0x000000000000000000000000000000000000000000000000000000000000000e",
            "0x000000000000000000000000000000000000000000000000000000000000000e"
          ],
          "data": "0x0000000000000000000000000000000000000000000000008ac7230489e800000000000000000000000000000000000000000000000000000000000000001c20",
          "blockHash": "0x4a86c2ed21246575a7c48b821be0102f857f903ee2150e205db6ea983e03cf33",
          "blockNumber": "0x2f84e69",
          "blockTimestamp": "0x6a468248",
          "transactionHash": "0x6cf2bb0a7906265f0be20ecaa1dc02d831529e00494ae79e8a31293546c0fc07",
          "transactionIndex": "0xc",
          "logIndex": "0x22",
          "removed": false
        }
      ],
      "logsBloom": "0x00000000400000000000000000000000000000000000000000000000000000000000000000000000000000000000000000000000000000000002000000003000000000000000000800000000000000000000000000000000001000000004000000000000000000010000000000200000000000000000000000000000000000000000000000000000000000000000000008000000000000000000000000000000000000000000000000000000000000000001000000000020000000000000000000000000000000000000000000000000000000000009000000000800400000000680000000000000000000000000000000000000000000000200080000000000",
      "type": "0x2",
      "transactionHash": "0x6cf2bb0a7906265f0be20ecaa1dc02d831529e00494ae79e8a31293546c0fc07",
      "transactionIndex": "0xc",
      "blockHash": "0x4a86c2ed21246575a7c48b821be0102f857f903ee2150e205db6ea983e03cf33",
      "blockNumber": "0x2f84e69",
      "gasUsed": "0x26f56",
      "effectiveGasPrice": "0x4c07d0a3b",
      "from": "0x81d48d2c5d0744e8ef7a5c35cdceb0a27a1c707b",
      "to": "0x962aba0a590981cf9c5b336ac34922c82f203165",
      "contractAddress": null
    }
  ],
  "libraries": [],
  "pending": [],
  "returns": {},
  "timestamp": 1783005769878,
  "chain": 5042002,
  "commit": "29b8ff7"
}