{
  "transactions": [
    {
      "hash": null,
      "transactionType": "CALL",
      "contractName": null,
      "contractAddress": "0x4d82b6e528d3c2e1a3592e14863ec95eaef4ff85",
      "function": "createAsset(string,string,uint256,string)",
      "arguments": [
        "US T-BILL 2026-Q3",
        "treasuries",
        "1000000",
        "hadron://assets/t-bill-2026-q3"
      ],
      "transaction": {
        "from": "0x81d48d2c5d0744e8ef7a5c35cdceb0a27a1c707b",
        "to": "0x4d82b6e528d3c2e1a3592e14863ec95eaef4ff85",
        "gas": "0x32f21",
        "value": "0x0",
        "input": "0x596abcf6000000000000000000000000000000000000000000000000000000000000008000000000000000000000000000000000000000000000000000000000000000c000000000000000000000000000000000000000000000000000000000000f424000000000000000000000000000000000000000000000000000000000000001000000000000000000000000000000000000000000000000000000000000000011555320542d42494c4c20323032362d5133000000000000000000000000000000000000000000000000000000000000000000000000000000000000000000000a7472656173757269657300000000000000000000000000000000000000000000000000000000000000000000000000000000000000000000000000000000001e686164726f6e3a2f2f6173736574732f742d62696c6c2d323032362d71330000",
        "nonce": "0x1cf",
        "chainId": "0x4cef52"
      },
      "additionalContracts": [],
      "isFixedGasLimit": false
    },
    {
      "hash": null,
      "transactionType": "CALL",
      "contractName": null,
      "contractAddress": "0x962aba0a590981cf9c5b336ac34922c82f203165",
      "function": "createPrimaryOffering(uint256,uint256,uint256)",
      "arguments": [
        "15",
        "1000000000000000000",
        "600000"
      ],
      "transaction": {
        "from": "0x81d48d2c5d0744e8ef7a5c35cdceb0a27a1c707b",
        "to": "0x962aba0a590981cf9c5b336ac34922c82f203165",
        "gas": "0x38fb2",
        "value": "0x0",
        "input": "0x9f4ab023000000000000000000000000000000000000000000000000000000000000000f0000000000000000000000000000000000000000000000000de0b6b3a764000000000000000000000000000000000000000000000000000000000000000927c0",
        "nonce": "0x1d0",
        "chainId": "0x4cef52"
      },
      "additionalContracts": [],
      "isFixedGasLimit": false
    },
    {
      "hash": null,
      "transactionType": "CALL",
      "contractName": null,
      "contractAddress": "0x4d82b6e528d3c2e1a3592e14863ec95eaef4ff85",
      "function": "createAsset(string,string,uint256,string)",
      "arguments": [
        "GOLD OUNCE VAULT #4",
        "gold",
        "50000",
        "hadron://assets/gold-ounce-4"
      ],
      "transaction": {
        "from": "0x81d48d2c5d0744e8ef7a5c35cdceb0a27a1c707b",
        "to": "0x4d82b6e528d3c2e1a3592e14863ec95eaef4ff85",
        "gas": "0x32ead",
        "value": "0x0",
        "input": "0x596abcf6000000000000000000000000000000000000000000000000000000000000008000000000000000000000000000000000000000000000000000000000000000c0000000000000000000000000000000000000000000000000000000000000c35000000000000000000000000000000000000000000000000000000000000001000000000000000000000000000000000000000000000000000000000000000013474f4c44204f554e4345205641554c54202334000000000000000000000000000000000000000000000000000000000000000000000000000000000000000004676f6c6400000000000000000000000000000000000000000000000000000000000000000000000000000000000000000000000000000000000000000000001c686164726f6e3a2f2f6173736574732f676f6c642d6f756e63652d3400000000",
        "nonce": "0x1d1",
        "chainId": "0x4cef52"
      },
      "additionalContracts": [],
      "isFixedGasLimit": false
    },
    {
      "hash": null,
      "transactionType": "CALL",
      "contractName": null,
      "contractAddress": "0x962aba0a590981cf9c5b336ac34922c82f203165",
      "function": "createPrimaryOffering(uint256,uint256,uint256)",
      "arguments": [
        "16",
        "238000000000000000",
        "30000"
      ],
      "transaction": {
        "from": "0x81d48d2c5d0744e8ef7a5c35cdceb0a27a1c707b",
        "to": "0x962aba0a590981cf9c5b336ac34922c82f203165",
        "gas": "0x35cfb",
        "value": "0x0",
        "input": "0x9f4ab0230000000000000000000000000000000000000000000000000000000000000010000000000000000000000000000000000000000000000000034d8bbd308b00000000000000000000000000000000000000000000000000000000000000007530",
        "nonce": "0x1d2",
        "chainId": "0x4cef52"
      },
      "additionalContracts": [],
      "isFixedGasLimit": false
    },
    {
      "hash": null,
      "transactionType": "CALL",
      "contractName": null,
      "contractAddress": "0x4d82b6e528d3c2e1a3592e14863ec95eaef4ff85",
      "function": "createAsset(string,string,uint256,string)",
      "arguments": [
        "MARINA TOWER UNIT 12F",
        "real-estate",
        "200000",
        "hadron://assets/marina-tower-12f"
      ],
      "transaction": {
        "from": "0x81d48d2c5d0744e8ef7a5c35cdceb0a27a1c707b",
        "to": "0x4d82b6e528d3c2e1a3592e14863ec95eaef4ff85",
        "gas": "0x3de95",
        "value": "0x0",
        "input": "0x596abcf6000000000000000000000000000000000000000000000000000000000000008000000000000000000000000000000000000000000000000000000000000000c00000000000000000000000000000000000000000000000000000000000030d40000000000000000000000000000000000000000000000000000000000000010000000000000000000000000000000000000000000000000000000000000000154d4152494e4120544f57455220554e4954203132460000000000000000000000000000000000000000000000000000000000000000000000000000000000000b7265616c2d6573746174650000000000000000000000000000000000000000000000000000000000000000000000000000000000000000000000000000000020686164726f6e3a2f2f6173736574732f6d6172696e612d746f7765722d313266",
        "nonce": "0x1d3",
        "chainId": "0x4cef52"
      },
      "additionalContracts": [],
      "isFixedGasLimit": false
    },
    {
      "hash": null,
      "transactionType": "CALL",
      "contractName": null,
      "contractAddress": "0x962aba0a590981cf9c5b336ac34922c82f203165",
      "function": "createPrimaryOffering(uint256,uint256,uint256)",
      "arguments": [
        "17",
        "555000000000000000",
        "120000"
      ],
      "transaction": {
        "from": "0x81d48d2c5d0744e8ef7a5c35cdceb0a27a1c707b",
        "to": "0x962aba0a590981cf9c5b336ac34922c82f203165",
        "gas": "0x35d1b",
        "value": "0x0",
        "input": "0x9f4ab023000000000000000000000000000000000000000000000000000000000000001100000000000000000000000000000000000000000000000007b3c18f3a578000000000000000000000000000000000000000000000000000000000000001d4c0",
        "nonce": "0x1d4",
        "chainId": "0x4cef52"
      },
      "additionalContracts": [],
      "isFixedGasLimit": false
    },
    {
      "hash": null,
      "transactionType": "CALL",
      "contractName": null,
      "contractAddress": "0x4d82b6e528d3c2e1a3592e14863ec95eaef4ff85",
      "function": "createAsset(string,string,uint256,string)",
      "arguments": [
        "VERRA CARBON LOT-9",
        "carbon",
        "800000",
        "hadron://assets/verra-carbon-9"
      ],
      "transaction": {
        "from": "0x81d48d2c5d0744e8ef7a5c35cdceb0a27a1c707b",
        "to": "0x4d82b6e528d3c2e1a3592e14863ec95eaef4ff85",
        "gas": "0x32edf",
        "value": "0x0",
        "input": "0x596abcf6000000000000000000000000000000000000000000000000000000000000008000000000000000000000000000000000000000000000000000000000000000c000000000000000000000000000000000000000000000000000000000000c350000000000000000000000000000000000000000000000000000000000000001000000000000000000000000000000000000000000000000000000000000000012564552524120434152424f4e204c4f542d3900000000000000000000000000000000000000000000000000000000000000000000000000000000000000000006636172626f6e0000000000000000000000000000000000000000000000000000000000000000000000000000000000000000000000000000000000000000001e686164726f6e3a2f2f6173736574732f76657272612d636172626f6e2d390000",
        "nonce": "0x1d5",
        "chainId": "0x4cef52"
      },
      "additionalContracts": [],
      "isFixedGasLimit": false
    },
    {
      "hash": null,
      "transactionType": "CALL",
      "contractName": null,
      "contractAddress": "0x962aba0a590981cf9c5b336ac34922c82f203165",
      "function": "createPrimaryOffering(uint256,uint256,uint256)",
      "arguments": [
        "18",
        "18500000000000000",
        "480000"
      ],
      "transaction": {
        "from": "0x81d48d2c5d0744e8ef7a5c35cdceb0a27a1c707b",
        "to": "0x962aba0a590981cf9c5b336ac34922c82f203165",
        "gas": "0x35cfb",
        "value": "0x0",
        "input": "0x9f4ab02300000000000000000000000000000000000000000000000000000000000000120000000000000000000000000000000000000000000000000041b9a6e85840000000000000000000000000000000000000000000000000000000000000075300",
        "nonce": "0x1d6",
        "chainId": "0x4cef52"
      },
      "additionalContracts": [],
      "isFixedGasLimit": false
    },
    {
      "hash": null,
      "transactionType": "CALL",
      "contractName": null,
      "contractAddress": "0x4d82b6e528d3c2e1a3592e14863ec95eaef4ff85",
      "function": "createAsset(string,string,uint256,string)",
      "arguments": [
        "US T-Note 2028",
        "treasuries",
        "1000000",
        "hadron://assets/us-t-note-2028"
      ],
      "transaction": {
        "from": "0x81d48d2c5d0744e8ef7a5c35cdceb0a27a1c707b",
        "to": "0x4d82b6e528d3c2e1a3592e14863ec95eaef4ff85",
        "gas": "0x32ef0",
        "value": "0x0",
        "input": "0x596abcf6000000000000000000000000000000000000000000000000000000000000008000000000000000000000000000000000000000000000000000000000000000c000000000000000000000000000000000000000000000000000000000000f42400000000000000000000000000000000000000000000000000000000000000100000000000000000000000000000000000000000000000000000000000000000e555320542d4e6f74652032303238000000000000000000000000000000000000000000000000000000000000000000000000000000000000000000000000000a7472656173757269657300000000000000000000000000000000000000000000000000000000000000000000000000000000000000000000000000000000001e686164726f6e3a2f2f6173736574732f75732d742d6e6f74652d323032380000",
        "nonce": "0x1d7",
        "chainId": "0x4cef52"
      },
      "additionalContracts": [],
      "isFixedGasLimit": false
    },
    {
      "hash": null,
      "transactionType": "CALL",
      "contractName": null,
      "contractAddress": "0x962aba0a590981cf9c5b336ac34922c82f203165",
      "function": "createPrimaryOffering(uint256,uint256,uint256)",
      "arguments": [
        "19",
        "984000000000000000",
        "600000"
      ],
      "transaction": {
        "from": "0x81d48d2c5d0744e8ef7a5c35cdceb0a27a1c707b",
        "to": "0x962aba0a590981cf9c5b336ac34922c82f203165",
        "gas": "0x38fb2",
        "value": "0x0",
        "input": "0x9f4ab02300000000000000000000000000000000000000000000000000000000000000130000000000000000000000000000000000000000000000000da7dec95afc000000000000000000000000000000000000000000000000000000000000000927c0",
        "nonce": "0x1d8",
        "chainId": "0x4cef52"
      },
      "additionalContracts": [],
      "isFixedGasLimit": false
    },
    {
      "hash": null,
      "transactionType": "CALL",
      "contractName": null,
      "contractAddress": "0x4d82b6e528d3c2e1a3592e14863ec95eaef4ff85",
      "function": "createAsset(string,string,uint256,string)",
      "arguments": [
        "Meridian SME Credit Pool A",
        "private-credit",
        "500000",
        "hadron://assets/meridian-sme-credit-a"
      ],
      "transaction": {
        "from": "0x81d48d2c5d0744e8ef7a5c35cdceb0a27a1c707b",
        "to": "0x4d82b6e528d3c2e1a3592e14863ec95eaef4ff85",
        "gas": "0x4209c",
        "value": "0x0",
        "input": "0x596abcf6000000000000000000000000000000000000000000000000000000000000008000000000000000000000000000000000000000000000000000000000000000c0000000000000000000000000000000000000000000000000000000000007a1200000000000000000000000000000000000000000000000000000000000000100000000000000000000000000000000000000000000000000000000000000001a4d6572696469616e20534d452043726564697420506f6f6c2041000000000000000000000000000000000000000000000000000000000000000000000000000e707269766174652d6372656469740000000000000000000000000000000000000000000000000000000000000000000000000000000000000000000000000025686164726f6e3a2f2f6173736574732f6d6572696469616e2d736d652d6372656469742d61000000000000000000000000000000000000000000000000000000",
        "nonce": "0x1d9",
        "chainId": "0x4cef52"
      },
      "additionalContracts": [],
      "isFixedGasLimit": false
    },
    {
      "hash": null,
      "transactionType": "CALL",
      "contractName": null,
      "contractAddress": "0x962aba0a590981cf9c5b336ac34922c82f203165",
      "function": "createPrimaryOffering(uint256,uint256,uint256)",
      "arguments": [
        "20",
        "500000000000000000",
        "300000"
      ],
      "transaction": {
        "from": "0x81d48d2c5d0744e8ef7a5c35cdceb0a27a1c707b",
        "to": "0x962aba0a590981cf9c5b336ac34922c82f203165",
        "gas": "0x38fb2",
        "value": "0x0",
        "input": "0x9f4ab023000000000000000000000000000000000000000000000000000000000000001400000000000000000000000000000000000000000000000006f05b59d3b2000000000000000000000000000000000000000000000000000000000000000493e0",
        "nonce": "0x1da",
        "chainId": "0x4cef52"
      },
      "additionalContracts": [],
      "isFixedGasLimit": false
    },
    {
      "hash": null,
      "transactionType": "CALL",
      "contractName": null,
      "contractAddress": "0x4d82b6e528d3c2e1a3592e14863ec95eaef4ff85",
      "function": "createAsset(string,string,uint256,string)",
      "arguments": [
        "Atlas Trade Receivables B",
        "private-credit",
        "600000",
        "hadron://assets/atlas-trade-receivables-b"
      ],
      "transaction": {
        "from": "0x81d48d2c5d0744e8ef7a5c35cdceb0a27a1c707b",
        "to": "0x4d82b6e528d3c2e1a3592e14863ec95eaef4ff85",
        "gas": "0x420cd",
        "value": "0x0",
        "input": "0x596abcf6000000000000000000000000000000000000000000000000000000000000008000000000000000000000000000000000000000000000000000000000000000c000000000000000000000000000000000000000000000000000000000000927c00000000000000000000000000000000000000000000000000000000000000100000000000000000000000000000000000000000000000000000000000000001941746c61732054726164652052656365697661626c6573204200000000000000000000000000000000000000000000000000000000000000000000000000000e707269766174652d6372656469740000000000000000000000000000000000000000000000000000000000000000000000000000000000000000000000000029686164726f6e3a2f2f6173736574732f61746c61732d74726164652d72656365697661626c65732d620000000000000000000000000000000000000000000000",
        "nonce": "0x1db",
        "chainId": "0x4cef52"
      },
      "additionalContracts": [],
      "isFixedGasLimit": false
    },
    {
      "hash": null,
      "transactionType": "CALL",
      "contractName": null,
      "contractAddress": "0x962aba0a590981cf9c5b336ac34922c82f203165",
      "function": "createPrimaryOffering(uint256,uint256,uint256)",
      "arguments": [
        "21",
        "250000000000000000",
        "360000"
      ],
      "transaction": {
        "from": "0x81d48d2c5d0744e8ef7a5c35cdceb0a27a1c707b",
        "to": "0x962aba0a590981cf9c5b336ac34922c82f203165",
        "gas": "0x38fb2",
        "value": "0x0",
        "input": "0x9f4ab023000000000000000000000000000000000000000000000000000000000000001500000000000000000000000000000000000000000000000003782dace9d900000000000000000000000000000000000000000000000000000000000000057e40",
        "nonce": "0x1dc",
        "chainId": "0x4cef52"
      },
      "additionalContracts": [],
      "isFixedGasLimit": false
    },
    {
      "hash": null,
      "transactionType": "CALL",
      "contractName": null,
      "contractAddress": "0x4d82b6e528d3c2e1a3592e14863ec95eaef4ff85",
      "function": "createAsset(string,string,uint256,string)",
      "arguments": [
        "Dockside Logistics Park",
        "real-estate",
        "300000",
        "hadron://assets/dockside-logistics-park"
      ],
      "transaction": {
        "from": "0x81d48d2c5d0744e8ef7a5c35cdceb0a27a1c707b",
        "to": "0x4d82b6e528d3c2e1a3592e14863ec95eaef4ff85",
        "gas": "0x4205a",
        "value": "0x0",
        "input": "0x596abcf6000000000000000000000000000000000000000000000000000000000000008000000000000000000000000000000000000000000000000000000000000000c000000000000000000000000000000000000000000000000000000000000493e000000000000000000000000000000000000000000000000000000000000001000000000000000000000000000000000000000000000000000000000000000017446f636b73696465204c6f67697374696373205061726b000000000000000000000000000000000000000000000000000000000000000000000000000000000b7265616c2d6573746174650000000000000000000000000000000000000000000000000000000000000000000000000000000000000000000000000000000027686164726f6e3a2f2f6173736574732f646f636b736964652d6c6f676973746963732d7061726b00000000000000000000000000000000000000000000000000",
        "nonce": "0x1dd",
        "chainId": "0x4cef52"
      },
      "additionalContracts": [],
      "isFixedGasLimit": false
    },
    {
      "hash": null,
      "transactionType": "CALL",
      "contractName": null,
      "contractAddress": "0x962aba0a590981cf9c5b336ac34922c82f203165",
      "function": "createPrimaryOffering(uint256,uint256,uint256)",
      "arguments": [
        "22",
        "427500000000000000",
        "180000"
      ],
      "transaction": {
        "from": "0x81d48d2c5d0744e8ef7a5c35cdceb0a27a1c707b",
        "to": "0x962aba0a590981cf9c5b336ac34922c82f203165",
        "gas": "0x35d1b",
        "value": "0x0",
        "input": "0x9f4ab023000000000000000000000000000000000000000000000000000000000000001600000000000000000000000000000000000000000000000005eec8fc297ac000000000000000000000000000000000000000000000000000000000000002bf20",
        "nonce": "0x1de",
        "chainId": "0x4cef52"
      },
      "additionalContracts": [],
      "isFixedGasLimit": false
    },
    {
      "hash": null,
      "transactionType": "CALL",
      "contractName": null,
      "contractAddress": "0x4d82b6e528d3c2e1a3592e14863ec95eaef4ff85",
      "function": "createAsset(string,string,uint256,string)",
      "arguments": [
        "Silver Bullion Vault #2",
        "commodities",
        "200000",
        "hadron://assets/silver-bullion-vault-2"
      ],
      "transaction": {
        "from": "0x81d48d2c5d0744e8ef7a5c35cdceb0a27a1c707b",
        "to": "0x4d82b6e528d3c2e1a3592e14863ec95eaef4ff85",
        "gas": "0x42049",
        "value": "0x0",
        "input": "0x596abcf6000000000000000000000000000000000000000000000000000000000000008000000000000000000000000000000000000000000000000000000000000000c00000000000000000000000000000000000000000000000000000000000030d400000000000000000000000000000000000000000000000000000000000000100000000000000000000000000000000000000000000000000000000000000001753696c7665722042756c6c696f6e205661756c74202332000000000000000000000000000000000000000000000000000000000000000000000000000000000b636f6d6d6f6469746965730000000000000000000000000000000000000000000000000000000000000000000000000000000000000000000000000000000026686164726f6e3a2f2f6173736574732f73696c7665722d62756c6c696f6e2d7661756c742d320000000000000000000000000000000000000000000000000000",
        "nonce": "0x1df",
        "chainId": "0x4cef52"
      },
      "additionalContracts": [],
      "isFixedGasLimit": false
    },
    {
      "hash": null,
      "transactionType": "CALL",
      "contractName": null,
      "contractAddress": "0x962aba0a590981cf9c5b336ac34922c82f203165",
      "function": "createPrimaryOffering(uint256,uint256,uint256)",
      "arguments": [
        "23",
        "294000000000000000",
        "120000"
      ],
      "transaction": {
        "from": "0x81d48d2c5d0744e8ef7a5c35cdceb0a27a1c707b",
        "to": "0x962aba0a590981cf9c5b336ac34922c82f203165",
        "gas": "0x38fb2",
        "value": "0x0",
        "input": "0x9f4ab023000000000000000000000000000000000000000000000000000000000000001700000000000000000000000000000000000000000000000004147f713bf70000000000000000000000000000000000000000000000000000000000000001d4c0",
        "nonce": "0x1e0",
        "chainId": "0x4cef52"
      },
      "additionalContracts": [],
      "isFixedGasLimit": false
    },
    {
      "hash": null,
      "transactionType": "CALL",
      "contractName": null,
      "contractAddress": "0x4d82b6e528d3c2e1a3592e14863ec95eaef4ff85",
      "function": "createAsset(string,string,uint256,string)",
      "arguments": [
        "Gold Standard Offset Bundle",
        "carbon",
        "600000",
        "hadron://assets/gold-standard-offset-bundle"
      ],
      "transaction": {
        "from": "0x81d48d2c5d0744e8ef7a5c35cdceb0a27a1c707b",
        "to": "0x4d82b6e528d3c2e1a3592e14863ec95eaef4ff85",
        "gas": "0x4208b",
        "value": "0x0",
        "input": "0x596abcf6000000000000000000000000000000000000000000000000000000000000008000000000000000000000000000000000000000000000000000000000000000c000000000000000000000000000000000000000000000000000000000000927c00000000000000000000000000000000000000000000000000000000000000100000000000000000000000000000000000000000000000000000000000000001b476f6c64205374616e64617264204f66667365742042756e646c6500000000000000000000000000000000000000000000000000000000000000000000000006636172626f6e0000000000000000000000000000000000000000000000000000000000000000000000000000000000000000000000000000000000000000002b686164726f6e3a2f2f6173736574732f676f6c642d7374616e646172642d6f66667365742d62756e646c65000000000000000000000000000000000000000000",
        "nonce": "0x1e1",
        "chainId": "0x4cef52"
      },
      "additionalContracts": [],
      "isFixedGasLimit": false
    },
    {
      "hash": null,
      "transactionType": "CALL",
      "contractName": null,
      "contractAddress": "0x962aba0a590981cf9c5b336ac34922c82f203165",
      "function": "createPrimaryOffering(uint256,uint256,uint256)",
      "arguments": [
        "24",
        "24000000000000000",
        "360000"
      ],
      "transaction": {
        "from": "0x81d48d2c5d0744e8ef7a5c35cdceb0a27a1c707b",
        "to": "0x962aba0a590981cf9c5b336ac34922c82f203165",
        "gas": "0x35cfb",
        "value": "0x0",
        "input": "0x9f4ab0230000000000000000000000000000000000000000000000000000000000000018000000000000000000000000000000000000000000000000005543df729c00000000000000000000000000000000000000000000000000000000000000057e40",
        "nonce": "0x1e2",
        "chainId": "0x4cef52"
      },
      "additionalContracts": [],
      "isFixedGasLimit": false
    },
    {
      "hash": null,
      "transactionType": "CALL",
      "contractName": null,
      "contractAddress": "0x4d82b6e528d3c2e1a3592e14863ec95eaef4ff85",
      "function": "createAsset(string,string,uint256,string)",
      "arguments": [
        "Solar Farm Basin-2 Notes",
        "infrastructure",
        "500000",
        "hadron://assets/solar-farm-basin-2"
      ],
      "transaction": {
        "from": "0x81d48d2c5d0744e8ef7a5c35cdceb0a27a1c707b",
        "to": "0x4d82b6e528d3c2e1a3592e14863ec95eaef4ff85",
        "gas": "0x42049",
        "value": "0x0",
        "input": "0x596abcf6000000000000000000000000000000000000000000000000000000000000008000000000000000000000000000000000000000000000000000000000000000c0000000000000000000000000000000000000000000000000000000000007a12000000000000000000000000000000000000000000000000000000000000001000000000000000000000000000000000000000000000000000000000000000018536f6c6172204661726d20426173696e2d32204e6f7465730000000000000000000000000000000000000000000000000000000000000000000000000000000e696e6672617374727563747572650000000000000000000000000000000000000000000000000000000000000000000000000000000000000000000000000022686164726f6e3a2f2f6173736574732f736f6c61722d6661726d2d626173696e2d32000000000000000000000000000000000000000000000000000000000000",
        "nonce": "0x1e3",
        "chainId": "0x4cef52"
      },
      "additionalContracts": [],
      "isFixedGasLimit": false
    },
    {
      "hash": null,
      "transactionType": "CALL",
      "contractName": null,
      "contractAddress": "0x962aba0a590981cf9c5b336ac34922c82f203165",
      "function": "createPrimaryOffering(uint256,uint256,uint256)",
      "arguments": [
        "25",
        "782000000000000000",
        "300000"
      ],
      "transaction": {
        "from": "0x81d48d2c5d0744e8ef7a5c35cdceb0a27a1c707b",
        "to": "0x962aba0a590981cf9c5b336ac34922c82f203165",
        "gas": "0x38fb2",
        "value": "0x0",
        "input": "0x9f4ab02300000000000000000000000000000000000000000000000000000000000000190000000000000000000000000000000000000000000000000ada38db565b000000000000000000000000000000000000000000000000000000000000000493e0",
        "nonce": "0x1e4",
        "chainId": "0x4cef52"
      },
      "additionalContracts": [],
      "isFixedGasLimit": false
    },
    {
      "hash": null,
      "transactionType": "CALL",
      "contractName": null,
      "contractAddress": "0x4d82b6e528d3c2e1a3592e14863ec95eaef4ff85",
      "function": "createAsset(string,string,uint256,string)",
      "arguments": [
        "Fiber Grid Metro Loop",
        "infrastructure",
        "250000",
        "hadron://assets/fiber-grid-metro-loop"
      ],
      "transaction": {
        "from": "0x81d48d2c5d0744e8ef7a5c35cdceb0a27a1c707b",
        "to": "0x4d82b6e528d3c2e1a3592e14863ec95eaef4ff85",
        "gas": "0x42049",
        "value": "0x0",
        "input": "0x596abcf6000000000000000000000000000000000000000000000000000000000000008000000000000000000000000000000000000000000000000000000000000000c0000000000000000000000000000000000000000000000000000000000003d0900000000000000000000000000000000000000000000000000000000000000100000000000000000000000000000000000000000000000000000000000000001546696265722047726964204d6574726f204c6f6f700000000000000000000000000000000000000000000000000000000000000000000000000000000000000e696e6672617374727563747572650000000000000000000000000000000000000000000000000000000000000000000000000000000000000000000000000025686164726f6e3a2f2f6173736574732f66696265722d677269642d6d6574726f2d6c6f6f70000000000000000000000000000000000000000000000000000000",
        "nonce": "0x1e5",
        "chainId": "0x4cef52"
      },
      "additionalContracts": [],
      "isFixedGasLimit": false
    },
    {
      "hash": null,
      "transactionType": "CALL",
      "contractName": null,
      "contractAddress": "0x962aba0a590981cf9c5b336ac34922c82f203165",
      "function": "createPrimaryOffering(uint256,uint256,uint256)",
      "arguments": [
        "26",
        "640000000000000000",
        "150000"
      ],
      "transaction": {
        "from": "0x81d48d2c5d0744e8ef7a5c35cdceb0a27a1c707b",
        "to": "0x962aba0a590981cf9c5b336ac34922c82f203165",
        "gas": "0x38fb2",
        "value": "0x0",
        "input": "0x9f4ab023000000000000000000000000000000000000000000000000000000000000001a00000000000000000000000000000000000000000000000008e1bc9bf040000000000000000000000000000000000000000000000000000000000000000249f0",
        "nonce": "0x1e6",
        "chainId": "0x4cef52"
      },
      "additionalContracts": [],
      "isFixedGasLimit": false
    },
    {
      "hash": null,
      "transactionType": "CALL",
      "contractName": null,
      "contractAddress": "0x4d82b6e528d3c2e1a3592e14863ec95eaef4ff85",
      "function": "createAsset(string,string,uint256,string)",
      "arguments": [
        "Blue-Chip Art Fraction #7",
        "art-collectibles",
        "80000",
        "hadron://assets/blue-chip-art-fraction-7"
      ],
      "transaction": {
        "from": "0x81d48d2c5d0744e8ef7a5c35cdceb0a27a1c707b",
        "to": "0x4d82b6e528d3c2e1a3592e14863ec95eaef4ff85",
        "gas": "0x420de",
        "value": "0x0",
        "input": "0x596abcf6000000000000000000000000000000000000000000000000000000000000008000000000000000000000000000000000000000000000000000000000000000c0000000000000000000000000000000000000000000000000000000000001388000000000000000000000000000000000000000000000000000000000000001000000000000000000000000000000000000000000000000000000000000000019426c75652d4368697020417274204672616374696f6e2023370000000000000000000000000000000000000000000000000000000000000000000000000000106172742d636f6c6c65637469626c6573000000000000000000000000000000000000000000000000000000000000000000000000000000000000000000000028686164726f6e3a2f2f6173736574732f626c75652d636869702d6172742d6672616374696f6e2d37000000000000000000000000000000000000000000000000",
        "nonce": "0x1e7",
        "chainId": "0x4cef52"
      },
      "additionalContracts": [],
      "isFixedGasLimit": false
    },
    {
      "hash": null,
      "transactionType": "CALL",
      "contractName": null,
      "contractAddress": "0x962aba0a590981cf9c5b336ac34922c82f203165",
      "function": "createPrimaryOffering(uint256,uint256,uint256)",
      "arguments": [
        "27",
        "1200000000000000000",
        "48000"
      ],
      "transaction": {
        "from": "0x81d48d2c5d0744e8ef7a5c35cdceb0a27a1c707b",
        "to": "0x962aba0a590981cf9c5b336ac34922c82f203165",
        "gas": "0x35cfb",
        "value": "0x0",
        "input": "0x9f4ab023000000000000000000000000000000000000000000000000000000000000001b00000000000000000000000000000000000000000000000010a741a462780000000000000000000000000000000000000000000000000000000000000000bb80",
        "nonce": "0x1e8",
        "chainId": "0x4cef52"
      },
      "additionalContracts": [],
      "isFixedGasLimit": false
    },
    {
      "hash": null,
      "transactionType": "CALL",
      "contractName": null,
      "contractAddress": "0x4d82b6e528d3c2e1a3592e14863ec95eaef4ff85",
      "function": "createAsset(string,string,uint256,string)",
      "arguments": [
        "Nexus Invoice Pool 2026-07",
        "invoice-financing",
        "1200000",
        "hadron://assets/nexus-invoice-pool-2026-07"
      ],
      "transaction": {
        "from": "0x81d48d2c5d0744e8ef7a5c35cdceb0a27a1c707b",
        "to": "0x4d82b6e528d3c2e1a3592e14863ec95eaef4ff85",
        "gas": "0x42120",
        "value": "0x0",
        "input": "0x596abcf6000000000000000000000000000000000000000000000000000000000000008000000000000000000000000000000000000000000000000000000000000000c00000000000000000000000000000000000000000000000000000000000124f800000000000000000000000000000000000000000000000000000000000000100000000000000000000000000000000000000000000000000000000000000001a4e6578757320496e766f69636520506f6f6c20323032362d30370000000000000000000000000000000000000000000000000000000000000000000000000011696e766f6963652d66696e616e63696e67000000000000000000000000000000000000000000000000000000000000000000000000000000000000000000002a686164726f6e3a2f2f6173736574732f6e657875732d696e766f6963652d706f6f6c2d323032362d303700000000000000000000000000000000000000000000",
        "nonce": "0x1e9",
        "chainId": "0x4cef52"
      },
      "additionalContracts": [],
      "isFixedGasLimit": false
    },
    {
      "hash": null,
      "transactionType": "CALL",
      "contractName": null,
      "contractAddress": "0x962aba0a590981cf9c5b336ac34922c82f203165",
      "function": "createPrimaryOffering(uint256,uint256,uint256)",
      "arguments": [
        "28",
        "100000000000000000",
        "720000"
      ],
      "transaction": {
        "from": "0x81d48d2c5d0744e8ef7a5c35cdceb0a27a1c707b",
        "to": "0x962aba0a590981cf9c5b336ac34922c82f203165",
        "gas": "0x38fb2",
        "value": "0x0",
        "input": "0x9f4ab023000000000000000000000000000000000000000000000000000000000000001c000000000000000000000000000000000000000000000000016345785d8a000000000000000000000000000000000000000000000000000000000000000afc80",
        "nonce": "0x1ea",
        "chainId": "0x4cef52"
      },
      "additionalContracts": [],
      "isFixedGasLimit": false
    }
  ],
  "receipts": [],
  "libraries": [],
  "pending": [],
  "returns": {},
  "timestamp": 1783045269653,
  "chain": 5042002,
  "commit": "e389143"
}