{
  "transactions": [
    {
      "hash": "0x43c536be668d4993c67d0afdbde3d5b0886b66b3a8936dbc87eb074436e5aa7d",
      "transactionType": "CALL",
      "contractName": null,
      "contractAddress": "0x962aba0a590981cf9c5b336ac34922c82f203165",
      "function": "buyPrimary(uint256,uint256)",
      "arguments": [
        "16",
        "126"
      ],
      "transaction": {
        "from": "0x81d48d2c5d0744e8ef7a5c35cdceb0a27a1c707b",
        "to": "0x962aba0a590981cf9c5b336ac34922c82f203165",
        "gas": "0x1b1fd",
        "value": "0x1a02ac71de46a0000",
        "input": "0xe37178f10000000000000000000000000000000000000000000000000000000000000010000000000000000000000000000000000000000000000000000000000000007e",
        "nonce": "0x1eb",
        "chainId": "0x4cef52"
      },
      "additionalContracts": [],
      "isFixedGasLimit": false
    },
    {
      "hash": "0x0ca4cd3e627f831071aae213a0f979121d655d9d8de260f21028f62482bdf72b",
      "transactionType": "CALL",
      "contractName": null,
      "contractAddress": "0x962aba0a590981cf9c5b336ac34922c82f203165",
      "function": "buyPrimary(uint256,uint256)",
      "arguments": [
        "20",
        "60"
      ],
      "transaction": {
        "from": "0x81d48d2c5d0744e8ef7a5c35cdceb0a27a1c707b",
        "to": "0x962aba0a590981cf9c5b336ac34922c82f203165",
        "gas": "0x1b1fd",
        "value": "0x1a055690d9db80000",
        "input": "0xe37178f10000000000000000000000000000000000000000000000000000000000000014000000000000000000000000000000000000000000000000000000000000003c",
        "nonce": "0x1ec",
        "chainId": "0x4cef52"
      },
      "additionalContracts": [],
      "isFixedGasLimit": false
    },
    {
      "hash": "0x0262fa3598353ce8b703350368da276f86c73e18bf06b502eeba9deb50360377",
      "transactionType": "CALL",
      "contractName": null,
      "contractAddress": "0x962aba0a590981cf9c5b336ac34922c82f203165",
      "function": "buyPrimary(uint256,uint256)",
      "arguments": [
        "24",
        "1250"
      ],
      "transaction": {
        "from": "0x81d48d2c5d0744e8ef7a5c35cdceb0a27a1c707b",
        "to": "0x962aba0a590981cf9c5b336ac34922c82f203165",
        "gas": "0x1b20e",
        "value": "0x1a055690d9db80000",
        "input": "0xe37178f1000000000000000000000000000000000000000000000000000000000000001800000000000000000000000000000000000000000000000000000000000004e2",
        "nonce": "0x1ed",
        "chainId": "0x4cef52"
      },
      "additionalContracts": [],
      "isFixedGasLimit": false
    },
    {
      "hash": "0x398edd62279e47495b216b94938384c249fca8984de42d49c61cee27b2ea6750",
      "transactionType": "CALL",
      "contractName": null,
      "contractAddress": "0x962aba0a590981cf9c5b336ac34922c82f203165",
      "function": "buyPrimary(uint256,uint256)",
      "arguments": [
        "28",
        "300"
      ],
      "transaction": {
        "from": "0x81d48d2c5d0744e8ef7a5c35cdceb0a27a1c707b",
        "to": "0x962aba0a590981cf9c5b336ac34922c82f203165",
        "gas": "0x1b20e",
        "value": "0x1a055690d9db80000",
        "input": "0xe37178f1000000000000000000000000000000000000000000000000000000000000001c000000000000000000000000000000000000000000000000000000000000012c",
        "nonce": "0x1ee",
        "chainId": "0x4cef52"
      },
      "additionalContracts": [],
      "isFixedGasLimit": false
    }
  ],
  "receipts": [
    {
      "status": "0x1",
      "cumulativeGasUsed": "0x126394",
      "logs": [
        {
          "address": "0xfffffffffffffffffffffffffffffffffffffffe",
          "topics": [
            "0xddf252ad1be2c89b69c2b068fc378daa952ba7f163c4a11628f55a4df523b3ef",
            "0x00000000000000000000000081d48d2c5d0744e8ef7a5c35cdceb0a27a1c707b",
            "0x000000000000000000000000962aba0a590981cf9c5b336ac34922c82f203165"
          ],
          "data": "0x000000000000000000000000000000000000000000000001a02ac71de46a0000",
          "blockHash": "0x2f21948274ed6539cb780fd203e7534f32c0f8ca5a435b5b54f343c81a0a3cd2",
          "blockNumber": "0x2f981f7",
          "blockTimestamp": "0x6a471ecf",
          "transactionHash": "0x0ca4cd3e627f831071aae213a0f979121d655d9d8de260f21028f62482bdf72b",
          "transactionIndex": "0x13",
          "logIndex": "0x3f",
          "removed": false
        },
        {
          "address": "0x962aba0a590981cf9c5b336ac34922c82f203165",
          "topics": [
            "0x82bc30c29d8133d53d443f5e28b84e0fd2b5dcaf3957347d2a67d598186dc07e",
            "0x0000000000000000000000000000000000000000000000000000000000000010",
            "0x0000000000000000000000000000000000000000000000000000000000000010",
            "0x00000000000000000000000081d48d2c5d0744e8ef7a5c35cdceb0a27a1c707b"
          ],
          "data": "0x000000000000000000000000000000000000000000000000000000000000007e000000000000000000000000000000000000000000000001a02ac71de46a00000000000000000000000000000000000000000000000000000214b1a2b59f4000",
          "blockHash": "0x2f21948274ed6539cb780fd203e7534f32c0f8ca5a435b5b54f343c81a0a3cd2",
          "blockNumber": "0x2f981f7",
          "blockTimestamp": "0x6a471ecf",
          "transactionHash": "0x0ca4cd3e627f831071aae213a0f979121d655d9d8de260f21028f62482bdf72b",
          "transactionIndex": "0x13",
          "logIndex": "0x40",
          "removed": false
        },
        {
          "address": "0x4d82b6e528d3c2e1a3592e14863ec95eaef4ff85",
          "topics": [
            "0xc3d58168c5ae7397731d063d5bbf3d657854427343f4c083240f7aacaa2d0f62",
            "0x000000000000000000000000962aba0a590981cf9c5b336ac34922c82f203165",
            "0x000000000000000000000000962aba0a590981cf9c5b336ac34922c82f203165",
            "0x00000000000000000000000081d48d2c5d0744e8ef7a5c35cdceb0a27a1c707b"
          ],
          "data": "0x0000000000000000000000000000000000000000000000000000000000000010000000000000000000000000000000000000000000000000000000000000007e",
          "blockHash": "0x2f21948274ed6539cb780fd203e7534f32c0f8ca5a435b5b54f343c81a0a3cd2",
          "blockNumber": "0x2f981f7",
          "blockTimestamp": "0x6a471ecf",
          "transactionHash": "0x0ca4cd3e627f831071aae213a0f979121d655d9d8de260f21028f62482bdf72b",
          "transactionIndex": "0x13",
          "logIndex": "0x41",
          "removed": false
        },
        {
          "address": "0xfffffffffffffffffffffffffffffffffffffffe",
          "topics": [
            "0xddf252ad1be2c89b69c2b068fc378daa952ba7f163c4a11628f55a4df523b3ef",
            "0x000000000000000000000000962aba0a590981cf9c5b336ac34922c82f203165",
            "0x00000000000000000000000081d48d2c5d0744e8ef7a5c35cdceb0a27a1c707b"
          ],
          "data": "0x0000000000000000000000000000000000000000000000019e16157b2ecac000",
          "blockHash": "0x2f21948274ed6539cb780fd203e7534f32c0f8ca5a435b5b54f343c81a0a3cd2",
          "blockNumber": "0x2f981f7",
          "blockTimestamp": "0x6a471ecf",
          "transactionHash": "0x0ca4cd3e627f831071aae213a0f979121d655d9d8de260f21028f62482bdf72b",
          "transactionIndex": "0x13",
          "logIndex": "0x42",
          "removed": false
        },
        {
          "address": "0xfffffffffffffffffffffffffffffffffffffffe",
          "topics": [
            "0xddf252ad1be2c89b69c2b068fc378daa952ba7f163c4a11628f55a4df523b3ef",
            "0x000000000000000000000000962aba0a590981cf9c5b336ac34922c82f203165",
            "0x00000000000000000000000084e243a60a75efe615537af49c5eaee8f3c32ed9"
          ],
          "data": "0x0000000000000000000000000000000000000000000000000214b1a2b59f4000",
          "blockHash": "0x2f21948274ed6539cb780fd203e7534f32c0f8ca5a435b5b54f343c81a0a3cd2",
          "blockNumber": "0x2f981f7",
          "blockTimestamp": "0x6a471ecf",
          "transactionHash": "0x0ca4cd3e627f831071aae213a0f979121d655d9d8de260f21028f62482bdf72b",
          "transactionIndex": "0x13",
          "logIndex": "0x43",
          "removed": false
        }
      ],
      "logsBloom": "0x00000000500000000000000400000080000000000000000000000000000000000000000000000000000000000200000000000000000000000002000000002000000000000000000000000008000000000000000000000000001000000004000000000000000000012000000000200000000000000000000000000010040000000000000000200000000000000000000000000100000000000000000000000000000000000000000000000000000000000001000000000000000000000000000000000002000000000008004000000000000000000009000000000000400000400600000000000000000000000000000000000000000000000200080000080000",
      "type": "0x2",
      "transactionHash": "0x0ca4cd3e627f831071aae213a0f979121d655d9d8de260f21028f62482bdf72b",
      "transactionIndex": "0x13",
      "blockHash": "0x2f21948274ed6539cb780fd203e7534f32c0f8ca5a435b5b54f343c81a0a3cd2",
      "blockNumber": "0x2f981f7",
      "gasUsed": "0x13a34",
      "effectiveGasPrice": "0x5d21dba00",
      "from": "0x81d48d2c5d0744e8ef7a5c35cdceb0a27a1c707b",
      "to": "0x962aba0a590981cf9c5b336ac34922c82f203165",
      "contractAddress": null
    },
    {
      "status": "0x1",
      "cumulativeGasUsed": "0x139dc8",
      "logs": [
        {
          "address": "0xfffffffffffffffffffffffffffffffffffffffe",
          "topics": [
            "0xddf252ad1be2c89b69c2b068fc378daa952ba7f163c4a11628f55a4df523b3ef",
            "0x00000000000000000000000081d48d2c5d0744e8ef7a5c35cdceb0a27a1c707b",
            "0x000000000000000000000000962aba0a590981cf9c5b336ac34922c82f203165"
          ],
          "data": "0x000000000000000000000000000000000000000000000001a055690d9db80000",
          "blockHash": "0x2f21948274ed6539cb780fd203e7534f32c0f8ca5a435b5b54f343c81a0a3cd2",
          "blockNumber": "0x2f981f7",
          "blockTimestamp": "0x6a471ecf",
          "transactionHash": "0x43c536be668d4993c67d0afdbde3d5b0886b66b3a8936dbc87eb074436e5aa7d",
          "transactionIndex": "0x14",
          "logIndex": "0x44",
          "removed": false
        },
        {
          "address": "0x962aba0a590981cf9c5b336ac34922c82f203165",
          "topics": [
            "0x82bc30c29d8133d53d443f5e28b84e0fd2b5dcaf3957347d2a67d598186dc07e",
            "0x0000000000000000000000000000000000000000000000000000000000000014",
            "0x0000000000000000000000000000000000000000000000000000000000000014",
            "0x00000000000000000000000081d48d2c5d0744e8ef7a5c35cdceb0a27a1c707b"
          ],
          "data": "0x000000000000000000000000000000000000000000000000000000000000003c000000000000000000000000000000000000000000000001a055690d9db800000000000000000000000000000000000000000000000000000214e8348c4f0000",
          "blockHash": "0x2f21948274ed6539cb780fd203e7534f32c0f8ca5a435b5b54f343c81a0a3cd2",
          "blockNumber": "0x2f981f7",
          "blockTimestamp": "0x6a471ecf",
          "transactionHash": "0x43c536be668d4993c67d0afdbde3d5b0886b66b3a8936dbc87eb074436e5aa7d",
          "transactionIndex": "0x14",
          "logIndex": "0x45",
          "removed": false
        },
        {
          "address": "0x4d82b6e528d3c2e1a3592e14863ec95eaef4ff85",
          "topics": [
            "0xc3d58168c5ae7397731d063d5bbf3d657854427343f4c083240f7aacaa2d0f62",
            "0x000000000000000000000000962aba0a590981cf9c5b336ac34922c82f203165",
            "0x000000000000000000000000962aba0a590981cf9c5b336ac34922c82f203165",
            "0x00000000000000000000000081d48d2c5d0744e8ef7a5c35cdceb0a27a1c707b"
          ],
          "data": "0x0000000000000000000000000000000000000000000000000000000000000014000000000000000000000000000000000000000000000000000000000000003c",
          "blockHash": "0x2f21948274ed6539cb780fd203e7534f32c0f8ca5a435b5b54f343c81a0a3cd2",
          "blockNumber": "0x2f981f7",
          "blockTimestamp": "0x6a471ecf",
          "transactionHash": "0x43c536be668d4993c67d0afdbde3d5b0886b66b3a8936dbc87eb074436e5aa7d",
          "transactionIndex": "0x14",
          "logIndex": "0x46",
          "removed": false
        },
        {
          "address": "0xfffffffffffffffffffffffffffffffffffffffe",
          "topics": [
            "0xddf252ad1be2c89b69c2b068fc378daa952ba7f163c4a11628f55a4df523b3ef",
            "0x000000000000000000000000962aba0a590981cf9c5b336ac34922c82f203165",
            "0x00000000000000000000000081d48d2c5d0744e8ef7a5c35cdceb0a27a1c707b"
          ],
          "data": "0x0000000000000000000000000000000000000000000000019e4080d911690000",
          "blockHash": "0x2f21948274ed6539cb780fd203e7534f32c0f8ca5a435b5b54f343c81a0a3cd2",
          "blockNumber": "0x2f981f7",
          "blockTimestamp": "0x6a471ecf",
          "transactionHash": "0x43c536be668d4993c67d0afdbde3d5b0886b66b3a8936dbc87eb074436e5aa7d",
          "transactionIndex": "0x14",
          "logIndex": "0x47",
          "removed": false
        },
        {
          "address": "0xfffffffffffffffffffffffffffffffffffffffe",
          "topics": [
            "0xddf252ad1be2c89b69c2b068fc378daa952ba7f163c4a11628f55a4df523b3ef",
            "0x000000000000000000000000962aba0a590981cf9c5b336ac34922c82f203165",
            "0x00000000000000000000000084e243a60a75efe615537af49c5eaee8f3c32ed9"
          ],
          "data": "0x0000000000000000000000000000000000000000000000000214e8348c4f0000",
          "blockHash": "0x2f21948274ed6539cb780fd203e7534f32c0f8ca5a435b5b54f343c81a0a3cd2",
          "blockNumber": "0x2f981f7",
          "blockTimestamp": "0x6a471ecf",
          "transactionHash": "0x43c536be668d4993c67d0afdbde3d5b0886b66b3a8936dbc87eb074436e5aa7d",
          "transactionIndex": "0x14",
          "logIndex": "0x48",
          "removed": false
        }
      ],
      "logsBloom": "0x00000000400000000000000400000080000000000000000000000000000000000000000000000000000000000200000000002000000000000002000000002000000000000000000000000008000000000000000000000000001000000004000000000000000000012000000000200000000000000000000000000010000000000000000000200000000000000000000000000000000400000000000000000000000000000000000020000000000000000001000000000000000000000000000000000002000000000008004000000000000000000009000000000000400000400600000000000000000000000000000000000000000000000200080000080000",
      "type": "0x2",
      "transactionHash": "0x43c536be668d4993c67d0afdbde3d5b0886b66b3a8936dbc87eb074436e5aa7d",
      "transactionIndex": "0x14",
      "blockHash": "0x2f21948274ed6539cb780fd203e7534f32c0f8ca5a435b5b54f343c81a0a3cd2",
      "blockNumber": "0x2f981f7",
      "gasUsed": "0x13a34",
      "effectiveGasPrice": "0x5d21dba00",
      "from": "0x81d48d2c5d0744e8ef7a5c35cdceb0a27a1c707b",
      "to": "0x962aba0a590981cf9c5b336ac34922c82f203165",
      "contractAddress": null
    },
    {
      "status": "0x1",
      "cumulativeGasUsed": "0x14d808",
      "logs": [
        {
          "address": "0xfffffffffffffffffffffffffffffffffffffffe",
          "topics": [
            "0xddf252ad1be2c89b69c2b068fc378daa952ba7f163c4a11628f55a4df523b3ef",
            "0x00000000000000000000000081d48d2c5d0744e8ef7a5c35cdceb0a27a1c707b",
            "0x000000000000000000000000962aba0a590981cf9c5b336ac34922c82f203165"
          ],
          "data": "0x000000000000000000000000000000000000000000000001a055690d9db80000",
          "blockHash": "0x2f21948274ed6539cb780fd203e7534f32c0f8ca5a435b5b54f343c81a0a3cd2",
          "blockNumber": "0x2f981f7",
          "blockTimestamp": "0x6a471ecf",
          "transactionHash": "0x0262fa3598353ce8b703350368da276f86c73e18bf06b502eeba9deb50360377",
          "transactionIndex": "0x15",
          "logIndex": "0x49",
          "removed": false
        },
        {
          "address": "0x962aba0a590981cf9c5b336ac34922c82f203165",
          "topics": [
            "0x82bc30c29d8133d53d443f5e28b84e0fd2b5dcaf3957347d2a67d598186dc07e",
            "0x0000000000000000000000000000000000000000000000000000000000000018",
            "0x0000000000000000000000000000000000000000000000000000000000000018",
            "0x00000000000000000000000081d48d2c5d0744e8ef7a5c35cdceb0a27a1c707b"
          ],
          "data": "0x00000000000000000000000000000000000000000000000000000000000004e2000000000000000000000000000000000000000000000001a055690d9db800000000000000000000000000000000000000000000000000000214e8348c4f0000",
          "blockHash": "0x2f21948274ed6539cb780fd203e7534f32c0f8ca5a435b5b54f343c81a0a3cd2",
          "blockNumber": "0x2f981f7",
          "blockTimestamp": "0x6a471ecf",
          "transactionHash": "0x0262fa3598353ce8b703350368da276f86c73e18bf06b502eeba9deb50360377",
          "transactionIndex": "0x15",
          "logIndex": "0x4a",
          "removed": false
        },
        {
          "address": "0x4d82b6e528d3c2e1a3592e14863ec95eaef4ff85",
          "topics": [
            "0xc3d58168c5ae7397731d063d5bbf3d657854427343f4c083240f7aacaa2d0f62",
            "0x000000000000000000000000962aba0a590981cf9c5b336ac34922c82f203165",
            "0x000000000000000000000000962aba0a590981cf9c5b336ac34922c82f203165",
            "0x00000000000000000000000081d48d2c5d0744e8ef7a5c35cdceb0a27a1c707b"
          ],
          "data": "0x000000000000000000000000000000000000000000000000000000000000001800000000000000000000000000000000000000000000000000000000000004e2",
          "blockHash": "0x2f21948274ed6539cb780fd203e7534f32c0f8ca5a435b5b54f343c81a0a3cd2",
          "blockNumber": "0x2f981f7",
          "blockTimestamp": "0x6a471ecf",
          "transactionHash": "0x0262fa3598353ce8b703350368da276f86c73e18bf06b502eeba9deb50360377",
          "transactionIndex": "0x15",
          "logIndex": "0x4b",
          "removed": false
        },
        {
          "address": "0xfffffffffffffffffffffffffffffffffffffffe",
          "topics": [
            "0xddf252ad1be2c89b69c2b068fc378daa952ba7f163c4a11628f55a4df523b3ef",
            "0x000000000000000000000000962aba0a590981cf9c5b336ac34922c82f203165",
            "0x00000000000000000000000081d48d2c5d0744e8ef7a5c35cdceb0a27a1c707b"
          ],
          "data": "0x0000000000000000000000000000000000000000000000019e4080d911690000",
          "blockHash": "0x2f21948274ed6539cb780fd203e7534f32c0f8ca5a435b5b54f343c81a0a3cd2",
          "blockNumber": "0x2f981f7",
          "blockTimestamp": "0x6a471ecf",
          "transactionHash": "0x0262fa3598353ce8b703350368da276f86c73e18bf06b502eeba9deb50360377",
          "transactionIndex": "0x15",
          "logIndex": "0x4c",
          "removed": false
        },
        {
          "address": "0xfffffffffffffffffffffffffffffffffffffffe",
          "topics": [
            "0xddf252ad1be2c89b69c2b068fc378daa952ba7f163c4a11628f55a4df523b3ef",
            "0x000000000000000000000000962aba0a590981cf9c5b336ac34922c82f203165",
            "0x00000000000000000000000084e243a60a75efe615537af49c5eaee8f3c32ed9"
          ],
          "data": "0x0000000000000000000000000000000000000000000000000214e8348c4f0000",
          "blockHash": "0x2f21948274ed6539cb780fd203e7534f32c0f8ca5a435b5b54f343c81a0a3cd2",
          "blockNumber": "0x2f981f7",
          "blockTimestamp": "0x6a471ecf",
          "transactionHash": "0x0262fa3598353ce8b703350368da276f86c73e18bf06b502eeba9deb50360377",
          "transactionIndex": "0x15",
          "logIndex": "0x4d",
          "removed": false
        }
      ],
      "logsBloom": "0x00000000400000000000000400000080000000000000000000000000000000000000000000000000000000000200000000000000000000000002000000002000000000000000000000000008000000000040000000000000001000000004000000000000000000012000000000200000000000000000000000000010000000000000000000200000000000000000000000000000000000000000000000000000000000000000000000000000000000000001000000000000000000000000000000100002000000000008004000000000000000000009000020000000400000400600000000000000000000000000000000000000000000000200080000080000",
      "type": "0x2",
      "transactionHash": "0x0262fa3598353ce8b703350368da276f86c73e18bf06b502eeba9deb50360377",
      "transactionIndex": "0x15",
      "blockHash": "0x2f21948274ed6539cb780fd203e7534f32c0f8ca5a435b5b54f343c81a0a3cd2",
      "blockNumber": "0x2f981f7",
      "gasUsed": "0x13a40",
      "effectiveGasPrice": "0x5d21dba00",
      "from": "0x81d48d2c5d0744e8ef7a5c35cdceb0a27a1c707b",
      "to": "0x962aba0a590981cf9c5b336ac34922c82f203165",
      "contractAddress": null
    },
    {
      "status": "0x1",
      "cumulativeGasUsed": "0x191a4f",
      "logs": [
        {
          "address": "0xfffffffffffffffffffffffffffffffffffffffe",
          "topics": [
            "0xddf252ad1be2c89b69c2b068fc378daa952ba7f163c4a11628f55a4df523b3ef",
            "0x00000000000000000000000081d48d2c5d0744e8ef7a5c35cdceb0a27a1c707b",
            "0x000000000000000000000000962aba0a590981cf9c5b336ac34922c82f203165"
          ],
          "data": "0x000000000000000000000000000000000000000000000001a055690d9db80000",
          "blockHash": "0x2f21948274ed6539cb780fd203e7534f32c0f8ca5a435b5b54f343c81a0a3cd2",
          "blockNumber": "0x2f981f7",
          "blockTimestamp": "0x6a471ecf",
          "transactionHash": "0x398edd62279e47495b216b94938384c249fca8984de42d49c61cee27b2ea6750",
          "transactionIndex": "0x18",
          "logIndex": "0x52",
          "removed": false
        },
        {
          "address": "0x962aba0a590981cf9c5b336ac34922c82f203165",
          "topics": [
            "0x82bc30c29d8133d53d443f5e28b84e0fd2b5dcaf3957347d2a67d598186dc07e",
            "0x000000000000000000000000000000000000000000000000000000000000001c",
            "0x000000000000000000000000000000000000000000000000000000000000001c",
            "0x00000000000000000000000081d48d2c5d0744e8ef7a5c35cdceb0a27a1c707b"
          ],
          "data": "0x000000000000000000000000000000000000000000000000000000000000012c000000000000000000000000000000000000000000000001a055690d9db800000000000000000000000000000000000000000000000000000214e8348c4f0000",
          "blockHash": "0x2f21948274ed6539cb780fd203e7534f32c0f8ca5a435b5b54f343c81a0a3cd2",
          "blockNumber": "0x2f981f7",
          "blockTimestamp": "0x6a471ecf",
          "transactionHash": "0x398edd62279e47495b216b94938384c249fca8984de42d49c61cee27b2ea6750",
          "transactionIndex": "0x18",
          "logIndex": "0x53",
          "removed": false
        },
        {
          "address": "0x4d82b6e528d3c2e1a3592e14863ec95eaef4ff85",
          "topics": [
            "0xc3d58168c5ae7397731d063d5bbf3d657854427343f4c083240f7aacaa2d0f62",
            "0x000000000000000000000000962aba0a590981cf9c5b336ac34922c82f203165",
            "0x000000000000000000000000962aba0a590981cf9c5b336ac34922c82f203165",
            "0x00000000000000000000000081d48d2c5d0744e8ef7a5c35cdceb0a27a1c707b"
          ],
          "data": "0x000000000000000000000000000000000000000000000000000000000000001c000000000000000000000000000000000000000000000000000000000000012c",
          "blockHash": "0x2f21948274ed6539cb780fd203e7534f32c0f8ca5a435b5b54f343c81a0a3cd2",
          "blockNumber": "0x2f981f7",
          "blockTimestamp": "0x6a471ecf",
          "transactionHash": "0x398edd62279e47495b216b94938384c249fca8984de42d49c61cee27b2ea6750",
          "transactionIndex": "0x18",
          "logIndex": "0x54",
          "removed": false
        },
        {
          "address": "0xfffffffffffffffffffffffffffffffffffffffe",
          "topics": [
            "0xddf252ad1be2c89b69c2b068fc378daa952ba7f163c4a11628f55a4df523b3ef",
            "0x000000000000000000000000962aba0a590981cf9c5b336ac34922c82f203165",
            "0x00000000000000000000000081d48d2c5d0744e8ef7a5c35cdceb0a27a1c707b"
          ],
          "data": "0x0000000000000000000000000000000000000000000000019e4080d911690000",
          "blockHash": "0x2f21948274ed6539cb780fd203e7534f32c0f8ca5a435b5b54f343c81a0a3cd2",
          "blockNumber": "0x2f981f7",
          "blockTimestamp": "0x6a471ecf",
          "transactionHash": "0x398edd62279e47495b216b94938384c249fca8984de42d49c61cee27b2ea6750",
          "transactionIndex": "0x18",
          "logIndex": "0x55",
          "removed": false
        },
        {
          "address": "0xfffffffffffffffffffffffffffffffffffffffe",
          "topics": [
            "0xddf252ad1be2c89b69c2b068fc378daa952ba7f163c4a11628f55a4df523b3ef",
            "0x000000000000000000000000962aba0a590981cf9c5b336ac34922c82f203165",
            "0x00000000000000000000000084e243a60a75efe615537af49c5eaee8f3c32ed9"
          ],
          "data": "0x0000000000000000000000000000000000000000000000000214e8348c4f0000",
          "blockHash": "0x2f21948274ed6539cb780fd203e7534f32c0f8ca5a435b5b54f343c81a0a3cd2",
          "blockNumber": "0x2f981f7",
          "blockTimestamp": "0x6a471ecf",
          "transactionHash": "0x398edd62279e47495b216b94938384c249fca8984de42d49c61cee27b2ea6750",
          "transactionIndex": "0x18",
          "logIndex": "0x56",
          "removed": false
        }
      ],
      "logsBloom": "0x00000000400000000000000400000080000000000000000000000000000000000000000000000000000000000200000000000000000000200002000000002000000000000000000000000008000000000000000000000000001000000004000000000000000000012000000000200000000000000000000000000010000000000000000000200000000000000000000200000000000000000000000000000000000000000000000000000002000000000001000000000000000000000000000000000002000000000008004000000000000000000009000000000000400000400600000000000000000000000000000000000000000000000200080000080000",
      "type": "0x2",
      "transactionHash": "0x398edd62279e47495b216b94938384c249fca8984de42d49c61cee27b2ea6750",
      "transactionIndex": "0x18",
      "blockHash": "0x2f21948274ed6539cb780fd203e7534f32c0f8ca5a435b5b54f343c81a0a3cd2",
      "blockNumber": "0x2f981f7",
      "gasUsed": "0x13a40",
      "effectiveGasPrice": "0x5d21dba00",
      "from": "0x81d48d2c5d0744e8ef7a5c35cdceb0a27a1c707b",
      "to": "0x962aba0a590981cf9c5b336ac34922c82f203165",
      "contractAddress": null
    }
  ],
  "libraries": [],
  "pending": [],
  "returns": {},
  "timestamp": 1783045841604,
  "chain": 5042002,
  "commit": "25e4518"
}