{
  "transactions": [
    {
      "hash": "0xa819d3ee0e6c090c7757427e87a9880fc7f601bf7bce2d40c4886db75c40cb3f",
      "transactionType": "CALL",
      "contractName": null,
      "contractAddress": "0x962aba0a590981cf9c5b336ac34922c82f203165",
      "function": "buyPrimary(uint256,uint256)",
      "arguments": [
        "15",
        "15"
      ],
      "transaction": {
        "from": "0x81d48d2c5d0744e8ef7a5c35cdceb0a27a1c707b",
        "to": "0x962aba0a590981cf9c5b336ac34922c82f203165",
        "gas": "0x1b1fd",
        "value": "0xd02ab486cedc0000",
        "input": "0xe37178f1000000000000000000000000000000000000000000000000000000000000000f000000000000000000000000000000000000000000000000000000000000000f",
        "nonce": "0x201",
        "chainId": "0x4cef52"
      },
      "additionalContracts": [],
      "isFixedGasLimit": false
    },
    {
      "hash": "0xb279bb592efb9e794ad9a35e83f2b4f98e0dd50385c1a97b4711d14991e45af6",
      "transactionType": "CALL",
      "contractName": null,
      "contractAddress": "0x962aba0a590981cf9c5b336ac34922c82f203165",
      "function": "buyPrimary(uint256,uint256)",
      "arguments": [
        "16",
        "126"
      ],
      "transaction": {
        "from": "0x81d48d2c5d0744e8ef7a5c35cdceb0a27a1c707b",
        "to": "0x962aba0a590981cf9c5b336ac34922c82f203165",
        "gas": "0x1b1fd",
        "value": "0x1a02ac71de46a0000",
        "input": "0xe37178f10000000000000000000000000000000000000000000000000000000000000010000000000000000000000000000000000000000000000000000000000000007e",
        "nonce": "0x202",
        "chainId": "0x4cef52"
      },
      "additionalContracts": [],
      "isFixedGasLimit": false
    },
    {
      "hash": "0xbaf23040d3cc14a3be9aabc6c07077fa807aa2c442179791ec3128d3bcfd673c",
      "transactionType": "CALL",
      "contractName": null,
      "contractAddress": "0x962aba0a590981cf9c5b336ac34922c82f203165",
      "function": "buyPrimary(uint256,uint256)",
      "arguments": [
        "16",
        "33"
      ],
      "transaction": {
        "from": "0x81d48d2c5d0744e8ef7a5c35cdceb0a27a1c707b",
        "to": "0x962aba0a590981cf9c5b336ac34922c82f203165",
        "gas": "0x1b1fd",
        "value": "0x6cff036341eb0000",
        "input": "0xe37178f100000000000000000000000000000000000000000000000000000000000000100000000000000000000000000000000000000000000000000000000000000021",
        "nonce": "0x203",
        "chainId": "0x4cef52"
      },
      "additionalContracts": [],
      "isFixedGasLimit": false
    },
    {
      "hash": "0x98ed22727d5313a11f7126f3a406ae4980057c789647b435ce8bf2b918b7b1e2",
      "transactionType": "CALL",
      "contractName": null,
      "contractAddress": "0x962aba0a590981cf9c5b336ac34922c82f203165",
      "function": "buyPrimary(uint256,uint256)",
      "arguments": [
        "17",
        "14"
      ],
      "transaction": {
        "from": "0x81d48d2c5d0744e8ef7a5c35cdceb0a27a1c707b",
        "to": "0x962aba0a590981cf9c5b336ac34922c82f203165",
        "gas": "0x1b1fd",
        "value": "0x6bd495d530c90000",
        "input": "0xe37178f10000000000000000000000000000000000000000000000000000000000000011000000000000000000000000000000000000000000000000000000000000000e",
        "nonce": "0x204",
        "chainId": "0x4cef52"
      },
      "additionalContracts": [],
      "isFixedGasLimit": false
    },
    {
      "hash": "0x45e5226a71843f6368607c0e5a7814728e0e328ea733bafb73fa7750ce3383b8",
      "transactionType": "CALL",
      "contractName": null,
      "contractAddress": "0x962aba0a590981cf9c5b336ac34922c82f203165",
      "function": "buyPrimary(uint256,uint256)",
      "arguments": [
        "18",
        "648"
      ],
      "transaction": {
        "from": "0x81d48d2c5d0744e8ef7a5c35cdceb0a27a1c707b",
        "to": "0x962aba0a590981cf9c5b336ac34922c82f203165",
        "gas": "0x1b20e",
        "value": "0xa65dee7c1f620000",
        "input": "0xe37178f100000000000000000000000000000000000000000000000000000000000000120000000000000000000000000000000000000000000000000000000000000288",
        "nonce": "0x205",
        "chainId": "0x4cef52"
      },
      "additionalContracts": [],
      "isFixedGasLimit": false
    },
    {
      "hash": "0x74b964fdf02f9f95f5705bf0c48065abf8641387d9c99eb30ada7b12f30bc9f2",
      "transactionType": "CALL",
      "contractName": null,
      "contractAddress": "0x962aba0a590981cf9c5b336ac34922c82f203165",
      "function": "buyPrimary(uint256,uint256)",
      "arguments": [
        "18",
        "810"
      ],
      "transaction": {
        "from": "0x81d48d2c5d0744e8ef7a5c35cdceb0a27a1c707b",
        "to": "0x962aba0a590981cf9c5b336ac34922c82f203165",
        "gas": "0x1b20e",
        "value": "0xcff56a1b273a8000",
        "input": "0xe37178f10000000000000000000000000000000000000000000000000000000000000012000000000000000000000000000000000000000000000000000000000000032a",
        "nonce": "0x206",
        "chainId": "0x4cef52"
      },
      "additionalContracts": [],
      "isFixedGasLimit": false
    },
    {
      "hash": "0xff6726c2dfbacf041a1ee7ff2228e45d59430f19d4177b35877ddc08d0f80461",
      "transactionType": "CALL",
      "contractName": null,
      "contractAddress": "0x962aba0a590981cf9c5b336ac34922c82f203165",
      "function": "buyPrimary(uint256,uint256)",
      "arguments": [
        "19",
        "15"
      ],
      "transaction": {
        "from": "0x81d48d2c5d0744e8ef7a5c35cdceb0a27a1c707b",
        "to": "0x962aba0a590981cf9c5b336ac34922c82f203165",
        "gas": "0x1b1fd",
        "value": "0xccd60dcc54c40000",
        "input": "0xe37178f10000000000000000000000000000000000000000000000000000000000000013000000000000000000000000000000000000000000000000000000000000000f",
        "nonce": "0x207",
        "chainId": "0x4cef52"
      },
      "additionalContracts": [],
      "isFixedGasLimit": false
    },
    {
      "hash": "0xfa4f0caff04933bd7c682680a7e7f417f27cf0138f2de54399c5f4fd81648ebf",
      "transactionType": "CALL",
      "contractName": null,
      "contractAddress": "0x962aba0a590981cf9c5b336ac34922c82f203165",
      "function": "buyPrimary(uint256,uint256)",
      "arguments": [
        "20",
        "60"
      ],
      "transaction": {
        "from": "0x81d48d2c5d0744e8ef7a5c35cdceb0a27a1c707b",
        "to": "0x962aba0a590981cf9c5b336ac34922c82f203165",
        "gas": "0x1b1fd",
        "value": "0x1a055690d9db80000",
        "input": "0xe37178f10000000000000000000000000000000000000000000000000000000000000014000000000000000000000000000000000000000000000000000000000000003c",
        "nonce": "0x208",
        "chainId": "0x4cef52"
      },
      "additionalContracts": [],
      "isFixedGasLimit": false
    },
    {
      "hash": "0xb5eeccadc989c7c8ac9caa1b99a95fc4675f38af48b990b2d311f683503249f5",
      "transactionType": "CALL",
      "contractName": null,
      "contractAddress": "0x962aba0a590981cf9c5b336ac34922c82f203165",
      "function": "buyPrimary(uint256,uint256)",
      "arguments": [
        "20",
        "16"
      ],
      "transaction": {
        "from": "0x81d48d2c5d0744e8ef7a5c35cdceb0a27a1c707b",
        "to": "0x962aba0a590981cf9c5b336ac34922c82f203165",
        "gas": "0x1b1fd",
        "value": "0x6f05b59d3b200000",
        "input": "0xe37178f100000000000000000000000000000000000000000000000000000000000000140000000000000000000000000000000000000000000000000000000000000010",
        "nonce": "0x209",
        "chainId": "0x4cef52"
      },
      "additionalContracts": [],
      "isFixedGasLimit": false
    },
    {
      "hash": "0x5cf895b8de0a40701e4ef0d8ddf2fe838cfef6de7db0b26080b8a0c6a3d89cd3",
      "transactionType": "CALL",
      "contractName": null,
      "contractAddress": "0x962aba0a590981cf9c5b336ac34922c82f203165",
      "function": "buyPrimary(uint256,uint256)",
      "arguments": [
        "21",
        "32"
      ],
      "transaction": {
        "from": "0x81d48d2c5d0744e8ef7a5c35cdceb0a27a1c707b",
        "to": "0x962aba0a590981cf9c5b336ac34922c82f203165",
        "gas": "0x1b1fd",
        "value": "0x6f05b59d3b200000",
        "input": "0xe37178f100000000000000000000000000000000000000000000000000000000000000150000000000000000000000000000000000000000000000000000000000000020",
        "nonce": "0x20a",
        "chainId": "0x4cef52"
      },
      "additionalContracts": [],
      "isFixedGasLimit": false
    },
    {
      "hash": "0xf90ea9c7258a29e700109cd6f82ed1e294572700982efd095c0a0537b35bdc4c",
      "transactionType": "CALL",
      "contractName": null,
      "contractAddress": "0x962aba0a590981cf9c5b336ac34922c82f203165",
      "function": "buyPrimary(uint256,uint256)",
      "arguments": [
        "22",
        "28"
      ],
      "transaction": {
        "from": "0x81d48d2c5d0744e8ef7a5c35cdceb0a27a1c707b",
        "to": "0x962aba0a590981cf9c5b336ac34922c82f203165",
        "gas": "0x1b1fd",
        "value": "0xa61dfb94896d0000",
        "input": "0xe37178f10000000000000000000000000000000000000000000000000000000000000016000000000000000000000000000000000000000000000000000000000000001c",
        "nonce": "0x20b",
        "chainId": "0x4cef52"
      },
      "additionalContracts": [],
      "isFixedGasLimit": false
    },
    {
      "hash": "0x3990c3aee8b79dab496aa2c38632aaa4caf92e47d40447f21f356f9f4569641a",
      "transactionType": "CALL",
      "contractName": null,
      "contractAddress": "0x962aba0a590981cf9c5b336ac34922c82f203165",
      "function": "buyPrimary(uint256,uint256)",
      "arguments": [
        "22",
        "35"
      ],
      "transaction": {
        "from": "0x81d48d2c5d0744e8ef7a5c35cdceb0a27a1c707b",
        "to": "0x962aba0a590981cf9c5b336ac34922c82f203165",
        "gas": "0x1b1fd",
        "value": "0xcfa57a79abc84000",
        "input": "0xe37178f100000000000000000000000000000000000000000000000000000000000000160000000000000000000000000000000000000000000000000000000000000023",
        "nonce": "0x20c",
        "chainId": "0x4cef52"
      },
      "additionalContracts": [],
      "isFixedGasLimit": false
    },
    {
      "hash": "0x78d6a9e6a8f596837622025731f08dd78afc906dcf34d7af870d9bd5636987a3",
      "transactionType": "CALL",
      "contractName": null,
      "contractAddress": "0x962aba0a590981cf9c5b336ac34922c82f203165",
      "function": "buyPrimary(uint256,uint256)",
      "arguments": [
        "23",
        "51"
      ],
      "transaction": {
        "from": "0x81d48d2c5d0744e8ef7a5c35cdceb0a27a1c707b",
        "to": "0x962aba0a590981cf9c5b336ac34922c82f203165",
        "gas": "0x1b1fd",
        "value": "0xd015638ef2350000",
        "input": "0xe37178f100000000000000000000000000000000000000000000000000000000000000170000000000000000000000000000000000000000000000000000000000000033",
        "nonce": "0x20d",
        "chainId": "0x4cef52"
      },
      "additionalContracts": [],
      "isFixedGasLimit": false
    },
    {
      "hash": "0x8ed71757d1d0b5a8bda12618db70ef692b79a3a7b1eb67fcb9cdd1773540042e",
      "transactionType": "CALL",
      "contractName": null,
      "contractAddress": "0x962aba0a590981cf9c5b336ac34922c82f203165",
      "function": "buyPrimary(uint256,uint256)",
      "arguments": [
        "24",
        "1250"
      ],
      "transaction": {
        "from": "0x81d48d2c5d0744e8ef7a5c35cdceb0a27a1c707b",
        "to": "0x962aba0a590981cf9c5b336ac34922c82f203165",
        "gas": "0x1b20e",
        "value": "0x1a055690d9db80000",
        "input": "0xe37178f1000000000000000000000000000000000000000000000000000000000000001800000000000000000000000000000000000000000000000000000000000004e2",
        "nonce": "0x20e",
        "chainId": "0x4cef52"
      },
      "additionalContracts": [],
      "isFixedGasLimit": false
    },
    {
      "hash": "0x3546bfa8990cd647aab1b80efe0b39c7cee20af200ccefbd8cec4f5b873566f0",
      "transactionType": "CALL",
      "contractName": null,
      "contractAddress": "0x962aba0a590981cf9c5b336ac34922c82f203165",
      "function": "buyPrimary(uint256,uint256)",
      "arguments": [
        "24",
        "333"
      ],
      "transaction": {
        "from": "0x81d48d2c5d0744e8ef7a5c35cdceb0a27a1c707b",
        "to": "0x962aba0a590981cf9c5b336ac34922c82f203165",
        "gas": "0x1b20e",
        "value": "0x6ee949a814ec0000",
        "input": "0xe37178f10000000000000000000000000000000000000000000000000000000000000018000000000000000000000000000000000000000000000000000000000000014d",
        "nonce": "0x20f",
        "chainId": "0x4cef52"
      },
      "additionalContracts": [],
      "isFixedGasLimit": false
    },
    {
      "hash": "0xf35db202af90e721e6b214a97110081c12eac729e4d84338e5d6a3557cd9ab6c",
      "transactionType": "CALL",
      "contractName": null,
      "contractAddress": "0x962aba0a590981cf9c5b336ac34922c82f203165",
      "function": "buyPrimary(uint256,uint256)",
      "arguments": [
        "25",
        "10"
      ],
      "transaction": {
        "from": "0x81d48d2c5d0744e8ef7a5c35cdceb0a27a1c707b",
        "to": "0x962aba0a590981cf9c5b336ac34922c82f203165",
        "gas": "0x1b1fd",
        "value": "0x6c8638915f8e0000",
        "input": "0xe37178f10000000000000000000000000000000000000000000000000000000000000019000000000000000000000000000000000000000000000000000000000000000a",
        "nonce": "0x210",
        "chainId": "0x4cef52"
      },
      "additionalContracts": [],
      "isFixedGasLimit": false
    },
    {
      "hash": "0x8404c70db140ca0e167553530fddab323424826c06ed43958317c5e9f9b1bd29",
      "transactionType": "CALL",
      "contractName": null,
      "contractAddress": "0x962aba0a590981cf9c5b336ac34922c82f203165",
      "function": "buyPrimary(uint256,uint256)",
      "arguments": [
        "26",
        "18"
      ],
      "transaction": {
        "from": "0x81d48d2c5d0744e8ef7a5c35cdceb0a27a1c707b",
        "to": "0x962aba0a590981cf9c5b336ac34922c82f203165",
        "gas": "0x1b1fd",
        "value": "0x9fdf42f6e4800000",
        "input": "0xe37178f1000000000000000000000000000000000000000000000000000000000000001a0000000000000000000000000000000000000000000000000000000000000012",
        "nonce": "0x211",
        "chainId": "0x4cef52"
      },
      "additionalContracts": [],
      "isFixedGasLimit": false
    },
    {
      "hash": "0x146cabf0945efb9c29aca338d9bd5dd1d57a798d0e6f7f4c5917ca1dda84e98b",
      "transactionType": "CALL",
      "contractName": null,
      "contractAddress": "0x962aba0a590981cf9c5b336ac34922c82f203165",
      "function": "buyPrimary(uint256,uint256)",
      "arguments": [
        "26",
        "23"
      ],
      "transaction": {
        "from": "0x81d48d2c5d0744e8ef7a5c35cdceb0a27a1c707b",
        "to": "0x962aba0a590981cf9c5b336ac34922c82f203165",
        "gas": "0x1b1fd",
        "value": "0xcc47f20295c00000",
        "input": "0xe37178f1000000000000000000000000000000000000000000000000000000000000001a0000000000000000000000000000000000000000000000000000000000000017",
        "nonce": "0x212",
        "chainId": "0x4cef52"
      },
      "additionalContracts": [],
      "isFixedGasLimit": false
    },
    {
      "hash": "0xc1a985ee30aef7bc6e90a48ffcf9410c131c4e079970c8cc2fd94d2b54bffc98",
      "transactionType": "CALL",
      "contractName": null,
      "contractAddress": "0x962aba0a590981cf9c5b336ac34922c82f203165",
      "function": "buyPrimary(uint256,uint256)",
      "arguments": [
        "27",
        "12"
      ],
      "transaction": {
        "from": "0x81d48d2c5d0744e8ef7a5c35cdceb0a27a1c707b",
        "to": "0x962aba0a590981cf9c5b336ac34922c82f203165",
        "gas": "0x1b1fd",
        "value": "0xc7d713b49da00000",
        "input": "0xe37178f1000000000000000000000000000000000000000000000000000000000000001b000000000000000000000000000000000000000000000000000000000000000c",
        "nonce": "0x213",
        "chainId": "0x4cef52"
      },
      "additionalContracts": [],
      "isFixedGasLimit": false
    },
    {
      "hash": "0x109f7666bae4e8c2e2035c2d0c03ccc25b67780a5a214d920572b13c45861e19",
      "transactionType": "CALL",
      "contractName": null,
      "contractAddress": "0x962aba0a590981cf9c5b336ac34922c82f203165",
      "function": "buyPrimary(uint256,uint256)",
      "arguments": [
        "28",
        "300"
      ],
      "transaction": {
        "from": "0x81d48d2c5d0744e8ef7a5c35cdceb0a27a1c707b",
        "to": "0x962aba0a590981cf9c5b336ac34922c82f203165",
        "gas": "0x1b20e",
        "value": "0x1a055690d9db80000",
        "input": "0xe37178f1000000000000000000000000000000000000000000000000000000000000001c000000000000000000000000000000000000000000000000000000000000012c",
        "nonce": "0x214",
        "chainId": "0x4cef52"
      },
      "additionalContracts": [],
      "isFixedGasLimit": false
    },
    {
      "hash": "0x257fe9ceafc4b802ba8d2d41fdf3082223a367a6d09665056d9efe1c647765c0",
      "transactionType": "CALL",
      "contractName": null,
      "contractAddress": "0x962aba0a590981cf9c5b336ac34922c82f203165",
      "function": "buyPrimary(uint256,uint256)",
      "arguments": [
        "28",
        "80"
      ],
      "transaction": {
        "from": "0x81d48d2c5d0744e8ef7a5c35cdceb0a27a1c707b",
        "to": "0x962aba0a590981cf9c5b336ac34922c82f203165",
        "gas": "0x1b1fd",
        "value": "0x6f05b59d3b200000",
        "input": "0xe37178f1000000000000000000000000000000000000000000000000000000000000001c0000000000000000000000000000000000000000000000000000000000000050",
        "nonce": "0x215",
        "chainId": "0x4cef52"
      },
      "additionalContracts": [],
      "isFixedGasLimit": false
    }
  ],
  "receipts": [
    {
      "status": "0x1",
      "cumulativeGasUsed": "0x85968",
      "logs": [
        {
          "address": "0xfffffffffffffffffffffffffffffffffffffffe",
          "topics": [
            "0xddf252ad1be2c89b69c2b068fc378daa952ba7f163c4a11628f55a4df523b3ef",
            "0x00000000000000000000000081d48d2c5d0744e8ef7a5c35cdceb0a27a1c707b",
            "0x000000000000000000000000962aba0a590981cf9c5b336ac34922c82f203165"
          ],
          "data": "0x000000000000000000000000000000000000000000000000d02ab486cedc0000",
          "blockHash": "0x9a422a70f413a5318d1ea12f7fc1eb48c9dd9f1b42d84b61be42add87b2a3fd2",
          "blockNumber": "0x2f9ad68",
          "blockTimestamp": "0x6a4734fb",
          "transactionHash": "0xa819d3ee0e6c090c7757427e87a9880fc7f601bf7bce2d40c4886db75c40cb3f",
          "transactionIndex": "0x7",
          "logIndex": "0x10",
          "removed": false
        },
        {
          "address": "0x962aba0a590981cf9c5b336ac34922c82f203165",
          "topics": [
            "0x82bc30c29d8133d53d443f5e28b84e0fd2b5dcaf3957347d2a67d598186dc07e",
            "0x000000000000000000000000000000000000000000000000000000000000000f",
            "0x000000000000000000000000000000000000000000000000000000000000000f",
            "0x00000000000000000000000081d48d2c5d0744e8ef7a5c35cdceb0a27a1c707b"
          ],
          "data": "0x000000000000000000000000000000000000000000000000000000000000000f000000000000000000000000000000000000000000000000d02ab486cedc0000000000000000000000000000000000000000000000000000010a741a46278000",
          "blockHash": "0x9a422a70f413a5318d1ea12f7fc1eb48c9dd9f1b42d84b61be42add87b2a3fd2",
          "blockNumber": "0x2f9ad68",
          "blockTimestamp": "0x6a4734fb",
          "transactionHash": "0xa819d3ee0e6c090c7757427e87a9880fc7f601bf7bce2d40c4886db75c40cb3f",
          "transactionIndex": "0x7",
          "logIndex": "0x11",
          "removed": false
        },
        {
          "address": "0x4d82b6e528d3c2e1a3592e14863ec95eaef4ff85",
          "topics": [
            "0xc3d58168c5ae7397731d063d5bbf3d657854427343f4c083240f7aacaa2d0f62",
            "0x000000000000000000000000962aba0a590981cf9c5b336ac34922c82f203165",
            "0x000000000000000000000000962aba0a590981cf9c5b336ac34922c82f203165",
            "0x00000000000000000000000081d48d2c5d0744e8ef7a5c35cdceb0a27a1c707b"
          ],
          "data": "0x000000000000000000000000000000000000000000000000000000000000000f000000000000000000000000000000000000000000000000000000000000000f",
          "blockHash": "0x9a422a70f413a5318d1ea12f7fc1eb48c9dd9f1b42d84b61be42add87b2a3fd2",
          "blockNumber": "0x2f9ad68",
          "blockTimestamp": "0x6a4734fb",
          "transactionHash": "0xa819d3ee0e6c090c7757427e87a9880fc7f601bf7bce2d40c4886db75c40cb3f",
          "transactionIndex": "0x7",
          "logIndex": "0x12",
          "removed": false
        },
        {
          "address": "0xfffffffffffffffffffffffffffffffffffffffe",
          "topics": [
            "0xddf252ad1be2c89b69c2b068fc378daa952ba7f163c4a11628f55a4df523b3ef",
            "0x000000000000000000000000962aba0a590981cf9c5b336ac34922c82f203165",
            "0x00000000000000000000000081d48d2c5d0744e8ef7a5c35cdceb0a27a1c707b"
          ],
          "data": "0x000000000000000000000000000000000000000000000000cf20406c88b48000",
          "blockHash": "0x9a422a70f413a5318d1ea12f7fc1eb48c9dd9f1b42d84b61be42add87b2a3fd2",
          "blockNumber": "0x2f9ad68",
          "blockTimestamp": "0x6a4734fb",
          "transactionHash": "0xa819d3ee0e6c090c7757427e87a9880fc7f601bf7bce2d40c4886db75c40cb3f",
          "transactionIndex": "0x7",
          "logIndex": "0x13",
          "removed": false
        },
        {
          "address": "0xfffffffffffffffffffffffffffffffffffffffe",
          "topics": [
            "0xddf252ad1be2c89b69c2b068fc378daa952ba7f163c4a11628f55a4df523b3ef",
            "0x000000000000000000000000962aba0a590981cf9c5b336ac34922c82f203165",
            "0x00000000000000000000000084e243a60a75efe615537af49c5eaee8f3c32ed9"
          ],
          "data": "0x000000000000000000000000000000000000000000000000010a741a46278000",
          "blockHash": "0x9a422a70f413a5318d1ea12f7fc1eb48c9dd9f1b42d84b61be42add87b2a3fd2",
          "blockNumber": "0x2f9ad68",
          "blockTimestamp": "0x6a4734fb",
          "transactionHash": "0xa819d3ee0e6c090c7757427e87a9880fc7f601bf7bce2d40c4886db75c40cb3f",
          "transactionIndex": "0x7",
          "logIndex": "0x14",
          "removed": false
        }
      ],
      "logsBloom": "0x00000000400000000000000400000080000000000000000000000000000000000000000000000000000000000200000000000000000000000002000000002000000000000000000000000008000000000000000000000000001000000006000000000000000000012000000000200000000000000000000000000010000000000000000000200800000000000000000000000000000000000000000000000000000000000000000000000000000000000001000000000000000000000000000000000002000000000008004000000000000000000009000000000000400000400600000200000000000000000000000000000000000000000200080000080000",
      "type": "0x2",
      "transactionHash": "0xa819d3ee0e6c090c7757427e87a9880fc7f601bf7bce2d40c4886db75c40cb3f",
      "transactionIndex": "0x7",
      "blockHash": "0x9a422a70f413a5318d1ea12f7fc1eb48c9dd9f1b42d84b61be42add87b2a3fd2",
      "blockNumber": "0x2f9ad68",
      "gasUsed": "0x13a34",
      "effectiveGasPrice": "0x5d21dba00",
      "from": "0x81d48d2c5d0744e8ef7a5c35cdceb0a27a1c707b",
      "to": "0x962aba0a590981cf9c5b336ac34922c82f203165",
      "contractAddress": null
    },
    {
      "status": "0x1",
      "cumulativeGasUsed": "0x9939c",
      "logs": [
        {
          "address": "0xfffffffffffffffffffffffffffffffffffffffe",
          "topics": [
            "0xddf252ad1be2c89b69c2b068fc378daa952ba7f163c4a11628f55a4df523b3ef",
            "0x00000000000000000000000081d48d2c5d0744e8ef7a5c35cdceb0a27a1c707b",
            "0x000000000000000000000000962aba0a590981cf9c5b336ac34922c82f203165"
          ],
          "data": "0x000000000000000000000000000000000000000000000001a02ac71de46a0000",
          "blockHash": "0x9a422a70f413a5318d1ea12f7fc1eb48c9dd9f1b42d84b61be42add87b2a3fd2",
          "blockNumber": "0x2f9ad68",
          "blockTimestamp": "0x6a4734fb",
          "transactionHash": "0xfa4f0caff04933bd7c682680a7e7f417f27cf0138f2de54399c5f4fd81648ebf",
          "transactionIndex": "0x8",
          "logIndex": "0x15",
          "removed": false
        },
        {
          "address": "0x962aba0a590981cf9c5b336ac34922c82f203165",
          "topics": [
            "0x82bc30c29d8133d53d443f5e28b84e0fd2b5dcaf3957347d2a67d598186dc07e",
            "0x0000000000000000000000000000000000000000000000000000000000000010",
            "0x0000000000000000000000000000000000000000000000000000000000000010",
            "0x00000000000000000000000081d48d2c5d0744e8ef7a5c35cdceb0a27a1c707b"
          ],
          "data": "0x000000000000000000000000000000000000000000000000000000000000007e000000000000000000000000000000000000000000000001a02ac71de46a00000000000000000000000000000000000000000000000000000214b1a2b59f4000",
          "blockHash": "0x9a422a70f413a5318d1ea12f7fc1eb48c9dd9f1b42d84b61be42add87b2a3fd2",
          "blockNumber": "0x2f9ad68",
          "blockTimestamp": "0x6a4734fb",
          "transactionHash": "0xfa4f0caff04933bd7c682680a7e7f417f27cf0138f2de54399c5f4fd81648ebf",
          "transactionIndex": "0x8",
          "logIndex": "0x16",
          "removed": false
        },
        {
          "address": "0x4d82b6e528d3c2e1a3592e14863ec95eaef4ff85",
          "topics": [
            "0xc3d58168c5ae7397731d063d5bbf3d657854427343f4c083240f7aacaa2d0f62",
            "0x000000000000000000000000962aba0a590981cf9c5b336ac34922c82f203165",
            "0x000000000000000000000000962aba0a590981cf9c5b336ac34922c82f203165",
            "0x00000000000000000000000081d48d2c5d0744e8ef7a5c35cdceb0a27a1c707b"
          ],
          "data": "0x0000000000000000000000000000000000000000000000000000000000000010000000000000000000000000000000000000000000000000000000000000007e",
          "blockHash": "0x9a422a70f413a5318d1ea12f7fc1eb48c9dd9f1b42d84b61be42add87b2a3fd2",
          "blockNumber": "0x2f9ad68",
          "blockTimestamp": "0x6a4734fb",
          "transactionHash": "0xfa4f0caff04933bd7c682680a7e7f417f27cf0138f2de54399c5f4fd81648ebf",
          "transactionIndex": "0x8",
          "logIndex": "0x17",
          "removed": false
        },
        {
          "address": "0xfffffffffffffffffffffffffffffffffffffffe",
          "topics": [
            "0xddf252ad1be2c89b69c2b068fc378daa952ba7f163c4a11628f55a4df523b3ef",
            "0x000000000000000000000000962aba0a590981cf9c5b336ac34922c82f203165",
            "0x00000000000000000000000081d48d2c5d0744e8ef7a5c35cdceb0a27a1c707b"
          ],
          "data": "0x0000000000000000000000000000000000000000000000019e16157b2ecac000",
          "blockHash": "0x9a422a70f413a5318d1ea12f7fc1eb48c9dd9f1b42d84b61be42add87b2a3fd2",
          "blockNumber": "0x2f9ad68",
          "blockTimestamp": "0x6a4734fb",
          "transactionHash": "0xfa4f0caff04933bd7c682680a7e7f417f27cf0138f2de54399c5f4fd81648ebf",
          "transactionIndex": "0x8",
          "logIndex": "0x18",
          "removed": false
        },
        {
          "address": "0xfffffffffffffffffffffffffffffffffffffffe",
          "topics": [
            "0xddf252ad1be2c89b69c2b068fc378daa952ba7f163c4a11628f55a4df523b3ef",
            "0x000000000000000000000000962aba0a590981cf9c5b336ac34922c82f203165",
            "0x00000000000000000000000084e243a60a75efe615537af49c5eaee8f3c32ed9"
          ],
          "data": "0x0000000000000000000000000000000000000000000000000214b1a2b59f4000",
          "blockHash": "0x9a422a70f413a5318d1ea12f7fc1eb48c9dd9f1b42d84b61be42add87b2a3fd2",
          "blockNumber": "0x2f9ad68",
          "blockTimestamp": "0x6a4734fb",
          "transactionHash": "0xfa4f0caff04933bd7c682680a7e7f417f27cf0138f2de54399c5f4fd81648ebf",
          "transactionIndex": "0x8",
          "logIndex": "0x19",
          "removed": false
        }
      ],
      "logsBloom": "0x00000000500000000000000400000080000000000000000000000000000000000000000000000000000000000200000000000000000000000002000000002000000000000000000000000008000000000000000000000000001000000004000000000000000000012000000000200000000000000000000000000010040000000000000000200000000000000000000000000100000000000000000000000000000000000000000000000000000000000001000000000000000000000000000000000002000000000008004000000000000000000009000000000000400000400600000000000000000000000000000000000000000000000200080000080000",
      "type": "0x2",
      "transactionHash": "0xfa4f0caff04933bd7c682680a7e7f417f27cf0138f2de54399c5f4fd81648ebf",
      "transactionIndex": "0x8",
      "blockHash": "0x9a422a70f413a5318d1ea12f7fc1eb48c9dd9f1b42d84b61be42add87b2a3fd2",
      "blockNumber": "0x2f9ad68",
      "gasUsed": "0x13a34",
      "effectiveGasPrice": "0x5d21dba00",
      "from": "0x81d48d2c5d0744e8ef7a5c35cdceb0a27a1c707b",
      "to": "0x962aba0a590981cf9c5b336ac34922c82f203165",
      "contractAddress": null
    },
    {
      "status": "0x1",
      "cumulativeGasUsed": "0xacdd0",
      "logs": [
        {
          "address": "0xfffffffffffffffffffffffffffffffffffffffe",
          "topics": [
            "0xddf252ad1be2c89b69c2b068fc378daa952ba7f163c4a11628f55a4df523b3ef",
            "0x00000000000000000000000081d48d2c5d0744e8ef7a5c35cdceb0a27a1c707b",
            "0x000000000000000000000000962aba0a590981cf9c5b336ac34922c82f203165"
          ],
          "data": "0x0000000000000000000000000000000000000000000000006cff036341eb0000",
          "blockHash": "0x9a422a70f413a5318d1ea12f7fc1eb48c9dd9f1b42d84b61be42add87b2a3fd2",
          "blockNumber": "0x2f9ad68",
          "blockTimestamp": "0x6a4734fb",
          "transactionHash": "0x74b964fdf02f9f95f5705bf0c48065abf8641387d9c99eb30ada7b12f30bc9f2",
          "transactionIndex": "0x9",
          "logIndex": "0x1a",
          "removed": false
        },
        {
          "address": "0x962aba0a590981cf9c5b336ac34922c82f203165",
          "topics": [
            "0x82bc30c29d8133d53d443f5e28b84e0fd2b5dcaf3957347d2a67d598186dc07e",
            "0x0000000000000000000000000000000000000000000000000000000000000010",
            "0x0000000000000000000000000000000000000000000000000000000000000010",
            "0x00000000000000000000000081d48d2c5d0744e8ef7a5c35cdceb0a27a1c707b"
          ],
          "data": "0x00000000000000000000000000000000000000000000000000000000000000210000000000000000000000000000000000000000000000006cff036341eb0000000000000000000000000000000000000000000000000000008b83db60546000",
          "blockHash": "0x9a422a70f413a5318d1ea12f7fc1eb48c9dd9f1b42d84b61be42add87b2a3fd2",
          "blockNumber": "0x2f9ad68",
          "blockTimestamp": "0x6a4734fb",
          "transactionHash": "0x74b964fdf02f9f95f5705bf0c48065abf8641387d9c99eb30ada7b12f30bc9f2",
          "transactionIndex": "0x9",
          "logIndex": "0x1b",
          "removed": false
        },
        {
          "address": "0x4d82b6e528d3c2e1a3592e14863ec95eaef4ff85",
          "topics": [
            "0xc3d58168c5ae7397731d063d5bbf3d657854427343f4c083240f7aacaa2d0f62",
            "0x000000000000000000000000962aba0a590981cf9c5b336ac34922c82f203165",
            "0x000000000000000000000000962aba0a590981cf9c5b336ac34922c82f203165",
            "0x00000000000000000000000081d48d2c5d0744e8ef7a5c35cdceb0a27a1c707b"
          ],
          "data": "0x00000000000000000000000000000000000000000000000000000000000000100000000000000000000000000000000000000000000000000000000000000021",
          "blockHash": "0x9a422a70f413a5318d1ea12f7fc1eb48c9dd9f1b42d84b61be42add87b2a3fd2",
          "blockNumber": "0x2f9ad68",
          "blockTimestamp": "0x6a4734fb",
          "transactionHash": "0x74b964fdf02f9f95f5705bf0c48065abf8641387d9c99eb30ada7b12f30bc9f2",
          "transactionIndex": "0x9",
          "logIndex": "0x1c",
          "removed": false
        },
        {
          "address": "0xfffffffffffffffffffffffffffffffffffffffe",
          "topics": [
            "0xddf252ad1be2c89b69c2b068fc378daa952ba7f163c4a11628f55a4df523b3ef",
            "0x000000000000000000000000962aba0a590981cf9c5b336ac34922c82f203165",
            "0x00000000000000000000000081d48d2c5d0744e8ef7a5c35cdceb0a27a1c707b"
          ],
          "data": "0x0000000000000000000000000000000000000000000000006c737f87e196a000",
          "blockHash": "0x9a422a70f413a5318d1ea12f7fc1eb48c9dd9f1b42d84b61be42add87b2a3fd2",
          "blockNumber": "0x2f9ad68",
          "blockTimestamp": "0x6a4734fb",
          "transactionHash": "0x74b964fdf02f9f95f5705bf0c48065abf8641387d9c99eb30ada7b12f30bc9f2",
          "transactionIndex": "0x9",
          "logIndex": "0x1d",
          "removed": false
        },
        {
          "address": "0xfffffffffffffffffffffffffffffffffffffffe",
          "topics": [
            "0xddf252ad1be2c89b69c2b068fc378daa952ba7f163c4a11628f55a4df523b3ef",
            "0x000000000000000000000000962aba0a590981cf9c5b336ac34922c82f203165",
            "0x00000000000000000000000084e243a60a75efe615537af49c5eaee8f3c32ed9"
          ],
          "data": "0x000000000000000000000000000000000000000000000000008b83db60546000",
          "blockHash": "0x9a422a70f413a5318d1ea12f7fc1eb48c9dd9f1b42d84b61be42add87b2a3fd2",
          "blockNumber": "0x2f9ad68",
          "blockTimestamp": "0x6a4734fb",
          "transactionHash": "0x74b964fdf02f9f95f5705bf0c48065abf8641387d9c99eb30ada7b12f30bc9f2",
          "transactionIndex": "0x9",
          "logIndex": "0x1e",
          "removed": false
        }
      ],
      "logsBloom": "0x00000000500000000000000400000080000000000000000000000000000000000000000000000000000000000200000000000000000000000002000000002000000000000000000000000008000000000000000000000000001000000004000000000000000000012000000000200000000000000000000000000010040000000000000000200000000000000000000000000100000000000000000000000000000000000000000000000000000000000001000000000000000000000000000000000002000000000008004000000000000000000009000000000000400000400600000000000000000000000000000000000000000000000200080000080000",
      "type": "0x2",
      "transactionHash": "0x74b964fdf02f9f95f5705bf0c48065abf8641387d9c99eb30ada7b12f30bc9f2",
      "transactionIndex": "0x9",
      "blockHash": "0x9a422a70f413a5318d1ea12f7fc1eb48c9dd9f1b42d84b61be42add87b2a3fd2",
      "blockNumber": "0x2f9ad68",
      "gasUsed": "0x13a34",
      "effectiveGasPrice": "0x5d21dba00",
      "from": "0x81d48d2c5d0744e8ef7a5c35cdceb0a27a1c707b",
      "to": "0x962aba0a590981cf9c5b336ac34922c82f203165",
      "contractAddress": null
    },
    {
      "status": "0x1",
      "cumulativeGasUsed": "0xc0804",
      "logs": [
        {
          "address": "0xfffffffffffffffffffffffffffffffffffffffe",
          "topics": [
            "0xddf252ad1be2c89b69c2b068fc378daa952ba7f163c4a11628f55a4df523b3ef",
            "0x00000000000000000000000081d48d2c5d0744e8ef7a5c35cdceb0a27a1c707b",
            "0x000000000000000000000000962aba0a590981cf9c5b336ac34922c82f203165"
          ],
          "data": "0x0000000000000000000000000000000000000000000000006bd495d530c90000",
          "blockHash": "0x9a422a70f413a5318d1ea12f7fc1eb48c9dd9f1b42d84b61be42add87b2a3fd2",
          "blockNumber": "0x2f9ad68",
          "blockTimestamp": "0x6a4734fb",
          "transactionHash": "0xb5eeccadc989c7c8ac9caa1b99a95fc4675f38af48b990b2d311f683503249f5",
          "transactionIndex": "0xa",
          "logIndex": "0x1f",
          "removed": false
        },
        {
          "address": "0x962aba0a590981cf9c5b336ac34922c82f203165",
          "topics": [
            "0x82bc30c29d8133d53d443f5e28b84e0fd2b5dcaf3957347d2a67d598186dc07e",
            "0x0000000000000000000000000000000000000000000000000000000000000011",
            "0x0000000000000000000000000000000000000000000000000000000000000011",
            "0x00000000000000000000000081d48d2c5d0744e8ef7a5c35cdceb0a27a1c707b"
          ],
          "data": "0x000000000000000000000000000000000000000000000000000000000000000e0000000000000000000000000000000000000000000000006bd495d530c90000000000000000000000000000000000000000000000000000008a05de81862000",
          "blockHash": "0x9a422a70f413a5318d1ea12f7fc1eb48c9dd9f1b42d84b61be42add87b2a3fd2",
          "blockNumber": "0x2f9ad68",
          "blockTimestamp": "0x6a4734fb",
          "transactionHash": "0xb5eeccadc989c7c8ac9caa1b99a95fc4675f38af48b990b2d311f683503249f5",
          "transactionIndex": "0xa",
          "logIndex": "0x20",
          "removed": false
        },
        {
          "address": "0x4d82b6e528d3c2e1a3592e14863ec95eaef4ff85",
          "topics": [
            "0xc3d58168c5ae7397731d063d5bbf3d657854427343f4c083240f7aacaa2d0f62",
            "0x000000000000000000000000962aba0a590981cf9c5b336ac34922c82f203165",
            "0x000000000000000000000000962aba0a590981cf9c5b336ac34922c82f203165",
            "0x00000000000000000000000081d48d2c5d0744e8ef7a5c35cdceb0a27a1c707b"
          ],
          "data": "0x0000000000000000000000000000000000000000000000000000000000000011000000000000000000000000000000000000000000000000000000000000000e",
          "blockHash": "0x9a422a70f413a5318d1ea12f7fc1eb48c9dd9f1b42d84b61be42add87b2a3fd2",
          "blockNumber": "0x2f9ad68",
          "blockTimestamp": "0x6a4734fb",
          "transactionHash": "0xb5eeccadc989c7c8ac9caa1b99a95fc4675f38af48b990b2d311f683503249f5",
          "transactionIndex": "0xa",
          "logIndex": "0x21",
          "removed": false
        },
        {
          "address": "0xfffffffffffffffffffffffffffffffffffffffe",
          "topics": [
            "0xddf252ad1be2c89b69c2b068fc378daa952ba7f163c4a11628f55a4df523b3ef",
            "0x000000000000000000000000962aba0a590981cf9c5b336ac34922c82f203165",
            "0x00000000000000000000000081d48d2c5d0744e8ef7a5c35cdceb0a27a1c707b"
          ],
          "data": "0x0000000000000000000000000000000000000000000000006b4a8ff6af42e000",
          "blockHash": "0x9a422a70f413a5318d1ea12f7fc1eb48c9dd9f1b42d84b61be42add87b2a3fd2",
          "blockNumber": "0x2f9ad68",
          "blockTimestamp": "0x6a4734fb",
          "transactionHash": "0xb5eeccadc989c7c8ac9caa1b99a95fc4675f38af48b990b2d311f683503249f5",
          "transactionIndex": "0xa",
          "logIndex": "0x22",
          "removed": false
        },
        {
          "address": "0xfffffffffffffffffffffffffffffffffffffffe",
          "topics": [
            "0xddf252ad1be2c89b69c2b068fc378daa952ba7f163c4a11628f55a4df523b3ef",
            "0x000000000000000000000000962aba0a590981cf9c5b336ac34922c82f203165",
            "0x00000000000000000000000084e243a60a75efe615537af49c5eaee8f3c32ed9"
          ],
          "data": "0x000000000000000000000000000000000000000000000000008a05de81862000",
          "blockHash": "0x9a422a70f413a5318d1ea12f7fc1eb48c9dd9f1b42d84b61be42add87b2a3fd2",
          "blockNumber": "0x2f9ad68",
          "blockTimestamp": "0x6a4734fb",
          "transactionHash": "0xb5eeccadc989c7c8ac9caa1b99a95fc4675f38af48b990b2d311f683503249f5",
          "transactionIndex": "0xa",
          "logIndex": "0x23",
          "removed": false
        }
      ],
      "logsBloom": "0x00000000400000000000000400000080000000000000000000000000000000000000000000000000000000000200000000000000000000000002000000002000000000000000000000000008000000000000000000000000001000000004000000000000000000012000000000200000000000004000000000000010000000000000000000200000000000000000000000000000000000000000000000000000000000000000000000000000000000000001000000000000000000000400000000001002000000000008004000000000000000000009000000000000400000400600000000000000000000000000000000000000000000000200080000080000",
      "type": "0x2",
      "transactionHash": "0xb5eeccadc989c7c8ac9caa1b99a95fc4675f38af48b990b2d311f683503249f5",
      "transactionIndex": "0xa",
      "blockHash": "0x9a422a70f413a5318d1ea12f7fc1eb48c9dd9f1b42d84b61be42add87b2a3fd2",
      "blockNumber": "0x2f9ad68",
      "gasUsed": "0x13a34",
      "effectiveGasPrice": "0x5d21dba00",
      "from": "0x81d48d2c5d0744e8ef7a5c35cdceb0a27a1c707b",
      "to": "0x962aba0a590981cf9c5b336ac34922c82f203165",
      "contractAddress": null
    },
    {
      "status": "0x1",
      "cumulativeGasUsed": "0xd4244",
      "logs": [
        {
          "address": "0xfffffffffffffffffffffffffffffffffffffffe",
          "topics": [
            "0xddf252ad1be2c89b69c2b068fc378daa952ba7f163c4a11628f55a4df523b3ef",
            "0x00000000000000000000000081d48d2c5d0744e8ef7a5c35cdceb0a27a1c707b",
            "0x000000000000000000000000962aba0a590981cf9c5b336ac34922c82f203165"
          ],
          "data": "0x000000000000000000000000000000000000000000000000a65dee7c1f620000",
          "blockHash": "0x9a422a70f413a5318d1ea12f7fc1eb48c9dd9f1b42d84b61be42add87b2a3fd2",
          "blockNumber": "0x2f9ad68",
          "blockTimestamp": "0x6a4734fb",
          "transactionHash": "0x45e5226a71843f6368607c0e5a7814728e0e328ea733bafb73fa7750ce3383b8",
          "transactionIndex": "0xb",
          "logIndex": "0x24",
          "removed": false
        },
        {
          "address": "0x962aba0a590981cf9c5b336ac34922c82f203165",
          "topics": [
            "0x82bc30c29d8133d53d443f5e28b84e0fd2b5dcaf3957347d2a67d598186dc07e",
            "0x0000000000000000000000000000000000000000000000000000000000000012",
            "0x0000000000000000000000000000000000000000000000000000000000000012",
            "0x00000000000000000000000081d48d2c5d0744e8ef7a5c35cdceb0a27a1c707b"
          ],
          "data": "0x0000000000000000000000000000000000000000000000000000000000000288000000000000000000000000000000000000000000000000a65dee7c1f62000000000000000000000000000000000000000000000000000000d4f31cc7d64000",
          "blockHash": "0x9a422a70f413a5318d1ea12f7fc1eb48c9dd9f1b42d84b61be42add87b2a3fd2",
          "blockNumber": "0x2f9ad68",
          "blockTimestamp": "0x6a4734fb",
          "transactionHash": "0x45e5226a71843f6368607c0e5a7814728e0e328ea733bafb73fa7750ce3383b8",
          "transactionIndex": "0xb",
          "logIndex": "0x25",
          "removed": false
        },
        {
          "address": "0x4d82b6e528d3c2e1a3592e14863ec95eaef4ff85",
          "topics": [
            "0xc3d58168c5ae7397731d063d5bbf3d657854427343f4c083240f7aacaa2d0f62",
            "0x000000000000000000000000962aba0a590981cf9c5b336ac34922c82f203165",
            "0x000000000000000000000000962aba0a590981cf9c5b336ac34922c82f203165",
            "0x00000000000000000000000081d48d2c5d0744e8ef7a5c35cdceb0a27a1c707b"
          ],
          "data": "0x00000000000000000000000000000000000000000000000000000000000000120000000000000000000000000000000000000000000000000000000000000288",
          "blockHash": "0x9a422a70f413a5318d1ea12f7fc1eb48c9dd9f1b42d84b61be42add87b2a3fd2",
          "blockNumber": "0x2f9ad68",
          "blockTimestamp": "0x6a4734fb",
          "transactionHash": "0x45e5226a71843f6368607c0e5a7814728e0e328ea733bafb73fa7750ce3383b8",
          "transactionIndex": "0xb",
          "logIndex": "0x26",
          "removed": false
        },
        {
          "address": "0xfffffffffffffffffffffffffffffffffffffffe",
          "topics": [
            "0xddf252ad1be2c89b69c2b068fc378daa952ba7f163c4a11628f55a4df523b3ef",
            "0x000000000000000000000000962aba0a590981cf9c5b336ac34922c82f203165",
            "0x00000000000000000000000081d48d2c5d0744e8ef7a5c35cdceb0a27a1c707b"
          ],
          "data": "0x000000000000000000000000000000000000000000000000a588fb5f578bc000",
          "blockHash": "0x9a422a70f413a5318d1ea12f7fc1eb48c9dd9f1b42d84b61be42add87b2a3fd2",
          "blockNumber": "0x2f9ad68",
          "blockTimestamp": "0x6a4734fb",
          "transactionHash": "0x45e5226a71843f6368607c0e5a7814728e0e328ea733bafb73fa7750ce3383b8",
          "transactionIndex": "0xb",
          "logIndex": "0x27",
          "removed": false
        },
        {
          "address": "0xfffffffffffffffffffffffffffffffffffffffe",
          "topics": [
            "0xddf252ad1be2c89b69c2b068fc378daa952ba7f163c4a11628f55a4df523b3ef",
            "0x000000000000000000000000962aba0a590981cf9c5b336ac34922c82f203165",
            "0x00000000000000000000000084e243a60a75efe615537af49c5eaee8f3c32ed9"
          ],
          "data": "0x00000000000000000000000000000000000000000000000000d4f31cc7d64000",
          "blockHash": "0x9a422a70f413a5318d1ea12f7fc1eb48c9dd9f1b42d84b61be42add87b2a3fd2",
          "blockNumber": "0x2f9ad68",
          "blockTimestamp": "0x6a4734fb",
          "transactionHash": "0x45e5226a71843f6368607c0e5a7814728e0e328ea733bafb73fa7750ce3383b8",
          "transactionIndex": "0xb",
          "logIndex": "0x28",
          "removed": false
        }
      ],
      "logsBloom": "0x00000000400000000000000400000080000000000000000000000000000000000000000000000000000000000200000000000000000000000002000000002000000000000000000000000008000000000000000000000000001000000004000000000000000000012000000000200000000000000000000000000010000000000000000000200000000000000000040000000000000000000000000000000000000000000000000000000000000000000001000000000040000000000000000000000002000000000408004000000000000000000009000000000000400000400600000000000000000000000000000000000000000000000200080000080000",
      "type": "0x2",
      "transactionHash": "0x45e5226a71843f6368607c0e5a7814728e0e328ea733bafb73fa7750ce3383b8",
      "transactionIndex": "0xb",
      "blockHash": "0x9a422a70f413a5318d1ea12f7fc1eb48c9dd9f1b42d84b61be42add87b2a3fd2",
      "blockNumber": "0x2f9ad68",
      "gasUsed": "0x13a40",
      "effectiveGasPrice": "0x5d21dba00",
      "from": "0x81d48d2c5d0744e8ef7a5c35cdceb0a27a1c707b",
      "to": "0x962aba0a590981cf9c5b336ac34922c82f203165",
      "contractAddress": null
    },
    {
      "status": "0x1",
      "cumulativeGasUsed": "0xe7c84",
      "logs": [
        {
          "address": "0xfffffffffffffffffffffffffffffffffffffffe",
          "topics": [
            "0xddf252ad1be2c89b69c2b068fc378daa952ba7f163c4a11628f55a4df523b3ef",
            "0x00000000000000000000000081d48d2c5d0744e8ef7a5c35cdceb0a27a1c707b",
            "0x000000000000000000000000962aba0a590981cf9c5b336ac34922c82f203165"
          ],
          "data": "0x000000000000000000000000000000000000000000000000cff56a1b273a8000",
          "blockHash": "0x9a422a70f413a5318d1ea12f7fc1eb48c9dd9f1b42d84b61be42add87b2a3fd2",
          "blockNumber": "0x2f9ad68",
          "blockTimestamp": "0x6a4734fb",
          "transactionHash": "0xb279bb592efb9e794ad9a35e83f2b4f98e0dd50385c1a97b4711d14991e45af6",
          "transactionIndex": "0xc",
          "logIndex": "0x29",
          "removed": false
        },
        {
          "address": "0x962aba0a590981cf9c5b336ac34922c82f203165",
          "topics": [
            "0x82bc30c29d8133d53d443f5e28b84e0fd2b5dcaf3957347d2a67d598186dc07e",
            "0x0000000000000000000000000000000000000000000000000000000000000012",
            "0x0000000000000000000000000000000000000000000000000000000000000012",
            "0x00000000000000000000000081d48d2c5d0744e8ef7a5c35cdceb0a27a1c707b"
          ],
          "data": "0x000000000000000000000000000000000000000000000000000000000000032a000000000000000000000000000000000000000000000000cff56a1b273a8000000000000000000000000000000000000000000000000000010a2fe3f9cbd000",
          "blockHash": "0x9a422a70f413a5318d1ea12f7fc1eb48c9dd9f1b42d84b61be42add87b2a3fd2",
          "blockNumber": "0x2f9ad68",
          "blockTimestamp": "0x6a4734fb",
          "transactionHash": "0xb279bb592efb9e794ad9a35e83f2b4f98e0dd50385c1a97b4711d14991e45af6",
          "transactionIndex": "0xc",
          "logIndex": "0x2a",
          "removed": false
        },
        {
          "address": "0x4d82b6e528d3c2e1a3592e14863ec95eaef4ff85",
          "topics": [
            "0xc3d58168c5ae7397731d063d5bbf3d657854427343f4c083240f7aacaa2d0f62",
            "0x000000000000000000000000962aba0a590981cf9c5b336ac34922c82f203165",
            "0x000000000000000000000000962aba0a590981cf9c5b336ac34922c82f203165",
            "0x00000000000000000000000081d48d2c5d0744e8ef7a5c35cdceb0a27a1c707b"
          ],
          "data": "0x0000000000000000000000000000000000000000000000000000000000000012000000000000000000000000000000000000000000000000000000000000032a",
          "blockHash": "0x9a422a70f413a5318d1ea12f7fc1eb48c9dd9f1b42d84b61be42add87b2a3fd2",
          "blockNumber": "0x2f9ad68",
          "blockTimestamp": "0x6a4734fb",
          "transactionHash": "0xb279bb592efb9e794ad9a35e83f2b4f98e0dd50385c1a97b4711d14991e45af6",
          "transactionIndex": "0xc",
          "logIndex": "0x2b",
          "removed": false
        },
        {
          "address": "0xfffffffffffffffffffffffffffffffffffffffe",
          "topics": [
            "0xddf252ad1be2c89b69c2b068fc378daa952ba7f163c4a11628f55a4df523b3ef",
            "0x000000000000000000000000962aba0a590981cf9c5b336ac34922c82f203165",
            "0x00000000000000000000000081d48d2c5d0744e8ef7a5c35cdceb0a27a1c707b"
          ],
          "data": "0x000000000000000000000000000000000000000000000000ceeb3a372d6eb000",
          "blockHash": "0x9a422a70f413a5318d1ea12f7fc1eb48c9dd9f1b42d84b61be42add87b2a3fd2",
          "blockNumber": "0x2f9ad68",
          "blockTimestamp": "0x6a4734fb",
          "transactionHash": "0xb279bb592efb9e794ad9a35e83f2b4f98e0dd50385c1a97b4711d14991e45af6",
          "transactionIndex": "0xc",
          "logIndex": "0x2c",
          "removed": false
        },
        {
          "address": "0xfffffffffffffffffffffffffffffffffffffffe",
          "topics": [
            "0xddf252ad1be2c89b69c2b068fc378daa952ba7f163c4a11628f55a4df523b3ef",
            "0x000000000000000000000000962aba0a590981cf9c5b336ac34922c82f203165",
            "0x00000000000000000000000084e243a60a75efe615537af49c5eaee8f3c32ed9"
          ],
          "data": "0x000000000000000000000000000000000000000000000000010a2fe3f9cbd000",
          "blockHash": "0x9a422a70f413a5318d1ea12f7fc1eb48c9dd9f1b42d84b61be42add87b2a3fd2",
          "blockNumber": "0x2f9ad68",
          "blockTimestamp": "0x6a4734fb",
          "transactionHash": "0xb279bb592efb9e794ad9a35e83f2b4f98e0dd50385c1a97b4711d14991e45af6",
          "transactionIndex": "0xc",
          "logIndex": "0x2d",
          "removed": false
        }
      ],
      "logsBloom": "0x00000000400000000000000400000080000000000000000000000000000000000000000000000000000000000200000000000000000000000002000000002000000000000000000000000008000000000000000000000000001000000004000000000000000000012000000000200000000000000000000000000010000000000000000000200000000000000000040000000000000000000000000000000000000000000000000000000000000000000001000000000040000000000000000000000002000000000408004000000000000000000009000000000000400000400600000000000000000000000000000000000000000000000200080000080000",
      "type": "0x2",
      "transactionHash": "0xb279bb592efb9e794ad9a35e83f2b4f98e0dd50385c1a97b4711d14991e45af6",
      "transactionIndex": "0xc",
      "blockHash": "0x9a422a70f413a5318d1ea12f7fc1eb48c9dd9f1b42d84b61be42add87b2a3fd2",
      "blockNumber": "0x2f9ad68",
      "gasUsed": "0x13a40",
      "effectiveGasPrice": "0x5d21dba00",
      "from": "0x81d48d2c5d0744e8ef7a5c35cdceb0a27a1c707b",
      "to": "0x962aba0a590981cf9c5b336ac34922c82f203165",
      "contractAddress": null
    },
    {
      "status": "0x1",
      "cumulativeGasUsed": "0xfb6b8",
      "logs": [
        {
          "address": "0xfffffffffffffffffffffffffffffffffffffffe",
          "topics": [
            "0xddf252ad1be2c89b69c2b068fc378daa952ba7f163c4a11628f55a4df523b3ef",
            "0x00000000000000000000000081d48d2c5d0744e8ef7a5c35cdceb0a27a1c707b",
            "0x000000000000000000000000962aba0a590981cf9c5b336ac34922c82f203165"
          ],
          "data": "0x000000000000000000000000000000000000000000000000ccd60dcc54c40000",
          "blockHash": "0x9a422a70f413a5318d1ea12f7fc1eb48c9dd9f1b42d84b61be42add87b2a3fd2",
          "blockNumber": "0x2f9ad68",
          "blockTimestamp": "0x6a4734fb",
          "transactionHash": "0x98ed22727d5313a11f7126f3a406ae4980057c789647b435ce8bf2b918b7b1e2",
          "transactionIndex": "0xd",
          "logIndex": "0x2e",
          "removed": false
        },
        {
          "address": "0x962aba0a590981cf9c5b336ac34922c82f203165",
          "topics": [
            "0x82bc30c29d8133d53d443f5e28b84e0fd2b5dcaf3957347d2a67d598186dc07e",
            "0x0000000000000000000000000000000000000000000000000000000000000013",
            "0x0000000000000000000000000000000000000000000000000000000000000013",
            "0x00000000000000000000000081d48d2c5d0744e8ef7a5c35cdceb0a27a1c707b"
          ],
          "data": "0x000000000000000000000000000000000000000000000000000000000000000f000000000000000000000000000000000000000000000000ccd60dcc54c40000000000000000000000000000000000000000000000000000010630b5806c8000",
          "blockHash": "0x9a422a70f413a5318d1ea12f7fc1eb48c9dd9f1b42d84b61be42add87b2a3fd2",
          "blockNumber": "0x2f9ad68",
          "blockTimestamp": "0x6a4734fb",
          "transactionHash": "0x98ed22727d5313a11f7126f3a406ae4980057c789647b435ce8bf2b918b7b1e2",
          "transactionIndex": "0xd",
          "logIndex": "0x2f",
          "removed": false
        },
        {
          "address": "0x4d82b6e528d3c2e1a3592e14863ec95eaef4ff85",
          "topics": [
            "0xc3d58168c5ae7397731d063d5bbf3d657854427343f4c083240f7aacaa2d0f62",
            "0x000000000000000000000000962aba0a590981cf9c5b336ac34922c82f203165",
            "0x000000000000000000000000962aba0a590981cf9c5b336ac34922c82f203165",
            "0x00000000000000000000000081d48d2c5d0744e8ef7a5c35cdceb0a27a1c707b"
          ],
          "data": "0x0000000000000000000000000000000000000000000000000000000000000013000000000000000000000000000000000000000000000000000000000000000f",
          "blockHash": "0x9a422a70f413a5318d1ea12f7fc1eb48c9dd9f1b42d84b61be42add87b2a3fd2",
          "blockNumber": "0x2f9ad68",
          "blockTimestamp": "0x6a4734fb",
          "transactionHash": "0x98ed22727d5313a11f7126f3a406ae4980057c789647b435ce8bf2b918b7b1e2",
          "transactionIndex": "0xd",
          "logIndex": "0x30",
          "removed": false
        },
        {
          "address": "0xfffffffffffffffffffffffffffffffffffffffe",
          "topics": [
            "0xddf252ad1be2c89b69c2b068fc378daa952ba7f163c4a11628f55a4df523b3ef",
            "0x000000000000000000000000962aba0a590981cf9c5b336ac34922c82f203165",
            "0x00000000000000000000000081d48d2c5d0744e8ef7a5c35cdceb0a27a1c707b"
          ],
          "data": "0x000000000000000000000000000000000000000000000000cbcfdd16d4578000",
          "blockHash": "0x9a422a70f413a5318d1ea12f7fc1eb48c9dd9f1b42d84b61be42add87b2a3fd2",
          "blockNumber": "0x2f9ad68",
          "blockTimestamp": "0x6a4734fb",
          "transactionHash": "0x98ed22727d5313a11f7126f3a406ae4980057c789647b435ce8bf2b918b7b1e2",
          "transactionIndex": "0xd",
          "logIndex": "0x31",
          "removed": false
        },
        {
          "address": "0xfffffffffffffffffffffffffffffffffffffffe",
          "topics": [
            "0xddf252ad1be2c89b69c2b068fc378daa952ba7f163c4a11628f55a4df523b3ef",
            "0x000000000000000000000000962aba0a590981cf9c5b336ac34922c82f203165",
            "0x00000000000000000000000084e243a60a75efe615537af49c5eaee8f3c32ed9"
          ],
          "data": "0x000000000000000000000000000000000000000000000000010630b5806c8000",
          "blockHash": "0x9a422a70f413a5318d1ea12f7fc1eb48c9dd9f1b42d84b61be42add87b2a3fd2",
          "blockNumber": "0x2f9ad68",
          "blockTimestamp": "0x6a4734fb",
          "transactionHash": "0x98ed22727d5313a11f7126f3a406ae4980057c789647b435ce8bf2b918b7b1e2",
          "transactionIndex": "0xd",
          "logIndex": "0x32",
          "removed": false
        }
      ],
      "logsBloom": "0x20000000400000000000000400800080000000000000000000000000000000000000000040000000000000000200000000000000000000000002000000002000000000000000000000000008000000000000000000000000001000000004000000000000000000012000000000200000000000000000000000000010000000000000000000200000000000000000000000000000000000000000000000000000000000000000000000000000000000000001000000000000000000000000000000000002000000000008004000000000000000000009000000000000400000400600000000000000000000000000000000000000000000000200080000080000",
      "type": "0x2",
      "transactionHash": "0x98ed22727d5313a11f7126f3a406ae4980057c789647b435ce8bf2b918b7b1e2",
      "transactionIndex": "0xd",
      "blockHash": "0x9a422a70f413a5318d1ea12f7fc1eb48c9dd9f1b42d84b61be42add87b2a3fd2",
      "blockNumber": "0x2f9ad68",
      "gasUsed": "0x13a34",
      "effectiveGasPrice": "0x5d21dba00",
      "from": "0x81d48d2c5d0744e8ef7a5c35cdceb0a27a1c707b",
      "to": "0x962aba0a590981cf9c5b336ac34922c82f203165",
      "contractAddress": null
    },
    {
      "status": "0x1",
      "cumulativeGasUsed": "0x186228",
      "logs": [
        {
          "address": "0xfffffffffffffffffffffffffffffffffffffffe",
          "topics": [
            "0xddf252ad1be2c89b69c2b068fc378daa952ba7f163c4a11628f55a4df523b3ef",
            "0x00000000000000000000000081d48d2c5d0744e8ef7a5c35cdceb0a27a1c707b",
            "0x000000000000000000000000962aba0a590981cf9c5b336ac34922c82f203165"
          ],
          "data": "0x000000000000000000000000000000000000000000000001a055690d9db80000",
          "blockHash": "0x24badbb4bfaa3cfec711d9806f275da919db6d6e8db2204415fecc641b2b4eed",
          "blockNumber": "0x2f9ad69",
          "blockTimestamp": "0x6a4734fb",
          "transactionHash": "0xff6726c2dfbacf041a1ee7ff2228e45d59430f19d4177b35877ddc08d0f80461",
          "transactionIndex": "0x1e",
          "logIndex": "0x1a",
          "removed": false
        },
        {
          "address": "0x962aba0a590981cf9c5b336ac34922c82f203165",
          "topics": [
            "0x82bc30c29d8133d53d443f5e28b84e0fd2b5dcaf3957347d2a67d598186dc07e",
            "0x0000000000000000000000000000000000000000000000000000000000000014",
            "0x0000000000000000000000000000000000000000000000000000000000000014",
            "0x00000000000000000000000081d48d2c5d0744e8ef7a5c35cdceb0a27a1c707b"
          ],
          "data": "0x000000000000000000000000000000000000000000000000000000000000003c000000000000000000000000000000000000000000000001a055690d9db800000000000000000000000000000000000000000000000000000214e8348c4f0000",
          "blockHash": "0x24badbb4bfaa3cfec711d9806f275da919db6d6e8db2204415fecc641b2b4eed",
          "blockNumber": "0x2f9ad69",
          "blockTimestamp": "0x6a4734fb",
          "transactionHash": "0xff6726c2dfbacf041a1ee7ff2228e45d59430f19d4177b35877ddc08d0f80461",
          "transactionIndex": "0x1e",
          "logIndex": "0x1b",
          "removed": false
        },
        {
          "address": "0x4d82b6e528d3c2e1a3592e14863ec95eaef4ff85",
          "topics": [
            "0xc3d58168c5ae7397731d063d5bbf3d657854427343f4c083240f7aacaa2d0f62",
            "0x000000000000000000000000962aba0a590981cf9c5b336ac34922c82f203165",
            "0x000000000000000000000000962aba0a590981cf9c5b336ac34922c82f203165",
            "0x00000000000000000000000081d48d2c5d0744e8ef7a5c35cdceb0a27a1c707b"
          ],
          "data": "0x0000000000000000000000000000000000000000000000000000000000000014000000000000000000000000000000000000000000000000000000000000003c",
          "blockHash": "0x24badbb4bfaa3cfec711d9806f275da919db6d6e8db2204415fecc641b2b4eed",
          "blockNumber": "0x2f9ad69",
          "blockTimestamp": "0x6a4734fb",
          "transactionHash": "0xff6726c2dfbacf041a1ee7ff2228e45d59430f19d4177b35877ddc08d0f80461",
          "transactionIndex": "0x1e",
          "logIndex": "0x1c",
          "removed": false
        },
        {
          "address": "0xfffffffffffffffffffffffffffffffffffffffe",
          "topics": [
            "0xddf252ad1be2c89b69c2b068fc378daa952ba7f163c4a11628f55a4df523b3ef",
            "0x000000000000000000000000962aba0a590981cf9c5b336ac34922c82f203165",
            "0x00000000000000000000000081d48d2c5d0744e8ef7a5c35cdceb0a27a1c707b"
          ],
          "data": "0x0000000000000000000000000000000000000000000000019e4080d911690000",
          "blockHash": "0x24badbb4bfaa3cfec711d9806f275da919db6d6e8db2204415fecc641b2b4eed",
          "blockNumber": "0x2f9ad69",
          "blockTimestamp": "0x6a4734fb",
          "transactionHash": "0xff6726c2dfbacf041a1ee7ff2228e45d59430f19d4177b35877ddc08d0f80461",
          "transactionIndex": "0x1e",
          "logIndex": "0x1d",
          "removed": false
        },
        {
          "address": "0xfffffffffffffffffffffffffffffffffffffffe",
          "topics": [
            "0xddf252ad1be2c89b69c2b068fc378daa952ba7f163c4a11628f55a4df523b3ef",
            "0x000000000000000000000000962aba0a590981cf9c5b336ac34922c82f203165",
            "0x00000000000000000000000084e243a60a75efe615537af49c5eaee8f3c32ed9"
          ],
          "data": "0x0000000000000000000000000000000000000000000000000214e8348c4f0000",
          "blockHash": "0x24badbb4bfaa3cfec711d9806f275da919db6d6e8db2204415fecc641b2b4eed",
          "blockNumber": "0x2f9ad69",
          "blockTimestamp": "0x6a4734fb",
          "transactionHash": "0xff6726c2dfbacf041a1ee7ff2228e45d59430f19d4177b35877ddc08d0f80461",
          "transactionIndex": "0x1e",
          "logIndex": "0x1e",
          "removed": false
        }
      ],
      "logsBloom": "0x00000000400000000000000400000080000000000000000000000000000000000000000000000000000000000200000000002000000000000002000000002000000000000000000000000008000000000000000000000000001000000004000000000000000000012000000000200000000000000000000000000010000000000000000000200000000000000000000000000000000400000000000000000000000000000000000020000000000000000001000000000000000000000000000000000002000000000008004000000000000000000009000000000000400000400600000000000000000000000000000000000000000000000200080000080000",
      "type": "0x2",
      "transactionHash": "0xff6726c2dfbacf041a1ee7ff2228e45d59430f19d4177b35877ddc08d0f80461",
      "transactionIndex": "0x1e",
      "blockHash": "0x24badbb4bfaa3cfec711d9806f275da919db6d6e8db2204415fecc641b2b4eed",
      "blockNumber": "0x2f9ad69",
      "gasUsed": "0x13a34",
      "effectiveGasPrice": "0x5d21dba00",
      "from": "0x81d48d2c5d0744e8ef7a5c35cdceb0a27a1c707b",
      "to": "0x962aba0a590981cf9c5b336ac34922c82f203165",
      "contractAddress": null
    },
    {
      "status": "0x1",
      "cumulativeGasUsed": "0x199c5c",
      "logs": [
        {
          "address": "0xfffffffffffffffffffffffffffffffffffffffe",
          "topics": [
            "0xddf252ad1be2c89b69c2b068fc378daa952ba7f163c4a11628f55a4df523b3ef",
            "0x00000000000000000000000081d48d2c5d0744e8ef7a5c35cdceb0a27a1c707b",
            "0x000000000000000000000000962aba0a590981cf9c5b336ac34922c82f203165"
          ],
          "data": "0x0000000000000000000000000000000000000000000000006f05b59d3b200000",
          "blockHash": "0x24badbb4bfaa3cfec711d9806f275da919db6d6e8db2204415fecc641b2b4eed",
          "blockNumber": "0x2f9ad69",
          "blockTimestamp": "0x6a4734fb",
          "transactionHash": "0xbaf23040d3cc14a3be9aabc6c07077fa807aa2c442179791ec3128d3bcfd673c",
          "transactionIndex": "0x1f",
          "logIndex": "0x1f",
          "removed": false
        },
        {
          "address": "0x962aba0a590981cf9c5b336ac34922c82f203165",
          "topics": [
            "0x82bc30c29d8133d53d443f5e28b84e0fd2b5dcaf3957347d2a67d598186dc07e",
            "0x0000000000000000000000000000000000000000000000000000000000000014",
            "0x0000000000000000000000000000000000000000000000000000000000000014",
            "0x00000000000000000000000081d48d2c5d0744e8ef7a5c35cdceb0a27a1c707b"
          ],
          "data": "0x00000000000000000000000000000000000000000000000000000000000000100000000000000000000000000000000000000000000000006f05b59d3b200000000000000000000000000000000000000000000000000000008e1bc9bf040000",
          "blockHash": "0x24badbb4bfaa3cfec711d9806f275da919db6d6e8db2204415fecc641b2b4eed",
          "blockNumber": "0x2f9ad69",
          "blockTimestamp": "0x6a4734fb",
          "transactionHash": "0xbaf23040d3cc14a3be9aabc6c07077fa807aa2c442179791ec3128d3bcfd673c",
          "transactionIndex": "0x1f",
          "logIndex": "0x20",
          "removed": false
        },
        {
          "address": "0x4d82b6e528d3c2e1a3592e14863ec95eaef4ff85",
          "topics": [
            "0xc3d58168c5ae7397731d063d5bbf3d657854427343f4c083240f7aacaa2d0f62",
            "0x000000000000000000000000962aba0a590981cf9c5b336ac34922c82f203165",
            "0x000000000000000000000000962aba0a590981cf9c5b336ac34922c82f203165",
            "0x00000000000000000000000081d48d2c5d0744e8ef7a5c35cdceb0a27a1c707b"
          ],
          "data": "0x00000000000000000000000000000000000000000000000000000000000000140000000000000000000000000000000000000000000000000000000000000010",
          "blockHash": "0x24badbb4bfaa3cfec711d9806f275da919db6d6e8db2204415fecc641b2b4eed",
          "blockNumber": "0x2f9ad69",
          "blockTimestamp": "0x6a4734fb",
          "transactionHash": "0xbaf23040d3cc14a3be9aabc6c07077fa807aa2c442179791ec3128d3bcfd673c",
          "transactionIndex": "0x1f",
          "logIndex": "0x21",
          "removed": false
        },
        {
          "address": "0xfffffffffffffffffffffffffffffffffffffffe",
          "topics": [
            "0xddf252ad1be2c89b69c2b068fc378daa952ba7f163c4a11628f55a4df523b3ef",
            "0x000000000000000000000000962aba0a590981cf9c5b336ac34922c82f203165",
            "0x00000000000000000000000081d48d2c5d0744e8ef7a5c35cdceb0a27a1c707b"
          ],
          "data": "0x0000000000000000000000000000000000000000000000006e7799d37c1c0000",
          "blockHash": "0x24badbb4bfaa3cfec711d9806f275da919db6d6e8db2204415fecc641b2b4eed",
          "blockNumber": "0x2f9ad69",
          "blockTimestamp": "0x6a4734fb",
          "transactionHash": "0xbaf23040d3cc14a3be9aabc6c07077fa807aa2c442179791ec3128d3bcfd673c",
          "transactionIndex": "0x1f",
          "logIndex": "0x22",
          "removed": false
        },
        {
          "address": "0xfffffffffffffffffffffffffffffffffffffffe",
          "topics": [
            "0xddf252ad1be2c89b69c2b068fc378daa952ba7f163c4a11628f55a4df523b3ef",
            "0x000000000000000000000000962aba0a590981cf9c5b336ac34922c82f203165",
            "0x00000000000000000000000084e243a60a75efe615537af49c5eaee8f3c32ed9"
          ],
          "data": "0x000000000000000000000000000000000000000000000000008e1bc9bf040000",
          "blockHash": "0x24badbb4bfaa3cfec711d9806f275da919db6d6e8db2204415fecc641b2b4eed",
          "blockNumber": "0x2f9ad69",
          "blockTimestamp": "0x6a4734fb",
          "transactionHash": "0xbaf23040d3cc14a3be9aabc6c07077fa807aa2c442179791ec3128d3bcfd673c",
          "transactionIndex": "0x1f",
          "logIndex": "0x23",
          "removed": false
        }
      ],
      "logsBloom": "0x00000000400000000000000400000080000000000000000000000000000000000000000000000000000000000200000000002000000000000002000000002000000000000000000000000008000000000000000000000000001000000004000000000000000000012000000000200000000000000000000000000010000000000000000000200000000000000000000000000000000400000000000000000000000000000000000020000000000000000001000000000000000000000000000000000002000000000008004000000000000000000009000000000000400000400600000000000000000000000000000000000000000000000200080000080000",
      "type": "0x2",
      "transactionHash": "0xbaf23040d3cc14a3be9aabc6c07077fa807aa2c442179791ec3128d3bcfd673c",
      "transactionIndex": "0x1f",
      "blockHash": "0x24badbb4bfaa3cfec711d9806f275da919db6d6e8db2204415fecc641b2b4eed",
      "blockNumber": "0x2f9ad69",
      "gasUsed": "0x13a34",
      "effectiveGasPrice": "0x5d21dba00",
      "from": "0x81d48d2c5d0744e8ef7a5c35cdceb0a27a1c707b",
      "to": "0x962aba0a590981cf9c5b336ac34922c82f203165",
      "contractAddress": null
    },
    {
      "status": "0x1",
      "cumulativeGasUsed": "0x1ad690",
      "logs": [
        {
          "address": "0xfffffffffffffffffffffffffffffffffffffffe",
          "topics": [
            "0xddf252ad1be2c89b69c2b068fc378daa952ba7f163c4a11628f55a4df523b3ef",
            "0x00000000000000000000000081d48d2c5d0744e8ef7a5c35cdceb0a27a1c707b",
            "0x000000000000000000000000962aba0a590981cf9c5b336ac34922c82f203165"
          ],
          "data": "0x0000000000000000000000000000000000000000000000006f05b59d3b200000",
          "blockHash": "0x24badbb4bfaa3cfec711d9806f275da919db6d6e8db2204415fecc641b2b4eed",
          "blockNumber": "0x2f9ad69",
          "blockTimestamp": "0x6a4734fb",
          "transactionHash": "0x5cf895b8de0a40701e4ef0d8ddf2fe838cfef6de7db0b26080b8a0c6a3d89cd3",
          "transactionIndex": "0x20",
          "logIndex": "0x24",
          "removed": false
        },
        {
          "address": "0x962aba0a590981cf9c5b336ac34922c82f203165",
          "topics": [
            "0x82bc30c29d8133d53d443f5e28b84e0fd2b5dcaf3957347d2a67d598186dc07e",
            "0x0000000000000000000000000000000000000000000000000000000000000015",
            "0x0000000000000000000000000000000000000000000000000000000000000015",
            "0x00000000000000000000000081d48d2c5d0744e8ef7a5c35cdceb0a27a1c707b"
          ],
          "data": "0x00000000000000000000000000000000000000000000000000000000000000200000000000000000000000000000000000000000000000006f05b59d3b200000000000000000000000000000000000000000000000000000008e1bc9bf040000",
          "blockHash": "0x24badbb4bfaa3cfec711d9806f275da919db6d6e8db2204415fecc641b2b4eed",
          "blockNumber": "0x2f9ad69",
          "blockTimestamp": "0x6a4734fb",
          "transactionHash": "0x5cf895b8de0a40701e4ef0d8ddf2fe838cfef6de7db0b26080b8a0c6a3d89cd3",
          "transactionIndex": "0x20",
          "logIndex": "0x25",
          "removed": false
        },
        {
          "address": "0x4d82b6e528d3c2e1a3592e14863ec95eaef4ff85",
          "topics": [
            "0xc3d58168c5ae7397731d063d5bbf3d657854427343f4c083240f7aacaa2d0f62",
            "0x000000000000000000000000962aba0a590981cf9c5b336ac34922c82f203165",
            "0x000000000000000000000000962aba0a590981cf9c5b336ac34922c82f203165",
            "0x00000000000000000000000081d48d2c5d0744e8ef7a5c35cdceb0a27a1c707b"
          ],
          "data": "0x00000000000000000000000000000000000000000000000000000000000000150000000000000000000000000000000000000000000000000000000000000020",
          "blockHash": "0x24badbb4bfaa3cfec711d9806f275da919db6d6e8db2204415fecc641b2b4eed",
          "blockNumber": "0x2f9ad69",
          "blockTimestamp": "0x6a4734fb",
          "transactionHash": "0x5cf895b8de0a40701e4ef0d8ddf2fe838cfef6de7db0b26080b8a0c6a3d89cd3",
          "transactionIndex": "0x20",
          "logIndex": "0x26",
          "removed": false
        },
        {
          "address": "0xfffffffffffffffffffffffffffffffffffffffe",
          "topics": [
            "0xddf252ad1be2c89b69c2b068fc378daa952ba7f163c4a11628f55a4df523b3ef",
            "0x000000000000000000000000962aba0a590981cf9c5b336ac34922c82f203165",
            "0x00000000000000000000000081d48d2c5d0744e8ef7a5c35cdceb0a27a1c707b"
          ],
          "data": "0x0000000000000000000000000000000000000000000000006e7799d37c1c0000",
          "blockHash": "0x24badbb4bfaa3cfec711d9806f275da919db6d6e8db2204415fecc641b2b4eed",
          "blockNumber": "0x2f9ad69",
          "blockTimestamp": "0x6a4734fb",
          "transactionHash": "0x5cf895b8de0a40701e4ef0d8ddf2fe838cfef6de7db0b26080b8a0c6a3d89cd3",
          "transactionIndex": "0x20",
          "logIndex": "0x27",
          "removed": false
        },
        {
          "address": "0xfffffffffffffffffffffffffffffffffffffffe",
          "topics": [
            "0xddf252ad1be2c89b69c2b068fc378daa952ba7f163c4a11628f55a4df523b3ef",
            "0x000000000000000000000000962aba0a590981cf9c5b336ac34922c82f203165",
            "0x00000000000000000000000084e243a60a75efe615537af49c5eaee8f3c32ed9"
          ],
          "data": "0x000000000000000000000000000000000000000000000000008e1bc9bf040000",
          "blockHash": "0x24badbb4bfaa3cfec711d9806f275da919db6d6e8db2204415fecc641b2b4eed",
          "blockNumber": "0x2f9ad69",
          "blockTimestamp": "0x6a4734fb",
          "transactionHash": "0x5cf895b8de0a40701e4ef0d8ddf2fe838cfef6de7db0b26080b8a0c6a3d89cd3",
          "transactionIndex": "0x20",
          "logIndex": "0x28",
          "removed": false
        }
      ],
      "logsBloom": "0x00000000400000000000000400000080000000000000000000000000000000000000000000000000000000000200000000000000000000000002000000002000001000000000000000000008000000000000000000000000001000000004000000000000000000012000000000200000000000000000000000000010000000000000000000200000000000000000000000000000000000000000000000000000000000000000000000000000010000000001000000000000000000000000000000000002000000000008004000000000000000000009000000000000400000402600000000000000000000000000000000000000000000000200080000080000",
      "type": "0x2",
      "transactionHash": "0x5cf895b8de0a40701e4ef0d8ddf2fe838cfef6de7db0b26080b8a0c6a3d89cd3",
      "transactionIndex": "0x20",
      "blockHash": "0x24badbb4bfaa3cfec711d9806f275da919db6d6e8db2204415fecc641b2b4eed",
      "blockNumber": "0x2f9ad69",
      "gasUsed": "0x13a34",
      "effectiveGasPrice": "0x5d21dba00",
      "from": "0x81d48d2c5d0744e8ef7a5c35cdceb0a27a1c707b",
      "to": "0x962aba0a590981cf9c5b336ac34922c82f203165",
      "contractAddress": null
    },
    {
      "status": "0x1",
      "cumulativeGasUsed": "0x1c10c4",
      "logs": [
        {
          "address": "0xfffffffffffffffffffffffffffffffffffffffe",
          "topics": [
            "0xddf252ad1be2c89b69c2b068fc378daa952ba7f163c4a11628f55a4df523b3ef",
            "0x00000000000000000000000081d48d2c5d0744e8ef7a5c35cdceb0a27a1c707b",
            "0x000000000000000000000000962aba0a590981cf9c5b336ac34922c82f203165"
          ],
          "data": "0x000000000000000000000000000000000000000000000000a61dfb94896d0000",
          "blockHash": "0x24badbb4bfaa3cfec711d9806f275da919db6d6e8db2204415fecc641b2b4eed",
          "blockNumber": "0x2f9ad69",
          "blockTimestamp": "0x6a4734fb",
          "transactionHash": "0xf90ea9c7258a29e700109cd6f82ed1e294572700982efd095c0a0537b35bdc4c",
          "transactionIndex": "0x21",
          "logIndex": "0x29",
          "removed": false
        },
        {
          "address": "0x962aba0a590981cf9c5b336ac34922c82f203165",
          "topics": [
            "0x82bc30c29d8133d53d443f5e28b84e0fd2b5dcaf3957347d2a67d598186dc07e",
            "0x0000000000000000000000000000000000000000000000000000000000000016",
            "0x0000000000000000000000000000000000000000000000000000000000000016",
            "0x00000000000000000000000081d48d2c5d0744e8ef7a5c35cdceb0a27a1c707b"
          ],
          "data": "0x000000000000000000000000000000000000000000000000000000000000001c000000000000000000000000000000000000000000000000a61dfb94896d000000000000000000000000000000000000000000000000000000d4a14205cea000",
          "blockHash": "0x24badbb4bfaa3cfec711d9806f275da919db6d6e8db2204415fecc641b2b4eed",
          "blockNumber": "0x2f9ad69",
          "blockTimestamp": "0x6a4734fb",
          "transactionHash": "0xf90ea9c7258a29e700109cd6f82ed1e294572700982efd095c0a0537b35bdc4c",
          "transactionIndex": "0x21",
          "logIndex": "0x2a",
          "removed": false
        },
        {
          "address": "0x4d82b6e528d3c2e1a3592e14863ec95eaef4ff85",
          "topics": [
            "0xc3d58168c5ae7397731d063d5bbf3d657854427343f4c083240f7aacaa2d0f62",
            "0x000000000000000000000000962aba0a590981cf9c5b336ac34922c82f203165",
            "0x000000000000000000000000962aba0a590981cf9c5b336ac34922c82f203165",
            "0x00000000000000000000000081d48d2c5d0744e8ef7a5c35cdceb0a27a1c707b"
          ],
          "data": "0x0000000000000000000000000000000000000000000000000000000000000016000000000000000000000000000000000000000000000000000000000000001c",
          "blockHash": "0x24badbb4bfaa3cfec711d9806f275da919db6d6e8db2204415fecc641b2b4eed",
          "blockNumber": "0x2f9ad69",
          "blockTimestamp": "0x6a4734fb",
          "transactionHash": "0xf90ea9c7258a29e700109cd6f82ed1e294572700982efd095c0a0537b35bdc4c",
          "transactionIndex": "0x21",
          "logIndex": "0x2b",
          "removed": false
        },
        {
          "address": "0xfffffffffffffffffffffffffffffffffffffffe",
          "topics": [
            "0xddf252ad1be2c89b69c2b068fc378daa952ba7f163c4a11628f55a4df523b3ef",
            "0x000000000000000000000000962aba0a590981cf9c5b336ac34922c82f203165",
            "0x00000000000000000000000081d48d2c5d0744e8ef7a5c35cdceb0a27a1c707b"
          ],
          "data": "0x000000000000000000000000000000000000000000000000a5495a52839e6000",
          "blockHash": "0x24badbb4bfaa3cfec711d9806f275da919db6d6e8db2204415fecc641b2b4eed",
          "blockNumber": "0x2f9ad69",
          "blockTimestamp": "0x6a4734fb",
          "transactionHash": "0xf90ea9c7258a29e700109cd6f82ed1e294572700982efd095c0a0537b35bdc4c",
          "transactionIndex": "0x21",
          "logIndex": "0x2c",
          "removed": false
        },
        {
          "address": "0xfffffffffffffffffffffffffffffffffffffffe",
          "topics": [
            "0xddf252ad1be2c89b69c2b068fc378daa952ba7f163c4a11628f55a4df523b3ef",
            "0x000000000000000000000000962aba0a590981cf9c5b336ac34922c82f203165",
            "0x00000000000000000000000084e243a60a75efe615537af49c5eaee8f3c32ed9"
          ],
          "data": "0x00000000000000000000000000000000000000000000000000d4a14205cea000",
          "blockHash": "0x24badbb4bfaa3cfec711d9806f275da919db6d6e8db2204415fecc641b2b4eed",
          "blockNumber": "0x2f9ad69",
          "blockTimestamp": "0x6a4734fb",
          "transactionHash": "0xf90ea9c7258a29e700109cd6f82ed1e294572700982efd095c0a0537b35bdc4c",
          "transactionIndex": "0x21",
          "logIndex": "0x2d",
          "removed": false
        }
      ],
      "logsBloom": "0x00000000400000000000000400000080000000000000000000000000000000000000000000000000000000000200000000000000000000000002000000002000000000000000000800000008000000000000000000000000001000000004000000000000000000012000000000200000200000000000000000000010000000000000000000200000000000000000000000000000000000000000000000000000000000000000000000000000000000000001000000000000000000000000000000000002000000000008004000000000000000000009000000000000400000400600000000000000000000000000000000000000000000000208080000080000",
      "type": "0x2",
      "transactionHash": "0xf90ea9c7258a29e700109cd6f82ed1e294572700982efd095c0a0537b35bdc4c",
      "transactionIndex": "0x21",
      "blockHash": "0x24badbb4bfaa3cfec711d9806f275da919db6d6e8db2204415fecc641b2b4eed",
      "blockNumber": "0x2f9ad69",
      "gasUsed": "0x13a34",
      "effectiveGasPrice": "0x5d21dba00",
      "from": "0x81d48d2c5d0744e8ef7a5c35cdceb0a27a1c707b",
      "to": "0x962aba0a590981cf9c5b336ac34922c82f203165",
      "contractAddress": null
    },
    {
      "status": "0x1",
      "cumulativeGasUsed": "0x1d4af8",
      "logs": [
        {
          "address": "0xfffffffffffffffffffffffffffffffffffffffe",
          "topics": [
            "0xddf252ad1be2c89b69c2b068fc378daa952ba7f163c4a11628f55a4df523b3ef",
            "0x00000000000000000000000081d48d2c5d0744e8ef7a5c35cdceb0a27a1c707b",
            "0x000000000000000000000000962aba0a590981cf9c5b336ac34922c82f203165"
          ],
          "data": "0x000000000000000000000000000000000000000000000000cfa57a79abc84000",
          "blockHash": "0x24badbb4bfaa3cfec711d9806f275da919db6d6e8db2204415fecc641b2b4eed",
          "blockNumber": "0x2f9ad69",
          "blockTimestamp": "0x6a4734fb",
          "transactionHash": "0x3990c3aee8b79dab496aa2c38632aaa4caf92e47d40447f21f356f9f4569641a",
          "transactionIndex": "0x22",
          "logIndex": "0x2e",
          "removed": false
        },
        {
          "address": "0x962aba0a590981cf9c5b336ac34922c82f203165",
          "topics": [
            "0x82bc30c29d8133d53d443f5e28b84e0fd2b5dcaf3957347d2a67d598186dc07e",
            "0x0000000000000000000000000000000000000000000000000000000000000016",
            "0x0000000000000000000000000000000000000000000000000000000000000016",
            "0x00000000000000000000000081d48d2c5d0744e8ef7a5c35cdceb0a27a1c707b"
          ],
          "data": "0x0000000000000000000000000000000000000000000000000000000000000023000000000000000000000000000000000000000000000000cfa57a79abc840000000000000000000000000000000000000000000000000000109c99287424800",
          "blockHash": "0x24badbb4bfaa3cfec711d9806f275da919db6d6e8db2204415fecc641b2b4eed",
          "blockNumber": "0x2f9ad69",
          "blockTimestamp": "0x6a4734fb",
          "transactionHash": "0x3990c3aee8b79dab496aa2c38632aaa4caf92e47d40447f21f356f9f4569641a",
          "transactionIndex": "0x22",
          "logIndex": "0x2f",
          "removed": false
        },
        {
          "address": "0x4d82b6e528d3c2e1a3592e14863ec95eaef4ff85",
          "topics": [
            "0xc3d58168c5ae7397731d063d5bbf3d657854427343f4c083240f7aacaa2d0f62",
            "0x000000000000000000000000962aba0a590981cf9c5b336ac34922c82f203165",
            "0x000000000000000000000000962aba0a590981cf9c5b336ac34922c82f203165",
            "0x00000000000000000000000081d48d2c5d0744e8ef7a5c35cdceb0a27a1c707b"
          ],
          "data": "0x00000000000000000000000000000000000000000000000000000000000000160000000000000000000000000000000000000000000000000000000000000023",
          "blockHash": "0x24badbb4bfaa3cfec711d9806f275da919db6d6e8db2204415fecc641b2b4eed",
          "blockNumber": "0x2f9ad69",
          "blockTimestamp": "0x6a4734fb",
          "transactionHash": "0x3990c3aee8b79dab496aa2c38632aaa4caf92e47d40447f21f356f9f4569641a",
          "transactionIndex": "0x22",
          "logIndex": "0x30",
          "removed": false
        },
        {
          "address": "0xfffffffffffffffffffffffffffffffffffffffe",
          "topics": [
            "0xddf252ad1be2c89b69c2b068fc378daa952ba7f163c4a11628f55a4df523b3ef",
            "0x000000000000000000000000962aba0a590981cf9c5b336ac34922c82f203165",
            "0x00000000000000000000000081d48d2c5d0744e8ef7a5c35cdceb0a27a1c707b"
          ],
          "data": "0x000000000000000000000000000000000000000000000000ce9bb0e72485f800",
          "blockHash": "0x24badbb4bfaa3cfec711d9806f275da919db6d6e8db2204415fecc641b2b4eed",
          "blockNumber": "0x2f9ad69",
          "blockTimestamp": "0x6a4734fb",
          "transactionHash": "0x3990c3aee8b79dab496aa2c38632aaa4caf92e47d40447f21f356f9f4569641a",
          "transactionIndex": "0x22",
          "logIndex": "0x31",
          "removed": false
        },
        {
          "address": "0xfffffffffffffffffffffffffffffffffffffffe",
          "topics": [
            "0xddf252ad1be2c89b69c2b068fc378daa952ba7f163c4a11628f55a4df523b3ef",
            "0x000000000000000000000000962aba0a590981cf9c5b336ac34922c82f203165",
            "0x00000000000000000000000084e243a60a75efe615537af49c5eaee8f3c32ed9"
          ],
          "data": "0x0000000000000000000000000000000000000000000000000109c99287424800",
          "blockHash": "0x24badbb4bfaa3cfec711d9806f275da919db6d6e8db2204415fecc641b2b4eed",
          "blockNumber": "0x2f9ad69",
          "blockTimestamp": "0x6a4734fb",
          "transactionHash": "0x3990c3aee8b79dab496aa2c38632aaa4caf92e47d40447f21f356f9f4569641a",
          "transactionIndex": "0x22",
          "logIndex": "0x32",
          "removed": false
        }
      ],
      "logsBloom": "0x00000000400000000000000400000080000000000000000000000000000000000000000000000000000000000200000000000000000000000002000000002000000000000000000800000008000000000000000000000000001000000004000000000000000000012000000000200000200000000000000000000010000000000000000000200000000000000000000000000000000000000000000000000000000000000000000000000000000000000001000000000000000000000000000000000002000000000008004000000000000000000009000000000000400000400600000000000000000000000000000000000000000000000208080000080000",
      "type": "0x2",
      "transactionHash": "0x3990c3aee8b79dab496aa2c38632aaa4caf92e47d40447f21f356f9f4569641a",
      "transactionIndex": "0x22",
      "blockHash": "0x24badbb4bfaa3cfec711d9806f275da919db6d6e8db2204415fecc641b2b4eed",
      "blockNumber": "0x2f9ad69",
      "gasUsed": "0x13a34",
      "effectiveGasPrice": "0x5d21dba00",
      "from": "0x81d48d2c5d0744e8ef7a5c35cdceb0a27a1c707b",
      "to": "0x962aba0a590981cf9c5b336ac34922c82f203165",
      "contractAddress": null
    },
    {
      "status": "0x1",
      "cumulativeGasUsed": "0x1e852c",
      "logs": [
        {
          "address": "0xfffffffffffffffffffffffffffffffffffffffe",
          "topics": [
            "0xddf252ad1be2c89b69c2b068fc378daa952ba7f163c4a11628f55a4df523b3ef",
            "0x00000000000000000000000081d48d2c5d0744e8ef7a5c35cdceb0a27a1c707b",
            "0x000000000000000000000000962aba0a590981cf9c5b336ac34922c82f203165"
          ],
          "data": "0x000000000000000000000000000000000000000000000000d015638ef2350000",
          "blockHash": "0x24badbb4bfaa3cfec711d9806f275da919db6d6e8db2204415fecc641b2b4eed",
          "blockNumber": "0x2f9ad69",
          "blockTimestamp": "0x6a4734fb",
          "transactionHash": "0x3546bfa8990cd647aab1b80efe0b39c7cee20af200ccefbd8cec4f5b873566f0",
          "transactionIndex": "0x23",
          "logIndex": "0x33",
          "removed": false
        },
        {
          "address": "0x962aba0a590981cf9c5b336ac34922c82f203165",
          "topics": [
            "0x82bc30c29d8133d53d443f5e28b84e0fd2b5dcaf3957347d2a67d598186dc07e",
            "0x0000000000000000000000000000000000000000000000000000000000000017",
            "0x0000000000000000000000000000000000000000000000000000000000000017",
            "0x00000000000000000000000081d48d2c5d0744e8ef7a5c35cdceb0a27a1c707b"
          ],
          "data": "0x0000000000000000000000000000000000000000000000000000000000000033000000000000000000000000000000000000000000000000d015638ef2350000000000000000000000000000000000000000000000000000010a58d15acfa000",
          "blockHash": "0x24badbb4bfaa3cfec711d9806f275da919db6d6e8db2204415fecc641b2b4eed",
          "blockNumber": "0x2f9ad69",
          "blockTimestamp": "0x6a4734fb",
          "transactionHash": "0x3546bfa8990cd647aab1b80efe0b39c7cee20af200ccefbd8cec4f5b873566f0",
          "transactionIndex": "0x23",
          "logIndex": "0x34",
          "removed": false
        },
        {
          "address": "0x4d82b6e528d3c2e1a3592e14863ec95eaef4ff85",
          "topics": [
            "0xc3d58168c5ae7397731d063d5bbf3d657854427343f4c083240f7aacaa2d0f62",
            "0x000000000000000000000000962aba0a590981cf9c5b336ac34922c82f203165",
            "0x000000000000000000000000962aba0a590981cf9c5b336ac34922c82f203165",
            "0x00000000000000000000000081d48d2c5d0744e8ef7a5c35cdceb0a27a1c707b"
          ],
          "data": "0x00000000000000000000000000000000000000000000000000000000000000170000000000000000000000000000000000000000000000000000000000000033",
          "blockHash": "0x24badbb4bfaa3cfec711d9806f275da919db6d6e8db2204415fecc641b2b4eed",
          "blockNumber": "0x2f9ad69",
          "blockTimestamp": "0x6a4734fb",
          "transactionHash": "0x3546bfa8990cd647aab1b80efe0b39c7cee20af200ccefbd8cec4f5b873566f0",
          "transactionIndex": "0x23",
          "logIndex": "0x35",
          "removed": false
        },
        {
          "address": "0xfffffffffffffffffffffffffffffffffffffffe",
          "topics": [
            "0xddf252ad1be2c89b69c2b068fc378daa952ba7f163c4a11628f55a4df523b3ef",
            "0x000000000000000000000000962aba0a590981cf9c5b336ac34922c82f203165",
            "0x00000000000000000000000081d48d2c5d0744e8ef7a5c35cdceb0a27a1c707b"
          ],
          "data": "0x000000000000000000000000000000000000000000000000cf0b0abd97656000",
          "blockHash": "0x24badbb4bfaa3cfec711d9806f275da919db6d6e8db2204415fecc641b2b4eed",
          "blockNumber": "0x2f9ad69",
          "blockTimestamp": "0x6a4734fb",
          "transactionHash": "0x3546bfa8990cd647aab1b80efe0b39c7cee20af200ccefbd8cec4f5b873566f0",
          "transactionIndex": "0x23",
          "logIndex": "0x36",
          "removed": false
        },
        {
          "address": "0xfffffffffffffffffffffffffffffffffffffffe",
          "topics": [
            "0xddf252ad1be2c89b69c2b068fc378daa952ba7f163c4a11628f55a4df523b3ef",
            "0x000000000000000000000000962aba0a590981cf9c5b336ac34922c82f203165",
            "0x00000000000000000000000084e243a60a75efe615537af49c5eaee8f3c32ed9"
          ],
          "data": "0x000000000000000000000000000000000000000000000000010a58d15acfa000",
          "blockHash": "0x24badbb4bfaa3cfec711d9806f275da919db6d6e8db2204415fecc641b2b4eed",
          "blockNumber": "0x2f9ad69",
          "blockTimestamp": "0x6a4734fb",
          "transactionHash": "0x3546bfa8990cd647aab1b80efe0b39c7cee20af200ccefbd8cec4f5b873566f0",
          "transactionIndex": "0x23",
          "logIndex": "0x37",
          "removed": false
        }
      ],
      "logsBloom": "0x00000000400000000000000400000080000000000000000000000000000000000000000000000000000000000200000000001000000000000002001000002000000000000000000000000008000000000000000000000000001000000004000000000000000000012000000000200000000000000000000000000010000000000000000000200000000000000000000000000000000000000000000000000000000000000000000000000000000000000001000000000000000000000000000000000002000000000008004000000000000000000009000000000000400000400600000000000000000000000000000000000000000000000200080000080000",
      "type": "0x2",
      "transactionHash": "0x3546bfa8990cd647aab1b80efe0b39c7cee20af200ccefbd8cec4f5b873566f0",
      "transactionIndex": "0x23",
      "blockHash": "0x24badbb4bfaa3cfec711d9806f275da919db6d6e8db2204415fecc641b2b4eed",
      "blockNumber": "0x2f9ad69",
      "gasUsed": "0x13a34",
      "effectiveGasPrice": "0x5d21dba00",
      "from": "0x81d48d2c5d0744e8ef7a5c35cdceb0a27a1c707b",
      "to": "0x962aba0a590981cf9c5b336ac34922c82f203165",
      "contractAddress": null
    },
    {
      "status": "0x1",
      "cumulativeGasUsed": "0x1fbf6c",
      "logs": [
        {
          "address": "0xfffffffffffffffffffffffffffffffffffffffe",
          "topics": [
            "0xddf252ad1be2c89b69c2b068fc378daa952ba7f163c4a11628f55a4df523b3ef",
            "0x00000000000000000000000081d48d2c5d0744e8ef7a5c35cdceb0a27a1c707b",
            "0x000000000000000000000000962aba0a590981cf9c5b336ac34922c82f203165"
          ],
          "data": "0x000000000000000000000000000000000000000000000001a055690d9db80000",
          "blockHash": "0x24badbb4bfaa3cfec711d9806f275da919db6d6e8db2204415fecc641b2b4eed",
          "blockNumber": "0x2f9ad69",
          "blockTimestamp": "0x6a4734fb",
          "transactionHash": "0x78d6a9e6a8f596837622025731f08dd78afc906dcf34d7af870d9bd5636987a3",
          "transactionIndex": "0x24",
          "logIndex": "0x38",
          "removed": false
        },
        {
          "address": "0x962aba0a590981cf9c5b336ac34922c82f203165",
          "topics": [
            "0x82bc30c29d8133d53d443f5e28b84e0fd2b5dcaf3957347d2a67d598186dc07e",
            "0x0000000000000000000000000000000000000000000000000000000000000018",
            "0x0000000000000000000000000000000000000000000000000000000000000018",
            "0x00000000000000000000000081d48d2c5d0744e8ef7a5c35cdceb0a27a1c707b"
          ],
          "data": "0x00000000000000000000000000000000000000000000000000000000000004e2000000000000000000000000000000000000000000000001a055690d9db800000000000000000000000000000000000000000000000000000214e8348c4f0000",
          "blockHash": "0x24badbb4bfaa3cfec711d9806f275da919db6d6e8db2204415fecc641b2b4eed",
          "blockNumber": "0x2f9ad69",
          "blockTimestamp": "0x6a4734fb",
          "transactionHash": "0x78d6a9e6a8f596837622025731f08dd78afc906dcf34d7af870d9bd5636987a3",
          "transactionIndex": "0x24",
          "logIndex": "0x39",
          "removed": false
        },
        {
          "address": "0x4d82b6e528d3c2e1a3592e14863ec95eaef4ff85",
          "topics": [
            "0xc3d58168c5ae7397731d063d5bbf3d657854427343f4c083240f7aacaa2d0f62",
            "0x000000000000000000000000962aba0a590981cf9c5b336ac34922c82f203165",
            "0x000000000000000000000000962aba0a590981cf9c5b336ac34922c82f203165",
            "0x00000000000000000000000081d48d2c5d0744e8ef7a5c35cdceb0a27a1c707b"
          ],
          "data": "0x000000000000000000000000000000000000000000000000000000000000001800000000000000000000000000000000000000000000000000000000000004e2",
          "blockHash": "0x24badbb4bfaa3cfec711d9806f275da919db6d6e8db2204415fecc641b2b4eed",
          "blockNumber": "0x2f9ad69",
          "blockTimestamp": "0x6a4734fb",
          "transactionHash": "0x78d6a9e6a8f596837622025731f08dd78afc906dcf34d7af870d9bd5636987a3",
          "transactionIndex": "0x24",
          "logIndex": "0x3a",
          "removed": false
        },
        {
          "address": "0xfffffffffffffffffffffffffffffffffffffffe",
          "topics": [
            "0xddf252ad1be2c89b69c2b068fc378daa952ba7f163c4a11628f55a4df523b3ef",
            "0x000000000000000000000000962aba0a590981cf9c5b336ac34922c82f203165",
            "0x00000000000000000000000081d48d2c5d0744e8ef7a5c35cdceb0a27a1c707b"
          ],
          "data": "0x0000000000000000000000000000000000000000000000019e4080d911690000",
          "blockHash": "0x24badbb4bfaa3cfec711d9806f275da919db6d6e8db2204415fecc641b2b4eed",
          "blockNumber": "0x2f9ad69",
          "blockTimestamp": "0x6a4734fb",
          "transactionHash": "0x78d6a9e6a8f596837622025731f08dd78afc906dcf34d7af870d9bd5636987a3",
          "transactionIndex": "0x24",
          "logIndex": "0x3b",
          "removed": false
        },
        {
          "address": "0xfffffffffffffffffffffffffffffffffffffffe",
          "topics": [
            "0xddf252ad1be2c89b69c2b068fc378daa952ba7f163c4a11628f55a4df523b3ef",
            "0x000000000000000000000000962aba0a590981cf9c5b336ac34922c82f203165",
            "0x00000000000000000000000084e243a60a75efe615537af49c5eaee8f3c32ed9"
          ],
          "data": "0x0000000000000000000000000000000000000000000000000214e8348c4f0000",
          "blockHash": "0x24badbb4bfaa3cfec711d9806f275da919db6d6e8db2204415fecc641b2b4eed",
          "blockNumber": "0x2f9ad69",
          "blockTimestamp": "0x6a4734fb",
          "transactionHash": "0x78d6a9e6a8f596837622025731f08dd78afc906dcf34d7af870d9bd5636987a3",
          "transactionIndex": "0x24",
          "logIndex": "0x3c",
          "removed": false
        }
      ],
      "logsBloom": "0x00000000400000000000000400000080000000000000000000000000000000000000000000000000000000000200000000000000000000000002000000002000000000000000000000000008000000000040000000000000001000000004000000000000000000012000000000200000000000000000000000000010000000000000000000200000000000000000000000000000000000000000000000000000000000000000000000000000000000000001000000000000000000000000000000100002000000000008004000000000000000000009000020000000400000400600000000000000000000000000000000000000000000000200080000080000",
      "type": "0x2",
      "transactionHash": "0x78d6a9e6a8f596837622025731f08dd78afc906dcf34d7af870d9bd5636987a3",
      "transactionIndex": "0x24",
      "blockHash": "0x24badbb4bfaa3cfec711d9806f275da919db6d6e8db2204415fecc641b2b4eed",
      "blockNumber": "0x2f9ad69",
      "gasUsed": "0x13a40",
      "effectiveGasPrice": "0x5d21dba00",
      "from": "0x81d48d2c5d0744e8ef7a5c35cdceb0a27a1c707b",
      "to": "0x962aba0a590981cf9c5b336ac34922c82f203165",
      "contractAddress": null
    },
    {
      "status": "0x1",
      "cumulativeGasUsed": "0x7ed32",
      "logs": [
        {
          "address": "0xfffffffffffffffffffffffffffffffffffffffe",
          "topics": [
            "0xddf252ad1be2c89b69c2b068fc378daa952ba7f163c4a11628f55a4df523b3ef",
            "0x00000000000000000000000081d48d2c5d0744e8ef7a5c35cdceb0a27a1c707b",
            "0x000000000000000000000000962aba0a590981cf9c5b336ac34922c82f203165"
          ],
          "data": "0x0000000000000000000000000000000000000000000000006ee949a814ec0000",
          "blockHash": "0x32c81cc6e0d366e9fd22cc3b950a46c4c5e41ab2a09d6ce1d6d9d25278648902",
          "blockNumber": "0x2f9ad6b",
          "blockTimestamp": "0x6a4734fc",
          "transactionHash": "0xc1a985ee30aef7bc6e90a48ffcf9410c131c4e079970c8cc2fd94d2b54bffc98",
          "transactionIndex": "0x5",
          "logIndex": "0xa",
          "removed": false
        },
        {
          "address": "0x962aba0a590981cf9c5b336ac34922c82f203165",
          "topics": [
            "0x82bc30c29d8133d53d443f5e28b84e0fd2b5dcaf3957347d2a67d598186dc07e",
            "0x0000000000000000000000000000000000000000000000000000000000000018",
            "0x0000000000000000000000000000000000000000000000000000000000000018",
            "0x00000000000000000000000081d48d2c5d0744e8ef7a5c35cdceb0a27a1c707b"
          ],
          "data": "0x000000000000000000000000000000000000000000000000000000000000014d0000000000000000000000000000000000000000000000006ee949a814ec0000000000000000000000000000000000000000000000000000008df76885398000",
          "blockHash": "0x32c81cc6e0d366e9fd22cc3b950a46c4c5e41ab2a09d6ce1d6d9d25278648902",
          "blockNumber": "0x2f9ad6b",
          "blockTimestamp": "0x6a4734fc",
          "transactionHash": "0xc1a985ee30aef7bc6e90a48ffcf9410c131c4e079970c8cc2fd94d2b54bffc98",
          "transactionIndex": "0x5",
          "logIndex": "0xb",
          "removed": false
        },
        {
          "address": "0x4d82b6e528d3c2e1a3592e14863ec95eaef4ff85",
          "topics": [
            "0xc3d58168c5ae7397731d063d5bbf3d657854427343f4c083240f7aacaa2d0f62",
            "0x000000000000000000000000962aba0a590981cf9c5b336ac34922c82f203165",
            "0x000000000000000000000000962aba0a590981cf9c5b336ac34922c82f203165",
            "0x00000000000000000000000081d48d2c5d0744e8ef7a5c35cdceb0a27a1c707b"
          ],
          "data": "0x0000000000000000000000000000000000000000000000000000000000000018000000000000000000000000000000000000000000000000000000000000014d",
          "blockHash": "0x32c81cc6e0d366e9fd22cc3b950a46c4c5e41ab2a09d6ce1d6d9d25278648902",
          "blockNumber": "0x2f9ad6b",
          "blockTimestamp": "0x6a4734fc",
          "transactionHash": "0xc1a985ee30aef7bc6e90a48ffcf9410c131c4e079970c8cc2fd94d2b54bffc98",
          "transactionIndex": "0x5",
          "logIndex": "0xc",
          "removed": false
        },
        {
          "address": "0xfffffffffffffffffffffffffffffffffffffffe",
          "topics": [
            "0xddf252ad1be2c89b69c2b068fc378daa952ba7f163c4a11628f55a4df523b3ef",
            "0x000000000000000000000000962aba0a590981cf9c5b336ac34922c82f203165",
            "0x00000000000000000000000081d48d2c5d0744e8ef7a5c35cdceb0a27a1c707b"
          ],
          "data": "0x0000000000000000000000000000000000000000000000006e5b523f8fb28000",
          "blockHash": "0x32c81cc6e0d366e9fd22cc3b950a46c4c5e41ab2a09d6ce1d6d9d25278648902",
          "blockNumber": "0x2f9ad6b",
          "blockTimestamp": "0x6a4734fc",
          "transactionHash": "0xc1a985ee30aef7bc6e90a48ffcf9410c131c4e079970c8cc2fd94d2b54bffc98",
          "transactionIndex": "0x5",
          "logIndex": "0xd",
          "removed": false
        },
        {
          "address": "0xfffffffffffffffffffffffffffffffffffffffe",
          "topics": [
            "0xddf252ad1be2c89b69c2b068fc378daa952ba7f163c4a11628f55a4df523b3ef",
            "0x000000000000000000000000962aba0a590981cf9c5b336ac34922c82f203165",
            "0x00000000000000000000000084e243a60a75efe615537af49c5eaee8f3c32ed9"
          ],
          "data": "0x000000000000000000000000000000000000000000000000008df76885398000",
          "blockHash": "0x32c81cc6e0d366e9fd22cc3b950a46c4c5e41ab2a09d6ce1d6d9d25278648902",
          "blockNumber": "0x2f9ad6b",
          "blockTimestamp": "0x6a4734fc",
          "transactionHash": "0xc1a985ee30aef7bc6e90a48ffcf9410c131c4e079970c8cc2fd94d2b54bffc98",
          "transactionIndex": "0x5",
          "logIndex": "0xe",
          "removed": false
        }
      ],
      "logsBloom": "0x00000000400000000000000400000080000000000000000000000000000000000000000000000000000000000200000000000000000000000002000000002000000000000000000000000008000000000040000000000000001000000004000000000000000000012000000000200000000000000000000000000010000000000000000000200000000000000000000000000000000000000000000000000000000000000000000000000000000000000001000000000000000000000000000000100002000000000008004000000000000000000009000020000000400000400600000000000000000000000000000000000000000000000200080000080000",
      "type": "0x2",
      "transactionHash": "0xc1a985ee30aef7bc6e90a48ffcf9410c131c4e079970c8cc2fd94d2b54bffc98",
      "transactionIndex": "0x5",
      "blockHash": "0x32c81cc6e0d366e9fd22cc3b950a46c4c5e41ab2a09d6ce1d6d9d25278648902",
      "blockNumber": "0x2f9ad6b",
      "gasUsed": "0x13a40",
      "effectiveGasPrice": "0x5d21dba00",
      "from": "0x81d48d2c5d0744e8ef7a5c35cdceb0a27a1c707b",
      "to": "0x962aba0a590981cf9c5b336ac34922c82f203165",
      "contractAddress": null
    },
    {
      "status": "0x1",
      "cumulativeGasUsed": "0x92766",
      "logs": [
        {
          "address": "0xfffffffffffffffffffffffffffffffffffffffe",
          "topics": [
            "0xddf252ad1be2c89b69c2b068fc378daa952ba7f163c4a11628f55a4df523b3ef",
            "0x00000000000000000000000081d48d2c5d0744e8ef7a5c35cdceb0a27a1c707b",
            "0x000000000000000000000000962aba0a590981cf9c5b336ac34922c82f203165"
          ],
          "data": "0x0000000000000000000000000000000000000000000000006c8638915f8e0000",
          "blockHash": "0x32c81cc6e0d366e9fd22cc3b950a46c4c5e41ab2a09d6ce1d6d9d25278648902",
          "blockNumber": "0x2f9ad6b",
          "blockTimestamp": "0x6a4734fc",
          "transactionHash": "0xf35db202af90e721e6b214a97110081c12eac729e4d84338e5d6a3557cd9ab6c",
          "transactionIndex": "0x6",
          "logIndex": "0xf",
          "removed": false
        },
        {
          "address": "0x962aba0a590981cf9c5b336ac34922c82f203165",
          "topics": [
            "0x82bc30c29d8133d53d443f5e28b84e0fd2b5dcaf3957347d2a67d598186dc07e",
            "0x0000000000000000000000000000000000000000000000000000000000000019",
            "0x0000000000000000000000000000000000000000000000000000000000000019",
            "0x00000000000000000000000081d48d2c5d0744e8ef7a5c35cdceb0a27a1c707b"
          ],
          "data": "0x000000000000000000000000000000000000000000000000000000000000000a0000000000000000000000000000000000000000000000006c8638915f8e0000000000000000000000000000000000000000000000000000008ae93e2ab7c000",
          "blockHash": "0x32c81cc6e0d366e9fd22cc3b950a46c4c5e41ab2a09d6ce1d6d9d25278648902",
          "blockNumber": "0x2f9ad6b",
          "blockTimestamp": "0x6a4734fc",
          "transactionHash": "0xf35db202af90e721e6b214a97110081c12eac729e4d84338e5d6a3557cd9ab6c",
          "transactionIndex": "0x6",
          "logIndex": "0x10",
          "removed": false
        },
        {
          "address": "0x4d82b6e528d3c2e1a3592e14863ec95eaef4ff85",
          "topics": [
            "0xc3d58168c5ae7397731d063d5bbf3d657854427343f4c083240f7aacaa2d0f62",
            "0x000000000000000000000000962aba0a590981cf9c5b336ac34922c82f203165",
            "0x000000000000000000000000962aba0a590981cf9c5b336ac34922c82f203165",
            "0x00000000000000000000000081d48d2c5d0744e8ef7a5c35cdceb0a27a1c707b"
          ],
          "data": "0x0000000000000000000000000000000000000000000000000000000000000019000000000000000000000000000000000000000000000000000000000000000a",
          "blockHash": "0x32c81cc6e0d366e9fd22cc3b950a46c4c5e41ab2a09d6ce1d6d9d25278648902",
          "blockNumber": "0x2f9ad6b",
          "blockTimestamp": "0x6a4734fc",
          "transactionHash": "0xf35db202af90e721e6b214a97110081c12eac729e4d84338e5d6a3557cd9ab6c",
          "transactionIndex": "0x6",
          "logIndex": "0x11",
          "removed": false
        },
        {
          "address": "0xfffffffffffffffffffffffffffffffffffffffe",
          "topics": [
            "0xddf252ad1be2c89b69c2b068fc378daa952ba7f163c4a11628f55a4df523b3ef",
            "0x000000000000000000000000962aba0a590981cf9c5b336ac34922c82f203165",
            "0x00000000000000000000000081d48d2c5d0744e8ef7a5c35cdceb0a27a1c707b"
          ],
          "data": "0x0000000000000000000000000000000000000000000000006bfb4f5334d64000",
          "blockHash": "0x32c81cc6e0d366e9fd22cc3b950a46c4c5e41ab2a09d6ce1d6d9d25278648902",
          "blockNumber": "0x2f9ad6b",
          "blockTimestamp": "0x6a4734fc",
          "transactionHash": "0xf35db202af90e721e6b214a97110081c12eac729e4d84338e5d6a3557cd9ab6c",
          "transactionIndex": "0x6",
          "logIndex": "0x12",
          "removed": false
        },
        {
          "address": "0xfffffffffffffffffffffffffffffffffffffffe",
          "topics": [
            "0xddf252ad1be2c89b69c2b068fc378daa952ba7f163c4a11628f55a4df523b3ef",
            "0x000000000000000000000000962aba0a590981cf9c5b336ac34922c82f203165",
            "0x00000000000000000000000084e243a60a75efe615537af49c5eaee8f3c32ed9"
          ],
          "data": "0x000000000000000000000000000000000000000000000000008ae93e2ab7c000",
          "blockHash": "0x32c81cc6e0d366e9fd22cc3b950a46c4c5e41ab2a09d6ce1d6d9d25278648902",
          "blockNumber": "0x2f9ad6b",
          "blockTimestamp": "0x6a4734fc",
          "transactionHash": "0xf35db202af90e721e6b214a97110081c12eac729e4d84338e5d6a3557cd9ab6c",
          "transactionIndex": "0x6",
          "logIndex": "0x13",
          "removed": false
        }
      ],
      "logsBloom": "0x00000000400000000000000400000080000000000000000000000000000000000000000000000000000000000200000000000000000000800002000000002000000000000000000000000008000000000000000000000000001000000004000000000000000000012000000000200000000000000000020000000010000000000000000000200000000000000000000000000000000000000000000000000000000000000000000000000000000000000001000000000000000000000000000000000002000000000008004000000000000000000009000000000000400000400600000000000000000000000000000000000000000000000200088000080000",
      "type": "0x2",
      "transactionHash": "0xf35db202af90e721e6b214a97110081c12eac729e4d84338e5d6a3557cd9ab6c",
      "transactionIndex": "0x6",
      "blockHash": "0x32c81cc6e0d366e9fd22cc3b950a46c4c5e41ab2a09d6ce1d6d9d25278648902",
      "blockNumber": "0x2f9ad6b",
      "gasUsed": "0x13a34",
      "effectiveGasPrice": "0x5d21dba00",
      "from": "0x81d48d2c5d0744e8ef7a5c35cdceb0a27a1c707b",
      "to": "0x962aba0a590981cf9c5b336ac34922c82f203165",
      "contractAddress": null
    },
    {
      "status": "0x1",
      "cumulativeGasUsed": "0xa619a",
      "logs": [
        {
          "address": "0xfffffffffffffffffffffffffffffffffffffffe",
          "topics": [
            "0xddf252ad1be2c89b69c2b068fc378daa952ba7f163c4a11628f55a4df523b3ef",
            "0x00000000000000000000000081d48d2c5d0744e8ef7a5c35cdceb0a27a1c707b",
            "0x000000000000000000000000962aba0a590981cf9c5b336ac34922c82f203165"
          ],
          "data": "0x0000000000000000000000000000000000000000000000009fdf42f6e4800000",
          "blockHash": "0x32c81cc6e0d366e9fd22cc3b950a46c4c5e41ab2a09d6ce1d6d9d25278648902",
          "blockNumber": "0x2f9ad6b",
          "blockTimestamp": "0x6a4734fc",
          "transactionHash": "0x8ed71757d1d0b5a8bda12618db70ef692b79a3a7b1eb67fcb9cdd1773540042e",
          "transactionIndex": "0x7",
          "logIndex": "0x14",
          "removed": false
        },
        {
          "address": "0x962aba0a590981cf9c5b336ac34922c82f203165",
          "topics": [
            "0x82bc30c29d8133d53d443f5e28b84e0fd2b5dcaf3957347d2a67d598186dc07e",
            "0x000000000000000000000000000000000000000000000000000000000000001a",
            "0x000000000000000000000000000000000000000000000000000000000000001a",
            "0x00000000000000000000000081d48d2c5d0744e8ef7a5c35cdceb0a27a1c707b"
          ],
          "data": "0x00000000000000000000000000000000000000000000000000000000000000120000000000000000000000000000000000000000000000009fdf42f6e480000000000000000000000000000000000000000000000000000000cca2e513100000",
          "blockHash": "0x32c81cc6e0d366e9fd22cc3b950a46c4c5e41ab2a09d6ce1d6d9d25278648902",
          "blockNumber": "0x2f9ad6b",
          "blockTimestamp": "0x6a4734fc",
          "transactionHash": "0x8ed71757d1d0b5a8bda12618db70ef692b79a3a7b1eb67fcb9cdd1773540042e",
          "transactionIndex": "0x7",
          "logIndex": "0x15",
          "removed": false
        },
        {
          "address": "0x4d82b6e528d3c2e1a3592e14863ec95eaef4ff85",
          "topics": [
            "0xc3d58168c5ae7397731d063d5bbf3d657854427343f4c083240f7aacaa2d0f62",
            "0x000000000000000000000000962aba0a590981cf9c5b336ac34922c82f203165",
            "0x000000000000000000000000962aba0a590981cf9c5b336ac34922c82f203165",
            "0x00000000000000000000000081d48d2c5d0744e8ef7a5c35cdceb0a27a1c707b"
          ],
          "data": "0x000000000000000000000000000000000000000000000000000000000000001a0000000000000000000000000000000000000000000000000000000000000012",
          "blockHash": "0x32c81cc6e0d366e9fd22cc3b950a46c4c5e41ab2a09d6ce1d6d9d25278648902",
          "blockNumber": "0x2f9ad6b",
          "blockTimestamp": "0x6a4734fc",
          "transactionHash": "0x8ed71757d1d0b5a8bda12618db70ef692b79a3a7b1eb67fcb9cdd1773540042e",
          "transactionIndex": "0x7",
          "logIndex": "0x16",
          "removed": false
        },
        {
          "address": "0xfffffffffffffffffffffffffffffffffffffffe",
          "topics": [
            "0xddf252ad1be2c89b69c2b068fc378daa952ba7f163c4a11628f55a4df523b3ef",
            "0x000000000000000000000000962aba0a590981cf9c5b336ac34922c82f203165",
            "0x00000000000000000000000081d48d2c5d0744e8ef7a5c35cdceb0a27a1c707b"
          ],
          "data": "0x0000000000000000000000000000000000000000000000009f12a011d1700000",
          "blockHash": "0x32c81cc6e0d366e9fd22cc3b950a46c4c5e41ab2a09d6ce1d6d9d25278648902",
          "blockNumber": "0x2f9ad6b",
          "blockTimestamp": "0x6a4734fc",
          "transactionHash": "0x8ed71757d1d0b5a8bda12618db70ef692b79a3a7b1eb67fcb9cdd1773540042e",
          "transactionIndex": "0x7",
          "logIndex": "0x17",
          "removed": false
        },
        {
          "address": "0xfffffffffffffffffffffffffffffffffffffffe",
          "topics": [
            "0xddf252ad1be2c89b69c2b068fc378daa952ba7f163c4a11628f55a4df523b3ef",
            "0x000000000000000000000000962aba0a590981cf9c5b336ac34922c82f203165",
            "0x00000000000000000000000084e243a60a75efe615537af49c5eaee8f3c32ed9"
          ],
          "data": "0x00000000000000000000000000000000000000000000000000cca2e513100000",
          "blockHash": "0x32c81cc6e0d366e9fd22cc3b950a46c4c5e41ab2a09d6ce1d6d9d25278648902",
          "blockNumber": "0x2f9ad6b",
          "blockTimestamp": "0x6a4734fc",
          "transactionHash": "0x8ed71757d1d0b5a8bda12618db70ef692b79a3a7b1eb67fcb9cdd1773540042e",
          "transactionIndex": "0x7",
          "logIndex": "0x18",
          "removed": false
        }
      ],
      "logsBloom": "0x00000000400000000000000400000080000000000000000000000000000000000000000000000000000000000200000000000000000000000002000000002000000000000000000000000008000000001000000000000000001000001004000000000000000000012000000000200000000000000000000000000010000000000000000000200000000000000000000000000000000000000000000000000000000000000000000000000000000000000001000000000000000000000000000000000002000000000008004000000000000000000009000000000000400000400600000000000000000000000000000000000000000004000200080000080000",
      "type": "0x2",
      "transactionHash": "0x8ed71757d1d0b5a8bda12618db70ef692b79a3a7b1eb67fcb9cdd1773540042e",
      "transactionIndex": "0x7",
      "blockHash": "0x32c81cc6e0d366e9fd22cc3b950a46c4c5e41ab2a09d6ce1d6d9d25278648902",
      "blockNumber": "0x2f9ad6b",
      "gasUsed": "0x13a34",
      "effectiveGasPrice": "0x5d21dba00",
      "from": "0x81d48d2c5d0744e8ef7a5c35cdceb0a27a1c707b",
      "to": "0x962aba0a590981cf9c5b336ac34922c82f203165",
      "contractAddress": null
    },
    {
      "status": "0x1",
      "cumulativeGasUsed": "0xb9bce",
      "logs": [
        {
          "address": "0xfffffffffffffffffffffffffffffffffffffffe",
          "topics": [
            "0xddf252ad1be2c89b69c2b068fc378daa952ba7f163c4a11628f55a4df523b3ef",
            "0x00000000000000000000000081d48d2c5d0744e8ef7a5c35cdceb0a27a1c707b",
            "0x000000000000000000000000962aba0a590981cf9c5b336ac34922c82f203165"
          ],
          "data": "0x000000000000000000000000000000000000000000000000cc47f20295c00000",
          "blockHash": "0x32c81cc6e0d366e9fd22cc3b950a46c4c5e41ab2a09d6ce1d6d9d25278648902",
          "blockNumber": "0x2f9ad6b",
          "blockTimestamp": "0x6a4734fc",
          "transactionHash": "0x109f7666bae4e8c2e2035c2d0c03ccc25b67780a5a214d920572b13c45861e19",
          "transactionIndex": "0x8",
          "logIndex": "0x19",
          "removed": false
        },
        {
          "address": "0x962aba0a590981cf9c5b336ac34922c82f203165",
          "topics": [
            "0x82bc30c29d8133d53d443f5e28b84e0fd2b5dcaf3957347d2a67d598186dc07e",
            "0x000000000000000000000000000000000000000000000000000000000000001a",
            "0x000000000000000000000000000000000000000000000000000000000000001a",
            "0x00000000000000000000000081d48d2c5d0744e8ef7a5c35cdceb0a27a1c707b"
          ],
          "data": "0x0000000000000000000000000000000000000000000000000000000000000017000000000000000000000000000000000000000000000000cc47f20295c0000000000000000000000000000000000000000000000000000001057acf5f780000",
          "blockHash": "0x32c81cc6e0d366e9fd22cc3b950a46c4c5e41ab2a09d6ce1d6d9d25278648902",
          "blockNumber": "0x2f9ad6b",
          "blockTimestamp": "0x6a4734fc",
          "transactionHash": "0x109f7666bae4e8c2e2035c2d0c03ccc25b67780a5a214d920572b13c45861e19",
          "transactionIndex": "0x8",
          "logIndex": "0x1a",
          "removed": false
        },
        {
          "address": "0x4d82b6e528d3c2e1a3592e14863ec95eaef4ff85",
          "topics": [
            "0xc3d58168c5ae7397731d063d5bbf3d657854427343f4c083240f7aacaa2d0f62",
            "0x000000000000000000000000962aba0a590981cf9c5b336ac34922c82f203165",
            "0x000000000000000000000000962aba0a590981cf9c5b336ac34922c82f203165",
            "0x00000000000000000000000081d48d2c5d0744e8ef7a5c35cdceb0a27a1c707b"
          ],
          "data": "0x000000000000000000000000000000000000000000000000000000000000001a0000000000000000000000000000000000000000000000000000000000000017",
          "blockHash": "0x32c81cc6e0d366e9fd22cc3b950a46c4c5e41ab2a09d6ce1d6d9d25278648902",
          "blockNumber": "0x2f9ad6b",
          "blockTimestamp": "0x6a4734fc",
          "transactionHash": "0x109f7666bae4e8c2e2035c2d0c03ccc25b67780a5a214d920572b13c45861e19",
          "transactionIndex": "0x8",
          "logIndex": "0x1b",
          "removed": false
        },
        {
          "address": "0xfffffffffffffffffffffffffffffffffffffffe",
          "topics": [
            "0xddf252ad1be2c89b69c2b068fc378daa952ba7f163c4a11628f55a4df523b3ef",
            "0x000000000000000000000000962aba0a590981cf9c5b336ac34922c82f203165",
            "0x00000000000000000000000081d48d2c5d0744e8ef7a5c35cdceb0a27a1c707b"
          ],
          "data": "0x000000000000000000000000000000000000000000000000cb42773336480000",
          "blockHash": "0x32c81cc6e0d366e9fd22cc3b950a46c4c5e41ab2a09d6ce1d6d9d25278648902",
          "blockNumber": "0x2f9ad6b",
          "blockTimestamp": "0x6a4734fc",
          "transactionHash": "0x109f7666bae4e8c2e2035c2d0c03ccc25b67780a5a214d920572b13c45861e19",
          "transactionIndex": "0x8",
          "logIndex": "0x1c",
          "removed": false
        },
        {
          "address": "0xfffffffffffffffffffffffffffffffffffffffe",
          "topics": [
            "0xddf252ad1be2c89b69c2b068fc378daa952ba7f163c4a11628f55a4df523b3ef",
            "0x000000000000000000000000962aba0a590981cf9c5b336ac34922c82f203165",
            "0x00000000000000000000000084e243a60a75efe615537af49c5eaee8f3c32ed9"
          ],
          "data": "0x00000000000000000000000000000000000000000000000001057acf5f780000",
          "blockHash": "0x32c81cc6e0d366e9fd22cc3b950a46c4c5e41ab2a09d6ce1d6d9d25278648902",
          "blockNumber": "0x2f9ad6b",
          "blockTimestamp": "0x6a4734fc",
          "transactionHash": "0x109f7666bae4e8c2e2035c2d0c03ccc25b67780a5a214d920572b13c45861e19",
          "transactionIndex": "0x8",
          "logIndex": "0x1d",
          "removed": false
        }
      ],
      "logsBloom": "0x00000000400000000000000400000080000000000000000000000000000000000000000000000000000000000200000000000000000000000002000000002000000000000000000000000008000000001000000000000000001000001004000000000000000000012000000000200000000000000000000000000010000000000000000000200000000000000000000000000000000000000000000000000000000000000000000000000000000000000001000000000000000000000000000000000002000000000008004000000000000000000009000000000000400000400600000000000000000000000000000000000000000004000200080000080000",
      "type": "0x2",
      "transactionHash": "0x109f7666bae4e8c2e2035c2d0c03ccc25b67780a5a214d920572b13c45861e19",
      "transactionIndex": "0x8",
      "blockHash": "0x32c81cc6e0d366e9fd22cc3b950a46c4c5e41ab2a09d6ce1d6d9d25278648902",
      "blockNumber": "0x2f9ad6b",
      "gasUsed": "0x13a34",
      "effectiveGasPrice": "0x5d21dba00",
      "from": "0x81d48d2c5d0744e8ef7a5c35cdceb0a27a1c707b",
      "to": "0x962aba0a590981cf9c5b336ac34922c82f203165",
      "contractAddress": null
    },
    {
      "status": "0x1",
      "cumulativeGasUsed": "0xcd602",
      "logs": [
        {
          "address": "0xfffffffffffffffffffffffffffffffffffffffe",
          "topics": [
            "0xddf252ad1be2c89b69c2b068fc378daa952ba7f163c4a11628f55a4df523b3ef",
            "0x00000000000000000000000081d48d2c5d0744e8ef7a5c35cdceb0a27a1c707b",
            "0x000000000000000000000000962aba0a590981cf9c5b336ac34922c82f203165"
          ],
          "data": "0x000000000000000000000000000000000000000000000000c7d713b49da00000",
          "blockHash": "0x32c81cc6e0d366e9fd22cc3b950a46c4c5e41ab2a09d6ce1d6d9d25278648902",
          "blockNumber": "0x2f9ad6b",
          "blockTimestamp": "0x6a4734fc",
          "transactionHash": "0x8404c70db140ca0e167553530fddab323424826c06ed43958317c5e9f9b1bd29",
          "transactionIndex": "0x9",
          "logIndex": "0x1e",
          "removed": false
        },
        {
          "address": "0x962aba0a590981cf9c5b336ac34922c82f203165",
          "topics": [
            "0x82bc30c29d8133d53d443f5e28b84e0fd2b5dcaf3957347d2a67d598186dc07e",
            "0x000000000000000000000000000000000000000000000000000000000000001b",
            "0x000000000000000000000000000000000000000000000000000000000000001b",
            "0x00000000000000000000000081d48d2c5d0744e8ef7a5c35cdceb0a27a1c707b"
          ],
          "data": "0x000000000000000000000000000000000000000000000000000000000000000c000000000000000000000000000000000000000000000000c7d713b49da0000000000000000000000000000000000000000000000000000000ffcb9e57d40000",
          "blockHash": "0x32c81cc6e0d366e9fd22cc3b950a46c4c5e41ab2a09d6ce1d6d9d25278648902",
          "blockNumber": "0x2f9ad6b",
          "blockTimestamp": "0x6a4734fc",
          "transactionHash": "0x8404c70db140ca0e167553530fddab323424826c06ed43958317c5e9f9b1bd29",
          "transactionIndex": "0x9",
          "logIndex": "0x1f",
          "removed": false
        },
        {
          "address": "0x4d82b6e528d3c2e1a3592e14863ec95eaef4ff85",
          "topics": [
            "0xc3d58168c5ae7397731d063d5bbf3d657854427343f4c083240f7aacaa2d0f62",
            "0x000000000000000000000000962aba0a590981cf9c5b336ac34922c82f203165",
            "0x000000000000000000000000962aba0a590981cf9c5b336ac34922c82f203165",
            "0x00000000000000000000000081d48d2c5d0744e8ef7a5c35cdceb0a27a1c707b"
          ],
          "data": "0x000000000000000000000000000000000000000000000000000000000000001b000000000000000000000000000000000000000000000000000000000000000c",
          "blockHash": "0x32c81cc6e0d366e9fd22cc3b950a46c4c5e41ab2a09d6ce1d6d9d25278648902",
          "blockNumber": "0x2f9ad6b",
          "blockTimestamp": "0x6a4734fc",
          "transactionHash": "0x8404c70db140ca0e167553530fddab323424826c06ed43958317c5e9f9b1bd29",
          "transactionIndex": "0x9",
          "logIndex": "0x20",
          "removed": false
        },
        {
          "address": "0xfffffffffffffffffffffffffffffffffffffffe",
          "topics": [
            "0xddf252ad1be2c89b69c2b068fc378daa952ba7f163c4a11628f55a4df523b3ef",
            "0x000000000000000000000000962aba0a590981cf9c5b336ac34922c82f203165",
            "0x00000000000000000000000081d48d2c5d0744e8ef7a5c35cdceb0a27a1c707b"
          ],
          "data": "0x000000000000000000000000000000000000000000000000c6d7481645cc0000",
          "blockHash": "0x32c81cc6e0d366e9fd22cc3b950a46c4c5e41ab2a09d6ce1d6d9d25278648902",
          "blockNumber": "0x2f9ad6b",
          "blockTimestamp": "0x6a4734fc",
          "transactionHash": "0x8404c70db140ca0e167553530fddab323424826c06ed43958317c5e9f9b1bd29",
          "transactionIndex": "0x9",
          "logIndex": "0x21",
          "removed": false
        },
        {
          "address": "0xfffffffffffffffffffffffffffffffffffffffe",
          "topics": [
            "0xddf252ad1be2c89b69c2b068fc378daa952ba7f163c4a11628f55a4df523b3ef",
            "0x000000000000000000000000962aba0a590981cf9c5b336ac34922c82f203165",
            "0x00000000000000000000000084e243a60a75efe615537af49c5eaee8f3c32ed9"
          ],
          "data": "0x00000000000000000000000000000000000000000000000000ffcb9e57d40000",
          "blockHash": "0x32c81cc6e0d366e9fd22cc3b950a46c4c5e41ab2a09d6ce1d6d9d25278648902",
          "blockNumber": "0x2f9ad6b",
          "blockTimestamp": "0x6a4734fc",
          "transactionHash": "0x8404c70db140ca0e167553530fddab323424826c06ed43958317c5e9f9b1bd29",
          "transactionIndex": "0x9",
          "logIndex": "0x22",
          "removed": false
        }
      ],
      "logsBloom": "0x00000000400000000000000400000080000000000010000000000000000000000000000000000000000000000200000000000000000000000002000000002000000000000000000000000008000000000000000000000000001000000004000000000000000000012000000000200000000000000000000000000010000000000000000000200000000000000000000000000000000000000000000000000000000000000100000000000000000000000001000000008000000000000000000000000002000000000008004000000000000000000009000000000000400000400600000000000000000000000000000000000000000000000200080000080000",
      "type": "0x2",
      "transactionHash": "0x8404c70db140ca0e167553530fddab323424826c06ed43958317c5e9f9b1bd29",
      "transactionIndex": "0x9",
      "blockHash": "0x32c81cc6e0d366e9fd22cc3b950a46c4c5e41ab2a09d6ce1d6d9d25278648902",
      "blockNumber": "0x2f9ad6b",
      "gasUsed": "0x13a34",
      "effectiveGasPrice": "0x5d21dba00",
      "from": "0x81d48d2c5d0744e8ef7a5c35cdceb0a27a1c707b",
      "to": "0x962aba0a590981cf9c5b336ac34922c82f203165",
      "contractAddress": null
    },
    {
      "status": "0x1",
      "cumulativeGasUsed": "0x12291a",
      "logs": [
        {
          "address": "0xfffffffffffffffffffffffffffffffffffffffe",
          "topics": [
            "0xddf252ad1be2c89b69c2b068fc378daa952ba7f163c4a11628f55a4df523b3ef",
            "0x00000000000000000000000081d48d2c5d0744e8ef7a5c35cdceb0a27a1c707b",
            "0x000000000000000000000000962aba0a590981cf9c5b336ac34922c82f203165"
          ],
          "data": "0x000000000000000000000000000000000000000000000001a055690d9db80000",
          "blockHash": "0x32c81cc6e0d366e9fd22cc3b950a46c4c5e41ab2a09d6ce1d6d9d25278648902",
          "blockNumber": "0x2f9ad6b",
          "blockTimestamp": "0x6a4734fc",
          "transactionHash": "0x146cabf0945efb9c29aca338d9bd5dd1d57a798d0e6f7f4c5917ca1dda84e98b",
          "transactionIndex": "0xc",
          "logIndex": "0x25",
          "removed": false
        },
        {
          "address": "0x962aba0a590981cf9c5b336ac34922c82f203165",
          "topics": [
            "0x82bc30c29d8133d53d443f5e28b84e0fd2b5dcaf3957347d2a67d598186dc07e",
            "0x000000000000000000000000000000000000000000000000000000000000001c",
            "0x000000000000000000000000000000000000000000000000000000000000001c",
            "0x00000000000000000000000081d48d2c5d0744e8ef7a5c35cdceb0a27a1c707b"
          ],
          "data": "0x000000000000000000000000000000000000000000000000000000000000012c000000000000000000000000000000000000000000000001a055690d9db800000000000000000000000000000000000000000000000000000214e8348c4f0000",
          "blockHash": "0x32c81cc6e0d366e9fd22cc3b950a46c4c5e41ab2a09d6ce1d6d9d25278648902",
          "blockNumber": "0x2f9ad6b",
          "blockTimestamp": "0x6a4734fc",
          "transactionHash": "0x146cabf0945efb9c29aca338d9bd5dd1d57a798d0e6f7f4c5917ca1dda84e98b",
          "transactionIndex": "0xc",
          "logIndex": "0x26",
          "removed": false
        },
        {
          "address": "0x4d82b6e528d3c2e1a3592e14863ec95eaef4ff85",
          "topics": [
            "0xc3d58168c5ae7397731d063d5bbf3d657854427343f4c083240f7aacaa2d0f62",
            "0x000000000000000000000000962aba0a590981cf9c5b336ac34922c82f203165",
            "0x000000000000000000000000962aba0a590981cf9c5b336ac34922c82f203165",
            "0x00000000000000000000000081d48d2c5d0744e8ef7a5c35cdceb0a27a1c707b"
          ],
          "data": "0x000000000000000000000000000000000000000000000000000000000000001c000000000000000000000000000000000000000000000000000000000000012c",
          "blockHash": "0x32c81cc6e0d366e9fd22cc3b950a46c4c5e41ab2a09d6ce1d6d9d25278648902",
          "blockNumber": "0x2f9ad6b",
          "blockTimestamp": "0x6a4734fc",
          "transactionHash": "0x146cabf0945efb9c29aca338d9bd5dd1d57a798d0e6f7f4c5917ca1dda84e98b",
          "transactionIndex": "0xc",
          "logIndex": "0x27",
          "removed": false
        },
        {
          "address": "0xfffffffffffffffffffffffffffffffffffffffe",
          "topics": [
            "0xddf252ad1be2c89b69c2b068fc378daa952ba7f163c4a11628f55a4df523b3ef",
            "0x000000000000000000000000962aba0a590981cf9c5b336ac34922c82f203165",
            "0x00000000000000000000000081d48d2c5d0744e8ef7a5c35cdceb0a27a1c707b"
          ],
          "data": "0x0000000000000000000000000000000000000000000000019e4080d911690000",
          "blockHash": "0x32c81cc6e0d366e9fd22cc3b950a46c4c5e41ab2a09d6ce1d6d9d25278648902",
          "blockNumber": "0x2f9ad6b",
          "blockTimestamp": "0x6a4734fc",
          "transactionHash": "0x146cabf0945efb9c29aca338d9bd5dd1d57a798d0e6f7f4c5917ca1dda84e98b",
          "transactionIndex": "0xc",
          "logIndex": "0x28",
          "removed": false
        },
        {
          "address": "0xfffffffffffffffffffffffffffffffffffffffe",
          "topics": [
            "0xddf252ad1be2c89b69c2b068fc378daa952ba7f163c4a11628f55a4df523b3ef",
            "0x000000000000000000000000962aba0a590981cf9c5b336ac34922c82f203165",
            "0x00000000000000000000000084e243a60a75efe615537af49c5eaee8f3c32ed9"
          ],
          "data": "0x0000000000000000000000000000000000000000000000000214e8348c4f0000",
          "blockHash": "0x32c81cc6e0d366e9fd22cc3b950a46c4c5e41ab2a09d6ce1d6d9d25278648902",
          "blockNumber": "0x2f9ad6b",
          "blockTimestamp": "0x6a4734fc",
          "transactionHash": "0x146cabf0945efb9c29aca338d9bd5dd1d57a798d0e6f7f4c5917ca1dda84e98b",
          "transactionIndex": "0xc",
          "logIndex": "0x29",
          "removed": false
        }
      ],
      "logsBloom": "0x00000000400000000000000400000080000000000000000000000000000000000000000000000000000000000200000000000000000000200002000000002000000000000000000000000008000000000000000000000000001000000004000000000000000000012000000000200000000000000000000000000010000000000000000000200000000000000000000200000000000000000000000000000000000000000000000000000002000000000001000000000000000000000000000000000002000000000008004000000000000000000009000000000000400000400600000000000000000000000000000000000000000000000200080000080000",
      "type": "0x2",
      "transactionHash": "0x146cabf0945efb9c29aca338d9bd5dd1d57a798d0e6f7f4c5917ca1dda84e98b",
      "transactionIndex": "0xc",
      "blockHash": "0x32c81cc6e0d366e9fd22cc3b950a46c4c5e41ab2a09d6ce1d6d9d25278648902",
      "blockNumber": "0x2f9ad6b",
      "gasUsed": "0x13a40",
      "effectiveGasPrice": "0x5d21dba00",
      "from": "0x81d48d2c5d0744e8ef7a5c35cdceb0a27a1c707b",
      "to": "0x962aba0a590981cf9c5b336ac34922c82f203165",
      "contractAddress": null
    },
    {
      "status": "0x1",
      "cumulativeGasUsed": "0x13634e",
      "logs": [
        {
          "address": "0xfffffffffffffffffffffffffffffffffffffffe",
          "topics": [
            "0xddf252ad1be2c89b69c2b068fc378daa952ba7f163c4a11628f55a4df523b3ef",
            "0x00000000000000000000000081d48d2c5d0744e8ef7a5c35cdceb0a27a1c707b",
            "0x000000000000000000000000962aba0a590981cf9c5b336ac34922c82f203165"
          ],
          "data": "0x0000000000000000000000000000000000000000000000006f05b59d3b200000",
          "blockHash": "0x32c81cc6e0d366e9fd22cc3b950a46c4c5e41ab2a09d6ce1d6d9d25278648902",
          "blockNumber": "0x2f9ad6b",
          "blockTimestamp": "0x6a4734fc",
          "transactionHash": "0x257fe9ceafc4b802ba8d2d41fdf3082223a367a6d09665056d9efe1c647765c0",
          "transactionIndex": "0xd",
          "logIndex": "0x2a",
          "removed": false
        },
        {
          "address": "0x962aba0a590981cf9c5b336ac34922c82f203165",
          "topics": [
            "0x82bc30c29d8133d53d443f5e28b84e0fd2b5dcaf3957347d2a67d598186dc07e",
            "0x000000000000000000000000000000000000000000000000000000000000001c",
            "0x000000000000000000000000000000000000000000000000000000000000001c",
            "0x00000000000000000000000081d48d2c5d0744e8ef7a5c35cdceb0a27a1c707b"
          ],
          "data": "0x00000000000000000000000000000000000000000000000000000000000000500000000000000000000000000000000000000000000000006f05b59d3b200000000000000000000000000000000000000000000000000000008e1bc9bf040000",
          "blockHash": "0x32c81cc6e0d366e9fd22cc3b950a46c4c5e41ab2a09d6ce1d6d9d25278648902",
          "blockNumber": "0x2f9ad6b",
          "blockTimestamp": "0x6a4734fc",
          "transactionHash": "0x257fe9ceafc4b802ba8d2d41fdf3082223a367a6d09665056d9efe1c647765c0",
          "transactionIndex": "0xd",
          "logIndex": "0x2b",
          "removed": false
        },
        {
          "address": "0x4d82b6e528d3c2e1a3592e14863ec95eaef4ff85",
          "topics": [
            "0xc3d58168c5ae7397731d063d5bbf3d657854427343f4c083240f7aacaa2d0f62",
            "0x000000000000000000000000962aba0a590981cf9c5b336ac34922c82f203165",
            "0x000000000000000000000000962aba0a590981cf9c5b336ac34922c82f203165",
            "0x00000000000000000000000081d48d2c5d0744e8ef7a5c35cdceb0a27a1c707b"
          ],
          "data": "0x000000000000000000000000000000000000000000000000000000000000001c0000000000000000000000000000000000000000000000000000000000000050",
          "blockHash": "0x32c81cc6e0d366e9fd22cc3b950a46c4c5e41ab2a09d6ce1d6d9d25278648902",
          "blockNumber": "0x2f9ad6b",
          "blockTimestamp": "0x6a4734fc",
          "transactionHash": "0x257fe9ceafc4b802ba8d2d41fdf3082223a367a6d09665056d9efe1c647765c0",
          "transactionIndex": "0xd",
          "logIndex": "0x2c",
          "removed": false
        },
        {
          "address": "0xfffffffffffffffffffffffffffffffffffffffe",
          "topics": [
            "0xddf252ad1be2c89b69c2b068fc378daa952ba7f163c4a11628f55a4df523b3ef",
            "0x000000000000000000000000962aba0a590981cf9c5b336ac34922c82f203165",
            "0x00000000000000000000000081d48d2c5d0744e8ef7a5c35cdceb0a27a1c707b"
          ],
          "data": "0x0000000000000000000000000000000000000000000000006e7799d37c1c0000",
          "blockHash": "0x32c81cc6e0d366e9fd22cc3b950a46c4c5e41ab2a09d6ce1d6d9d25278648902",
          "blockNumber": "0x2f9ad6b",
          "blockTimestamp": "0x6a4734fc",
          "transactionHash": "0x257fe9ceafc4b802ba8d2d41fdf3082223a367a6d09665056d9efe1c647765c0",
          "transactionIndex": "0xd",
          "logIndex": "0x2d",
          "removed": false
        },
        {
          "address": "0xfffffffffffffffffffffffffffffffffffffffe",
          "topics": [
            "0xddf252ad1be2c89b69c2b068fc378daa952ba7f163c4a11628f55a4df523b3ef",
            "0x000000000000000000000000962aba0a590981cf9c5b336ac34922c82f203165",
            "0x00000000000000000000000084e243a60a75efe615537af49c5eaee8f3c32ed9"
          ],
          "data": "0x000000000000000000000000000000000000000000000000008e1bc9bf040000",
          "blockHash": "0x32c81cc6e0d366e9fd22cc3b950a46c4c5e41ab2a09d6ce1d6d9d25278648902",
          "blockNumber": "0x2f9ad6b",
          "blockTimestamp": "0x6a4734fc",
          "transactionHash": "0x257fe9ceafc4b802ba8d2d41fdf3082223a367a6d09665056d9efe1c647765c0",
          "transactionIndex": "0xd",
          "logIndex": "0x2e",
          "removed": false
        }
      ],
      "logsBloom": "0x00000000400000000000000400000080000000000000000000000000000000000000000000000000000000000200000000000000000000200002000000002000000000000000000000000008000000000000000000000000001000000004000000000000000000012000000000200000000000000000000000000010000000000000000000200000000000000000000200000000000000000000000000000000000000000000000000000002000000000001000000000000000000000000000000000002000000000008004000000000000000000009000000000000400000400600000000000000000000000000000000000000000000000200080000080000",
      "type": "0x2",
      "transactionHash": "0x257fe9ceafc4b802ba8d2d41fdf3082223a367a6d09665056d9efe1c647765c0",
      "transactionIndex": "0xd",
      "blockHash": "0x32c81cc6e0d366e9fd22cc3b950a46c4c5e41ab2a09d6ce1d6d9d25278648902",
      "blockNumber": "0x2f9ad6b",
      "gasUsed": "0x13a34",
      "effectiveGasPrice": "0x5d21dba00",
      "from": "0x81d48d2c5d0744e8ef7a5c35cdceb0a27a1c707b",
      "to": "0x962aba0a590981cf9c5b336ac34922c82f203165",
      "contractAddress": null
    }
  ],
  "libraries": [],
  "pending": [],
  "returns": {},
  "timestamp": 1783051518958,
  "chain": 5042002,
  "commit": "d2030d4"
}