{
  "transactions": [
    {
      "hash": "0x3c26b1dfaa84a1d2e89ce4f21c0c91062b285d2b14820eef11b5127946d86a39",
      "transactionType": "CALL",
      "contractName": null,
      "contractAddress": "0x962aba0a590981cf9c5b336ac34922c82f203165",
      "function": "buyPrimary(uint256,uint256)",
      "arguments": [
        "1",
        "1"
      ],
      "transaction": {
        "from": "0x81d48d2c5d0744e8ef7a5c35cdceb0a27a1c707b",
        "to": "0x962aba0a590981cf9c5b336ac34922c82f203165",
        "gas": "0x1b1fd",
        "value": "0x56bc75e2d63100000",
        "input": "0xe37178f100000000000000000000000000000000000000000000000000000000000000010000000000000000000000000000000000000000000000000000000000000001",
        "nonce": "0x1ac",
        "chainId": "0x4cef52"
      },
      "additionalContracts": [],
      "isFixedGasLimit": false
    },
    {
      "hash": "0x16387f4bb212b7284d7799f499ccad4c2b879c2b2bf57a22f84b5323c0f21e07",
      "transactionType": "CALL",
      "contractName": null,
      "contractAddress": "0x962aba0a590981cf9c5b336ac34922c82f203165",
      "function": "buyPrimary(uint256,uint256)",
      "arguments": [
        "2",
        "3"
      ],
      "transaction": {
        "from": "0x81d48d2c5d0744e8ef7a5c35cdceb0a27a1c707b",
        "to": "0x962aba0a590981cf9c5b336ac34922c82f203165",
        "gas": "0x1b1fd",
        "value": "0x3dedfc1b4e2e40000",
        "input": "0xe37178f100000000000000000000000000000000000000000000000000000000000000020000000000000000000000000000000000000000000000000000000000000003",
        "nonce": "0x1ad",
        "chainId": "0x4cef52"
      },
      "additionalContracts": [],
      "isFixedGasLimit": false
    },
    {
      "hash": "0x6e1ea38575a2be5901fddde9ee4bbeb6422d017d9e98284d3ed09e9074405b28",
      "transactionType": "CALL",
      "contractName": null,
      "contractAddress": "0x962aba0a590981cf9c5b336ac34922c82f203165",
      "function": "buyPrimary(uint256,uint256)",
      "arguments": [
        "2",
        "3"
      ],
      "transaction": {
        "from": "0x81d48d2c5d0744e8ef7a5c35cdceb0a27a1c707b",
        "to": "0x962aba0a590981cf9c5b336ac34922c82f203165",
        "gas": "0x1b1fd",
        "value": "0x3dedfc1b4e2e40000",
        "input": "0xe37178f100000000000000000000000000000000000000000000000000000000000000020000000000000000000000000000000000000000000000000000000000000003",
        "nonce": "0x1ae",
        "chainId": "0x4cef52"
      },
      "additionalContracts": [],
      "isFixedGasLimit": false
    },
    {
      "hash": "0x26c34d9f14683660ed21e9690a522ab4ec571a118875aa8207592c3adff699de",
      "transactionType": "CALL",
      "contractName": null,
      "contractAddress": "0x962aba0a590981cf9c5b336ac34922c82f203165",
      "function": "buyPrimary(uint256,uint256)",
      "arguments": [
        "3",
        "1"
      ],
      "transaction": {
        "from": "0x81d48d2c5d0744e8ef7a5c35cdceb0a27a1c707b",
        "to": "0x962aba0a590981cf9c5b336ac34922c82f203165",
        "gas": "0x1b1fd",
        "value": "0x302379bf2ca2e0000",
        "input": "0xe37178f100000000000000000000000000000000000000000000000000000000000000030000000000000000000000000000000000000000000000000000000000000001",
        "nonce": "0x1af",
        "chainId": "0x4cef52"
      },
      "additionalContracts": [],
      "isFixedGasLimit": false
    },
    {
      "hash": "0x96c03388a84ac7f9ad00df737e1e7b92766c66c14e9108e0982f483a3f2efae0",
      "transactionType": "CALL",
      "contractName": null,
      "contractAddress": "0x962aba0a590981cf9c5b336ac34922c82f203165",
      "function": "buyPrimary(uint256,uint256)",
      "arguments": [
        "3",
        "1"
      ],
      "transaction": {
        "from": "0x81d48d2c5d0744e8ef7a5c35cdceb0a27a1c707b",
        "to": "0x962aba0a590981cf9c5b336ac34922c82f203165",
        "gas": "0x1b1fd",
        "value": "0x302379bf2ca2e0000",
        "input": "0xe37178f100000000000000000000000000000000000000000000000000000000000000030000000000000000000000000000000000000000000000000000000000000001",
        "nonce": "0x1b0",
        "chainId": "0x4cef52"
      },
      "additionalContracts": [],
      "isFixedGasLimit": false
    },
    {
      "hash": "0x48f003c4ce5f63a3298dd5f6803427ba59147e9fc5252d6f39d5f4cb26758613",
      "transactionType": "CALL",
      "contractName": null,
      "contractAddress": "0x962aba0a590981cf9c5b336ac34922c82f203165",
      "function": "buyPrimary(uint256,uint256)",
      "arguments": [
        "4",
        "3"
      ],
      "transaction": {
        "from": "0x81d48d2c5d0744e8ef7a5c35cdceb0a27a1c707b",
        "to": "0x962aba0a590981cf9c5b336ac34922c82f203165",
        "gas": "0x1b1fd",
        "value": "0x4d058f98476b0000",
        "input": "0xe37178f100000000000000000000000000000000000000000000000000000000000000040000000000000000000000000000000000000000000000000000000000000003",
        "nonce": "0x1b1",
        "chainId": "0x4cef52"
      },
      "additionalContracts": [],
      "isFixedGasLimit": false
    },
    {
      "hash": "0xa8d6443f3816624f594e2d986e235cf471471b878ccba73ab04fc5eef63caeff",
      "transactionType": "CALL",
      "contractName": null,
      "contractAddress": "0x962aba0a590981cf9c5b336ac34922c82f203165",
      "function": "buyPrimary(uint256,uint256)",
      "arguments": [
        "4",
        "3"
      ],
      "transaction": {
        "from": "0x81d48d2c5d0744e8ef7a5c35cdceb0a27a1c707b",
        "to": "0x962aba0a590981cf9c5b336ac34922c82f203165",
        "gas": "0x1b1fd",
        "value": "0x4d058f98476b0000",
        "input": "0xe37178f100000000000000000000000000000000000000000000000000000000000000040000000000000000000000000000000000000000000000000000000000000003",
        "nonce": "0x1b2",
        "chainId": "0x4cef52"
      },
      "additionalContracts": [],
      "isFixedGasLimit": false
    },
    {
      "hash": "0x7430f44fbf043a25919075a47e8d649ce22a4becdac9263a1763e300b94f0e08",
      "transactionType": "CALL",
      "contractName": null,
      "contractAddress": "0x962aba0a590981cf9c5b336ac34922c82f203165",
      "function": "buyPrimary(uint256,uint256)",
      "arguments": [
        "5",
        "1"
      ],
      "transaction": {
        "from": "0x81d48d2c5d0744e8ef7a5c35cdceb0a27a1c707b",
        "to": "0x962aba0a590981cf9c5b336ac34922c82f203165",
        "gas": "0x1b1fd",
        "value": "0x5559306a78a700000",
        "input": "0xe37178f100000000000000000000000000000000000000000000000000000000000000050000000000000000000000000000000000000000000000000000000000000001",
        "nonce": "0x1b3",
        "chainId": "0x4cef52"
      },
      "additionalContracts": [],
      "isFixedGasLimit": false
    },
    {
      "hash": "0xb564245d4360dc1705abd779718bdca4509e52d801da350d249605b3e9233c3e",
      "transactionType": "CALL",
      "contractName": null,
      "contractAddress": "0x962aba0a590981cf9c5b336ac34922c82f203165",
      "function": "buyPrimary(uint256,uint256)",
      "arguments": [
        "6",
        "1"
      ],
      "transaction": {
        "from": "0x81d48d2c5d0744e8ef7a5c35cdceb0a27a1c707b",
        "to": "0x962aba0a590981cf9c5b336ac34922c82f203165",
        "gas": "0x1b1fd",
        "value": "0x2b5e3af16b1880000",
        "input": "0xe37178f100000000000000000000000000000000000000000000000000000000000000060000000000000000000000000000000000000000000000000000000000000001",
        "nonce": "0x1b4",
        "chainId": "0x4cef52"
      },
      "additionalContracts": [],
      "isFixedGasLimit": false
    },
    {
      "hash": "0xd50137fe27c99d066d8427dad8dd67270e2eeb9683f7051fcfb7faaeb509ea80",
      "transactionType": "CALL",
      "contractName": null,
      "contractAddress": "0x962aba0a590981cf9c5b336ac34922c82f203165",
      "function": "buyPrimary(uint256,uint256)",
      "arguments": [
        "6",
        "1"
      ],
      "transaction": {
        "from": "0x81d48d2c5d0744e8ef7a5c35cdceb0a27a1c707b",
        "to": "0x962aba0a590981cf9c5b336ac34922c82f203165",
        "gas": "0x1b1fd",
        "value": "0x2b5e3af16b1880000",
        "input": "0xe37178f100000000000000000000000000000000000000000000000000000000000000060000000000000000000000000000000000000000000000000000000000000001",
        "nonce": "0x1b5",
        "chainId": "0x4cef52"
      },
      "additionalContracts": [],
      "isFixedGasLimit": false
    },
    {
      "hash": "0x435ecd1260a21b0a4ffc122344cdfb0a0b597c8f8d5739b0acb57cfb479ff1ad",
      "transactionType": "CALL",
      "contractName": null,
      "contractAddress": "0x962aba0a590981cf9c5b336ac34922c82f203165",
      "function": "buyPrimary(uint256,uint256)",
      "arguments": [
        "7",
        "3"
      ],
      "transaction": {
        "from": "0x81d48d2c5d0744e8ef7a5c35cdceb0a27a1c707b",
        "to": "0x962aba0a590981cf9c5b336ac34922c82f203165",
        "gas": "0x1b1fd",
        "value": "0x410d586a20a4c0000",
        "input": "0xe37178f100000000000000000000000000000000000000000000000000000000000000070000000000000000000000000000000000000000000000000000000000000003",
        "nonce": "0x1b6",
        "chainId": "0x4cef52"
      },
      "additionalContracts": [],
      "isFixedGasLimit": false
    },
    {
      "hash": "0xafa5dbe3f3bcfce51ab91d01cc969361203866be63c14f6cef6fa7f90739097e",
      "transactionType": "CALL",
      "contractName": null,
      "contractAddress": "0x962aba0a590981cf9c5b336ac34922c82f203165",
      "function": "buyPrimary(uint256,uint256)",
      "arguments": [
        "7",
        "3"
      ],
      "transaction": {
        "from": "0x81d48d2c5d0744e8ef7a5c35cdceb0a27a1c707b",
        "to": "0x962aba0a590981cf9c5b336ac34922c82f203165",
        "gas": "0x1b1fd",
        "value": "0x410d586a20a4c0000",
        "input": "0xe37178f100000000000000000000000000000000000000000000000000000000000000070000000000000000000000000000000000000000000000000000000000000003",
        "nonce": "0x1b7",
        "chainId": "0x4cef52"
      },
      "additionalContracts": [],
      "isFixedGasLimit": false
    },
    {
      "hash": "0xa178a54461aed8ad6fa85170497333d132bddfb81af1d9713865c7791a5715dc",
      "transactionType": "CALL",
      "contractName": null,
      "contractAddress": "0x962aba0a590981cf9c5b336ac34922c82f203165",
      "function": "buyPrimary(uint256,uint256)",
      "arguments": [
        "8",
        "3"
      ],
      "transaction": {
        "from": "0x81d48d2c5d0744e8ef7a5c35cdceb0a27a1c707b",
        "to": "0x962aba0a590981cf9c5b336ac34922c82f203165",
        "gas": "0x1b1fd",
        "value": "0x6f3d387809bd90000",
        "input": "0xe37178f100000000000000000000000000000000000000000000000000000000000000080000000000000000000000000000000000000000000000000000000000000003",
        "nonce": "0x1b8",
        "chainId": "0x4cef52"
      },
      "additionalContracts": [],
      "isFixedGasLimit": false
    },
    {
      "hash": "0xf252501c183c18cf061d88444daa7cdf16ba5b39b60c95a1738f6300174e6c38",
      "transactionType": "CALL",
      "contractName": null,
      "contractAddress": "0x962aba0a590981cf9c5b336ac34922c82f203165",
      "function": "buyPrimary(uint256,uint256)",
      "arguments": [
        "9",
        "3"
      ],
      "transaction": {
        "from": "0x81d48d2c5d0744e8ef7a5c35cdceb0a27a1c707b",
        "to": "0x962aba0a590981cf9c5b336ac34922c82f203165",
        "gas": "0x1b1fd",
        "value": "0x4c80558b245740000",
        "input": "0xe37178f100000000000000000000000000000000000000000000000000000000000000090000000000000000000000000000000000000000000000000000000000000003",
        "nonce": "0x1b9",
        "chainId": "0x4cef52"
      },
      "additionalContracts": [],
      "isFixedGasLimit": false
    },
    {
      "hash": "0xa7b2cf200b7e0cc81b5833f89c89f873f34f46f27f972e4959e1cae2f528dd79",
      "transactionType": "CALL",
      "contractName": null,
      "contractAddress": "0x962aba0a590981cf9c5b336ac34922c82f203165",
      "function": "buyPrimary(uint256,uint256)",
      "arguments": [
        "9",
        "3"
      ],
      "transaction": {
        "from": "0x81d48d2c5d0744e8ef7a5c35cdceb0a27a1c707b",
        "to": "0x962aba0a590981cf9c5b336ac34922c82f203165",
        "gas": "0x1b1fd",
        "value": "0x4c80558b245740000",
        "input": "0xe37178f100000000000000000000000000000000000000000000000000000000000000090000000000000000000000000000000000000000000000000000000000000003",
        "nonce": "0x1ba",
        "chainId": "0x4cef52"
      },
      "additionalContracts": [],
      "isFixedGasLimit": false
    },
    {
      "hash": "0xccb1e9316d721bf310027f87b90c7dbfda146a884c02e653fc0af5c66bc87135",
      "transactionType": "CALL",
      "contractName": null,
      "contractAddress": "0x962aba0a590981cf9c5b336ac34922c82f203165",
      "function": "buyPrimary(uint256,uint256)",
      "arguments": [
        "10",
        "3"
      ],
      "transaction": {
        "from": "0x81d48d2c5d0744e8ef7a5c35cdceb0a27a1c707b",
        "to": "0x962aba0a590981cf9c5b336ac34922c82f203165",
        "gas": "0x1b1fd",
        "value": "0x63eb89da4ed00000",
        "input": "0xe37178f1000000000000000000000000000000000000000000000000000000000000000a0000000000000000000000000000000000000000000000000000000000000003",
        "nonce": "0x1bb",
        "chainId": "0x4cef52"
      },
      "additionalContracts": [],
      "isFixedGasLimit": false
    },
    {
      "hash": "0x4e054c6e3d5d4a78a232fd79436da99d25b03e9e26077d8bbdd9ea68bf4cd7f2",
      "transactionType": "CALL",
      "contractName": null,
      "contractAddress": "0x962aba0a590981cf9c5b336ac34922c82f203165",
      "function": "buyPrimary(uint256,uint256)",
      "arguments": [
        "10",
        "3"
      ],
      "transaction": {
        "from": "0x81d48d2c5d0744e8ef7a5c35cdceb0a27a1c707b",
        "to": "0x962aba0a590981cf9c5b336ac34922c82f203165",
        "gas": "0x1b1fd",
        "value": "0x63eb89da4ed00000",
        "input": "0xe37178f1000000000000000000000000000000000000000000000000000000000000000a0000000000000000000000000000000000000000000000000000000000000003",
        "nonce": "0x1bc",
        "chainId": "0x4cef52"
      },
      "additionalContracts": [],
      "isFixedGasLimit": false
    }
  ],
  "receipts": [
    {
      "status": "0x1",
      "cumulativeGasUsed": "0x6e499",
      "logs": [
        {
          "address": "0xfffffffffffffffffffffffffffffffffffffffe",
          "topics": [
            "0xddf252ad1be2c89b69c2b068fc378daa952ba7f163c4a11628f55a4df523b3ef",
            "0x00000000000000000000000081d48d2c5d0744e8ef7a5c35cdceb0a27a1c707b",
            "0x000000000000000000000000962aba0a590981cf9c5b336ac34922c82f203165"
          ],
          "data": "0x0000000000000000000000000000000000000000000000056bc75e2d63100000",
          "blockHash": "0x576ba742402c3896c061daf6802d8b671fe4ad22a55fa5b31786c5981cc6d945",
          "blockNumber": "0x2f84f1b",
          "blockTimestamp": "0x6a4682a2",
          "transactionHash": "0x16387f4bb212b7284d7799f499ccad4c2b879c2b2bf57a22f84b5323c0f21e07",
          "transactionIndex": "0x5",
          "logIndex": "0xd",
          "removed": false
        },
        {
          "address": "0x962aba0a590981cf9c5b336ac34922c82f203165",
          "topics": [
            "0x82bc30c29d8133d53d443f5e28b84e0fd2b5dcaf3957347d2a67d598186dc07e",
            "0x0000000000000000000000000000000000000000000000000000000000000001",
            "0x0000000000000000000000000000000000000000000000000000000000000001",
            "0x00000000000000000000000081d48d2c5d0744e8ef7a5c35cdceb0a27a1c707b"
          ],
          "data": "0x00000000000000000000000000000000000000000000000000000000000000010000000000000000000000000000000000000000000000056bc75e2d6310000000000000000000000000000000000000000000000000000006f05b59d3b20000",
          "blockHash": "0x576ba742402c3896c061daf6802d8b671fe4ad22a55fa5b31786c5981cc6d945",
          "blockNumber": "0x2f84f1b",
          "blockTimestamp": "0x6a4682a2",
          "transactionHash": "0x16387f4bb212b7284d7799f499ccad4c2b879c2b2bf57a22f84b5323c0f21e07",
          "transactionIndex": "0x5",
          "logIndex": "0xe",
          "removed": false
        },
        {
          "address": "0x4d82b6e528d3c2e1a3592e14863ec95eaef4ff85",
          "topics": [
            "0xc3d58168c5ae7397731d063d5bbf3d657854427343f4c083240f7aacaa2d0f62",
            "0x000000000000000000000000962aba0a590981cf9c5b336ac34922c82f203165",
            "0x000000000000000000000000962aba0a590981cf9c5b336ac34922c82f203165",
            "0x00000000000000000000000081d48d2c5d0744e8ef7a5c35cdceb0a27a1c707b"
          ],
          "data": "0x00000000000000000000000000000000000000000000000000000000000000010000000000000000000000000000000000000000000000000000000000000001",
          "blockHash": "0x576ba742402c3896c061daf6802d8b671fe4ad22a55fa5b31786c5981cc6d945",
          "blockNumber": "0x2f84f1b",
          "blockTimestamp": "0x6a4682a2",
          "transactionHash": "0x16387f4bb212b7284d7799f499ccad4c2b879c2b2bf57a22f84b5323c0f21e07",
          "transactionIndex": "0x5",
          "logIndex": "0xf",
          "removed": false
        },
        {
          "address": "0xfffffffffffffffffffffffffffffffffffffffe",
          "topics": [
            "0xddf252ad1be2c89b69c2b068fc378daa952ba7f163c4a11628f55a4df523b3ef",
            "0x000000000000000000000000962aba0a590981cf9c5b336ac34922c82f203165",
            "0x00000000000000000000000081d48d2c5d0744e8ef7a5c35cdceb0a27a1c707b"
          ],
          "data": "0x00000000000000000000000000000000000000000000000564d702d38f5e0000",
          "blockHash": "0x576ba742402c3896c061daf6802d8b671fe4ad22a55fa5b31786c5981cc6d945",
          "blockNumber": "0x2f84f1b",
          "blockTimestamp": "0x6a4682a2",
          "transactionHash": "0x16387f4bb212b7284d7799f499ccad4c2b879c2b2bf57a22f84b5323c0f21e07",
          "transactionIndex": "0x5",
          "logIndex": "0x10",
          "removed": false
        },
        {
          "address": "0xfffffffffffffffffffffffffffffffffffffffe",
          "topics": [
            "0xddf252ad1be2c89b69c2b068fc378daa952ba7f163c4a11628f55a4df523b3ef",
            "0x000000000000000000000000962aba0a590981cf9c5b336ac34922c82f203165",
            "0x00000000000000000000000084e243a60a75efe615537af49c5eaee8f3c32ed9"
          ],
          "data": "0x00000000000000000000000000000000000000000000000006f05b59d3b20000",
          "blockHash": "0x576ba742402c3896c061daf6802d8b671fe4ad22a55fa5b31786c5981cc6d945",
          "blockNumber": "0x2f84f1b",
          "blockTimestamp": "0x6a4682a2",
          "transactionHash": "0x16387f4bb212b7284d7799f499ccad4c2b879c2b2bf57a22f84b5323c0f21e07",
          "transactionIndex": "0x5",
          "logIndex": "0x11",
          "removed": false
        }
      ],
      "logsBloom": "0x00000000400000000000000400000080000000000000000000000000000000000000000000000000000000000200000000000000000000000002000000042000000000000000000000000008000000000000000000040000001000000004000000000000000000012000000000200000000000000000000000000010000000000000000000200000000000000000000000000000000000000000000000000000000000000000000000000000000000000001000000000000000000000000000000000002000000000008004000000000000000000009000000000000400040400600000000000000000000000000000000000000000000000200080000080000",
      "type": "0x2",
      "transactionHash": "0x16387f4bb212b7284d7799f499ccad4c2b879c2b2bf57a22f84b5323c0f21e07",
      "transactionIndex": "0x5",
      "blockHash": "0x576ba742402c3896c061daf6802d8b671fe4ad22a55fa5b31786c5981cc6d945",
      "blockNumber": "0x2f84f1b",
      "gasUsed": "0x13a34",
      "effectiveGasPrice": "0x4c07d0a3b",
      "from": "0x81d48d2c5d0744e8ef7a5c35cdceb0a27a1c707b",
      "to": "0x962aba0a590981cf9c5b336ac34922c82f203165",
      "contractAddress": null
    },
    {
      "status": "0x1",
      "cumulativeGasUsed": "0x117cd9",
      "logs": [
        {
          "address": "0xfffffffffffffffffffffffffffffffffffffffe",
          "topics": [
            "0xddf252ad1be2c89b69c2b068fc378daa952ba7f163c4a11628f55a4df523b3ef",
            "0x00000000000000000000000081d48d2c5d0744e8ef7a5c35cdceb0a27a1c707b",
            "0x000000000000000000000000962aba0a590981cf9c5b336ac34922c82f203165"
          ],
          "data": "0x000000000000000000000000000000000000000000000003dedfc1b4e2e40000",
          "blockHash": "0x85e500fcfdebf914b02a34aea0190b48207c2282d29604c8a7eee561efce007b",
          "blockNumber": "0x2f84f1c",
          "blockTimestamp": "0x6a4682a2",
          "transactionHash": "0x26c34d9f14683660ed21e9690a522ab4ec571a118875aa8207592c3adff699de",
          "transactionIndex": "0x6",
          "logIndex": "0x8",
          "removed": false
        },
        {
          "address": "0x962aba0a590981cf9c5b336ac34922c82f203165",
          "topics": [
            "0x82bc30c29d8133d53d443f5e28b84e0fd2b5dcaf3957347d2a67d598186dc07e",
            "0x0000000000000000000000000000000000000000000000000000000000000002",
            "0x0000000000000000000000000000000000000000000000000000000000000002",
            "0x00000000000000000000000081d48d2c5d0744e8ef7a5c35cdceb0a27a1c707b"
          ],
          "data": "0x0000000000000000000000000000000000000000000000000000000000000003000000000000000000000000000000000000000000000003dedfc1b4e2e4000000000000000000000000000000000000000000000000000004f4519bc8d08000",
          "blockHash": "0x85e500fcfdebf914b02a34aea0190b48207c2282d29604c8a7eee561efce007b",
          "blockNumber": "0x2f84f1c",
          "blockTimestamp": "0x6a4682a2",
          "transactionHash": "0x26c34d9f14683660ed21e9690a522ab4ec571a118875aa8207592c3adff699de",
          "transactionIndex": "0x6",
          "logIndex": "0x9",
          "removed": false
        },
        {
          "address": "0x4d82b6e528d3c2e1a3592e14863ec95eaef4ff85",
          "topics": [
            "0xc3d58168c5ae7397731d063d5bbf3d657854427343f4c083240f7aacaa2d0f62",
            "0x000000000000000000000000962aba0a590981cf9c5b336ac34922c82f203165",
            "0x000000000000000000000000962aba0a590981cf9c5b336ac34922c82f203165",
            "0x00000000000000000000000081d48d2c5d0744e8ef7a5c35cdceb0a27a1c707b"
          ],
          "data": "0x00000000000000000000000000000000000000000000000000000000000000020000000000000000000000000000000000000000000000000000000000000003",
          "blockHash": "0x85e500fcfdebf914b02a34aea0190b48207c2282d29604c8a7eee561efce007b",
          "blockNumber": "0x2f84f1c",
          "blockTimestamp": "0x6a4682a2",
          "transactionHash": "0x26c34d9f14683660ed21e9690a522ab4ec571a118875aa8207592c3adff699de",
          "transactionIndex": "0x6",
          "logIndex": "0xa",
          "removed": false
        },
        {
          "address": "0xfffffffffffffffffffffffffffffffffffffffe",
          "topics": [
            "0xddf252ad1be2c89b69c2b068fc378daa952ba7f163c4a11628f55a4df523b3ef",
            "0x000000000000000000000000962aba0a590981cf9c5b336ac34922c82f203165",
            "0x00000000000000000000000081d48d2c5d0744e8ef7a5c35cdceb0a27a1c707b"
          ],
          "data": "0x000000000000000000000000000000000000000000000003d9eb70191a138000",
          "blockHash": "0x85e500fcfdebf914b02a34aea0190b48207c2282d29604c8a7eee561efce007b",
          "blockNumber": "0x2f84f1c",
          "blockTimestamp": "0x6a4682a2",
          "transactionHash": "0x26c34d9f14683660ed21e9690a522ab4ec571a118875aa8207592c3adff699de",
          "transactionIndex": "0x6",
          "logIndex": "0xb",
          "removed": false
        },
        {
          "address": "0xfffffffffffffffffffffffffffffffffffffffe",
          "topics": [
            "0xddf252ad1be2c89b69c2b068fc378daa952ba7f163c4a11628f55a4df523b3ef",
            "0x000000000000000000000000962aba0a590981cf9c5b336ac34922c82f203165",
            "0x00000000000000000000000084e243a60a75efe615537af49c5eaee8f3c32ed9"
          ],
          "data": "0x00000000000000000000000000000000000000000000000004f4519bc8d08000",
          "blockHash": "0x85e500fcfdebf914b02a34aea0190b48207c2282d29604c8a7eee561efce007b",
          "blockNumber": "0x2f84f1c",
          "blockTimestamp": "0x6a4682a2",
          "transactionHash": "0x26c34d9f14683660ed21e9690a522ab4ec571a118875aa8207592c3adff699de",
          "transactionIndex": "0x6",
          "logIndex": "0xc",
          "removed": false
        }
      ],
      "logsBloom": "0x04000000400000000000000400000080000000000000000000000000000000000000000000000000000000000200000000000000000000000002000000002000000000000000000000000008000000000000000000000000001000000004000000000000000000012000000000200000000000000000000000000010000000000000000000200000000000000000000000000000000000000000000000000000000000000000000000000100000000000001000000000000000000000000000000000002000000000008004000000000000000000009000000000000400000400600000000000000000000000000000000000000008000000200080000080000",
      "type": "0x2",
      "transactionHash": "0x26c34d9f14683660ed21e9690a522ab4ec571a118875aa8207592c3adff699de",
      "transactionIndex": "0x6",
      "blockHash": "0x85e500fcfdebf914b02a34aea0190b48207c2282d29604c8a7eee561efce007b",
      "blockNumber": "0x2f84f1c",
      "gasUsed": "0x13a34",
      "effectiveGasPrice": "0x4c07d0a3b",
      "from": "0x81d48d2c5d0744e8ef7a5c35cdceb0a27a1c707b",
      "to": "0x962aba0a590981cf9c5b336ac34922c82f203165",
      "contractAddress": null
    },
    {
      "status": "0x1",
      "cumulativeGasUsed": "0xe9afa",
      "logs": [
        {
          "address": "0xfffffffffffffffffffffffffffffffffffffffe",
          "topics": [
            "0xddf252ad1be2c89b69c2b068fc378daa952ba7f163c4a11628f55a4df523b3ef",
            "0x00000000000000000000000081d48d2c5d0744e8ef7a5c35cdceb0a27a1c707b",
            "0x000000000000000000000000962aba0a590981cf9c5b336ac34922c82f203165"
          ],
          "data": "0x000000000000000000000000000000000000000000000003dedfc1b4e2e40000",
          "blockHash": "0x1d21c8fd3b3f5d47df6ade00705a975167b0998b9d6b244741fa49870376fdf3",
          "blockNumber": "0x2f84f1d",
          "blockTimestamp": "0x6a4682a3",
          "transactionHash": "0x3c26b1dfaa84a1d2e89ce4f21c0c91062b285d2b14820eef11b5127946d86a39",
          "transactionIndex": "0x7",
          "logIndex": "0xf",
          "removed": false
        },
        {
          "address": "0x962aba0a590981cf9c5b336ac34922c82f203165",
          "topics": [
            "0x82bc30c29d8133d53d443f5e28b84e0fd2b5dcaf3957347d2a67d598186dc07e",
            "0x0000000000000000000000000000000000000000000000000000000000000002",
            "0x0000000000000000000000000000000000000000000000000000000000000002",
            "0x00000000000000000000000081d48d2c5d0744e8ef7a5c35cdceb0a27a1c707b"
          ],
          "data": "0x0000000000000000000000000000000000000000000000000000000000000003000000000000000000000000000000000000000000000003dedfc1b4e2e4000000000000000000000000000000000000000000000000000004f4519bc8d08000",
          "blockHash": "0x1d21c8fd3b3f5d47df6ade00705a975167b0998b9d6b244741fa49870376fdf3",
          "blockNumber": "0x2f84f1d",
          "blockTimestamp": "0x6a4682a3",
          "transactionHash": "0x3c26b1dfaa84a1d2e89ce4f21c0c91062b285d2b14820eef11b5127946d86a39",
          "transactionIndex": "0x7",
          "logIndex": "0x10",
          "removed": false
        },
        {
          "address": "0x4d82b6e528d3c2e1a3592e14863ec95eaef4ff85",
          "topics": [
            "0xc3d58168c5ae7397731d063d5bbf3d657854427343f4c083240f7aacaa2d0f62",
            "0x000000000000000000000000962aba0a590981cf9c5b336ac34922c82f203165",
            "0x000000000000000000000000962aba0a590981cf9c5b336ac34922c82f203165",
            "0x00000000000000000000000081d48d2c5d0744e8ef7a5c35cdceb0a27a1c707b"
          ],
          "data": "0x00000000000000000000000000000000000000000000000000000000000000020000000000000000000000000000000000000000000000000000000000000003",
          "blockHash": "0x1d21c8fd3b3f5d47df6ade00705a975167b0998b9d6b244741fa49870376fdf3",
          "blockNumber": "0x2f84f1d",
          "blockTimestamp": "0x6a4682a3",
          "transactionHash": "0x3c26b1dfaa84a1d2e89ce4f21c0c91062b285d2b14820eef11b5127946d86a39",
          "transactionIndex": "0x7",
          "logIndex": "0x11",
          "removed": false
        },
        {
          "address": "0xfffffffffffffffffffffffffffffffffffffffe",
          "topics": [
            "0xddf252ad1be2c89b69c2b068fc378daa952ba7f163c4a11628f55a4df523b3ef",
            "0x000000000000000000000000962aba0a590981cf9c5b336ac34922c82f203165",
            "0x00000000000000000000000081d48d2c5d0744e8ef7a5c35cdceb0a27a1c707b"
          ],
          "data": "0x000000000000000000000000000000000000000000000003d9eb70191a138000",
          "blockHash": "0x1d21c8fd3b3f5d47df6ade00705a975167b0998b9d6b244741fa49870376fdf3",
          "blockNumber": "0x2f84f1d",
          "blockTimestamp": "0x6a4682a3",
          "transactionHash": "0x3c26b1dfaa84a1d2e89ce4f21c0c91062b285d2b14820eef11b5127946d86a39",
          "transactionIndex": "0x7",
          "logIndex": "0x12",
          "removed": false
        },
        {
          "address": "0xfffffffffffffffffffffffffffffffffffffffe",
          "topics": [
            "0xddf252ad1be2c89b69c2b068fc378daa952ba7f163c4a11628f55a4df523b3ef",
            "0x000000000000000000000000962aba0a590981cf9c5b336ac34922c82f203165",
            "0x00000000000000000000000084e243a60a75efe615537af49c5eaee8f3c32ed9"
          ],
          "data": "0x00000000000000000000000000000000000000000000000004f4519bc8d08000",
          "blockHash": "0x1d21c8fd3b3f5d47df6ade00705a975167b0998b9d6b244741fa49870376fdf3",
          "blockNumber": "0x2f84f1d",
          "blockTimestamp": "0x6a4682a3",
          "transactionHash": "0x3c26b1dfaa84a1d2e89ce4f21c0c91062b285d2b14820eef11b5127946d86a39",
          "transactionIndex": "0x7",
          "logIndex": "0x13",
          "removed": false
        }
      ],
      "logsBloom": "0x04000000400000000000000400000080000000000000000000000000000000000000000000000000000000000200000000000000000000000002000000002000000000000000000000000008000000000000000000000000001000000004000000000000000000012000000000200000000000000000000000000010000000000000000000200000000000000000000000000000000000000000000000000000000000000000000000000100000000000001000000000000000000000000000000000002000000000008004000000000000000000009000000000000400000400600000000000000000000000000000000000000008000000200080000080000",
      "type": "0x2",
      "transactionHash": "0x3c26b1dfaa84a1d2e89ce4f21c0c91062b285d2b14820eef11b5127946d86a39",
      "transactionIndex": "0x7",
      "blockHash": "0x1d21c8fd3b3f5d47df6ade00705a975167b0998b9d6b244741fa49870376fdf3",
      "blockNumber": "0x2f84f1d",
      "gasUsed": "0x13a34",
      "effectiveGasPrice": "0x4c07d0a3b",
      "from": "0x81d48d2c5d0744e8ef7a5c35cdceb0a27a1c707b",
      "to": "0x962aba0a590981cf9c5b336ac34922c82f203165",
      "contractAddress": null
    },
    {
      "status": "0x1",
      "cumulativeGasUsed": "0xfd52e",
      "logs": [
        {
          "address": "0xfffffffffffffffffffffffffffffffffffffffe",
          "topics": [
            "0xddf252ad1be2c89b69c2b068fc378daa952ba7f163c4a11628f55a4df523b3ef",
            "0x00000000000000000000000081d48d2c5d0744e8ef7a5c35cdceb0a27a1c707b",
            "0x000000000000000000000000962aba0a590981cf9c5b336ac34922c82f203165"
          ],
          "data": "0x00000000000000000000000000000000000000000000000302379bf2ca2e0000",
          "blockHash": "0x1d21c8fd3b3f5d47df6ade00705a975167b0998b9d6b244741fa49870376fdf3",
          "blockNumber": "0x2f84f1d",
          "blockTimestamp": "0x6a4682a3",
          "transactionHash": "0x6e1ea38575a2be5901fddde9ee4bbeb6422d017d9e98284d3ed09e9074405b28",
          "transactionIndex": "0x8",
          "logIndex": "0x14",
          "removed": false
        },
        {
          "address": "0x962aba0a590981cf9c5b336ac34922c82f203165",
          "topics": [
            "0x82bc30c29d8133d53d443f5e28b84e0fd2b5dcaf3957347d2a67d598186dc07e",
            "0x0000000000000000000000000000000000000000000000000000000000000003",
            "0x0000000000000000000000000000000000000000000000000000000000000003",
            "0x00000000000000000000000081d48d2c5d0744e8ef7a5c35cdceb0a27a1c707b"
          ],
          "data": "0x000000000000000000000000000000000000000000000000000000000000000100000000000000000000000000000000000000000000000302379bf2ca2e000000000000000000000000000000000000000000000000000003d9e0c79d2bc000",
          "blockHash": "0x1d21c8fd3b3f5d47df6ade00705a975167b0998b9d6b244741fa49870376fdf3",
          "blockNumber": "0x2f84f1d",
          "blockTimestamp": "0x6a4682a3",
          "transactionHash": "0x6e1ea38575a2be5901fddde9ee4bbeb6422d017d9e98284d3ed09e9074405b28",
          "transactionIndex": "0x8",
          "logIndex": "0x15",
          "removed": false
        },
        {
          "address": "0x4d82b6e528d3c2e1a3592e14863ec95eaef4ff85",
          "topics": [
            "0xc3d58168c5ae7397731d063d5bbf3d657854427343f4c083240f7aacaa2d0f62",
            "0x000000000000000000000000962aba0a590981cf9c5b336ac34922c82f203165",
            "0x000000000000000000000000962aba0a590981cf9c5b336ac34922c82f203165",
            "0x00000000000000000000000081d48d2c5d0744e8ef7a5c35cdceb0a27a1c707b"
          ],
          "data": "0x00000000000000000000000000000000000000000000000000000000000000030000000000000000000000000000000000000000000000000000000000000001",
          "blockHash": "0x1d21c8fd3b3f5d47df6ade00705a975167b0998b9d6b244741fa49870376fdf3",
          "blockNumber": "0x2f84f1d",
          "blockTimestamp": "0x6a4682a3",
          "transactionHash": "0x6e1ea38575a2be5901fddde9ee4bbeb6422d017d9e98284d3ed09e9074405b28",
          "transactionIndex": "0x8",
          "logIndex": "0x16",
          "removed": false
        },
        {
          "address": "0xfffffffffffffffffffffffffffffffffffffffe",
          "topics": [
            "0xddf252ad1be2c89b69c2b068fc378daa952ba7f163c4a11628f55a4df523b3ef",
            "0x000000000000000000000000962aba0a590981cf9c5b336ac34922c82f203165",
            "0x00000000000000000000000081d48d2c5d0744e8ef7a5c35cdceb0a27a1c707b"
          ],
          "data": "0x000000000000000000000000000000000000000000000002fe5dbb2b2d024000",
          "blockHash": "0x1d21c8fd3b3f5d47df6ade00705a975167b0998b9d6b244741fa49870376fdf3",
          "blockNumber": "0x2f84f1d",
          "blockTimestamp": "0x6a4682a3",
          "transactionHash": "0x6e1ea38575a2be5901fddde9ee4bbeb6422d017d9e98284d3ed09e9074405b28",
          "transactionIndex": "0x8",
          "logIndex": "0x17",
          "removed": false
        },
        {
          "address": "0xfffffffffffffffffffffffffffffffffffffffe",
          "topics": [
            "0xddf252ad1be2c89b69c2b068fc378daa952ba7f163c4a11628f55a4df523b3ef",
            "0x000000000000000000000000962aba0a590981cf9c5b336ac34922c82f203165",
            "0x00000000000000000000000084e243a60a75efe615537af49c5eaee8f3c32ed9"
          ],
          "data": "0x00000000000000000000000000000000000000000000000003d9e0c79d2bc000",
          "blockHash": "0x1d21c8fd3b3f5d47df6ade00705a975167b0998b9d6b244741fa49870376fdf3",
          "blockNumber": "0x2f84f1d",
          "blockTimestamp": "0x6a4682a3",
          "transactionHash": "0x6e1ea38575a2be5901fddde9ee4bbeb6422d017d9e98284d3ed09e9074405b28",
          "transactionIndex": "0x8",
          "logIndex": "0x18",
          "removed": false
        }
      ],
      "logsBloom": "0x00000000400000000000000400000080000000000000000000000000000000000000000000000000000000000200000000000000020000000002000000002000000000000000000000000008000000000000000000000000001000000004000000000000000000012000000000200000000000000000000000000010000000000000000000200000000000000000000000000000000000000000000000000000000000000000000000000000000000000001000000800000000000000000400000000002000000000008004000000000000000000009000000000000400000400600000000000000000000000000000000000000000000000200080000080000",
      "type": "0x2",
      "transactionHash": "0x6e1ea38575a2be5901fddde9ee4bbeb6422d017d9e98284d3ed09e9074405b28",
      "transactionIndex": "0x8",
      "blockHash": "0x1d21c8fd3b3f5d47df6ade00705a975167b0998b9d6b244741fa49870376fdf3",
      "blockNumber": "0x2f84f1d",
      "gasUsed": "0x13a34",
      "effectiveGasPrice": "0x4c07d0a3b",
      "from": "0x81d48d2c5d0744e8ef7a5c35cdceb0a27a1c707b",
      "to": "0x962aba0a590981cf9c5b336ac34922c82f203165",
      "contractAddress": null
    },
    {
      "status": "0x1",
      "cumulativeGasUsed": "0x37ee7",
      "logs": [
        {
          "address": "0xfffffffffffffffffffffffffffffffffffffffe",
          "topics": [
            "0xddf252ad1be2c89b69c2b068fc378daa952ba7f163c4a11628f55a4df523b3ef",
            "0x00000000000000000000000081d48d2c5d0744e8ef7a5c35cdceb0a27a1c707b",
            "0x000000000000000000000000962aba0a590981cf9c5b336ac34922c82f203165"
          ],
          "data": "0x00000000000000000000000000000000000000000000000302379bf2ca2e0000",
          "blockHash": "0xda73939539cabaa3525d2bb7493abf95c7f2df719a476896400bd09f99063ecf",
          "blockNumber": "0x2f84f1f",
          "blockTimestamp": "0x6a4682a4",
          "transactionHash": "0x96c03388a84ac7f9ad00df737e1e7b92766c66c14e9108e0982f483a3f2efae0",
          "transactionIndex": "0x2",
          "logIndex": "0x4",
          "removed": false
        },
        {
          "address": "0x962aba0a590981cf9c5b336ac34922c82f203165",
          "topics": [
            "0x82bc30c29d8133d53d443f5e28b84e0fd2b5dcaf3957347d2a67d598186dc07e",
            "0x0000000000000000000000000000000000000000000000000000000000000003",
            "0x0000000000000000000000000000000000000000000000000000000000000003",
            "0x00000000000000000000000081d48d2c5d0744e8ef7a5c35cdceb0a27a1c707b"
          ],
          "data": "0x000000000000000000000000000000000000000000000000000000000000000100000000000000000000000000000000000000000000000302379bf2ca2e000000000000000000000000000000000000000000000000000003d9e0c79d2bc000",
          "blockHash": "0xda73939539cabaa3525d2bb7493abf95c7f2df719a476896400bd09f99063ecf",
          "blockNumber": "0x2f84f1f",
          "blockTimestamp": "0x6a4682a4",
          "transactionHash": "0x96c03388a84ac7f9ad00df737e1e7b92766c66c14e9108e0982f483a3f2efae0",
          "transactionIndex": "0x2",
          "logIndex": "0x5",
          "removed": false
        },
        {
          "address": "0x4d82b6e528d3c2e1a3592e14863ec95eaef4ff85",
          "topics": [
            "0xc3d58168c5ae7397731d063d5bbf3d657854427343f4c083240f7aacaa2d0f62",
            "0x000000000000000000000000962aba0a590981cf9c5b336ac34922c82f203165",
            "0x000000000000000000000000962aba0a590981cf9c5b336ac34922c82f203165",
            "0x00000000000000000000000081d48d2c5d0744e8ef7a5c35cdceb0a27a1c707b"
          ],
          "data": "0x00000000000000000000000000000000000000000000000000000000000000030000000000000000000000000000000000000000000000000000000000000001",
          "blockHash": "0xda73939539cabaa3525d2bb7493abf95c7f2df719a476896400bd09f99063ecf",
          "blockNumber": "0x2f84f1f",
          "blockTimestamp": "0x6a4682a4",
          "transactionHash": "0x96c03388a84ac7f9ad00df737e1e7b92766c66c14e9108e0982f483a3f2efae0",
          "transactionIndex": "0x2",
          "logIndex": "0x6",
          "removed": false
        },
        {
          "address": "0xfffffffffffffffffffffffffffffffffffffffe",
          "topics": [
            "0xddf252ad1be2c89b69c2b068fc378daa952ba7f163c4a11628f55a4df523b3ef",
            "0x000000000000000000000000962aba0a590981cf9c5b336ac34922c82f203165",
            "0x00000000000000000000000081d48d2c5d0744e8ef7a5c35cdceb0a27a1c707b"
          ],
          "data": "0x000000000000000000000000000000000000000000000002fe5dbb2b2d024000",
          "blockHash": "0xda73939539cabaa3525d2bb7493abf95c7f2df719a476896400bd09f99063ecf",
          "blockNumber": "0x2f84f1f",
          "blockTimestamp": "0x6a4682a4",
          "transactionHash": "0x96c03388a84ac7f9ad00df737e1e7b92766c66c14e9108e0982f483a3f2efae0",
          "transactionIndex": "0x2",
          "logIndex": "0x7",
          "removed": false
        },
        {
          "address": "0xfffffffffffffffffffffffffffffffffffffffe",
          "topics": [
            "0xddf252ad1be2c89b69c2b068fc378daa952ba7f163c4a11628f55a4df523b3ef",
            "0x000000000000000000000000962aba0a590981cf9c5b336ac34922c82f203165",
            "0x00000000000000000000000084e243a60a75efe615537af49c5eaee8f3c32ed9"
          ],
          "data": "0x00000000000000000000000000000000000000000000000003d9e0c79d2bc000",
          "blockHash": "0xda73939539cabaa3525d2bb7493abf95c7f2df719a476896400bd09f99063ecf",
          "blockNumber": "0x2f84f1f",
          "blockTimestamp": "0x6a4682a4",
          "transactionHash": "0x96c03388a84ac7f9ad00df737e1e7b92766c66c14e9108e0982f483a3f2efae0",
          "transactionIndex": "0x2",
          "logIndex": "0x8",
          "removed": false
        }
      ],
      "logsBloom": "0x00000000400000000000000400000080000000000000000000000000000000000000000000000000000000000200000000000000020000000002000000002000000000000000000000000008000000000000000000000000001000000004000000000000000000012000000000200000000000000000000000000010000000000000000000200000000000000000000000000000000000000000000000000000000000000000000000000000000000000001000000800000000000000000400000000002000000000008004000000000000000000009000000000000400000400600000000000000000000000000000000000000000000000200080000080000",
      "type": "0x2",
      "transactionHash": "0x96c03388a84ac7f9ad00df737e1e7b92766c66c14e9108e0982f483a3f2efae0",
      "transactionIndex": "0x2",
      "blockHash": "0xda73939539cabaa3525d2bb7493abf95c7f2df719a476896400bd09f99063ecf",
      "blockNumber": "0x2f84f1f",
      "gasUsed": "0x13a34",
      "effectiveGasPrice": "0x4c07d0a3b",
      "from": "0x81d48d2c5d0744e8ef7a5c35cdceb0a27a1c707b",
      "to": "0x962aba0a590981cf9c5b336ac34922c82f203165",
      "contractAddress": null
    },
    {
      "status": "0x1",
      "cumulativeGasUsed": "0x4b91b",
      "logs": [
        {
          "address": "0xfffffffffffffffffffffffffffffffffffffffe",
          "topics": [
            "0xddf252ad1be2c89b69c2b068fc378daa952ba7f163c4a11628f55a4df523b3ef",
            "0x00000000000000000000000081d48d2c5d0744e8ef7a5c35cdceb0a27a1c707b",
            "0x000000000000000000000000962aba0a590981cf9c5b336ac34922c82f203165"
          ],
          "data": "0x0000000000000000000000000000000000000000000000004d058f98476b0000",
          "blockHash": "0xda73939539cabaa3525d2bb7493abf95c7f2df719a476896400bd09f99063ecf",
          "blockNumber": "0x2f84f1f",
          "blockTimestamp": "0x6a4682a4",
          "transactionHash": "0xa8d6443f3816624f594e2d986e235cf471471b878ccba73ab04fc5eef63caeff",
          "transactionIndex": "0x3",
          "logIndex": "0x9",
          "removed": false
        },
        {
          "address": "0x962aba0a590981cf9c5b336ac34922c82f203165",
          "topics": [
            "0x82bc30c29d8133d53d443f5e28b84e0fd2b5dcaf3957347d2a67d598186dc07e",
            "0x0000000000000000000000000000000000000000000000000000000000000004",
            "0x0000000000000000000000000000000000000000000000000000000000000004",
            "0x00000000000000000000000081d48d2c5d0744e8ef7a5c35cdceb0a27a1c707b"
          ],
          "data": "0x00000000000000000000000000000000000000000000000000000000000000030000000000000000000000000000000000000000000000004d058f98476b00000000000000000000000000000000000000000000000000000062967a5c846000",
          "blockHash": "0xda73939539cabaa3525d2bb7493abf95c7f2df719a476896400bd09f99063ecf",
          "blockNumber": "0x2f84f1f",
          "blockTimestamp": "0x6a4682a4",
          "transactionHash": "0xa8d6443f3816624f594e2d986e235cf471471b878ccba73ab04fc5eef63caeff",
          "transactionIndex": "0x3",
          "logIndex": "0xa",
          "removed": false
        },
        {
          "address": "0x4d82b6e528d3c2e1a3592e14863ec95eaef4ff85",
          "topics": [
            "0xc3d58168c5ae7397731d063d5bbf3d657854427343f4c083240f7aacaa2d0f62",
            "0x000000000000000000000000962aba0a590981cf9c5b336ac34922c82f203165",
            "0x000000000000000000000000962aba0a590981cf9c5b336ac34922c82f203165",
            "0x00000000000000000000000081d48d2c5d0744e8ef7a5c35cdceb0a27a1c707b"
          ],
          "data": "0x00000000000000000000000000000000000000000000000000000000000000040000000000000000000000000000000000000000000000000000000000000003",
          "blockHash": "0xda73939539cabaa3525d2bb7493abf95c7f2df719a476896400bd09f99063ecf",
          "blockNumber": "0x2f84f1f",
          "blockTimestamp": "0x6a4682a4",
          "transactionHash": "0xa8d6443f3816624f594e2d986e235cf471471b878ccba73ab04fc5eef63caeff",
          "transactionIndex": "0x3",
          "logIndex": "0xb",
          "removed": false
        },
        {
          "address": "0xfffffffffffffffffffffffffffffffffffffffe",
          "topics": [
            "0xddf252ad1be2c89b69c2b068fc378daa952ba7f163c4a11628f55a4df523b3ef",
            "0x000000000000000000000000962aba0a590981cf9c5b336ac34922c82f203165",
            "0x00000000000000000000000081d48d2c5d0744e8ef7a5c35cdceb0a27a1c707b"
          ],
          "data": "0x0000000000000000000000000000000000000000000000004ca2f91deae6a000",
          "blockHash": "0xda73939539cabaa3525d2bb7493abf95c7f2df719a476896400bd09f99063ecf",
          "blockNumber": "0x2f84f1f",
          "blockTimestamp": "0x6a4682a4",
          "transactionHash": "0xa8d6443f3816624f594e2d986e235cf471471b878ccba73ab04fc5eef63caeff",
          "transactionIndex": "0x3",
          "logIndex": "0xc",
          "removed": false
        },
        {
          "address": "0xfffffffffffffffffffffffffffffffffffffffe",
          "topics": [
            "0xddf252ad1be2c89b69c2b068fc378daa952ba7f163c4a11628f55a4df523b3ef",
            "0x000000000000000000000000962aba0a590981cf9c5b336ac34922c82f203165",
            "0x00000000000000000000000084e243a60a75efe615537af49c5eaee8f3c32ed9"
          ],
          "data": "0x0000000000000000000000000000000000000000000000000062967a5c846000",
          "blockHash": "0xda73939539cabaa3525d2bb7493abf95c7f2df719a476896400bd09f99063ecf",
          "blockNumber": "0x2f84f1f",
          "blockTimestamp": "0x6a4682a4",
          "transactionHash": "0xa8d6443f3816624f594e2d986e235cf471471b878ccba73ab04fc5eef63caeff",
          "transactionIndex": "0x3",
          "logIndex": "0xd",
          "removed": false
        }
      ],
      "logsBloom": "0x00000000400000000000000400000080000000000000000000000000000000000000000000000000000000000200000000000000000000000002000000002000000000000000000000000008000000000000000000000000001000000004000008000000000000012000000000200000000000000000000000000010000000000000000000200000000000000000000000000000000000000000000000000000000000000000000000000000000000000001000000000000002000000000000000000002000000000008004000000000000000008009000000000000400000400600000000000000000000000000000000000000000000000200080000080000",
      "type": "0x2",
      "transactionHash": "0xa8d6443f3816624f594e2d986e235cf471471b878ccba73ab04fc5eef63caeff",
      "transactionIndex": "0x3",
      "blockHash": "0xda73939539cabaa3525d2bb7493abf95c7f2df719a476896400bd09f99063ecf",
      "blockNumber": "0x2f84f1f",
      "gasUsed": "0x13a34",
      "effectiveGasPrice": "0x4c07d0a3b",
      "from": "0x81d48d2c5d0744e8ef7a5c35cdceb0a27a1c707b",
      "to": "0x962aba0a590981cf9c5b336ac34922c82f203165",
      "contractAddress": null
    },
    {
      "status": "0x1",
      "cumulativeGasUsed": "0x5f34f",
      "logs": [
        {
          "address": "0xfffffffffffffffffffffffffffffffffffffffe",
          "topics": [
            "0xddf252ad1be2c89b69c2b068fc378daa952ba7f163c4a11628f55a4df523b3ef",
            "0x00000000000000000000000081d48d2c5d0744e8ef7a5c35cdceb0a27a1c707b",
            "0x000000000000000000000000962aba0a590981cf9c5b336ac34922c82f203165"
          ],
          "data": "0x0000000000000000000000000000000000000000000000004d058f98476b0000",
          "blockHash": "0xda73939539cabaa3525d2bb7493abf95c7f2df719a476896400bd09f99063ecf",
          "blockNumber": "0x2f84f1f",
          "blockTimestamp": "0x6a4682a4",
          "transactionHash": "0x48f003c4ce5f63a3298dd5f6803427ba59147e9fc5252d6f39d5f4cb26758613",
          "transactionIndex": "0x4",
          "logIndex": "0xe",
          "removed": false
        },
        {
          "address": "0x962aba0a590981cf9c5b336ac34922c82f203165",
          "topics": [
            "0x82bc30c29d8133d53d443f5e28b84e0fd2b5dcaf3957347d2a67d598186dc07e",
            "0x0000000000000000000000000000000000000000000000000000000000000004",
            "0x0000000000000000000000000000000000000000000000000000000000000004",
            "0x00000000000000000000000081d48d2c5d0744e8ef7a5c35cdceb0a27a1c707b"
          ],
          "data": "0x00000000000000000000000000000000000000000000000000000000000000030000000000000000000000000000000000000000000000004d058f98476b00000000000000000000000000000000000000000000000000000062967a5c846000",
          "blockHash": "0xda73939539cabaa3525d2bb7493abf95c7f2df719a476896400bd09f99063ecf",
          "blockNumber": "0x2f84f1f",
          "blockTimestamp": "0x6a4682a4",
          "transactionHash": "0x48f003c4ce5f63a3298dd5f6803427ba59147e9fc5252d6f39d5f4cb26758613",
          "transactionIndex": "0x4",
          "logIndex": "0xf",
          "removed": false
        },
        {
          "address": "0x4d82b6e528d3c2e1a3592e14863ec95eaef4ff85",
          "topics": [
            "0xc3d58168c5ae7397731d063d5bbf3d657854427343f4c083240f7aacaa2d0f62",
            "0x000000000000000000000000962aba0a590981cf9c5b336ac34922c82f203165",
            "0x000000000000000000000000962aba0a590981cf9c5b336ac34922c82f203165",
            "0x00000000000000000000000081d48d2c5d0744e8ef7a5c35cdceb0a27a1c707b"
          ],
          "data": "0x00000000000000000000000000000000000000000000000000000000000000040000000000000000000000000000000000000000000000000000000000000003",
          "blockHash": "0xda73939539cabaa3525d2bb7493abf95c7f2df719a476896400bd09f99063ecf",
          "blockNumber": "0x2f84f1f",
          "blockTimestamp": "0x6a4682a4",
          "transactionHash": "0x48f003c4ce5f63a3298dd5f6803427ba59147e9fc5252d6f39d5f4cb26758613",
          "transactionIndex": "0x4",
          "logIndex": "0x10",
          "removed": false
        },
        {
          "address": "0xfffffffffffffffffffffffffffffffffffffffe",
          "topics": [
            "0xddf252ad1be2c89b69c2b068fc378daa952ba7f163c4a11628f55a4df523b3ef",
            "0x000000000000000000000000962aba0a590981cf9c5b336ac34922c82f203165",
            "0x00000000000000000000000081d48d2c5d0744e8ef7a5c35cdceb0a27a1c707b"
          ],
          "data": "0x0000000000000000000000000000000000000000000000004ca2f91deae6a000",
          "blockHash": "0xda73939539cabaa3525d2bb7493abf95c7f2df719a476896400bd09f99063ecf",
          "blockNumber": "0x2f84f1f",
          "blockTimestamp": "0x6a4682a4",
          "transactionHash": "0x48f003c4ce5f63a3298dd5f6803427ba59147e9fc5252d6f39d5f4cb26758613",
          "transactionIndex": "0x4",
          "logIndex": "0x11",
          "removed": false
        },
        {
          "address": "0xfffffffffffffffffffffffffffffffffffffffe",
          "topics": [
            "0xddf252ad1be2c89b69c2b068fc378daa952ba7f163c4a11628f55a4df523b3ef",
            "0x000000000000000000000000962aba0a590981cf9c5b336ac34922c82f203165",
            "0x00000000000000000000000084e243a60a75efe615537af49c5eaee8f3c32ed9"
          ],
          "data": "0x0000000000000000000000000000000000000000000000000062967a5c846000",
          "blockHash": "0xda73939539cabaa3525d2bb7493abf95c7f2df719a476896400bd09f99063ecf",
          "blockNumber": "0x2f84f1f",
          "blockTimestamp": "0x6a4682a4",
          "transactionHash": "0x48f003c4ce5f63a3298dd5f6803427ba59147e9fc5252d6f39d5f4cb26758613",
          "transactionIndex": "0x4",
          "logIndex": "0x12",
          "removed": false
        }
      ],
      "logsBloom": "0x00000000400000000000000400000080000000000000000000000000000000000000000000000000000000000200000000000000000000000002000000002000000000000000000000000008000000000000000000000000001000000004000008000000000000012000000000200000000000000000000000000010000000000000000000200000000000000000000000000000000000000000000000000000000000000000000000000000000000000001000000000000002000000000000000000002000000000008004000000000000000008009000000000000400000400600000000000000000000000000000000000000000000000200080000080000",
      "type": "0x2",
      "transactionHash": "0x48f003c4ce5f63a3298dd5f6803427ba59147e9fc5252d6f39d5f4cb26758613",
      "transactionIndex": "0x4",
      "blockHash": "0xda73939539cabaa3525d2bb7493abf95c7f2df719a476896400bd09f99063ecf",
      "blockNumber": "0x2f84f1f",
      "gasUsed": "0x13a34",
      "effectiveGasPrice": "0x4c07d0a3b",
      "from": "0x81d48d2c5d0744e8ef7a5c35cdceb0a27a1c707b",
      "to": "0x962aba0a590981cf9c5b336ac34922c82f203165",
      "contractAddress": null
    },
    {
      "status": "0x1",
      "cumulativeGasUsed": "0x8beb9",
      "logs": [
        {
          "address": "0xfffffffffffffffffffffffffffffffffffffffe",
          "topics": [
            "0xddf252ad1be2c89b69c2b068fc378daa952ba7f163c4a11628f55a4df523b3ef",
            "0x00000000000000000000000081d48d2c5d0744e8ef7a5c35cdceb0a27a1c707b",
            "0x000000000000000000000000962aba0a590981cf9c5b336ac34922c82f203165"
          ],
          "data": "0x000000000000000000000000000000000000000000000005559306a78a700000",
          "blockHash": "0xd5e7ff7edd8641be25692374563aa534f75a013ca88f482a921a5ce32ba1d41b",
          "blockNumber": "0x2f84f20",
          "blockTimestamp": "0x6a4682a5",
          "transactionHash": "0x7430f44fbf043a25919075a47e8d649ce22a4becdac9263a1763e300b94f0e08",
          "transactionIndex": "0x8",
          "logIndex": "0xf",
          "removed": false
        },
        {
          "address": "0x962aba0a590981cf9c5b336ac34922c82f203165",
          "topics": [
            "0x82bc30c29d8133d53d443f5e28b84e0fd2b5dcaf3957347d2a67d598186dc07e",
            "0x0000000000000000000000000000000000000000000000000000000000000005",
            "0x0000000000000000000000000000000000000000000000000000000000000005",
            "0x00000000000000000000000081d48d2c5d0744e8ef7a5c35cdceb0a27a1c707b"
          ],
          "data": "0x0000000000000000000000000000000000000000000000000000000000000001000000000000000000000000000000000000000000000005559306a78a70000000000000000000000000000000000000000000000000000006d3ef64ad7e0000",
          "blockHash": "0xd5e7ff7edd8641be25692374563aa534f75a013ca88f482a921a5ce32ba1d41b",
          "blockNumber": "0x2f84f20",
          "blockTimestamp": "0x6a4682a5",
          "transactionHash": "0x7430f44fbf043a25919075a47e8d649ce22a4becdac9263a1763e300b94f0e08",
          "transactionIndex": "0x8",
          "logIndex": "0x10",
          "removed": false
        },
        {
          "address": "0x4d82b6e528d3c2e1a3592e14863ec95eaef4ff85",
          "topics": [
            "0xc3d58168c5ae7397731d063d5bbf3d657854427343f4c083240f7aacaa2d0f62",
            "0x000000000000000000000000962aba0a590981cf9c5b336ac34922c82f203165",
            "0x000000000000000000000000962aba0a590981cf9c5b336ac34922c82f203165",
            "0x00000000000000000000000081d48d2c5d0744e8ef7a5c35cdceb0a27a1c707b"
          ],
          "data": "0x00000000000000000000000000000000000000000000000000000000000000050000000000000000000000000000000000000000000000000000000000000001",
          "blockHash": "0xd5e7ff7edd8641be25692374563aa534f75a013ca88f482a921a5ce32ba1d41b",
          "blockNumber": "0x2f84f20",
          "blockTimestamp": "0x6a4682a5",
          "transactionHash": "0x7430f44fbf043a25919075a47e8d649ce22a4becdac9263a1763e300b94f0e08",
          "transactionIndex": "0x8",
          "logIndex": "0x11",
          "removed": false
        },
        {
          "address": "0xfffffffffffffffffffffffffffffffffffffffe",
          "topics": [
            "0xddf252ad1be2c89b69c2b068fc378daa952ba7f163c4a11628f55a4df523b3ef",
            "0x000000000000000000000000962aba0a590981cf9c5b336ac34922c82f203165",
            "0x00000000000000000000000081d48d2c5d0744e8ef7a5c35cdceb0a27a1c707b"
          ],
          "data": "0x0000000000000000000000000000000000000000000000054ebf1742dcf20000",
          "blockHash": "0xd5e7ff7edd8641be25692374563aa534f75a013ca88f482a921a5ce32ba1d41b",
          "blockNumber": "0x2f84f20",
          "blockTimestamp": "0x6a4682a5",
          "transactionHash": "0x7430f44fbf043a25919075a47e8d649ce22a4becdac9263a1763e300b94f0e08",
          "transactionIndex": "0x8",
          "logIndex": "0x12",
          "removed": false
        },
        {
          "address": "0xfffffffffffffffffffffffffffffffffffffffe",
          "topics": [
            "0xddf252ad1be2c89b69c2b068fc378daa952ba7f163c4a11628f55a4df523b3ef",
            "0x000000000000000000000000962aba0a590981cf9c5b336ac34922c82f203165",
            "0x00000000000000000000000084e243a60a75efe615537af49c5eaee8f3c32ed9"
          ],
          "data": "0x00000000000000000000000000000000000000000000000006d3ef64ad7e0000",
          "blockHash": "0xd5e7ff7edd8641be25692374563aa534f75a013ca88f482a921a5ce32ba1d41b",
          "blockNumber": "0x2f84f20",
          "blockTimestamp": "0x6a4682a5",
          "transactionHash": "0x7430f44fbf043a25919075a47e8d649ce22a4becdac9263a1763e300b94f0e08",
          "transactionIndex": "0x8",
          "logIndex": "0x13",
          "removed": false
        }
      ],
      "logsBloom": "0x00000000400000000000000400000080000000000000000000000000000000000000000000000000000000000200000000000000000000000002000000002000000010000000000000000008000000000000000000000000001000000004000000000000000000012000000000200000000000000000000000000010000000000000000000200000000000000000001000000800000000000000000000000000000000000000000000000000000000000001000000000000000000000000000000000002000000000008004000000000000000000009000000000000400000400600000000000000000000000000000000000000000000000200080000080000",
      "type": "0x2",
      "transactionHash": "0x7430f44fbf043a25919075a47e8d649ce22a4becdac9263a1763e300b94f0e08",
      "transactionIndex": "0x8",
      "blockHash": "0xd5e7ff7edd8641be25692374563aa534f75a013ca88f482a921a5ce32ba1d41b",
      "blockNumber": "0x2f84f20",
      "gasUsed": "0x13a34",
      "effectiveGasPrice": "0x4c07d0a3b",
      "from": "0x81d48d2c5d0744e8ef7a5c35cdceb0a27a1c707b",
      "to": "0x962aba0a590981cf9c5b336ac34922c82f203165",
      "contractAddress": null
    },
    {
      "status": "0x1",
      "cumulativeGasUsed": "0x61a675",
      "logs": [
        {
          "address": "0xfffffffffffffffffffffffffffffffffffffffe",
          "topics": [
            "0xddf252ad1be2c89b69c2b068fc378daa952ba7f163c4a11628f55a4df523b3ef",
            "0x00000000000000000000000081d48d2c5d0744e8ef7a5c35cdceb0a27a1c707b",
            "0x000000000000000000000000962aba0a590981cf9c5b336ac34922c82f203165"
          ],
          "data": "0x000000000000000000000000000000000000000000000002b5e3af16b1880000",
          "blockHash": "0xed7b638bf8976b4ca196994ebe5d67a08245182f6f7a304c199729bb35cb6707",
          "blockNumber": "0x2f84f21",
          "blockTimestamp": "0x6a4682a5",
          "transactionHash": "0xb564245d4360dc1705abd779718bdca4509e52d801da350d249605b3e9233c3e",
          "transactionIndex": "0x12",
          "logIndex": "0x24",
          "removed": false
        },
        {
          "address": "0x962aba0a590981cf9c5b336ac34922c82f203165",
          "topics": [
            "0x82bc30c29d8133d53d443f5e28b84e0fd2b5dcaf3957347d2a67d598186dc07e",
            "0x0000000000000000000000000000000000000000000000000000000000000006",
            "0x0000000000000000000000000000000000000000000000000000000000000006",
            "0x00000000000000000000000081d48d2c5d0744e8ef7a5c35cdceb0a27a1c707b"
          ],
          "data": "0x0000000000000000000000000000000000000000000000000000000000000001000000000000000000000000000000000000000000000002b5e3af16b188000000000000000000000000000000000000000000000000000003782dace9d90000",
          "blockHash": "0xed7b638bf8976b4ca196994ebe5d67a08245182f6f7a304c199729bb35cb6707",
          "blockNumber": "0x2f84f21",
          "blockTimestamp": "0x6a4682a5",
          "transactionHash": "0xb564245d4360dc1705abd779718bdca4509e52d801da350d249605b3e9233c3e",
          "transactionIndex": "0x12",
          "logIndex": "0x25",
          "removed": false
        },
        {
          "address": "0x4d82b6e528d3c2e1a3592e14863ec95eaef4ff85",
          "topics": [
            "0xc3d58168c5ae7397731d063d5bbf3d657854427343f4c083240f7aacaa2d0f62",
            "0x000000000000000000000000962aba0a590981cf9c5b336ac34922c82f203165",
            "0x000000000000000000000000962aba0a590981cf9c5b336ac34922c82f203165",
            "0x00000000000000000000000081d48d2c5d0744e8ef7a5c35cdceb0a27a1c707b"
          ],
          "data": "0x00000000000000000000000000000000000000000000000000000000000000060000000000000000000000000000000000000000000000000000000000000001",
          "blockHash": "0xed7b638bf8976b4ca196994ebe5d67a08245182f6f7a304c199729bb35cb6707",
          "blockNumber": "0x2f84f21",
          "blockTimestamp": "0x6a4682a5",
          "transactionHash": "0xb564245d4360dc1705abd779718bdca4509e52d801da350d249605b3e9233c3e",
          "transactionIndex": "0x12",
          "logIndex": "0x26",
          "removed": false
        },
        {
          "address": "0xfffffffffffffffffffffffffffffffffffffffe",
          "topics": [
            "0xddf252ad1be2c89b69c2b068fc378daa952ba7f163c4a11628f55a4df523b3ef",
            "0x000000000000000000000000962aba0a590981cf9c5b336ac34922c82f203165",
            "0x00000000000000000000000081d48d2c5d0744e8ef7a5c35cdceb0a27a1c707b"
          ],
          "data": "0x000000000000000000000000000000000000000000000002b26b8169c7af0000",
          "blockHash": "0xed7b638bf8976b4ca196994ebe5d67a08245182f6f7a304c199729bb35cb6707",
          "blockNumber": "0x2f84f21",
          "blockTimestamp": "0x6a4682a5",
          "transactionHash": "0xb564245d4360dc1705abd779718bdca4509e52d801da350d249605b3e9233c3e",
          "transactionIndex": "0x12",
          "logIndex": "0x27",
          "removed": false
        },
        {
          "address": "0xfffffffffffffffffffffffffffffffffffffffe",
          "topics": [
            "0xddf252ad1be2c89b69c2b068fc378daa952ba7f163c4a11628f55a4df523b3ef",
            "0x000000000000000000000000962aba0a590981cf9c5b336ac34922c82f203165",
            "0x00000000000000000000000084e243a60a75efe615537af49c5eaee8f3c32ed9"
          ],
          "data": "0x00000000000000000000000000000000000000000000000003782dace9d90000",
          "blockHash": "0xed7b638bf8976b4ca196994ebe5d67a08245182f6f7a304c199729bb35cb6707",
          "blockNumber": "0x2f84f21",
          "blockTimestamp": "0x6a4682a5",
          "transactionHash": "0xb564245d4360dc1705abd779718bdca4509e52d801da350d249605b3e9233c3e",
          "transactionIndex": "0x12",
          "logIndex": "0x28",
          "removed": false
        }
      ],
      "logsBloom": "0x00000000400000000000000400000080000000000000000000000000000000000000000000000000000000000200000000000000000400000002000000002000000000000000000000000008000000000000000000000000001000000004000000000000000000012000000000200000000000000000000000000010000000000000000400200000000000000000000000000000000000000000000000000000000000000000000000000000000000000001000000000000000000080000000000000002000000000008004000000000000000000009000000000000400000400600000000000000000000000000000000000000000000000200080000080000",
      "type": "0x2",
      "transactionHash": "0xb564245d4360dc1705abd779718bdca4509e52d801da350d249605b3e9233c3e",
      "transactionIndex": "0x12",
      "blockHash": "0xed7b638bf8976b4ca196994ebe5d67a08245182f6f7a304c199729bb35cb6707",
      "blockNumber": "0x2f84f21",
      "gasUsed": "0x13a34",
      "effectiveGasPrice": "0x4c07d0a3b",
      "from": "0x81d48d2c5d0744e8ef7a5c35cdceb0a27a1c707b",
      "to": "0x962aba0a590981cf9c5b336ac34922c82f203165",
      "contractAddress": null
    },
    {
      "status": "0x1",
      "cumulativeGasUsed": "0x62e0a9",
      "logs": [
        {
          "address": "0xfffffffffffffffffffffffffffffffffffffffe",
          "topics": [
            "0xddf252ad1be2c89b69c2b068fc378daa952ba7f163c4a11628f55a4df523b3ef",
            "0x00000000000000000000000081d48d2c5d0744e8ef7a5c35cdceb0a27a1c707b",
            "0x000000000000000000000000962aba0a590981cf9c5b336ac34922c82f203165"
          ],
          "data": "0x000000000000000000000000000000000000000000000002b5e3af16b1880000",
          "blockHash": "0xed7b638bf8976b4ca196994ebe5d67a08245182f6f7a304c199729bb35cb6707",
          "blockNumber": "0x2f84f21",
          "blockTimestamp": "0x6a4682a5",
          "transactionHash": "0xd50137fe27c99d066d8427dad8dd67270e2eeb9683f7051fcfb7faaeb509ea80",
          "transactionIndex": "0x13",
          "logIndex": "0x29",
          "removed": false
        },
        {
          "address": "0x962aba0a590981cf9c5b336ac34922c82f203165",
          "topics": [
            "0x82bc30c29d8133d53d443f5e28b84e0fd2b5dcaf3957347d2a67d598186dc07e",
            "0x0000000000000000000000000000000000000000000000000000000000000006",
            "0x0000000000000000000000000000000000000000000000000000000000000006",
            "0x00000000000000000000000081d48d2c5d0744e8ef7a5c35cdceb0a27a1c707b"
          ],
          "data": "0x0000000000000000000000000000000000000000000000000000000000000001000000000000000000000000000000000000000000000002b5e3af16b188000000000000000000000000000000000000000000000000000003782dace9d90000",
          "blockHash": "0xed7b638bf8976b4ca196994ebe5d67a08245182f6f7a304c199729bb35cb6707",
          "blockNumber": "0x2f84f21",
          "blockTimestamp": "0x6a4682a5",
          "transactionHash": "0xd50137fe27c99d066d8427dad8dd67270e2eeb9683f7051fcfb7faaeb509ea80",
          "transactionIndex": "0x13",
          "logIndex": "0x2a",
          "removed": false
        },
        {
          "address": "0x4d82b6e528d3c2e1a3592e14863ec95eaef4ff85",
          "topics": [
            "0xc3d58168c5ae7397731d063d5bbf3d657854427343f4c083240f7aacaa2d0f62",
            "0x000000000000000000000000962aba0a590981cf9c5b336ac34922c82f203165",
            "0x000000000000000000000000962aba0a590981cf9c5b336ac34922c82f203165",
            "0x00000000000000000000000081d48d2c5d0744e8ef7a5c35cdceb0a27a1c707b"
          ],
          "data": "0x00000000000000000000000000000000000000000000000000000000000000060000000000000000000000000000000000000000000000000000000000000001",
          "blockHash": "0xed7b638bf8976b4ca196994ebe5d67a08245182f6f7a304c199729bb35cb6707",
          "blockNumber": "0x2f84f21",
          "blockTimestamp": "0x6a4682a5",
          "transactionHash": "0xd50137fe27c99d066d8427dad8dd67270e2eeb9683f7051fcfb7faaeb509ea80",
          "transactionIndex": "0x13",
          "logIndex": "0x2b",
          "removed": false
        },
        {
          "address": "0xfffffffffffffffffffffffffffffffffffffffe",
          "topics": [
            "0xddf252ad1be2c89b69c2b068fc378daa952ba7f163c4a11628f55a4df523b3ef",
            "0x000000000000000000000000962aba0a590981cf9c5b336ac34922c82f203165",
            "0x00000000000000000000000081d48d2c5d0744e8ef7a5c35cdceb0a27a1c707b"
          ],
          "data": "0x000000000000000000000000000000000000000000000002b26b8169c7af0000",
          "blockHash": "0xed7b638bf8976b4ca196994ebe5d67a08245182f6f7a304c199729bb35cb6707",
          "blockNumber": "0x2f84f21",
          "blockTimestamp": "0x6a4682a5",
          "transactionHash": "0xd50137fe27c99d066d8427dad8dd67270e2eeb9683f7051fcfb7faaeb509ea80",
          "transactionIndex": "0x13",
          "logIndex": "0x2c",
          "removed": false
        },
        {
          "address": "0xfffffffffffffffffffffffffffffffffffffffe",
          "topics": [
            "0xddf252ad1be2c89b69c2b068fc378daa952ba7f163c4a11628f55a4df523b3ef",
            "0x000000000000000000000000962aba0a590981cf9c5b336ac34922c82f203165",
            "0x00000000000000000000000084e243a60a75efe615537af49c5eaee8f3c32ed9"
          ],
          "data": "0x00000000000000000000000000000000000000000000000003782dace9d90000",
          "blockHash": "0xed7b638bf8976b4ca196994ebe5d67a08245182f6f7a304c199729bb35cb6707",
          "blockNumber": "0x2f84f21",
          "blockTimestamp": "0x6a4682a5",
          "transactionHash": "0xd50137fe27c99d066d8427dad8dd67270e2eeb9683f7051fcfb7faaeb509ea80",
          "transactionIndex": "0x13",
          "logIndex": "0x2d",
          "removed": false
        }
      ],
      "logsBloom": "0x00000000400000000000000400000080000000000000000000000000000000000000000000000000000000000200000000000000000400000002000000002000000000000000000000000008000000000000000000000000001000000004000000000000000000012000000000200000000000000000000000000010000000000000000400200000000000000000000000000000000000000000000000000000000000000000000000000000000000000001000000000000000000080000000000000002000000000008004000000000000000000009000000000000400000400600000000000000000000000000000000000000000000000200080000080000",
      "type": "0x2",
      "transactionHash": "0xd50137fe27c99d066d8427dad8dd67270e2eeb9683f7051fcfb7faaeb509ea80",
      "transactionIndex": "0x13",
      "blockHash": "0xed7b638bf8976b4ca196994ebe5d67a08245182f6f7a304c199729bb35cb6707",
      "blockNumber": "0x2f84f21",
      "gasUsed": "0x13a34",
      "effectiveGasPrice": "0x4c07d0a3b",
      "from": "0x81d48d2c5d0744e8ef7a5c35cdceb0a27a1c707b",
      "to": "0x962aba0a590981cf9c5b336ac34922c82f203165",
      "contractAddress": null
    },
    {
      "status": "0x1",
      "cumulativeGasUsed": "0x2dafc",
      "logs": [
        {
          "address": "0xfffffffffffffffffffffffffffffffffffffffe",
          "topics": [
            "0xddf252ad1be2c89b69c2b068fc378daa952ba7f163c4a11628f55a4df523b3ef",
            "0x00000000000000000000000081d48d2c5d0744e8ef7a5c35cdceb0a27a1c707b",
            "0x000000000000000000000000962aba0a590981cf9c5b336ac34922c82f203165"
          ],
          "data": "0x00000000000000000000000000000000000000000000000410d586a20a4c0000",
          "blockHash": "0xc17a2c5f59e22e9720f0fe53a544163095de500b0dd5b2d93de4254f8e41a13c",
          "blockNumber": "0x2f84f23",
          "blockTimestamp": "0x6a4682a6",
          "transactionHash": "0xf252501c183c18cf061d88444daa7cdf16ba5b39b60c95a1738f6300174e6c38",
          "transactionIndex": "0x1",
          "logIndex": "0x4",
          "removed": false
        },
        {
          "address": "0x962aba0a590981cf9c5b336ac34922c82f203165",
          "topics": [
            "0x82bc30c29d8133d53d443f5e28b84e0fd2b5dcaf3957347d2a67d598186dc07e",
            "0x0000000000000000000000000000000000000000000000000000000000000007",
            "0x0000000000000000000000000000000000000000000000000000000000000007",
            "0x00000000000000000000000081d48d2c5d0744e8ef7a5c35cdceb0a27a1c707b"
          ],
          "data": "0x000000000000000000000000000000000000000000000000000000000000000300000000000000000000000000000000000000000000000410d586a20a4c0000000000000000000000000000000000000000000000000000053444835ec58000",
          "blockHash": "0xc17a2c5f59e22e9720f0fe53a544163095de500b0dd5b2d93de4254f8e41a13c",
          "blockNumber": "0x2f84f23",
          "blockTimestamp": "0x6a4682a6",
          "transactionHash": "0xf252501c183c18cf061d88444daa7cdf16ba5b39b60c95a1738f6300174e6c38",
          "transactionIndex": "0x1",
          "logIndex": "0x5",
          "removed": false
        },
        {
          "address": "0x4d82b6e528d3c2e1a3592e14863ec95eaef4ff85",
          "topics": [
            "0xc3d58168c5ae7397731d063d5bbf3d657854427343f4c083240f7aacaa2d0f62",
            "0x000000000000000000000000962aba0a590981cf9c5b336ac34922c82f203165",
            "0x000000000000000000000000962aba0a590981cf9c5b336ac34922c82f203165",
            "0x00000000000000000000000081d48d2c5d0744e8ef7a5c35cdceb0a27a1c707b"
          ],
          "data": "0x00000000000000000000000000000000000000000000000000000000000000070000000000000000000000000000000000000000000000000000000000000003",
          "blockHash": "0xc17a2c5f59e22e9720f0fe53a544163095de500b0dd5b2d93de4254f8e41a13c",
          "blockNumber": "0x2f84f23",
          "blockTimestamp": "0x6a4682a6",
          "transactionHash": "0xf252501c183c18cf061d88444daa7cdf16ba5b39b60c95a1738f6300174e6c38",
          "transactionIndex": "0x1",
          "logIndex": "0x6",
          "removed": false
        },
        {
          "address": "0xfffffffffffffffffffffffffffffffffffffffe",
          "topics": [
            "0xddf252ad1be2c89b69c2b068fc378daa952ba7f163c4a11628f55a4df523b3ef",
            "0x000000000000000000000000962aba0a590981cf9c5b336ac34922c82f203165",
            "0x00000000000000000000000081d48d2c5d0744e8ef7a5c35cdceb0a27a1c707b"
          ],
          "data": "0x0000000000000000000000000000000000000000000000040ba1421eab868000",
          "blockHash": "0xc17a2c5f59e22e9720f0fe53a544163095de500b0dd5b2d93de4254f8e41a13c",
          "blockNumber": "0x2f84f23",
          "blockTimestamp": "0x6a4682a6",
          "transactionHash": "0xf252501c183c18cf061d88444daa7cdf16ba5b39b60c95a1738f6300174e6c38",
          "transactionIndex": "0x1",
          "logIndex": "0x7",
          "removed": false
        },
        {
          "address": "0xfffffffffffffffffffffffffffffffffffffffe",
          "topics": [
            "0xddf252ad1be2c89b69c2b068fc378daa952ba7f163c4a11628f55a4df523b3ef",
            "0x000000000000000000000000962aba0a590981cf9c5b336ac34922c82f203165",
            "0x00000000000000000000000084e243a60a75efe615537af49c5eaee8f3c32ed9"
          ],
          "data": "0x000000000000000000000000000000000000000000000000053444835ec58000",
          "blockHash": "0xc17a2c5f59e22e9720f0fe53a544163095de500b0dd5b2d93de4254f8e41a13c",
          "blockNumber": "0x2f84f23",
          "blockTimestamp": "0x6a4682a6",
          "transactionHash": "0xf252501c183c18cf061d88444daa7cdf16ba5b39b60c95a1738f6300174e6c38",
          "transactionIndex": "0x1",
          "logIndex": "0x8",
          "removed": false
        }
      ],
      "logsBloom": "0x00000000400000000000000400000080000000000000000000000000000000000000000000000000000000000200000000001000000000000002000000002000000020000000000000000008000000000000000000000000001000000004000000000000000000012000000000200000000000000000000000000010000000000000000000200000000000000000000000000000000000000000000000000000000000000000000000000000000000000001000000000000000000000000000000000002000000000008004000000000000000000009000000000100400000400600000000000000000000000000000000000000000000000200080000080000",
      "type": "0x2",
      "transactionHash": "0xf252501c183c18cf061d88444daa7cdf16ba5b39b60c95a1738f6300174e6c38",
      "transactionIndex": "0x1",
      "blockHash": "0xc17a2c5f59e22e9720f0fe53a544163095de500b0dd5b2d93de4254f8e41a13c",
      "blockNumber": "0x2f84f23",
      "gasUsed": "0x13a34",
      "effectiveGasPrice": "0x4c07d0a3b",
      "from": "0x81d48d2c5d0744e8ef7a5c35cdceb0a27a1c707b",
      "to": "0x962aba0a590981cf9c5b336ac34922c82f203165",
      "contractAddress": null
    },
    {
      "status": "0x1",
      "cumulativeGasUsed": "0x123d30",
      "logs": [
        {
          "address": "0xfffffffffffffffffffffffffffffffffffffffe",
          "topics": [
            "0xddf252ad1be2c89b69c2b068fc378daa952ba7f163c4a11628f55a4df523b3ef",
            "0x00000000000000000000000081d48d2c5d0744e8ef7a5c35cdceb0a27a1c707b",
            "0x000000000000000000000000962aba0a590981cf9c5b336ac34922c82f203165"
          ],
          "data": "0x00000000000000000000000000000000000000000000000410d586a20a4c0000",
          "blockHash": "0x2030117fc81fd8036f9aee588dfd342aae792b68448058dc3a95d1131e5b1bf7",
          "blockNumber": "0x2f84f24",
          "blockTimestamp": "0x6a4682a7",
          "transactionHash": "0x435ecd1260a21b0a4ffc122344cdfb0a0b597c8f8d5739b0acb57cfb479ff1ad",
          "transactionIndex": "0x9",
          "logIndex": "0x13",
          "removed": false
        },
        {
          "address": "0x962aba0a590981cf9c5b336ac34922c82f203165",
          "topics": [
            "0x82bc30c29d8133d53d443f5e28b84e0fd2b5dcaf3957347d2a67d598186dc07e",
            "0x0000000000000000000000000000000000000000000000000000000000000007",
            "0x0000000000000000000000000000000000000000000000000000000000000007",
            "0x00000000000000000000000081d48d2c5d0744e8ef7a5c35cdceb0a27a1c707b"
          ],
          "data": "0x000000000000000000000000000000000000000000000000000000000000000300000000000000000000000000000000000000000000000410d586a20a4c0000000000000000000000000000000000000000000000000000053444835ec58000",
          "blockHash": "0x2030117fc81fd8036f9aee588dfd342aae792b68448058dc3a95d1131e5b1bf7",
          "blockNumber": "0x2f84f24",
          "blockTimestamp": "0x6a4682a7",
          "transactionHash": "0x435ecd1260a21b0a4ffc122344cdfb0a0b597c8f8d5739b0acb57cfb479ff1ad",
          "transactionIndex": "0x9",
          "logIndex": "0x14",
          "removed": false
        },
        {
          "address": "0x4d82b6e528d3c2e1a3592e14863ec95eaef4ff85",
          "topics": [
            "0xc3d58168c5ae7397731d063d5bbf3d657854427343f4c083240f7aacaa2d0f62",
            "0x000000000000000000000000962aba0a590981cf9c5b336ac34922c82f203165",
            "0x000000000000000000000000962aba0a590981cf9c5b336ac34922c82f203165",
            "0x00000000000000000000000081d48d2c5d0744e8ef7a5c35cdceb0a27a1c707b"
          ],
          "data": "0x00000000000000000000000000000000000000000000000000000000000000070000000000000000000000000000000000000000000000000000000000000003",
          "blockHash": "0x2030117fc81fd8036f9aee588dfd342aae792b68448058dc3a95d1131e5b1bf7",
          "blockNumber": "0x2f84f24",
          "blockTimestamp": "0x6a4682a7",
          "transactionHash": "0x435ecd1260a21b0a4ffc122344cdfb0a0b597c8f8d5739b0acb57cfb479ff1ad",
          "transactionIndex": "0x9",
          "logIndex": "0x15",
          "removed": false
        },
        {
          "address": "0xfffffffffffffffffffffffffffffffffffffffe",
          "topics": [
            "0xddf252ad1be2c89b69c2b068fc378daa952ba7f163c4a11628f55a4df523b3ef",
            "0x000000000000000000000000962aba0a590981cf9c5b336ac34922c82f203165",
            "0x00000000000000000000000081d48d2c5d0744e8ef7a5c35cdceb0a27a1c707b"
          ],
          "data": "0x0000000000000000000000000000000000000000000000040ba1421eab868000",
          "blockHash": "0x2030117fc81fd8036f9aee588dfd342aae792b68448058dc3a95d1131e5b1bf7",
          "blockNumber": "0x2f84f24",
          "blockTimestamp": "0x6a4682a7",
          "transactionHash": "0x435ecd1260a21b0a4ffc122344cdfb0a0b597c8f8d5739b0acb57cfb479ff1ad",
          "transactionIndex": "0x9",
          "logIndex": "0x16",
          "removed": false
        },
        {
          "address": "0xfffffffffffffffffffffffffffffffffffffffe",
          "topics": [
            "0xddf252ad1be2c89b69c2b068fc378daa952ba7f163c4a11628f55a4df523b3ef",
            "0x000000000000000000000000962aba0a590981cf9c5b336ac34922c82f203165",
            "0x00000000000000000000000084e243a60a75efe615537af49c5eaee8f3c32ed9"
          ],
          "data": "0x000000000000000000000000000000000000000000000000053444835ec58000",
          "blockHash": "0x2030117fc81fd8036f9aee588dfd342aae792b68448058dc3a95d1131e5b1bf7",
          "blockNumber": "0x2f84f24",
          "blockTimestamp": "0x6a4682a7",
          "transactionHash": "0x435ecd1260a21b0a4ffc122344cdfb0a0b597c8f8d5739b0acb57cfb479ff1ad",
          "transactionIndex": "0x9",
          "logIndex": "0x17",
          "removed": false
        }
      ],
      "logsBloom": "0x00000000400000000000000400000080000000000000000000000000000000000000000000000000000000000200000000001000000000000002000000002000000020000000000000000008000000000000000000000000001000000004000000000000000000012000000000200000000000000000000000000010000000000000000000200000000000000000000000000000000000000000000000000000000000000000000000000000000000000001000000000000000000000000000000000002000000000008004000000000000000000009000000000100400000400600000000000000000000000000000000000000000000000200080000080000",
      "type": "0x2",
      "transactionHash": "0x435ecd1260a21b0a4ffc122344cdfb0a0b597c8f8d5739b0acb57cfb479ff1ad",
      "transactionIndex": "0x9",
      "blockHash": "0x2030117fc81fd8036f9aee588dfd342aae792b68448058dc3a95d1131e5b1bf7",
      "blockNumber": "0x2f84f24",
      "gasUsed": "0x13a34",
      "effectiveGasPrice": "0x4c07d0a3b",
      "from": "0x81d48d2c5d0744e8ef7a5c35cdceb0a27a1c707b",
      "to": "0x962aba0a590981cf9c5b336ac34922c82f203165",
      "contractAddress": null
    },
    {
      "status": "0x1",
      "cumulativeGasUsed": "0x958f5",
      "logs": [
        {
          "address": "0xfffffffffffffffffffffffffffffffffffffffe",
          "topics": [
            "0xddf252ad1be2c89b69c2b068fc378daa952ba7f163c4a11628f55a4df523b3ef",
            "0x00000000000000000000000081d48d2c5d0744e8ef7a5c35cdceb0a27a1c707b",
            "0x000000000000000000000000962aba0a590981cf9c5b336ac34922c82f203165"
          ],
          "data": "0x000000000000000000000000000000000000000000000006f3d387809bd90000",
          "blockHash": "0x2e3bd9035098ad3eadcda67a76fc4c1ab809322bd8a37c2a5edebb893ee3e201",
          "blockNumber": "0x2f84f25",
          "blockTimestamp": "0x6a4682a7",
          "transactionHash": "0xa178a54461aed8ad6fa85170497333d132bddfb81af1d9713865c7791a5715dc",
          "transactionIndex": "0x5",
          "logIndex": "0x9",
          "removed": false
        },
        {
          "address": "0x962aba0a590981cf9c5b336ac34922c82f203165",
          "topics": [
            "0x82bc30c29d8133d53d443f5e28b84e0fd2b5dcaf3957347d2a67d598186dc07e",
            "0x0000000000000000000000000000000000000000000000000000000000000008",
            "0x0000000000000000000000000000000000000000000000000000000000000008",
            "0x00000000000000000000000081d48d2c5d0744e8ef7a5c35cdceb0a27a1c707b"
          ],
          "data": "0x0000000000000000000000000000000000000000000000000000000000000003000000000000000000000000000000000000000000000006f3d387809bd9000000000000000000000000000000000000000000000000000008e62d7a3e382000",
          "blockHash": "0x2e3bd9035098ad3eadcda67a76fc4c1ab809322bd8a37c2a5edebb893ee3e201",
          "blockNumber": "0x2f84f25",
          "blockTimestamp": "0x6a4682a7",
          "transactionHash": "0xa178a54461aed8ad6fa85170497333d132bddfb81af1d9713865c7791a5715dc",
          "transactionIndex": "0x5",
          "logIndex": "0xa",
          "removed": false
        },
        {
          "address": "0x4d82b6e528d3c2e1a3592e14863ec95eaef4ff85",
          "topics": [
            "0xc3d58168c5ae7397731d063d5bbf3d657854427343f4c083240f7aacaa2d0f62",
            "0x000000000000000000000000962aba0a590981cf9c5b336ac34922c82f203165",
            "0x000000000000000000000000962aba0a590981cf9c5b336ac34922c82f203165",
            "0x00000000000000000000000081d48d2c5d0744e8ef7a5c35cdceb0a27a1c707b"
          ],
          "data": "0x00000000000000000000000000000000000000000000000000000000000000080000000000000000000000000000000000000000000000000000000000000003",
          "blockHash": "0x2e3bd9035098ad3eadcda67a76fc4c1ab809322bd8a37c2a5edebb893ee3e201",
          "blockNumber": "0x2f84f25",
          "blockTimestamp": "0x6a4682a7",
          "transactionHash": "0xa178a54461aed8ad6fa85170497333d132bddfb81af1d9713865c7791a5715dc",
          "transactionIndex": "0x5",
          "logIndex": "0xb",
          "removed": false
        },
        {
          "address": "0xfffffffffffffffffffffffffffffffffffffffe",
          "topics": [
            "0xddf252ad1be2c89b69c2b068fc378daa952ba7f163c4a11628f55a4df523b3ef",
            "0x000000000000000000000000962aba0a590981cf9c5b336ac34922c82f203165",
            "0x00000000000000000000000081d48d2c5d0744e8ef7a5c35cdceb0a27a1c707b"
          ],
          "data": "0x000000000000000000000000000000000000000000000006eaed5a065da0e000",
          "blockHash": "0x2e3bd9035098ad3eadcda67a76fc4c1ab809322bd8a37c2a5edebb893ee3e201",
          "blockNumber": "0x2f84f25",
          "blockTimestamp": "0x6a4682a7",
          "transactionHash": "0xa178a54461aed8ad6fa85170497333d132bddfb81af1d9713865c7791a5715dc",
          "transactionIndex": "0x5",
          "logIndex": "0xc",
          "removed": false
        },
        {
          "address": "0xfffffffffffffffffffffffffffffffffffffffe",
          "topics": [
            "0xddf252ad1be2c89b69c2b068fc378daa952ba7f163c4a11628f55a4df523b3ef",
            "0x000000000000000000000000962aba0a590981cf9c5b336ac34922c82f203165",
            "0x00000000000000000000000084e243a60a75efe615537af49c5eaee8f3c32ed9"
          ],
          "data": "0x00000000000000000000000000000000000000000000000008e62d7a3e382000",
          "blockHash": "0x2e3bd9035098ad3eadcda67a76fc4c1ab809322bd8a37c2a5edebb893ee3e201",
          "blockNumber": "0x2f84f25",
          "blockTimestamp": "0x6a4682a7",
          "transactionHash": "0xa178a54461aed8ad6fa85170497333d132bddfb81af1d9713865c7791a5715dc",
          "transactionIndex": "0x5",
          "logIndex": "0xd",
          "removed": false
        }
      ],
      "logsBloom": "0x00000000400000000000000400000080000000000000000000000000000000000000000000000000000000000200000000000000000080000002000000002000000000000000000000000008000000000000000000000000001000000004000000000000000000012000000000200000000000000000000000000010000000000080000000200000000000000000000000000000000000000000000000000000000000000000000000000000000000000001000000000000000000000000000040000002000000000008004000000000000000000009000000000000400000400600000000000000000000000000000000000000000000000200080000080000",
      "type": "0x2",
      "transactionHash": "0xa178a54461aed8ad6fa85170497333d132bddfb81af1d9713865c7791a5715dc",
      "transactionIndex": "0x5",
      "blockHash": "0x2e3bd9035098ad3eadcda67a76fc4c1ab809322bd8a37c2a5edebb893ee3e201",
      "blockNumber": "0x2f84f25",
      "gasUsed": "0x13a34",
      "effectiveGasPrice": "0x4c07d0a3b",
      "from": "0x81d48d2c5d0744e8ef7a5c35cdceb0a27a1c707b",
      "to": "0x962aba0a590981cf9c5b336ac34922c82f203165",
      "contractAddress": null
    },
    {
      "status": "0x1",
      "cumulativeGasUsed": "0x118859",
      "logs": [
        {
          "address": "0xfffffffffffffffffffffffffffffffffffffffe",
          "topics": [
            "0xddf252ad1be2c89b69c2b068fc378daa952ba7f163c4a11628f55a4df523b3ef",
            "0x00000000000000000000000081d48d2c5d0744e8ef7a5c35cdceb0a27a1c707b",
            "0x000000000000000000000000962aba0a590981cf9c5b336ac34922c82f203165"
          ],
          "data": "0x000000000000000000000000000000000000000000000004c80558b245740000",
          "blockHash": "0x287ab1e8571dad1c1c5023014652e1c99bcebde446cce022b59217a9dcc8fe26",
          "blockNumber": "0x2f84f26",
          "blockTimestamp": "0x6a4682a8",
          "transactionHash": "0xa7b2cf200b7e0cc81b5833f89c89f873f34f46f27f972e4959e1cae2f528dd79",
          "transactionIndex": "0x9",
          "logIndex": "0xf",
          "removed": false
        },
        {
          "address": "0x962aba0a590981cf9c5b336ac34922c82f203165",
          "topics": [
            "0x82bc30c29d8133d53d443f5e28b84e0fd2b5dcaf3957347d2a67d598186dc07e",
            "0x0000000000000000000000000000000000000000000000000000000000000009",
            "0x0000000000000000000000000000000000000000000000000000000000000009",
            "0x00000000000000000000000081d48d2c5d0744e8ef7a5c35cdceb0a27a1c707b"
          ],
          "data": "0x0000000000000000000000000000000000000000000000000000000000000003000000000000000000000000000000000000000000000004c80558b245740000000000000000000000000000000000000000000000000000061ebf29d9f28000",
          "blockHash": "0x287ab1e8571dad1c1c5023014652e1c99bcebde446cce022b59217a9dcc8fe26",
          "blockNumber": "0x2f84f26",
          "blockTimestamp": "0x6a4682a8",
          "transactionHash": "0xa7b2cf200b7e0cc81b5833f89c89f873f34f46f27f972e4959e1cae2f528dd79",
          "transactionIndex": "0x9",
          "logIndex": "0x10",
          "removed": false
        },
        {
          "address": "0x4d82b6e528d3c2e1a3592e14863ec95eaef4ff85",
          "topics": [
            "0xc3d58168c5ae7397731d063d5bbf3d657854427343f4c083240f7aacaa2d0f62",
            "0x000000000000000000000000962aba0a590981cf9c5b336ac34922c82f203165",
            "0x000000000000000000000000962aba0a590981cf9c5b336ac34922c82f203165",
            "0x00000000000000000000000081d48d2c5d0744e8ef7a5c35cdceb0a27a1c707b"
          ],
          "data": "0x00000000000000000000000000000000000000000000000000000000000000090000000000000000000000000000000000000000000000000000000000000003",
          "blockHash": "0x287ab1e8571dad1c1c5023014652e1c99bcebde446cce022b59217a9dcc8fe26",
          "blockNumber": "0x2f84f26",
          "blockTimestamp": "0x6a4682a8",
          "transactionHash": "0xa7b2cf200b7e0cc81b5833f89c89f873f34f46f27f972e4959e1cae2f528dd79",
          "transactionIndex": "0x9",
          "logIndex": "0x11",
          "removed": false
        },
        {
          "address": "0xfffffffffffffffffffffffffffffffffffffffe",
          "topics": [
            "0xddf252ad1be2c89b69c2b068fc378daa952ba7f163c4a11628f55a4df523b3ef",
            "0x000000000000000000000000962aba0a590981cf9c5b336ac34922c82f203165",
            "0x00000000000000000000000081d48d2c5d0744e8ef7a5c35cdceb0a27a1c707b"
          ],
          "data": "0x000000000000000000000000000000000000000000000004c1e699886b818000",
          "blockHash": "0x287ab1e8571dad1c1c5023014652e1c99bcebde446cce022b59217a9dcc8fe26",
          "blockNumber": "0x2f84f26",
          "blockTimestamp": "0x6a4682a8",
          "transactionHash": "0xa7b2cf200b7e0cc81b5833f89c89f873f34f46f27f972e4959e1cae2f528dd79",
          "transactionIndex": "0x9",
          "logIndex": "0x12",
          "removed": false
        },
        {
          "address": "0xfffffffffffffffffffffffffffffffffffffffe",
          "topics": [
            "0xddf252ad1be2c89b69c2b068fc378daa952ba7f163c4a11628f55a4df523b3ef",
            "0x000000000000000000000000962aba0a590981cf9c5b336ac34922c82f203165",
            "0x00000000000000000000000084e243a60a75efe615537af49c5eaee8f3c32ed9"
          ],
          "data": "0x000000000000000000000000000000000000000000000000061ebf29d9f28000",
          "blockHash": "0x287ab1e8571dad1c1c5023014652e1c99bcebde446cce022b59217a9dcc8fe26",
          "blockNumber": "0x2f84f26",
          "blockTimestamp": "0x6a4682a8",
          "transactionHash": "0xa7b2cf200b7e0cc81b5833f89c89f873f34f46f27f972e4959e1cae2f528dd79",
          "transactionIndex": "0x9",
          "logIndex": "0x13",
          "removed": false
        }
      ],
      "logsBloom": "0x00000000400000000000000400000080000000000000000000000000000000000000000000000000000000000200000000000000000000000002000000202000000000000000000000000008000000000000000000000000001000000004000000000000000000012000000000200000000000000000000000000010000000000000000000200000000000000000000000001000000000000000000000000000000000000000000000000000000000000001000000000000000000000000000000000002000000000008004000000000000000000009000000000000400000400600000000000000000000000000000000000000000000000200080000880000",
      "type": "0x2",
      "transactionHash": "0xa7b2cf200b7e0cc81b5833f89c89f873f34f46f27f972e4959e1cae2f528dd79",
      "transactionIndex": "0x9",
      "blockHash": "0x287ab1e8571dad1c1c5023014652e1c99bcebde446cce022b59217a9dcc8fe26",
      "blockNumber": "0x2f84f26",
      "gasUsed": "0x13a34",
      "effectiveGasPrice": "0x4c07d0a3b",
      "from": "0x81d48d2c5d0744e8ef7a5c35cdceb0a27a1c707b",
      "to": "0x962aba0a590981cf9c5b336ac34922c82f203165",
      "contractAddress": null
    },
    {
      "status": "0x1",
      "cumulativeGasUsed": "0xfa20c",
      "logs": [
        {
          "address": "0xfffffffffffffffffffffffffffffffffffffffe",
          "topics": [
            "0xddf252ad1be2c89b69c2b068fc378daa952ba7f163c4a11628f55a4df523b3ef",
            "0x00000000000000000000000081d48d2c5d0744e8ef7a5c35cdceb0a27a1c707b",
            "0x000000000000000000000000962aba0a590981cf9c5b336ac34922c82f203165"
          ],
          "data": "0x000000000000000000000000000000000000000000000004c80558b245740000",
          "blockHash": "0xdaaf8c6b7c18963872104622404ce9825b7c8f0ce6301c9371b83ec7e474ef36",
          "blockNumber": "0x2f84f27",
          "blockTimestamp": "0x6a4682a8",
          "transactionHash": "0xccb1e9316d721bf310027f87b90c7dbfda146a884c02e653fc0af5c66bc87135",
          "transactionIndex": "0xc",
          "logIndex": "0x13",
          "removed": false
        },
        {
          "address": "0x962aba0a590981cf9c5b336ac34922c82f203165",
          "topics": [
            "0x82bc30c29d8133d53d443f5e28b84e0fd2b5dcaf3957347d2a67d598186dc07e",
            "0x0000000000000000000000000000000000000000000000000000000000000009",
            "0x0000000000000000000000000000000000000000000000000000000000000009",
            "0x00000000000000000000000081d48d2c5d0744e8ef7a5c35cdceb0a27a1c707b"
          ],
          "data": "0x0000000000000000000000000000000000000000000000000000000000000003000000000000000000000000000000000000000000000004c80558b245740000000000000000000000000000000000000000000000000000061ebf29d9f28000",
          "blockHash": "0xdaaf8c6b7c18963872104622404ce9825b7c8f0ce6301c9371b83ec7e474ef36",
          "blockNumber": "0x2f84f27",
          "blockTimestamp": "0x6a4682a8",
          "transactionHash": "0xccb1e9316d721bf310027f87b90c7dbfda146a884c02e653fc0af5c66bc87135",
          "transactionIndex": "0xc",
          "logIndex": "0x14",
          "removed": false
        },
        {
          "address": "0x4d82b6e528d3c2e1a3592e14863ec95eaef4ff85",
          "topics": [
            "0xc3d58168c5ae7397731d063d5bbf3d657854427343f4c083240f7aacaa2d0f62",
            "0x000000000000000000000000962aba0a590981cf9c5b336ac34922c82f203165",
            "0x000000000000000000000000962aba0a590981cf9c5b336ac34922c82f203165",
            "0x00000000000000000000000081d48d2c5d0744e8ef7a5c35cdceb0a27a1c707b"
          ],
          "data": "0x00000000000000000000000000000000000000000000000000000000000000090000000000000000000000000000000000000000000000000000000000000003",
          "blockHash": "0xdaaf8c6b7c18963872104622404ce9825b7c8f0ce6301c9371b83ec7e474ef36",
          "blockNumber": "0x2f84f27",
          "blockTimestamp": "0x6a4682a8",
          "transactionHash": "0xccb1e9316d721bf310027f87b90c7dbfda146a884c02e653fc0af5c66bc87135",
          "transactionIndex": "0xc",
          "logIndex": "0x15",
          "removed": false
        },
        {
          "address": "0xfffffffffffffffffffffffffffffffffffffffe",
          "topics": [
            "0xddf252ad1be2c89b69c2b068fc378daa952ba7f163c4a11628f55a4df523b3ef",
            "0x000000000000000000000000962aba0a590981cf9c5b336ac34922c82f203165",
            "0x00000000000000000000000081d48d2c5d0744e8ef7a5c35cdceb0a27a1c707b"
          ],
          "data": "0x000000000000000000000000000000000000000000000004c1e699886b818000",
          "blockHash": "0xdaaf8c6b7c18963872104622404ce9825b7c8f0ce6301c9371b83ec7e474ef36",
          "blockNumber": "0x2f84f27",
          "blockTimestamp": "0x6a4682a8",
          "transactionHash": "0xccb1e9316d721bf310027f87b90c7dbfda146a884c02e653fc0af5c66bc87135",
          "transactionIndex": "0xc",
          "logIndex": "0x16",
          "removed": false
        },
        {
          "address": "0xfffffffffffffffffffffffffffffffffffffffe",
          "topics": [
            "0xddf252ad1be2c89b69c2b068fc378daa952ba7f163c4a11628f55a4df523b3ef",
            "0x000000000000000000000000962aba0a590981cf9c5b336ac34922c82f203165",
            "0x00000000000000000000000084e243a60a75efe615537af49c5eaee8f3c32ed9"
          ],
          "data": "0x000000000000000000000000000000000000000000000000061ebf29d9f28000",
          "blockHash": "0xdaaf8c6b7c18963872104622404ce9825b7c8f0ce6301c9371b83ec7e474ef36",
          "blockNumber": "0x2f84f27",
          "blockTimestamp": "0x6a4682a8",
          "transactionHash": "0xccb1e9316d721bf310027f87b90c7dbfda146a884c02e653fc0af5c66bc87135",
          "transactionIndex": "0xc",
          "logIndex": "0x17",
          "removed": false
        }
      ],
      "logsBloom": "0x00000000400000000000000400000080000000000000000000000000000000000000000000000000000000000200000000000000000000000002000000202000000000000000000000000008000000000000000000000000001000000004000000000000000000012000000000200000000000000000000000000010000000000000000000200000000000000000000000001000000000000000000000000000000000000000000000000000000000000001000000000000000000000000000000000002000000000008004000000000000000000009000000000000400000400600000000000000000000000000000000000000000000000200080000880000",
      "type": "0x2",
      "transactionHash": "0xccb1e9316d721bf310027f87b90c7dbfda146a884c02e653fc0af5c66bc87135",
      "transactionIndex": "0xc",
      "blockHash": "0xdaaf8c6b7c18963872104622404ce9825b7c8f0ce6301c9371b83ec7e474ef36",
      "blockNumber": "0x2f84f27",
      "gasUsed": "0x13a34",
      "effectiveGasPrice": "0x4c07d0a3b",
      "from": "0x81d48d2c5d0744e8ef7a5c35cdceb0a27a1c707b",
      "to": "0x962aba0a590981cf9c5b336ac34922c82f203165",
      "contractAddress": null
    },
    {
      "status": "0x1",
      "cumulativeGasUsed": "0x10dc40",
      "logs": [
        {
          "address": "0xfffffffffffffffffffffffffffffffffffffffe",
          "topics": [
            "0xddf252ad1be2c89b69c2b068fc378daa952ba7f163c4a11628f55a4df523b3ef",
            "0x00000000000000000000000081d48d2c5d0744e8ef7a5c35cdceb0a27a1c707b",
            "0x000000000000000000000000962aba0a590981cf9c5b336ac34922c82f203165"
          ],
          "data": "0x00000000000000000000000000000000000000000000000063eb89da4ed00000",
          "blockHash": "0xdaaf8c6b7c18963872104622404ce9825b7c8f0ce6301c9371b83ec7e474ef36",
          "blockNumber": "0x2f84f27",
          "blockTimestamp": "0x6a4682a8",
          "transactionHash": "0xafa5dbe3f3bcfce51ab91d01cc969361203866be63c14f6cef6fa7f90739097e",
          "transactionIndex": "0xd",
          "logIndex": "0x18",
          "removed": false
        },
        {
          "address": "0x962aba0a590981cf9c5b336ac34922c82f203165",
          "topics": [
            "0x82bc30c29d8133d53d443f5e28b84e0fd2b5dcaf3957347d2a67d598186dc07e",
            "0x000000000000000000000000000000000000000000000000000000000000000a",
            "0x000000000000000000000000000000000000000000000000000000000000000a",
            "0x00000000000000000000000081d48d2c5d0744e8ef7a5c35cdceb0a27a1c707b"
          ],
          "data": "0x000000000000000000000000000000000000000000000000000000000000000300000000000000000000000000000000000000000000000063eb89da4ed00000000000000000000000000000000000000000000000000000007fe5cf2bea0000",
          "blockHash": "0xdaaf8c6b7c18963872104622404ce9825b7c8f0ce6301c9371b83ec7e474ef36",
          "blockNumber": "0x2f84f27",
          "blockTimestamp": "0x6a4682a8",
          "transactionHash": "0xafa5dbe3f3bcfce51ab91d01cc969361203866be63c14f6cef6fa7f90739097e",
          "transactionIndex": "0xd",
          "logIndex": "0x19",
          "removed": false
        },
        {
          "address": "0x4d82b6e528d3c2e1a3592e14863ec95eaef4ff85",
          "topics": [
            "0xc3d58168c5ae7397731d063d5bbf3d657854427343f4c083240f7aacaa2d0f62",
            "0x000000000000000000000000962aba0a590981cf9c5b336ac34922c82f203165",
            "0x000000000000000000000000962aba0a590981cf9c5b336ac34922c82f203165",
            "0x00000000000000000000000081d48d2c5d0744e8ef7a5c35cdceb0a27a1c707b"
          ],
          "data": "0x000000000000000000000000000000000000000000000000000000000000000a0000000000000000000000000000000000000000000000000000000000000003",
          "blockHash": "0xdaaf8c6b7c18963872104622404ce9825b7c8f0ce6301c9371b83ec7e474ef36",
          "blockNumber": "0x2f84f27",
          "blockTimestamp": "0x6a4682a8",
          "transactionHash": "0xafa5dbe3f3bcfce51ab91d01cc969361203866be63c14f6cef6fa7f90739097e",
          "transactionIndex": "0xd",
          "logIndex": "0x1a",
          "removed": false
        },
        {
          "address": "0xfffffffffffffffffffffffffffffffffffffffe",
          "topics": [
            "0xddf252ad1be2c89b69c2b068fc378daa952ba7f163c4a11628f55a4df523b3ef",
            "0x000000000000000000000000962aba0a590981cf9c5b336ac34922c82f203165",
            "0x00000000000000000000000081d48d2c5d0744e8ef7a5c35cdceb0a27a1c707b"
          ],
          "data": "0x000000000000000000000000000000000000000000000000636ba40b22e60000",
          "blockHash": "0xdaaf8c6b7c18963872104622404ce9825b7c8f0ce6301c9371b83ec7e474ef36",
          "blockNumber": "0x2f84f27",
          "blockTimestamp": "0x6a4682a8",
          "transactionHash": "0xafa5dbe3f3bcfce51ab91d01cc969361203866be63c14f6cef6fa7f90739097e",
          "transactionIndex": "0xd",
          "logIndex": "0x1b",
          "removed": false
        },
        {
          "address": "0xfffffffffffffffffffffffffffffffffffffffe",
          "topics": [
            "0xddf252ad1be2c89b69c2b068fc378daa952ba7f163c4a11628f55a4df523b3ef",
            "0x000000000000000000000000962aba0a590981cf9c5b336ac34922c82f203165",
            "0x00000000000000000000000084e243a60a75efe615537af49c5eaee8f3c32ed9"
          ],
          "data": "0x000000000000000000000000000000000000000000000000007fe5cf2bea0000",
          "blockHash": "0xdaaf8c6b7c18963872104622404ce9825b7c8f0ce6301c9371b83ec7e474ef36",
          "blockNumber": "0x2f84f27",
          "blockTimestamp": "0x6a4682a8",
          "transactionHash": "0xafa5dbe3f3bcfce51ab91d01cc969361203866be63c14f6cef6fa7f90739097e",
          "transactionIndex": "0xd",
          "logIndex": "0x1c",
          "removed": false
        }
      ],
      "logsBloom": "0x00000000400000000000000400000080000000000000000000000000000000000000000000000000000000000200000000000000040000000022000000002000000000000000000000000008000000000000000000000000001000000004000000000000000000012000000000200000000000000000000000000010000000000000000000200000010000000000000000000000000000000000000000000000000000000000000000000000000000000001000000000000000000000000000000000002000000000008004000000000000000000009000000000000400000400600000000000000000000000000000000000000000000000200080000080000",
      "type": "0x2",
      "transactionHash": "0xafa5dbe3f3bcfce51ab91d01cc969361203866be63c14f6cef6fa7f90739097e",
      "transactionIndex": "0xd",
      "blockHash": "0xdaaf8c6b7c18963872104622404ce9825b7c8f0ce6301c9371b83ec7e474ef36",
      "blockNumber": "0x2f84f27",
      "gasUsed": "0x13a34",
      "effectiveGasPrice": "0x4c07d0a3b",
      "from": "0x81d48d2c5d0744e8ef7a5c35cdceb0a27a1c707b",
      "to": "0x962aba0a590981cf9c5b336ac34922c82f203165",
      "contractAddress": null
    },
    {
      "status": "0x1",
      "cumulativeGasUsed": "0x121674",
      "logs": [
        {
          "address": "0xfffffffffffffffffffffffffffffffffffffffe",
          "topics": [
            "0xddf252ad1be2c89b69c2b068fc378daa952ba7f163c4a11628f55a4df523b3ef",
            "0x00000000000000000000000081d48d2c5d0744e8ef7a5c35cdceb0a27a1c707b",
            "0x000000000000000000000000962aba0a590981cf9c5b336ac34922c82f203165"
          ],
          "data": "0x00000000000000000000000000000000000000000000000063eb89da4ed00000",
          "blockHash": "0xdaaf8c6b7c18963872104622404ce9825b7c8f0ce6301c9371b83ec7e474ef36",
          "blockNumber": "0x2f84f27",
          "blockTimestamp": "0x6a4682a8",
          "transactionHash": "0x4e054c6e3d5d4a78a232fd79436da99d25b03e9e26077d8bbdd9ea68bf4cd7f2",
          "transactionIndex": "0xe",
          "logIndex": "0x1d",
          "removed": false
        },
        {
          "address": "0x962aba0a590981cf9c5b336ac34922c82f203165",
          "topics": [
            "0x82bc30c29d8133d53d443f5e28b84e0fd2b5dcaf3957347d2a67d598186dc07e",
            "0x000000000000000000000000000000000000000000000000000000000000000a",
            "0x000000000000000000000000000000000000000000000000000000000000000a",
            "0x00000000000000000000000081d48d2c5d0744e8ef7a5c35cdceb0a27a1c707b"
          ],
          "data": "0x000000000000000000000000000000000000000000000000000000000000000300000000000000000000000000000000000000000000000063eb89da4ed00000000000000000000000000000000000000000000000000000007fe5cf2bea0000",
          "blockHash": "0xdaaf8c6b7c18963872104622404ce9825b7c8f0ce6301c9371b83ec7e474ef36",
          "blockNumber": "0x2f84f27",
          "blockTimestamp": "0x6a4682a8",
          "transactionHash": "0x4e054c6e3d5d4a78a232fd79436da99d25b03e9e26077d8bbdd9ea68bf4cd7f2",
          "transactionIndex": "0xe",
          "logIndex": "0x1e",
          "removed": false
        },
        {
          "address": "0x4d82b6e528d3c2e1a3592e14863ec95eaef4ff85",
          "topics": [
            "0xc3d58168c5ae7397731d063d5bbf3d657854427343f4c083240f7aacaa2d0f62",
            "0x000000000000000000000000962aba0a590981cf9c5b336ac34922c82f203165",
            "0x000000000000000000000000962aba0a590981cf9c5b336ac34922c82f203165",
            "0x00000000000000000000000081d48d2c5d0744e8ef7a5c35cdceb0a27a1c707b"
          ],
          "data": "0x000000000000000000000000000000000000000000000000000000000000000a0000000000000000000000000000000000000000000000000000000000000003",
          "blockHash": "0xdaaf8c6b7c18963872104622404ce9825b7c8f0ce6301c9371b83ec7e474ef36",
          "blockNumber": "0x2f84f27",
          "blockTimestamp": "0x6a4682a8",
          "transactionHash": "0x4e054c6e3d5d4a78a232fd79436da99d25b03e9e26077d8bbdd9ea68bf4cd7f2",
          "transactionIndex": "0xe",
          "logIndex": "0x1f",
          "removed": false
        },
        {
          "address": "0xfffffffffffffffffffffffffffffffffffffffe",
          "topics": [
            "0xddf252ad1be2c89b69c2b068fc378daa952ba7f163c4a11628f55a4df523b3ef",
            "0x000000000000000000000000962aba0a590981cf9c5b336ac34922c82f203165",
            "0x00000000000000000000000081d48d2c5d0744e8ef7a5c35cdceb0a27a1c707b"
          ],
          "data": "0x000000000000000000000000000000000000000000000000636ba40b22e60000",
          "blockHash": "0xdaaf8c6b7c18963872104622404ce9825b7c8f0ce6301c9371b83ec7e474ef36",
          "blockNumber": "0x2f84f27",
          "blockTimestamp": "0x6a4682a8",
          "transactionHash": "0x4e054c6e3d5d4a78a232fd79436da99d25b03e9e26077d8bbdd9ea68bf4cd7f2",
          "transactionIndex": "0xe",
          "logIndex": "0x20",
          "removed": false
        },
        {
          "address": "0xfffffffffffffffffffffffffffffffffffffffe",
          "topics": [
            "0xddf252ad1be2c89b69c2b068fc378daa952ba7f163c4a11628f55a4df523b3ef",
            "0x000000000000000000000000962aba0a590981cf9c5b336ac34922c82f203165",
            "0x00000000000000000000000084e243a60a75efe615537af49c5eaee8f3c32ed9"
          ],
          "data": "0x000000000000000000000000000000000000000000000000007fe5cf2bea0000",
          "blockHash": "0xdaaf8c6b7c18963872104622404ce9825b7c8f0ce6301c9371b83ec7e474ef36",
          "blockNumber": "0x2f84f27",
          "blockTimestamp": "0x6a4682a8",
          "transactionHash": "0x4e054c6e3d5d4a78a232fd79436da99d25b03e9e26077d8bbdd9ea68bf4cd7f2",
          "transactionIndex": "0xe",
          "logIndex": "0x21",
          "removed": false
        }
      ],
      "logsBloom": "0x00000000400000000000000400000080000000000000000000000000000000000000000000000000000000000200000000000000040000000022000000002000000000000000000000000008000000000000000000000000001000000004000000000000000000012000000000200000000000000000000000000010000000000000000000200000010000000000000000000000000000000000000000000000000000000000000000000000000000000001000000000000000000000000000000000002000000000008004000000000000000000009000000000000400000400600000000000000000000000000000000000000000000000200080000080000",
      "type": "0x2",
      "transactionHash": "0x4e054c6e3d5d4a78a232fd79436da99d25b03e9e26077d8bbdd9ea68bf4cd7f2",
      "transactionIndex": "0xe",
      "blockHash": "0xdaaf8c6b7c18963872104622404ce9825b7c8f0ce6301c9371b83ec7e474ef36",
      "blockNumber": "0x2f84f27",
      "gasUsed": "0x13a34",
      "effectiveGasPrice": "0x4c07d0a3b",
      "from": "0x81d48d2c5d0744e8ef7a5c35cdceb0a27a1c707b",
      "to": "0x962aba0a590981cf9c5b336ac34922c82f203165",
      "contractAddress": null
    }
  ],
  "libraries": [],
  "pending": [],
  "returns": {},
  "timestamp": 1783005866676,
  "chain": 5042002,
  "commit": "29b8ff7"
}