{
  "transactions": [
    {
      "hash": "0xedfab2bfcc0c83b68631fea2ef7d8e821db7f009dc38520592c83a48cda883f8",
      "transactionType": "CALL",
      "contractName": null,
      "contractAddress": "0x735b2be6a5e20d15885351f0d14f1d02e87555fc",
      "function": "createAsset(string,string,uint256,string)",
      "arguments": [
        "US T-BILL 2026-Q3",
        "treasuries",
        "10000",
        "hadron://assets/t-bill-2026-q3"
      ],
      "transaction": {
        "from": "0x81d48d2c5d0744e8ef7a5c35cdceb0a27a1c707b",
        "to": "0x735b2be6a5e20d15885351f0d14f1d02e87555fc",
        "gas": "0x32f10",
        "value": "0x0",
        "input": "0x596abcf6000000000000000000000000000000000000000000000000000000000000008000000000000000000000000000000000000000000000000000000000000000c0000000000000000000000000000000000000000000000000000000000000271000000000000000000000000000000000000000000000000000000000000001000000000000000000000000000000000000000000000000000000000000000011555320542d42494c4c20323032362d5133000000000000000000000000000000000000000000000000000000000000000000000000000000000000000000000a7472656173757269657300000000000000000000000000000000000000000000000000000000000000000000000000000000000000000000000000000000001e686164726f6e3a2f2f6173736574732f742d62696c6c2d323032362d71330000",
        "nonce": "0x184",
        "chainId": "0x4cef52"
      },
      "additionalContracts": [],
      "isFixedGasLimit": false
    },
    {
      "hash": "0xaec1eebf395edc5a08608361289f6c69f82ed5a7f6dbcf89c4de2dfca7423eed",
      "transactionType": "CALL",
      "contractName": null,
      "contractAddress": "0x18f15ad92b3352532da23a31999ce273203d859c",
      "function": "createPrimaryOffering(uint256,uint256,uint256)",
      "arguments": [
        "2",
        "100000000000000000000",
        "6000"
      ],
      "transaction": {
        "from": "0x81d48d2c5d0744e8ef7a5c35cdceb0a27a1c707b",
        "to": "0x18f15ad92b3352532da23a31999ce273203d859c",
        "gas": "0x38f60",
        "value": "0x0",
        "input": "0x9f4ab02300000000000000000000000000000000000000000000000000000000000000020000000000000000000000000000000000000000000000056bc75e2d631000000000000000000000000000000000000000000000000000000000000000001770",
        "nonce": "0x185",
        "chainId": "0x4cef52"
      },
      "additionalContracts": [],
      "isFixedGasLimit": false
    },
    {
      "hash": "0xcf5a5cd8b1f922eaef3734a0251bfae891678d137ed1737d02a3545ef3764ae9",
      "transactionType": "CALL",
      "contractName": null,
      "contractAddress": "0x735b2be6a5e20d15885351f0d14f1d02e87555fc",
      "function": "createAsset(string,string,uint256,string)",
      "arguments": [
        "GOLD OUNCE VAULT #4",
        "gold",
        "500",
        "hadron://assets/gold-ounce-4"
      ],
      "transaction": {
        "from": "0x81d48d2c5d0744e8ef7a5c35cdceb0a27a1c707b",
        "to": "0x735b2be6a5e20d15885351f0d14f1d02e87555fc",
        "gas": "0x32ead",
        "value": "0x0",
        "input": "0x596abcf6000000000000000000000000000000000000000000000000000000000000008000000000000000000000000000000000000000000000000000000000000000c000000000000000000000000000000000000000000000000000000000000001f400000000000000000000000000000000000000000000000000000000000001000000000000000000000000000000000000000000000000000000000000000013474f4c44204f554e4345205641554c54202334000000000000000000000000000000000000000000000000000000000000000000000000000000000000000004676f6c6400000000000000000000000000000000000000000000000000000000000000000000000000000000000000000000000000000000000000000000001c686164726f6e3a2f2f6173736574732f676f6c642d6f756e63652d3400000000",
        "nonce": "0x186",
        "chainId": "0x4cef52"
      },
      "additionalContracts": [],
      "isFixedGasLimit": false
    },
    {
      "hash": "0x58bc8e54ab1426e5050d1ffe3a2d1d2c943563b9aea6ec695938d98d12660df5",
      "transactionType": "CALL",
      "contractName": null,
      "contractAddress": "0x18f15ad92b3352532da23a31999ce273203d859c",
      "function": "createPrimaryOffering(uint256,uint256,uint256)",
      "arguments": [
        "3",
        "23800000000000000000",
        "300"
      ],
      "transaction": {
        "from": "0x81d48d2c5d0744e8ef7a5c35cdceb0a27a1c707b",
        "to": "0x18f15ad92b3352532da23a31999ce273203d859c",
        "gas": "0x38f60",
        "value": "0x0",
        "input": "0x9f4ab02300000000000000000000000000000000000000000000000000000000000000030000000000000000000000000000000000000000000000014a4a95e6f64c0000000000000000000000000000000000000000000000000000000000000000012c",
        "nonce": "0x187",
        "chainId": "0x4cef52"
      },
      "additionalContracts": [],
      "isFixedGasLimit": false
    },
    {
      "hash": "0x8a279050cf947313c1a4771cce9fbd0f81da1317b50997571b9363521d6f024f",
      "transactionType": "CALL",
      "contractName": null,
      "contractAddress": "0x735b2be6a5e20d15885351f0d14f1d02e87555fc",
      "function": "createAsset(string,string,uint256,string)",
      "arguments": [
        "MARINA TOWER UNIT 12F",
        "real-estate",
        "2000",
        "hadron://assets/marina-tower-12f"
      ],
      "transaction": {
        "from": "0x81d48d2c5d0744e8ef7a5c35cdceb0a27a1c707b",
        "to": "0x735b2be6a5e20d15885351f0d14f1d02e87555fc",
        "gas": "0x3a77c",
        "value": "0x0",
        "input": "0x596abcf6000000000000000000000000000000000000000000000000000000000000008000000000000000000000000000000000000000000000000000000000000000c000000000000000000000000000000000000000000000000000000000000007d0000000000000000000000000000000000000000000000000000000000000010000000000000000000000000000000000000000000000000000000000000000154d4152494e4120544f57455220554e4954203132460000000000000000000000000000000000000000000000000000000000000000000000000000000000000b7265616c2d6573746174650000000000000000000000000000000000000000000000000000000000000000000000000000000000000000000000000000000020686164726f6e3a2f2f6173736574732f6d6172696e612d746f7765722d313266",
        "nonce": "0x188",
        "chainId": "0x4cef52"
      },
      "additionalContracts": [],
      "isFixedGasLimit": false
    },
    {
      "hash": "0x2ea687e98658cebfadf5902125dfc8fd34309899e5c9490010cc0acb068268d8",
      "transactionType": "CALL",
      "contractName": null,
      "contractAddress": "0x18f15ad92b3352532da23a31999ce273203d859c",
      "function": "createPrimaryOffering(uint256,uint256,uint256)",
      "arguments": [
        "4",
        "55500000000000000000",
        "1200"
      ],
      "transaction": {
        "from": "0x81d48d2c5d0744e8ef7a5c35cdceb0a27a1c707b",
        "to": "0x18f15ad92b3352532da23a31999ce273203d859c",
        "gas": "0x38f60",
        "value": "0x0",
        "input": "0x9f4ab023000000000000000000000000000000000000000000000000000000000000000400000000000000000000000000000000000000000000000302379bf2ca2e000000000000000000000000000000000000000000000000000000000000000004b0",
        "nonce": "0x189",
        "chainId": "0x4cef52"
      },
      "additionalContracts": [],
      "isFixedGasLimit": false
    },
    {
      "hash": "0x30654b7e1c5b9866b41d43a5425f67f82ab38693a91c1f06a3bf29fcef7ccea6",
      "transactionType": "CALL",
      "contractName": null,
      "contractAddress": "0x735b2be6a5e20d15885351f0d14f1d02e87555fc",
      "function": "createAsset(string,string,uint256,string)",
      "arguments": [
        "VERRA CARBON LOT-9",
        "carbon",
        "8000",
        "hadron://assets/verra-carbon-9"
      ],
      "transaction": {
        "from": "0x81d48d2c5d0744e8ef7a5c35cdceb0a27a1c707b",
        "to": "0x735b2be6a5e20d15885351f0d14f1d02e87555fc",
        "gas": "0x32edf",
        "value": "0x0",
        "input": "0x596abcf6000000000000000000000000000000000000000000000000000000000000008000000000000000000000000000000000000000000000000000000000000000c00000000000000000000000000000000000000000000000000000000000001f4000000000000000000000000000000000000000000000000000000000000001000000000000000000000000000000000000000000000000000000000000000012564552524120434152424f4e204c4f542d3900000000000000000000000000000000000000000000000000000000000000000000000000000000000000000006636172626f6e0000000000000000000000000000000000000000000000000000000000000000000000000000000000000000000000000000000000000000001e686164726f6e3a2f2f6173736574732f76657272612d636172626f6e2d390000",
        "nonce": "0x18a",
        "chainId": "0x4cef52"
      },
      "additionalContracts": [],
      "isFixedGasLimit": false
    },
    {
      "hash": "0xb7bb3fb2931ae7bf9e8de13ee24a9f45f2cc4707726413c0629c2fd1f48c7eda",
      "transactionType": "CALL",
      "contractName": null,
      "contractAddress": "0x18f15ad92b3352532da23a31999ce273203d859c",
      "function": "createPrimaryOffering(uint256,uint256,uint256)",
      "arguments": [
        "5",
        "1850000000000000000",
        "4800"
      ],
      "transaction": {
        "from": "0x81d48d2c5d0744e8ef7a5c35cdceb0a27a1c707b",
        "to": "0x18f15ad92b3352532da23a31999ce273203d859c",
        "gas": "0x35cad",
        "value": "0x0",
        "input": "0x9f4ab023000000000000000000000000000000000000000000000000000000000000000500000000000000000000000000000000000000000000000019ac8532c279000000000000000000000000000000000000000000000000000000000000000012c0",
        "nonce": "0x18b",
        "chainId": "0x4cef52"
      },
      "additionalContracts": [],
      "isFixedGasLimit": false
    }
  ],
  "receipts": [
    {
      "status": "0x1",
      "cumulativeGasUsed": "0x16a9af",
      "logs": [
        {
          "address": "0x735b2be6a5e20d15885351f0d14f1d02e87555fc",
          "topics": [
            "0xc3d58168c5ae7397731d063d5bbf3d657854427343f4c083240f7aacaa2d0f62",
            "0x00000000000000000000000081d48d2c5d0744e8ef7a5c35cdceb0a27a1c707b",
            "0x0000000000000000000000000000000000000000000000000000000000000000",
            "0x00000000000000000000000081d48d2c5d0744e8ef7a5c35cdceb0a27a1c707b"
          ],
          "data": "0x00000000000000000000000000000000000000000000000000000000000000020000000000000000000000000000000000000000000000000000000000002710",
          "blockHash": "0x9d6f980ef7cab14e87d24b7da3fe1fc64105a940bb8d777f1ee1fbd955399fe2",
          "blockNumber": "0x2f77034",
          "blockTimestamp": "0x6a460fd5",
          "transactionHash": "0xedfab2bfcc0c83b68631fea2ef7d8e821db7f009dc38520592c83a48cda883f8",
          "transactionIndex": "0xa",
          "logIndex": "0x21",
          "removed": false
        },
        {
          "address": "0x735b2be6a5e20d15885351f0d14f1d02e87555fc",
          "topics": [
            "0x5d55a7ca4b923b36b70eb909992eb2bf005bf58b77d4cfb245faa8cb6b36d884",
            "0x0000000000000000000000000000000000000000000000000000000000000002"
          ],
          "data": "0x000000000000000000000000000000000000000000000000000000000000006000000000000000000000000000000000000000000000000000000000000000a000000000000000000000000000000000000000000000000000000000000027100000000000000000000000000000000000000000000000000000000000000011555320542d42494c4c20323032362d5133000000000000000000000000000000000000000000000000000000000000000000000000000000000000000000000a7472656173757269657300000000000000000000000000000000000000000000",
          "blockHash": "0x9d6f980ef7cab14e87d24b7da3fe1fc64105a940bb8d777f1ee1fbd955399fe2",
          "blockNumber": "0x2f77034",
          "blockTimestamp": "0x6a460fd5",
          "transactionHash": "0xedfab2bfcc0c83b68631fea2ef7d8e821db7f009dc38520592c83a48cda883f8",
          "transactionIndex": "0xa",
          "logIndex": "0x22",
          "removed": false
        }
      ],
      "logsBloom": "0x04020000000000000000000000000000000000000000000000000000000000000000000000000000000000000000000000000000000000000002000000002000000000000000000000000800000000000000000000000000000000000000000000000000020200000000000000000800000000000000000000000000000000000000000000000000000000000000000000000000000000000000000000000000000000000000000000000108000000000000000000000000000000000000000000000000000000000000000000000000000000000009000000000000000020040000000000000000000000000000000000000000008000000240080000000000",
      "type": "0x2",
      "transactionHash": "0xedfab2bfcc0c83b68631fea2ef7d8e821db7f009dc38520592c83a48cda883f8",
      "transactionIndex": "0xa",
      "blockHash": "0x9d6f980ef7cab14e87d24b7da3fe1fc64105a940bb8d777f1ee1fbd955399fe2",
      "blockNumber": "0x2f77034",
      "gasUsed": "0x24e18",
      "effectiveGasPrice": "0x4e3b29200",
      "from": "0x81d48d2c5d0744e8ef7a5c35cdceb0a27a1c707b",
      "to": "0x735b2be6a5e20d15885351f0d14f1d02e87555fc",
      "contractAddress": null
    },
    {
      "status": "0x1",
      "cumulativeGasUsed": "0x1918d9",
      "logs": [
        {
          "address": "0x735b2be6a5e20d15885351f0d14f1d02e87555fc",
          "topics": [
            "0xc3d58168c5ae7397731d063d5bbf3d657854427343f4c083240f7aacaa2d0f62",
            "0x00000000000000000000000018f15ad92b3352532da23a31999ce273203d859c",
            "0x00000000000000000000000081d48d2c5d0744e8ef7a5c35cdceb0a27a1c707b",
            "0x00000000000000000000000018f15ad92b3352532da23a31999ce273203d859c"
          ],
          "data": "0x00000000000000000000000000000000000000000000000000000000000000020000000000000000000000000000000000000000000000000000000000001770",
          "blockHash": "0x9d6f980ef7cab14e87d24b7da3fe1fc64105a940bb8d777f1ee1fbd955399fe2",
          "blockNumber": "0x2f77034",
          "blockTimestamp": "0x6a460fd5",
          "transactionHash": "0xaec1eebf395edc5a08608361289f6c69f82ed5a7f6dbcf89c4de2dfca7423eed",
          "transactionIndex": "0xb",
          "logIndex": "0x23",
          "removed": false
        },
        {
          "address": "0x18f15ad92b3352532da23a31999ce273203d859c",
          "topics": [
            "0x32951ff170f53e2a0d7160f9c1da9bafcf35b5003abc23b8b87fee8f1c5d8b25",
            "0x0000000000000000000000000000000000000000000000000000000000000002",
            "0x0000000000000000000000000000000000000000000000000000000000000002"
          ],
          "data": "0x0000000000000000000000000000000000000000000000056bc75e2d631000000000000000000000000000000000000000000000000000000000000000001770",
          "blockHash": "0x9d6f980ef7cab14e87d24b7da3fe1fc64105a940bb8d777f1ee1fbd955399fe2",
          "blockNumber": "0x2f77034",
          "blockTimestamp": "0x6a460fd5",
          "transactionHash": "0xaec1eebf395edc5a08608361289f6c69f82ed5a7f6dbcf89c4de2dfca7423eed",
          "transactionIndex": "0xb",
          "logIndex": "0x24",
          "removed": false
        }
      ],
      "logsBloom": "0x04000000000000000000000000000000000000000000000000000000000000000000000000000000000000000000000000000000000001000002000000003000000000000100000000000800002000000000000000000000000000000000000000000000000000000000000100000000000000000000000000000000000000000000000000000000000000000000000000000000000000000000000000000000000000000000000000000100000000000000000000000000000000000000000000000000000000000000000000000000000000000009000001000800000000040080000000000000000000020000000000000000008000000240080000000000",
      "type": "0x2",
      "transactionHash": "0xaec1eebf395edc5a08608361289f6c69f82ed5a7f6dbcf89c4de2dfca7423eed",
      "transactionIndex": "0xb",
      "blockHash": "0x9d6f980ef7cab14e87d24b7da3fe1fc64105a940bb8d777f1ee1fbd955399fe2",
      "blockNumber": "0x2f77034",
      "gasUsed": "0x26f2a",
      "effectiveGasPrice": "0x4e3b29200",
      "from": "0x81d48d2c5d0744e8ef7a5c35cdceb0a27a1c707b",
      "to": "0x18f15ad92b3352532da23a31999ce273203d859c",
      "contractAddress": null
    },
    {
      "status": "0x1",
      "cumulativeGasUsed": "0x1b66a9",
      "logs": [
        {
          "address": "0x735b2be6a5e20d15885351f0d14f1d02e87555fc",
          "topics": [
            "0xc3d58168c5ae7397731d063d5bbf3d657854427343f4c083240f7aacaa2d0f62",
            "0x00000000000000000000000081d48d2c5d0744e8ef7a5c35cdceb0a27a1c707b",
            "0x0000000000000000000000000000000000000000000000000000000000000000",
            "0x00000000000000000000000081d48d2c5d0744e8ef7a5c35cdceb0a27a1c707b"
          ],
          "data": "0x000000000000000000000000000000000000000000000000000000000000000300000000000000000000000000000000000000000000000000000000000001f4",
          "blockHash": "0x9d6f980ef7cab14e87d24b7da3fe1fc64105a940bb8d777f1ee1fbd955399fe2",
          "blockNumber": "0x2f77034",
          "blockTimestamp": "0x6a460fd5",
          "transactionHash": "0x58bc8e54ab1426e5050d1ffe3a2d1d2c943563b9aea6ec695938d98d12660df5",
          "transactionIndex": "0xc",
          "logIndex": "0x25",
          "removed": false
        },
        {
          "address": "0x735b2be6a5e20d15885351f0d14f1d02e87555fc",
          "topics": [
            "0x5d55a7ca4b923b36b70eb909992eb2bf005bf58b77d4cfb245faa8cb6b36d884",
            "0x0000000000000000000000000000000000000000000000000000000000000003"
          ],
          "data": "0x000000000000000000000000000000000000000000000000000000000000006000000000000000000000000000000000000000000000000000000000000000a000000000000000000000000000000000000000000000000000000000000001f40000000000000000000000000000000000000000000000000000000000000013474f4c44204f554e4345205641554c54202334000000000000000000000000000000000000000000000000000000000000000000000000000000000000000004676f6c6400000000000000000000000000000000000000000000000000000000",
          "blockHash": "0x9d6f980ef7cab14e87d24b7da3fe1fc64105a940bb8d777f1ee1fbd955399fe2",
          "blockNumber": "0x2f77034",
          "blockTimestamp": "0x6a460fd5",
          "transactionHash": "0x58bc8e54ab1426e5050d1ffe3a2d1d2c943563b9aea6ec695938d98d12660df5",
          "transactionIndex": "0xc",
          "logIndex": "0x26",
          "removed": false
        }
      ],
      "logsBloom": "0x00020000000000000000000000000000000000000000000000000000000000000000000000000000000000000000000000000000020000000002000000002000000000000000000000000800000000000000000000000000000000000000000000000000020200000000000000000800000000000000000000000000000000000000000000000000000000000000000000000000000000000000000000000000000000000000000000000008000000000000000000800000000000000000400000000000000000000000000000000000000000000009000000000000000020040000000000000000000000000000000000000000000000000240080000000000",
      "type": "0x2",
      "transactionHash": "0x58bc8e54ab1426e5050d1ffe3a2d1d2c943563b9aea6ec695938d98d12660df5",
      "transactionIndex": "0xc",
      "blockHash": "0x9d6f980ef7cab14e87d24b7da3fe1fc64105a940bb8d777f1ee1fbd955399fe2",
      "blockNumber": "0x2f77034",
      "gasUsed": "0x24dd0",
      "effectiveGasPrice": "0x4e3b29200",
      "from": "0x81d48d2c5d0744e8ef7a5c35cdceb0a27a1c707b",
      "to": "0x735b2be6a5e20d15885351f0d14f1d02e87555fc",
      "contractAddress": null
    },
    {
      "status": "0x1",
      "cumulativeGasUsed": "0x1dd5d3",
      "logs": [
        {
          "address": "0x735b2be6a5e20d15885351f0d14f1d02e87555fc",
          "topics": [
            "0xc3d58168c5ae7397731d063d5bbf3d657854427343f4c083240f7aacaa2d0f62",
            "0x00000000000000000000000018f15ad92b3352532da23a31999ce273203d859c",
            "0x00000000000000000000000081d48d2c5d0744e8ef7a5c35cdceb0a27a1c707b",
            "0x00000000000000000000000018f15ad92b3352532da23a31999ce273203d859c"
          ],
          "data": "0x0000000000000000000000000000000000000000000000000000000000000003000000000000000000000000000000000000000000000000000000000000012c",
          "blockHash": "0x9d6f980ef7cab14e87d24b7da3fe1fc64105a940bb8d777f1ee1fbd955399fe2",
          "blockNumber": "0x2f77034",
          "blockTimestamp": "0x6a460fd5",
          "transactionHash": "0xcf5a5cd8b1f922eaef3734a0251bfae891678d137ed1737d02a3545ef3764ae9",
          "transactionIndex": "0xd",
          "logIndex": "0x27",
          "removed": false
        },
        {
          "address": "0x18f15ad92b3352532da23a31999ce273203d859c",
          "topics": [
            "0x32951ff170f53e2a0d7160f9c1da9bafcf35b5003abc23b8b87fee8f1c5d8b25",
            "0x0000000000000000000000000000000000000000000000000000000000000003",
            "0x0000000000000000000000000000000000000000000000000000000000000003"
          ],
          "data": "0x0000000000000000000000000000000000000000000000014a4a95e6f64c0000000000000000000000000000000000000000000000000000000000000000012c",
          "blockHash": "0x9d6f980ef7cab14e87d24b7da3fe1fc64105a940bb8d777f1ee1fbd955399fe2",
          "blockNumber": "0x2f77034",
          "blockTimestamp": "0x6a460fd5",
          "transactionHash": "0xcf5a5cd8b1f922eaef3734a0251bfae891678d137ed1737d02a3545ef3764ae9",
          "transactionIndex": "0xd",
          "logIndex": "0x28",
          "removed": false
        }
      ],
      "logsBloom": "0x00000000000000000000000000000000000000000000000000000000000000000000000000000000000000000000000000000000020001000002000000003000000000000100000000000800002000000000000000000000000000000000000000000000000000000000000100000000000000000000000000000000000000000000000000000000000000000000000000000000000000000000000000000000000000000000000000000000000000000000000000800000000000000000400000000000000000000000000000000000000000000009000001000800000000040080000000000000000000020000000000000000000000000240080000000000",
      "type": "0x2",
      "transactionHash": "0xcf5a5cd8b1f922eaef3734a0251bfae891678d137ed1737d02a3545ef3764ae9",
      "transactionIndex": "0xd",
      "blockHash": "0x9d6f980ef7cab14e87d24b7da3fe1fc64105a940bb8d777f1ee1fbd955399fe2",
      "blockNumber": "0x2f77034",
      "gasUsed": "0x26f2a",
      "effectiveGasPrice": "0x4e3b29200",
      "from": "0x81d48d2c5d0744e8ef7a5c35cdceb0a27a1c707b",
      "to": "0x18f15ad92b3352532da23a31999ce273203d859c",
      "contractAddress": null
    },
    {
      "status": "0x1",
      "cumulativeGasUsed": "0x207b1a",
      "logs": [
        {
          "address": "0x735b2be6a5e20d15885351f0d14f1d02e87555fc",
          "topics": [
            "0xc3d58168c5ae7397731d063d5bbf3d657854427343f4c083240f7aacaa2d0f62",
            "0x00000000000000000000000081d48d2c5d0744e8ef7a5c35cdceb0a27a1c707b",
            "0x0000000000000000000000000000000000000000000000000000000000000000",
            "0x00000000000000000000000081d48d2c5d0744e8ef7a5c35cdceb0a27a1c707b"
          ],
          "data": "0x000000000000000000000000000000000000000000000000000000000000000400000000000000000000000000000000000000000000000000000000000007d0",
          "blockHash": "0x9d6f980ef7cab14e87d24b7da3fe1fc64105a940bb8d777f1ee1fbd955399fe2",
          "blockNumber": "0x2f77034",
          "blockTimestamp": "0x6a460fd5",
          "transactionHash": "0x8a279050cf947313c1a4771cce9fbd0f81da1317b50997571b9363521d6f024f",
          "transactionIndex": "0xe",
          "logIndex": "0x29",
          "removed": false
        },
        {
          "address": "0x735b2be6a5e20d15885351f0d14f1d02e87555fc",
          "topics": [
            "0x5d55a7ca4b923b36b70eb909992eb2bf005bf58b77d4cfb245faa8cb6b36d884",
            "0x0000000000000000000000000000000000000000000000000000000000000004"
          ],
          "data": "0x000000000000000000000000000000000000000000000000000000000000006000000000000000000000000000000000000000000000000000000000000000a000000000000000000000000000000000000000000000000000000000000007d000000000000000000000000000000000000000000000000000000000000000154d4152494e4120544f57455220554e4954203132460000000000000000000000000000000000000000000000000000000000000000000000000000000000000b7265616c2d657374617465000000000000000000000000000000000000000000",
          "blockHash": "0x9d6f980ef7cab14e87d24b7da3fe1fc64105a940bb8d777f1ee1fbd955399fe2",
          "blockNumber": "0x2f77034",
          "blockTimestamp": "0x6a460fd5",
          "transactionHash": "0x8a279050cf947313c1a4771cce9fbd0f81da1317b50997571b9363521d6f024f",
          "transactionIndex": "0xe",
          "logIndex": "0x2a",
          "removed": false
        }
      ],
      "logsBloom": "0x00020000000000000000000000000000000000000000000000000000000000000000000000000000000000000000000000000000000000000002000000002000000000000000000000000800000000000000000000000000000000000000000008000000020200000000000000000800000000000000000000000000000000000000000000000000000000000000000000000000000000000000000000000000000000000000000000000008000000000000000000000000002000000000000000000000000000000000000000000000000000008009000000000000000020040000000000000000000000000000000000000000000000000240080000000000",
      "type": "0x2",
      "transactionHash": "0x8a279050cf947313c1a4771cce9fbd0f81da1317b50997571b9363521d6f024f",
      "transactionIndex": "0xe",
      "blockHash": "0x9d6f980ef7cab14e87d24b7da3fe1fc64105a940bb8d777f1ee1fbd955399fe2",
      "blockNumber": "0x2f77034",
      "gasUsed": "0x2a547",
      "effectiveGasPrice": "0x4e3b29200",
      "from": "0x81d48d2c5d0744e8ef7a5c35cdceb0a27a1c707b",
      "to": "0x735b2be6a5e20d15885351f0d14f1d02e87555fc",
      "contractAddress": null
    },
    {
      "status": "0x1",
      "cumulativeGasUsed": "0x22ea44",
      "logs": [
        {
          "address": "0x735b2be6a5e20d15885351f0d14f1d02e87555fc",
          "topics": [
            "0xc3d58168c5ae7397731d063d5bbf3d657854427343f4c083240f7aacaa2d0f62",
            "0x00000000000000000000000018f15ad92b3352532da23a31999ce273203d859c",
            "0x00000000000000000000000081d48d2c5d0744e8ef7a5c35cdceb0a27a1c707b",
            "0x00000000000000000000000018f15ad92b3352532da23a31999ce273203d859c"
          ],
          "data": "0x000000000000000000000000000000000000000000000000000000000000000400000000000000000000000000000000000000000000000000000000000004b0",
          "blockHash": "0x9d6f980ef7cab14e87d24b7da3fe1fc64105a940bb8d777f1ee1fbd955399fe2",
          "blockNumber": "0x2f77034",
          "blockTimestamp": "0x6a460fd5",
          "transactionHash": "0x30654b7e1c5b9866b41d43a5425f67f82ab38693a91c1f06a3bf29fcef7ccea6",
          "transactionIndex": "0xf",
          "logIndex": "0x2b",
          "removed": false
        },
        {
          "address": "0x18f15ad92b3352532da23a31999ce273203d859c",
          "topics": [
            "0x32951ff170f53e2a0d7160f9c1da9bafcf35b5003abc23b8b87fee8f1c5d8b25",
            "0x0000000000000000000000000000000000000000000000000000000000000004",
            "0x0000000000000000000000000000000000000000000000000000000000000004"
          ],
          "data": "0x00000000000000000000000000000000000000000000000302379bf2ca2e000000000000000000000000000000000000000000000000000000000000000004b0",
          "blockHash": "0x9d6f980ef7cab14e87d24b7da3fe1fc64105a940bb8d777f1ee1fbd955399fe2",
          "blockNumber": "0x2f77034",
          "blockTimestamp": "0x6a460fd5",
          "transactionHash": "0x30654b7e1c5b9866b41d43a5425f67f82ab38693a91c1f06a3bf29fcef7ccea6",
          "transactionIndex": "0xf",
          "logIndex": "0x2c",
          "removed": false
        }
      ],
      "logsBloom": "0x00000000000000000000000000000000000000000000000000000000000000000000000000000000000000000000000000000000000001000002000000003000000000000100000000000800002000000000000000000000000000000000000008000000000000000000000100000000000000000000000000000000000000000000000000000000000000000000000000000000000000000000000000000000000000000000000000000000000000000000000000000000002000000000000000000000000000000000000000000000000000008009000001000800000000040080000000000000000000020000000000000000000000000240080000000000",
      "type": "0x2",
      "transactionHash": "0x30654b7e1c5b9866b41d43a5425f67f82ab38693a91c1f06a3bf29fcef7ccea6",
      "transactionIndex": "0xf",
      "blockHash": "0x9d6f980ef7cab14e87d24b7da3fe1fc64105a940bb8d777f1ee1fbd955399fe2",
      "blockNumber": "0x2f77034",
      "gasUsed": "0x26f2a",
      "effectiveGasPrice": "0x4e3b29200",
      "from": "0x81d48d2c5d0744e8ef7a5c35cdceb0a27a1c707b",
      "to": "0x18f15ad92b3352532da23a31999ce273203d859c",
      "contractAddress": null
    },
    {
      "status": "0x1",
      "cumulativeGasUsed": "0x253838",
      "logs": [
        {
          "address": "0x735b2be6a5e20d15885351f0d14f1d02e87555fc",
          "topics": [
            "0xc3d58168c5ae7397731d063d5bbf3d657854427343f4c083240f7aacaa2d0f62",
            "0x00000000000000000000000081d48d2c5d0744e8ef7a5c35cdceb0a27a1c707b",
            "0x0000000000000000000000000000000000000000000000000000000000000000",
            "0x00000000000000000000000081d48d2c5d0744e8ef7a5c35cdceb0a27a1c707b"
          ],
          "data": "0x00000000000000000000000000000000000000000000000000000000000000050000000000000000000000000000000000000000000000000000000000001f40",
          "blockHash": "0x9d6f980ef7cab14e87d24b7da3fe1fc64105a940bb8d777f1ee1fbd955399fe2",
          "blockNumber": "0x2f77034",
          "blockTimestamp": "0x6a460fd5",
          "transactionHash": "0xb7bb3fb2931ae7bf9e8de13ee24a9f45f2cc4707726413c0629c2fd1f48c7eda",
          "transactionIndex": "0x10",
          "logIndex": "0x2d",
          "removed": false
        },
        {
          "address": "0x735b2be6a5e20d15885351f0d14f1d02e87555fc",
          "topics": [
            "0x5d55a7ca4b923b36b70eb909992eb2bf005bf58b77d4cfb245faa8cb6b36d884",
            "0x0000000000000000000000000000000000000000000000000000000000000005"
          ],
          "data": "0x000000000000000000000000000000000000000000000000000000000000006000000000000000000000000000000000000000000000000000000000000000a00000000000000000000000000000000000000000000000000000000000001f400000000000000000000000000000000000000000000000000000000000000012564552524120434152424f4e204c4f542d3900000000000000000000000000000000000000000000000000000000000000000000000000000000000000000006636172626f6e0000000000000000000000000000000000000000000000000000",
          "blockHash": "0x9d6f980ef7cab14e87d24b7da3fe1fc64105a940bb8d777f1ee1fbd955399fe2",
          "blockNumber": "0x2f77034",
          "blockTimestamp": "0x6a460fd5",
          "transactionHash": "0xb7bb3fb2931ae7bf9e8de13ee24a9f45f2cc4707726413c0629c2fd1f48c7eda",
          "transactionIndex": "0x10",
          "logIndex": "0x2e",
          "removed": false
        }
      ],
      "logsBloom": "0x00020000000000000000000000000000000000000000000000000000000000000000000000000000000000000000000000000000000000000002000000002000000010000000000000000800000000000000000000000000000000000000000000000000020200000000000000000800000000000000000000000000000000000000000000000000000000000000001000000800000000000000000000000000000000000000000000000008000000000000000000000000000000000000000000000000000000000000000000000000000000000009000000000000000020040000000000000000000000000000000000000000000000000240080000000000",
      "type": "0x2",
      "transactionHash": "0xb7bb3fb2931ae7bf9e8de13ee24a9f45f2cc4707726413c0629c2fd1f48c7eda",
      "transactionIndex": "0x10",
      "blockHash": "0x9d6f980ef7cab14e87d24b7da3fe1fc64105a940bb8d777f1ee1fbd955399fe2",
      "blockNumber": "0x2f77034",
      "gasUsed": "0x24df4",
      "effectiveGasPrice": "0x4e3b29200",
      "from": "0x81d48d2c5d0744e8ef7a5c35cdceb0a27a1c707b",
      "to": "0x735b2be6a5e20d15885351f0d14f1d02e87555fc",
      "contractAddress": null
    },
    {
      "status": "0x1",
      "cumulativeGasUsed": "0x27a756",
      "logs": [
        {
          "address": "0x735b2be6a5e20d15885351f0d14f1d02e87555fc",
          "topics": [
            "0xc3d58168c5ae7397731d063d5bbf3d657854427343f4c083240f7aacaa2d0f62",
            "0x00000000000000000000000018f15ad92b3352532da23a31999ce273203d859c",
            "0x00000000000000000000000081d48d2c5d0744e8ef7a5c35cdceb0a27a1c707b",
            "0x00000000000000000000000018f15ad92b3352532da23a31999ce273203d859c"
          ],
          "data": "0x000000000000000000000000000000000000000000000000000000000000000500000000000000000000000000000000000000000000000000000000000012c0",
          "blockHash": "0x9d6f980ef7cab14e87d24b7da3fe1fc64105a940bb8d777f1ee1fbd955399fe2",
          "blockNumber": "0x2f77034",
          "blockTimestamp": "0x6a460fd5",
          "transactionHash": "0x2ea687e98658cebfadf5902125dfc8fd34309899e5c9490010cc0acb068268d8",
          "transactionIndex": "0x11",
          "logIndex": "0x2f",
          "removed": false
        },
        {
          "address": "0x18f15ad92b3352532da23a31999ce273203d859c",
          "topics": [
            "0x32951ff170f53e2a0d7160f9c1da9bafcf35b5003abc23b8b87fee8f1c5d8b25",
            "0x0000000000000000000000000000000000000000000000000000000000000005",
            "0x0000000000000000000000000000000000000000000000000000000000000005"
          ],
          "data": "0x00000000000000000000000000000000000000000000000019ac8532c279000000000000000000000000000000000000000000000000000000000000000012c0",
          "blockHash": "0x9d6f980ef7cab14e87d24b7da3fe1fc64105a940bb8d777f1ee1fbd955399fe2",
          "blockNumber": "0x2f77034",
          "blockTimestamp": "0x6a460fd5",
          "transactionHash": "0x2ea687e98658cebfadf5902125dfc8fd34309899e5c9490010cc0acb068268d8",
          "transactionIndex": "0x11",
          "logIndex": "0x30",
          "removed": false
        }
      ],
      "logsBloom": "0x00000000000000000000000000000000000000000000000000000000000000000000000000000000000000000000000000000000000001000002000000003000000010000100000000000800002000000000000000000000000000000000000000000000000000000000000100000000000000000000000000000000000000000000000000000000000000000000001000000800000000000000000000000000000000000000000000000000000000000000000000000000000000000000000000000000000000000000000000000000000000000009000001000800000000040080000000000000000000020000000000000000000000000240080000000000",
      "type": "0x2",
      "transactionHash": "0x2ea687e98658cebfadf5902125dfc8fd34309899e5c9490010cc0acb068268d8",
      "transactionIndex": "0x11",
      "blockHash": "0x9d6f980ef7cab14e87d24b7da3fe1fc64105a940bb8d777f1ee1fbd955399fe2",
      "blockNumber": "0x2f77034",
      "gasUsed": "0x26f1e",
      "effectiveGasPrice": "0x4e3b29200",
      "from": "0x81d48d2c5d0744e8ef7a5c35cdceb0a27a1c707b",
      "to": "0x18f15ad92b3352532da23a31999ce273203d859c",
      "contractAddress": null
    }
  ],
  "libraries": [],
  "pending": [],
  "returns": {},
  "timestamp": 1782976471281,
  "chain": 5042002,
  "commit": "fae10f5"
}