{
  "transactions": [
    {
      "hash": "0x80330c5cbebd1102b3cdcbe60a366e0fe0597510df52139f7f974c4f5ef8a985",
      "transactionType": "CALL",
      "contractName": null,
      "contractAddress": "0x4d82b6e528d3c2e1a3592e14863ec95eaef4ff85",
      "function": "createAsset(string,string,uint256,string)",
      "arguments": [
        "US T-BILL 2026-Q3",
        "treasuries",
        "10000",
        "hadron://assets/t-bill-2026-q3"
      ],
      "transaction": {
        "from": "0x81d48d2c5d0744e8ef7a5c35cdceb0a27a1c707b",
        "to": "0x4d82b6e528d3c2e1a3592e14863ec95eaef4ff85",
        "gas": "0x38b54",
        "value": "0x0",
        "input": "0x596abcf6000000000000000000000000000000000000000000000000000000000000008000000000000000000000000000000000000000000000000000000000000000c0000000000000000000000000000000000000000000000000000000000000271000000000000000000000000000000000000000000000000000000000000001000000000000000000000000000000000000000000000000000000000000000011555320542d42494c4c20323032362d5133000000000000000000000000000000000000000000000000000000000000000000000000000000000000000000000a7472656173757269657300000000000000000000000000000000000000000000000000000000000000000000000000000000000000000000000000000000001e686164726f6e3a2f2f6173736574732f742d62696c6c2d323032362d71330000",
        "nonce": "0x18e",
        "chainId": "0x4cef52"
      },
      "additionalContracts": [],
      "isFixedGasLimit": false
    },
    {
      "hash": "0x9cd01ad326d5ef086572d3d81bf8f67a0df136f4fd499e724bcb9d9038373cc4",
      "transactionType": "CALL",
      "contractName": null,
      "contractAddress": "0x4d82b6e528d3c2e1a3592e14863ec95eaef4ff85",
      "function": "setApprovalForAll(address,bool)",
      "arguments": [
        "0x962aba0A590981cf9c5B336aC34922c82f203165",
        "true"
      ],
      "transaction": {
        "from": "0x81d48d2c5d0744e8ef7a5c35cdceb0a27a1c707b",
        "to": "0x4d82b6e528d3c2e1a3592e14863ec95eaef4ff85",
        "gas": "0xf950",
        "value": "0x0",
        "input": "0xa22cb465000000000000000000000000962aba0a590981cf9c5b336ac34922c82f2031650000000000000000000000000000000000000000000000000000000000000001",
        "nonce": "0x18f",
        "chainId": "0x4cef52"
      },
      "additionalContracts": [],
      "isFixedGasLimit": false
    },
    {
      "hash": "0xb30cb21920f69c3b52c9e146c4ac269dc0d5c26ead72880164b7e4f7520b9b05",
      "transactionType": "CALL",
      "contractName": null,
      "contractAddress": "0x962aba0a590981cf9c5b336ac34922c82f203165",
      "function": "createPrimaryOffering(uint256,uint256,uint256)",
      "arguments": [
        "1",
        "100000000000000000000",
        "6000"
      ],
      "transaction": {
        "from": "0x81d48d2c5d0744e8ef7a5c35cdceb0a27a1c707b",
        "to": "0x962aba0a590981cf9c5b336ac34922c82f203165",
        "gas": "0x3b94e",
        "value": "0x0",
        "input": "0x9f4ab02300000000000000000000000000000000000000000000000000000000000000010000000000000000000000000000000000000000000000056bc75e2d631000000000000000000000000000000000000000000000000000000000000000001770",
        "nonce": "0x190",
        "chainId": "0x4cef52"
      },
      "additionalContracts": [],
      "isFixedGasLimit": false
    },
    {
      "hash": "0x85984fe0503df389cb732db81495bd76439f4d0ba927b6c4f41599aded22b31b",
      "transactionType": "CALL",
      "contractName": null,
      "contractAddress": "0x4d82b6e528d3c2e1a3592e14863ec95eaef4ff85",
      "function": "createAsset(string,string,uint256,string)",
      "arguments": [
        "GOLD OUNCE VAULT #4",
        "gold",
        "500",
        "hadron://assets/gold-ounce-4"
      ],
      "transaction": {
        "from": "0x81d48d2c5d0744e8ef7a5c35cdceb0a27a1c707b",
        "to": "0x4d82b6e528d3c2e1a3592e14863ec95eaef4ff85",
        "gas": "0x32ead",
        "value": "0x0",
        "input": "0x596abcf6000000000000000000000000000000000000000000000000000000000000008000000000000000000000000000000000000000000000000000000000000000c000000000000000000000000000000000000000000000000000000000000001f400000000000000000000000000000000000000000000000000000000000001000000000000000000000000000000000000000000000000000000000000000013474f4c44204f554e4345205641554c54202334000000000000000000000000000000000000000000000000000000000000000000000000000000000000000004676f6c6400000000000000000000000000000000000000000000000000000000000000000000000000000000000000000000000000000000000000000000001c686164726f6e3a2f2f6173736574732f676f6c642d6f756e63652d3400000000",
        "nonce": "0x191",
        "chainId": "0x4cef52"
      },
      "additionalContracts": [],
      "isFixedGasLimit": false
    },
    {
      "hash": "0x843c348240ca5aea67eb9200d7faae48f85b0ad5d731248f4fa77d509a98d7c7",
      "transactionType": "CALL",
      "contractName": null,
      "contractAddress": "0x962aba0a590981cf9c5b336ac34922c82f203165",
      "function": "createPrimaryOffering(uint256,uint256,uint256)",
      "arguments": [
        "2",
        "23800000000000000000",
        "300"
      ],
      "transaction": {
        "from": "0x81d48d2c5d0744e8ef7a5c35cdceb0a27a1c707b",
        "to": "0x962aba0a590981cf9c5b336ac34922c82f203165",
        "gas": "0x38fb2",
        "value": "0x0",
        "input": "0x9f4ab02300000000000000000000000000000000000000000000000000000000000000020000000000000000000000000000000000000000000000014a4a95e6f64c0000000000000000000000000000000000000000000000000000000000000000012c",
        "nonce": "0x192",
        "chainId": "0x4cef52"
      },
      "additionalContracts": [],
      "isFixedGasLimit": false
    },
    {
      "hash": "0xe3478d700ef1615e7965e8721ea9985fe02aee55927137172b18b686fd6c3974",
      "transactionType": "CALL",
      "contractName": null,
      "contractAddress": "0x4d82b6e528d3c2e1a3592e14863ec95eaef4ff85",
      "function": "createAsset(string,string,uint256,string)",
      "arguments": [
        "MARINA TOWER UNIT 12F",
        "real-estate",
        "2000",
        "hadron://assets/marina-tower-12f"
      ],
      "transaction": {
        "from": "0x81d48d2c5d0744e8ef7a5c35cdceb0a27a1c707b",
        "to": "0x4d82b6e528d3c2e1a3592e14863ec95eaef4ff85",
        "gas": "0x3a77c",
        "value": "0x0",
        "input": "0x596abcf6000000000000000000000000000000000000000000000000000000000000008000000000000000000000000000000000000000000000000000000000000000c000000000000000000000000000000000000000000000000000000000000007d0000000000000000000000000000000000000000000000000000000000000010000000000000000000000000000000000000000000000000000000000000000154d4152494e4120544f57455220554e4954203132460000000000000000000000000000000000000000000000000000000000000000000000000000000000000b7265616c2d6573746174650000000000000000000000000000000000000000000000000000000000000000000000000000000000000000000000000000000020686164726f6e3a2f2f6173736574732f6d6172696e612d746f7765722d313266",
        "nonce": "0x193",
        "chainId": "0x4cef52"
      },
      "additionalContracts": [],
      "isFixedGasLimit": false
    },
    {
      "hash": "0xc0d1eefa1be1a729336a327ed977211d841c5877955c11893f699405f22443ee",
      "transactionType": "CALL",
      "contractName": null,
      "contractAddress": "0x962aba0a590981cf9c5b336ac34922c82f203165",
      "function": "createPrimaryOffering(uint256,uint256,uint256)",
      "arguments": [
        "3",
        "55500000000000000000",
        "1200"
      ],
      "transaction": {
        "from": "0x81d48d2c5d0744e8ef7a5c35cdceb0a27a1c707b",
        "to": "0x962aba0a590981cf9c5b336ac34922c82f203165",
        "gas": "0x38fb2",
        "value": "0x0",
        "input": "0x9f4ab023000000000000000000000000000000000000000000000000000000000000000300000000000000000000000000000000000000000000000302379bf2ca2e000000000000000000000000000000000000000000000000000000000000000004b0",
        "nonce": "0x194",
        "chainId": "0x4cef52"
      },
      "additionalContracts": [],
      "isFixedGasLimit": false
    },
    {
      "hash": "0x9e143d9fabaf6d2b734f5bdd67d6aef64a24d8e70326f2fe5540c3ba2f5261df",
      "transactionType": "CALL",
      "contractName": null,
      "contractAddress": "0x4d82b6e528d3c2e1a3592e14863ec95eaef4ff85",
      "function": "createAsset(string,string,uint256,string)",
      "arguments": [
        "VERRA CARBON LOT-9",
        "carbon",
        "8000",
        "hadron://assets/verra-carbon-9"
      ],
      "transaction": {
        "from": "0x81d48d2c5d0744e8ef7a5c35cdceb0a27a1c707b",
        "to": "0x4d82b6e528d3c2e1a3592e14863ec95eaef4ff85",
        "gas": "0x32edf",
        "value": "0x0",
        "input": "0x596abcf6000000000000000000000000000000000000000000000000000000000000008000000000000000000000000000000000000000000000000000000000000000c00000000000000000000000000000000000000000000000000000000000001f4000000000000000000000000000000000000000000000000000000000000001000000000000000000000000000000000000000000000000000000000000000012564552524120434152424f4e204c4f542d3900000000000000000000000000000000000000000000000000000000000000000000000000000000000000000006636172626f6e0000000000000000000000000000000000000000000000000000000000000000000000000000000000000000000000000000000000000000001e686164726f6e3a2f2f6173736574732f76657272612d636172626f6e2d390000",
        "nonce": "0x195",
        "chainId": "0x4cef52"
      },
      "additionalContracts": [],
      "isFixedGasLimit": false
    },
    {
      "hash": "0xb9778aca324f318ac498582a85fff88c542f444c5805a0bcaffbbf44f63f2ce0",
      "transactionType": "CALL",
      "contractName": null,
      "contractAddress": "0x962aba0a590981cf9c5b336ac34922c82f203165",
      "function": "createPrimaryOffering(uint256,uint256,uint256)",
      "arguments": [
        "4",
        "1850000000000000000",
        "4800"
      ],
      "transaction": {
        "from": "0x81d48d2c5d0744e8ef7a5c35cdceb0a27a1c707b",
        "to": "0x962aba0a590981cf9c5b336ac34922c82f203165",
        "gas": "0x35cfb",
        "value": "0x0",
        "input": "0x9f4ab023000000000000000000000000000000000000000000000000000000000000000400000000000000000000000000000000000000000000000019ac8532c279000000000000000000000000000000000000000000000000000000000000000012c0",
        "nonce": "0x196",
        "chainId": "0x4cef52"
      },
      "additionalContracts": [],
      "isFixedGasLimit": false
    }
  ],
  "receipts": [
    {
      "status": "0x1",
      "cumulativeGasUsed": "0x120dfd",
      "logs": [
        {
          "address": "0x4d82b6e528d3c2e1a3592e14863ec95eaef4ff85",
          "topics": [
            "0xc3d58168c5ae7397731d063d5bbf3d657854427343f4c083240f7aacaa2d0f62",
            "0x00000000000000000000000081d48d2c5d0744e8ef7a5c35cdceb0a27a1c707b",
            "0x0000000000000000000000000000000000000000000000000000000000000000",
            "0x00000000000000000000000081d48d2c5d0744e8ef7a5c35cdceb0a27a1c707b"
          ],
          "data": "0x00000000000000000000000000000000000000000000000000000000000000010000000000000000000000000000000000000000000000000000000000002710",
          "blockHash": "0x15021512d69007d26d6ea68241b9539dc0dcca80adafca52aa107cdffdeacd17",
          "blockNumber": "0x2f77680",
          "blockTimestamp": "0x6a46130f",
          "transactionHash": "0x80330c5cbebd1102b3cdcbe60a366e0fe0597510df52139f7f974c4f5ef8a985",
          "transactionIndex": "0x8",
          "logIndex": "0x15",
          "removed": false
        },
        {
          "address": "0x4d82b6e528d3c2e1a3592e14863ec95eaef4ff85",
          "topics": [
            "0x5d55a7ca4b923b36b70eb909992eb2bf005bf58b77d4cfb245faa8cb6b36d884",
            "0x0000000000000000000000000000000000000000000000000000000000000001"
          ],
          "data": "0x000000000000000000000000000000000000000000000000000000000000006000000000000000000000000000000000000000000000000000000000000000a000000000000000000000000000000000000000000000000000000000000027100000000000000000000000000000000000000000000000000000000000000011555320542d42494c4c20323032362d5133000000000000000000000000000000000000000000000000000000000000000000000000000000000000000000000a7472656173757269657300000000000000000000000000000000000000000000",
          "blockHash": "0x15021512d69007d26d6ea68241b9539dc0dcca80adafca52aa107cdffdeacd17",
          "blockNumber": "0x2f77680",
          "blockTimestamp": "0x6a46130f",
          "transactionHash": "0x80330c5cbebd1102b3cdcbe60a366e0fe0597510df52139f7f974c4f5ef8a985",
          "transactionIndex": "0x8",
          "logIndex": "0x16",
          "removed": false
        }
      ],
      "logsBloom": "0x00020000000000000000000000000000000000000000000000000000000000000000000000000000000000000000000000000000000000000002000000042000000000000000000000000000000000000000000000040000001000000000000000000000020200000000000000200800000000000000000000000000000000000000000000000000000000000000000000000000000000000000000000000000000000000000000000000008000000000000000000000000000000000000000000000000000000000000000000000000000000000009000000000000000060000200000000000000000000000000000000000000000000000200080000000000",
      "type": "0x2",
      "transactionHash": "0x80330c5cbebd1102b3cdcbe60a366e0fe0597510df52139f7f974c4f5ef8a985",
      "transactionIndex": "0x8",
      "blockHash": "0x15021512d69007d26d6ea68241b9539dc0dcca80adafca52aa107cdffdeacd17",
      "blockNumber": "0x2f77680",
      "gasUsed": "0x290e4",
      "effectiveGasPrice": "0x4e3b29200",
      "from": "0x81d48d2c5d0744e8ef7a5c35cdceb0a27a1c707b",
      "to": "0x4d82b6e528d3c2e1a3592e14863ec95eaef4ff85",
      "contractAddress": null
    },
    {
      "status": "0x1",
      "cumulativeGasUsed": "0x12c27d",
      "logs": [
        {
          "address": "0x4d82b6e528d3c2e1a3592e14863ec95eaef4ff85",
          "topics": [
            "0x17307eab39ab6107e8899845ad3d59bd9653f200f220920489ca2b5937696c31",
            "0x00000000000000000000000081d48d2c5d0744e8ef7a5c35cdceb0a27a1c707b",
            "0x000000000000000000000000962aba0a590981cf9c5b336ac34922c82f203165"
          ],
          "data": "0x0000000000000000000000000000000000000000000000000000000000000001",
          "blockHash": "0x15021512d69007d26d6ea68241b9539dc0dcca80adafca52aa107cdffdeacd17",
          "blockNumber": "0x2f77680",
          "blockTimestamp": "0x6a46130f",
          "transactionHash": "0x85984fe0503df389cb732db81495bd76439f4d0ba927b6c4f41599aded22b31b",
          "transactionIndex": "0x9",
          "logIndex": "0x17",
          "removed": false
        }
      ],
      "logsBloom": "0x00000000000000000000000000000000000000000000000000000000000000000000000000000000000000000000000000000000000000000002000000000000000000000000000000000000000000000000000000000000001000000000000002000000000000000000000000200000000000000000000000000000000000000000000000000000000000000000000000000000000000000000000000000000000000000000000000000000000000000001000000000000000000000000000000000000000000000000000000000000000000000001000000000000400000000600200800000000000000000000000000000000000000000200000000000000",
      "type": "0x2",
      "transactionHash": "0x85984fe0503df389cb732db81495bd76439f4d0ba927b6c4f41599aded22b31b",
      "transactionIndex": "0x9",
      "blockHash": "0x15021512d69007d26d6ea68241b9539dc0dcca80adafca52aa107cdffdeacd17",
      "blockNumber": "0x2f77680",
      "gasUsed": "0xb480",
      "effectiveGasPrice": "0x4e3b29200",
      "from": "0x81d48d2c5d0744e8ef7a5c35cdceb0a27a1c707b",
      "to": "0x4d82b6e528d3c2e1a3592e14863ec95eaef4ff85",
      "contractAddress": null
    },
    {
      "status": "0x1",
      "cumulativeGasUsed": "0x1574ab",
      "logs": [
        {
          "address": "0x4d82b6e528d3c2e1a3592e14863ec95eaef4ff85",
          "topics": [
            "0xc3d58168c5ae7397731d063d5bbf3d657854427343f4c083240f7aacaa2d0f62",
            "0x000000000000000000000000962aba0a590981cf9c5b336ac34922c82f203165",
            "0x00000000000000000000000081d48d2c5d0744e8ef7a5c35cdceb0a27a1c707b",
            "0x000000000000000000000000962aba0a590981cf9c5b336ac34922c82f203165"
          ],
          "data": "0x00000000000000000000000000000000000000000000000000000000000000010000000000000000000000000000000000000000000000000000000000001770",
          "blockHash": "0x15021512d69007d26d6ea68241b9539dc0dcca80adafca52aa107cdffdeacd17",
          "blockNumber": "0x2f77680",
          "blockTimestamp": "0x6a46130f",
          "transactionHash": "0xb30cb21920f69c3b52c9e146c4ac269dc0d5c26ead72880164b7e4f7520b9b05",
          "transactionIndex": "0xa",
          "logIndex": "0x18",
          "removed": false
        },
        {
          "address": "0x962aba0a590981cf9c5b336ac34922c82f203165",
          "topics": [
            "0x32951ff170f53e2a0d7160f9c1da9bafcf35b5003abc23b8b87fee8f1c5d8b25",
            "0x0000000000000000000000000000000000000000000000000000000000000001",
            "0x0000000000000000000000000000000000000000000000000000000000000001"
          ],
          "data": "0x0000000000000000000000000000000000000000000000056bc75e2d631000000000000000000000000000000000000000000000000000000000000000001770",
          "blockHash": "0x15021512d69007d26d6ea68241b9539dc0dcca80adafca52aa107cdffdeacd17",
          "blockNumber": "0x2f77680",
          "blockTimestamp": "0x6a46130f",
          "transactionHash": "0xb30cb21920f69c3b52c9e146c4ac269dc0d5c26ead72880164b7e4f7520b9b05",
          "transactionIndex": "0xa",
          "logIndex": "0x19",
          "removed": false
        }
      ],
      "logsBloom": "0x00000000400000000000000000000000000000000000000000000000000000000000000000000000000000000000000000000000000000000002000000043000000000000000000000000000000000000000000000040000001000000004000000000000000000010000000000200000000000000000000000000000000000000000000000000000000000000000000000000000000000000000000000000000000000000000000000000000000000000001000000000000000000000000000000000000000000000000000000000000000000000009000000000800400040000680000000000000000000000000000000000000000000000200080000000000",
      "type": "0x2",
      "transactionHash": "0xb30cb21920f69c3b52c9e146c4ac269dc0d5c26ead72880164b7e4f7520b9b05",
      "transactionIndex": "0xa",
      "blockHash": "0x15021512d69007d26d6ea68241b9539dc0dcca80adafca52aa107cdffdeacd17",
      "blockNumber": "0x2f77680",
      "gasUsed": "0x2b22e",
      "effectiveGasPrice": "0x4e3b29200",
      "from": "0x81d48d2c5d0744e8ef7a5c35cdceb0a27a1c707b",
      "to": "0x962aba0a590981cf9c5b336ac34922c82f203165",
      "contractAddress": null
    },
    {
      "status": "0x1",
      "cumulativeGasUsed": "0x17c27b",
      "logs": [
        {
          "address": "0x4d82b6e528d3c2e1a3592e14863ec95eaef4ff85",
          "topics": [
            "0xc3d58168c5ae7397731d063d5bbf3d657854427343f4c083240f7aacaa2d0f62",
            "0x00000000000000000000000081d48d2c5d0744e8ef7a5c35cdceb0a27a1c707b",
            "0x0000000000000000000000000000000000000000000000000000000000000000",
            "0x00000000000000000000000081d48d2c5d0744e8ef7a5c35cdceb0a27a1c707b"
          ],
          "data": "0x000000000000000000000000000000000000000000000000000000000000000200000000000000000000000000000000000000000000000000000000000001f4",
          "blockHash": "0x15021512d69007d26d6ea68241b9539dc0dcca80adafca52aa107cdffdeacd17",
          "blockNumber": "0x2f77680",
          "blockTimestamp": "0x6a46130f",
          "transactionHash": "0x843c348240ca5aea67eb9200d7faae48f85b0ad5d731248f4fa77d509a98d7c7",
          "transactionIndex": "0xb",
          "logIndex": "0x1a",
          "removed": false
        },
        {
          "address": "0x4d82b6e528d3c2e1a3592e14863ec95eaef4ff85",
          "topics": [
            "0x5d55a7ca4b923b36b70eb909992eb2bf005bf58b77d4cfb245faa8cb6b36d884",
            "0x0000000000000000000000000000000000000000000000000000000000000002"
          ],
          "data": "0x000000000000000000000000000000000000000000000000000000000000006000000000000000000000000000000000000000000000000000000000000000a000000000000000000000000000000000000000000000000000000000000001f40000000000000000000000000000000000000000000000000000000000000013474f4c44204f554e4345205641554c54202334000000000000000000000000000000000000000000000000000000000000000000000000000000000000000004676f6c6400000000000000000000000000000000000000000000000000000000",
          "blockHash": "0x15021512d69007d26d6ea68241b9539dc0dcca80adafca52aa107cdffdeacd17",
          "blockNumber": "0x2f77680",
          "blockTimestamp": "0x6a46130f",
          "transactionHash": "0x843c348240ca5aea67eb9200d7faae48f85b0ad5d731248f4fa77d509a98d7c7",
          "transactionIndex": "0xb",
          "logIndex": "0x1b",
          "removed": false
        }
      ],
      "logsBloom": "0x04020000000000000000000000000000000000000000000000000000000000000000000000000000000000000000000000000000000000000002000000002000000000000000000000000000000000000000000000000000001000000000000000000000020200000000000000200800000000000000000000000000000000000000000000000000000000000000000000000000000000000000000000000000000000000000000000000108000000000000000000000000000000000000000000000000000000000000000000000000000000000009000000000000000020000200000000000000000000000000000000000000008000000200080000000000",
      "type": "0x2",
      "transactionHash": "0x843c348240ca5aea67eb9200d7faae48f85b0ad5d731248f4fa77d509a98d7c7",
      "transactionIndex": "0xb",
      "blockHash": "0x15021512d69007d26d6ea68241b9539dc0dcca80adafca52aa107cdffdeacd17",
      "blockNumber": "0x2f77680",
      "gasUsed": "0x24dd0",
      "effectiveGasPrice": "0x4e3b29200",
      "from": "0x81d48d2c5d0744e8ef7a5c35cdceb0a27a1c707b",
      "to": "0x4d82b6e528d3c2e1a3592e14863ec95eaef4ff85",
      "contractAddress": null
    },
    {
      "status": "0x1",
      "cumulativeGasUsed": "0x1a31dd",
      "logs": [
        {
          "address": "0x4d82b6e528d3c2e1a3592e14863ec95eaef4ff85",
          "topics": [
            "0xc3d58168c5ae7397731d063d5bbf3d657854427343f4c083240f7aacaa2d0f62",
            "0x000000000000000000000000962aba0a590981cf9c5b336ac34922c82f203165",
            "0x00000000000000000000000081d48d2c5d0744e8ef7a5c35cdceb0a27a1c707b",
            "0x000000000000000000000000962aba0a590981cf9c5b336ac34922c82f203165"
          ],
          "data": "0x0000000000000000000000000000000000000000000000000000000000000002000000000000000000000000000000000000000000000000000000000000012c",
          "blockHash": "0x15021512d69007d26d6ea68241b9539dc0dcca80adafca52aa107cdffdeacd17",
          "blockNumber": "0x2f77680",
          "blockTimestamp": "0x6a46130f",
          "transactionHash": "0x9cd01ad326d5ef086572d3d81bf8f67a0df136f4fd499e724bcb9d9038373cc4",
          "transactionIndex": "0xc",
          "logIndex": "0x1c",
          "removed": false
        },
        {
          "address": "0x962aba0a590981cf9c5b336ac34922c82f203165",
          "topics": [
            "0x32951ff170f53e2a0d7160f9c1da9bafcf35b5003abc23b8b87fee8f1c5d8b25",
            "0x0000000000000000000000000000000000000000000000000000000000000002",
            "0x0000000000000000000000000000000000000000000000000000000000000002"
          ],
          "data": "0x0000000000000000000000000000000000000000000000014a4a95e6f64c0000000000000000000000000000000000000000000000000000000000000000012c",
          "blockHash": "0x15021512d69007d26d6ea68241b9539dc0dcca80adafca52aa107cdffdeacd17",
          "blockNumber": "0x2f77680",
          "blockTimestamp": "0x6a46130f",
          "transactionHash": "0x9cd01ad326d5ef086572d3d81bf8f67a0df136f4fd499e724bcb9d9038373cc4",
          "transactionIndex": "0xc",
          "logIndex": "0x1d",
          "removed": false
        }
      ],
      "logsBloom": "0x04000000400000000000000000000000000000000000000000000000000000000000000000000000000000000000000000000000000000000002000000003000000000000000000000000000000000000000000000000000001000000004000000000000000000010000000000200000000000000000000000000000000000000000000000000000000000000000000000000000000000000000000000000000000000000000000000000100000000000001000000000000000000000000000000000000000000000000000000000000000000000009000000000800400000000680000000000000000000000000000000000000008000000200080000000000",
      "type": "0x2",
      "transactionHash": "0x9cd01ad326d5ef086572d3d81bf8f67a0df136f4fd499e724bcb9d9038373cc4",
      "transactionIndex": "0xc",
      "blockHash": "0x15021512d69007d26d6ea68241b9539dc0dcca80adafca52aa107cdffdeacd17",
      "blockNumber": "0x2f77680",
      "gasUsed": "0x26f62",
      "effectiveGasPrice": "0x4e3b29200",
      "from": "0x81d48d2c5d0744e8ef7a5c35cdceb0a27a1c707b",
      "to": "0x962aba0a590981cf9c5b336ac34922c82f203165",
      "contractAddress": null
    },
    {
      "status": "0x1",
      "cumulativeGasUsed": "0x1ee138",
      "logs": [
        {
          "address": "0x4d82b6e528d3c2e1a3592e14863ec95eaef4ff85",
          "topics": [
            "0xc3d58168c5ae7397731d063d5bbf3d657854427343f4c083240f7aacaa2d0f62",
            "0x00000000000000000000000081d48d2c5d0744e8ef7a5c35cdceb0a27a1c707b",
            "0x0000000000000000000000000000000000000000000000000000000000000000",
            "0x00000000000000000000000081d48d2c5d0744e8ef7a5c35cdceb0a27a1c707b"
          ],
          "data": "0x000000000000000000000000000000000000000000000000000000000000000300000000000000000000000000000000000000000000000000000000000007d0",
          "blockHash": "0x15021512d69007d26d6ea68241b9539dc0dcca80adafca52aa107cdffdeacd17",
          "blockNumber": "0x2f77680",
          "blockTimestamp": "0x6a46130f",
          "transactionHash": "0xb9778aca324f318ac498582a85fff88c542f444c5805a0bcaffbbf44f63f2ce0",
          "transactionIndex": "0xe",
          "logIndex": "0x1f",
          "removed": false
        },
        {
          "address": "0x4d82b6e528d3c2e1a3592e14863ec95eaef4ff85",
          "topics": [
            "0x5d55a7ca4b923b36b70eb909992eb2bf005bf58b77d4cfb245faa8cb6b36d884",
            "0x0000000000000000000000000000000000000000000000000000000000000003"
          ],
          "data": "0x000000000000000000000000000000000000000000000000000000000000006000000000000000000000000000000000000000000000000000000000000000a000000000000000000000000000000000000000000000000000000000000007d000000000000000000000000000000000000000000000000000000000000000154d4152494e4120544f57455220554e4954203132460000000000000000000000000000000000000000000000000000000000000000000000000000000000000b7265616c2d657374617465000000000000000000000000000000000000000000",
          "blockHash": "0x15021512d69007d26d6ea68241b9539dc0dcca80adafca52aa107cdffdeacd17",
          "blockNumber": "0x2f77680",
          "blockTimestamp": "0x6a46130f",
          "transactionHash": "0xb9778aca324f318ac498582a85fff88c542f444c5805a0bcaffbbf44f63f2ce0",
          "transactionIndex": "0xe",
          "logIndex": "0x20",
          "removed": false
        }
      ],
      "logsBloom": "0x00020000000000000000000000000000000000000000000000000000000000000000000000000000000000000000000000000000020000000002000000002000000000000000000000000000000000000000000000000000001000000000000000000000020200000000000000200800000000000000000000000000000000000000000000000000000000000000000000000000000000000000000000000000000000000000000000000008000000000000000000800000000000000000400000000000000000000000000000000000000000000009000000000000000020000200000000000000000000000000000000000000000000000200080000000000",
      "type": "0x2",
      "transactionHash": "0xb9778aca324f318ac498582a85fff88c542f444c5805a0bcaffbbf44f63f2ce0",
      "transactionIndex": "0xe",
      "blockHash": "0x15021512d69007d26d6ea68241b9539dc0dcca80adafca52aa107cdffdeacd17",
      "blockNumber": "0x2f77680",
      "gasUsed": "0x2a547",
      "effectiveGasPrice": "0x4e3b29200",
      "from": "0x81d48d2c5d0744e8ef7a5c35cdceb0a27a1c707b",
      "to": "0x4d82b6e528d3c2e1a3592e14863ec95eaef4ff85",
      "contractAddress": null
    },
    {
      "status": "0x1",
      "cumulativeGasUsed": "0x21509a",
      "logs": [
        {
          "address": "0x4d82b6e528d3c2e1a3592e14863ec95eaef4ff85",
          "topics": [
            "0xc3d58168c5ae7397731d063d5bbf3d657854427343f4c083240f7aacaa2d0f62",
            "0x000000000000000000000000962aba0a590981cf9c5b336ac34922c82f203165",
            "0x00000000000000000000000081d48d2c5d0744e8ef7a5c35cdceb0a27a1c707b",
            "0x000000000000000000000000962aba0a590981cf9c5b336ac34922c82f203165"
          ],
          "data": "0x000000000000000000000000000000000000000000000000000000000000000300000000000000000000000000000000000000000000000000000000000004b0",
          "blockHash": "0x15021512d69007d26d6ea68241b9539dc0dcca80adafca52aa107cdffdeacd17",
          "blockNumber": "0x2f77680",
          "blockTimestamp": "0x6a46130f",
          "transactionHash": "0xc0d1eefa1be1a729336a327ed977211d841c5877955c11893f699405f22443ee",
          "transactionIndex": "0xf",
          "logIndex": "0x21",
          "removed": false
        },
        {
          "address": "0x962aba0a590981cf9c5b336ac34922c82f203165",
          "topics": [
            "0x32951ff170f53e2a0d7160f9c1da9bafcf35b5003abc23b8b87fee8f1c5d8b25",
            "0x0000000000000000000000000000000000000000000000000000000000000003",
            "0x0000000000000000000000000000000000000000000000000000000000000003"
          ],
          "data": "0x00000000000000000000000000000000000000000000000302379bf2ca2e000000000000000000000000000000000000000000000000000000000000000004b0",
          "blockHash": "0x15021512d69007d26d6ea68241b9539dc0dcca80adafca52aa107cdffdeacd17",
          "blockNumber": "0x2f77680",
          "blockTimestamp": "0x6a46130f",
          "transactionHash": "0xc0d1eefa1be1a729336a327ed977211d841c5877955c11893f699405f22443ee",
          "transactionIndex": "0xf",
          "logIndex": "0x22",
          "removed": false
        }
      ],
      "logsBloom": "0x00000000400000000000000000000000000000000000000000000000000000000000000000000000000000000000000000000000020000000002000000003000000000000000000000000000000000000000000000000000001000000004000000000000000000010000000000200000000000000000000000000000000000000000000000000000000000000000000000000000000000000000000000000000000000000000000000000000000000000001000000800000000000000000400000000000000000000000000000000000000000000009000000000800400000000680000000000000000000000000000000000000000000000200080000000000",
      "type": "0x2",
      "transactionHash": "0xc0d1eefa1be1a729336a327ed977211d841c5877955c11893f699405f22443ee",
      "transactionIndex": "0xf",
      "blockHash": "0x15021512d69007d26d6ea68241b9539dc0dcca80adafca52aa107cdffdeacd17",
      "blockNumber": "0x2f77680",
      "gasUsed": "0x26f62",
      "effectiveGasPrice": "0x4e3b29200",
      "from": "0x81d48d2c5d0744e8ef7a5c35cdceb0a27a1c707b",
      "to": "0x962aba0a590981cf9c5b336ac34922c82f203165",
      "contractAddress": null
    },
    {
      "status": "0x1",
      "cumulativeGasUsed": "0x239e8e",
      "logs": [
        {
          "address": "0x4d82b6e528d3c2e1a3592e14863ec95eaef4ff85",
          "topics": [
            "0xc3d58168c5ae7397731d063d5bbf3d657854427343f4c083240f7aacaa2d0f62",
            "0x00000000000000000000000081d48d2c5d0744e8ef7a5c35cdceb0a27a1c707b",
            "0x0000000000000000000000000000000000000000000000000000000000000000",
            "0x00000000000000000000000081d48d2c5d0744e8ef7a5c35cdceb0a27a1c707b"
          ],
          "data": "0x00000000000000000000000000000000000000000000000000000000000000040000000000000000000000000000000000000000000000000000000000001f40",
          "blockHash": "0x15021512d69007d26d6ea68241b9539dc0dcca80adafca52aa107cdffdeacd17",
          "blockNumber": "0x2f77680",
          "blockTimestamp": "0x6a46130f",
          "transactionHash": "0xe3478d700ef1615e7965e8721ea9985fe02aee55927137172b18b686fd6c3974",
          "transactionIndex": "0x10",
          "logIndex": "0x23",
          "removed": false
        },
        {
          "address": "0x4d82b6e528d3c2e1a3592e14863ec95eaef4ff85",
          "topics": [
            "0x5d55a7ca4b923b36b70eb909992eb2bf005bf58b77d4cfb245faa8cb6b36d884",
            "0x0000000000000000000000000000000000000000000000000000000000000004"
          ],
          "data": "0x000000000000000000000000000000000000000000000000000000000000006000000000000000000000000000000000000000000000000000000000000000a00000000000000000000000000000000000000000000000000000000000001f400000000000000000000000000000000000000000000000000000000000000012564552524120434152424f4e204c4f542d3900000000000000000000000000000000000000000000000000000000000000000000000000000000000000000006636172626f6e0000000000000000000000000000000000000000000000000000",
          "blockHash": "0x15021512d69007d26d6ea68241b9539dc0dcca80adafca52aa107cdffdeacd17",
          "blockNumber": "0x2f77680",
          "blockTimestamp": "0x6a46130f",
          "transactionHash": "0xe3478d700ef1615e7965e8721ea9985fe02aee55927137172b18b686fd6c3974",
          "transactionIndex": "0x10",
          "logIndex": "0x24",
          "removed": false
        }
      ],
      "logsBloom": "0x00020000000000000000000000000000000000000000000000000000000000000000000000000000000000000000000000000000000000000002000000002000000000000000000000000000000000000000000000000000001000000000000008000000020200000000000000200800000000000000000000000000000000000000000000000000000000000000000000000000000000000000000000000000000000000000000000000008000000000000000000000000002000000000000000000000000000000000000000000000000000008009000000000000000020000200000000000000000000000000000000000000000000000200080000000000",
      "type": "0x2",
      "transactionHash": "0xe3478d700ef1615e7965e8721ea9985fe02aee55927137172b18b686fd6c3974",
      "transactionIndex": "0x10",
      "blockHash": "0x15021512d69007d26d6ea68241b9539dc0dcca80adafca52aa107cdffdeacd17",
      "blockNumber": "0x2f77680",
      "gasUsed": "0x24df4",
      "effectiveGasPrice": "0x4e3b29200",
      "from": "0x81d48d2c5d0744e8ef7a5c35cdceb0a27a1c707b",
      "to": "0x4d82b6e528d3c2e1a3592e14863ec95eaef4ff85",
      "contractAddress": null
    },
    {
      "status": "0x1",
      "cumulativeGasUsed": "0x260de4",
      "logs": [
        {
          "address": "0x4d82b6e528d3c2e1a3592e14863ec95eaef4ff85",
          "topics": [
            "0xc3d58168c5ae7397731d063d5bbf3d657854427343f4c083240f7aacaa2d0f62",
            "0x000000000000000000000000962aba0a590981cf9c5b336ac34922c82f203165",
            "0x00000000000000000000000081d48d2c5d0744e8ef7a5c35cdceb0a27a1c707b",
            "0x000000000000000000000000962aba0a590981cf9c5b336ac34922c82f203165"
          ],
          "data": "0x000000000000000000000000000000000000000000000000000000000000000400000000000000000000000000000000000000000000000000000000000012c0",
          "blockHash": "0x15021512d69007d26d6ea68241b9539dc0dcca80adafca52aa107cdffdeacd17",
          "blockNumber": "0x2f77680",
          "blockTimestamp": "0x6a46130f",
          "transactionHash": "0x9e143d9fabaf6d2b734f5bdd67d6aef64a24d8e70326f2fe5540c3ba2f5261df",
          "transactionIndex": "0x11",
          "logIndex": "0x25",
          "removed": false
        },
        {
          "address": "0x962aba0a590981cf9c5b336ac34922c82f203165",
          "topics": [
            "0x32951ff170f53e2a0d7160f9c1da9bafcf35b5003abc23b8b87fee8f1c5d8b25",
            "0x0000000000000000000000000000000000000000000000000000000000000004",
            "0x0000000000000000000000000000000000000000000000000000000000000004"
          ],
          "data": "0x00000000000000000000000000000000000000000000000019ac8532c279000000000000000000000000000000000000000000000000000000000000000012c0",
          "blockHash": "0x15021512d69007d26d6ea68241b9539dc0dcca80adafca52aa107cdffdeacd17",
          "blockNumber": "0x2f77680",
          "blockTimestamp": "0x6a46130f",
          "transactionHash": "0x9e143d9fabaf6d2b734f5bdd67d6aef64a24d8e70326f2fe5540c3ba2f5261df",
          "transactionIndex": "0x11",
          "logIndex": "0x26",
          "removed": false
        }
      ],
      "logsBloom": "0x00000000400000000000000000000000000000000000000000000000000000000000000000000000000000000000000000000000000000000002000000003000000000000000000000000000000000000000000000000000001000000004000008000000000000010000000000200000000000000000000000000000000000000000000000000000000000000000000000000000000000000000000000000000000000000000000000000000000000000001000000000000002000000000000000000000000000000000000000000000000000008009000000000800400000000680000000000000000000000000000000000000000000000200080000000000",
      "type": "0x2",
      "transactionHash": "0x9e143d9fabaf6d2b734f5bdd67d6aef64a24d8e70326f2fe5540c3ba2f5261df",
      "transactionIndex": "0x11",
      "blockHash": "0x15021512d69007d26d6ea68241b9539dc0dcca80adafca52aa107cdffdeacd17",
      "blockNumber": "0x2f77680",
      "gasUsed": "0x26f56",
      "effectiveGasPrice": "0x4e3b29200",
      "from": "0x81d48d2c5d0744e8ef7a5c35cdceb0a27a1c707b",
      "to": "0x962aba0a590981cf9c5b336ac34922c82f203165",
      "contractAddress": null
    }
  ],
  "libraries": [],
  "pending": [],
  "returns": {},
  "timestamp": 1782977297839,
  "chain": 5042002,
  "commit": "46355ad"
}