{
  "transactions": [
    {
      "hash": null,
      "transactionType": "CALL",
      "contractName": null,
      "contractAddress": "0x962aba0a590981cf9c5b336ac34922c82f203165",
      "function": "list(uint256,uint256,uint256)",
      "arguments": [
        "1",
        "1",
        "97000000000000000000"
      ],
      "transaction": {
        "from": "0x81d48d2c5d0744e8ef7a5c35cdceb0a27a1c707b",
        "to": "0x962aba0a590981cf9c5b336ac34922c82f203165",
        "gas": "0x3d7ec",
        "value": "0x0",
        "input": "0x19aeb4900000000000000000000000000000000000000000000000000000000000000001000000000000000000000000000000000000000000000000000000000000000100000000000000000000000000000000000000000000000542253a126ce40000",
        "nonce": "0x1bd",
        "chainId": "0x4cef52"
      },
      "additionalContracts": [],
      "isFixedGasLimit": false
    },
    {
      "hash": null,
      "transactionType": "CALL",
      "contractName": null,
      "contractAddress": "0x962aba0a590981cf9c5b336ac34922c82f203165",
      "function": "list(uint256,uint256,uint256)",
      "arguments": [
        "1",
        "1",
        "100000000000000000000"
      ],
      "transaction": {
        "from": "0x81d48d2c5d0744e8ef7a5c35cdceb0a27a1c707b",
        "to": "0x962aba0a590981cf9c5b336ac34922c82f203165",
        "gas": "0x37ba8",
        "value": "0x0",
        "input": "0x19aeb490000000000000000000000000000000000000000000000000000000000000000100000000000000000000000000000000000000000000000000000000000000010000000000000000000000000000000000000000000000056bc75e2d63100000",
        "nonce": "0x1be",
        "chainId": "0x4cef52"
      },
      "additionalContracts": [],
      "isFixedGasLimit": false
    },
    {
      "hash": null,
      "transactionType": "CALL",
      "contractName": null,
      "contractAddress": "0x962aba0a590981cf9c5b336ac34922c82f203165",
      "function": "list(uint256,uint256,uint256)",
      "arguments": [
        "1",
        "1",
        "103000000000000000000"
      ],
      "transaction": {
        "from": "0x81d48d2c5d0744e8ef7a5c35cdceb0a27a1c707b",
        "to": "0x962aba0a590981cf9c5b336ac34922c82f203165",
        "gas": "0x37ba8",
        "value": "0x0",
        "input": "0x19aeb4900000000000000000000000000000000000000000000000000000000000000001000000000000000000000000000000000000000000000000000000000000000100000000000000000000000000000000000000000000000595698248593c0000",
        "nonce": "0x1bf",
        "chainId": "0x4cef52"
      },
      "additionalContracts": [],
      "isFixedGasLimit": false
    },
    {
      "hash": null,
      "transactionType": "CALL",
      "contractName": null,
      "contractAddress": "0x962aba0a590981cf9c5b336ac34922c82f203165",
      "function": "buy(uint256,uint256)",
      "arguments": [
        "1",
        "1"
      ],
      "transaction": {
        "from": "0x81d48d2c5d0744e8ef7a5c35cdceb0a27a1c707b",
        "to": "0x962aba0a590981cf9c5b336ac34922c82f203165",
        "gas": "0x18fbc",
        "value": "0x542253a126ce40000",
        "input": "0xd6febde800000000000000000000000000000000000000000000000000000000000000010000000000000000000000000000000000000000000000000000000000000001",
        "nonce": "0x1c0",
        "chainId": "0x4cef52"
      },
      "additionalContracts": [],
      "isFixedGasLimit": false
    },
    {
      "hash": null,
      "transactionType": "CALL",
      "contractName": null,
      "contractAddress": "0x962aba0a590981cf9c5b336ac34922c82f203165",
      "function": "list(uint256,uint256,uint256)",
      "arguments": [
        "2",
        "1",
        "23800000000000000000"
      ],
      "transaction": {
        "from": "0x81d48d2c5d0744e8ef7a5c35cdceb0a27a1c707b",
        "to": "0x962aba0a590981cf9c5b336ac34922c82f203165",
        "gas": "0x37ba8",
        "value": "0x0",
        "input": "0x19aeb490000000000000000000000000000000000000000000000000000000000000000200000000000000000000000000000000000000000000000000000000000000010000000000000000000000000000000000000000000000014a4a95e6f64c0000",
        "nonce": "0x1c1",
        "chainId": "0x4cef52"
      },
      "additionalContracts": [],
      "isFixedGasLimit": false
    },
    {
      "hash": null,
      "transactionType": "CALL",
      "contractName": null,
      "contractAddress": "0x962aba0a590981cf9c5b336ac34922c82f203165",
      "function": "list(uint256,uint256,uint256)",
      "arguments": [
        "2",
        "1",
        "25228000000000000000"
      ],
      "transaction": {
        "from": "0x81d48d2c5d0744e8ef7a5c35cdceb0a27a1c707b",
        "to": "0x962aba0a590981cf9c5b336ac34922c82f203165",
        "gas": "0x37ba8",
        "value": "0x0",
        "input": "0x19aeb490000000000000000000000000000000000000000000000000000000000000000200000000000000000000000000000000000000000000000000000000000000010000000000000000000000000000000000000000000000015e1bdc56198e0000",
        "nonce": "0x1c2",
        "chainId": "0x4cef52"
      },
      "additionalContracts": [],
      "isFixedGasLimit": false
    },
    {
      "hash": null,
      "transactionType": "CALL",
      "contractName": null,
      "contractAddress": "0x962aba0a590981cf9c5b336ac34922c82f203165",
      "function": "list(uint256,uint256,uint256)",
      "arguments": [
        "3",
        "1",
        "53835000000000000000"
      ],
      "transaction": {
        "from": "0x81d48d2c5d0744e8ef7a5c35cdceb0a27a1c707b",
        "to": "0x962aba0a590981cf9c5b336ac34922c82f203165",
        "gas": "0x37bb9",
        "value": "0x0",
        "input": "0x19aeb49000000000000000000000000000000000000000000000000000000000000000030000000000000000000000000000000000000000000000000000000000000001000000000000000000000000000000000000000000000002eb1c57451b278000",
        "nonce": "0x1c3",
        "chainId": "0x4cef52"
      },
      "additionalContracts": [],
      "isFixedGasLimit": false
    },
    {
      "hash": null,
      "transactionType": "CALL",
      "contractName": null,
      "contractAddress": "0x962aba0a590981cf9c5b336ac34922c82f203165",
      "function": "list(uint256,uint256,uint256)",
      "arguments": [
        "3",
        "1",
        "57165000000000000000"
      ],
      "transaction": {
        "from": "0x81d48d2c5d0744e8ef7a5c35cdceb0a27a1c707b",
        "to": "0x962aba0a590981cf9c5b336ac34922c82f203165",
        "gas": "0x37bb9",
        "value": "0x0",
        "input": "0x19aeb490000000000000000000000000000000000000000000000000000000000000000300000000000000000000000000000000000000000000000000000000000000010000000000000000000000000000000000000000000000031952e0a079348000",
        "nonce": "0x1c4",
        "chainId": "0x4cef52"
      },
      "additionalContracts": [],
      "isFixedGasLimit": false
    },
    {
      "hash": null,
      "transactionType": "CALL",
      "contractName": null,
      "contractAddress": "0x962aba0a590981cf9c5b336ac34922c82f203165",
      "function": "list(uint256,uint256,uint256)",
      "arguments": [
        "3",
        "1",
        "58830000000000000000"
      ],
      "transaction": {
        "from": "0x81d48d2c5d0744e8ef7a5c35cdceb0a27a1c707b",
        "to": "0x962aba0a590981cf9c5b336ac34922c82f203165",
        "gas": "0x37ba8",
        "value": "0x0",
        "input": "0x19aeb49000000000000000000000000000000000000000000000000000000000000000030000000000000000000000000000000000000000000000000000000000000001000000000000000000000000000000000000000000000003306e254e283b0000",
        "nonce": "0x1c5",
        "chainId": "0x4cef52"
      },
      "additionalContracts": [],
      "isFixedGasLimit": false
    },
    {
      "hash": null,
      "transactionType": "CALL",
      "contractName": null,
      "contractAddress": "0x962aba0a590981cf9c5b336ac34922c82f203165",
      "function": "buy(uint256,uint256)",
      "arguments": [
        "7",
        "1"
      ],
      "transaction": {
        "from": "0x81d48d2c5d0744e8ef7a5c35cdceb0a27a1c707b",
        "to": "0x962aba0a590981cf9c5b336ac34922c82f203165",
        "gas": "0x18fbc",
        "value": "0x31952e0a079348000",
        "input": "0xd6febde800000000000000000000000000000000000000000000000000000000000000070000000000000000000000000000000000000000000000000000000000000001",
        "nonce": "0x1c6",
        "chainId": "0x4cef52"
      },
      "additionalContracts": [],
      "isFixedGasLimit": false
    },
    {
      "hash": null,
      "transactionType": "CALL",
      "contractName": null,
      "contractAddress": "0x962aba0a590981cf9c5b336ac34922c82f203165",
      "function": "list(uint256,uint256,uint256)",
      "arguments": [
        "4",
        "1",
        "1850000000000000000"
      ],
      "transaction": {
        "from": "0x81d48d2c5d0744e8ef7a5c35cdceb0a27a1c707b",
        "to": "0x962aba0a590981cf9c5b336ac34922c82f203165",
        "gas": "0x37b98",
        "value": "0x0",
        "input": "0x19aeb4900000000000000000000000000000000000000000000000000000000000000004000000000000000000000000000000000000000000000000000000000000000100000000000000000000000000000000000000000000000019ac8532c2790000",
        "nonce": "0x1c7",
        "chainId": "0x4cef52"
      },
      "additionalContracts": [],
      "isFixedGasLimit": false
    },
    {
      "hash": null,
      "transactionType": "CALL",
      "contractName": null,
      "contractAddress": "0x962aba0a590981cf9c5b336ac34922c82f203165",
      "function": "list(uint256,uint256,uint256)",
      "arguments": [
        "4",
        "1",
        "1905500000000000000"
      ],
      "transaction": {
        "from": "0x81d48d2c5d0744e8ef7a5c35cdceb0a27a1c707b",
        "to": "0x962aba0a590981cf9c5b336ac34922c82f203165",
        "gas": "0x37ba8",
        "value": "0x0",
        "input": "0x19aeb490000000000000000000000000000000000000000000000000000000000000000400000000000000000000000000000000000000000000000000000000000000010000000000000000000000000000000000000000000000001a71b2277b81c000",
        "nonce": "0x1c8",
        "chainId": "0x4cef52"
      },
      "additionalContracts": [],
      "isFixedGasLimit": false
    },
    {
      "hash": null,
      "transactionType": "CALL",
      "contractName": null,
      "contractAddress": "0x962aba0a590981cf9c5b336ac34922c82f203165",
      "function": "list(uint256,uint256,uint256)",
      "arguments": [
        "5",
        "1",
        "95448000000000000000"
      ],
      "transaction": {
        "from": "0x81d48d2c5d0744e8ef7a5c35cdceb0a27a1c707b",
        "to": "0x962aba0a590981cf9c5b336ac34922c82f203165",
        "gas": "0x37ba8",
        "value": "0x0",
        "input": "0x19aeb490000000000000000000000000000000000000000000000000000000000000000500000000000000000000000000000000000000000000000000000000000000010000000000000000000000000000000000000000000000052c9b6a4b797c0000",
        "nonce": "0x1c9",
        "chainId": "0x4cef52"
      },
      "additionalContracts": [],
      "isFixedGasLimit": false
    },
    {
      "hash": null,
      "transactionType": "CALL",
      "contractName": null,
      "contractAddress": "0x962aba0a590981cf9c5b336ac34922c82f203165",
      "function": "list(uint256,uint256,uint256)",
      "arguments": [
        "5",
        "1",
        "98400000000000000000"
      ],
      "transaction": {
        "from": "0x81d48d2c5d0744e8ef7a5c35cdceb0a27a1c707b",
        "to": "0x962aba0a590981cf9c5b336ac34922c82f203165",
        "gas": "0x37ba8",
        "value": "0x0",
        "input": "0x19aeb49000000000000000000000000000000000000000000000000000000000000000050000000000000000000000000000000000000000000000000000000000000001000000000000000000000000000000000000000000000005559306a78a700000",
        "nonce": "0x1ca",
        "chainId": "0x4cef52"
      },
      "additionalContracts": [],
      "isFixedGasLimit": false
    },
    {
      "hash": null,
      "transactionType": "CALL",
      "contractName": null,
      "contractAddress": "0x962aba0a590981cf9c5b336ac34922c82f203165",
      "function": "list(uint256,uint256,uint256)",
      "arguments": [
        "5",
        "1",
        "104304000000000000000"
      ],
      "transaction": {
        "from": "0x81d48d2c5d0744e8ef7a5c35cdceb0a27a1c707b",
        "to": "0x962aba0a590981cf9c5b336ac34922c82f203165",
        "gas": "0x37ba8",
        "value": "0x0",
        "input": "0x19aeb49000000000000000000000000000000000000000000000000000000000000000050000000000000000000000000000000000000000000000000000000000000001000000000000000000000000000000000000000000000005a7823f5fac580000",
        "nonce": "0x1cb",
        "chainId": "0x4cef52"
      },
      "additionalContracts": [],
      "isFixedGasLimit": false
    },
    {
      "hash": null,
      "transactionType": "CALL",
      "contractName": null,
      "contractAddress": "0x962aba0a590981cf9c5b336ac34922c82f203165",
      "function": "buy(uint256,uint256)",
      "arguments": [
        "13",
        "1"
      ],
      "transaction": {
        "from": "0x81d48d2c5d0744e8ef7a5c35cdceb0a27a1c707b",
        "to": "0x962aba0a590981cf9c5b336ac34922c82f203165",
        "gas": "0x18fbc",
        "value": "0x5a7823f5fac580000",
        "input": "0xd6febde8000000000000000000000000000000000000000000000000000000000000000d0000000000000000000000000000000000000000000000000000000000000001",
        "nonce": "0x1cc",
        "chainId": "0x4cef52"
      },
      "additionalContracts": [],
      "isFixedGasLimit": false
    },
    {
      "hash": null,
      "transactionType": "CALL",
      "contractName": null,
      "contractAddress": "0x962aba0a590981cf9c5b336ac34922c82f203165",
      "function": "list(uint256,uint256,uint256)",
      "arguments": [
        "6",
        "1",
        "51500000000000000000"
      ],
      "transaction": {
        "from": "0x81d48d2c5d0744e8ef7a5c35cdceb0a27a1c707b",
        "to": "0x962aba0a590981cf9c5b336ac34922c82f203165",
        "gas": "0x37ba8",
        "value": "0x0",
        "input": "0x19aeb49000000000000000000000000000000000000000000000000000000000000000060000000000000000000000000000000000000000000000000000000000000001000000000000000000000000000000000000000000000002cab4c1242c9e0000",
        "nonce": "0x1cd",
        "chainId": "0x4cef52"
      },
      "additionalContracts": [],
      "isFixedGasLimit": false
    },
    {
      "hash": null,
      "transactionType": "CALL",
      "contractName": null,
      "contractAddress": "0x962aba0a590981cf9c5b336ac34922c82f203165",
      "function": "list(uint256,uint256,uint256)",
      "arguments": [
        "6",
        "1",
        "53000000000000000000"
      ],
      "transaction": {
        "from": "0x81d48d2c5d0744e8ef7a5c35cdceb0a27a1c707b",
        "to": "0x962aba0a590981cf9c5b336ac34922c82f203165",
        "gas": "0x37ba8",
        "value": "0x0",
        "input": "0x19aeb49000000000000000000000000000000000000000000000000000000000000000060000000000000000000000000000000000000000000000000000000000000001000000000000000000000000000000000000000000000002df85d331a7b40000",
        "nonce": "0x1ce",
        "chainId": "0x4cef52"
      },
      "additionalContracts": [],
      "isFixedGasLimit": false
    }
  ],
  "receipts": [],
  "libraries": [],
  "pending": [],
  "returns": {},
  "timestamp": 1783013667369,
  "chain": 5042002,
  "commit": "256bb70"
}