{
  "transactions": [
    {
      "hash": "0xbae2f12c1ebc61526b21bf5506027c57f0e9346fddd003583565dfe3a56ba296",
      "transactionType": "CALL",
      "contractName": null,
      "contractAddress": "0x962aba0a590981cf9c5b336ac34922c82f203165",
      "function": "list(uint256,uint256,uint256)",
      "arguments": [
        "15",
        "100",
        "970000000000000000"
      ],
      "transaction": {
        "from": "0x81d48d2c5d0744e8ef7a5c35cdceb0a27a1c707b",
        "to": "0x962aba0a590981cf9c5b336ac34922c82f203165",
        "gas": "0x37b98",
        "value": "0x0",
        "input": "0x19aeb490000000000000000000000000000000000000000000000000000000000000000f00000000000000000000000000000000000000000000000000000000000000640000000000000000000000000000000000000000000000000d7621dc58210000",
        "nonce": "0x1ef",
        "chainId": "0x4cef52"
      },
      "additionalContracts": [],
      "isFixedGasLimit": false
    },
    {
      "hash": "0x1b72c83b72a7d6904398f690dec8290588dbd96eea591305afccc8833dff718b",
      "transactionType": "CALL",
      "contractName": null,
      "contractAddress": "0x962aba0a590981cf9c5b336ac34922c82f203165",
      "function": "list(uint256,uint256,uint256)",
      "arguments": [
        "15",
        "200",
        "1000000000000000000"
      ],
      "transaction": {
        "from": "0x81d48d2c5d0744e8ef7a5c35cdceb0a27a1c707b",
        "to": "0x962aba0a590981cf9c5b336ac34922c82f203165",
        "gas": "0x37b98",
        "value": "0x0",
        "input": "0x19aeb490000000000000000000000000000000000000000000000000000000000000000f00000000000000000000000000000000000000000000000000000000000000c80000000000000000000000000000000000000000000000000de0b6b3a7640000",
        "nonce": "0x1f0",
        "chainId": "0x4cef52"
      },
      "additionalContracts": [],
      "isFixedGasLimit": false
    },
    {
      "hash": "0x2b5bad04e30b6fd83787e3ffc5c1737fddec1327aefe64ba9b580adc95bb8d33",
      "transactionType": "CALL",
      "contractName": null,
      "contractAddress": "0x962aba0a590981cf9c5b336ac34922c82f203165",
      "function": "list(uint256,uint256,uint256)",
      "arguments": [
        "15",
        "300",
        "1030000000000000000"
      ],
      "transaction": {
        "from": "0x81d48d2c5d0744e8ef7a5c35cdceb0a27a1c707b",
        "to": "0x962aba0a590981cf9c5b336ac34922c82f203165",
        "gas": "0x37ba8",
        "value": "0x0",
        "input": "0x19aeb490000000000000000000000000000000000000000000000000000000000000000f000000000000000000000000000000000000000000000000000000000000012c0000000000000000000000000000000000000000000000000e4b4b8af6a70000",
        "nonce": "0x1f1",
        "chainId": "0x4cef52"
      },
      "additionalContracts": [],
      "isFixedGasLimit": false
    },
    {
      "hash": "0x70af86bae93d8b5fa16bdd1bbd989897b8466d1b59fee3843bdf98930ac420a5",
      "transactionType": "CALL",
      "contractName": null,
      "contractAddress": "0x962aba0a590981cf9c5b336ac34922c82f203165",
      "function": "buy(uint256,uint256)",
      "arguments": [
        "16",
        "100"
      ],
      "transaction": {
        "from": "0x81d48d2c5d0744e8ef7a5c35cdceb0a27a1c707b",
        "to": "0x962aba0a590981cf9c5b336ac34922c82f203165",
        "gas": "0x18fbc",
        "value": "0x542253a126ce40000",
        "input": "0xd6febde800000000000000000000000000000000000000000000000000000000000000100000000000000000000000000000000000000000000000000000000000000064",
        "nonce": "0x1f2",
        "chainId": "0x4cef52"
      },
      "additionalContracts": [],
      "isFixedGasLimit": false
    },
    {
      "hash": "0x57e51cb791a8f9bc1946ddca4d8f6e4f5668655cbf172fa13cfd9f85a5d86826",
      "transactionType": "CALL",
      "contractName": null,
      "contractAddress": "0x962aba0a590981cf9c5b336ac34922c82f203165",
      "function": "list(uint256,uint256,uint256)",
      "arguments": [
        "16",
        "200",
        "238000000000000000"
      ],
      "transaction": {
        "from": "0x81d48d2c5d0744e8ef7a5c35cdceb0a27a1c707b",
        "to": "0x962aba0a590981cf9c5b336ac34922c82f203165",
        "gas": "0x37b98",
        "value": "0x0",
        "input": "0x19aeb490000000000000000000000000000000000000000000000000000000000000001000000000000000000000000000000000000000000000000000000000000000c8000000000000000000000000000000000000000000000000034d8bbd308b0000",
        "nonce": "0x1f3",
        "chainId": "0x4cef52"
      },
      "additionalContracts": [],
      "isFixedGasLimit": false
    },
    {
      "hash": "0x8e6a7ac4c0842cd7d980208d56ff382bbe24a347e309da557af27216edb28ed2",
      "transactionType": "CALL",
      "contractName": null,
      "contractAddress": "0x962aba0a590981cf9c5b336ac34922c82f203165",
      "function": "list(uint256,uint256,uint256)",
      "arguments": [
        "16",
        "300",
        "252280000000000000"
      ],
      "transaction": {
        "from": "0x81d48d2c5d0744e8ef7a5c35cdceb0a27a1c707b",
        "to": "0x962aba0a590981cf9c5b336ac34922c82f203165",
        "gas": "0x37bb9",
        "value": "0x0",
        "input": "0x19aeb4900000000000000000000000000000000000000000000000000000000000000010000000000000000000000000000000000000000000000000000000000000012c00000000000000000000000000000000000000000000000003804752c7ef8000",
        "nonce": "0x1f4",
        "chainId": "0x4cef52"
      },
      "additionalContracts": [],
      "isFixedGasLimit": false
    },
    {
      "hash": "0x21150d09daaff89ce4ac07ce73cbf2e64cbfbc9ba59e157994ecdff28e48c0aa",
      "transactionType": "CALL",
      "contractName": null,
      "contractAddress": "0x962aba0a590981cf9c5b336ac34922c82f203165",
      "function": "list(uint256,uint256,uint256)",
      "arguments": [
        "17",
        "300",
        "538350000000000000"
      ],
      "transaction": {
        "from": "0x81d48d2c5d0744e8ef7a5c35cdceb0a27a1c707b",
        "to": "0x962aba0a590981cf9c5b336ac34922c82f203165",
        "gas": "0x37bb9",
        "value": "0x0",
        "input": "0x19aeb4900000000000000000000000000000000000000000000000000000000000000011000000000000000000000000000000000000000000000000000000000000012c00000000000000000000000000000000000000000000000007789a7902d4e000",
        "nonce": "0x1f5",
        "chainId": "0x4cef52"
      },
      "additionalContracts": [],
      "isFixedGasLimit": false
    },
    {
      "hash": "0x8b2f53113ed3bfdd5858f69107e4baf80c1817b96f6ab8b3c12edc47afc3864d",
      "transactionType": "CALL",
      "contractName": null,
      "contractAddress": "0x962aba0a590981cf9c5b336ac34922c82f203165",
      "function": "list(uint256,uint256,uint256)",
      "arguments": [
        "17",
        "100",
        "571650000000000000"
      ],
      "transaction": {
        "from": "0x81d48d2c5d0744e8ef7a5c35cdceb0a27a1c707b",
        "to": "0x962aba0a590981cf9c5b336ac34922c82f203165",
        "gas": "0x37ba8",
        "value": "0x0",
        "input": "0x19aeb4900000000000000000000000000000000000000000000000000000000000000011000000000000000000000000000000000000000000000000000000000000006400000000000000000000000000000000000000000000000007eee8a571da2000",
        "nonce": "0x1f6",
        "chainId": "0x4cef52"
      },
      "additionalContracts": [],
      "isFixedGasLimit": false
    },
    {
      "hash": "0x4aec8b8b90c1f96a0a5fd5fea7372aef230e449d52917629447c9843c4f11a71",
      "transactionType": "CALL",
      "contractName": null,
      "contractAddress": "0x962aba0a590981cf9c5b336ac34922c82f203165",
      "function": "list(uint256,uint256,uint256)",
      "arguments": [
        "17",
        "200",
        "588300000000000000"
      ],
      "transaction": {
        "from": "0x81d48d2c5d0744e8ef7a5c35cdceb0a27a1c707b",
        "to": "0x962aba0a590981cf9c5b336ac34922c82f203165",
        "gas": "0x37ba8",
        "value": "0x0",
        "input": "0x19aeb490000000000000000000000000000000000000000000000000000000000000001100000000000000000000000000000000000000000000000000000000000000c8000000000000000000000000000000000000000000000000082a0fbba95cc000",
        "nonce": "0x1f7",
        "chainId": "0x4cef52"
      },
      "additionalContracts": [],
      "isFixedGasLimit": false
    },
    {
      "hash": "0x147e26c0aaea9e095acbf59b172cd36ff3cf6e69507298a6e530d52969ebcd9f",
      "transactionType": "CALL",
      "contractName": null,
      "contractAddress": "0x962aba0a590981cf9c5b336ac34922c82f203165",
      "function": "buy(uint256,uint256)",
      "arguments": [
        "22",
        "100"
      ],
      "transaction": {
        "from": "0x81d48d2c5d0744e8ef7a5c35cdceb0a27a1c707b",
        "to": "0x962aba0a590981cf9c5b336ac34922c82f203165",
        "gas": "0x18fbc",
        "value": "0x31952e0a079348000",
        "input": "0xd6febde800000000000000000000000000000000000000000000000000000000000000160000000000000000000000000000000000000000000000000000000000000064",
        "nonce": "0x1f8",
        "chainId": "0x4cef52"
      },
      "additionalContracts": [],
      "isFixedGasLimit": false
    },
    {
      "hash": "0xc049e1b818077386ce59532b9ec160736c972b79e6631b73c4333fcf46e4da76",
      "transactionType": "CALL",
      "contractName": null,
      "contractAddress": "0x962aba0a590981cf9c5b336ac34922c82f203165",
      "function": "list(uint256,uint256,uint256)",
      "arguments": [
        "18",
        "100",
        "18500000000000000"
      ],
      "transaction": {
        "from": "0x81d48d2c5d0744e8ef7a5c35cdceb0a27a1c707b",
        "to": "0x962aba0a590981cf9c5b336ac34922c82f203165",
        "gas": "0x37b98",
        "value": "0x0",
        "input": "0x19aeb490000000000000000000000000000000000000000000000000000000000000001200000000000000000000000000000000000000000000000000000000000000640000000000000000000000000000000000000000000000000041b9a6e8584000",
        "nonce": "0x1f9",
        "chainId": "0x4cef52"
      },
      "additionalContracts": [],
      "isFixedGasLimit": false
    },
    {
      "hash": "0x82afc32b39600fe444b5c85f8d535ca3323c25e97d7b024a5cf262d5d85a5899",
      "transactionType": "CALL",
      "contractName": null,
      "contractAddress": "0x962aba0a590981cf9c5b336ac34922c82f203165",
      "function": "list(uint256,uint256,uint256)",
      "arguments": [
        "18",
        "200",
        "19055000000000000"
      ],
      "transaction": {
        "from": "0x81d48d2c5d0744e8ef7a5c35cdceb0a27a1c707b",
        "to": "0x962aba0a590981cf9c5b336ac34922c82f203165",
        "gas": "0x37b98",
        "value": "0x0",
        "input": "0x19aeb490000000000000000000000000000000000000000000000000000000000000001200000000000000000000000000000000000000000000000000000000000000c80000000000000000000000000000000000000000000000000043b26bea31f000",
        "nonce": "0x1fa",
        "chainId": "0x4cef52"
      },
      "additionalContracts": [],
      "isFixedGasLimit": false
    },
    {
      "hash": "0x8d1e9ffe25dd7356cd3c3c2bdf233c795937783e12a6d6cb83042b7401e781d1",
      "transactionType": "CALL",
      "contractName": null,
      "contractAddress": "0x962aba0a590981cf9c5b336ac34922c82f203165",
      "function": "list(uint256,uint256,uint256)",
      "arguments": [
        "19",
        "200",
        "954480000000000000"
      ],
      "transaction": {
        "from": "0x81d48d2c5d0744e8ef7a5c35cdceb0a27a1c707b",
        "to": "0x962aba0a590981cf9c5b336ac34922c82f203165",
        "gas": "0x37b98",
        "value": "0x0",
        "input": "0x19aeb490000000000000000000000000000000000000000000000000000000000000001300000000000000000000000000000000000000000000000000000000000000c80000000000000000000000000000000000000000000000000d3efe80c1370000",
        "nonce": "0x1fb",
        "chainId": "0x4cef52"
      },
      "additionalContracts": [],
      "isFixedGasLimit": false
    },
    {
      "hash": "0x24b64b9a5facee45fbacbe1c6d540083390009c03bd86486bbb827d640cb106b",
      "transactionType": "CALL",
      "contractName": null,
      "contractAddress": "0x962aba0a590981cf9c5b336ac34922c82f203165",
      "function": "list(uint256,uint256,uint256)",
      "arguments": [
        "19",
        "300",
        "984000000000000000"
      ],
      "transaction": {
        "from": "0x81d48d2c5d0744e8ef7a5c35cdceb0a27a1c707b",
        "to": "0x962aba0a590981cf9c5b336ac34922c82f203165",
        "gas": "0x37ba8",
        "value": "0x0",
        "input": "0x19aeb4900000000000000000000000000000000000000000000000000000000000000013000000000000000000000000000000000000000000000000000000000000012c0000000000000000000000000000000000000000000000000da7dec95afc0000",
        "nonce": "0x1fc",
        "chainId": "0x4cef52"
      },
      "additionalContracts": [],
      "isFixedGasLimit": false
    },
    {
      "hash": "0x47757ac1d5892d894aa83e7ac6a20247acd9fd1a47ec710406c362bfa29251ff",
      "transactionType": "CALL",
      "contractName": null,
      "contractAddress": "0x962aba0a590981cf9c5b336ac34922c82f203165",
      "function": "list(uint256,uint256,uint256)",
      "arguments": [
        "19",
        "100",
        "1043040000000000000"
      ],
      "transaction": {
        "from": "0x81d48d2c5d0744e8ef7a5c35cdceb0a27a1c707b",
        "to": "0x962aba0a590981cf9c5b336ac34922c82f203165",
        "gas": "0x37b98",
        "value": "0x0",
        "input": "0x19aeb490000000000000000000000000000000000000000000000000000000000000001300000000000000000000000000000000000000000000000000000000000000640000000000000000000000000000000000000000000000000e799f5a8e860000",
        "nonce": "0x1fd",
        "chainId": "0x4cef52"
      },
      "additionalContracts": [],
      "isFixedGasLimit": false
    },
    {
      "hash": "0xae19405679cda779fccbac2fcc43e862cf55c7cce14a92c71d48db84f18a4e0c",
      "transactionType": "CALL",
      "contractName": null,
      "contractAddress": "0x962aba0a590981cf9c5b336ac34922c82f203165",
      "function": "buy(uint256,uint256)",
      "arguments": [
        "28",
        "100"
      ],
      "transaction": {
        "from": "0x81d48d2c5d0744e8ef7a5c35cdceb0a27a1c707b",
        "to": "0x962aba0a590981cf9c5b336ac34922c82f203165",
        "gas": "0x18fbc",
        "value": "0x5a7823f5fac580000",
        "input": "0xd6febde8000000000000000000000000000000000000000000000000000000000000001c0000000000000000000000000000000000000000000000000000000000000064",
        "nonce": "0x1fe",
        "chainId": "0x4cef52"
      },
      "additionalContracts": [],
      "isFixedGasLimit": false
    },
    {
      "hash": "0x16416cfa0adb5d8a0eefcd08248a72319c665194926e5ce330b5b90f0246958d",
      "transactionType": "CALL",
      "contractName": null,
      "contractAddress": "0x962aba0a590981cf9c5b336ac34922c82f203165",
      "function": "list(uint256,uint256,uint256)",
      "arguments": [
        "20",
        "300",
        "515000000000000000"
      ],
      "transaction": {
        "from": "0x81d48d2c5d0744e8ef7a5c35cdceb0a27a1c707b",
        "to": "0x962aba0a590981cf9c5b336ac34922c82f203165",
        "gas": "0x37bb9",
        "value": "0x0",
        "input": "0x19aeb4900000000000000000000000000000000000000000000000000000000000000014000000000000000000000000000000000000000000000000000000000000012c0000000000000000000000000000000000000000000000000725a5c57b538000",
        "nonce": "0x1ff",
        "chainId": "0x4cef52"
      },
      "additionalContracts": [],
      "isFixedGasLimit": false
    },
    {
      "hash": "0xad5d71ea865b79702048442726ec2a6def3f1d5bdab2c380c78116b3529c292a",
      "transactionType": "CALL",
      "contractName": null,
      "contractAddress": "0x962aba0a590981cf9c5b336ac34922c82f203165",
      "function": "list(uint256,uint256,uint256)",
      "arguments": [
        "20",
        "100",
        "530000000000000000"
      ],
      "transaction": {
        "from": "0x81d48d2c5d0744e8ef7a5c35cdceb0a27a1c707b",
        "to": "0x962aba0a590981cf9c5b336ac34922c82f203165",
        "gas": "0x37b98",
        "value": "0x0",
        "input": "0x19aeb49000000000000000000000000000000000000000000000000000000000000000140000000000000000000000000000000000000000000000000000000000000064000000000000000000000000000000000000000000000000075af03122f50000",
        "nonce": "0x200",
        "chainId": "0x4cef52"
      },
      "additionalContracts": [],
      "isFixedGasLimit": false
    }
  ],
  "receipts": [
    {
      "status": "0x1",
      "cumulativeGasUsed": "0x1a4f80",
      "logs": [
        {
          "address": "0x4d82b6e528d3c2e1a3592e14863ec95eaef4ff85",
          "topics": [
            "0xc3d58168c5ae7397731d063d5bbf3d657854427343f4c083240f7aacaa2d0f62",
            "0x000000000000000000000000962aba0a590981cf9c5b336ac34922c82f203165",
            "0x00000000000000000000000081d48d2c5d0744e8ef7a5c35cdceb0a27a1c707b",
            "0x000000000000000000000000962aba0a590981cf9c5b336ac34922c82f203165"
          ],
          "data": "0x000000000000000000000000000000000000000000000000000000000000000f0000000000000000000000000000000000000000000000000000000000000064",
          "blockHash": "0xe19d19cd3664db44af2f499775bf46441e5ba3c1a5a76f6f30f94bc4b1f9c624",
          "blockNumber": "0x2f98442",
          "blockTimestamp": "0x6a471ff9",
          "transactionHash": "0x1b72c83b72a7d6904398f690dec8290588dbd96eea591305afccc8833dff718b",
          "transactionIndex": "0x7",
          "logIndex": "0x1b",
          "removed": false
        },
        {
          "address": "0x962aba0a590981cf9c5b336ac34922c82f203165",
          "topics": [
            "0x1e9d45789795021c76ee4b02700b847667a4f82249aed1f3a7d92b7806d1087e",
            "0x0000000000000000000000000000000000000000000000000000000000000010",
            "0x000000000000000000000000000000000000000000000000000000000000000f",
            "0x00000000000000000000000081d48d2c5d0744e8ef7a5c35cdceb0a27a1c707b"
          ],
          "data": "0x0000000000000000000000000000000000000000000000000d7621dc582100000000000000000000000000000000000000000000000000000000000000000064",
          "blockHash": "0xe19d19cd3664db44af2f499775bf46441e5ba3c1a5a76f6f30f94bc4b1f9c624",
          "blockNumber": "0x2f98442",
          "blockTimestamp": "0x6a471ff9",
          "transactionHash": "0x1b72c83b72a7d6904398f690dec8290588dbd96eea591305afccc8833dff718b",
          "transactionIndex": "0x7",
          "logIndex": "0x1c",
          "removed": false
        }
      ],
      "logsBloom": "0x00000000500000000000000000000000000400000000000000000000000000000000000000000000000000000008000000000000000000000002000000002000000000000000000000000000000000000000000000000000001000000006000000000000000000010000002000200000000000000000000000000000040000000000000000000800000000000000000000000100000000000000000000000000000000000000000000000000000000000001000000000000000000000000000000000000000000000000000000000000000000000009000000000000400000000600000200000000000000000000000000000000000000000200080000000000",
      "type": "0x2",
      "transactionHash": "0x1b72c83b72a7d6904398f690dec8290588dbd96eea591305afccc8833dff718b",
      "transactionIndex": "0x7",
      "blockHash": "0xe19d19cd3664db44af2f499775bf46441e5ba3c1a5a76f6f30f94bc4b1f9c624",
      "blockNumber": "0x2f98442",
      "gasUsed": "0x28580",
      "effectiveGasPrice": "0x5d21dba00",
      "from": "0x81d48d2c5d0744e8ef7a5c35cdceb0a27a1c707b",
      "to": "0x962aba0a590981cf9c5b336ac34922c82f203165",
      "contractAddress": null
    },
    {
      "status": "0x1",
      "cumulativeGasUsed": "0x1cd500",
      "logs": [
        {
          "address": "0x4d82b6e528d3c2e1a3592e14863ec95eaef4ff85",
          "topics": [
            "0xc3d58168c5ae7397731d063d5bbf3d657854427343f4c083240f7aacaa2d0f62",
            "0x000000000000000000000000962aba0a590981cf9c5b336ac34922c82f203165",
            "0x00000000000000000000000081d48d2c5d0744e8ef7a5c35cdceb0a27a1c707b",
            "0x000000000000000000000000962aba0a590981cf9c5b336ac34922c82f203165"
          ],
          "data": "0x000000000000000000000000000000000000000000000000000000000000000f00000000000000000000000000000000000000000000000000000000000000c8",
          "blockHash": "0xe19d19cd3664db44af2f499775bf46441e5ba3c1a5a76f6f30f94bc4b1f9c624",
          "blockNumber": "0x2f98442",
          "blockTimestamp": "0x6a471ff9",
          "transactionHash": "0x70af86bae93d8b5fa16bdd1bbd989897b8466d1b59fee3843bdf98930ac420a5",
          "transactionIndex": "0x8",
          "logIndex": "0x1d",
          "removed": false
        },
        {
          "address": "0x962aba0a590981cf9c5b336ac34922c82f203165",
          "topics": [
            "0x1e9d45789795021c76ee4b02700b847667a4f82249aed1f3a7d92b7806d1087e",
            "0x0000000000000000000000000000000000000000000000000000000000000011",
            "0x000000000000000000000000000000000000000000000000000000000000000f",
            "0x00000000000000000000000081d48d2c5d0744e8ef7a5c35cdceb0a27a1c707b"
          ],
          "data": "0x0000000000000000000000000000000000000000000000000de0b6b3a764000000000000000000000000000000000000000000000000000000000000000000c8",
          "blockHash": "0xe19d19cd3664db44af2f499775bf46441e5ba3c1a5a76f6f30f94bc4b1f9c624",
          "blockNumber": "0x2f98442",
          "blockTimestamp": "0x6a471ff9",
          "transactionHash": "0x70af86bae93d8b5fa16bdd1bbd989897b8466d1b59fee3843bdf98930ac420a5",
          "transactionIndex": "0x8",
          "logIndex": "0x1e",
          "removed": false
        }
      ],
      "logsBloom": "0x00000000400000000000000000000000000400000000000000000000000000000000000000000000000000000008000000000000000000000002000000002000000000000000000000000000000000000000000000000000001000000006000000000000000000010000002000200000000000004000000000000000000000000000000000000800000000000000000000000000000000000000000000000000000000000000000000000000000000000001000000000000000000000400000000001000000000000000000000000000000000000009000000000000400000000600000200000000000000000000000000000000000000000200080000000000",
      "type": "0x2",
      "transactionHash": "0x70af86bae93d8b5fa16bdd1bbd989897b8466d1b59fee3843bdf98930ac420a5",
      "transactionIndex": "0x8",
      "blockHash": "0xe19d19cd3664db44af2f499775bf46441e5ba3c1a5a76f6f30f94bc4b1f9c624",
      "blockNumber": "0x2f98442",
      "gasUsed": "0x28580",
      "effectiveGasPrice": "0x5d21dba00",
      "from": "0x81d48d2c5d0744e8ef7a5c35cdceb0a27a1c707b",
      "to": "0x962aba0a590981cf9c5b336ac34922c82f203165",
      "contractAddress": null
    },
    {
      "status": "0x1",
      "cumulativeGasUsed": "0x1f5a8c",
      "logs": [
        {
          "address": "0x4d82b6e528d3c2e1a3592e14863ec95eaef4ff85",
          "topics": [
            "0xc3d58168c5ae7397731d063d5bbf3d657854427343f4c083240f7aacaa2d0f62",
            "0x000000000000000000000000962aba0a590981cf9c5b336ac34922c82f203165",
            "0x00000000000000000000000081d48d2c5d0744e8ef7a5c35cdceb0a27a1c707b",
            "0x000000000000000000000000962aba0a590981cf9c5b336ac34922c82f203165"
          ],
          "data": "0x000000000000000000000000000000000000000000000000000000000000000f000000000000000000000000000000000000000000000000000000000000012c",
          "blockHash": "0xe19d19cd3664db44af2f499775bf46441e5ba3c1a5a76f6f30f94bc4b1f9c624",
          "blockNumber": "0x2f98442",
          "blockTimestamp": "0x6a471ff9",
          "transactionHash": "0x2b5bad04e30b6fd83787e3ffc5c1737fddec1327aefe64ba9b580adc95bb8d33",
          "transactionIndex": "0x9",
          "logIndex": "0x1f",
          "removed": false
        },
        {
          "address": "0x962aba0a590981cf9c5b336ac34922c82f203165",
          "topics": [
            "0x1e9d45789795021c76ee4b02700b847667a4f82249aed1f3a7d92b7806d1087e",
            "0x0000000000000000000000000000000000000000000000000000000000000012",
            "0x000000000000000000000000000000000000000000000000000000000000000f",
            "0x00000000000000000000000081d48d2c5d0744e8ef7a5c35cdceb0a27a1c707b"
          ],
          "data": "0x0000000000000000000000000000000000000000000000000e4b4b8af6a70000000000000000000000000000000000000000000000000000000000000000012c",
          "blockHash": "0xe19d19cd3664db44af2f499775bf46441e5ba3c1a5a76f6f30f94bc4b1f9c624",
          "blockNumber": "0x2f98442",
          "blockTimestamp": "0x6a471ff9",
          "transactionHash": "0x2b5bad04e30b6fd83787e3ffc5c1737fddec1327aefe64ba9b580adc95bb8d33",
          "transactionIndex": "0x9",
          "logIndex": "0x20",
          "removed": false
        }
      ],
      "logsBloom": "0x00000000400000000000000000000000000400000000000000000000000000000000000000000000000000000008000000000000000000000002000000002000000000000000000000000000000000000000000000000000001000000006000000000000000000010000002000200000000000000000000000000000000000000000000000000800000000000000040000000000000000000000000000000000000000000000000000000000000000000001000000000040000000000000000000000000000000000400000000000000000000000009000000000000400000000600000200000000000000000000000000000000000000000200080000000000",
      "type": "0x2",
      "transactionHash": "0x2b5bad04e30b6fd83787e3ffc5c1737fddec1327aefe64ba9b580adc95bb8d33",
      "transactionIndex": "0x9",
      "blockHash": "0xe19d19cd3664db44af2f499775bf46441e5ba3c1a5a76f6f30f94bc4b1f9c624",
      "blockNumber": "0x2f98442",
      "gasUsed": "0x2858c",
      "effectiveGasPrice": "0x5d21dba00",
      "from": "0x81d48d2c5d0744e8ef7a5c35cdceb0a27a1c707b",
      "to": "0x962aba0a590981cf9c5b336ac34922c82f203165",
      "contractAddress": null
    },
    {
      "status": "0x1",
      "cumulativeGasUsed": "0x207bf3",
      "logs": [
        {
          "address": "0xfffffffffffffffffffffffffffffffffffffffe",
          "topics": [
            "0xddf252ad1be2c89b69c2b068fc378daa952ba7f163c4a11628f55a4df523b3ef",
            "0x00000000000000000000000081d48d2c5d0744e8ef7a5c35cdceb0a27a1c707b",
            "0x000000000000000000000000962aba0a590981cf9c5b336ac34922c82f203165"
          ],
          "data": "0x00000000000000000000000000000000000000000000000542253a126ce40000",
          "blockHash": "0xe19d19cd3664db44af2f499775bf46441e5ba3c1a5a76f6f30f94bc4b1f9c624",
          "blockNumber": "0x2f98442",
          "blockTimestamp": "0x6a471ff9",
          "transactionHash": "0xbae2f12c1ebc61526b21bf5506027c57f0e9346fddd003583565dfe3a56ba296",
          "transactionIndex": "0xa",
          "logIndex": "0x21",
          "removed": false
        },
        {
          "address": "0x962aba0a590981cf9c5b336ac34922c82f203165",
          "topics": [
            "0xd375d54616745fe1f13240876f3ce1bf39b50bdd13c0d5b7fadfc576a4c9844b",
            "0x0000000000000000000000000000000000000000000000000000000000000010",
            "0x000000000000000000000000000000000000000000000000000000000000000f",
            "0x00000000000000000000000081d48d2c5d0744e8ef7a5c35cdceb0a27a1c707b"
          ],
          "data": "0x00000000000000000000000081d48d2c5d0744e8ef7a5c35cdceb0a27a1c707b000000000000000000000000000000000000000000000000000000000000006400000000000000000000000000000000000000000000000542253a126ce4000000000000000000000000000000000000000000000000000006bb10ee2c108000",
          "blockHash": "0xe19d19cd3664db44af2f499775bf46441e5ba3c1a5a76f6f30f94bc4b1f9c624",
          "blockNumber": "0x2f98442",
          "blockTimestamp": "0x6a471ff9",
          "transactionHash": "0xbae2f12c1ebc61526b21bf5506027c57f0e9346fddd003583565dfe3a56ba296",
          "transactionIndex": "0xa",
          "logIndex": "0x22",
          "removed": false
        },
        {
          "address": "0x4d82b6e528d3c2e1a3592e14863ec95eaef4ff85",
          "topics": [
            "0xc3d58168c5ae7397731d063d5bbf3d657854427343f4c083240f7aacaa2d0f62",
            "0x000000000000000000000000962aba0a590981cf9c5b336ac34922c82f203165",
            "0x000000000000000000000000962aba0a590981cf9c5b336ac34922c82f203165",
            "0x00000000000000000000000081d48d2c5d0744e8ef7a5c35cdceb0a27a1c707b"
          ],
          "data": "0x000000000000000000000000000000000000000000000000000000000000000f0000000000000000000000000000000000000000000000000000000000000064",
          "blockHash": "0xe19d19cd3664db44af2f499775bf46441e5ba3c1a5a76f6f30f94bc4b1f9c624",
          "blockNumber": "0x2f98442",
          "blockTimestamp": "0x6a471ff9",
          "transactionHash": "0xbae2f12c1ebc61526b21bf5506027c57f0e9346fddd003583565dfe3a56ba296",
          "transactionIndex": "0xa",
          "logIndex": "0x23",
          "removed": false
        },
        {
          "address": "0xfffffffffffffffffffffffffffffffffffffffe",
          "topics": [
            "0xddf252ad1be2c89b69c2b068fc378daa952ba7f163c4a11628f55a4df523b3ef",
            "0x000000000000000000000000962aba0a590981cf9c5b336ac34922c82f203165",
            "0x00000000000000000000000081d48d2c5d0744e8ef7a5c35cdceb0a27a1c707b"
          ],
          "data": "0x0000000000000000000000000000000000000000000000053b6a292440d38000",
          "blockHash": "0xe19d19cd3664db44af2f499775bf46441e5ba3c1a5a76f6f30f94bc4b1f9c624",
          "blockNumber": "0x2f98442",
          "blockTimestamp": "0x6a471ff9",
          "transactionHash": "0xbae2f12c1ebc61526b21bf5506027c57f0e9346fddd003583565dfe3a56ba296",
          "transactionIndex": "0xa",
          "logIndex": "0x24",
          "removed": false
        },
        {
          "address": "0xfffffffffffffffffffffffffffffffffffffffe",
          "topics": [
            "0xddf252ad1be2c89b69c2b068fc378daa952ba7f163c4a11628f55a4df523b3ef",
            "0x000000000000000000000000962aba0a590981cf9c5b336ac34922c82f203165",
            "0x00000000000000000000000084e243a60a75efe615537af49c5eaee8f3c32ed9"
          ],
          "data": "0x00000000000000000000000000000000000000000000000006bb10ee2c108000",
          "blockHash": "0xe19d19cd3664db44af2f499775bf46441e5ba3c1a5a76f6f30f94bc4b1f9c624",
          "blockNumber": "0x2f98442",
          "blockTimestamp": "0x6a471ff9",
          "transactionHash": "0xbae2f12c1ebc61526b21bf5506027c57f0e9346fddd003583565dfe3a56ba296",
          "transactionIndex": "0xa",
          "logIndex": "0x25",
          "removed": false
        }
      ],
      "logsBloom": "0x00000000500000000000000000000000000000000000000000000000000000000000000000000000000000000200000000800000000000000002000000002000000000000000000000000008000000000000000000000000001000000006000000000000000000012000000000200000000000000000000000000010040000000000000000200800000000000000000000000100000000000000000000000000000000000000000000000000000000000001000000000000000000000000000000000002000000000008010000000000000000000009000000000000400000400600000200000000000000000000000000000000000000000200080000880000",
      "type": "0x2",
      "transactionHash": "0xbae2f12c1ebc61526b21bf5506027c57f0e9346fddd003583565dfe3a56ba296",
      "transactionIndex": "0xa",
      "blockHash": "0xe19d19cd3664db44af2f499775bf46441e5ba3c1a5a76f6f30f94bc4b1f9c624",
      "blockNumber": "0x2f98442",
      "gasUsed": "0x12167",
      "effectiveGasPrice": "0x5d21dba00",
      "from": "0x81d48d2c5d0744e8ef7a5c35cdceb0a27a1c707b",
      "to": "0x962aba0a590981cf9c5b336ac34922c82f203165",
      "contractAddress": null
    },
    {
      "status": "0x1",
      "cumulativeGasUsed": "0x230173",
      "logs": [
        {
          "address": "0x4d82b6e528d3c2e1a3592e14863ec95eaef4ff85",
          "topics": [
            "0xc3d58168c5ae7397731d063d5bbf3d657854427343f4c083240f7aacaa2d0f62",
            "0x000000000000000000000000962aba0a590981cf9c5b336ac34922c82f203165",
            "0x00000000000000000000000081d48d2c5d0744e8ef7a5c35cdceb0a27a1c707b",
            "0x000000000000000000000000962aba0a590981cf9c5b336ac34922c82f203165"
          ],
          "data": "0x000000000000000000000000000000000000000000000000000000000000001000000000000000000000000000000000000000000000000000000000000000c8",
          "blockHash": "0xe19d19cd3664db44af2f499775bf46441e5ba3c1a5a76f6f30f94bc4b1f9c624",
          "blockNumber": "0x2f98442",
          "blockTimestamp": "0x6a471ff9",
          "transactionHash": "0x57e51cb791a8f9bc1946ddca4d8f6e4f5668655cbf172fa13cfd9f85a5d86826",
          "transactionIndex": "0xb",
          "logIndex": "0x26",
          "removed": false
        },
        {
          "address": "0x962aba0a590981cf9c5b336ac34922c82f203165",
          "topics": [
            "0x1e9d45789795021c76ee4b02700b847667a4f82249aed1f3a7d92b7806d1087e",
            "0x0000000000000000000000000000000000000000000000000000000000000013",
            "0x0000000000000000000000000000000000000000000000000000000000000010",
            "0x00000000000000000000000081d48d2c5d0744e8ef7a5c35cdceb0a27a1c707b"
          ],
          "data": "0x000000000000000000000000000000000000000000000000034d8bbd308b000000000000000000000000000000000000000000000000000000000000000000c8",
          "blockHash": "0xe19d19cd3664db44af2f499775bf46441e5ba3c1a5a76f6f30f94bc4b1f9c624",
          "blockNumber": "0x2f98442",
          "blockTimestamp": "0x6a471ff9",
          "transactionHash": "0x57e51cb791a8f9bc1946ddca4d8f6e4f5668655cbf172fa13cfd9f85a5d86826",
          "transactionIndex": "0xb",
          "logIndex": "0x27",
          "removed": false
        }
      ],
      "logsBloom": "0x20000000500000000000000000800000000400000000000000000000000000000000000040000000000000000008000000000000000000000002000000002000000000000000000000000000000000000000000000000000001000000004000000000000000000010000002000200000000000000000000000000000040000000000000000000000000000000000000000000100000000000000000000000000000000000000000000000000000000000001000000000000000000000000000000000000000000000000000000000000000000000009000000000000400000000600000000000000000000000000000000000000000000000200080000000000",
      "type": "0x2",
      "transactionHash": "0x57e51cb791a8f9bc1946ddca4d8f6e4f5668655cbf172fa13cfd9f85a5d86826",
      "transactionIndex": "0xb",
      "blockHash": "0xe19d19cd3664db44af2f499775bf46441e5ba3c1a5a76f6f30f94bc4b1f9c624",
      "blockNumber": "0x2f98442",
      "gasUsed": "0x28580",
      "effectiveGasPrice": "0x5d21dba00",
      "from": "0x81d48d2c5d0744e8ef7a5c35cdceb0a27a1c707b",
      "to": "0x962aba0a590981cf9c5b336ac34922c82f203165",
      "contractAddress": null
    },
    {
      "status": "0x1",
      "cumulativeGasUsed": "0x25870b",
      "logs": [
        {
          "address": "0x4d82b6e528d3c2e1a3592e14863ec95eaef4ff85",
          "topics": [
            "0xc3d58168c5ae7397731d063d5bbf3d657854427343f4c083240f7aacaa2d0f62",
            "0x000000000000000000000000962aba0a590981cf9c5b336ac34922c82f203165",
            "0x00000000000000000000000081d48d2c5d0744e8ef7a5c35cdceb0a27a1c707b",
            "0x000000000000000000000000962aba0a590981cf9c5b336ac34922c82f203165"
          ],
          "data": "0x0000000000000000000000000000000000000000000000000000000000000010000000000000000000000000000000000000000000000000000000000000012c",
          "blockHash": "0xe19d19cd3664db44af2f499775bf46441e5ba3c1a5a76f6f30f94bc4b1f9c624",
          "blockNumber": "0x2f98442",
          "blockTimestamp": "0x6a471ff9",
          "transactionHash": "0x8e6a7ac4c0842cd7d980208d56ff382bbe24a347e309da557af27216edb28ed2",
          "transactionIndex": "0xc",
          "logIndex": "0x28",
          "removed": false
        },
        {
          "address": "0x962aba0a590981cf9c5b336ac34922c82f203165",
          "topics": [
            "0x1e9d45789795021c76ee4b02700b847667a4f82249aed1f3a7d92b7806d1087e",
            "0x0000000000000000000000000000000000000000000000000000000000000014",
            "0x0000000000000000000000000000000000000000000000000000000000000010",
            "0x00000000000000000000000081d48d2c5d0744e8ef7a5c35cdceb0a27a1c707b"
          ],
          "data": "0x00000000000000000000000000000000000000000000000003804752c7ef8000000000000000000000000000000000000000000000000000000000000000012c",
          "blockHash": "0xe19d19cd3664db44af2f499775bf46441e5ba3c1a5a76f6f30f94bc4b1f9c624",
          "blockNumber": "0x2f98442",
          "blockTimestamp": "0x6a471ff9",
          "transactionHash": "0x8e6a7ac4c0842cd7d980208d56ff382bbe24a347e309da557af27216edb28ed2",
          "transactionIndex": "0xc",
          "logIndex": "0x29",
          "removed": false
        }
      ],
      "logsBloom": "0x00000000500000000000000000000000000400000000000000000000000000000000000000000000000000000008000000002000000000000002000000002000000000000000000000000000000000000000000000000000001000000004000000000000000000010000002000200000000000000000000000000000040000000000000000000000000000000000000000000100000400000000000000000000000000000000000020000000000000000001000000000000000000000000000000000000000000000000000000000000000000000009000000000000400000000600000000000000000000000000000000000000000000000200080000000000",
      "type": "0x2",
      "transactionHash": "0x8e6a7ac4c0842cd7d980208d56ff382bbe24a347e309da557af27216edb28ed2",
      "transactionIndex": "0xc",
      "blockHash": "0xe19d19cd3664db44af2f499775bf46441e5ba3c1a5a76f6f30f94bc4b1f9c624",
      "blockNumber": "0x2f98442",
      "gasUsed": "0x28598",
      "effectiveGasPrice": "0x5d21dba00",
      "from": "0x81d48d2c5d0744e8ef7a5c35cdceb0a27a1c707b",
      "to": "0x962aba0a590981cf9c5b336ac34922c82f203165",
      "contractAddress": null
    },
    {
      "status": "0x1",
      "cumulativeGasUsed": "0x280ca3",
      "logs": [
        {
          "address": "0x4d82b6e528d3c2e1a3592e14863ec95eaef4ff85",
          "topics": [
            "0xc3d58168c5ae7397731d063d5bbf3d657854427343f4c083240f7aacaa2d0f62",
            "0x000000000000000000000000962aba0a590981cf9c5b336ac34922c82f203165",
            "0x00000000000000000000000081d48d2c5d0744e8ef7a5c35cdceb0a27a1c707b",
            "0x000000000000000000000000962aba0a590981cf9c5b336ac34922c82f203165"
          ],
          "data": "0x0000000000000000000000000000000000000000000000000000000000000011000000000000000000000000000000000000000000000000000000000000012c",
          "blockHash": "0xe19d19cd3664db44af2f499775bf46441e5ba3c1a5a76f6f30f94bc4b1f9c624",
          "blockNumber": "0x2f98442",
          "blockTimestamp": "0x6a471ff9",
          "transactionHash": "0x21150d09daaff89ce4ac07ce73cbf2e64cbfbc9ba59e157994ecdff28e48c0aa",
          "transactionIndex": "0xd",
          "logIndex": "0x2a",
          "removed": false
        },
        {
          "address": "0x962aba0a590981cf9c5b336ac34922c82f203165",
          "topics": [
            "0x1e9d45789795021c76ee4b02700b847667a4f82249aed1f3a7d92b7806d1087e",
            "0x0000000000000000000000000000000000000000000000000000000000000015",
            "0x0000000000000000000000000000000000000000000000000000000000000011",
            "0x00000000000000000000000081d48d2c5d0744e8ef7a5c35cdceb0a27a1c707b"
          ],
          "data": "0x00000000000000000000000000000000000000000000000007789a7902d4e000000000000000000000000000000000000000000000000000000000000000012c",
          "blockHash": "0xe19d19cd3664db44af2f499775bf46441e5ba3c1a5a76f6f30f94bc4b1f9c624",
          "blockNumber": "0x2f98442",
          "blockTimestamp": "0x6a471ff9",
          "transactionHash": "0x21150d09daaff89ce4ac07ce73cbf2e64cbfbc9ba59e157994ecdff28e48c0aa",
          "transactionIndex": "0xd",
          "logIndex": "0x2b",
          "removed": false
        }
      ],
      "logsBloom": "0x00000000400000000000000000000000000400000000000000000000000000000000000000000000000000000008000000000000000000000002000000002000001000000000000000000000000000000000000000000000001000000004000000000000000000010000002000200000000000004000000000000000000000000000000000000000000000000000000000000000000000000000000000000000000000000000000000000000010000000001000000000000000000000400000000001000000000000000000000000000000000000009000000000000400000002600000000000000000000000000000000000000000000000200080000000000",
      "type": "0x2",
      "transactionHash": "0x21150d09daaff89ce4ac07ce73cbf2e64cbfbc9ba59e157994ecdff28e48c0aa",
      "transactionIndex": "0xd",
      "blockHash": "0xe19d19cd3664db44af2f499775bf46441e5ba3c1a5a76f6f30f94bc4b1f9c624",
      "blockNumber": "0x2f98442",
      "gasUsed": "0x28598",
      "effectiveGasPrice": "0x5d21dba00",
      "from": "0x81d48d2c5d0744e8ef7a5c35cdceb0a27a1c707b",
      "to": "0x962aba0a590981cf9c5b336ac34922c82f203165",
      "contractAddress": null
    },
    {
      "status": "0x1",
      "cumulativeGasUsed": "0x2a922f",
      "logs": [
        {
          "address": "0x4d82b6e528d3c2e1a3592e14863ec95eaef4ff85",
          "topics": [
            "0xc3d58168c5ae7397731d063d5bbf3d657854427343f4c083240f7aacaa2d0f62",
            "0x000000000000000000000000962aba0a590981cf9c5b336ac34922c82f203165",
            "0x00000000000000000000000081d48d2c5d0744e8ef7a5c35cdceb0a27a1c707b",
            "0x000000000000000000000000962aba0a590981cf9c5b336ac34922c82f203165"
          ],
          "data": "0x00000000000000000000000000000000000000000000000000000000000000110000000000000000000000000000000000000000000000000000000000000064",
          "blockHash": "0xe19d19cd3664db44af2f499775bf46441e5ba3c1a5a76f6f30f94bc4b1f9c624",
          "blockNumber": "0x2f98442",
          "blockTimestamp": "0x6a471ff9",
          "transactionHash": "0x4aec8b8b90c1f96a0a5fd5fea7372aef230e449d52917629447c9843c4f11a71",
          "transactionIndex": "0xe",
          "logIndex": "0x2c",
          "removed": false
        },
        {
          "address": "0x962aba0a590981cf9c5b336ac34922c82f203165",
          "topics": [
            "0x1e9d45789795021c76ee4b02700b847667a4f82249aed1f3a7d92b7806d1087e",
            "0x0000000000000000000000000000000000000000000000000000000000000016",
            "0x0000000000000000000000000000000000000000000000000000000000000011",
            "0x00000000000000000000000081d48d2c5d0744e8ef7a5c35cdceb0a27a1c707b"
          ],
          "data": "0x00000000000000000000000000000000000000000000000007eee8a571da20000000000000000000000000000000000000000000000000000000000000000064",
          "blockHash": "0xe19d19cd3664db44af2f499775bf46441e5ba3c1a5a76f6f30f94bc4b1f9c624",
          "blockNumber": "0x2f98442",
          "blockTimestamp": "0x6a471ff9",
          "transactionHash": "0x4aec8b8b90c1f96a0a5fd5fea7372aef230e449d52917629447c9843c4f11a71",
          "transactionIndex": "0xe",
          "logIndex": "0x2d",
          "removed": false
        }
      ],
      "logsBloom": "0x00000000400000000000000000000000000400000000000000000000000000000000000000000000000000000008000000000000000000000002000000002000000000000000000800000000000000000000000000000000001000000004000000000000000000010000002000200000200000004000000000000000000000000000000000000000000000000000000000000000000000000000000000000000000000000000000000000000000000000001000000000000000000000400000000001000000000000000000000000000000000000009000000000000400000000600000000000000000000000000000000000000000000000208080000000000",
      "type": "0x2",
      "transactionHash": "0x4aec8b8b90c1f96a0a5fd5fea7372aef230e449d52917629447c9843c4f11a71",
      "transactionIndex": "0xe",
      "blockHash": "0xe19d19cd3664db44af2f499775bf46441e5ba3c1a5a76f6f30f94bc4b1f9c624",
      "blockNumber": "0x2f98442",
      "gasUsed": "0x2858c",
      "effectiveGasPrice": "0x5d21dba00",
      "from": "0x81d48d2c5d0744e8ef7a5c35cdceb0a27a1c707b",
      "to": "0x962aba0a590981cf9c5b336ac34922c82f203165",
      "contractAddress": null
    },
    {
      "status": "0x1",
      "cumulativeGasUsed": "0x2d17bb",
      "logs": [
        {
          "address": "0x4d82b6e528d3c2e1a3592e14863ec95eaef4ff85",
          "topics": [
            "0xc3d58168c5ae7397731d063d5bbf3d657854427343f4c083240f7aacaa2d0f62",
            "0x000000000000000000000000962aba0a590981cf9c5b336ac34922c82f203165",
            "0x00000000000000000000000081d48d2c5d0744e8ef7a5c35cdceb0a27a1c707b",
            "0x000000000000000000000000962aba0a590981cf9c5b336ac34922c82f203165"
          ],
          "data": "0x000000000000000000000000000000000000000000000000000000000000001100000000000000000000000000000000000000000000000000000000000000c8",
          "blockHash": "0xe19d19cd3664db44af2f499775bf46441e5ba3c1a5a76f6f30f94bc4b1f9c624",
          "blockNumber": "0x2f98442",
          "blockTimestamp": "0x6a471ff9",
          "transactionHash": "0xc049e1b818077386ce59532b9ec160736c972b79e6631b73c4333fcf46e4da76",
          "transactionIndex": "0xf",
          "logIndex": "0x2e",
          "removed": false
        },
        {
          "address": "0x962aba0a590981cf9c5b336ac34922c82f203165",
          "topics": [
            "0x1e9d45789795021c76ee4b02700b847667a4f82249aed1f3a7d92b7806d1087e",
            "0x0000000000000000000000000000000000000000000000000000000000000017",
            "0x0000000000000000000000000000000000000000000000000000000000000011",
            "0x00000000000000000000000081d48d2c5d0744e8ef7a5c35cdceb0a27a1c707b"
          ],
          "data": "0x000000000000000000000000000000000000000000000000082a0fbba95cc00000000000000000000000000000000000000000000000000000000000000000c8",
          "blockHash": "0xe19d19cd3664db44af2f499775bf46441e5ba3c1a5a76f6f30f94bc4b1f9c624",
          "blockNumber": "0x2f98442",
          "blockTimestamp": "0x6a471ff9",
          "transactionHash": "0xc049e1b818077386ce59532b9ec160736c972b79e6631b73c4333fcf46e4da76",
          "transactionIndex": "0xf",
          "logIndex": "0x2f",
          "removed": false
        }
      ],
      "logsBloom": "0x00000000400000000000000000000000000400000000000000000000000000000000000000000000000000000008000000001000000000000002001000002000000000000000000000000000000000000000000000000000001000000004000000000000000000010000002000200000000000004000000000000000000000000000000000000000000000000000000000000000000000000000000000000000000000000000000000000000000000000001000000000000000000000400000000001000000000000000000000000000000000000009000000000000400000000600000000000000000000000000000000000000000000000200080000080000",
      "type": "0x2",
      "transactionHash": "0xc049e1b818077386ce59532b9ec160736c972b79e6631b73c4333fcf46e4da76",
      "transactionIndex": "0xf",
      "blockHash": "0xe19d19cd3664db44af2f499775bf46441e5ba3c1a5a76f6f30f94bc4b1f9c624",
      "blockNumber": "0x2f98442",
      "gasUsed": "0x2858c",
      "effectiveGasPrice": "0x5d21dba00",
      "from": "0x81d48d2c5d0744e8ef7a5c35cdceb0a27a1c707b",
      "to": "0x962aba0a590981cf9c5b336ac34922c82f203165",
      "contractAddress": null
    },
    {
      "status": "0x1",
      "cumulativeGasUsed": "0xdcf6e",
      "logs": [
        {
          "address": "0xfffffffffffffffffffffffffffffffffffffffe",
          "topics": [
            "0xddf252ad1be2c89b69c2b068fc378daa952ba7f163c4a11628f55a4df523b3ef",
            "0x00000000000000000000000081d48d2c5d0744e8ef7a5c35cdceb0a27a1c707b",
            "0x000000000000000000000000962aba0a590981cf9c5b336ac34922c82f203165"
          ],
          "data": "0x0000000000000000000000000000000000000000000000031952e0a079348000",
          "blockHash": "0xba4a1800b0755644397df4711c5e5bbdffa922af3fc6657389dba66ddc149c94",
          "blockNumber": "0x2f98443",
          "blockTimestamp": "0x6a471ff9",
          "transactionHash": "0x82afc32b39600fe444b5c85f8d535ca3323c25e97d7b024a5cf262d5d85a5899",
          "transactionIndex": "0x22",
          "logIndex": "0x5",
          "removed": false
        },
        {
          "address": "0x962aba0a590981cf9c5b336ac34922c82f203165",
          "topics": [
            "0xd375d54616745fe1f13240876f3ce1bf39b50bdd13c0d5b7fadfc576a4c9844b",
            "0x0000000000000000000000000000000000000000000000000000000000000016",
            "0x0000000000000000000000000000000000000000000000000000000000000011",
            "0x00000000000000000000000081d48d2c5d0744e8ef7a5c35cdceb0a27a1c707b"
          ],
          "data": "0x00000000000000000000000081d48d2c5d0744e8ef7a5c35cdceb0a27a1c707b00000000000000000000000000000000000000000000000000000000000000640000000000000000000000000000000000000000000000031952e0a07934800000000000000000000000000000000000000000000000000003f77452b8ed1000",
          "blockHash": "0xba4a1800b0755644397df4711c5e5bbdffa922af3fc6657389dba66ddc149c94",
          "blockNumber": "0x2f98443",
          "blockTimestamp": "0x6a471ff9",
          "transactionHash": "0x82afc32b39600fe444b5c85f8d535ca3323c25e97d7b024a5cf262d5d85a5899",
          "transactionIndex": "0x22",
          "logIndex": "0x6",
          "removed": false
        },
        {
          "address": "0x4d82b6e528d3c2e1a3592e14863ec95eaef4ff85",
          "topics": [
            "0xc3d58168c5ae7397731d063d5bbf3d657854427343f4c083240f7aacaa2d0f62",
            "0x000000000000000000000000962aba0a590981cf9c5b336ac34922c82f203165",
            "0x000000000000000000000000962aba0a590981cf9c5b336ac34922c82f203165",
            "0x00000000000000000000000081d48d2c5d0744e8ef7a5c35cdceb0a27a1c707b"
          ],
          "data": "0x00000000000000000000000000000000000000000000000000000000000000110000000000000000000000000000000000000000000000000000000000000064",
          "blockHash": "0xba4a1800b0755644397df4711c5e5bbdffa922af3fc6657389dba66ddc149c94",
          "blockNumber": "0x2f98443",
          "blockTimestamp": "0x6a471ff9",
          "transactionHash": "0x82afc32b39600fe444b5c85f8d535ca3323c25e97d7b024a5cf262d5d85a5899",
          "transactionIndex": "0x22",
          "logIndex": "0x7",
          "removed": false
        },
        {
          "address": "0xfffffffffffffffffffffffffffffffffffffffe",
          "topics": [
            "0xddf252ad1be2c89b69c2b068fc378daa952ba7f163c4a11628f55a4df523b3ef",
            "0x000000000000000000000000962aba0a590981cf9c5b336ac34922c82f203165",
            "0x00000000000000000000000081d48d2c5d0744e8ef7a5c35cdceb0a27a1c707b"
          ],
          "data": "0x000000000000000000000000000000000000000000000003155b6c4dc0477000",
          "blockHash": "0xba4a1800b0755644397df4711c5e5bbdffa922af3fc6657389dba66ddc149c94",
          "blockNumber": "0x2f98443",
          "blockTimestamp": "0x6a471ff9",
          "transactionHash": "0x82afc32b39600fe444b5c85f8d535ca3323c25e97d7b024a5cf262d5d85a5899",
          "transactionIndex": "0x22",
          "logIndex": "0x8",
          "removed": false
        },
        {
          "address": "0xfffffffffffffffffffffffffffffffffffffffe",
          "topics": [
            "0xddf252ad1be2c89b69c2b068fc378daa952ba7f163c4a11628f55a4df523b3ef",
            "0x000000000000000000000000962aba0a590981cf9c5b336ac34922c82f203165",
            "0x00000000000000000000000084e243a60a75efe615537af49c5eaee8f3c32ed9"
          ],
          "data": "0x00000000000000000000000000000000000000000000000003f77452b8ed1000",
          "blockHash": "0xba4a1800b0755644397df4711c5e5bbdffa922af3fc6657389dba66ddc149c94",
          "blockNumber": "0x2f98443",
          "blockTimestamp": "0x6a471ff9",
          "transactionHash": "0x82afc32b39600fe444b5c85f8d535ca3323c25e97d7b024a5cf262d5d85a5899",
          "transactionIndex": "0x22",
          "logIndex": "0x9",
          "removed": false
        }
      ],
      "logsBloom": "0x00000000400000000000000000000000000000000000000000000000000000000000000000000000000000000200000000800000000000000002000000002000000000000000000800000008000000000000000000000000001000000004000000000000000000012000000000200000200000004000000000000010000000000000000000200000000000000000000000000000000000000000000000000000000000000000000000000000000000000001000000000000000000000400000000001002000000000008010000000000000000000009000000000000400000400600000000000000000000000000000000000000000000000208080000880000",
      "type": "0x2",
      "transactionHash": "0x82afc32b39600fe444b5c85f8d535ca3323c25e97d7b024a5cf262d5d85a5899",
      "transactionIndex": "0x22",
      "blockHash": "0xba4a1800b0755644397df4711c5e5bbdffa922af3fc6657389dba66ddc149c94",
      "blockNumber": "0x2f98443",
      "gasUsed": "0x12167",
      "effectiveGasPrice": "0x5d21dba00",
      "from": "0x81d48d2c5d0744e8ef7a5c35cdceb0a27a1c707b",
      "to": "0x962aba0a590981cf9c5b336ac34922c82f203165",
      "contractAddress": null
    },
    {
      "status": "0x1",
      "cumulativeGasUsed": "0x1054ee",
      "logs": [
        {
          "address": "0x4d82b6e528d3c2e1a3592e14863ec95eaef4ff85",
          "topics": [
            "0xc3d58168c5ae7397731d063d5bbf3d657854427343f4c083240f7aacaa2d0f62",
            "0x000000000000000000000000962aba0a590981cf9c5b336ac34922c82f203165",
            "0x00000000000000000000000081d48d2c5d0744e8ef7a5c35cdceb0a27a1c707b",
            "0x000000000000000000000000962aba0a590981cf9c5b336ac34922c82f203165"
          ],
          "data": "0x00000000000000000000000000000000000000000000000000000000000000120000000000000000000000000000000000000000000000000000000000000064",
          "blockHash": "0xba4a1800b0755644397df4711c5e5bbdffa922af3fc6657389dba66ddc149c94",
          "blockNumber": "0x2f98443",
          "blockTimestamp": "0x6a471ff9",
          "transactionHash": "0x147e26c0aaea9e095acbf59b172cd36ff3cf6e69507298a6e530d52969ebcd9f",
          "transactionIndex": "0x23",
          "logIndex": "0xa",
          "removed": false
        },
        {
          "address": "0x962aba0a590981cf9c5b336ac34922c82f203165",
          "topics": [
            "0x1e9d45789795021c76ee4b02700b847667a4f82249aed1f3a7d92b7806d1087e",
            "0x0000000000000000000000000000000000000000000000000000000000000018",
            "0x0000000000000000000000000000000000000000000000000000000000000012",
            "0x00000000000000000000000081d48d2c5d0744e8ef7a5c35cdceb0a27a1c707b"
          ],
          "data": "0x0000000000000000000000000000000000000000000000000041b9a6e85840000000000000000000000000000000000000000000000000000000000000000064",
          "blockHash": "0xba4a1800b0755644397df4711c5e5bbdffa922af3fc6657389dba66ddc149c94",
          "blockNumber": "0x2f98443",
          "blockTimestamp": "0x6a471ff9",
          "transactionHash": "0x147e26c0aaea9e095acbf59b172cd36ff3cf6e69507298a6e530d52969ebcd9f",
          "transactionIndex": "0x23",
          "logIndex": "0xb",
          "removed": false
        }
      ],
      "logsBloom": "0x00000000400000000000000000000000000400000000000000000000000000000000000000000000000000000008000000000000000000000002000000002000000000000000000000000000000000000040000000000000001000000004000000000000000000010000002000200000000000000000000000000000000000000000000000000000000000000000040000000000000000000000000000000000000000000000000000000000000000000001000000000040000000000000000000100000000000000400000000000000000000000009000020000000400000000600000000000000000000000000000000000000000000000200080000000000",
      "type": "0x2",
      "transactionHash": "0x147e26c0aaea9e095acbf59b172cd36ff3cf6e69507298a6e530d52969ebcd9f",
      "transactionIndex": "0x23",
      "blockHash": "0xba4a1800b0755644397df4711c5e5bbdffa922af3fc6657389dba66ddc149c94",
      "blockNumber": "0x2f98443",
      "gasUsed": "0x28580",
      "effectiveGasPrice": "0x5d21dba00",
      "from": "0x81d48d2c5d0744e8ef7a5c35cdceb0a27a1c707b",
      "to": "0x962aba0a590981cf9c5b336ac34922c82f203165",
      "contractAddress": null
    },
    {
      "status": "0x1",
      "cumulativeGasUsed": "0x12da6e",
      "logs": [
        {
          "address": "0x4d82b6e528d3c2e1a3592e14863ec95eaef4ff85",
          "topics": [
            "0xc3d58168c5ae7397731d063d5bbf3d657854427343f4c083240f7aacaa2d0f62",
            "0x000000000000000000000000962aba0a590981cf9c5b336ac34922c82f203165",
            "0x00000000000000000000000081d48d2c5d0744e8ef7a5c35cdceb0a27a1c707b",
            "0x000000000000000000000000962aba0a590981cf9c5b336ac34922c82f203165"
          ],
          "data": "0x000000000000000000000000000000000000000000000000000000000000001200000000000000000000000000000000000000000000000000000000000000c8",
          "blockHash": "0xba4a1800b0755644397df4711c5e5bbdffa922af3fc6657389dba66ddc149c94",
          "blockNumber": "0x2f98443",
          "blockTimestamp": "0x6a471ff9",
          "transactionHash": "0x24b64b9a5facee45fbacbe1c6d540083390009c03bd86486bbb827d640cb106b",
          "transactionIndex": "0x24",
          "logIndex": "0xc",
          "removed": false
        },
        {
          "address": "0x962aba0a590981cf9c5b336ac34922c82f203165",
          "topics": [
            "0x1e9d45789795021c76ee4b02700b847667a4f82249aed1f3a7d92b7806d1087e",
            "0x0000000000000000000000000000000000000000000000000000000000000019",
            "0x0000000000000000000000000000000000000000000000000000000000000012",
            "0x00000000000000000000000081d48d2c5d0744e8ef7a5c35cdceb0a27a1c707b"
          ],
          "data": "0x0000000000000000000000000000000000000000000000000043b26bea31f00000000000000000000000000000000000000000000000000000000000000000c8",
          "blockHash": "0xba4a1800b0755644397df4711c5e5bbdffa922af3fc6657389dba66ddc149c94",
          "blockNumber": "0x2f98443",
          "blockTimestamp": "0x6a471ff9",
          "transactionHash": "0x24b64b9a5facee45fbacbe1c6d540083390009c03bd86486bbb827d640cb106b",
          "transactionIndex": "0x24",
          "logIndex": "0xd",
          "removed": false
        }
      ],
      "logsBloom": "0x00000000400000000000000000000000000400000000000000000000000000000000000000000000000000000008000000000000000000800002000000002000000000000000000000000000000000000000000000000000001000000004000000000000000000010000002000200000000000000000020000000000000000000000000000000000000000000000040000000000000000000000000000000000000000000000000000000000000000000001000000000040000000000000000000000000000000000400000000000000000000000009000000000000400000000600000000000000000000000000000000000000000000000200088000000000",
      "type": "0x2",
      "transactionHash": "0x24b64b9a5facee45fbacbe1c6d540083390009c03bd86486bbb827d640cb106b",
      "transactionIndex": "0x24",
      "blockHash": "0xba4a1800b0755644397df4711c5e5bbdffa922af3fc6657389dba66ddc149c94",
      "blockNumber": "0x2f98443",
      "gasUsed": "0x28580",
      "effectiveGasPrice": "0x5d21dba00",
      "from": "0x81d48d2c5d0744e8ef7a5c35cdceb0a27a1c707b",
      "to": "0x962aba0a590981cf9c5b336ac34922c82f203165",
      "contractAddress": null
    },
    {
      "status": "0x1",
      "cumulativeGasUsed": "0x155fee",
      "logs": [
        {
          "address": "0x4d82b6e528d3c2e1a3592e14863ec95eaef4ff85",
          "topics": [
            "0xc3d58168c5ae7397731d063d5bbf3d657854427343f4c083240f7aacaa2d0f62",
            "0x000000000000000000000000962aba0a590981cf9c5b336ac34922c82f203165",
            "0x00000000000000000000000081d48d2c5d0744e8ef7a5c35cdceb0a27a1c707b",
            "0x000000000000000000000000962aba0a590981cf9c5b336ac34922c82f203165"
          ],
          "data": "0x000000000000000000000000000000000000000000000000000000000000001300000000000000000000000000000000000000000000000000000000000000c8",
          "blockHash": "0xba4a1800b0755644397df4711c5e5bbdffa922af3fc6657389dba66ddc149c94",
          "blockNumber": "0x2f98443",
          "blockTimestamp": "0x6a471ff9",
          "transactionHash": "0x8d1e9ffe25dd7356cd3c3c2bdf233c795937783e12a6d6cb83042b7401e781d1",
          "transactionIndex": "0x25",
          "logIndex": "0xe",
          "removed": false
        },
        {
          "address": "0x962aba0a590981cf9c5b336ac34922c82f203165",
          "topics": [
            "0x1e9d45789795021c76ee4b02700b847667a4f82249aed1f3a7d92b7806d1087e",
            "0x000000000000000000000000000000000000000000000000000000000000001a",
            "0x0000000000000000000000000000000000000000000000000000000000000013",
            "0x00000000000000000000000081d48d2c5d0744e8ef7a5c35cdceb0a27a1c707b"
          ],
          "data": "0x0000000000000000000000000000000000000000000000000d3efe80c137000000000000000000000000000000000000000000000000000000000000000000c8",
          "blockHash": "0xba4a1800b0755644397df4711c5e5bbdffa922af3fc6657389dba66ddc149c94",
          "blockNumber": "0x2f98443",
          "blockTimestamp": "0x6a471ff9",
          "transactionHash": "0x8d1e9ffe25dd7356cd3c3c2bdf233c795937783e12a6d6cb83042b7401e781d1",
          "transactionIndex": "0x25",
          "logIndex": "0xf",
          "removed": false
        }
      ],
      "logsBloom": "0x20000000400000000000000000800000000400000000000000000000000000000000000040000000000000000008000000000000000000000002000000002000000000000000000000000000000000001000000000000000001000001004000000000000000000010000002000200000000000000000000000000000000000000000000000000000000000000000000000000000000000000000000000000000000000000000000000000000000000000001000000000000000000000000000000000000000000000000000000000000000000000009000000000000400000000600000000000000000000000000000000000000000004000200080000000000",
      "type": "0x2",
      "transactionHash": "0x8d1e9ffe25dd7356cd3c3c2bdf233c795937783e12a6d6cb83042b7401e781d1",
      "transactionIndex": "0x25",
      "blockHash": "0xba4a1800b0755644397df4711c5e5bbdffa922af3fc6657389dba66ddc149c94",
      "blockNumber": "0x2f98443",
      "gasUsed": "0x28580",
      "effectiveGasPrice": "0x5d21dba00",
      "from": "0x81d48d2c5d0744e8ef7a5c35cdceb0a27a1c707b",
      "to": "0x962aba0a590981cf9c5b336ac34922c82f203165",
      "contractAddress": null
    },
    {
      "status": "0x1",
      "cumulativeGasUsed": "0x17e57a",
      "logs": [
        {
          "address": "0x4d82b6e528d3c2e1a3592e14863ec95eaef4ff85",
          "topics": [
            "0xc3d58168c5ae7397731d063d5bbf3d657854427343f4c083240f7aacaa2d0f62",
            "0x000000000000000000000000962aba0a590981cf9c5b336ac34922c82f203165",
            "0x00000000000000000000000081d48d2c5d0744e8ef7a5c35cdceb0a27a1c707b",
            "0x000000000000000000000000962aba0a590981cf9c5b336ac34922c82f203165"
          ],
          "data": "0x0000000000000000000000000000000000000000000000000000000000000013000000000000000000000000000000000000000000000000000000000000012c",
          "blockHash": "0xba4a1800b0755644397df4711c5e5bbdffa922af3fc6657389dba66ddc149c94",
          "blockNumber": "0x2f98443",
          "blockTimestamp": "0x6a471ff9",
          "transactionHash": "0x8b2f53113ed3bfdd5858f69107e4baf80c1817b96f6ab8b3c12edc47afc3864d",
          "transactionIndex": "0x26",
          "logIndex": "0x10",
          "removed": false
        },
        {
          "address": "0x962aba0a590981cf9c5b336ac34922c82f203165",
          "topics": [
            "0x1e9d45789795021c76ee4b02700b847667a4f82249aed1f3a7d92b7806d1087e",
            "0x000000000000000000000000000000000000000000000000000000000000001b",
            "0x0000000000000000000000000000000000000000000000000000000000000013",
            "0x00000000000000000000000081d48d2c5d0744e8ef7a5c35cdceb0a27a1c707b"
          ],
          "data": "0x0000000000000000000000000000000000000000000000000da7dec95afc0000000000000000000000000000000000000000000000000000000000000000012c",
          "blockHash": "0xba4a1800b0755644397df4711c5e5bbdffa922af3fc6657389dba66ddc149c94",
          "blockNumber": "0x2f98443",
          "blockTimestamp": "0x6a471ff9",
          "transactionHash": "0x8b2f53113ed3bfdd5858f69107e4baf80c1817b96f6ab8b3c12edc47afc3864d",
          "transactionIndex": "0x26",
          "logIndex": "0x11",
          "removed": false
        }
      ],
      "logsBloom": "0x20000000400000000000000000800000000400000010000000000000000000000000000040000000000000000008000000000000000000000002000000002000000000000000000000000000000000000000000000000000001000000004000000000000000000010000002000200000000000000000000000000000000000000000000000000000000000000000000000000000000000000000000000000000000000000100000000000000000000000001000000008000000000000000000000000000000000000000000000000000000000000009000000000000400000000600000000000000000000000000000000000000000000000200080000000000",
      "type": "0x2",
      "transactionHash": "0x8b2f53113ed3bfdd5858f69107e4baf80c1817b96f6ab8b3c12edc47afc3864d",
      "transactionIndex": "0x26",
      "blockHash": "0xba4a1800b0755644397df4711c5e5bbdffa922af3fc6657389dba66ddc149c94",
      "blockNumber": "0x2f98443",
      "gasUsed": "0x2858c",
      "effectiveGasPrice": "0x5d21dba00",
      "from": "0x81d48d2c5d0744e8ef7a5c35cdceb0a27a1c707b",
      "to": "0x962aba0a590981cf9c5b336ac34922c82f203165",
      "contractAddress": null
    },
    {
      "status": "0x1",
      "cumulativeGasUsed": "0x1a6afa",
      "logs": [
        {
          "address": "0x4d82b6e528d3c2e1a3592e14863ec95eaef4ff85",
          "topics": [
            "0xc3d58168c5ae7397731d063d5bbf3d657854427343f4c083240f7aacaa2d0f62",
            "0x000000000000000000000000962aba0a590981cf9c5b336ac34922c82f203165",
            "0x00000000000000000000000081d48d2c5d0744e8ef7a5c35cdceb0a27a1c707b",
            "0x000000000000000000000000962aba0a590981cf9c5b336ac34922c82f203165"
          ],
          "data": "0x00000000000000000000000000000000000000000000000000000000000000130000000000000000000000000000000000000000000000000000000000000064",
          "blockHash": "0xba4a1800b0755644397df4711c5e5bbdffa922af3fc6657389dba66ddc149c94",
          "blockNumber": "0x2f98443",
          "blockTimestamp": "0x6a471ff9",
          "transactionHash": "0x47757ac1d5892d894aa83e7ac6a20247acd9fd1a47ec710406c362bfa29251ff",
          "transactionIndex": "0x27",
          "logIndex": "0x12",
          "removed": false
        },
        {
          "address": "0x962aba0a590981cf9c5b336ac34922c82f203165",
          "topics": [
            "0x1e9d45789795021c76ee4b02700b847667a4f82249aed1f3a7d92b7806d1087e",
            "0x000000000000000000000000000000000000000000000000000000000000001c",
            "0x0000000000000000000000000000000000000000000000000000000000000013",
            "0x00000000000000000000000081d48d2c5d0744e8ef7a5c35cdceb0a27a1c707b"
          ],
          "data": "0x0000000000000000000000000000000000000000000000000e799f5a8e8600000000000000000000000000000000000000000000000000000000000000000064",
          "blockHash": "0xba4a1800b0755644397df4711c5e5bbdffa922af3fc6657389dba66ddc149c94",
          "blockNumber": "0x2f98443",
          "blockTimestamp": "0x6a471ff9",
          "transactionHash": "0x47757ac1d5892d894aa83e7ac6a20247acd9fd1a47ec710406c362bfa29251ff",
          "transactionIndex": "0x27",
          "logIndex": "0x13",
          "removed": false
        }
      ],
      "logsBloom": "0x20000000400000000000000000800000000400000000000000000000000000000000000040000000000000000008000000000000000000200002000000002000000000000000000000000000000000000000000000000000001000000004000000000000000000010000002000200000000000000000000000000000000000000000000000000000000000000000000200000000000000000000000000000000000000000000000000000002000000000001000000000000000000000000000000000000000000000000000000000000000000000009000000000000400000000600000000000000000000000000000000000000000000000200080000000000",
      "type": "0x2",
      "transactionHash": "0x47757ac1d5892d894aa83e7ac6a20247acd9fd1a47ec710406c362bfa29251ff",
      "transactionIndex": "0x27",
      "blockHash": "0xba4a1800b0755644397df4711c5e5bbdffa922af3fc6657389dba66ddc149c94",
      "blockNumber": "0x2f98443",
      "gasUsed": "0x28580",
      "effectiveGasPrice": "0x5d21dba00",
      "from": "0x81d48d2c5d0744e8ef7a5c35cdceb0a27a1c707b",
      "to": "0x962aba0a590981cf9c5b336ac34922c82f203165",
      "contractAddress": null
    },
    {
      "status": "0x1",
      "cumulativeGasUsed": "0x1902ec",
      "logs": [
        {
          "address": "0xfffffffffffffffffffffffffffffffffffffffe",
          "topics": [
            "0xddf252ad1be2c89b69c2b068fc378daa952ba7f163c4a11628f55a4df523b3ef",
            "0x00000000000000000000000081d48d2c5d0744e8ef7a5c35cdceb0a27a1c707b",
            "0x000000000000000000000000962aba0a590981cf9c5b336ac34922c82f203165"
          ],
          "data": "0x000000000000000000000000000000000000000000000005a7823f5fac580000",
          "blockHash": "0xec80b2d8dcb35f630981f72007eea528be3780c103dd4ab6c339b5388ac5d19d",
          "blockNumber": "0x2f98445",
          "blockTimestamp": "0x6a471ffb",
          "transactionHash": "0x16416cfa0adb5d8a0eefcd08248a72319c665194926e5ce330b5b90f0246958d",
          "transactionIndex": "0x23",
          "logIndex": "0x20",
          "removed": false
        },
        {
          "address": "0x962aba0a590981cf9c5b336ac34922c82f203165",
          "topics": [
            "0xd375d54616745fe1f13240876f3ce1bf39b50bdd13c0d5b7fadfc576a4c9844b",
            "0x000000000000000000000000000000000000000000000000000000000000001c",
            "0x0000000000000000000000000000000000000000000000000000000000000013",
            "0x00000000000000000000000081d48d2c5d0744e8ef7a5c35cdceb0a27a1c707b"
          ],
          "data": "0x00000000000000000000000081d48d2c5d0744e8ef7a5c35cdceb0a27a1c707b0000000000000000000000000000000000000000000000000000000000000064000000000000000000000000000000000000000000000005a7823f5fac580000000000000000000000000000000000000000000000000000073ccfad47430000",
          "blockHash": "0xec80b2d8dcb35f630981f72007eea528be3780c103dd4ab6c339b5388ac5d19d",
          "blockNumber": "0x2f98445",
          "blockTimestamp": "0x6a471ffb",
          "transactionHash": "0x16416cfa0adb5d8a0eefcd08248a72319c665194926e5ce330b5b90f0246958d",
          "transactionIndex": "0x23",
          "logIndex": "0x21",
          "removed": false
        },
        {
          "address": "0x4d82b6e528d3c2e1a3592e14863ec95eaef4ff85",
          "topics": [
            "0xc3d58168c5ae7397731d063d5bbf3d657854427343f4c083240f7aacaa2d0f62",
            "0x000000000000000000000000962aba0a590981cf9c5b336ac34922c82f203165",
            "0x000000000000000000000000962aba0a590981cf9c5b336ac34922c82f203165",
            "0x00000000000000000000000081d48d2c5d0744e8ef7a5c35cdceb0a27a1c707b"
          ],
          "data": "0x00000000000000000000000000000000000000000000000000000000000000130000000000000000000000000000000000000000000000000000000000000064",
          "blockHash": "0xec80b2d8dcb35f630981f72007eea528be3780c103dd4ab6c339b5388ac5d19d",
          "blockNumber": "0x2f98445",
          "blockTimestamp": "0x6a471ffb",
          "transactionHash": "0x16416cfa0adb5d8a0eefcd08248a72319c665194926e5ce330b5b90f0246958d",
          "transactionIndex": "0x23",
          "logIndex": "0x22",
          "removed": false
        },
        {
          "address": "0xfffffffffffffffffffffffffffffffffffffffe",
          "topics": [
            "0xddf252ad1be2c89b69c2b068fc378daa952ba7f163c4a11628f55a4df523b3ef",
            "0x000000000000000000000000962aba0a590981cf9c5b336ac34922c82f203165",
            "0x00000000000000000000000081d48d2c5d0744e8ef7a5c35cdceb0a27a1c707b"
          ],
          "data": "0x000000000000000000000000000000000000000000000005a0456fb265150000",
          "blockHash": "0xec80b2d8dcb35f630981f72007eea528be3780c103dd4ab6c339b5388ac5d19d",
          "blockNumber": "0x2f98445",
          "blockTimestamp": "0x6a471ffb",
          "transactionHash": "0x16416cfa0adb5d8a0eefcd08248a72319c665194926e5ce330b5b90f0246958d",
          "transactionIndex": "0x23",
          "logIndex": "0x23",
          "removed": false
        },
        {
          "address": "0xfffffffffffffffffffffffffffffffffffffffe",
          "topics": [
            "0xddf252ad1be2c89b69c2b068fc378daa952ba7f163c4a11628f55a4df523b3ef",
            "0x000000000000000000000000962aba0a590981cf9c5b336ac34922c82f203165",
            "0x00000000000000000000000084e243a60a75efe615537af49c5eaee8f3c32ed9"
          ],
          "data": "0x000000000000000000000000000000000000000000000000073ccfad47430000",
          "blockHash": "0xec80b2d8dcb35f630981f72007eea528be3780c103dd4ab6c339b5388ac5d19d",
          "blockNumber": "0x2f98445",
          "blockTimestamp": "0x6a471ffb",
          "transactionHash": "0x16416cfa0adb5d8a0eefcd08248a72319c665194926e5ce330b5b90f0246958d",
          "transactionIndex": "0x23",
          "logIndex": "0x24",
          "removed": false
        }
      ],
      "logsBloom": "0x20000000400000000000000000800000000000000000000000000000000000000000000040000000000000000200000000800000000000200002000000002000000000000000000000000008000000000000000000000000001000000004000000000000000000012000000000200000000000000000000000000010000000000000000000200000000000000000000200000000000000000000000000000000000000000000000000000002000000000001000000000000000000000000000000000002000000000008010000000000000000000009000000000000400000400600000000000000000000000000000000000000000000000200080000880000",
      "type": "0x2",
      "transactionHash": "0x16416cfa0adb5d8a0eefcd08248a72319c665194926e5ce330b5b90f0246958d",
      "transactionIndex": "0x23",
      "blockHash": "0xec80b2d8dcb35f630981f72007eea528be3780c103dd4ab6c339b5388ac5d19d",
      "blockNumber": "0x2f98445",
      "gasUsed": "0x12167",
      "effectiveGasPrice": "0x5d21dba00",
      "from": "0x81d48d2c5d0744e8ef7a5c35cdceb0a27a1c707b",
      "to": "0x962aba0a590981cf9c5b336ac34922c82f203165",
      "contractAddress": null
    },
    {
      "status": "0x1",
      "cumulativeGasUsed": "0x1b8884",
      "logs": [
        {
          "address": "0x4d82b6e528d3c2e1a3592e14863ec95eaef4ff85",
          "topics": [
            "0xc3d58168c5ae7397731d063d5bbf3d657854427343f4c083240f7aacaa2d0f62",
            "0x000000000000000000000000962aba0a590981cf9c5b336ac34922c82f203165",
            "0x00000000000000000000000081d48d2c5d0744e8ef7a5c35cdceb0a27a1c707b",
            "0x000000000000000000000000962aba0a590981cf9c5b336ac34922c82f203165"
          ],
          "data": "0x0000000000000000000000000000000000000000000000000000000000000014000000000000000000000000000000000000000000000000000000000000012c",
          "blockHash": "0xec80b2d8dcb35f630981f72007eea528be3780c103dd4ab6c339b5388ac5d19d",
          "blockNumber": "0x2f98445",
          "blockTimestamp": "0x6a471ffb",
          "transactionHash": "0xae19405679cda779fccbac2fcc43e862cf55c7cce14a92c71d48db84f18a4e0c",
          "transactionIndex": "0x24",
          "logIndex": "0x25",
          "removed": false
        },
        {
          "address": "0x962aba0a590981cf9c5b336ac34922c82f203165",
          "topics": [
            "0x1e9d45789795021c76ee4b02700b847667a4f82249aed1f3a7d92b7806d1087e",
            "0x000000000000000000000000000000000000000000000000000000000000001d",
            "0x0000000000000000000000000000000000000000000000000000000000000014",
            "0x00000000000000000000000081d48d2c5d0744e8ef7a5c35cdceb0a27a1c707b"
          ],
          "data": "0x0000000000000000000000000000000000000000000000000725a5c57b538000000000000000000000000000000000000000000000000000000000000000012c",
          "blockHash": "0xec80b2d8dcb35f630981f72007eea528be3780c103dd4ab6c339b5388ac5d19d",
          "blockNumber": "0x2f98445",
          "blockTimestamp": "0x6a471ffb",
          "transactionHash": "0xae19405679cda779fccbac2fcc43e862cf55c7cce14a92c71d48db84f18a4e0c",
          "transactionIndex": "0x24",
          "logIndex": "0x26",
          "removed": false
        }
      ],
      "logsBloom": "0x00000080400000000000000000000000000400000000000000000000000000000000000000000000000000000008000000002000000000000002000200002000000000000000000000000000000000000000000000000010001000000004000000000000000000010000002000200000000000000000000000000000000000000000000000000000000000000000000000000000000400000000000000000000000000000000000020000000000000000001000000000000000000000000000000000000000000000000000000000000000000000009000000000000400000000600000000000000000000000000000000000000000000000200080000000000",
      "type": "0x2",
      "transactionHash": "0xae19405679cda779fccbac2fcc43e862cf55c7cce14a92c71d48db84f18a4e0c",
      "transactionIndex": "0x24",
      "blockHash": "0xec80b2d8dcb35f630981f72007eea528be3780c103dd4ab6c339b5388ac5d19d",
      "blockNumber": "0x2f98445",
      "gasUsed": "0x28598",
      "effectiveGasPrice": "0x5d21dba00",
      "from": "0x81d48d2c5d0744e8ef7a5c35cdceb0a27a1c707b",
      "to": "0x962aba0a590981cf9c5b336ac34922c82f203165",
      "contractAddress": null
    },
    {
      "status": "0x1",
      "cumulativeGasUsed": "0x1fc20d",
      "logs": [
        {
          "address": "0x4d82b6e528d3c2e1a3592e14863ec95eaef4ff85",
          "topics": [
            "0xc3d58168c5ae7397731d063d5bbf3d657854427343f4c083240f7aacaa2d0f62",
            "0x000000000000000000000000962aba0a590981cf9c5b336ac34922c82f203165",
            "0x00000000000000000000000081d48d2c5d0744e8ef7a5c35cdceb0a27a1c707b",
            "0x000000000000000000000000962aba0a590981cf9c5b336ac34922c82f203165"
          ],
          "data": "0x00000000000000000000000000000000000000000000000000000000000000140000000000000000000000000000000000000000000000000000000000000064",
          "blockHash": "0x24bb418a4e987c260f1cb0a24bc1bce91567bf374506134d5fda9e99bd4b5df8",
          "blockNumber": "0x2f98446",
          "blockTimestamp": "0x6a471ffb",
          "transactionHash": "0xad5d71ea865b79702048442726ec2a6def3f1d5bdab2c380c78116b3529c292a",
          "transactionIndex": "0xe",
          "logIndex": "0x18",
          "removed": false
        },
        {
          "address": "0x962aba0a590981cf9c5b336ac34922c82f203165",
          "topics": [
            "0x1e9d45789795021c76ee4b02700b847667a4f82249aed1f3a7d92b7806d1087e",
            "0x000000000000000000000000000000000000000000000000000000000000001e",
            "0x0000000000000000000000000000000000000000000000000000000000000014",
            "0x00000000000000000000000081d48d2c5d0744e8ef7a5c35cdceb0a27a1c707b"
          ],
          "data": "0x000000000000000000000000000000000000000000000000075af03122f500000000000000000000000000000000000000000000000000000000000000000064",
          "blockHash": "0x24bb418a4e987c260f1cb0a24bc1bce91567bf374506134d5fda9e99bd4b5df8",
          "blockNumber": "0x2f98446",
          "blockTimestamp": "0x6a471ffb",
          "transactionHash": "0xad5d71ea865b79702048442726ec2a6def3f1d5bdab2c380c78116b3529c292a",
          "transactionIndex": "0xe",
          "logIndex": "0x19",
          "removed": false
        }
      ],
      "logsBloom": "0x00000000400000000000000000000000000400000000000000000000000000000000000000000000000000000408000000002000000000000002000000002000000000000000008000000000000000000000000000000000001000000004000000000000000000010000002000200000000000000000000000000000000000000000000000000000000000000000000000000000000400000000000000000000000000000000000020000000000000000001000000000000000000000000000000000000000000000000000000000000000000000009000000000000400000000600000000000000080000000000000000000000000000000200080000000000",
      "type": "0x2",
      "transactionHash": "0xad5d71ea865b79702048442726ec2a6def3f1d5bdab2c380c78116b3529c292a",
      "transactionIndex": "0xe",
      "blockHash": "0x24bb418a4e987c260f1cb0a24bc1bce91567bf374506134d5fda9e99bd4b5df8",
      "blockNumber": "0x2f98446",
      "gasUsed": "0x28580",
      "effectiveGasPrice": "0x5d21dba00",
      "from": "0x81d48d2c5d0744e8ef7a5c35cdceb0a27a1c707b",
      "to": "0x962aba0a590981cf9c5b336ac34922c82f203165",
      "contractAddress": null
    }
  ],
  "libraries": [],
  "pending": [],
  "returns": {},
  "timestamp": 1783046141165,
  "chain": 5042002,
  "commit": "25e4518"
}