{
  "transactions": [
    {
      "hash": "0x21191f5f2593114242fe0faf3a510816a07db9cc7994aecf0b3d87cf996f1f51",
      "transactionType": "CALL",
      "contractName": null,
      "contractAddress": "0x962aba0a590981cf9c5b336ac34922c82f203165",
      "function": "list(uint256,uint256,uint256)",
      "arguments": [
        "21",
        "100",
        "235000000000000000"
      ],
      "transaction": {
        "from": "0x81d48d2c5d0744e8ef7a5c35cdceb0a27a1c707b",
        "to": "0x962aba0a590981cf9c5b336ac34922c82f203165",
        "gas": "0x37ba8",
        "value": "0x0",
        "input": "0x19aeb490000000000000000000000000000000000000000000000000000000000000001500000000000000000000000000000000000000000000000000000000000000640000000000000000000000000000000000000000000000000342e34142378000",
        "nonce": "0x216",
        "chainId": "0x4cef52"
      },
      "additionalContracts": [],
      "isFixedGasLimit": false
    },
    {
      "hash": "0x2f1b89c505c86d01d23ba267d4e6621416fc2b5fd1da17a276c2a824228c7df7",
      "transactionType": "CALL",
      "contractName": null,
      "contractAddress": "0x962aba0a590981cf9c5b336ac34922c82f203165",
      "function": "list(uint256,uint256,uint256)",
      "arguments": [
        "21",
        "200",
        "242500000000000000"
      ],
      "transaction": {
        "from": "0x81d48d2c5d0744e8ef7a5c35cdceb0a27a1c707b",
        "to": "0x962aba0a590981cf9c5b336ac34922c82f203165",
        "gas": "0x37ba8",
        "value": "0x0",
        "input": "0x19aeb490000000000000000000000000000000000000000000000000000000000000001500000000000000000000000000000000000000000000000000000000000000c8000000000000000000000000000000000000000000000000035d887716084000",
        "nonce": "0x217",
        "chainId": "0x4cef52"
      },
      "additionalContracts": [],
      "isFixedGasLimit": false
    },
    {
      "hash": "0xb776be8f476f0c76d746aa4201fcd0881dbcbf7482a3b20b12775568ccc7c306",
      "transactionType": "CALL",
      "contractName": null,
      "contractAddress": "0x962aba0a590981cf9c5b336ac34922c82f203165",
      "function": "list(uint256,uint256,uint256)",
      "arguments": [
        "21",
        "300",
        "257500000000000000"
      ],
      "transaction": {
        "from": "0x81d48d2c5d0744e8ef7a5c35cdceb0a27a1c707b",
        "to": "0x962aba0a590981cf9c5b336ac34922c82f203165",
        "gas": "0x37bb9",
        "value": "0x0",
        "input": "0x19aeb4900000000000000000000000000000000000000000000000000000000000000015000000000000000000000000000000000000000000000000000000000000012c0000000000000000000000000000000000000000000000000392d2e2bda9c000",
        "nonce": "0x218",
        "chainId": "0x4cef52"
      },
      "additionalContracts": [],
      "isFixedGasLimit": false
    },
    {
      "hash": "0xd3b79ffc757fda33d0a0ae063f8810d75e549d076d47485533c25fd793d91cdf",
      "transactionType": "CALL",
      "contractName": null,
      "contractAddress": "0x962aba0a590981cf9c5b336ac34922c82f203165",
      "function": "buy(uint256,uint256)",
      "arguments": [
        "32",
        "200"
      ],
      "transaction": {
        "from": "0x81d48d2c5d0744e8ef7a5c35cdceb0a27a1c707b",
        "to": "0x962aba0a590981cf9c5b336ac34922c82f203165",
        "gas": "0x18fbc",
        "value": "0x2a1129d0936720000",
        "input": "0xd6febde8000000000000000000000000000000000000000000000000000000000000002000000000000000000000000000000000000000000000000000000000000000c8",
        "nonce": "0x219",
        "chainId": "0x4cef52"
      },
      "additionalContracts": [],
      "isFixedGasLimit": false
    },
    {
      "hash": "0x46db9feb31ad47c91bbacac39ff73133c7f2d571e89983eff318c474fa4996d1",
      "transactionType": "CALL",
      "contractName": null,
      "contractAddress": "0x962aba0a590981cf9c5b336ac34922c82f203165",
      "function": "list(uint256,uint256,uint256)",
      "arguments": [
        "22",
        "200",
        "427500000000000000"
      ],
      "transaction": {
        "from": "0x81d48d2c5d0744e8ef7a5c35cdceb0a27a1c707b",
        "to": "0x962aba0a590981cf9c5b336ac34922c82f203165",
        "gas": "0x37ba8",
        "value": "0x0",
        "input": "0x19aeb490000000000000000000000000000000000000000000000000000000000000001600000000000000000000000000000000000000000000000000000000000000c800000000000000000000000000000000000000000000000005eec8fc297ac000",
        "nonce": "0x21a",
        "chainId": "0x4cef52"
      },
      "additionalContracts": [],
      "isFixedGasLimit": false
    },
    {
      "hash": "0x27c103c5730c8ee65e83857f32494c873fa9475dbb9f4c48ec94a5b911490d47",
      "transactionType": "CALL",
      "contractName": null,
      "contractAddress": "0x962aba0a590981cf9c5b336ac34922c82f203165",
      "function": "list(uint256,uint256,uint256)",
      "arguments": [
        "22",
        "300",
        "453150000000000000"
      ],
      "transaction": {
        "from": "0x81d48d2c5d0744e8ef7a5c35cdceb0a27a1c707b",
        "to": "0x962aba0a590981cf9c5b336ac34922c82f203165",
        "gas": "0x37bb9",
        "value": "0x0",
        "input": "0x19aeb4900000000000000000000000000000000000000000000000000000000000000016000000000000000000000000000000000000000000000000000000000000012c0000000000000000000000000000000000000000000000000649e9862bf7e000",
        "nonce": "0x21b",
        "chainId": "0x4cef52"
      },
      "additionalContracts": [],
      "isFixedGasLimit": false
    },
    {
      "hash": "0xdde0017ef6cc78ae908b18990deca15037721cf0f1eb80400fae14df463a3c81",
      "transactionType": "CALL",
      "contractName": null,
      "contractAddress": "0x962aba0a590981cf9c5b336ac34922c82f203165",
      "function": "list(uint256,uint256,uint256)",
      "arguments": [
        "23",
        "300",
        "285180000000000000"
      ],
      "transaction": {
        "from": "0x81d48d2c5d0744e8ef7a5c35cdceb0a27a1c707b",
        "to": "0x962aba0a590981cf9c5b336ac34922c82f203165",
        "gas": "0x37bb9",
        "value": "0x0",
        "input": "0x19aeb4900000000000000000000000000000000000000000000000000000000000000017000000000000000000000000000000000000000000000000000000000000012c00000000000000000000000000000000000000000000000003f529b2f50bc000",
        "nonce": "0x21c",
        "chainId": "0x4cef52"
      },
      "additionalContracts": [],
      "isFixedGasLimit": false
    },
    {
      "hash": "0xcfae0314f08f31a146bc4081a0b74c8e039b9b5642384268bd22b12a3b866b36",
      "transactionType": "CALL",
      "contractName": null,
      "contractAddress": "0x962aba0a590981cf9c5b336ac34922c82f203165",
      "function": "list(uint256,uint256,uint256)",
      "arguments": [
        "23",
        "100",
        "302820000000000000"
      ],
      "transaction": {
        "from": "0x81d48d2c5d0744e8ef7a5c35cdceb0a27a1c707b",
        "to": "0x962aba0a590981cf9c5b336ac34922c82f203165",
        "gas": "0x37ba8",
        "value": "0x0",
        "input": "0x19aeb490000000000000000000000000000000000000000000000000000000000000001700000000000000000000000000000000000000000000000000000000000000640000000000000000000000000000000000000000000000000433d52f82e24000",
        "nonce": "0x21d",
        "chainId": "0x4cef52"
      },
      "additionalContracts": [],
      "isFixedGasLimit": false
    },
    {
      "hash": "0xf0c0f6a7453302852a8ea3627830bd59c94efc869c66515aeece6dec23852807",
      "transactionType": "CALL",
      "contractName": null,
      "contractAddress": "0x962aba0a590981cf9c5b336ac34922c82f203165",
      "function": "list(uint256,uint256,uint256)",
      "arguments": [
        "23",
        "200",
        "317520000000000000"
      ],
      "transaction": {
        "from": "0x81d48d2c5d0744e8ef7a5c35cdceb0a27a1c707b",
        "to": "0x962aba0a590981cf9c5b336ac34922c82f203165",
        "gas": "0x37b98",
        "value": "0x0",
        "input": "0x19aeb490000000000000000000000000000000000000000000000000000000000000001700000000000000000000000000000000000000000000000000000000000000c800000000000000000000000000000000000000000000000004680ec1f9150000",
        "nonce": "0x21e",
        "chainId": "0x4cef52"
      },
      "additionalContracts": [],
      "isFixedGasLimit": false
    },
    {
      "hash": "0x72eeb61b093938416dbb89752c79734d1099fe5595413a1af255873338153de5",
      "transactionType": "CALL",
      "contractName": null,
      "contractAddress": "0x962aba0a590981cf9c5b336ac34922c82f203165",
      "function": "buy(uint256,uint256)",
      "arguments": [
        "37",
        "100"
      ],
      "transaction": {
        "from": "0x81d48d2c5d0744e8ef7a5c35cdceb0a27a1c707b",
        "to": "0x962aba0a590981cf9c5b336ac34922c82f203165",
        "gas": "0x18fbc",
        "value": "0x1a43f468f20610000",
        "input": "0xd6febde800000000000000000000000000000000000000000000000000000000000000250000000000000000000000000000000000000000000000000000000000000064",
        "nonce": "0x21f",
        "chainId": "0x4cef52"
      },
      "additionalContracts": [],
      "isFixedGasLimit": false
    },
    {
      "hash": "0x9d43e10cc26ee777dae582565e73b46455b7c763588d25b2435b75a23c0605fa",
      "transactionType": "CALL",
      "contractName": null,
      "contractAddress": "0x962aba0a590981cf9c5b336ac34922c82f203165",
      "function": "list(uint256,uint256,uint256)",
      "arguments": [
        "24",
        "100",
        "22560000000000000"
      ],
      "transaction": {
        "from": "0x81d48d2c5d0744e8ef7a5c35cdceb0a27a1c707b",
        "to": "0x962aba0a590981cf9c5b336ac34922c82f203165",
        "gas": "0x37b87",
        "value": "0x0",
        "input": "0x19aeb490000000000000000000000000000000000000000000000000000000000000001800000000000000000000000000000000000000000000000000000000000000640000000000000000000000000000000000000000000000000050263352220000",
        "nonce": "0x220",
        "chainId": "0x4cef52"
      },
      "additionalContracts": [],
      "isFixedGasLimit": false
    },
    {
      "hash": "0x68bbb52950fb67ae0c9b5a73bc20d8d93a192b7fa2b82de741186691577ba375",
      "transactionType": "CALL",
      "contractName": null,
      "contractAddress": "0x962aba0a590981cf9c5b336ac34922c82f203165",
      "function": "list(uint256,uint256,uint256)",
      "arguments": [
        "24",
        "200",
        "24000000000000000"
      ],
      "transaction": {
        "from": "0x81d48d2c5d0744e8ef7a5c35cdceb0a27a1c707b",
        "to": "0x962aba0a590981cf9c5b336ac34922c82f203165",
        "gas": "0x37b87",
        "value": "0x0",
        "input": "0x19aeb490000000000000000000000000000000000000000000000000000000000000001800000000000000000000000000000000000000000000000000000000000000c8000000000000000000000000000000000000000000000000005543df729c0000",
        "nonce": "0x221",
        "chainId": "0x4cef52"
      },
      "additionalContracts": [],
      "isFixedGasLimit": false
    }
  ],
  "receipts": [
    {
      "status": "0x1",
      "cumulativeGasUsed": "0x22013a",
      "logs": [
        {
          "address": "0x4d82b6e528d3c2e1a3592e14863ec95eaef4ff85",
          "topics": [
            "0xc3d58168c5ae7397731d063d5bbf3d657854427343f4c083240f7aacaa2d0f62",
            "0x000000000000000000000000962aba0a590981cf9c5b336ac34922c82f203165",
            "0x00000000000000000000000081d48d2c5d0744e8ef7a5c35cdceb0a27a1c707b",
            "0x000000000000000000000000962aba0a590981cf9c5b336ac34922c82f203165"
          ],
          "data": "0x00000000000000000000000000000000000000000000000000000000000000150000000000000000000000000000000000000000000000000000000000000064",
          "blockHash": "0xeef9a7360cb94fadbd1c39f5d015dfb5e99cd500dd8ed1242a35729955854eb8",
          "blockNumber": "0x2f9ae3f",
          "blockTimestamp": "0x6a473568",
          "transactionHash": "0xb776be8f476f0c76d746aa4201fcd0881dbcbf7482a3b20b12775568ccc7c306",
          "transactionIndex": "0xa",
          "logIndex": "0x28",
          "removed": false
        },
        {
          "address": "0x962aba0a590981cf9c5b336ac34922c82f203165",
          "topics": [
            "0x1e9d45789795021c76ee4b02700b847667a4f82249aed1f3a7d92b7806d1087e",
            "0x000000000000000000000000000000000000000000000000000000000000001f",
            "0x0000000000000000000000000000000000000000000000000000000000000015",
            "0x00000000000000000000000081d48d2c5d0744e8ef7a5c35cdceb0a27a1c707b"
          ],
          "data": "0x0000000000000000000000000000000000000000000000000342e341423780000000000000000000000000000000000000000000000000000000000000000064",
          "blockHash": "0xeef9a7360cb94fadbd1c39f5d015dfb5e99cd500dd8ed1242a35729955854eb8",
          "blockNumber": "0x2f9ae3f",
          "blockTimestamp": "0x6a473568",
          "transactionHash": "0xb776be8f476f0c76d746aa4201fcd0881dbcbf7482a3b20b12775568ccc7c306",
          "transactionIndex": "0xa",
          "logIndex": "0x29",
          "removed": false
        }
      ],
      "logsBloom": "0x00000000400000000000000400000000000400000000000000000000000000000000000000000000000000000008000000000000000000000002000000002000001000000000000000000000000000000000000000000000001000000004000000000000000000010000002000200000000000000000000000000000000000000000000000000000000000000000000000000000000000000000000000000000000000000000000000000000010000000001000000000000000000000001000000000000000000000000000000000000000000000009000000000000400000002600000000000000000000000000000000000000000000000300080000000000",
      "type": "0x2",
      "transactionHash": "0xb776be8f476f0c76d746aa4201fcd0881dbcbf7482a3b20b12775568ccc7c306",
      "transactionIndex": "0xa",
      "blockHash": "0xeef9a7360cb94fadbd1c39f5d015dfb5e99cd500dd8ed1242a35729955854eb8",
      "blockNumber": "0x2f9ae3f",
      "gasUsed": "0x2858c",
      "effectiveGasPrice": "0x5d21dba00",
      "from": "0x81d48d2c5d0744e8ef7a5c35cdceb0a27a1c707b",
      "to": "0x962aba0a590981cf9c5b336ac34922c82f203165",
      "contractAddress": null
    },
    {
      "status": "0x1",
      "cumulativeGasUsed": "0x2486c6",
      "logs": [
        {
          "address": "0x4d82b6e528d3c2e1a3592e14863ec95eaef4ff85",
          "topics": [
            "0xc3d58168c5ae7397731d063d5bbf3d657854427343f4c083240f7aacaa2d0f62",
            "0x000000000000000000000000962aba0a590981cf9c5b336ac34922c82f203165",
            "0x00000000000000000000000081d48d2c5d0744e8ef7a5c35cdceb0a27a1c707b",
            "0x000000000000000000000000962aba0a590981cf9c5b336ac34922c82f203165"
          ],
          "data": "0x000000000000000000000000000000000000000000000000000000000000001500000000000000000000000000000000000000000000000000000000000000c8",
          "blockHash": "0xeef9a7360cb94fadbd1c39f5d015dfb5e99cd500dd8ed1242a35729955854eb8",
          "blockNumber": "0x2f9ae3f",
          "blockTimestamp": "0x6a473568",
          "transactionHash": "0x2f1b89c505c86d01d23ba267d4e6621416fc2b5fd1da17a276c2a824228c7df7",
          "transactionIndex": "0xb",
          "logIndex": "0x2a",
          "removed": false
        },
        {
          "address": "0x962aba0a590981cf9c5b336ac34922c82f203165",
          "topics": [
            "0x1e9d45789795021c76ee4b02700b847667a4f82249aed1f3a7d92b7806d1087e",
            "0x0000000000000000000000000000000000000000000000000000000000000020",
            "0x0000000000000000000000000000000000000000000000000000000000000015",
            "0x00000000000000000000000081d48d2c5d0744e8ef7a5c35cdceb0a27a1c707b"
          ],
          "data": "0x000000000000000000000000000000000000000000000000035d88771608400000000000000000000000000000000000000000000000000000000000000000c8",
          "blockHash": "0xeef9a7360cb94fadbd1c39f5d015dfb5e99cd500dd8ed1242a35729955854eb8",
          "blockNumber": "0x2f9ae3f",
          "blockTimestamp": "0x6a473568",
          "transactionHash": "0x2f1b89c505c86d01d23ba267d4e6621416fc2b5fd1da17a276c2a824228c7df7",
          "transactionIndex": "0xb",
          "logIndex": "0x2b",
          "removed": false
        }
      ],
      "logsBloom": "0x00000000400000000000000000000000000400000000000000000000000000000000000000000000000000000008000000000000000000000002000000002000001000000000000000000000000000000000000000000000001000000004000000000000000000010000002000200000000000000000000000000000000000000000000000000000000000000000000000000000000000000000000000000000000400000000000000000000010000000001000000000000000000000000000000000000000000000000000000000000080000000009000000000000400000002600400000000000000000000000000000000000000000000200080000000000",
      "type": "0x2",
      "transactionHash": "0x2f1b89c505c86d01d23ba267d4e6621416fc2b5fd1da17a276c2a824228c7df7",
      "transactionIndex": "0xb",
      "blockHash": "0xeef9a7360cb94fadbd1c39f5d015dfb5e99cd500dd8ed1242a35729955854eb8",
      "blockNumber": "0x2f9ae3f",
      "gasUsed": "0x2858c",
      "effectiveGasPrice": "0x5d21dba00",
      "from": "0x81d48d2c5d0744e8ef7a5c35cdceb0a27a1c707b",
      "to": "0x962aba0a590981cf9c5b336ac34922c82f203165",
      "contractAddress": null
    },
    {
      "status": "0x1",
      "cumulativeGasUsed": "0x270c5e",
      "logs": [
        {
          "address": "0x4d82b6e528d3c2e1a3592e14863ec95eaef4ff85",
          "topics": [
            "0xc3d58168c5ae7397731d063d5bbf3d657854427343f4c083240f7aacaa2d0f62",
            "0x000000000000000000000000962aba0a590981cf9c5b336ac34922c82f203165",
            "0x00000000000000000000000081d48d2c5d0744e8ef7a5c35cdceb0a27a1c707b",
            "0x000000000000000000000000962aba0a590981cf9c5b336ac34922c82f203165"
          ],
          "data": "0x0000000000000000000000000000000000000000000000000000000000000015000000000000000000000000000000000000000000000000000000000000012c",
          "blockHash": "0xeef9a7360cb94fadbd1c39f5d015dfb5e99cd500dd8ed1242a35729955854eb8",
          "blockNumber": "0x2f9ae3f",
          "blockTimestamp": "0x6a473568",
          "transactionHash": "0xd3b79ffc757fda33d0a0ae063f8810d75e549d076d47485533c25fd793d91cdf",
          "transactionIndex": "0xc",
          "logIndex": "0x2c",
          "removed": false
        },
        {
          "address": "0x962aba0a590981cf9c5b336ac34922c82f203165",
          "topics": [
            "0x1e9d45789795021c76ee4b02700b847667a4f82249aed1f3a7d92b7806d1087e",
            "0x0000000000000000000000000000000000000000000000000000000000000021",
            "0x0000000000000000000000000000000000000000000000000000000000000015",
            "0x00000000000000000000000081d48d2c5d0744e8ef7a5c35cdceb0a27a1c707b"
          ],
          "data": "0x0000000000000000000000000000000000000000000000000392d2e2bda9c000000000000000000000000000000000000000000000000000000000000000012c",
          "blockHash": "0xeef9a7360cb94fadbd1c39f5d015dfb5e99cd500dd8ed1242a35729955854eb8",
          "blockNumber": "0x2f9ae3f",
          "blockTimestamp": "0x6a473568",
          "transactionHash": "0xd3b79ffc757fda33d0a0ae063f8810d75e549d076d47485533c25fd793d91cdf",
          "transactionIndex": "0xc",
          "logIndex": "0x2d",
          "removed": false
        }
      ],
      "logsBloom": "0x00000000400000000000000000000000000400000000000000000000000000020000000000000000000000000008000000000000000000000002000000002000001000000000000000000000000000000000000000000000001000000004000000000000000000010000002000200000000000000000000000000000040000000000000000000000000000000000000000000000000000000000000000000000000000000000000000000000010000000001000800000000000000000000000000000000000000000000000000000000000000000009000000000000400000002600000000000000000000000000000000000000000000000200080000000000",
      "type": "0x2",
      "transactionHash": "0xd3b79ffc757fda33d0a0ae063f8810d75e549d076d47485533c25fd793d91cdf",
      "transactionIndex": "0xc",
      "blockHash": "0xeef9a7360cb94fadbd1c39f5d015dfb5e99cd500dd8ed1242a35729955854eb8",
      "blockNumber": "0x2f9ae3f",
      "gasUsed": "0x28598",
      "effectiveGasPrice": "0x5d21dba00",
      "from": "0x81d48d2c5d0744e8ef7a5c35cdceb0a27a1c707b",
      "to": "0x962aba0a590981cf9c5b336ac34922c82f203165",
      "contractAddress": null
    },
    {
      "status": "0x1",
      "cumulativeGasUsed": "0x282dc5",
      "logs": [
        {
          "address": "0xfffffffffffffffffffffffffffffffffffffffe",
          "topics": [
            "0xddf252ad1be2c89b69c2b068fc378daa952ba7f163c4a11628f55a4df523b3ef",
            "0x00000000000000000000000081d48d2c5d0744e8ef7a5c35cdceb0a27a1c707b",
            "0x000000000000000000000000962aba0a590981cf9c5b336ac34922c82f203165"
          ],
          "data": "0x000000000000000000000000000000000000000000000002a1129d0936720000",
          "blockHash": "0xeef9a7360cb94fadbd1c39f5d015dfb5e99cd500dd8ed1242a35729955854eb8",
          "blockNumber": "0x2f9ae3f",
          "blockTimestamp": "0x6a473568",
          "transactionHash": "0xdde0017ef6cc78ae908b18990deca15037721cf0f1eb80400fae14df463a3c81",
          "transactionIndex": "0xd",
          "logIndex": "0x2e",
          "removed": false
        },
        {
          "address": "0x962aba0a590981cf9c5b336ac34922c82f203165",
          "topics": [
            "0xd375d54616745fe1f13240876f3ce1bf39b50bdd13c0d5b7fadfc576a4c9844b",
            "0x0000000000000000000000000000000000000000000000000000000000000020",
            "0x0000000000000000000000000000000000000000000000000000000000000015",
            "0x00000000000000000000000081d48d2c5d0744e8ef7a5c35cdceb0a27a1c707b"
          ],
          "data": "0x00000000000000000000000081d48d2c5d0744e8ef7a5c35cdceb0a27a1c707b00000000000000000000000000000000000000000000000000000000000000c8000000000000000000000000000000000000000000000002a1129d0936720000000000000000000000000000000000000000000000000000035d887716084000",
          "blockHash": "0xeef9a7360cb94fadbd1c39f5d015dfb5e99cd500dd8ed1242a35729955854eb8",
          "blockNumber": "0x2f9ae3f",
          "blockTimestamp": "0x6a473568",
          "transactionHash": "0xdde0017ef6cc78ae908b18990deca15037721cf0f1eb80400fae14df463a3c81",
          "transactionIndex": "0xd",
          "logIndex": "0x2f",
          "removed": false
        },
        {
          "address": "0x4d82b6e528d3c2e1a3592e14863ec95eaef4ff85",
          "topics": [
            "0xc3d58168c5ae7397731d063d5bbf3d657854427343f4c083240f7aacaa2d0f62",
            "0x000000000000000000000000962aba0a590981cf9c5b336ac34922c82f203165",
            "0x000000000000000000000000962aba0a590981cf9c5b336ac34922c82f203165",
            "0x00000000000000000000000081d48d2c5d0744e8ef7a5c35cdceb0a27a1c707b"
          ],
          "data": "0x000000000000000000000000000000000000000000000000000000000000001500000000000000000000000000000000000000000000000000000000000000c8",
          "blockHash": "0xeef9a7360cb94fadbd1c39f5d015dfb5e99cd500dd8ed1242a35729955854eb8",
          "blockNumber": "0x2f9ae3f",
          "blockTimestamp": "0x6a473568",
          "transactionHash": "0xdde0017ef6cc78ae908b18990deca15037721cf0f1eb80400fae14df463a3c81",
          "transactionIndex": "0xd",
          "logIndex": "0x30",
          "removed": false
        },
        {
          "address": "0xfffffffffffffffffffffffffffffffffffffffe",
          "topics": [
            "0xddf252ad1be2c89b69c2b068fc378daa952ba7f163c4a11628f55a4df523b3ef",
            "0x000000000000000000000000962aba0a590981cf9c5b336ac34922c82f203165",
            "0x00000000000000000000000081d48d2c5d0744e8ef7a5c35cdceb0a27a1c707b"
          ],
          "data": "0x0000000000000000000000000000000000000000000000029db514922069c000",
          "blockHash": "0xeef9a7360cb94fadbd1c39f5d015dfb5e99cd500dd8ed1242a35729955854eb8",
          "blockNumber": "0x2f9ae3f",
          "blockTimestamp": "0x6a473568",
          "transactionHash": "0xdde0017ef6cc78ae908b18990deca15037721cf0f1eb80400fae14df463a3c81",
          "transactionIndex": "0xd",
          "logIndex": "0x31",
          "removed": false
        },
        {
          "address": "0xfffffffffffffffffffffffffffffffffffffffe",
          "topics": [
            "0xddf252ad1be2c89b69c2b068fc378daa952ba7f163c4a11628f55a4df523b3ef",
            "0x000000000000000000000000962aba0a590981cf9c5b336ac34922c82f203165",
            "0x00000000000000000000000084e243a60a75efe615537af49c5eaee8f3c32ed9"
          ],
          "data": "0x000000000000000000000000000000000000000000000000035d887716084000",
          "blockHash": "0xeef9a7360cb94fadbd1c39f5d015dfb5e99cd500dd8ed1242a35729955854eb8",
          "blockNumber": "0x2f9ae3f",
          "blockTimestamp": "0x6a473568",
          "transactionHash": "0xdde0017ef6cc78ae908b18990deca15037721cf0f1eb80400fae14df463a3c81",
          "transactionIndex": "0xd",
          "logIndex": "0x32",
          "removed": false
        }
      ],
      "logsBloom": "0x00000000400000000000000000000000000000000000000000000000000000000000000000000000000000000200000000800000000000000002000000002000001000000000000000000008000000000000000000000000001000000004000000000000000000012000000000200000000000000000000000000010000000000000000000200000000000000000000000000000000000000000000000000000000400000000000000000000010000000001000000000000000000000000000000000002000000000008010000000000080000000009000000000000400000402600400000000000000000000000000000000000000000000200080000880000",
      "type": "0x2",
      "transactionHash": "0xdde0017ef6cc78ae908b18990deca15037721cf0f1eb80400fae14df463a3c81",
      "transactionIndex": "0xd",
      "blockHash": "0xeef9a7360cb94fadbd1c39f5d015dfb5e99cd500dd8ed1242a35729955854eb8",
      "blockNumber": "0x2f9ae3f",
      "gasUsed": "0x12167",
      "effectiveGasPrice": "0x5d21dba00",
      "from": "0x81d48d2c5d0744e8ef7a5c35cdceb0a27a1c707b",
      "to": "0x962aba0a590981cf9c5b336ac34922c82f203165",
      "contractAddress": null
    },
    {
      "status": "0x1",
      "cumulativeGasUsed": "0x2ab351",
      "logs": [
        {
          "address": "0x4d82b6e528d3c2e1a3592e14863ec95eaef4ff85",
          "topics": [
            "0xc3d58168c5ae7397731d063d5bbf3d657854427343f4c083240f7aacaa2d0f62",
            "0x000000000000000000000000962aba0a590981cf9c5b336ac34922c82f203165",
            "0x00000000000000000000000081d48d2c5d0744e8ef7a5c35cdceb0a27a1c707b",
            "0x000000000000000000000000962aba0a590981cf9c5b336ac34922c82f203165"
          ],
          "data": "0x000000000000000000000000000000000000000000000000000000000000001600000000000000000000000000000000000000000000000000000000000000c8",
          "blockHash": "0xeef9a7360cb94fadbd1c39f5d015dfb5e99cd500dd8ed1242a35729955854eb8",
          "blockNumber": "0x2f9ae3f",
          "blockTimestamp": "0x6a473568",
          "transactionHash": "0x46db9feb31ad47c91bbacac39ff73133c7f2d571e89983eff318c474fa4996d1",
          "transactionIndex": "0xe",
          "logIndex": "0x33",
          "removed": false
        },
        {
          "address": "0x962aba0a590981cf9c5b336ac34922c82f203165",
          "topics": [
            "0x1e9d45789795021c76ee4b02700b847667a4f82249aed1f3a7d92b7806d1087e",
            "0x0000000000000000000000000000000000000000000000000000000000000022",
            "0x0000000000000000000000000000000000000000000000000000000000000016",
            "0x00000000000000000000000081d48d2c5d0744e8ef7a5c35cdceb0a27a1c707b"
          ],
          "data": "0x00000000000000000000000000000000000000000000000005eec8fc297ac00000000000000000000000000000000000000000000000000000000000000000c8",
          "blockHash": "0xeef9a7360cb94fadbd1c39f5d015dfb5e99cd500dd8ed1242a35729955854eb8",
          "blockNumber": "0x2f9ae3f",
          "blockTimestamp": "0x6a473568",
          "transactionHash": "0x46db9feb31ad47c91bbacac39ff73133c7f2d571e89983eff318c474fa4996d1",
          "transactionIndex": "0xe",
          "logIndex": "0x34",
          "removed": false
        }
      ],
      "logsBloom": "0x00000000400000000000000000000000000400000000000000000000000000000000000000000000000000000008000000000000000000000002000000002000000000000000000800000000000000000000000000000000001000000004000000000000000000010000002000200000200000000000000000000000000000000000020000000000000000000000000000000000000000000000004000000000000000000000000000000000000000000001000000000000000000000000000000000000000000000000000000000000000000000009000000000000400000080600000000000000000000000000000000000000000000000208080000000000",
      "type": "0x2",
      "transactionHash": "0x46db9feb31ad47c91bbacac39ff73133c7f2d571e89983eff318c474fa4996d1",
      "transactionIndex": "0xe",
      "blockHash": "0xeef9a7360cb94fadbd1c39f5d015dfb5e99cd500dd8ed1242a35729955854eb8",
      "blockNumber": "0x2f9ae3f",
      "gasUsed": "0x2858c",
      "effectiveGasPrice": "0x5d21dba00",
      "from": "0x81d48d2c5d0744e8ef7a5c35cdceb0a27a1c707b",
      "to": "0x962aba0a590981cf9c5b336ac34922c82f203165",
      "contractAddress": null
    },
    {
      "status": "0x1",
      "cumulativeGasUsed": "0x2d38e9",
      "logs": [
        {
          "address": "0x4d82b6e528d3c2e1a3592e14863ec95eaef4ff85",
          "topics": [
            "0xc3d58168c5ae7397731d063d5bbf3d657854427343f4c083240f7aacaa2d0f62",
            "0x000000000000000000000000962aba0a590981cf9c5b336ac34922c82f203165",
            "0x00000000000000000000000081d48d2c5d0744e8ef7a5c35cdceb0a27a1c707b",
            "0x000000000000000000000000962aba0a590981cf9c5b336ac34922c82f203165"
          ],
          "data": "0x0000000000000000000000000000000000000000000000000000000000000016000000000000000000000000000000000000000000000000000000000000012c",
          "blockHash": "0xeef9a7360cb94fadbd1c39f5d015dfb5e99cd500dd8ed1242a35729955854eb8",
          "blockNumber": "0x2f9ae3f",
          "blockTimestamp": "0x6a473568",
          "transactionHash": "0x27c103c5730c8ee65e83857f32494c873fa9475dbb9f4c48ec94a5b911490d47",
          "transactionIndex": "0xf",
          "logIndex": "0x35",
          "removed": false
        },
        {
          "address": "0x962aba0a590981cf9c5b336ac34922c82f203165",
          "topics": [
            "0x1e9d45789795021c76ee4b02700b847667a4f82249aed1f3a7d92b7806d1087e",
            "0x0000000000000000000000000000000000000000000000000000000000000023",
            "0x0000000000000000000000000000000000000000000000000000000000000016",
            "0x00000000000000000000000081d48d2c5d0744e8ef7a5c35cdceb0a27a1c707b"
          ],
          "data": "0x0000000000000000000000000000000000000000000000000649e9862bf7e000000000000000000000000000000000000000000000000000000000000000012c",
          "blockHash": "0xeef9a7360cb94fadbd1c39f5d015dfb5e99cd500dd8ed1242a35729955854eb8",
          "blockNumber": "0x2f9ae3f",
          "blockTimestamp": "0x6a473568",
          "transactionHash": "0x27c103c5730c8ee65e83857f32494c873fa9475dbb9f4c48ec94a5b911490d47",
          "transactionIndex": "0xf",
          "logIndex": "0x36",
          "removed": false
        }
      ],
      "logsBloom": "0x00000000400000000000000000000000000400000000000000000000000000000000000000000000000000000008000000000000000000800002000000002000000000000000000800000000000000000800000000000000001000000004000000000000000000010000002000200000200000000000000000000000000000000000000000000000000000000000000000000000000200000000000000000000000000000000000000000000000000000001000000000000000000000000000000000000000000000000000000000000000000000009000000000000400000000600000000000000000000000000000000000000000000000208080000000000",
      "type": "0x2",
      "transactionHash": "0x27c103c5730c8ee65e83857f32494c873fa9475dbb9f4c48ec94a5b911490d47",
      "transactionIndex": "0xf",
      "blockHash": "0xeef9a7360cb94fadbd1c39f5d015dfb5e99cd500dd8ed1242a35729955854eb8",
      "blockNumber": "0x2f9ae3f",
      "gasUsed": "0x28598",
      "effectiveGasPrice": "0x5d21dba00",
      "from": "0x81d48d2c5d0744e8ef7a5c35cdceb0a27a1c707b",
      "to": "0x962aba0a590981cf9c5b336ac34922c82f203165",
      "contractAddress": null
    },
    {
      "status": "0x1",
      "cumulativeGasUsed": "0x2fbe81",
      "logs": [
        {
          "address": "0x4d82b6e528d3c2e1a3592e14863ec95eaef4ff85",
          "topics": [
            "0xc3d58168c5ae7397731d063d5bbf3d657854427343f4c083240f7aacaa2d0f62",
            "0x000000000000000000000000962aba0a590981cf9c5b336ac34922c82f203165",
            "0x00000000000000000000000081d48d2c5d0744e8ef7a5c35cdceb0a27a1c707b",
            "0x000000000000000000000000962aba0a590981cf9c5b336ac34922c82f203165"
          ],
          "data": "0x0000000000000000000000000000000000000000000000000000000000000017000000000000000000000000000000000000000000000000000000000000012c",
          "blockHash": "0xeef9a7360cb94fadbd1c39f5d015dfb5e99cd500dd8ed1242a35729955854eb8",
          "blockNumber": "0x2f9ae3f",
          "blockTimestamp": "0x6a473568",
          "transactionHash": "0x21191f5f2593114242fe0faf3a510816a07db9cc7994aecf0b3d87cf996f1f51",
          "transactionIndex": "0x10",
          "logIndex": "0x37",
          "removed": false
        },
        {
          "address": "0x962aba0a590981cf9c5b336ac34922c82f203165",
          "topics": [
            "0x1e9d45789795021c76ee4b02700b847667a4f82249aed1f3a7d92b7806d1087e",
            "0x0000000000000000000000000000000000000000000000000000000000000024",
            "0x0000000000000000000000000000000000000000000000000000000000000017",
            "0x00000000000000000000000081d48d2c5d0744e8ef7a5c35cdceb0a27a1c707b"
          ],
          "data": "0x00000000000000000000000000000000000000000000000003f529b2f50bc000000000000000000000000000000000000000000000000000000000000000012c",
          "blockHash": "0xeef9a7360cb94fadbd1c39f5d015dfb5e99cd500dd8ed1242a35729955854eb8",
          "blockNumber": "0x2f9ae3f",
          "blockTimestamp": "0x6a473568",
          "transactionHash": "0x21191f5f2593114242fe0faf3a510816a07db9cc7994aecf0b3d87cf996f1f51",
          "transactionIndex": "0x10",
          "logIndex": "0x38",
          "removed": false
        }
      ],
      "logsBloom": "0x00000000400000000000000000000000000400000000000000000000000000000000000000000000000000000008000000001000000000000002001000002000000000000000000000000000000000000000000000000000001000000004000000000000000800010000002000200000000000000000000000000000000000000000000000000000000000000008000000000000000000000000000000000000000000000002000000000000000000000001000000000000000000000000000000000000000000000000000000000000000000000009000000000000400000000600000000000000000000000000000000000000000000000200080000080000",
      "type": "0x2",
      "transactionHash": "0x21191f5f2593114242fe0faf3a510816a07db9cc7994aecf0b3d87cf996f1f51",
      "transactionIndex": "0x10",
      "blockHash": "0xeef9a7360cb94fadbd1c39f5d015dfb5e99cd500dd8ed1242a35729955854eb8",
      "blockNumber": "0x2f9ae3f",
      "gasUsed": "0x28598",
      "effectiveGasPrice": "0x5d21dba00",
      "from": "0x81d48d2c5d0744e8ef7a5c35cdceb0a27a1c707b",
      "to": "0x962aba0a590981cf9c5b336ac34922c82f203165",
      "contractAddress": null
    },
    {
      "status": "0x1",
      "cumulativeGasUsed": "0x32440d",
      "logs": [
        {
          "address": "0x4d82b6e528d3c2e1a3592e14863ec95eaef4ff85",
          "topics": [
            "0xc3d58168c5ae7397731d063d5bbf3d657854427343f4c083240f7aacaa2d0f62",
            "0x000000000000000000000000962aba0a590981cf9c5b336ac34922c82f203165",
            "0x00000000000000000000000081d48d2c5d0744e8ef7a5c35cdceb0a27a1c707b",
            "0x000000000000000000000000962aba0a590981cf9c5b336ac34922c82f203165"
          ],
          "data": "0x00000000000000000000000000000000000000000000000000000000000000170000000000000000000000000000000000000000000000000000000000000064",
          "blockHash": "0xeef9a7360cb94fadbd1c39f5d015dfb5e99cd500dd8ed1242a35729955854eb8",
          "blockNumber": "0x2f9ae3f",
          "blockTimestamp": "0x6a473568",
          "transactionHash": "0xcfae0314f08f31a146bc4081a0b74c8e039b9b5642384268bd22b12a3b866b36",
          "transactionIndex": "0x11",
          "logIndex": "0x39",
          "removed": false
        },
        {
          "address": "0x962aba0a590981cf9c5b336ac34922c82f203165",
          "topics": [
            "0x1e9d45789795021c76ee4b02700b847667a4f82249aed1f3a7d92b7806d1087e",
            "0x0000000000000000000000000000000000000000000000000000000000000025",
            "0x0000000000000000000000000000000000000000000000000000000000000017",
            "0x00000000000000000000000081d48d2c5d0744e8ef7a5c35cdceb0a27a1c707b"
          ],
          "data": "0x0000000000000000000000000000000000000000000000000433d52f82e240000000000000000000000000000000000000000000000000000000000000000064",
          "blockHash": "0xeef9a7360cb94fadbd1c39f5d015dfb5e99cd500dd8ed1242a35729955854eb8",
          "blockNumber": "0x2f9ae3f",
          "blockTimestamp": "0x6a473568",
          "transactionHash": "0xcfae0314f08f31a146bc4081a0b74c8e039b9b5642384268bd22b12a3b866b36",
          "transactionIndex": "0x11",
          "logIndex": "0x3a",
          "removed": false
        }
      ],
      "logsBloom": "0x00000000400000000000000000000000000400000000000000000000000000000000000000000000000000000008000000001000000000000002001000002000000000000000000000000000000000000000000000000000001000000004000000000000000000010000002000200000000000000000000000000000000000000000000000000000000000000000000000000000000000000000000000000000000000000000000000000002000000000001000000000000000000000000000000000000000000000000000000000000000000000009000000000000400000008600000000000000000000000000000000000000000000000200080002080000",
      "type": "0x2",
      "transactionHash": "0xcfae0314f08f31a146bc4081a0b74c8e039b9b5642384268bd22b12a3b866b36",
      "transactionIndex": "0x11",
      "blockHash": "0xeef9a7360cb94fadbd1c39f5d015dfb5e99cd500dd8ed1242a35729955854eb8",
      "blockNumber": "0x2f9ae3f",
      "gasUsed": "0x2858c",
      "effectiveGasPrice": "0x5d21dba00",
      "from": "0x81d48d2c5d0744e8ef7a5c35cdceb0a27a1c707b",
      "to": "0x962aba0a590981cf9c5b336ac34922c82f203165",
      "contractAddress": null
    },
    {
      "status": "0x1",
      "cumulativeGasUsed": "0x34c98d",
      "logs": [
        {
          "address": "0x4d82b6e528d3c2e1a3592e14863ec95eaef4ff85",
          "topics": [
            "0xc3d58168c5ae7397731d063d5bbf3d657854427343f4c083240f7aacaa2d0f62",
            "0x000000000000000000000000962aba0a590981cf9c5b336ac34922c82f203165",
            "0x00000000000000000000000081d48d2c5d0744e8ef7a5c35cdceb0a27a1c707b",
            "0x000000000000000000000000962aba0a590981cf9c5b336ac34922c82f203165"
          ],
          "data": "0x000000000000000000000000000000000000000000000000000000000000001700000000000000000000000000000000000000000000000000000000000000c8",
          "blockHash": "0xeef9a7360cb94fadbd1c39f5d015dfb5e99cd500dd8ed1242a35729955854eb8",
          "blockNumber": "0x2f9ae3f",
          "blockTimestamp": "0x6a473568",
          "transactionHash": "0xf0c0f6a7453302852a8ea3627830bd59c94efc869c66515aeece6dec23852807",
          "transactionIndex": "0x12",
          "logIndex": "0x3b",
          "removed": false
        },
        {
          "address": "0x962aba0a590981cf9c5b336ac34922c82f203165",
          "topics": [
            "0x1e9d45789795021c76ee4b02700b847667a4f82249aed1f3a7d92b7806d1087e",
            "0x0000000000000000000000000000000000000000000000000000000000000026",
            "0x0000000000000000000000000000000000000000000000000000000000000017",
            "0x00000000000000000000000081d48d2c5d0744e8ef7a5c35cdceb0a27a1c707b"
          ],
          "data": "0x00000000000000000000000000000000000000000000000004680ec1f915000000000000000000000000000000000000000000000000000000000000000000c8",
          "blockHash": "0xeef9a7360cb94fadbd1c39f5d015dfb5e99cd500dd8ed1242a35729955854eb8",
          "blockNumber": "0x2f9ae3f",
          "blockTimestamp": "0x6a473568",
          "transactionHash": "0xf0c0f6a7453302852a8ea3627830bd59c94efc869c66515aeece6dec23852807",
          "transactionIndex": "0x12",
          "logIndex": "0x3c",
          "removed": false
        }
      ],
      "logsBloom": "0x00000000400000000000000000000000000400000000000000000000000000000000000000000000000000000008000000001000000000000002001000002000000000000000000000000000000000000001000000000000001000000004000001000000000000010000002000200000000000000000040000000000000000000000000000000000000000000000000000000000000000000000000000000000000000000000000000000000000000000001000000000000000000000000000000000000000000000000000000000000000000000009000000000000400000000600000000000000000000000000000000000000000000000200080000080000",
      "type": "0x2",
      "transactionHash": "0xf0c0f6a7453302852a8ea3627830bd59c94efc869c66515aeece6dec23852807",
      "transactionIndex": "0x12",
      "blockHash": "0xeef9a7360cb94fadbd1c39f5d015dfb5e99cd500dd8ed1242a35729955854eb8",
      "blockNumber": "0x2f9ae3f",
      "gasUsed": "0x28580",
      "effectiveGasPrice": "0x5d21dba00",
      "from": "0x81d48d2c5d0744e8ef7a5c35cdceb0a27a1c707b",
      "to": "0x962aba0a590981cf9c5b336ac34922c82f203165",
      "contractAddress": null
    },
    {
      "status": "0x1",
      "cumulativeGasUsed": "0x35eaf4",
      "logs": [
        {
          "address": "0xfffffffffffffffffffffffffffffffffffffffe",
          "topics": [
            "0xddf252ad1be2c89b69c2b068fc378daa952ba7f163c4a11628f55a4df523b3ef",
            "0x00000000000000000000000081d48d2c5d0744e8ef7a5c35cdceb0a27a1c707b",
            "0x000000000000000000000000962aba0a590981cf9c5b336ac34922c82f203165"
          ],
          "data": "0x000000000000000000000000000000000000000000000001a43f468f20610000",
          "blockHash": "0xeef9a7360cb94fadbd1c39f5d015dfb5e99cd500dd8ed1242a35729955854eb8",
          "blockNumber": "0x2f9ae3f",
          "blockTimestamp": "0x6a473568",
          "transactionHash": "0x72eeb61b093938416dbb89752c79734d1099fe5595413a1af255873338153de5",
          "transactionIndex": "0x13",
          "logIndex": "0x3d",
          "removed": false
        },
        {
          "address": "0x962aba0a590981cf9c5b336ac34922c82f203165",
          "topics": [
            "0xd375d54616745fe1f13240876f3ce1bf39b50bdd13c0d5b7fadfc576a4c9844b",
            "0x0000000000000000000000000000000000000000000000000000000000000025",
            "0x0000000000000000000000000000000000000000000000000000000000000017",
            "0x00000000000000000000000081d48d2c5d0744e8ef7a5c35cdceb0a27a1c707b"
          ],
          "data": "0x00000000000000000000000081d48d2c5d0744e8ef7a5c35cdceb0a27a1c707b0000000000000000000000000000000000000000000000000000000000000064000000000000000000000000000000000000000000000001a43f468f206100000000000000000000000000000000000000000000000000000219ea97c1712000",
          "blockHash": "0xeef9a7360cb94fadbd1c39f5d015dfb5e99cd500dd8ed1242a35729955854eb8",
          "blockNumber": "0x2f9ae3f",
          "blockTimestamp": "0x6a473568",
          "transactionHash": "0x72eeb61b093938416dbb89752c79734d1099fe5595413a1af255873338153de5",
          "transactionIndex": "0x13",
          "logIndex": "0x3e",
          "removed": false
        },
        {
          "address": "0x4d82b6e528d3c2e1a3592e14863ec95eaef4ff85",
          "topics": [
            "0xc3d58168c5ae7397731d063d5bbf3d657854427343f4c083240f7aacaa2d0f62",
            "0x000000000000000000000000962aba0a590981cf9c5b336ac34922c82f203165",
            "0x000000000000000000000000962aba0a590981cf9c5b336ac34922c82f203165",
            "0x00000000000000000000000081d48d2c5d0744e8ef7a5c35cdceb0a27a1c707b"
          ],
          "data": "0x00000000000000000000000000000000000000000000000000000000000000170000000000000000000000000000000000000000000000000000000000000064",
          "blockHash": "0xeef9a7360cb94fadbd1c39f5d015dfb5e99cd500dd8ed1242a35729955854eb8",
          "blockNumber": "0x2f9ae3f",
          "blockTimestamp": "0x6a473568",
          "transactionHash": "0x72eeb61b093938416dbb89752c79734d1099fe5595413a1af255873338153de5",
          "transactionIndex": "0x13",
          "logIndex": "0x3f",
          "removed": false
        },
        {
          "address": "0xfffffffffffffffffffffffffffffffffffffffe",
          "topics": [
            "0xddf252ad1be2c89b69c2b068fc378daa952ba7f163c4a11628f55a4df523b3ef",
            "0x000000000000000000000000962aba0a590981cf9c5b336ac34922c82f203165",
            "0x00000000000000000000000081d48d2c5d0744e8ef7a5c35cdceb0a27a1c707b"
          ],
          "data": "0x000000000000000000000000000000000000000000000001a2255bf75eefe000",
          "blockHash": "0xeef9a7360cb94fadbd1c39f5d015dfb5e99cd500dd8ed1242a35729955854eb8",
          "blockNumber": "0x2f9ae3f",
          "blockTimestamp": "0x6a473568",
          "transactionHash": "0x72eeb61b093938416dbb89752c79734d1099fe5595413a1af255873338153de5",
          "transactionIndex": "0x13",
          "logIndex": "0x40",
          "removed": false
        },
        {
          "address": "0xfffffffffffffffffffffffffffffffffffffffe",
          "topics": [
            "0xddf252ad1be2c89b69c2b068fc378daa952ba7f163c4a11628f55a4df523b3ef",
            "0x000000000000000000000000962aba0a590981cf9c5b336ac34922c82f203165",
            "0x00000000000000000000000084e243a60a75efe615537af49c5eaee8f3c32ed9"
          ],
          "data": "0x0000000000000000000000000000000000000000000000000219ea97c1712000",
          "blockHash": "0xeef9a7360cb94fadbd1c39f5d015dfb5e99cd500dd8ed1242a35729955854eb8",
          "blockNumber": "0x2f9ae3f",
          "blockTimestamp": "0x6a473568",
          "transactionHash": "0x72eeb61b093938416dbb89752c79734d1099fe5595413a1af255873338153de5",
          "transactionIndex": "0x13",
          "logIndex": "0x41",
          "removed": false
        }
      ],
      "logsBloom": "0x00000000400000000000000000000000000000000000000000000000000000000000000000000000000000000200000000801000000000000002001000002000000000000000000000000008000000000000000000000000001000000004000000000000000000012000000000200000000000000000000000000010000000000000000000200000000000000000000000000000000000000000000000000000000000000000000000000002000000000001000000000000000000000000000000000002000000000008010000000000000000000009000000000000400000408600000000000000000000000000000000000000000000000200080002880000",
      "type": "0x2",
      "transactionHash": "0x72eeb61b093938416dbb89752c79734d1099fe5595413a1af255873338153de5",
      "transactionIndex": "0x13",
      "blockHash": "0xeef9a7360cb94fadbd1c39f5d015dfb5e99cd500dd8ed1242a35729955854eb8",
      "blockNumber": "0x2f9ae3f",
      "gasUsed": "0x12167",
      "effectiveGasPrice": "0x5d21dba00",
      "from": "0x81d48d2c5d0744e8ef7a5c35cdceb0a27a1c707b",
      "to": "0x962aba0a590981cf9c5b336ac34922c82f203165",
      "contractAddress": null
    },
    {
      "status": "0x1",
      "cumulativeGasUsed": "0x387068",
      "logs": [
        {
          "address": "0x4d82b6e528d3c2e1a3592e14863ec95eaef4ff85",
          "topics": [
            "0xc3d58168c5ae7397731d063d5bbf3d657854427343f4c083240f7aacaa2d0f62",
            "0x000000000000000000000000962aba0a590981cf9c5b336ac34922c82f203165",
            "0x00000000000000000000000081d48d2c5d0744e8ef7a5c35cdceb0a27a1c707b",
            "0x000000000000000000000000962aba0a590981cf9c5b336ac34922c82f203165"
          ],
          "data": "0x00000000000000000000000000000000000000000000000000000000000000180000000000000000000000000000000000000000000000000000000000000064",
          "blockHash": "0xeef9a7360cb94fadbd1c39f5d015dfb5e99cd500dd8ed1242a35729955854eb8",
          "blockNumber": "0x2f9ae3f",
          "blockTimestamp": "0x6a473568",
          "transactionHash": "0x68bbb52950fb67ae0c9b5a73bc20d8d93a192b7fa2b82de741186691577ba375",
          "transactionIndex": "0x14",
          "logIndex": "0x42",
          "removed": false
        },
        {
          "address": "0x962aba0a590981cf9c5b336ac34922c82f203165",
          "topics": [
            "0x1e9d45789795021c76ee4b02700b847667a4f82249aed1f3a7d92b7806d1087e",
            "0x0000000000000000000000000000000000000000000000000000000000000027",
            "0x0000000000000000000000000000000000000000000000000000000000000018",
            "0x00000000000000000000000081d48d2c5d0744e8ef7a5c35cdceb0a27a1c707b"
          ],
          "data": "0x00000000000000000000000000000000000000000000000000502633522200000000000000000000000000000000000000000000000000000000000000000064",
          "blockHash": "0xeef9a7360cb94fadbd1c39f5d015dfb5e99cd500dd8ed1242a35729955854eb8",
          "blockNumber": "0x2f9ae3f",
          "blockTimestamp": "0x6a473568",
          "transactionHash": "0x68bbb52950fb67ae0c9b5a73bc20d8d93a192b7fa2b82de741186691577ba375",
          "transactionIndex": "0x14",
          "logIndex": "0x43",
          "removed": false
        }
      ],
      "logsBloom": "0x00000000400000000000000000000000000400000000000000000000000000000002000000000000000000000008000000000000000000000002000000002000000000000000000000000000000000000040000000000000001000000004000000000000000000010000002000200000000000000000000000000000000000000000000000000000000000000000000000000000000000000000000000000000000000000000000000000000000000000001000000000000000000000000000000100000000000000000000000000000000000000009000020000000400000000600000000000000000000100000000008000000000000000200080000000000",
      "type": "0x2",
      "transactionHash": "0x68bbb52950fb67ae0c9b5a73bc20d8d93a192b7fa2b82de741186691577ba375",
      "transactionIndex": "0x14",
      "blockHash": "0xeef9a7360cb94fadbd1c39f5d015dfb5e99cd500dd8ed1242a35729955854eb8",
      "blockNumber": "0x2f9ae3f",
      "gasUsed": "0x28574",
      "effectiveGasPrice": "0x5d21dba00",
      "from": "0x81d48d2c5d0744e8ef7a5c35cdceb0a27a1c707b",
      "to": "0x962aba0a590981cf9c5b336ac34922c82f203165",
      "contractAddress": null
    },
    {
      "status": "0x1",
      "cumulativeGasUsed": "0x3af5dc",
      "logs": [
        {
          "address": "0x4d82b6e528d3c2e1a3592e14863ec95eaef4ff85",
          "topics": [
            "0xc3d58168c5ae7397731d063d5bbf3d657854427343f4c083240f7aacaa2d0f62",
            "0x000000000000000000000000962aba0a590981cf9c5b336ac34922c82f203165",
            "0x00000000000000000000000081d48d2c5d0744e8ef7a5c35cdceb0a27a1c707b",
            "0x000000000000000000000000962aba0a590981cf9c5b336ac34922c82f203165"
          ],
          "data": "0x000000000000000000000000000000000000000000000000000000000000001800000000000000000000000000000000000000000000000000000000000000c8",
          "blockHash": "0xeef9a7360cb94fadbd1c39f5d015dfb5e99cd500dd8ed1242a35729955854eb8",
          "blockNumber": "0x2f9ae3f",
          "blockTimestamp": "0x6a473568",
          "transactionHash": "0x9d43e10cc26ee777dae582565e73b46455b7c763588d25b2435b75a23c0605fa",
          "transactionIndex": "0x15",
          "logIndex": "0x44",
          "removed": false
        },
        {
          "address": "0x962aba0a590981cf9c5b336ac34922c82f203165",
          "topics": [
            "0x1e9d45789795021c76ee4b02700b847667a4f82249aed1f3a7d92b7806d1087e",
            "0x0000000000000000000000000000000000000000000000000000000000000028",
            "0x0000000000000000000000000000000000000000000000000000000000000018",
            "0x00000000000000000000000081d48d2c5d0744e8ef7a5c35cdceb0a27a1c707b"
          ],
          "data": "0x000000000000000000000000000000000000000000000000005543df729c000000000000000000000000000000000000000000000000000000000000000000c8",
          "blockHash": "0xeef9a7360cb94fadbd1c39f5d015dfb5e99cd500dd8ed1242a35729955854eb8",
          "blockNumber": "0x2f9ae3f",
          "blockTimestamp": "0x6a473568",
          "transactionHash": "0x9d43e10cc26ee777dae582565e73b46455b7c763588d25b2435b75a23c0605fa",
          "transactionIndex": "0x15",
          "logIndex": "0x45",
          "removed": false
        }
      ],
      "logsBloom": "0x00000000400000000000000000000000000400000000000000000000000000000000000000000000000000000008000000000000000000000002000000002000000000000000000000000000000000000040000000000000001000000004000000000000000000010000002000200000000000000000000000000000000000000000000000000000000000000000000000000000000000000000000000000000000000000100000000000000000000000001000000000000000000000000000000100000000000000000000000000000000020000009000020000008400000000600000000000000000000000000000000000000000000000200080000000000",
      "type": "0x2",
      "transactionHash": "0x9d43e10cc26ee777dae582565e73b46455b7c763588d25b2435b75a23c0605fa",
      "transactionIndex": "0x15",
      "blockHash": "0xeef9a7360cb94fadbd1c39f5d015dfb5e99cd500dd8ed1242a35729955854eb8",
      "blockNumber": "0x2f9ae3f",
      "gasUsed": "0x28574",
      "effectiveGasPrice": "0x5d21dba00",
      "from": "0x81d48d2c5d0744e8ef7a5c35cdceb0a27a1c707b",
      "to": "0x962aba0a590981cf9c5b336ac34922c82f203165",
      "contractAddress": null
    }
  ],
  "libraries": [],
  "pending": [],
  "returns": {},
  "timestamp": 1783051627179,
  "chain": 5042002,
  "commit": "d2030d4"
}