{
  "transactions": [
    {
      "hash": "0xfaf78ab344adb608898f459edc95ab1720eced77be8fc192c191526500c95382",
      "transactionType": "CALL",
      "contractName": null,
      "contractAddress": "0x962aba0a590981cf9c5b336ac34922c82f203165",
      "function": "list(uint256,uint256,uint256)",
      "arguments": [
        "1",
        "1",
        "97000000000000000000"
      ],
      "transaction": {
        "from": "0x81d48d2c5d0744e8ef7a5c35cdceb0a27a1c707b",
        "to": "0x962aba0a590981cf9c5b336ac34922c82f203165",
        "gas": "0x3d7ec",
        "value": "0x0",
        "input": "0x19aeb4900000000000000000000000000000000000000000000000000000000000000001000000000000000000000000000000000000000000000000000000000000000100000000000000000000000000000000000000000000000542253a126ce40000",
        "nonce": "0x1bd",
        "chainId": "0x4cef52"
      },
      "additionalContracts": [],
      "isFixedGasLimit": false
    },
    {
      "hash": "0x6223dce039c410faa3494bb899e66bee4377c44374eee76ebee607233dfac3c1",
      "transactionType": "CALL",
      "contractName": null,
      "contractAddress": "0x962aba0a590981cf9c5b336ac34922c82f203165",
      "function": "list(uint256,uint256,uint256)",
      "arguments": [
        "1",
        "1",
        "100000000000000000000"
      ],
      "transaction": {
        "from": "0x81d48d2c5d0744e8ef7a5c35cdceb0a27a1c707b",
        "to": "0x962aba0a590981cf9c5b336ac34922c82f203165",
        "gas": "0x37ba8",
        "value": "0x0",
        "input": "0x19aeb490000000000000000000000000000000000000000000000000000000000000000100000000000000000000000000000000000000000000000000000000000000010000000000000000000000000000000000000000000000056bc75e2d63100000",
        "nonce": "0x1be",
        "chainId": "0x4cef52"
      },
      "additionalContracts": [],
      "isFixedGasLimit": false
    },
    {
      "hash": "0x2bb1234f6f0f39dd75280c49f1a5a1996bffc121b88f882025dcdd76cfa7769e",
      "transactionType": "CALL",
      "contractName": null,
      "contractAddress": "0x962aba0a590981cf9c5b336ac34922c82f203165",
      "function": "list(uint256,uint256,uint256)",
      "arguments": [
        "1",
        "1",
        "103000000000000000000"
      ],
      "transaction": {
        "from": "0x81d48d2c5d0744e8ef7a5c35cdceb0a27a1c707b",
        "to": "0x962aba0a590981cf9c5b336ac34922c82f203165",
        "gas": "0x37ba8",
        "value": "0x0",
        "input": "0x19aeb4900000000000000000000000000000000000000000000000000000000000000001000000000000000000000000000000000000000000000000000000000000000100000000000000000000000000000000000000000000000595698248593c0000",
        "nonce": "0x1bf",
        "chainId": "0x4cef52"
      },
      "additionalContracts": [],
      "isFixedGasLimit": false
    },
    {
      "hash": "0xe832ce8e0df02a5c7237156d9ce99eb5a0860d641a7885f872f51dd137819e5f",
      "transactionType": "CALL",
      "contractName": null,
      "contractAddress": "0x962aba0a590981cf9c5b336ac34922c82f203165",
      "function": "buy(uint256,uint256)",
      "arguments": [
        "1",
        "1"
      ],
      "transaction": {
        "from": "0x81d48d2c5d0744e8ef7a5c35cdceb0a27a1c707b",
        "to": "0x962aba0a590981cf9c5b336ac34922c82f203165",
        "gas": "0x18fbc",
        "value": "0x542253a126ce40000",
        "input": "0xd6febde800000000000000000000000000000000000000000000000000000000000000010000000000000000000000000000000000000000000000000000000000000001",
        "nonce": "0x1c0",
        "chainId": "0x4cef52"
      },
      "additionalContracts": [],
      "isFixedGasLimit": false
    },
    {
      "hash": "0x5372dcbdf3bdc265e787a77b43fe9395150e0edaba5b22fff25cd8c06f2a0f6e",
      "transactionType": "CALL",
      "contractName": null,
      "contractAddress": "0x962aba0a590981cf9c5b336ac34922c82f203165",
      "function": "list(uint256,uint256,uint256)",
      "arguments": [
        "2",
        "1",
        "23800000000000000000"
      ],
      "transaction": {
        "from": "0x81d48d2c5d0744e8ef7a5c35cdceb0a27a1c707b",
        "to": "0x962aba0a590981cf9c5b336ac34922c82f203165",
        "gas": "0x37ba8",
        "value": "0x0",
        "input": "0x19aeb490000000000000000000000000000000000000000000000000000000000000000200000000000000000000000000000000000000000000000000000000000000010000000000000000000000000000000000000000000000014a4a95e6f64c0000",
        "nonce": "0x1c1",
        "chainId": "0x4cef52"
      },
      "additionalContracts": [],
      "isFixedGasLimit": false
    },
    {
      "hash": "0xedeac412c0752b2bb505c4c86fd6f75fea2fd10028c4ff7324543ff18c79b5d7",
      "transactionType": "CALL",
      "contractName": null,
      "contractAddress": "0x962aba0a590981cf9c5b336ac34922c82f203165",
      "function": "list(uint256,uint256,uint256)",
      "arguments": [
        "2",
        "1",
        "25228000000000000000"
      ],
      "transaction": {
        "from": "0x81d48d2c5d0744e8ef7a5c35cdceb0a27a1c707b",
        "to": "0x962aba0a590981cf9c5b336ac34922c82f203165",
        "gas": "0x37ba8",
        "value": "0x0",
        "input": "0x19aeb490000000000000000000000000000000000000000000000000000000000000000200000000000000000000000000000000000000000000000000000000000000010000000000000000000000000000000000000000000000015e1bdc56198e0000",
        "nonce": "0x1c2",
        "chainId": "0x4cef52"
      },
      "additionalContracts": [],
      "isFixedGasLimit": false
    },
    {
      "hash": "0x556a83d0b98540c3e5c131ac7161cc20a22446a2c5427db8ec8d178ec414a7a5",
      "transactionType": "CALL",
      "contractName": null,
      "contractAddress": "0x962aba0a590981cf9c5b336ac34922c82f203165",
      "function": "list(uint256,uint256,uint256)",
      "arguments": [
        "3",
        "1",
        "53835000000000000000"
      ],
      "transaction": {
        "from": "0x81d48d2c5d0744e8ef7a5c35cdceb0a27a1c707b",
        "to": "0x962aba0a590981cf9c5b336ac34922c82f203165",
        "gas": "0x37bb9",
        "value": "0x0",
        "input": "0x19aeb49000000000000000000000000000000000000000000000000000000000000000030000000000000000000000000000000000000000000000000000000000000001000000000000000000000000000000000000000000000002eb1c57451b278000",
        "nonce": "0x1c3",
        "chainId": "0x4cef52"
      },
      "additionalContracts": [],
      "isFixedGasLimit": false
    },
    {
      "hash": "0xee7fd3f022709d5cbb2da0e0976e4fa058625c8c3e6a80c18efb0ecb93e9aebc",
      "transactionType": "CALL",
      "contractName": null,
      "contractAddress": "0x962aba0a590981cf9c5b336ac34922c82f203165",
      "function": "list(uint256,uint256,uint256)",
      "arguments": [
        "3",
        "1",
        "57165000000000000000"
      ],
      "transaction": {
        "from": "0x81d48d2c5d0744e8ef7a5c35cdceb0a27a1c707b",
        "to": "0x962aba0a590981cf9c5b336ac34922c82f203165",
        "gas": "0x37bb9",
        "value": "0x0",
        "input": "0x19aeb490000000000000000000000000000000000000000000000000000000000000000300000000000000000000000000000000000000000000000000000000000000010000000000000000000000000000000000000000000000031952e0a079348000",
        "nonce": "0x1c4",
        "chainId": "0x4cef52"
      },
      "additionalContracts": [],
      "isFixedGasLimit": false
    },
    {
      "hash": "0xa5d118b9eabdb3b2f4d38be48589374a78cbf727bc6b3c86ab55057a6d223308",
      "transactionType": "CALL",
      "contractName": null,
      "contractAddress": "0x962aba0a590981cf9c5b336ac34922c82f203165",
      "function": "list(uint256,uint256,uint256)",
      "arguments": [
        "3",
        "1",
        "58830000000000000000"
      ],
      "transaction": {
        "from": "0x81d48d2c5d0744e8ef7a5c35cdceb0a27a1c707b",
        "to": "0x962aba0a590981cf9c5b336ac34922c82f203165",
        "gas": "0x37ba8",
        "value": "0x0",
        "input": "0x19aeb49000000000000000000000000000000000000000000000000000000000000000030000000000000000000000000000000000000000000000000000000000000001000000000000000000000000000000000000000000000003306e254e283b0000",
        "nonce": "0x1c5",
        "chainId": "0x4cef52"
      },
      "additionalContracts": [],
      "isFixedGasLimit": false
    },
    {
      "hash": "0xdcfb65f1576709ef3b19c1d4315ddf5f8235445c2bf1f25517a6efc49d95375a",
      "transactionType": "CALL",
      "contractName": null,
      "contractAddress": "0x962aba0a590981cf9c5b336ac34922c82f203165",
      "function": "buy(uint256,uint256)",
      "arguments": [
        "7",
        "1"
      ],
      "transaction": {
        "from": "0x81d48d2c5d0744e8ef7a5c35cdceb0a27a1c707b",
        "to": "0x962aba0a590981cf9c5b336ac34922c82f203165",
        "gas": "0x18fbc",
        "value": "0x31952e0a079348000",
        "input": "0xd6febde800000000000000000000000000000000000000000000000000000000000000070000000000000000000000000000000000000000000000000000000000000001",
        "nonce": "0x1c6",
        "chainId": "0x4cef52"
      },
      "additionalContracts": [],
      "isFixedGasLimit": false
    },
    {
      "hash": "0x69a4d69cb463efcb4cf747362fe64f91dec138fc6cbf1f3523a3f5107232c800",
      "transactionType": "CALL",
      "contractName": null,
      "contractAddress": "0x962aba0a590981cf9c5b336ac34922c82f203165",
      "function": "list(uint256,uint256,uint256)",
      "arguments": [
        "4",
        "1",
        "1850000000000000000"
      ],
      "transaction": {
        "from": "0x81d48d2c5d0744e8ef7a5c35cdceb0a27a1c707b",
        "to": "0x962aba0a590981cf9c5b336ac34922c82f203165",
        "gas": "0x37b98",
        "value": "0x0",
        "input": "0x19aeb4900000000000000000000000000000000000000000000000000000000000000004000000000000000000000000000000000000000000000000000000000000000100000000000000000000000000000000000000000000000019ac8532c2790000",
        "nonce": "0x1c7",
        "chainId": "0x4cef52"
      },
      "additionalContracts": [],
      "isFixedGasLimit": false
    },
    {
      "hash": "0x14270be3ccab6d74d23927e67d75feb590e1d4032a3767ac6c74dc22da3d83a7",
      "transactionType": "CALL",
      "contractName": null,
      "contractAddress": "0x962aba0a590981cf9c5b336ac34922c82f203165",
      "function": "list(uint256,uint256,uint256)",
      "arguments": [
        "4",
        "1",
        "1905500000000000000"
      ],
      "transaction": {
        "from": "0x81d48d2c5d0744e8ef7a5c35cdceb0a27a1c707b",
        "to": "0x962aba0a590981cf9c5b336ac34922c82f203165",
        "gas": "0x37ba8",
        "value": "0x0",
        "input": "0x19aeb490000000000000000000000000000000000000000000000000000000000000000400000000000000000000000000000000000000000000000000000000000000010000000000000000000000000000000000000000000000001a71b2277b81c000",
        "nonce": "0x1c8",
        "chainId": "0x4cef52"
      },
      "additionalContracts": [],
      "isFixedGasLimit": false
    },
    {
      "hash": "0x36ded63f032042124308fca9ec9df606d7e2526df6f1c6246caa1415f20c6baa",
      "transactionType": "CALL",
      "contractName": null,
      "contractAddress": "0x962aba0a590981cf9c5b336ac34922c82f203165",
      "function": "list(uint256,uint256,uint256)",
      "arguments": [
        "5",
        "1",
        "95448000000000000000"
      ],
      "transaction": {
        "from": "0x81d48d2c5d0744e8ef7a5c35cdceb0a27a1c707b",
        "to": "0x962aba0a590981cf9c5b336ac34922c82f203165",
        "gas": "0x37ba8",
        "value": "0x0",
        "input": "0x19aeb490000000000000000000000000000000000000000000000000000000000000000500000000000000000000000000000000000000000000000000000000000000010000000000000000000000000000000000000000000000052c9b6a4b797c0000",
        "nonce": "0x1c9",
        "chainId": "0x4cef52"
      },
      "additionalContracts": [],
      "isFixedGasLimit": false
    },
    {
      "hash": "0x4c921bf1365acb1ee47cb064ccb7ef0bf458323fecde8afbf67ac1dab9d3c352",
      "transactionType": "CALL",
      "contractName": null,
      "contractAddress": "0x962aba0a590981cf9c5b336ac34922c82f203165",
      "function": "list(uint256,uint256,uint256)",
      "arguments": [
        "5",
        "1",
        "98400000000000000000"
      ],
      "transaction": {
        "from": "0x81d48d2c5d0744e8ef7a5c35cdceb0a27a1c707b",
        "to": "0x962aba0a590981cf9c5b336ac34922c82f203165",
        "gas": "0x37ba8",
        "value": "0x0",
        "input": "0x19aeb49000000000000000000000000000000000000000000000000000000000000000050000000000000000000000000000000000000000000000000000000000000001000000000000000000000000000000000000000000000005559306a78a700000",
        "nonce": "0x1ca",
        "chainId": "0x4cef52"
      },
      "additionalContracts": [],
      "isFixedGasLimit": false
    },
    {
      "hash": "0x7c091271324c75669d442b7c08a75c627cd0ce60ebb83bd7e7148bba55f48853",
      "transactionType": "CALL",
      "contractName": null,
      "contractAddress": "0x962aba0a590981cf9c5b336ac34922c82f203165",
      "function": "list(uint256,uint256,uint256)",
      "arguments": [
        "5",
        "1",
        "104304000000000000000"
      ],
      "transaction": {
        "from": "0x81d48d2c5d0744e8ef7a5c35cdceb0a27a1c707b",
        "to": "0x962aba0a590981cf9c5b336ac34922c82f203165",
        "gas": "0x37ba8",
        "value": "0x0",
        "input": "0x19aeb49000000000000000000000000000000000000000000000000000000000000000050000000000000000000000000000000000000000000000000000000000000001000000000000000000000000000000000000000000000005a7823f5fac580000",
        "nonce": "0x1cb",
        "chainId": "0x4cef52"
      },
      "additionalContracts": [],
      "isFixedGasLimit": false
    },
    {
      "hash": "0x7095df229c81a27b880c9a66ef9cdda776fe61dca422e0ea10575ae8248a5b45",
      "transactionType": "CALL",
      "contractName": null,
      "contractAddress": "0x962aba0a590981cf9c5b336ac34922c82f203165",
      "function": "buy(uint256,uint256)",
      "arguments": [
        "13",
        "1"
      ],
      "transaction": {
        "from": "0x81d48d2c5d0744e8ef7a5c35cdceb0a27a1c707b",
        "to": "0x962aba0a590981cf9c5b336ac34922c82f203165",
        "gas": "0x18fbc",
        "value": "0x5a7823f5fac580000",
        "input": "0xd6febde8000000000000000000000000000000000000000000000000000000000000000d0000000000000000000000000000000000000000000000000000000000000001",
        "nonce": "0x1cc",
        "chainId": "0x4cef52"
      },
      "additionalContracts": [],
      "isFixedGasLimit": false
    },
    {
      "hash": "0xd73b315bbc971b54e34f838ef0665f6340e2b3ea06d73d16bd2a7d0adcf664bc",
      "transactionType": "CALL",
      "contractName": null,
      "contractAddress": "0x962aba0a590981cf9c5b336ac34922c82f203165",
      "function": "list(uint256,uint256,uint256)",
      "arguments": [
        "6",
        "1",
        "51500000000000000000"
      ],
      "transaction": {
        "from": "0x81d48d2c5d0744e8ef7a5c35cdceb0a27a1c707b",
        "to": "0x962aba0a590981cf9c5b336ac34922c82f203165",
        "gas": "0x37ba8",
        "value": "0x0",
        "input": "0x19aeb49000000000000000000000000000000000000000000000000000000000000000060000000000000000000000000000000000000000000000000000000000000001000000000000000000000000000000000000000000000002cab4c1242c9e0000",
        "nonce": "0x1cd",
        "chainId": "0x4cef52"
      },
      "additionalContracts": [],
      "isFixedGasLimit": false
    },
    {
      "hash": "0x461f1c9dec6e0ad3fff290a1b1674d94f36ad32b3cbd0df2361a07dacf6c924d",
      "transactionType": "CALL",
      "contractName": null,
      "contractAddress": "0x962aba0a590981cf9c5b336ac34922c82f203165",
      "function": "list(uint256,uint256,uint256)",
      "arguments": [
        "6",
        "1",
        "53000000000000000000"
      ],
      "transaction": {
        "from": "0x81d48d2c5d0744e8ef7a5c35cdceb0a27a1c707b",
        "to": "0x962aba0a590981cf9c5b336ac34922c82f203165",
        "gas": "0x37ba8",
        "value": "0x0",
        "input": "0x19aeb49000000000000000000000000000000000000000000000000000000000000000060000000000000000000000000000000000000000000000000000000000000001000000000000000000000000000000000000000000000002df85d331a7b40000",
        "nonce": "0x1ce",
        "chainId": "0x4cef52"
      },
      "additionalContracts": [],
      "isFixedGasLimit": false
    }
  ],
  "receipts": [
    {
      "status": "0x1",
      "cumulativeGasUsed": "0x13dc8d",
      "logs": [
        {
          "address": "0x4d82b6e528d3c2e1a3592e14863ec95eaef4ff85",
          "topics": [
            "0xc3d58168c5ae7397731d063d5bbf3d657854427343f4c083240f7aacaa2d0f62",
            "0x000000000000000000000000962aba0a590981cf9c5b336ac34922c82f203165",
            "0x00000000000000000000000081d48d2c5d0744e8ef7a5c35cdceb0a27a1c707b",
            "0x000000000000000000000000962aba0a590981cf9c5b336ac34922c82f203165"
          ],
          "data": "0x00000000000000000000000000000000000000000000000000000000000000010000000000000000000000000000000000000000000000000000000000000001",
          "blockHash": "0xb9136e2e34a4a36253d34b7406ee5432bf2e9d6922b01d64154a688bc6e2423b",
          "blockNumber": "0x2f88cfb",
          "blockTimestamp": "0x6a46a221",
          "transactionHash": "0x6223dce039c410faa3494bb899e66bee4377c44374eee76ebee607233dfac3c1",
          "transactionIndex": "0xa",
          "logIndex": "0xb",
          "removed": false
        },
        {
          "address": "0x962aba0a590981cf9c5b336ac34922c82f203165",
          "topics": [
            "0x1e9d45789795021c76ee4b02700b847667a4f82249aed1f3a7d92b7806d1087e",
            "0x0000000000000000000000000000000000000000000000000000000000000001",
            "0x0000000000000000000000000000000000000000000000000000000000000001",
            "0x00000000000000000000000081d48d2c5d0744e8ef7a5c35cdceb0a27a1c707b"
          ],
          "data": "0x00000000000000000000000000000000000000000000000542253a126ce400000000000000000000000000000000000000000000000000000000000000000001",
          "blockHash": "0xb9136e2e34a4a36253d34b7406ee5432bf2e9d6922b01d64154a688bc6e2423b",
          "blockNumber": "0x2f88cfb",
          "blockTimestamp": "0x6a46a221",
          "transactionHash": "0x6223dce039c410faa3494bb899e66bee4377c44374eee76ebee607233dfac3c1",
          "transactionIndex": "0xa",
          "logIndex": "0xc",
          "removed": false
        }
      ],
      "logsBloom": "0x00000000400000000000000000000000000400000000000000000000000000000000000000000000000000000008000000000000000000000002000000042000000000000000000000000000000000000000000000040000001000000004000000000000000000010000002000200000000000000000000000000000000000000000000000000000000000000000000000000000000000000000000000000000000000000000000000000000000000000001000000000000000000000000000000000000000000000000000000000000000000000009000000000000400040000600000000000000000000000000000000000000000000000200080000000000",
      "type": "0x2",
      "transactionHash": "0x6223dce039c410faa3494bb899e66bee4377c44374eee76ebee607233dfac3c1",
      "transactionIndex": "0xa",
      "blockHash": "0xb9136e2e34a4a36253d34b7406ee5432bf2e9d6922b01d64154a688bc6e2423b",
      "blockNumber": "0x2f88cfb",
      "gasUsed": "0x2c858",
      "effectiveGasPrice": "0x4c07d0a3b",
      "from": "0x81d48d2c5d0744e8ef7a5c35cdceb0a27a1c707b",
      "to": "0x962aba0a590981cf9c5b336ac34922c82f203165",
      "contractAddress": null
    },
    {
      "status": "0x1",
      "cumulativeGasUsed": "0x166219",
      "logs": [
        {
          "address": "0x4d82b6e528d3c2e1a3592e14863ec95eaef4ff85",
          "topics": [
            "0xc3d58168c5ae7397731d063d5bbf3d657854427343f4c083240f7aacaa2d0f62",
            "0x000000000000000000000000962aba0a590981cf9c5b336ac34922c82f203165",
            "0x00000000000000000000000081d48d2c5d0744e8ef7a5c35cdceb0a27a1c707b",
            "0x000000000000000000000000962aba0a590981cf9c5b336ac34922c82f203165"
          ],
          "data": "0x00000000000000000000000000000000000000000000000000000000000000010000000000000000000000000000000000000000000000000000000000000001",
          "blockHash": "0xb9136e2e34a4a36253d34b7406ee5432bf2e9d6922b01d64154a688bc6e2423b",
          "blockNumber": "0x2f88cfb",
          "blockTimestamp": "0x6a46a221",
          "transactionHash": "0xfaf78ab344adb608898f459edc95ab1720eced77be8fc192c191526500c95382",
          "transactionIndex": "0xb",
          "logIndex": "0xd",
          "removed": false
        },
        {
          "address": "0x962aba0a590981cf9c5b336ac34922c82f203165",
          "topics": [
            "0x1e9d45789795021c76ee4b02700b847667a4f82249aed1f3a7d92b7806d1087e",
            "0x0000000000000000000000000000000000000000000000000000000000000002",
            "0x0000000000000000000000000000000000000000000000000000000000000001",
            "0x00000000000000000000000081d48d2c5d0744e8ef7a5c35cdceb0a27a1c707b"
          ],
          "data": "0x0000000000000000000000000000000000000000000000056bc75e2d631000000000000000000000000000000000000000000000000000000000000000000001",
          "blockHash": "0xb9136e2e34a4a36253d34b7406ee5432bf2e9d6922b01d64154a688bc6e2423b",
          "blockNumber": "0x2f88cfb",
          "blockTimestamp": "0x6a46a221",
          "transactionHash": "0xfaf78ab344adb608898f459edc95ab1720eced77be8fc192c191526500c95382",
          "transactionIndex": "0xb",
          "logIndex": "0xe",
          "removed": false
        }
      ],
      "logsBloom": "0x04000000400000000000000000000000000400000000000000000000000000000000000000000000000000000008000000000000000000000002000000042000000000000000000000000000000000000000000000040000001000000004000000000000000000010000002000200000000000000000000000000000000000000000000000000000000000000000000000000000000000000000000000000000000000000000000000000100000000000001000000000000000000000000000000000000000000000000000000000000000000000009000000000000400040000600000000000000000000000000000000000000008000000200080000000000",
      "type": "0x2",
      "transactionHash": "0xfaf78ab344adb608898f459edc95ab1720eced77be8fc192c191526500c95382",
      "transactionIndex": "0xb",
      "blockHash": "0xb9136e2e34a4a36253d34b7406ee5432bf2e9d6922b01d64154a688bc6e2423b",
      "blockNumber": "0x2f88cfb",
      "gasUsed": "0x2858c",
      "effectiveGasPrice": "0x4c07d0a3b",
      "from": "0x81d48d2c5d0744e8ef7a5c35cdceb0a27a1c707b",
      "to": "0x962aba0a590981cf9c5b336ac34922c82f203165",
      "contractAddress": null
    },
    {
      "status": "0x1",
      "cumulativeGasUsed": "0x18e7a5",
      "logs": [
        {
          "address": "0x4d82b6e528d3c2e1a3592e14863ec95eaef4ff85",
          "topics": [
            "0xc3d58168c5ae7397731d063d5bbf3d657854427343f4c083240f7aacaa2d0f62",
            "0x000000000000000000000000962aba0a590981cf9c5b336ac34922c82f203165",
            "0x00000000000000000000000081d48d2c5d0744e8ef7a5c35cdceb0a27a1c707b",
            "0x000000000000000000000000962aba0a590981cf9c5b336ac34922c82f203165"
          ],
          "data": "0x00000000000000000000000000000000000000000000000000000000000000010000000000000000000000000000000000000000000000000000000000000001",
          "blockHash": "0xb9136e2e34a4a36253d34b7406ee5432bf2e9d6922b01d64154a688bc6e2423b",
          "blockNumber": "0x2f88cfb",
          "blockTimestamp": "0x6a46a221",
          "transactionHash": "0xe832ce8e0df02a5c7237156d9ce99eb5a0860d641a7885f872f51dd137819e5f",
          "transactionIndex": "0xc",
          "logIndex": "0xf",
          "removed": false
        },
        {
          "address": "0x962aba0a590981cf9c5b336ac34922c82f203165",
          "topics": [
            "0x1e9d45789795021c76ee4b02700b847667a4f82249aed1f3a7d92b7806d1087e",
            "0x0000000000000000000000000000000000000000000000000000000000000003",
            "0x0000000000000000000000000000000000000000000000000000000000000001",
            "0x00000000000000000000000081d48d2c5d0744e8ef7a5c35cdceb0a27a1c707b"
          ],
          "data": "0x00000000000000000000000000000000000000000000000595698248593c00000000000000000000000000000000000000000000000000000000000000000001",
          "blockHash": "0xb9136e2e34a4a36253d34b7406ee5432bf2e9d6922b01d64154a688bc6e2423b",
          "blockNumber": "0x2f88cfb",
          "blockTimestamp": "0x6a46a221",
          "transactionHash": "0xe832ce8e0df02a5c7237156d9ce99eb5a0860d641a7885f872f51dd137819e5f",
          "transactionIndex": "0xc",
          "logIndex": "0x10",
          "removed": false
        }
      ],
      "logsBloom": "0x00000000400000000000000000000000000400000000000000000000000000000000000000000000000000000008000000000000020000000002000000042000000000000000000000000000000000000000000000040000001000000004000000000000000000010000002000200000000000000000000000000000000000000000000000000000000000000000000000000000000000000000000000000000000000000000000000000000000000000001000000800000000000000000400000000000000000000000000000000000000000000009000000000000400040000600000000000000000000000000000000000000000000000200080000000000",
      "type": "0x2",
      "transactionHash": "0xe832ce8e0df02a5c7237156d9ce99eb5a0860d641a7885f872f51dd137819e5f",
      "transactionIndex": "0xc",
      "blockHash": "0xb9136e2e34a4a36253d34b7406ee5432bf2e9d6922b01d64154a688bc6e2423b",
      "blockNumber": "0x2f88cfb",
      "gasUsed": "0x2858c",
      "effectiveGasPrice": "0x4c07d0a3b",
      "from": "0x81d48d2c5d0744e8ef7a5c35cdceb0a27a1c707b",
      "to": "0x962aba0a590981cf9c5b336ac34922c82f203165",
      "contractAddress": null
    },
    {
      "status": "0x1",
      "cumulativeGasUsed": "0x1a090c",
      "logs": [
        {
          "address": "0xfffffffffffffffffffffffffffffffffffffffe",
          "topics": [
            "0xddf252ad1be2c89b69c2b068fc378daa952ba7f163c4a11628f55a4df523b3ef",
            "0x00000000000000000000000081d48d2c5d0744e8ef7a5c35cdceb0a27a1c707b",
            "0x000000000000000000000000962aba0a590981cf9c5b336ac34922c82f203165"
          ],
          "data": "0x00000000000000000000000000000000000000000000000542253a126ce40000",
          "blockHash": "0xb9136e2e34a4a36253d34b7406ee5432bf2e9d6922b01d64154a688bc6e2423b",
          "blockNumber": "0x2f88cfb",
          "blockTimestamp": "0x6a46a221",
          "transactionHash": "0x2bb1234f6f0f39dd75280c49f1a5a1996bffc121b88f882025dcdd76cfa7769e",
          "transactionIndex": "0xd",
          "logIndex": "0x11",
          "removed": false
        },
        {
          "address": "0x962aba0a590981cf9c5b336ac34922c82f203165",
          "topics": [
            "0xd375d54616745fe1f13240876f3ce1bf39b50bdd13c0d5b7fadfc576a4c9844b",
            "0x0000000000000000000000000000000000000000000000000000000000000001",
            "0x0000000000000000000000000000000000000000000000000000000000000001",
            "0x00000000000000000000000081d48d2c5d0744e8ef7a5c35cdceb0a27a1c707b"
          ],
          "data": "0x00000000000000000000000081d48d2c5d0744e8ef7a5c35cdceb0a27a1c707b000000000000000000000000000000000000000000000000000000000000000100000000000000000000000000000000000000000000000542253a126ce4000000000000000000000000000000000000000000000000000006bb10ee2c108000",
          "blockHash": "0xb9136e2e34a4a36253d34b7406ee5432bf2e9d6922b01d64154a688bc6e2423b",
          "blockNumber": "0x2f88cfb",
          "blockTimestamp": "0x6a46a221",
          "transactionHash": "0x2bb1234f6f0f39dd75280c49f1a5a1996bffc121b88f882025dcdd76cfa7769e",
          "transactionIndex": "0xd",
          "logIndex": "0x12",
          "removed": false
        },
        {
          "address": "0x4d82b6e528d3c2e1a3592e14863ec95eaef4ff85",
          "topics": [
            "0xc3d58168c5ae7397731d063d5bbf3d657854427343f4c083240f7aacaa2d0f62",
            "0x000000000000000000000000962aba0a590981cf9c5b336ac34922c82f203165",
            "0x000000000000000000000000962aba0a590981cf9c5b336ac34922c82f203165",
            "0x00000000000000000000000081d48d2c5d0744e8ef7a5c35cdceb0a27a1c707b"
          ],
          "data": "0x00000000000000000000000000000000000000000000000000000000000000010000000000000000000000000000000000000000000000000000000000000001",
          "blockHash": "0xb9136e2e34a4a36253d34b7406ee5432bf2e9d6922b01d64154a688bc6e2423b",
          "blockNumber": "0x2f88cfb",
          "blockTimestamp": "0x6a46a221",
          "transactionHash": "0x2bb1234f6f0f39dd75280c49f1a5a1996bffc121b88f882025dcdd76cfa7769e",
          "transactionIndex": "0xd",
          "logIndex": "0x13",
          "removed": false
        },
        {
          "address": "0xfffffffffffffffffffffffffffffffffffffffe",
          "topics": [
            "0xddf252ad1be2c89b69c2b068fc378daa952ba7f163c4a11628f55a4df523b3ef",
            "0x000000000000000000000000962aba0a590981cf9c5b336ac34922c82f203165",
            "0x00000000000000000000000081d48d2c5d0744e8ef7a5c35cdceb0a27a1c707b"
          ],
          "data": "0x0000000000000000000000000000000000000000000000053b6a292440d38000",
          "blockHash": "0xb9136e2e34a4a36253d34b7406ee5432bf2e9d6922b01d64154a688bc6e2423b",
          "blockNumber": "0x2f88cfb",
          "blockTimestamp": "0x6a46a221",
          "transactionHash": "0x2bb1234f6f0f39dd75280c49f1a5a1996bffc121b88f882025dcdd76cfa7769e",
          "transactionIndex": "0xd",
          "logIndex": "0x14",
          "removed": false
        },
        {
          "address": "0xfffffffffffffffffffffffffffffffffffffffe",
          "topics": [
            "0xddf252ad1be2c89b69c2b068fc378daa952ba7f163c4a11628f55a4df523b3ef",
            "0x000000000000000000000000962aba0a590981cf9c5b336ac34922c82f203165",
            "0x00000000000000000000000084e243a60a75efe615537af49c5eaee8f3c32ed9"
          ],
          "data": "0x00000000000000000000000000000000000000000000000006bb10ee2c108000",
          "blockHash": "0xb9136e2e34a4a36253d34b7406ee5432bf2e9d6922b01d64154a688bc6e2423b",
          "blockNumber": "0x2f88cfb",
          "blockTimestamp": "0x6a46a221",
          "transactionHash": "0x2bb1234f6f0f39dd75280c49f1a5a1996bffc121b88f882025dcdd76cfa7769e",
          "transactionIndex": "0xd",
          "logIndex": "0x15",
          "removed": false
        }
      ],
      "logsBloom": "0x00000000400000000000000000000000000000000000000000000000000000000000000000000000000000000200000000800000000000000002000000042000000000000000000000000008000000000000000000040000001000000004000000000000000000012000000000200000000000000000000000000010000000000000000000200000000000000000000000000000000000000000000000000000000000000000000000000000000000000001000000000000000000000000000000000002000000000008010000000000000000000009000000000000400040400600000000000000000000000000000000000000000000000200080000880000",
      "type": "0x2",
      "transactionHash": "0x2bb1234f6f0f39dd75280c49f1a5a1996bffc121b88f882025dcdd76cfa7769e",
      "transactionIndex": "0xd",
      "blockHash": "0xb9136e2e34a4a36253d34b7406ee5432bf2e9d6922b01d64154a688bc6e2423b",
      "blockNumber": "0x2f88cfb",
      "gasUsed": "0x12167",
      "effectiveGasPrice": "0x4c07d0a3b",
      "from": "0x81d48d2c5d0744e8ef7a5c35cdceb0a27a1c707b",
      "to": "0x962aba0a590981cf9c5b336ac34922c82f203165",
      "contractAddress": null
    },
    {
      "status": "0x1",
      "cumulativeGasUsed": "0x1c8e98",
      "logs": [
        {
          "address": "0x4d82b6e528d3c2e1a3592e14863ec95eaef4ff85",
          "topics": [
            "0xc3d58168c5ae7397731d063d5bbf3d657854427343f4c083240f7aacaa2d0f62",
            "0x000000000000000000000000962aba0a590981cf9c5b336ac34922c82f203165",
            "0x00000000000000000000000081d48d2c5d0744e8ef7a5c35cdceb0a27a1c707b",
            "0x000000000000000000000000962aba0a590981cf9c5b336ac34922c82f203165"
          ],
          "data": "0x00000000000000000000000000000000000000000000000000000000000000020000000000000000000000000000000000000000000000000000000000000001",
          "blockHash": "0xb9136e2e34a4a36253d34b7406ee5432bf2e9d6922b01d64154a688bc6e2423b",
          "blockNumber": "0x2f88cfb",
          "blockTimestamp": "0x6a46a221",
          "transactionHash": "0x5372dcbdf3bdc265e787a77b43fe9395150e0edaba5b22fff25cd8c06f2a0f6e",
          "transactionIndex": "0xe",
          "logIndex": "0x16",
          "removed": false
        },
        {
          "address": "0x962aba0a590981cf9c5b336ac34922c82f203165",
          "topics": [
            "0x1e9d45789795021c76ee4b02700b847667a4f82249aed1f3a7d92b7806d1087e",
            "0x0000000000000000000000000000000000000000000000000000000000000004",
            "0x0000000000000000000000000000000000000000000000000000000000000002",
            "0x00000000000000000000000081d48d2c5d0744e8ef7a5c35cdceb0a27a1c707b"
          ],
          "data": "0x0000000000000000000000000000000000000000000000014a4a95e6f64c00000000000000000000000000000000000000000000000000000000000000000001",
          "blockHash": "0xb9136e2e34a4a36253d34b7406ee5432bf2e9d6922b01d64154a688bc6e2423b",
          "blockNumber": "0x2f88cfb",
          "blockTimestamp": "0x6a46a221",
          "transactionHash": "0x5372dcbdf3bdc265e787a77b43fe9395150e0edaba5b22fff25cd8c06f2a0f6e",
          "transactionIndex": "0xe",
          "logIndex": "0x17",
          "removed": false
        }
      ],
      "logsBloom": "0x04000000400000000000000000000000000400000000000000000000000000000000000000000000000000000008000000000000000000000002000000002000000000000000000000000000000000000000000000000000001000000004000008000000000000010000002000200000000000000000000000000000000000000000000000000000000000000000000000000000000000000000000000000000000000000000000000000100000000000001000000000000002000000000000000000000000000000000000000000000000000008009000000000000400000000600000000000000000000000000000000000000008000000200080000000000",
      "type": "0x2",
      "transactionHash": "0x5372dcbdf3bdc265e787a77b43fe9395150e0edaba5b22fff25cd8c06f2a0f6e",
      "transactionIndex": "0xe",
      "blockHash": "0xb9136e2e34a4a36253d34b7406ee5432bf2e9d6922b01d64154a688bc6e2423b",
      "blockNumber": "0x2f88cfb",
      "gasUsed": "0x2858c",
      "effectiveGasPrice": "0x4c07d0a3b",
      "from": "0x81d48d2c5d0744e8ef7a5c35cdceb0a27a1c707b",
      "to": "0x962aba0a590981cf9c5b336ac34922c82f203165",
      "contractAddress": null
    },
    {
      "status": "0x1",
      "cumulativeGasUsed": "0x21209c",
      "logs": [
        {
          "address": "0x4d82b6e528d3c2e1a3592e14863ec95eaef4ff85",
          "topics": [
            "0xc3d58168c5ae7397731d063d5bbf3d657854427343f4c083240f7aacaa2d0f62",
            "0x000000000000000000000000962aba0a590981cf9c5b336ac34922c82f203165",
            "0x00000000000000000000000081d48d2c5d0744e8ef7a5c35cdceb0a27a1c707b",
            "0x000000000000000000000000962aba0a590981cf9c5b336ac34922c82f203165"
          ],
          "data": "0x00000000000000000000000000000000000000000000000000000000000000020000000000000000000000000000000000000000000000000000000000000001",
          "blockHash": "0xb9136e2e34a4a36253d34b7406ee5432bf2e9d6922b01d64154a688bc6e2423b",
          "blockNumber": "0x2f88cfb",
          "blockTimestamp": "0x6a46a221",
          "transactionHash": "0x556a83d0b98540c3e5c131ac7161cc20a22446a2c5427db8ec8d178ec414a7a5",
          "transactionIndex": "0x10",
          "logIndex": "0x19",
          "removed": false
        },
        {
          "address": "0x962aba0a590981cf9c5b336ac34922c82f203165",
          "topics": [
            "0x1e9d45789795021c76ee4b02700b847667a4f82249aed1f3a7d92b7806d1087e",
            "0x0000000000000000000000000000000000000000000000000000000000000005",
            "0x0000000000000000000000000000000000000000000000000000000000000002",
            "0x00000000000000000000000081d48d2c5d0744e8ef7a5c35cdceb0a27a1c707b"
          ],
          "data": "0x0000000000000000000000000000000000000000000000015e1bdc56198e00000000000000000000000000000000000000000000000000000000000000000001",
          "blockHash": "0xb9136e2e34a4a36253d34b7406ee5432bf2e9d6922b01d64154a688bc6e2423b",
          "blockNumber": "0x2f88cfb",
          "blockTimestamp": "0x6a46a221",
          "transactionHash": "0x556a83d0b98540c3e5c131ac7161cc20a22446a2c5427db8ec8d178ec414a7a5",
          "transactionIndex": "0x10",
          "logIndex": "0x1a",
          "removed": false
        }
      ],
      "logsBloom": "0x04000000400000000000000000000000000400000000000000000000000000000000000000000000000000000008000000000000000000000002000000002000000010000000000000000000000000000000000000000000001000000004000000000000000000010000002000200000000000000000000000000000000000000000000000000000000000000000001000000800000000000000000000000000000000000000000000000100000000000001000000000000000000000000000000000000000000000000000000000000000000000009000000000000400000000600000000000000000000000000000000000000008000000200080000000000",
      "type": "0x2",
      "transactionHash": "0x556a83d0b98540c3e5c131ac7161cc20a22446a2c5427db8ec8d178ec414a7a5",
      "transactionIndex": "0x10",
      "blockHash": "0xb9136e2e34a4a36253d34b7406ee5432bf2e9d6922b01d64154a688bc6e2423b",
      "blockNumber": "0x2f88cfb",
      "gasUsed": "0x2858c",
      "effectiveGasPrice": "0x4c07d0a3b",
      "from": "0x81d48d2c5d0744e8ef7a5c35cdceb0a27a1c707b",
      "to": "0x962aba0a590981cf9c5b336ac34922c82f203165",
      "contractAddress": null
    },
    {
      "status": "0x1",
      "cumulativeGasUsed": "0x23a634",
      "logs": [
        {
          "address": "0x4d82b6e528d3c2e1a3592e14863ec95eaef4ff85",
          "topics": [
            "0xc3d58168c5ae7397731d063d5bbf3d657854427343f4c083240f7aacaa2d0f62",
            "0x000000000000000000000000962aba0a590981cf9c5b336ac34922c82f203165",
            "0x00000000000000000000000081d48d2c5d0744e8ef7a5c35cdceb0a27a1c707b",
            "0x000000000000000000000000962aba0a590981cf9c5b336ac34922c82f203165"
          ],
          "data": "0x00000000000000000000000000000000000000000000000000000000000000030000000000000000000000000000000000000000000000000000000000000001",
          "blockHash": "0xb9136e2e34a4a36253d34b7406ee5432bf2e9d6922b01d64154a688bc6e2423b",
          "blockNumber": "0x2f88cfb",
          "blockTimestamp": "0x6a46a221",
          "transactionHash": "0xa5d118b9eabdb3b2f4d38be48589374a78cbf727bc6b3c86ab55057a6d223308",
          "transactionIndex": "0x11",
          "logIndex": "0x1b",
          "removed": false
        },
        {
          "address": "0x962aba0a590981cf9c5b336ac34922c82f203165",
          "topics": [
            "0x1e9d45789795021c76ee4b02700b847667a4f82249aed1f3a7d92b7806d1087e",
            "0x0000000000000000000000000000000000000000000000000000000000000006",
            "0x0000000000000000000000000000000000000000000000000000000000000003",
            "0x00000000000000000000000081d48d2c5d0744e8ef7a5c35cdceb0a27a1c707b"
          ],
          "data": "0x000000000000000000000000000000000000000000000002eb1c57451b2780000000000000000000000000000000000000000000000000000000000000000001",
          "blockHash": "0xb9136e2e34a4a36253d34b7406ee5432bf2e9d6922b01d64154a688bc6e2423b",
          "blockNumber": "0x2f88cfb",
          "blockTimestamp": "0x6a46a221",
          "transactionHash": "0xa5d118b9eabdb3b2f4d38be48589374a78cbf727bc6b3c86ab55057a6d223308",
          "transactionIndex": "0x11",
          "logIndex": "0x1c",
          "removed": false
        }
      ],
      "logsBloom": "0x00000000400000000000000000000000000400000000000000000000000000000000000000000000000000000008000000000000020400000002000000002000000000000000000000000000000000000000000000000000001000000004000000000000000000010000002000200000000000000000000000000000000000000000000400000000000000000000000000000000000000000000000000000000000000000000000000000000000000000001000000800000000000080000400000000000000000000000000000000000000000000009000000000000400000000600000000000000000000000000000000000000000000000200080000000000",
      "type": "0x2",
      "transactionHash": "0xa5d118b9eabdb3b2f4d38be48589374a78cbf727bc6b3c86ab55057a6d223308",
      "transactionIndex": "0x11",
      "blockHash": "0xb9136e2e34a4a36253d34b7406ee5432bf2e9d6922b01d64154a688bc6e2423b",
      "blockNumber": "0x2f88cfb",
      "gasUsed": "0x28598",
      "effectiveGasPrice": "0x4c07d0a3b",
      "from": "0x81d48d2c5d0744e8ef7a5c35cdceb0a27a1c707b",
      "to": "0x962aba0a590981cf9c5b336ac34922c82f203165",
      "contractAddress": null
    },
    {
      "status": "0x1",
      "cumulativeGasUsed": "0x262bcc",
      "logs": [
        {
          "address": "0x4d82b6e528d3c2e1a3592e14863ec95eaef4ff85",
          "topics": [
            "0xc3d58168c5ae7397731d063d5bbf3d657854427343f4c083240f7aacaa2d0f62",
            "0x000000000000000000000000962aba0a590981cf9c5b336ac34922c82f203165",
            "0x00000000000000000000000081d48d2c5d0744e8ef7a5c35cdceb0a27a1c707b",
            "0x000000000000000000000000962aba0a590981cf9c5b336ac34922c82f203165"
          ],
          "data": "0x00000000000000000000000000000000000000000000000000000000000000030000000000000000000000000000000000000000000000000000000000000001",
          "blockHash": "0xb9136e2e34a4a36253d34b7406ee5432bf2e9d6922b01d64154a688bc6e2423b",
          "blockNumber": "0x2f88cfb",
          "blockTimestamp": "0x6a46a221",
          "transactionHash": "0xedeac412c0752b2bb505c4c86fd6f75fea2fd10028c4ff7324543ff18c79b5d7",
          "transactionIndex": "0x12",
          "logIndex": "0x1d",
          "removed": false
        },
        {
          "address": "0x962aba0a590981cf9c5b336ac34922c82f203165",
          "topics": [
            "0x1e9d45789795021c76ee4b02700b847667a4f82249aed1f3a7d92b7806d1087e",
            "0x0000000000000000000000000000000000000000000000000000000000000007",
            "0x0000000000000000000000000000000000000000000000000000000000000003",
            "0x00000000000000000000000081d48d2c5d0744e8ef7a5c35cdceb0a27a1c707b"
          ],
          "data": "0x0000000000000000000000000000000000000000000000031952e0a0793480000000000000000000000000000000000000000000000000000000000000000001",
          "blockHash": "0xb9136e2e34a4a36253d34b7406ee5432bf2e9d6922b01d64154a688bc6e2423b",
          "blockNumber": "0x2f88cfb",
          "blockTimestamp": "0x6a46a221",
          "transactionHash": "0xedeac412c0752b2bb505c4c86fd6f75fea2fd10028c4ff7324543ff18c79b5d7",
          "transactionIndex": "0x12",
          "logIndex": "0x1e",
          "removed": false
        }
      ],
      "logsBloom": "0x00000000400000000000000000000000000400000000000000000000000000000000000000000000000000000008000000001000020000000002000000002000000020000000000000000000000000000000000000000000001000000004000000000000000000010000002000200000000000000000000000000000000000000000000000000000000000000000000000000000000000000000000000000000000000000000000000000000000000000001000000800000000000000000400000000000000000000000000000000000000000000009000000000100400000000600000000000000000000000000000000000000000000000200080000000000",
      "type": "0x2",
      "transactionHash": "0xedeac412c0752b2bb505c4c86fd6f75fea2fd10028c4ff7324543ff18c79b5d7",
      "transactionIndex": "0x12",
      "blockHash": "0xb9136e2e34a4a36253d34b7406ee5432bf2e9d6922b01d64154a688bc6e2423b",
      "blockNumber": "0x2f88cfb",
      "gasUsed": "0x28598",
      "effectiveGasPrice": "0x4c07d0a3b",
      "from": "0x81d48d2c5d0744e8ef7a5c35cdceb0a27a1c707b",
      "to": "0x962aba0a590981cf9c5b336ac34922c82f203165",
      "contractAddress": null
    },
    {
      "status": "0x1",
      "cumulativeGasUsed": "0x28b158",
      "logs": [
        {
          "address": "0x4d82b6e528d3c2e1a3592e14863ec95eaef4ff85",
          "topics": [
            "0xc3d58168c5ae7397731d063d5bbf3d657854427343f4c083240f7aacaa2d0f62",
            "0x000000000000000000000000962aba0a590981cf9c5b336ac34922c82f203165",
            "0x00000000000000000000000081d48d2c5d0744e8ef7a5c35cdceb0a27a1c707b",
            "0x000000000000000000000000962aba0a590981cf9c5b336ac34922c82f203165"
          ],
          "data": "0x00000000000000000000000000000000000000000000000000000000000000030000000000000000000000000000000000000000000000000000000000000001",
          "blockHash": "0xb9136e2e34a4a36253d34b7406ee5432bf2e9d6922b01d64154a688bc6e2423b",
          "blockNumber": "0x2f88cfb",
          "blockTimestamp": "0x6a46a221",
          "transactionHash": "0xee7fd3f022709d5cbb2da0e0976e4fa058625c8c3e6a80c18efb0ecb93e9aebc",
          "transactionIndex": "0x13",
          "logIndex": "0x1f",
          "removed": false
        },
        {
          "address": "0x962aba0a590981cf9c5b336ac34922c82f203165",
          "topics": [
            "0x1e9d45789795021c76ee4b02700b847667a4f82249aed1f3a7d92b7806d1087e",
            "0x0000000000000000000000000000000000000000000000000000000000000008",
            "0x0000000000000000000000000000000000000000000000000000000000000003",
            "0x00000000000000000000000081d48d2c5d0744e8ef7a5c35cdceb0a27a1c707b"
          ],
          "data": "0x000000000000000000000000000000000000000000000003306e254e283b00000000000000000000000000000000000000000000000000000000000000000001",
          "blockHash": "0xb9136e2e34a4a36253d34b7406ee5432bf2e9d6922b01d64154a688bc6e2423b",
          "blockNumber": "0x2f88cfb",
          "blockTimestamp": "0x6a46a221",
          "transactionHash": "0xee7fd3f022709d5cbb2da0e0976e4fa058625c8c3e6a80c18efb0ecb93e9aebc",
          "transactionIndex": "0x13",
          "logIndex": "0x20",
          "removed": false
        }
      ],
      "logsBloom": "0x00000000400000000000000000000000000400000000000000000000000000000000000000000000000000000008000000000000020080000002000000002000000000000000000000000000000000000000000000000000001000000004000000000000000000010000002000200000000000000000000000000000000000000080000000000000000000000000000000000000000000000000000000000000000000000000000000000000000000000001000000800000000000000000400040000000000000000000000000000000000000000009000000000000400000000600000000000000000000000000000000000000000000000200080000000000",
      "type": "0x2",
      "transactionHash": "0xee7fd3f022709d5cbb2da0e0976e4fa058625c8c3e6a80c18efb0ecb93e9aebc",
      "transactionIndex": "0x13",
      "blockHash": "0xb9136e2e34a4a36253d34b7406ee5432bf2e9d6922b01d64154a688bc6e2423b",
      "blockNumber": "0x2f88cfb",
      "gasUsed": "0x2858c",
      "effectiveGasPrice": "0x4c07d0a3b",
      "from": "0x81d48d2c5d0744e8ef7a5c35cdceb0a27a1c707b",
      "to": "0x962aba0a590981cf9c5b336ac34922c82f203165",
      "contractAddress": null
    },
    {
      "status": "0x1",
      "cumulativeGasUsed": "0xa7694",
      "logs": [
        {
          "address": "0xfffffffffffffffffffffffffffffffffffffffe",
          "topics": [
            "0xddf252ad1be2c89b69c2b068fc378daa952ba7f163c4a11628f55a4df523b3ef",
            "0x00000000000000000000000081d48d2c5d0744e8ef7a5c35cdceb0a27a1c707b",
            "0x000000000000000000000000962aba0a590981cf9c5b336ac34922c82f203165"
          ],
          "data": "0x0000000000000000000000000000000000000000000000031952e0a079348000",
          "blockHash": "0x2c9d1a5ab20844b1be7d931e2bf115bf81fc24a0e11c650f68d0e22e9984d89a",
          "blockNumber": "0x2f88cfc",
          "blockTimestamp": "0x6a46a221",
          "transactionHash": "0x69a4d69cb463efcb4cf747362fe64f91dec138fc6cbf1f3523a3f5107232c800",
          "transactionIndex": "0x5",
          "logIndex": "0xe",
          "removed": false
        },
        {
          "address": "0x962aba0a590981cf9c5b336ac34922c82f203165",
          "topics": [
            "0xd375d54616745fe1f13240876f3ce1bf39b50bdd13c0d5b7fadfc576a4c9844b",
            "0x0000000000000000000000000000000000000000000000000000000000000007",
            "0x0000000000000000000000000000000000000000000000000000000000000003",
            "0x00000000000000000000000081d48d2c5d0744e8ef7a5c35cdceb0a27a1c707b"
          ],
          "data": "0x00000000000000000000000081d48d2c5d0744e8ef7a5c35cdceb0a27a1c707b00000000000000000000000000000000000000000000000000000000000000010000000000000000000000000000000000000000000000031952e0a07934800000000000000000000000000000000000000000000000000003f77452b8ed1000",
          "blockHash": "0x2c9d1a5ab20844b1be7d931e2bf115bf81fc24a0e11c650f68d0e22e9984d89a",
          "blockNumber": "0x2f88cfc",
          "blockTimestamp": "0x6a46a221",
          "transactionHash": "0x69a4d69cb463efcb4cf747362fe64f91dec138fc6cbf1f3523a3f5107232c800",
          "transactionIndex": "0x5",
          "logIndex": "0xf",
          "removed": false
        },
        {
          "address": "0x4d82b6e528d3c2e1a3592e14863ec95eaef4ff85",
          "topics": [
            "0xc3d58168c5ae7397731d063d5bbf3d657854427343f4c083240f7aacaa2d0f62",
            "0x000000000000000000000000962aba0a590981cf9c5b336ac34922c82f203165",
            "0x000000000000000000000000962aba0a590981cf9c5b336ac34922c82f203165",
            "0x00000000000000000000000081d48d2c5d0744e8ef7a5c35cdceb0a27a1c707b"
          ],
          "data": "0x00000000000000000000000000000000000000000000000000000000000000030000000000000000000000000000000000000000000000000000000000000001",
          "blockHash": "0x2c9d1a5ab20844b1be7d931e2bf115bf81fc24a0e11c650f68d0e22e9984d89a",
          "blockNumber": "0x2f88cfc",
          "blockTimestamp": "0x6a46a221",
          "transactionHash": "0x69a4d69cb463efcb4cf747362fe64f91dec138fc6cbf1f3523a3f5107232c800",
          "transactionIndex": "0x5",
          "logIndex": "0x10",
          "removed": false
        },
        {
          "address": "0xfffffffffffffffffffffffffffffffffffffffe",
          "topics": [
            "0xddf252ad1be2c89b69c2b068fc378daa952ba7f163c4a11628f55a4df523b3ef",
            "0x000000000000000000000000962aba0a590981cf9c5b336ac34922c82f203165",
            "0x00000000000000000000000081d48d2c5d0744e8ef7a5c35cdceb0a27a1c707b"
          ],
          "data": "0x000000000000000000000000000000000000000000000003155b6c4dc0477000",
          "blockHash": "0x2c9d1a5ab20844b1be7d931e2bf115bf81fc24a0e11c650f68d0e22e9984d89a",
          "blockNumber": "0x2f88cfc",
          "blockTimestamp": "0x6a46a221",
          "transactionHash": "0x69a4d69cb463efcb4cf747362fe64f91dec138fc6cbf1f3523a3f5107232c800",
          "transactionIndex": "0x5",
          "logIndex": "0x11",
          "removed": false
        },
        {
          "address": "0xfffffffffffffffffffffffffffffffffffffffe",
          "topics": [
            "0xddf252ad1be2c89b69c2b068fc378daa952ba7f163c4a11628f55a4df523b3ef",
            "0x000000000000000000000000962aba0a590981cf9c5b336ac34922c82f203165",
            "0x00000000000000000000000084e243a60a75efe615537af49c5eaee8f3c32ed9"
          ],
          "data": "0x00000000000000000000000000000000000000000000000003f77452b8ed1000",
          "blockHash": "0x2c9d1a5ab20844b1be7d931e2bf115bf81fc24a0e11c650f68d0e22e9984d89a",
          "blockNumber": "0x2f88cfc",
          "blockTimestamp": "0x6a46a221",
          "transactionHash": "0x69a4d69cb463efcb4cf747362fe64f91dec138fc6cbf1f3523a3f5107232c800",
          "transactionIndex": "0x5",
          "logIndex": "0x12",
          "removed": false
        }
      ],
      "logsBloom": "0x00000000400000000000000000000000000000000000000000000000000000000000000000000000000000000200000000801000020000000002000000002000000020000000000000000008000000000000000000000000001000000004000000000000000000012000000000200000000000000000000000000010000000000000000000200000000000000000000000000000000000000000000000000000000000000000000000000000000000000001000000800000000000000000400000000002000000000008010000000000000000000009000000000100400000400600000000000000000000000000000000000000000000000200080000880000",
      "type": "0x2",
      "transactionHash": "0x69a4d69cb463efcb4cf747362fe64f91dec138fc6cbf1f3523a3f5107232c800",
      "transactionIndex": "0x5",
      "blockHash": "0x2c9d1a5ab20844b1be7d931e2bf115bf81fc24a0e11c650f68d0e22e9984d89a",
      "blockNumber": "0x2f88cfc",
      "gasUsed": "0x12167",
      "effectiveGasPrice": "0x4c07d0a3b",
      "from": "0x81d48d2c5d0744e8ef7a5c35cdceb0a27a1c707b",
      "to": "0x962aba0a590981cf9c5b336ac34922c82f203165",
      "contractAddress": null
    },
    {
      "status": "0x1",
      "cumulativeGasUsed": "0xcfc14",
      "logs": [
        {
          "address": "0x4d82b6e528d3c2e1a3592e14863ec95eaef4ff85",
          "topics": [
            "0xc3d58168c5ae7397731d063d5bbf3d657854427343f4c083240f7aacaa2d0f62",
            "0x000000000000000000000000962aba0a590981cf9c5b336ac34922c82f203165",
            "0x00000000000000000000000081d48d2c5d0744e8ef7a5c35cdceb0a27a1c707b",
            "0x000000000000000000000000962aba0a590981cf9c5b336ac34922c82f203165"
          ],
          "data": "0x00000000000000000000000000000000000000000000000000000000000000040000000000000000000000000000000000000000000000000000000000000001",
          "blockHash": "0x2c9d1a5ab20844b1be7d931e2bf115bf81fc24a0e11c650f68d0e22e9984d89a",
          "blockNumber": "0x2f88cfc",
          "blockTimestamp": "0x6a46a221",
          "transactionHash": "0x36ded63f032042124308fca9ec9df606d7e2526df6f1c6246caa1415f20c6baa",
          "transactionIndex": "0x6",
          "logIndex": "0x13",
          "removed": false
        },
        {
          "address": "0x962aba0a590981cf9c5b336ac34922c82f203165",
          "topics": [
            "0x1e9d45789795021c76ee4b02700b847667a4f82249aed1f3a7d92b7806d1087e",
            "0x0000000000000000000000000000000000000000000000000000000000000009",
            "0x0000000000000000000000000000000000000000000000000000000000000004",
            "0x00000000000000000000000081d48d2c5d0744e8ef7a5c35cdceb0a27a1c707b"
          ],
          "data": "0x00000000000000000000000000000000000000000000000019ac8532c27900000000000000000000000000000000000000000000000000000000000000000001",
          "blockHash": "0x2c9d1a5ab20844b1be7d931e2bf115bf81fc24a0e11c650f68d0e22e9984d89a",
          "blockNumber": "0x2f88cfc",
          "blockTimestamp": "0x6a46a221",
          "transactionHash": "0x36ded63f032042124308fca9ec9df606d7e2526df6f1c6246caa1415f20c6baa",
          "transactionIndex": "0x6",
          "logIndex": "0x14",
          "removed": false
        }
      ],
      "logsBloom": "0x00000000400000000000000000000000000400000000000000000000000000000000000000000000000000000008000000000000000000000002000000202000000000000000000000000000000000000000000000000000001000000004000008000000000000010000002000200000000000000000000000000000000000000000000000000000000000000000000000001000000000000000000000000000000000000000000000000000000000000001000000000000002000000000000000000000000000000000000000000000000000008009000000000000400000000600000000000000000000000000000000000000000000000200080000800000",
      "type": "0x2",
      "transactionHash": "0x36ded63f032042124308fca9ec9df606d7e2526df6f1c6246caa1415f20c6baa",
      "transactionIndex": "0x6",
      "blockHash": "0x2c9d1a5ab20844b1be7d931e2bf115bf81fc24a0e11c650f68d0e22e9984d89a",
      "blockNumber": "0x2f88cfc",
      "gasUsed": "0x28580",
      "effectiveGasPrice": "0x4c07d0a3b",
      "from": "0x81d48d2c5d0744e8ef7a5c35cdceb0a27a1c707b",
      "to": "0x962aba0a590981cf9c5b336ac34922c82f203165",
      "contractAddress": null
    },
    {
      "status": "0x1",
      "cumulativeGasUsed": "0xf81a0",
      "logs": [
        {
          "address": "0x4d82b6e528d3c2e1a3592e14863ec95eaef4ff85",
          "topics": [
            "0xc3d58168c5ae7397731d063d5bbf3d657854427343f4c083240f7aacaa2d0f62",
            "0x000000000000000000000000962aba0a590981cf9c5b336ac34922c82f203165",
            "0x00000000000000000000000081d48d2c5d0744e8ef7a5c35cdceb0a27a1c707b",
            "0x000000000000000000000000962aba0a590981cf9c5b336ac34922c82f203165"
          ],
          "data": "0x00000000000000000000000000000000000000000000000000000000000000040000000000000000000000000000000000000000000000000000000000000001",
          "blockHash": "0x2c9d1a5ab20844b1be7d931e2bf115bf81fc24a0e11c650f68d0e22e9984d89a",
          "blockNumber": "0x2f88cfc",
          "blockTimestamp": "0x6a46a221",
          "transactionHash": "0x14270be3ccab6d74d23927e67d75feb590e1d4032a3767ac6c74dc22da3d83a7",
          "transactionIndex": "0x7",
          "logIndex": "0x15",
          "removed": false
        },
        {
          "address": "0x962aba0a590981cf9c5b336ac34922c82f203165",
          "topics": [
            "0x1e9d45789795021c76ee4b02700b847667a4f82249aed1f3a7d92b7806d1087e",
            "0x000000000000000000000000000000000000000000000000000000000000000a",
            "0x0000000000000000000000000000000000000000000000000000000000000004",
            "0x00000000000000000000000081d48d2c5d0744e8ef7a5c35cdceb0a27a1c707b"
          ],
          "data": "0x0000000000000000000000000000000000000000000000001a71b2277b81c0000000000000000000000000000000000000000000000000000000000000000001",
          "blockHash": "0x2c9d1a5ab20844b1be7d931e2bf115bf81fc24a0e11c650f68d0e22e9984d89a",
          "blockNumber": "0x2f88cfc",
          "blockTimestamp": "0x6a46a221",
          "transactionHash": "0x14270be3ccab6d74d23927e67d75feb590e1d4032a3767ac6c74dc22da3d83a7",
          "transactionIndex": "0x7",
          "logIndex": "0x16",
          "removed": false
        }
      ],
      "logsBloom": "0x00000000400000000000000000000000000400000000000000000000000000000000000000000000000000000008000000000000040000000022000000002000000000000000000000000000000000000000000000000000001000000004000008000000000000010000002000200000000000000000000000000000000000000000000000000000010000000000000000000000000000000000000000000000000000000000000000000000000000000001000000000000002000000000000000000000000000000000000000000000000000008009000000000000400000000600000000000000000000000000000000000000000000000200080000000000",
      "type": "0x2",
      "transactionHash": "0x14270be3ccab6d74d23927e67d75feb590e1d4032a3767ac6c74dc22da3d83a7",
      "transactionIndex": "0x7",
      "blockHash": "0x2c9d1a5ab20844b1be7d931e2bf115bf81fc24a0e11c650f68d0e22e9984d89a",
      "blockNumber": "0x2f88cfc",
      "gasUsed": "0x2858c",
      "effectiveGasPrice": "0x4c07d0a3b",
      "from": "0x81d48d2c5d0744e8ef7a5c35cdceb0a27a1c707b",
      "to": "0x962aba0a590981cf9c5b336ac34922c82f203165",
      "contractAddress": null
    },
    {
      "status": "0x1",
      "cumulativeGasUsed": "0x12072c",
      "logs": [
        {
          "address": "0x4d82b6e528d3c2e1a3592e14863ec95eaef4ff85",
          "topics": [
            "0xc3d58168c5ae7397731d063d5bbf3d657854427343f4c083240f7aacaa2d0f62",
            "0x000000000000000000000000962aba0a590981cf9c5b336ac34922c82f203165",
            "0x00000000000000000000000081d48d2c5d0744e8ef7a5c35cdceb0a27a1c707b",
            "0x000000000000000000000000962aba0a590981cf9c5b336ac34922c82f203165"
          ],
          "data": "0x00000000000000000000000000000000000000000000000000000000000000050000000000000000000000000000000000000000000000000000000000000001",
          "blockHash": "0x2c9d1a5ab20844b1be7d931e2bf115bf81fc24a0e11c650f68d0e22e9984d89a",
          "blockNumber": "0x2f88cfc",
          "blockTimestamp": "0x6a46a221",
          "transactionHash": "0xdcfb65f1576709ef3b19c1d4315ddf5f8235445c2bf1f25517a6efc49d95375a",
          "transactionIndex": "0x8",
          "logIndex": "0x17",
          "removed": false
        },
        {
          "address": "0x962aba0a590981cf9c5b336ac34922c82f203165",
          "topics": [
            "0x1e9d45789795021c76ee4b02700b847667a4f82249aed1f3a7d92b7806d1087e",
            "0x000000000000000000000000000000000000000000000000000000000000000b",
            "0x0000000000000000000000000000000000000000000000000000000000000005",
            "0x00000000000000000000000081d48d2c5d0744e8ef7a5c35cdceb0a27a1c707b"
          ],
          "data": "0x0000000000000000000000000000000000000000000000052c9b6a4b797c00000000000000000000000000000000000000000000000000000000000000000001",
          "blockHash": "0x2c9d1a5ab20844b1be7d931e2bf115bf81fc24a0e11c650f68d0e22e9984d89a",
          "blockNumber": "0x2f88cfc",
          "blockTimestamp": "0x6a46a221",
          "transactionHash": "0xdcfb65f1576709ef3b19c1d4315ddf5f8235445c2bf1f25517a6efc49d95375a",
          "transactionIndex": "0x8",
          "logIndex": "0x18",
          "removed": false
        }
      ],
      "logsBloom": "0x00000000400000000000004000000000000400000000000000000000000000000000000000000000000000000008000000000000000000000002000000002000000010000000000000000000000000000000000000000000001000000004000000000000000000010000002000200000000000000000000000000000000000000000000000000000000000000000001000000800000000000000000000000000000000000000000000000000000000000001000000000000000000000000000000000000000000000000000000000000002000000009000000000000400000000600000000000000000000000000000000000000000000040200080000000000",
      "type": "0x2",
      "transactionHash": "0xdcfb65f1576709ef3b19c1d4315ddf5f8235445c2bf1f25517a6efc49d95375a",
      "transactionIndex": "0x8",
      "blockHash": "0x2c9d1a5ab20844b1be7d931e2bf115bf81fc24a0e11c650f68d0e22e9984d89a",
      "blockNumber": "0x2f88cfc",
      "gasUsed": "0x2858c",
      "effectiveGasPrice": "0x4c07d0a3b",
      "from": "0x81d48d2c5d0744e8ef7a5c35cdceb0a27a1c707b",
      "to": "0x962aba0a590981cf9c5b336ac34922c82f203165",
      "contractAddress": null
    },
    {
      "status": "0x1",
      "cumulativeGasUsed": "0x148cb8",
      "logs": [
        {
          "address": "0x4d82b6e528d3c2e1a3592e14863ec95eaef4ff85",
          "topics": [
            "0xc3d58168c5ae7397731d063d5bbf3d657854427343f4c083240f7aacaa2d0f62",
            "0x000000000000000000000000962aba0a590981cf9c5b336ac34922c82f203165",
            "0x00000000000000000000000081d48d2c5d0744e8ef7a5c35cdceb0a27a1c707b",
            "0x000000000000000000000000962aba0a590981cf9c5b336ac34922c82f203165"
          ],
          "data": "0x00000000000000000000000000000000000000000000000000000000000000050000000000000000000000000000000000000000000000000000000000000001",
          "blockHash": "0x2c9d1a5ab20844b1be7d931e2bf115bf81fc24a0e11c650f68d0e22e9984d89a",
          "blockNumber": "0x2f88cfc",
          "blockTimestamp": "0x6a46a221",
          "transactionHash": "0x4c921bf1365acb1ee47cb064ccb7ef0bf458323fecde8afbf67ac1dab9d3c352",
          "transactionIndex": "0x9",
          "logIndex": "0x19",
          "removed": false
        },
        {
          "address": "0x962aba0a590981cf9c5b336ac34922c82f203165",
          "topics": [
            "0x1e9d45789795021c76ee4b02700b847667a4f82249aed1f3a7d92b7806d1087e",
            "0x000000000000000000000000000000000000000000000000000000000000000c",
            "0x0000000000000000000000000000000000000000000000000000000000000005",
            "0x00000000000000000000000081d48d2c5d0744e8ef7a5c35cdceb0a27a1c707b"
          ],
          "data": "0x000000000000000000000000000000000000000000000005559306a78a7000000000000000000000000000000000000000000000000000000000000000000001",
          "blockHash": "0x2c9d1a5ab20844b1be7d931e2bf115bf81fc24a0e11c650f68d0e22e9984d89a",
          "blockNumber": "0x2f88cfc",
          "blockTimestamp": "0x6a46a221",
          "transactionHash": "0x4c921bf1365acb1ee47cb064ccb7ef0bf458323fecde8afbf67ac1dab9d3c352",
          "transactionIndex": "0x9",
          "logIndex": "0x1a",
          "removed": false
        }
      ],
      "logsBloom": "0x00000000400000000000000000000000000402000000000000000000000000000000000000000200000000000008000000000000000000000002000000002000000010000000000000000000000000000000000000000000001000000004000000000000000000010000002000200000000000000000000000000000000000000000000000000000000000000000001000000800000000000000000000000000000000000000000000000000000000000001000000000000000000000000000000000000000000000000000000000000000000000009000000000000400000200600000000000000000000000000000000000000000000000200080000000000",
      "type": "0x2",
      "transactionHash": "0x4c921bf1365acb1ee47cb064ccb7ef0bf458323fecde8afbf67ac1dab9d3c352",
      "transactionIndex": "0x9",
      "blockHash": "0x2c9d1a5ab20844b1be7d931e2bf115bf81fc24a0e11c650f68d0e22e9984d89a",
      "blockNumber": "0x2f88cfc",
      "gasUsed": "0x2858c",
      "effectiveGasPrice": "0x4c07d0a3b",
      "from": "0x81d48d2c5d0744e8ef7a5c35cdceb0a27a1c707b",
      "to": "0x962aba0a590981cf9c5b336ac34922c82f203165",
      "contractAddress": null
    },
    {
      "status": "0x1",
      "cumulativeGasUsed": "0x171244",
      "logs": [
        {
          "address": "0x4d82b6e528d3c2e1a3592e14863ec95eaef4ff85",
          "topics": [
            "0xc3d58168c5ae7397731d063d5bbf3d657854427343f4c083240f7aacaa2d0f62",
            "0x000000000000000000000000962aba0a590981cf9c5b336ac34922c82f203165",
            "0x00000000000000000000000081d48d2c5d0744e8ef7a5c35cdceb0a27a1c707b",
            "0x000000000000000000000000962aba0a590981cf9c5b336ac34922c82f203165"
          ],
          "data": "0x00000000000000000000000000000000000000000000000000000000000000050000000000000000000000000000000000000000000000000000000000000001",
          "blockHash": "0x2c9d1a5ab20844b1be7d931e2bf115bf81fc24a0e11c650f68d0e22e9984d89a",
          "blockNumber": "0x2f88cfc",
          "blockTimestamp": "0x6a46a221",
          "transactionHash": "0x7095df229c81a27b880c9a66ef9cdda776fe61dca422e0ea10575ae8248a5b45",
          "transactionIndex": "0xa",
          "logIndex": "0x1b",
          "removed": false
        },
        {
          "address": "0x962aba0a590981cf9c5b336ac34922c82f203165",
          "topics": [
            "0x1e9d45789795021c76ee4b02700b847667a4f82249aed1f3a7d92b7806d1087e",
            "0x000000000000000000000000000000000000000000000000000000000000000d",
            "0x0000000000000000000000000000000000000000000000000000000000000005",
            "0x00000000000000000000000081d48d2c5d0744e8ef7a5c35cdceb0a27a1c707b"
          ],
          "data": "0x000000000000000000000000000000000000000000000005a7823f5fac5800000000000000000000000000000000000000000000000000000000000000000001",
          "blockHash": "0x2c9d1a5ab20844b1be7d931e2bf115bf81fc24a0e11c650f68d0e22e9984d89a",
          "blockNumber": "0x2f88cfc",
          "blockTimestamp": "0x6a46a221",
          "transactionHash": "0x7095df229c81a27b880c9a66ef9cdda776fe61dca422e0ea10575ae8248a5b45",
          "transactionIndex": "0xa",
          "logIndex": "0x1c",
          "removed": false
        }
      ],
      "logsBloom": "0x00000000400000000040000000000000000400000000000000000000000000000000000000000000000000000008000000000000000000000002000000002000000010000000000000000000000000000002000000000000001000000004000000000000000000010000002000200000000000000000000000000000000000000000000000000000000000000000001000000800000000000000000000000000000000000000000000000000000000000001000000000000000000000000000000000000000000000000000000000000000000000009000000000000400000020600000000000000000000000000000000000000000000000200080000000000",
      "type": "0x2",
      "transactionHash": "0x7095df229c81a27b880c9a66ef9cdda776fe61dca422e0ea10575ae8248a5b45",
      "transactionIndex": "0xa",
      "blockHash": "0x2c9d1a5ab20844b1be7d931e2bf115bf81fc24a0e11c650f68d0e22e9984d89a",
      "blockNumber": "0x2f88cfc",
      "gasUsed": "0x2858c",
      "effectiveGasPrice": "0x4c07d0a3b",
      "from": "0x81d48d2c5d0744e8ef7a5c35cdceb0a27a1c707b",
      "to": "0x962aba0a590981cf9c5b336ac34922c82f203165",
      "contractAddress": null
    },
    {
      "status": "0x1",
      "cumulativeGasUsed": "0x1ab237",
      "logs": [
        {
          "address": "0xfffffffffffffffffffffffffffffffffffffffe",
          "topics": [
            "0xddf252ad1be2c89b69c2b068fc378daa952ba7f163c4a11628f55a4df523b3ef",
            "0x00000000000000000000000081d48d2c5d0744e8ef7a5c35cdceb0a27a1c707b",
            "0x000000000000000000000000962aba0a590981cf9c5b336ac34922c82f203165"
          ],
          "data": "0x000000000000000000000000000000000000000000000005a7823f5fac580000",
          "blockHash": "0x0a152cebc9e3555468b82c5cd22f7dfa8e3477f959a5152b6ad4767ec78189f8",
          "blockNumber": "0x2f88cfd",
          "blockTimestamp": "0x6a46a222",
          "transactionHash": "0x7c091271324c75669d442b7c08a75c627cd0ce60ebb83bd7e7148bba55f48853",
          "transactionIndex": "0xf",
          "logIndex": "0x22",
          "removed": false
        },
        {
          "address": "0x962aba0a590981cf9c5b336ac34922c82f203165",
          "topics": [
            "0xd375d54616745fe1f13240876f3ce1bf39b50bdd13c0d5b7fadfc576a4c9844b",
            "0x000000000000000000000000000000000000000000000000000000000000000d",
            "0x0000000000000000000000000000000000000000000000000000000000000005",
            "0x00000000000000000000000081d48d2c5d0744e8ef7a5c35cdceb0a27a1c707b"
          ],
          "data": "0x00000000000000000000000081d48d2c5d0744e8ef7a5c35cdceb0a27a1c707b0000000000000000000000000000000000000000000000000000000000000001000000000000000000000000000000000000000000000005a7823f5fac580000000000000000000000000000000000000000000000000000073ccfad47430000",
          "blockHash": "0x0a152cebc9e3555468b82c5cd22f7dfa8e3477f959a5152b6ad4767ec78189f8",
          "blockNumber": "0x2f88cfd",
          "blockTimestamp": "0x6a46a222",
          "transactionHash": "0x7c091271324c75669d442b7c08a75c627cd0ce60ebb83bd7e7148bba55f48853",
          "transactionIndex": "0xf",
          "logIndex": "0x23",
          "removed": false
        },
        {
          "address": "0x4d82b6e528d3c2e1a3592e14863ec95eaef4ff85",
          "topics": [
            "0xc3d58168c5ae7397731d063d5bbf3d657854427343f4c083240f7aacaa2d0f62",
            "0x000000000000000000000000962aba0a590981cf9c5b336ac34922c82f203165",
            "0x000000000000000000000000962aba0a590981cf9c5b336ac34922c82f203165",
            "0x00000000000000000000000081d48d2c5d0744e8ef7a5c35cdceb0a27a1c707b"
          ],
          "data": "0x00000000000000000000000000000000000000000000000000000000000000050000000000000000000000000000000000000000000000000000000000000001",
          "blockHash": "0x0a152cebc9e3555468b82c5cd22f7dfa8e3477f959a5152b6ad4767ec78189f8",
          "blockNumber": "0x2f88cfd",
          "blockTimestamp": "0x6a46a222",
          "transactionHash": "0x7c091271324c75669d442b7c08a75c627cd0ce60ebb83bd7e7148bba55f48853",
          "transactionIndex": "0xf",
          "logIndex": "0x24",
          "removed": false
        },
        {
          "address": "0xfffffffffffffffffffffffffffffffffffffffe",
          "topics": [
            "0xddf252ad1be2c89b69c2b068fc378daa952ba7f163c4a11628f55a4df523b3ef",
            "0x000000000000000000000000962aba0a590981cf9c5b336ac34922c82f203165",
            "0x00000000000000000000000081d48d2c5d0744e8ef7a5c35cdceb0a27a1c707b"
          ],
          "data": "0x000000000000000000000000000000000000000000000005a0456fb265150000",
          "blockHash": "0x0a152cebc9e3555468b82c5cd22f7dfa8e3477f959a5152b6ad4767ec78189f8",
          "blockNumber": "0x2f88cfd",
          "blockTimestamp": "0x6a46a222",
          "transactionHash": "0x7c091271324c75669d442b7c08a75c627cd0ce60ebb83bd7e7148bba55f48853",
          "transactionIndex": "0xf",
          "logIndex": "0x25",
          "removed": false
        },
        {
          "address": "0xfffffffffffffffffffffffffffffffffffffffe",
          "topics": [
            "0xddf252ad1be2c89b69c2b068fc378daa952ba7f163c4a11628f55a4df523b3ef",
            "0x000000000000000000000000962aba0a590981cf9c5b336ac34922c82f203165",
            "0x00000000000000000000000084e243a60a75efe615537af49c5eaee8f3c32ed9"
          ],
          "data": "0x000000000000000000000000000000000000000000000000073ccfad47430000",
          "blockHash": "0x0a152cebc9e3555468b82c5cd22f7dfa8e3477f959a5152b6ad4767ec78189f8",
          "blockNumber": "0x2f88cfd",
          "blockTimestamp": "0x6a46a222",
          "transactionHash": "0x7c091271324c75669d442b7c08a75c627cd0ce60ebb83bd7e7148bba55f48853",
          "transactionIndex": "0xf",
          "logIndex": "0x26",
          "removed": false
        }
      ],
      "logsBloom": "0x00000000400000000040000000000000000000000000000000000000000000000000000000000000000000000200000000800000000000000002000000002000000010000000000000000008000000000002000000000000001000000004000000000000000000012000000000200000000000000000000000000010000000000000000000200000000000000000001000000800000000000000000000000000000000000000000000000000000000000001000000000000000000000000000000000002000000000008010000000000000000000009000000000000400000420600000000000000000000000000000000000000000000000200080000880000",
      "type": "0x2",
      "transactionHash": "0x7c091271324c75669d442b7c08a75c627cd0ce60ebb83bd7e7148bba55f48853",
      "transactionIndex": "0xf",
      "blockHash": "0x0a152cebc9e3555468b82c5cd22f7dfa8e3477f959a5152b6ad4767ec78189f8",
      "blockNumber": "0x2f88cfd",
      "gasUsed": "0x12167",
      "effectiveGasPrice": "0x4c07d0a3b",
      "from": "0x81d48d2c5d0744e8ef7a5c35cdceb0a27a1c707b",
      "to": "0x962aba0a590981cf9c5b336ac34922c82f203165",
      "contractAddress": null
    },
    {
      "status": "0x1",
      "cumulativeGasUsed": "0x1a4b4e",
      "logs": [
        {
          "address": "0x4d82b6e528d3c2e1a3592e14863ec95eaef4ff85",
          "topics": [
            "0xc3d58168c5ae7397731d063d5bbf3d657854427343f4c083240f7aacaa2d0f62",
            "0x000000000000000000000000962aba0a590981cf9c5b336ac34922c82f203165",
            "0x00000000000000000000000081d48d2c5d0744e8ef7a5c35cdceb0a27a1c707b",
            "0x000000000000000000000000962aba0a590981cf9c5b336ac34922c82f203165"
          ],
          "data": "0x00000000000000000000000000000000000000000000000000000000000000060000000000000000000000000000000000000000000000000000000000000001",
          "blockHash": "0x7fc6a19bfcc54da1807bf556766501f4d1d9b7e2b2b07474ade3452dd77cb619",
          "blockNumber": "0x2f88cfe",
          "blockTimestamp": "0x6a46a223",
          "transactionHash": "0x461f1c9dec6e0ad3fff290a1b1674d94f36ad32b3cbd0df2361a07dacf6c924d",
          "transactionIndex": "0x10",
          "logIndex": "0x20",
          "removed": false
        },
        {
          "address": "0x962aba0a590981cf9c5b336ac34922c82f203165",
          "topics": [
            "0x1e9d45789795021c76ee4b02700b847667a4f82249aed1f3a7d92b7806d1087e",
            "0x000000000000000000000000000000000000000000000000000000000000000e",
            "0x0000000000000000000000000000000000000000000000000000000000000006",
            "0x00000000000000000000000081d48d2c5d0744e8ef7a5c35cdceb0a27a1c707b"
          ],
          "data": "0x000000000000000000000000000000000000000000000002cab4c1242c9e00000000000000000000000000000000000000000000000000000000000000000001",
          "blockHash": "0x7fc6a19bfcc54da1807bf556766501f4d1d9b7e2b2b07474ade3452dd77cb619",
          "blockNumber": "0x2f88cfe",
          "blockTimestamp": "0x6a46a223",
          "transactionHash": "0x461f1c9dec6e0ad3fff290a1b1674d94f36ad32b3cbd0df2361a07dacf6c924d",
          "transactionIndex": "0x10",
          "logIndex": "0x21",
          "removed": false
        }
      ],
      "logsBloom": "0x00000000400000000000000000000000000400000000000000000000000000000000000000000000000000000008000000000000000400000002000000002000000000000000000800000000000000000000000000000000001000000004000000000000000000010000002000200000000000000000000000000000000000000000000400000000000000000000000008000000000000000000000000000000000000000000000000000000000000000001000000000020000000080000000000000000000000000000000000000000000000000009000000000000400000000600000000000000000000000000000000000000000000000200080000000000",
      "type": "0x2",
      "transactionHash": "0x461f1c9dec6e0ad3fff290a1b1674d94f36ad32b3cbd0df2361a07dacf6c924d",
      "transactionIndex": "0x10",
      "blockHash": "0x7fc6a19bfcc54da1807bf556766501f4d1d9b7e2b2b07474ade3452dd77cb619",
      "blockNumber": "0x2f88cfe",
      "gasUsed": "0x2858c",
      "effectiveGasPrice": "0x4c07d0a3b",
      "from": "0x81d48d2c5d0744e8ef7a5c35cdceb0a27a1c707b",
      "to": "0x962aba0a590981cf9c5b336ac34922c82f203165",
      "contractAddress": null
    },
    {
      "status": "0x1",
      "cumulativeGasUsed": "0x1cd0da",
      "logs": [
        {
          "address": "0x4d82b6e528d3c2e1a3592e14863ec95eaef4ff85",
          "topics": [
            "0xc3d58168c5ae7397731d063d5bbf3d657854427343f4c083240f7aacaa2d0f62",
            "0x000000000000000000000000962aba0a590981cf9c5b336ac34922c82f203165",
            "0x00000000000000000000000081d48d2c5d0744e8ef7a5c35cdceb0a27a1c707b",
            "0x000000000000000000000000962aba0a590981cf9c5b336ac34922c82f203165"
          ],
          "data": "0x00000000000000000000000000000000000000000000000000000000000000060000000000000000000000000000000000000000000000000000000000000001",
          "blockHash": "0x7fc6a19bfcc54da1807bf556766501f4d1d9b7e2b2b07474ade3452dd77cb619",
          "blockNumber": "0x2f88cfe",
          "blockTimestamp": "0x6a46a223",
          "transactionHash": "0xd73b315bbc971b54e34f838ef0665f6340e2b3ea06d73d16bd2a7d0adcf664bc",
          "transactionIndex": "0x11",
          "logIndex": "0x22",
          "removed": false
        },
        {
          "address": "0x962aba0a590981cf9c5b336ac34922c82f203165",
          "topics": [
            "0x1e9d45789795021c76ee4b02700b847667a4f82249aed1f3a7d92b7806d1087e",
            "0x000000000000000000000000000000000000000000000000000000000000000f",
            "0x0000000000000000000000000000000000000000000000000000000000000006",
            "0x00000000000000000000000081d48d2c5d0744e8ef7a5c35cdceb0a27a1c707b"
          ],
          "data": "0x000000000000000000000000000000000000000000000002df85d331a7b400000000000000000000000000000000000000000000000000000000000000000001",
          "blockHash": "0x7fc6a19bfcc54da1807bf556766501f4d1d9b7e2b2b07474ade3452dd77cb619",
          "blockNumber": "0x2f88cfe",
          "blockTimestamp": "0x6a46a223",
          "transactionHash": "0xd73b315bbc971b54e34f838ef0665f6340e2b3ea06d73d16bd2a7d0adcf664bc",
          "transactionIndex": "0x11",
          "logIndex": "0x23",
          "removed": false
        }
      ],
      "logsBloom": "0x00000000400000000000000000000000000400000000000000000000000000000000000000000000000000000008000000000000000400000002000000002000000000000000000000000000000000000000000000000000001000000006000000000000000000010000002000200000000000000000000000000000000000000000000400000800000000000000000000000000000000000000000000000000000000000000000000000000000000000001000000000000000000080000000000000000000000000000000000000000000000000009000000000000400000000600000200000000000000000000000000000000000000000200080000000000",
      "type": "0x2",
      "transactionHash": "0xd73b315bbc971b54e34f838ef0665f6340e2b3ea06d73d16bd2a7d0adcf664bc",
      "transactionIndex": "0x11",
      "blockHash": "0x7fc6a19bfcc54da1807bf556766501f4d1d9b7e2b2b07474ade3452dd77cb619",
      "blockNumber": "0x2f88cfe",
      "gasUsed": "0x2858c",
      "effectiveGasPrice": "0x4c07d0a3b",
      "from": "0x81d48d2c5d0744e8ef7a5c35cdceb0a27a1c707b",
      "to": "0x962aba0a590981cf9c5b336ac34922c82f203165",
      "contractAddress": null
    }
  ],
  "libraries": [],
  "pending": [],
  "returns": {},
  "timestamp": 1783013924195,
  "chain": 5042002,
  "commit": "256bb70"
}